{
	"contracts/first_test.sol": {
		"first_test": {
			"abi": [
				{
					"inputs": [],
					"stateMutability": "nonpayable",
					"type": "constructor"
				},
				{
					"anonymous": false,
					"inputs": [
						{
							"indexed": false,
							"internalType": "address",
							"name": "add",
							"type": "address"
						},
						{
							"indexed": false,
							"internalType": "uint256",
							"name": "amount",
							"type": "uint256"
						},
						{
							"indexed": false,
							"internalType": "uint256",
							"name": "contractBalance",
							"type": "uint256"
						}
					],
					"name": "logChildFunding",
					"type": "event"
				},
				{
					"inputs": [
						{
							"internalType": "address payable",
							"name": "_childAddress",
							"type": "address"
						},
						{
							"internalType": "uint256",
							"name": "_amount",
							"type": "uint256"
						},
						{
							"internalType": "string",
							"name": "_firstName",
							"type": "string"
						},
						{
							"internalType": "string",
							"name": "_lastName",
							"type": "string"
						},
						{
							"internalType": "uint256",
							"name": "_releaseDate",
							"type": "uint256"
						},
						{
							"internalType": "bool",
							"name": "_isWithdrawable",
							"type": "bool"
						}
					],
					"name": "addChild",
					"outputs": [],
					"stateMutability": "nonpayable",
					"type": "function"
				},
				{
					"inputs": [],
					"name": "balanceOf",
					"outputs": [
						{
							"internalType": "uint256",
							"name": "",
							"type": "uint256"
						}
					],
					"stateMutability": "view",
					"type": "function"
				},
				{
					"inputs": [
						{
							"internalType": "address",
							"name": "walletAddress",
							"type": "address"
						}
					],
					"name": "canWithdraw",
					"outputs": [
						{
							"internalType": "bool",
							"name": "",
							"type": "bool"
						}
					],
					"stateMutability": "nonpayable",
					"type": "function"
				},
				{
					"inputs": [
						{
							"internalType": "uint256",
							"name": "",
							"type": "uint256"
						}
					],
					"name": "children",
					"outputs": [
						{
							"internalType": "address payable",
							"name": "childAddress",
							"type": "address"
						},
						{
							"internalType": "uint256",
							"name": "amount",
							"type": "uint256"
						},
						{
							"internalType": "string",
							"name": "firstName",
							"type": "string"
						},
						{
							"internalType": "string",
							"name": "lastName",
							"type": "string"
						},
						{
							"internalType": "uint256",
							"name": "releaseDate",
							"type": "uint256"
						},
						{
							"internalType": "bool",
							"name": "isWithdrawable",
							"type": "bool"
						}
					],
					"stateMutability": "view",
					"type": "function"
				},
				{
					"inputs": [
						{
							"internalType": "address",
							"name": "walletAddress",
							"type": "address"
						}
					],
					"name": "deposit",
					"outputs": [],
					"stateMutability": "payable",
					"type": "function"
				},
				{
					"inputs": [
						{
							"internalType": "address payable",
							"name": "walletAddress",
							"type": "address"
						}
					],
					"name": "withdraw",
					"outputs": [],
					"stateMutability": "payable",
					"type": "function"
				}
			],
			"devdoc": {
				"kind": "dev",
				"methods": {},
				"version": 1
			},
			"evm": {
				"assembly": "    /* \"contracts/first_test.sol\":61:3362  contract first_test{... */\n  mstore(0x40, 0x80)\n    /* \"contracts/first_test.sol\":210:488  constructor(){... */\n  callvalue\n  dup1\n  iszero\n  tag_1\n  jumpi\n  revert(0x00, 0x00)\ntag_1:\n  pop\n    /* \"contracts/first_test.sol\":470:480  msg.sender */\n  caller\n    /* \"contracts/first_test.sol\":464:469  owner */\n  0x00\n  0x00\n    /* \"contracts/first_test.sol\":464:480  owner=msg.sender */\n  0x0100\n  exp\n  dup2\n  sload\n  dup2\n  0xffffffffffffffffffffffffffffffffffffffff\n  mul\n  not\n  and\n  swap1\n  dup4\n  0xffffffffffffffffffffffffffffffffffffffff\n  and\n  mul\n  or\n  swap1\n  sstore\n  pop\n    /* \"contracts/first_test.sol\":61:3362  contract first_test{... */\n  dataSize(sub_0)\n  dup1\n  dataOffset(sub_0)\n  0x00\n  codecopy\n  0x00\n  return\nstop\n\nsub_0: assembly {\n        /* \"contracts/first_test.sol\":61:3362  contract first_test{... */\n      mstore(0x40, 0x80)\n      jumpi(tag_1, lt(calldatasize, 0x04))\n      shr(0xe0, calldataload(0x00))\n      dup1\n      0x19262d30\n      eq\n      tag_2\n      jumpi\n      dup1\n      0x2503aedc\n      eq\n      tag_3\n      jumpi\n      dup1\n      0x51cff8d9\n      eq\n      tag_4\n      jumpi\n      dup1\n      0x7002ce42\n      eq\n      tag_5\n      jumpi\n      dup1\n      0x722713f7\n      eq\n      tag_6\n      jumpi\n      dup1\n      0xf340fa01\n      eq\n      tag_7\n      jumpi\n    tag_1:\n      revert(0x00, 0x00)\n        /* \"contracts/first_test.sol\":2201:2853  function canWithdraw(address walletAddress) public returns(bool){... */\n    tag_2:\n      callvalue\n      dup1\n      iszero\n      tag_8\n      jumpi\n      revert(0x00, 0x00)\n    tag_8:\n      pop\n      tag_9\n      0x04\n      dup1\n      calldatasize\n      sub\n      dup2\n      add\n      swap1\n      tag_10\n      swap2\n      swap1\n      tag_11\n      jump\t// in\n    tag_10:\n      tag_12\n      jump\t// in\n    tag_9:\n      mload(0x40)\n      tag_13\n      swap2\n      swap1\n      tag_14\n      jump\t// in\n    tag_13:\n      mload(0x40)\n      dup1\n      swap2\n      sub\n      swap1\n      return\n        /* \"contracts/first_test.sol\":775:1062  function addChild(address payable _childAddress, uint _amount, string memory _firstName, string memory _lastName, uint _releaseDate,bool _isWithdrawable) public onlyOwner{... */\n    tag_3:\n      callvalue\n      dup1\n      iszero\n      tag_15\n      jumpi\n      revert(0x00, 0x00)\n    tag_15:\n      pop\n      tag_16\n      0x04\n      dup1\n      calldatasize\n      sub\n      dup2\n      add\n      swap1\n      tag_17\n      swap2\n      swap1\n      tag_18\n      jump\t// in\n    tag_17:\n      tag_19\n      jump\t// in\n    tag_16:\n      stop\n        /* \"contracts/first_test.sol\":2884:3359  function withdraw(address payable  walletAddress) payable public{... */\n    tag_4:\n      tag_20\n      0x04\n      dup1\n      calldatasize\n      sub\n      dup2\n      add\n      swap1\n      tag_21\n      swap2\n      swap1\n      tag_22\n      jump\t// in\n    tag_21:\n      tag_23\n      jump\t// in\n    tag_20:\n      stop\n        /* \"contracts/first_test.sol\":716:739  child[] public children */\n    tag_5:\n      callvalue\n      dup1\n      iszero\n      tag_24\n      jumpi\n      revert(0x00, 0x00)\n    tag_24:\n      pop\n      tag_25\n      0x04\n      dup1\n      calldatasize\n      sub\n      dup2\n      add\n      swap1\n      tag_26\n      swap2\n      swap1\n      tag_27\n      jump\t// in\n    tag_26:\n      tag_28\n      jump\t// in\n    tag_25:\n      mload(0x40)\n      tag_29\n      swap7\n      swap6\n      swap5\n      swap4\n      swap3\n      swap2\n      swap1\n      tag_30\n      jump\t// in\n    tag_29:\n      mload(0x40)\n      dup1\n      swap2\n      sub\n      swap1\n      return\n        /* \"contracts/first_test.sol\":1072:1205  function balanceOf() public view returns(uint){... */\n    tag_6:\n      callvalue\n      dup1\n      iszero\n      tag_31\n      jumpi\n      revert(0x00, 0x00)\n    tag_31:\n      pop\n      tag_32\n      tag_33\n      jump\t// in\n    tag_32:\n      mload(0x40)\n      tag_34\n      swap2\n      swap1\n      tag_35\n      jump\t// in\n    tag_34:\n      mload(0x40)\n      dup1\n      swap2\n      sub\n      swap1\n      return\n        /* \"contracts/first_test.sol\":1386:1502  function deposit(address walletAddress) payable public onlyOwner{... */\n    tag_7:\n      tag_36\n      0x04\n      dup1\n      calldatasize\n      sub\n      dup2\n      add\n      swap1\n      tag_37\n      swap2\n      swap1\n      tag_11\n      jump\t// in\n    tag_37:\n      tag_38\n      jump\t// in\n    tag_36:\n      stop\n        /* \"contracts/first_test.sol\":2201:2853  function canWithdraw(address walletAddress) public returns(bool){... */\n    tag_12:\n        /* \"contracts/first_test.sol\":2260:2264  bool */\n      0x00\n        /* \"contracts/first_test.sol\":2276:2286  uint index */\n      0x00\n        /* \"contracts/first_test.sol\":2287:2310  getIndex(walletAddress) */\n      tag_40\n        /* \"contracts/first_test.sol\":2296:2309  walletAddress */\n      dup4\n        /* \"contracts/first_test.sol\":2287:2295  getIndex */\n      tag_41\n        /* \"contracts/first_test.sol\":2287:2310  getIndex(walletAddress) */\n      jump\t// in\n    tag_40:\n        /* \"contracts/first_test.sol\":2276:2310  uint index=getIndex(walletAddress) */\n      swap1\n      pop\n        /* \"contracts/first_test.sol\":2331:2335  9999 */\n      0x270f\n        /* \"contracts/first_test.sol\":2324:2329  index */\n      dup2\n        /* \"contracts/first_test.sol\":2324:2335  index==9999 */\n      sub\n        /* \"contracts/first_test.sol\":2321:2375  if(index==9999){... */\n      tag_42\n      jumpi\n        /* \"contracts/first_test.sol\":2358:2363  false */\n      0x00\n        /* \"contracts/first_test.sol\":2351:2363  return false */\n      swap2\n      pop\n      pop\n      jump(tag_39)\n        /* \"contracts/first_test.sol\":2321:2375  if(index==9999){... */\n    tag_42:\n        /* \"contracts/first_test.sol\":2400:2404  9999 */\n      0x270f\n        /* \"contracts/first_test.sol\":2393:2398  index */\n      dup2\n        /* \"contracts/first_test.sol\":2393:2404  index!=9999 */\n      sub\n        /* \"contracts/first_test.sol\":2385:2432  require(index!=9999,\"Wrong child not in block\") */\n      tag_43\n      jumpi\n      mload(0x40)\n      0x08c379a000000000000000000000000000000000000000000000000000000000\n      dup2\n      mstore\n      0x04\n      add\n      tag_44\n      swap1\n      tag_45\n      jump\t// in\n    tag_44:\n      mload(0x40)\n      dup1\n      swap2\n      sub\n      swap1\n      revert\n    tag_43:\n        /* \"contracts/first_test.sol\":2446:2454  children */\n      0x01\n        /* \"contracts/first_test.sol\":2455:2460  index */\n      dup2\n        /* \"contracts/first_test.sol\":2446:2461  children[index] */\n      dup2\n      sload\n      dup2\n      lt\n      tag_46\n      jumpi\n      tag_47\n      tag_48\n      jump\t// in\n    tag_47:\n    tag_46:\n      swap1\n      0x00\n      mstore\n      keccak256(0x00, 0x20)\n      swap1\n      0x06\n      mul\n      add\n        /* \"contracts/first_test.sol\":2446:2476  children[index].isWithdrawable */\n      0x05\n      add\n      0x00\n      swap1\n      sload\n      swap1\n      0x0100\n      exp\n      swap1\n      div\n      0xff\n      and\n        /* \"contracts/first_test.sol\":2443:2515  if(children[index].isWithdrawable){... */\n      iszero\n      tag_50\n      jumpi\n        /* \"contracts/first_test.sol\":2499:2503  true */\n      0x01\n        /* \"contracts/first_test.sol\":2492:2503  return true */\n      swap2\n      pop\n      pop\n      jump(tag_39)\n        /* \"contracts/first_test.sol\":2443:2515  if(children[index].isWithdrawable){... */\n    tag_50:\n        /* \"contracts/first_test.sol\":2623:2631  children */\n      0x01\n        /* \"contracts/first_test.sol\":2632:2637  index */\n      dup2\n        /* \"contracts/first_test.sol\":2623:2638  children[index] */\n      dup2\n      sload\n      dup2\n      lt\n      tag_51\n      jumpi\n      tag_52\n      tag_48\n      jump\t// in\n    tag_52:\n    tag_51:\n      swap1\n      0x00\n      mstore\n      keccak256(0x00, 0x20)\n      swap1\n      0x06\n      mul\n      add\n        /* \"contracts/first_test.sol\":2623:2650  children[index].releaseDate */\n      0x04\n      add\n      sload\n        /* \"contracts/first_test.sol\":2606:2621  block.timestamp */\n      timestamp\n        /* \"contracts/first_test.sol\":2606:2650  block.timestamp>=children[index].releaseDate */\n      lt\n      iszero\n        /* \"contracts/first_test.sol\":2598:2675  require(block.timestamp>=children[index].releaseDate,\"you cant withdraw yet\") */\n      tag_54\n      jumpi\n      mload(0x40)\n      0x08c379a000000000000000000000000000000000000000000000000000000000\n      dup2\n      mstore\n      0x04\n      add\n      tag_55\n      swap1\n      tag_56\n      jump\t// in\n    tag_55:\n      mload(0x40)\n      dup1\n      swap2\n      sub\n      swap1\n      revert\n    tag_54:\n        /* \"contracts/first_test.sol\":2707:2715  children */\n      0x01\n        /* \"contracts/first_test.sol\":2716:2721  index */\n      dup2\n        /* \"contracts/first_test.sol\":2707:2722  children[index] */\n      dup2\n      sload\n      dup2\n      lt\n      tag_57\n      jumpi\n      tag_58\n      tag_48\n      jump\t// in\n    tag_58:\n    tag_57:\n      swap1\n      0x00\n      mstore\n      keccak256(0x00, 0x20)\n      swap1\n      0x06\n      mul\n      add\n        /* \"contracts/first_test.sol\":2707:2734  children[index].releaseDate */\n      0x04\n      add\n      sload\n        /* \"contracts/first_test.sol\":2689:2704  block.timestamp */\n      timestamp\n        /* \"contracts/first_test.sol\":2689:2734  block.timestamp>= children[index].releaseDate */\n      lt\n        /* \"contracts/first_test.sol\":2686:2823  if(block.timestamp>= children[index].releaseDate){... */\n      tag_60\n      jumpi\n        /* \"contracts/first_test.sol\":2781:2785  true */\n      0x01\n        /* \"contracts/first_test.sol\":2750:2758  children */\n      dup1\n        /* \"contracts/first_test.sol\":2759:2764  index */\n      dup3\n        /* \"contracts/first_test.sol\":2750:2765  children[index] */\n      dup2\n      sload\n      dup2\n      lt\n      tag_61\n      jumpi\n      tag_62\n      tag_48\n      jump\t// in\n    tag_62:\n    tag_61:\n      swap1\n      0x00\n      mstore\n      keccak256(0x00, 0x20)\n      swap1\n      0x06\n      mul\n      add\n        /* \"contracts/first_test.sol\":2750:2780  children[index].isWithdrawable */\n      0x05\n      add\n      0x00\n        /* \"contracts/first_test.sol\":2750:2785  children[index].isWithdrawable=true */\n      0x0100\n      exp\n      dup2\n      sload\n      dup2\n      0xff\n      mul\n      not\n      and\n      swap1\n      dup4\n      iszero\n      iszero\n      mul\n      or\n      swap1\n      sstore\n      pop\n        /* \"contracts/first_test.sol\":2807:2811  true */\n      0x01\n        /* \"contracts/first_test.sol\":2800:2811  return true */\n      swap2\n      pop\n      pop\n      jump(tag_39)\n        /* \"contracts/first_test.sol\":2686:2823  if(block.timestamp>= children[index].releaseDate){... */\n    tag_60:\n        /* \"contracts/first_test.sol\":2840:2845  false */\n      0x00\n        /* \"contracts/first_test.sol\":2833:2845  return false */\n      swap2\n      pop\n      pop\n        /* \"contracts/first_test.sol\":2201:2853  function canWithdraw(address walletAddress) public returns(bool){... */\n    tag_39:\n      swap2\n      swap1\n      pop\n      jump\t// out\n        /* \"contracts/first_test.sol\":775:1062  function addChild(address payable _childAddress, uint _amount, string memory _firstName, string memory _lastName, uint _releaseDate,bool _isWithdrawable) public onlyOwner{... */\n    tag_19:\n        /* \"contracts/first_test.sol\":1264:1269  owner */\n      0x00\n      0x00\n      swap1\n      sload\n      swap1\n      0x0100\n      exp\n      swap1\n      div\n      0xffffffffffffffffffffffffffffffffffffffff\n      and\n        /* \"contracts/first_test.sol\":1252:1269  msg.sender==owner */\n      0xffffffffffffffffffffffffffffffffffffffff\n      and\n        /* \"contracts/first_test.sol\":1252:1262  msg.sender */\n      caller\n        /* \"contracts/first_test.sol\":1252:1269  msg.sender==owner */\n      0xffffffffffffffffffffffffffffffffffffffff\n      and\n      eq\n        /* \"contracts/first_test.sol\":1244:1291  require(msg.sender==owner,\"you arenot allowed\") */\n      tag_65\n      jumpi\n      mload(0x40)\n      0x08c379a000000000000000000000000000000000000000000000000000000000\n      dup2\n      mstore\n      0x04\n      add\n      tag_66\n      swap1\n      tag_67\n      jump\t// in\n    tag_66:\n      mload(0x40)\n      dup1\n      swap2\n      sub\n      swap1\n      revert\n    tag_65:\n        /* \"contracts/first_test.sol\":956:964  children */\n      0x01\n        /* \"contracts/first_test.sol\":970:1053  child(_childAddress, _amount, _firstName, _lastName, _releaseDate, _isWithdrawable) */\n      mload(0x40)\n      dup1\n      0xc0\n      add\n      0x40\n      mstore\n      dup1\n        /* \"contracts/first_test.sol\":976:989  _childAddress */\n      dup9\n        /* \"contracts/first_test.sol\":970:1053  child(_childAddress, _amount, _firstName, _lastName, _releaseDate, _isWithdrawable) */\n      0xffffffffffffffffffffffffffffffffffffffff\n      and\n      dup2\n      mstore\n      0x20\n      add\n        /* \"contracts/first_test.sol\":991:998  _amount */\n      dup8\n        /* \"contracts/first_test.sol\":970:1053  child(_childAddress, _amount, _firstName, _lastName, _releaseDate, _isWithdrawable) */\n      dup2\n      mstore\n      0x20\n      add\n        /* \"contracts/first_test.sol\":1000:1010  _firstName */\n      dup7\n        /* \"contracts/first_test.sol\":970:1053  child(_childAddress, _amount, _firstName, _lastName, _releaseDate, _isWithdrawable) */\n      dup2\n      mstore\n      0x20\n      add\n        /* \"contracts/first_test.sol\":1012:1021  _lastName */\n      dup6\n        /* \"contracts/first_test.sol\":970:1053  child(_childAddress, _amount, _firstName, _lastName, _releaseDate, _isWithdrawable) */\n      dup2\n      mstore\n      0x20\n      add\n        /* \"contracts/first_test.sol\":1023:1035  _releaseDate */\n      dup5\n        /* \"contracts/first_test.sol\":970:1053  child(_childAddress, _amount, _firstName, _lastName, _releaseDate, _isWithdrawable) */\n      dup2\n      mstore\n      0x20\n      add\n        /* \"contracts/first_test.sol\":1037:1052  _isWithdrawable */\n      dup4\n        /* \"contracts/first_test.sol\":970:1053  child(_childAddress, _amount, _firstName, _lastName, _releaseDate, _isWithdrawable) */\n      iszero\n      iszero\n      dup2\n      mstore\n      pop\n        /* \"contracts/first_test.sol\":956:1054  children.push(child(_childAddress, _amount, _firstName, _lastName, _releaseDate, _isWithdrawable)) */\n      swap1\n      dup1\n      0x01\n      dup2\n      sload\n      add\n      dup1\n      dup3\n      sstore\n      dup1\n      swap2\n      pop\n      pop\n      0x01\n      swap1\n      sub\n      swap1\n      0x00\n      mstore\n      keccak256(0x00, 0x20)\n      swap1\n      0x06\n      mul\n      add\n      0x00\n      swap1\n      swap2\n      swap1\n      swap2\n      swap1\n      swap2\n      pop\n      0x00\n      dup3\n      add\n      mload\n      dup2\n      0x00\n      add\n      exp(0x0100, 0x00)\n      dup2\n      sload\n      dup2\n      0xffffffffffffffffffffffffffffffffffffffff\n      mul\n      not\n      and\n      swap1\n      dup4\n      0xffffffffffffffffffffffffffffffffffffffff\n      and\n      mul\n      or\n      swap1\n      sstore\n      pop\n      0x20\n      dup3\n      add\n      mload\n      dup2\n      0x01\n      add\n      sstore\n      0x40\n      dup3\n      add\n      mload\n      dup2\n      0x02\n      add\n      swap1\n      dup2\n      tag_70\n      swap2\n      swap1\n      tag_71\n      jump\t// in\n    tag_70:\n      pop\n      0x60\n      dup3\n      add\n      mload\n      dup2\n      0x03\n      add\n      swap1\n      dup2\n      tag_72\n      swap2\n      swap1\n      tag_71\n      jump\t// in\n    tag_72:\n      pop\n      0x80\n      dup3\n      add\n      mload\n      dup2\n      0x04\n      add\n      sstore\n      0xa0\n      dup3\n      add\n      mload\n      dup2\n      0x05\n      add\n      exp(0x0100, 0x00)\n      dup2\n      sload\n      dup2\n      0xff\n      mul\n      not\n      and\n      swap1\n      dup4\n      iszero\n      iszero\n      mul\n      or\n      swap1\n      sstore\n      pop\n      pop\n      pop\n        /* \"contracts/first_test.sol\":775:1062  function addChild(address payable _childAddress, uint _amount, string memory _firstName, string memory _lastName, uint _releaseDate,bool _isWithdrawable) public onlyOwner{... */\n      pop\n      pop\n      pop\n      pop\n      pop\n      pop\n      jump\t// out\n        /* \"contracts/first_test.sol\":2884:3359  function withdraw(address payable  walletAddress) payable public{... */\n    tag_23:\n        /* \"contracts/first_test.sol\":2959:2969  uint index */\n      0x00\n        /* \"contracts/first_test.sol\":2970:2993  getIndex(walletAddress) */\n      tag_74\n        /* \"contracts/first_test.sol\":2979:2992  walletAddress */\n      dup3\n        /* \"contracts/first_test.sol\":2970:2978  getIndex */\n      tag_41\n        /* \"contracts/first_test.sol\":2970:2993  getIndex(walletAddress) */\n      jump\t// in\n    tag_74:\n        /* \"contracts/first_test.sol\":2959:2993  uint index=getIndex(walletAddress) */\n      swap1\n      pop\n        /* \"contracts/first_test.sol\":3014:3018  9999 */\n      0x270f\n        /* \"contracts/first_test.sol\":3007:3012  index */\n      dup2\n        /* \"contracts/first_test.sol\":3007:3018  index==9999 */\n      sub\n        /* \"contracts/first_test.sol\":3004:3121  if(index==9999){... */\n      tag_75\n      jumpi\n        /* \"contracts/first_test.sol\":3103:3110  return; */\n      pop\n      jump(tag_73)\n        /* \"contracts/first_test.sol\":3004:3121  if(index==9999){... */\n    tag_75:\n        /* \"contracts/first_test.sol\":3169:3179  msg.sender */\n      caller\n        /* \"contracts/first_test.sol\":3139:3179  children[index].childAddress==msg.sender */\n      0xffffffffffffffffffffffffffffffffffffffff\n      and\n        /* \"contracts/first_test.sol\":3139:3147  children */\n      0x01\n        /* \"contracts/first_test.sol\":3148:3153  index */\n      dup3\n        /* \"contracts/first_test.sol\":3139:3154  children[index] */\n      dup2\n      sload\n      dup2\n      lt\n      tag_76\n      jumpi\n      tag_77\n      tag_48\n      jump\t// in\n    tag_77:\n    tag_76:\n      swap1\n      0x00\n      mstore\n      keccak256(0x00, 0x20)\n      swap1\n      0x06\n      mul\n      add\n        /* \"contracts/first_test.sol\":3139:3167  children[index].childAddress */\n      0x00\n      add\n      0x00\n      swap1\n      sload\n      swap1\n      0x0100\n      exp\n      swap1\n      div\n      0xffffffffffffffffffffffffffffffffffffffff\n      and\n        /* \"contracts/first_test.sol\":3139:3179  children[index].childAddress==msg.sender */\n      0xffffffffffffffffffffffffffffffffffffffff\n      and\n      eq\n        /* \"contracts/first_test.sol\":3131:3199  require(children[index].childAddress==msg.sender,\"Police is coming\") */\n      tag_79\n      jumpi\n      mload(0x40)\n      0x08c379a000000000000000000000000000000000000000000000000000000000\n      dup2\n      mstore\n      0x04\n      add\n      tag_80\n      swap1\n      tag_81\n      jump\t// in\n    tag_80:\n      mload(0x40)\n      dup1\n      swap2\n      sub\n      swap1\n      revert\n    tag_79:\n        /* \"contracts/first_test.sol\":3218:3244  canWithdraw(walletAddress) */\n      tag_82\n        /* \"contracts/first_test.sol\":3230:3243  walletAddress */\n      dup3\n        /* \"contracts/first_test.sol\":3218:3229  canWithdraw */\n      tag_12\n        /* \"contracts/first_test.sol\":3218:3244  canWithdraw(walletAddress) */\n      jump\t// in\n    tag_82:\n        /* \"contracts/first_test.sol\":3210:3269  require(canWithdraw(walletAddress),\"You cant withdraw yet\") */\n      tag_83\n      jumpi\n      mload(0x40)\n      0x08c379a000000000000000000000000000000000000000000000000000000000\n      dup2\n      mstore\n      0x04\n      add\n      tag_84\n      swap1\n      tag_85\n      jump\t// in\n    tag_84:\n      mload(0x40)\n      dup1\n      swap2\n      sub\n      swap1\n      revert\n    tag_83:\n        /* \"contracts/first_test.sol\":3280:3288  children */\n      0x01\n        /* \"contracts/first_test.sol\":3289:3294  index */\n      dup2\n        /* \"contracts/first_test.sol\":3280:3295  children[index] */\n      dup2\n      sload\n      dup2\n      lt\n      tag_86\n      jumpi\n      tag_87\n      tag_48\n      jump\t// in\n    tag_87:\n    tag_86:\n      swap1\n      0x00\n      mstore\n      keccak256(0x00, 0x20)\n      swap1\n      0x06\n      mul\n      add\n        /* \"contracts/first_test.sol\":3280:3308  children[index].childAddress */\n      0x00\n      add\n      0x00\n      swap1\n      sload\n      swap1\n      0x0100\n      exp\n      swap1\n      div\n      0xffffffffffffffffffffffffffffffffffffffff\n      and\n        /* \"contracts/first_test.sol\":3280:3317  children[index].childAddress.transfer */\n      0xffffffffffffffffffffffffffffffffffffffff\n      and\n        /* \"contracts/first_test.sol\":3280:3341  children[index].childAddress.transfer(children[index].amount) */\n      0x08fc\n        /* \"contracts/first_test.sol\":3318:3326  children */\n      0x01\n        /* \"contracts/first_test.sol\":3327:3332  index */\n      dup4\n        /* \"contracts/first_test.sol\":3318:3333  children[index] */\n      dup2\n      sload\n      dup2\n      lt\n      tag_89\n      jumpi\n      tag_90\n      tag_48\n      jump\t// in\n    tag_90:\n    tag_89:\n      swap1\n      0x00\n      mstore\n      keccak256(0x00, 0x20)\n      swap1\n      0x06\n      mul\n      add\n        /* \"contracts/first_test.sol\":3318:3340  children[index].amount */\n      0x01\n      add\n      sload\n        /* \"contracts/first_test.sol\":3280:3341  children[index].childAddress.transfer(children[index].amount) */\n      swap1\n      dup2\n      iszero\n      mul\n      swap1\n      mload(0x40)\n      0x00\n      mload(0x40)\n      dup1\n      dup4\n      sub\n      dup2\n      dup6\n      dup9\n      dup9\n      call\n      swap4\n      pop\n      pop\n      pop\n      pop\n      iszero\n      dup1\n      iszero\n      tag_93\n      jumpi\n      returndatacopy(0x00, 0x00, returndatasize)\n      revert(0x00, returndatasize)\n    tag_93:\n      pop\n        /* \"contracts/first_test.sol\":2948:3359  {... */\n      pop\n        /* \"contracts/first_test.sol\":2884:3359  function withdraw(address payable  walletAddress) payable public{... */\n    tag_73:\n      pop\n      jump\t// out\n        /* \"contracts/first_test.sol\":716:739  child[] public children */\n    tag_28:\n      0x01\n      dup2\n      dup2\n      sload\n      dup2\n      lt\n      tag_94\n      jumpi\n      0x00\n      dup1\n      revert\n    tag_94:\n      swap1\n      0x00\n      mstore\n      keccak256(0x00, 0x20)\n      swap1\n      0x06\n      mul\n      add\n      0x00\n      swap2\n      pop\n      swap1\n      pop\n      dup1\n      0x00\n      add\n      0x00\n      swap1\n      sload\n      swap1\n      0x0100\n      exp\n      swap1\n      div\n      0xffffffffffffffffffffffffffffffffffffffff\n      and\n      swap1\n      dup1\n      0x01\n      add\n      sload\n      swap1\n      dup1\n      0x02\n      add\n      dup1\n      sload\n      tag_96\n      swap1\n      tag_97\n      jump\t// in\n    tag_96:\n      dup1\n      0x1f\n      add\n      0x20\n      dup1\n      swap2\n      div\n      mul\n      0x20\n      add\n      mload(0x40)\n      swap1\n      dup2\n      add\n      0x40\n      mstore\n      dup1\n      swap3\n      swap2\n      swap1\n      dup2\n      dup2\n      mstore\n      0x20\n      add\n      dup3\n      dup1\n      sload\n      tag_98\n      swap1\n      tag_97\n      jump\t// in\n    tag_98:\n      dup1\n      iszero\n      tag_99\n      jumpi\n      dup1\n      0x1f\n      lt\n      tag_100\n      jumpi\n      0x0100\n      dup1\n      dup4\n      sload\n      div\n      mul\n      dup4\n      mstore\n      swap2\n      0x20\n      add\n      swap2\n      jump(tag_99)\n    tag_100:\n      dup3\n      add\n      swap2\n      swap1\n      0x00\n      mstore\n      keccak256(0x00, 0x20)\n      swap1\n    tag_101:\n      dup2\n      sload\n      dup2\n      mstore\n      swap1\n      0x01\n      add\n      swap1\n      0x20\n      add\n      dup1\n      dup4\n      gt\n      tag_101\n      jumpi\n      dup3\n      swap1\n      sub\n      0x1f\n      and\n      dup3\n      add\n      swap2\n    tag_99:\n      pop\n      pop\n      pop\n      pop\n      pop\n      swap1\n      dup1\n      0x03\n      add\n      dup1\n      sload\n      tag_102\n      swap1\n      tag_97\n      jump\t// in\n    tag_102:\n      dup1\n      0x1f\n      add\n      0x20\n      dup1\n      swap2\n      div\n      mul\n      0x20\n      add\n      mload(0x40)\n      swap1\n      dup2\n      add\n      0x40\n      mstore\n      dup1\n      swap3\n      swap2\n      swap1\n      dup2\n      dup2\n      mstore\n      0x20\n      add\n      dup3\n      dup1\n      sload\n      tag_103\n      swap1\n      tag_97\n      jump\t// in\n    tag_103:\n      dup1\n      iszero\n      tag_104\n      jumpi\n      dup1\n      0x1f\n      lt\n      tag_105\n      jumpi\n      0x0100\n      dup1\n      dup4\n      sload\n      div\n      mul\n      dup4\n      mstore\n      swap2\n      0x20\n      add\n      swap2\n      jump(tag_104)\n    tag_105:\n      dup3\n      add\n      swap2\n      swap1\n      0x00\n      mstore\n      keccak256(0x00, 0x20)\n      swap1\n    tag_106:\n      dup2\n      sload\n      dup2\n      mstore\n      swap1\n      0x01\n      add\n      swap1\n      0x20\n      add\n      dup1\n      dup4\n      gt\n      tag_106\n      jumpi\n      dup3\n      swap1\n      sub\n      0x1f\n      and\n      dup3\n      add\n      swap2\n    tag_104:\n      pop\n      pop\n      pop\n      pop\n      pop\n      swap1\n      dup1\n      0x04\n      add\n      sload\n      swap1\n      dup1\n      0x05\n      add\n      0x00\n      swap1\n      sload\n      swap1\n      0x0100\n      exp\n      swap1\n      div\n      0xff\n      and\n      swap1\n      pop\n      dup7\n      jump\t// out\n        /* \"contracts/first_test.sol\":1072:1205  function balanceOf() public view returns(uint){... */\n    tag_33:\n        /* \"contracts/first_test.sol\":1113:1117  uint */\n      0x00\n        /* \"contracts/first_test.sol\":1136:1157  address(this).balance */\n      selfbalance\n        /* \"contracts/first_test.sol\":1129:1157  return address(this).balance */\n      swap1\n      pop\n        /* \"contracts/first_test.sol\":1072:1205  function balanceOf() public view returns(uint){... */\n      swap1\n      jump\t// out\n        /* \"contracts/first_test.sol\":1386:1502  function deposit(address walletAddress) payable public onlyOwner{... */\n    tag_38:\n        /* \"contracts/first_test.sol\":1264:1269  owner */\n      0x00\n      0x00\n      swap1\n      sload\n      swap1\n      0x0100\n      exp\n      swap1\n      div\n      0xffffffffffffffffffffffffffffffffffffffff\n      and\n        /* \"contracts/first_test.sol\":1252:1269  msg.sender==owner */\n      0xffffffffffffffffffffffffffffffffffffffff\n      and\n        /* \"contracts/first_test.sol\":1252:1262  msg.sender */\n      caller\n        /* \"contracts/first_test.sol\":1252:1269  msg.sender==owner */\n      0xffffffffffffffffffffffffffffffffffffffff\n      and\n      eq\n        /* \"contracts/first_test.sol\":1244:1291  require(msg.sender==owner,\"you arenot allowed\") */\n      tag_109\n      jumpi\n      mload(0x40)\n      0x08c379a000000000000000000000000000000000000000000000000000000000\n      dup2\n      mstore\n      0x04\n      add\n      tag_110\n      swap1\n      tag_67\n      jump\t// in\n    tag_110:\n      mload(0x40)\n      dup1\n      swap2\n      sub\n      swap1\n      revert\n    tag_109:\n        /* \"contracts/first_test.sol\":1461:1494  addToChildsBalance(walletAddress) */\n      tag_112\n        /* \"contracts/first_test.sol\":1480:1493  walletAddress */\n      dup2\n        /* \"contracts/first_test.sol\":1461:1479  addToChildsBalance */\n      tag_113\n        /* \"contracts/first_test.sol\":1461:1494  addToChildsBalance(walletAddress) */\n      jump\t// in\n    tag_112:\n        /* \"contracts/first_test.sol\":1386:1502  function deposit(address walletAddress) payable public onlyOwner{... */\n      pop\n      jump\t// out\n        /* \"contracts/first_test.sol\":1873:2154  function getIndex(address wallestAddress) private view returns (uint){... */\n    tag_41:\n        /* \"contracts/first_test.sol\":1937:1941  uint */\n      0x00\n        /* \"contracts/first_test.sol\":1958:1964  uint i */\n      0x00\n        /* \"contracts/first_test.sol\":1965:1966  0 */\n      0x00\n        /* \"contracts/first_test.sol\":1958:1966  uint i=0 */\n      swap1\n      pop\n        /* \"contracts/first_test.sol\":1953:2102  for( uint i=0;i<children.length;i++){... */\n    tag_115:\n        /* \"contracts/first_test.sol\":1969:1977  children */\n      0x01\n        /* \"contracts/first_test.sol\":1969:1984  children.length */\n      dup1\n      sload\n      swap1\n      pop\n        /* \"contracts/first_test.sol\":1967:1968  i */\n      dup2\n        /* \"contracts/first_test.sol\":1967:1984  i<children.length */\n      lt\n        /* \"contracts/first_test.sol\":1953:2102  for( uint i=0;i<children.length;i++){... */\n      iszero\n      tag_116\n      jumpi\n        /* \"contracts/first_test.sol\":2033:2047  wallestAddress */\n      dup3\n        /* \"contracts/first_test.sol\":2007:2047  children[i].childAddress==wallestAddress */\n      0xffffffffffffffffffffffffffffffffffffffff\n      and\n        /* \"contracts/first_test.sol\":2007:2015  children */\n      0x01\n        /* \"contracts/first_test.sol\":2016:2017  i */\n      dup3\n        /* \"contracts/first_test.sol\":2007:2018  children[i] */\n      dup2\n      sload\n      dup2\n      lt\n      tag_118\n      jumpi\n      tag_119\n      tag_48\n      jump\t// in\n    tag_119:\n    tag_118:\n      swap1\n      0x00\n      mstore\n      keccak256(0x00, 0x20)\n      swap1\n      0x06\n      mul\n      add\n        /* \"contracts/first_test.sol\":2007:2031  children[i].childAddress */\n      0x00\n      add\n      0x00\n      swap1\n      sload\n      swap1\n      0x0100\n      exp\n      swap1\n      div\n      0xffffffffffffffffffffffffffffffffffffffff\n      and\n        /* \"contracts/first_test.sol\":2007:2047  children[i].childAddress==wallestAddress */\n      0xffffffffffffffffffffffffffffffffffffffff\n      and\n      sub\n        /* \"contracts/first_test.sol\":2004:2091  if(children[i].childAddress==wallestAddress){... */\n      tag_121\n      jumpi\n        /* \"contracts/first_test.sol\":2074:2075  i */\n      dup1\n        /* \"contracts/first_test.sol\":2067:2075  return i */\n      swap2\n      pop\n      pop\n      jump(tag_114)\n        /* \"contracts/first_test.sol\":2004:2091  if(children[i].childAddress==wallestAddress){... */\n    tag_121:\n        /* \"contracts/first_test.sol\":1985:1988  i++ */\n      dup1\n      dup1\n      0x01\n      add\n      swap2\n      pop\n      pop\n        /* \"contracts/first_test.sol\":1953:2102  for( uint i=0;i<children.length;i++){... */\n      jump(tag_115)\n    tag_116:\n      pop\n        /* \"contracts/first_test.sol\":2119:2123  9999 */\n      0x270f\n        /* \"contracts/first_test.sol\":2112:2123  return 9999 */\n      swap1\n      pop\n        /* \"contracts/first_test.sol\":1873:2154  function getIndex(address wallestAddress) private view returns (uint){... */\n    tag_114:\n      swap2\n      swap1\n      pop\n      jump\t// out\n        /* \"contracts/first_test.sol\":1510:1861  function addToChildsBalance(address walletAddress) private onlyOwner{... */\n    tag_113:\n        /* \"contracts/first_test.sol\":1264:1269  owner */\n      0x00\n      0x00\n      swap1\n      sload\n      swap1\n      0x0100\n      exp\n      swap1\n      div\n      0xffffffffffffffffffffffffffffffffffffffff\n      and\n        /* \"contracts/first_test.sol\":1252:1269  msg.sender==owner */\n      0xffffffffffffffffffffffffffffffffffffffff\n      and\n        /* \"contracts/first_test.sol\":1252:1262  msg.sender */\n      caller\n        /* \"contracts/first_test.sol\":1252:1269  msg.sender==owner */\n      0xffffffffffffffffffffffffffffffffffffffff\n      and\n      eq\n        /* \"contracts/first_test.sol\":1244:1291  require(msg.sender==owner,\"you arenot allowed\") */\n      tag_123\n      jumpi\n      mload(0x40)\n      0x08c379a000000000000000000000000000000000000000000000000000000000\n      dup2\n      mstore\n      0x04\n      add\n      tag_124\n      swap1\n      tag_67\n      jump\t// in\n    tag_124:\n      mload(0x40)\n      dup1\n      swap2\n      sub\n      swap1\n      revert\n    tag_123:\n        /* \"contracts/first_test.sol\":1594:1600  uint i */\n      0x00\n        /* \"contracts/first_test.sol\":1601:1602  0 */\n      0x00\n        /* \"contracts/first_test.sol\":1594:1602  uint i=0 */\n      swap1\n      pop\n        /* \"contracts/first_test.sol\":1589:1854  for( uint i=0;i<children.length;i++){... */\n    tag_126:\n        /* \"contracts/first_test.sol\":1605:1613  children */\n      0x01\n        /* \"contracts/first_test.sol\":1605:1620  children.length */\n      dup1\n      sload\n      swap1\n      pop\n        /* \"contracts/first_test.sol\":1603:1604  i */\n      dup2\n        /* \"contracts/first_test.sol\":1603:1620  i<children.length */\n      lt\n        /* \"contracts/first_test.sol\":1589:1854  for( uint i=0;i<children.length;i++){... */\n      iszero\n      tag_127\n      jumpi\n        /* \"contracts/first_test.sol\":1669:1682  walletAddress */\n      dup2\n        /* \"contracts/first_test.sol\":1643:1682  children[i].childAddress==walletAddress */\n      0xffffffffffffffffffffffffffffffffffffffff\n      and\n        /* \"contracts/first_test.sol\":1643:1651  children */\n      0x01\n        /* \"contracts/first_test.sol\":1652:1653  i */\n      dup3\n        /* \"contracts/first_test.sol\":1643:1654  children[i] */\n      dup2\n      sload\n      dup2\n      lt\n      tag_129\n      jumpi\n      tag_130\n      tag_48\n      jump\t// in\n    tag_130:\n    tag_129:\n      swap1\n      0x00\n      mstore\n      keccak256(0x00, 0x20)\n      swap1\n      0x06\n      mul\n      add\n        /* \"contracts/first_test.sol\":1643:1667  children[i].childAddress */\n      0x00\n      add\n      0x00\n      swap1\n      sload\n      swap1\n      0x0100\n      exp\n      swap1\n      div\n      0xffffffffffffffffffffffffffffffffffffffff\n      and\n        /* \"contracts/first_test.sol\":1643:1682  children[i].childAddress==walletAddress */\n      0xffffffffffffffffffffffffffffffffffffffff\n      and\n      sub\n        /* \"contracts/first_test.sol\":1640:1843  if(children[i].childAddress==walletAddress){... */\n      tag_132\n      jumpi\n        /* \"contracts/first_test.sol\":1740:1749  msg.value */\n      callvalue\n        /* \"contracts/first_test.sol\":1721:1729  children */\n      0x01\n        /* \"contracts/first_test.sol\":1730:1731  i */\n      dup3\n        /* \"contracts/first_test.sol\":1721:1732  children[i] */\n      dup2\n      sload\n      dup2\n      lt\n      tag_133\n      jumpi\n      tag_134\n      tag_48\n      jump\t// in\n    tag_134:\n    tag_133:\n      swap1\n      0x00\n      mstore\n      keccak256(0x00, 0x20)\n      swap1\n      0x06\n      mul\n      add\n        /* \"contracts/first_test.sol\":1721:1739  children[i].amount */\n      0x01\n      add\n      sload\n        /* \"contracts/first_test.sol\":1721:1749  children[i].amount+msg.value */\n      tag_136\n      swap2\n      swap1\n      tag_137\n      jump\t// in\n    tag_136:\n        /* \"contracts/first_test.sol\":1702:1710  children */\n      0x01\n        /* \"contracts/first_test.sol\":1711:1712  i */\n      dup3\n        /* \"contracts/first_test.sol\":1702:1713  children[i] */\n      dup2\n      sload\n      dup2\n      lt\n      tag_138\n      jumpi\n      tag_139\n      tag_48\n      jump\t// in\n    tag_139:\n    tag_138:\n      swap1\n      0x00\n      mstore\n      keccak256(0x00, 0x20)\n      swap1\n      0x06\n      mul\n      add\n        /* \"contracts/first_test.sol\":1702:1720  children[i].amount */\n      0x01\n      add\n        /* \"contracts/first_test.sol\":1702:1749  children[i].amount=children[i].amount+msg.value */\n      dup2\n      swap1\n      sstore\n      pop\n        /* \"contracts/first_test.sol\":1773:1827  logChildFunding(walletAddress, msg.value, balanceOf()) */\n      0xb6b62bf7c6691da8355cd23a1de771ac90134b6cb4e6f984291427e711e4bfb7\n        /* \"contracts/first_test.sol\":1789:1802  walletAddress */\n      dup3\n        /* \"contracts/first_test.sol\":1804:1813  msg.value */\n      callvalue\n        /* \"contracts/first_test.sol\":1815:1826  balanceOf() */\n      tag_141\n        /* \"contracts/first_test.sol\":1815:1824  balanceOf */\n      tag_33\n        /* \"contracts/first_test.sol\":1815:1826  balanceOf() */\n      jump\t// in\n    tag_141:\n        /* \"contracts/first_test.sol\":1773:1827  logChildFunding(walletAddress, msg.value, balanceOf()) */\n      mload(0x40)\n      tag_142\n      swap4\n      swap3\n      swap2\n      swap1\n      tag_143\n      jump\t// in\n    tag_142:\n      mload(0x40)\n      dup1\n      swap2\n      sub\n      swap1\n      log1\n        /* \"contracts/first_test.sol\":1640:1843  if(children[i].childAddress==walletAddress){... */\n    tag_132:\n        /* \"contracts/first_test.sol\":1621:1624  i++ */\n      dup1\n      dup1\n      0x01\n      add\n      swap2\n      pop\n      pop\n        /* \"contracts/first_test.sol\":1589:1854  for( uint i=0;i<children.length;i++){... */\n      jump(tag_126)\n    tag_127:\n      pop\n        /* \"contracts/first_test.sol\":1510:1861  function addToChildsBalance(address walletAddress) private onlyOwner{... */\n      pop\n      jump\t// out\n        /* \"#utility.yul\":7:82   */\n    tag_144:\n        /* \"#utility.yul\":40:46   */\n      0x00\n        /* \"#utility.yul\":73:75   */\n      0x40\n        /* \"#utility.yul\":67:76   */\n      mload\n        /* \"#utility.yul\":57:76   */\n      swap1\n      pop\n        /* \"#utility.yul\":7:82   */\n      swap1\n      jump\t// out\n        /* \"#utility.yul\":88:205   */\n    tag_145:\n        /* \"#utility.yul\":197:198   */\n      0x00\n        /* \"#utility.yul\":194:195   */\n      0x00\n        /* \"#utility.yul\":187:199   */\n      revert\n        /* \"#utility.yul\":211:328   */\n    tag_146:\n        /* \"#utility.yul\":320:321   */\n      0x00\n        /* \"#utility.yul\":317:318   */\n      0x00\n        /* \"#utility.yul\":310:322   */\n      revert\n        /* \"#utility.yul\":334:460   */\n    tag_147:\n        /* \"#utility.yul\":371:378   */\n      0x00\n        /* \"#utility.yul\":411:453   */\n      0xffffffffffffffffffffffffffffffffffffffff\n        /* \"#utility.yul\":404:409   */\n      dup3\n        /* \"#utility.yul\":400:454   */\n      and\n        /* \"#utility.yul\":389:454   */\n      swap1\n      pop\n        /* \"#utility.yul\":334:460   */\n      swap2\n      swap1\n      pop\n      jump\t// out\n        /* \"#utility.yul\":466:562   */\n    tag_148:\n        /* \"#utility.yul\":503:510   */\n      0x00\n        /* \"#utility.yul\":532:556   */\n      tag_211\n        /* \"#utility.yul\":550:555   */\n      dup3\n        /* \"#utility.yul\":532:556   */\n      tag_147\n      jump\t// in\n    tag_211:\n        /* \"#utility.yul\":521:556   */\n      swap1\n      pop\n        /* \"#utility.yul\":466:562   */\n      swap2\n      swap1\n      pop\n      jump\t// out\n        /* \"#utility.yul\":568:690   */\n    tag_149:\n        /* \"#utility.yul\":641:665   */\n      tag_213\n        /* \"#utility.yul\":659:664   */\n      dup2\n        /* \"#utility.yul\":641:665   */\n      tag_148\n      jump\t// in\n    tag_213:\n        /* \"#utility.yul\":634:639   */\n      dup2\n        /* \"#utility.yul\":631:666   */\n      eq\n        /* \"#utility.yul\":621:684   */\n      tag_214\n      jumpi\n        /* \"#utility.yul\":680:681   */\n      0x00\n        /* \"#utility.yul\":677:678   */\n      0x00\n        /* \"#utility.yul\":670:682   */\n      revert\n        /* \"#utility.yul\":621:684   */\n    tag_214:\n        /* \"#utility.yul\":568:690   */\n      pop\n      jump\t// out\n        /* \"#utility.yul\":696:835   */\n    tag_150:\n        /* \"#utility.yul\":742:747   */\n      0x00\n        /* \"#utility.yul\":780:786   */\n      dup2\n        /* \"#utility.yul\":767:787   */\n      calldataload\n        /* \"#utility.yul\":758:787   */\n      swap1\n      pop\n        /* \"#utility.yul\":796:829   */\n      tag_216\n        /* \"#utility.yul\":823:828   */\n      dup2\n        /* \"#utility.yul\":796:829   */\n      tag_149\n      jump\t// in\n    tag_216:\n        /* \"#utility.yul\":696:835   */\n      swap3\n      swap2\n      pop\n      pop\n      jump\t// out\n        /* \"#utility.yul\":841:1170   */\n    tag_11:\n        /* \"#utility.yul\":900:906   */\n      0x00\n        /* \"#utility.yul\":949:951   */\n      0x20\n        /* \"#utility.yul\":937:946   */\n      dup3\n        /* \"#utility.yul\":928:935   */\n      dup5\n        /* \"#utility.yul\":924:947   */\n      sub\n        /* \"#utility.yul\":920:952   */\n      slt\n        /* \"#utility.yul\":917:1036   */\n      iszero\n      tag_218\n      jumpi\n        /* \"#utility.yul\":955:1034   */\n      tag_219\n      tag_145\n      jump\t// in\n    tag_219:\n        /* \"#utility.yul\":917:1036   */\n    tag_218:\n        /* \"#utility.yul\":1075:1076   */\n      0x00\n        /* \"#utility.yul\":1100:1153   */\n      tag_220\n        /* \"#utility.yul\":1145:1152   */\n      dup5\n        /* \"#utility.yul\":1136:1142   */\n      dup3\n        /* \"#utility.yul\":1125:1134   */\n      dup6\n        /* \"#utility.yul\":1121:1143   */\n      add\n        /* \"#utility.yul\":1100:1153   */\n      tag_150\n      jump\t// in\n    tag_220:\n        /* \"#utility.yul\":1090:1153   */\n      swap2\n      pop\n        /* \"#utility.yul\":1046:1163   */\n      pop\n        /* \"#utility.yul\":841:1170   */\n      swap3\n      swap2\n      pop\n      pop\n      jump\t// out\n        /* \"#utility.yul\":1176:1266   */\n    tag_151:\n        /* \"#utility.yul\":1210:1217   */\n      0x00\n        /* \"#utility.yul\":1253:1258   */\n      dup2\n        /* \"#utility.yul\":1246:1259   */\n      iszero\n        /* \"#utility.yul\":1239:1260   */\n      iszero\n        /* \"#utility.yul\":1228:1260   */\n      swap1\n      pop\n        /* \"#utility.yul\":1176:1266   */\n      swap2\n      swap1\n      pop\n      jump\t// out\n        /* \"#utility.yul\":1272:1381   */\n    tag_152:\n        /* \"#utility.yul\":1353:1374   */\n      tag_223\n        /* \"#utility.yul\":1368:1373   */\n      dup2\n        /* \"#utility.yul\":1353:1374   */\n      tag_151\n      jump\t// in\n    tag_223:\n        /* \"#utility.yul\":1348:1351   */\n      dup3\n        /* \"#utility.yul\":1341:1375   */\n      mstore\n        /* \"#utility.yul\":1272:1381   */\n      pop\n      pop\n      jump\t// out\n        /* \"#utility.yul\":1387:1597   */\n    tag_14:\n        /* \"#utility.yul\":1474:1478   */\n      0x00\n        /* \"#utility.yul\":1512:1514   */\n      0x20\n        /* \"#utility.yul\":1501:1510   */\n      dup3\n        /* \"#utility.yul\":1497:1515   */\n      add\n        /* \"#utility.yul\":1489:1515   */\n      swap1\n      pop\n        /* \"#utility.yul\":1525:1590   */\n      tag_225\n        /* \"#utility.yul\":1587:1588   */\n      0x00\n        /* \"#utility.yul\":1576:1585   */\n      dup4\n        /* \"#utility.yul\":1572:1589   */\n      add\n        /* \"#utility.yul\":1563:1569   */\n      dup5\n        /* \"#utility.yul\":1525:1590   */\n      tag_152\n      jump\t// in\n    tag_225:\n        /* \"#utility.yul\":1387:1597   */\n      swap3\n      swap2\n      pop\n      pop\n      jump\t// out\n        /* \"#utility.yul\":1603:1707   */\n    tag_153:\n        /* \"#utility.yul\":1648:1655   */\n      0x00\n        /* \"#utility.yul\":1677:1701   */\n      tag_227\n        /* \"#utility.yul\":1695:1700   */\n      dup3\n        /* \"#utility.yul\":1677:1701   */\n      tag_147\n      jump\t// in\n    tag_227:\n        /* \"#utility.yul\":1666:1701   */\n      swap1\n      pop\n        /* \"#utility.yul\":1603:1707   */\n      swap2\n      swap1\n      pop\n      jump\t// out\n        /* \"#utility.yul\":1713:1851   */\n    tag_154:\n        /* \"#utility.yul\":1794:1826   */\n      tag_229\n        /* \"#utility.yul\":1820:1825   */\n      dup2\n        /* \"#utility.yul\":1794:1826   */\n      tag_153\n      jump\t// in\n    tag_229:\n        /* \"#utility.yul\":1787:1792   */\n      dup2\n        /* \"#utility.yul\":1784:1827   */\n      eq\n        /* \"#utility.yul\":1774:1845   */\n      tag_230\n      jumpi\n        /* \"#utility.yul\":1841:1842   */\n      0x00\n        /* \"#utility.yul\":1838:1839   */\n      0x00\n        /* \"#utility.yul\":1831:1843   */\n      revert\n        /* \"#utility.yul\":1774:1845   */\n    tag_230:\n        /* \"#utility.yul\":1713:1851   */\n      pop\n      jump\t// out\n        /* \"#utility.yul\":1857:2012   */\n    tag_155:\n        /* \"#utility.yul\":1911:1916   */\n      0x00\n        /* \"#utility.yul\":1949:1955   */\n      dup2\n        /* \"#utility.yul\":1936:1956   */\n      calldataload\n        /* \"#utility.yul\":1927:1956   */\n      swap1\n      pop\n        /* \"#utility.yul\":1965:2006   */\n      tag_232\n        /* \"#utility.yul\":2000:2005   */\n      dup2\n        /* \"#utility.yul\":1965:2006   */\n      tag_154\n      jump\t// in\n    tag_232:\n        /* \"#utility.yul\":1857:2012   */\n      swap3\n      swap2\n      pop\n      pop\n      jump\t// out\n        /* \"#utility.yul\":2018:2095   */\n    tag_156:\n        /* \"#utility.yul\":2055:2062   */\n      0x00\n        /* \"#utility.yul\":2084:2089   */\n      dup2\n        /* \"#utility.yul\":2073:2089   */\n      swap1\n      pop\n        /* \"#utility.yul\":2018:2095   */\n      swap2\n      swap1\n      pop\n      jump\t// out\n        /* \"#utility.yul\":2101:2223   */\n    tag_157:\n        /* \"#utility.yul\":2174:2198   */\n      tag_235\n        /* \"#utility.yul\":2192:2197   */\n      dup2\n        /* \"#utility.yul\":2174:2198   */\n      tag_156\n      jump\t// in\n    tag_235:\n        /* \"#utility.yul\":2167:2172   */\n      dup2\n        /* \"#utility.yul\":2164:2199   */\n      eq\n        /* \"#utility.yul\":2154:2217   */\n      tag_236\n      jumpi\n        /* \"#utility.yul\":2213:2214   */\n      0x00\n        /* \"#utility.yul\":2210:2211   */\n      0x00\n        /* \"#utility.yul\":2203:2215   */\n      revert\n        /* \"#utility.yul\":2154:2217   */\n    tag_236:\n        /* \"#utility.yul\":2101:2223   */\n      pop\n      jump\t// out\n        /* \"#utility.yul\":2229:2368   */\n    tag_158:\n        /* \"#utility.yul\":2275:2280   */\n      0x00\n        /* \"#utility.yul\":2313:2319   */\n      dup2\n        /* \"#utility.yul\":2300:2320   */\n      calldataload\n        /* \"#utility.yul\":2291:2320   */\n      swap1\n      pop\n        /* \"#utility.yul\":2329:2362   */\n      tag_238\n        /* \"#utility.yul\":2356:2361   */\n      dup2\n        /* \"#utility.yul\":2329:2362   */\n      tag_157\n      jump\t// in\n    tag_238:\n        /* \"#utility.yul\":2229:2368   */\n      swap3\n      swap2\n      pop\n      pop\n      jump\t// out\n        /* \"#utility.yul\":2374:2491   */\n    tag_159:\n        /* \"#utility.yul\":2483:2484   */\n      0x00\n        /* \"#utility.yul\":2480:2481   */\n      0x00\n        /* \"#utility.yul\":2473:2485   */\n      revert\n        /* \"#utility.yul\":2497:2614   */\n    tag_160:\n        /* \"#utility.yul\":2606:2607   */\n      0x00\n        /* \"#utility.yul\":2603:2604   */\n      0x00\n        /* \"#utility.yul\":2596:2608   */\n      revert\n        /* \"#utility.yul\":2620:2722   */\n    tag_161:\n        /* \"#utility.yul\":2661:2667   */\n      0x00\n        /* \"#utility.yul\":2712:2714   */\n      0x1f\n        /* \"#utility.yul\":2708:2715   */\n      not\n        /* \"#utility.yul\":2703:2705   */\n      0x1f\n        /* \"#utility.yul\":2696:2701   */\n      dup4\n        /* \"#utility.yul\":2692:2706   */\n      add\n        /* \"#utility.yul\":2688:2716   */\n      and\n        /* \"#utility.yul\":2678:2716   */\n      swap1\n      pop\n        /* \"#utility.yul\":2620:2722   */\n      swap2\n      swap1\n      pop\n      jump\t// out\n        /* \"#utility.yul\":2728:2908   */\n    tag_162:\n        /* \"#utility.yul\":2776:2853   */\n      0x4e487b7100000000000000000000000000000000000000000000000000000000\n        /* \"#utility.yul\":2773:2774   */\n      0x00\n        /* \"#utility.yul\":2766:2854   */\n      mstore\n        /* \"#utility.yul\":2873:2877   */\n      0x41\n        /* \"#utility.yul\":2870:2871   */\n      0x04\n        /* \"#utility.yul\":2863:2878   */\n      mstore\n        /* \"#utility.yul\":2897:2901   */\n      0x24\n        /* \"#utility.yul\":2894:2895   */\n      0x00\n        /* \"#utility.yul\":2887:2902   */\n      revert\n        /* \"#utility.yul\":2914:3195   */\n    tag_163:\n        /* \"#utility.yul\":2997:3024   */\n      tag_244\n        /* \"#utility.yul\":3019:3023   */\n      dup3\n        /* \"#utility.yul\":2997:3024   */\n      tag_161\n      jump\t// in\n    tag_244:\n        /* \"#utility.yul\":2989:2995   */\n      dup2\n        /* \"#utility.yul\":2985:3025   */\n      add\n        /* \"#utility.yul\":3127:3133   */\n      dup2\n        /* \"#utility.yul\":3115:3125   */\n      dup2\n        /* \"#utility.yul\":3112:3134   */\n      lt\n        /* \"#utility.yul\":3091:3109   */\n      0xffffffffffffffff\n        /* \"#utility.yul\":3079:3089   */\n      dup3\n        /* \"#utility.yul\":3076:3110   */\n      gt\n        /* \"#utility.yul\":3073:3135   */\n      or\n        /* \"#utility.yul\":3070:3158   */\n      iszero\n      tag_245\n      jumpi\n        /* \"#utility.yul\":3138:3156   */\n      tag_246\n      tag_162\n      jump\t// in\n    tag_246:\n        /* \"#utility.yul\":3070:3158   */\n    tag_245:\n        /* \"#utility.yul\":3178:3188   */\n      dup1\n        /* \"#utility.yul\":3174:3176   */\n      0x40\n        /* \"#utility.yul\":3167:3189   */\n      mstore\n        /* \"#utility.yul\":2957:3195   */\n      pop\n        /* \"#utility.yul\":2914:3195   */\n      pop\n      pop\n      jump\t// out\n        /* \"#utility.yul\":3201:3330   */\n    tag_164:\n        /* \"#utility.yul\":3235:3241   */\n      0x00\n        /* \"#utility.yul\":3262:3282   */\n      tag_248\n      tag_144\n      jump\t// in\n    tag_248:\n        /* \"#utility.yul\":3252:3282   */\n      swap1\n      pop\n        /* \"#utility.yul\":3291:3324   */\n      tag_249\n        /* \"#utility.yul\":3319:3323   */\n      dup3\n        /* \"#utility.yul\":3311:3317   */\n      dup3\n        /* \"#utility.yul\":3291:3324   */\n      tag_163\n      jump\t// in\n    tag_249:\n        /* \"#utility.yul\":3201:3330   */\n      swap2\n      swap1\n      pop\n      jump\t// out\n        /* \"#utility.yul\":3336:3644   */\n    tag_165:\n        /* \"#utility.yul\":3398:3402   */\n      0x00\n        /* \"#utility.yul\":3488:3506   */\n      0xffffffffffffffff\n        /* \"#utility.yul\":3480:3486   */\n      dup3\n        /* \"#utility.yul\":3477:3507   */\n      gt\n        /* \"#utility.yul\":3474:3530   */\n      iszero\n      tag_251\n      jumpi\n        /* \"#utility.yul\":3510:3528   */\n      tag_252\n      tag_162\n      jump\t// in\n    tag_252:\n        /* \"#utility.yul\":3474:3530   */\n    tag_251:\n        /* \"#utility.yul\":3548:3577   */\n      tag_253\n        /* \"#utility.yul\":3570:3576   */\n      dup3\n        /* \"#utility.yul\":3548:3577   */\n      tag_161\n      jump\t// in\n    tag_253:\n        /* \"#utility.yul\":3540:3577   */\n      swap1\n      pop\n        /* \"#utility.yul\":3632:3636   */\n      0x20\n        /* \"#utility.yul\":3626:3630   */\n      dup2\n        /* \"#utility.yul\":3622:3637   */\n      add\n        /* \"#utility.yul\":3614:3637   */\n      swap1\n      pop\n        /* \"#utility.yul\":3336:3644   */\n      swap2\n      swap1\n      pop\n      jump\t// out\n        /* \"#utility.yul\":3650:3798   */\n    tag_166:\n        /* \"#utility.yul\":3748:3754   */\n      dup3\n        /* \"#utility.yul\":3743:3746   */\n      dup2\n        /* \"#utility.yul\":3738:3741   */\n      dup4\n        /* \"#utility.yul\":3725:3755   */\n      calldatacopy\n        /* \"#utility.yul\":3789:3790   */\n      0x00\n        /* \"#utility.yul\":3780:3786   */\n      dup4\n        /* \"#utility.yul\":3775:3778   */\n      dup4\n        /* \"#utility.yul\":3771:3787   */\n      add\n        /* \"#utility.yul\":3764:3791   */\n      mstore\n        /* \"#utility.yul\":3650:3798   */\n      pop\n      pop\n      pop\n      jump\t// out\n        /* \"#utility.yul\":3804:4229   */\n    tag_167:\n        /* \"#utility.yul\":3882:3887   */\n      0x00\n        /* \"#utility.yul\":3907:3973   */\n      tag_256\n        /* \"#utility.yul\":3923:3972   */\n      tag_257\n        /* \"#utility.yul\":3965:3971   */\n      dup5\n        /* \"#utility.yul\":3923:3972   */\n      tag_165\n      jump\t// in\n    tag_257:\n        /* \"#utility.yul\":3907:3973   */\n      tag_164\n      jump\t// in\n    tag_256:\n        /* \"#utility.yul\":3898:3973   */\n      swap1\n      pop\n        /* \"#utility.yul\":3996:4002   */\n      dup3\n        /* \"#utility.yul\":3989:3994   */\n      dup2\n        /* \"#utility.yul\":3982:4003   */\n      mstore\n        /* \"#utility.yul\":4034:4038   */\n      0x20\n        /* \"#utility.yul\":4027:4032   */\n      dup2\n        /* \"#utility.yul\":4023:4039   */\n      add\n        /* \"#utility.yul\":4072:4075   */\n      dup5\n        /* \"#utility.yul\":4063:4069   */\n      dup5\n        /* \"#utility.yul\":4058:4061   */\n      dup5\n        /* \"#utility.yul\":4054:4070   */\n      add\n        /* \"#utility.yul\":4051:4076   */\n      gt\n        /* \"#utility.yul\":4048:4160   */\n      iszero\n      tag_258\n      jumpi\n        /* \"#utility.yul\":4079:4158   */\n      tag_259\n      tag_160\n      jump\t// in\n    tag_259:\n        /* \"#utility.yul\":4048:4160   */\n    tag_258:\n        /* \"#utility.yul\":4169:4223   */\n      tag_260\n        /* \"#utility.yul\":4216:4222   */\n      dup5\n        /* \"#utility.yul\":4211:4214   */\n      dup3\n        /* \"#utility.yul\":4206:4209   */\n      dup6\n        /* \"#utility.yul\":4169:4223   */\n      tag_166\n      jump\t// in\n    tag_260:\n        /* \"#utility.yul\":3888:4229   */\n      pop\n        /* \"#utility.yul\":3804:4229   */\n      swap4\n      swap3\n      pop\n      pop\n      pop\n      jump\t// out\n        /* \"#utility.yul\":4249:4589   */\n    tag_168:\n        /* \"#utility.yul\":4305:4310   */\n      0x00\n        /* \"#utility.yul\":4354:4357   */\n      dup3\n        /* \"#utility.yul\":4347:4351   */\n      0x1f\n        /* \"#utility.yul\":4339:4345   */\n      dup4\n        /* \"#utility.yul\":4335:4352   */\n      add\n        /* \"#utility.yul\":4331:4358   */\n      slt\n        /* \"#utility.yul\":4321:4443   */\n      tag_262\n      jumpi\n        /* \"#utility.yul\":4362:4441   */\n      tag_263\n      tag_159\n      jump\t// in\n    tag_263:\n        /* \"#utility.yul\":4321:4443   */\n    tag_262:\n        /* \"#utility.yul\":4479:4485   */\n      dup2\n        /* \"#utility.yul\":4466:4486   */\n      calldataload\n        /* \"#utility.yul\":4504:4583   */\n      tag_264\n        /* \"#utility.yul\":4579:4582   */\n      dup5\n        /* \"#utility.yul\":4571:4577   */\n      dup3\n        /* \"#utility.yul\":4564:4568   */\n      0x20\n        /* \"#utility.yul\":4556:4562   */\n      dup7\n        /* \"#utility.yul\":4552:4569   */\n      add\n        /* \"#utility.yul\":4504:4583   */\n      tag_167\n      jump\t// in\n    tag_264:\n        /* \"#utility.yul\":4495:4583   */\n      swap2\n      pop\n        /* \"#utility.yul\":4311:4589   */\n      pop\n        /* \"#utility.yul\":4249:4589   */\n      swap3\n      swap2\n      pop\n      pop\n      jump\t// out\n        /* \"#utility.yul\":4595:4711   */\n    tag_169:\n        /* \"#utility.yul\":4665:4686   */\n      tag_266\n        /* \"#utility.yul\":4680:4685   */\n      dup2\n        /* \"#utility.yul\":4665:4686   */\n      tag_151\n      jump\t// in\n    tag_266:\n        /* \"#utility.yul\":4658:4663   */\n      dup2\n        /* \"#utility.yul\":4655:4687   */\n      eq\n        /* \"#utility.yul\":4645:4705   */\n      tag_267\n      jumpi\n        /* \"#utility.yul\":4701:4702   */\n      0x00\n        /* \"#utility.yul\":4698:4699   */\n      0x00\n        /* \"#utility.yul\":4691:4703   */\n      revert\n        /* \"#utility.yul\":4645:4705   */\n    tag_267:\n        /* \"#utility.yul\":4595:4711   */\n      pop\n      jump\t// out\n        /* \"#utility.yul\":4717:4850   */\n    tag_170:\n        /* \"#utility.yul\":4760:4765   */\n      0x00\n        /* \"#utility.yul\":4798:4804   */\n      dup2\n        /* \"#utility.yul\":4785:4805   */\n      calldataload\n        /* \"#utility.yul\":4776:4805   */\n      swap1\n      pop\n        /* \"#utility.yul\":4814:4844   */\n      tag_269\n        /* \"#utility.yul\":4838:4843   */\n      dup2\n        /* \"#utility.yul\":4814:4844   */\n      tag_169\n      jump\t// in\n    tag_269:\n        /* \"#utility.yul\":4717:4850   */\n      swap3\n      swap2\n      pop\n      pop\n      jump\t// out\n        /* \"#utility.yul\":4856:6283   */\n    tag_18:\n        /* \"#utility.yul\":4985:4991   */\n      0x00\n        /* \"#utility.yul\":4993:4999   */\n      0x00\n        /* \"#utility.yul\":5001:5007   */\n      0x00\n        /* \"#utility.yul\":5009:5015   */\n      0x00\n        /* \"#utility.yul\":5017:5023   */\n      0x00\n        /* \"#utility.yul\":5025:5031   */\n      0x00\n        /* \"#utility.yul\":5074:5077   */\n      0xc0\n        /* \"#utility.yul\":5062:5071   */\n      dup8\n        /* \"#utility.yul\":5053:5060   */\n      dup10\n        /* \"#utility.yul\":5049:5072   */\n      sub\n        /* \"#utility.yul\":5045:5078   */\n      slt\n        /* \"#utility.yul\":5042:5162   */\n      iszero\n      tag_271\n      jumpi\n        /* \"#utility.yul\":5081:5160   */\n      tag_272\n      tag_145\n      jump\t// in\n    tag_272:\n        /* \"#utility.yul\":5042:5162   */\n    tag_271:\n        /* \"#utility.yul\":5201:5202   */\n      0x00\n        /* \"#utility.yul\":5226:5287   */\n      tag_273\n        /* \"#utility.yul\":5279:5286   */\n      dup10\n        /* \"#utility.yul\":5270:5276   */\n      dup3\n        /* \"#utility.yul\":5259:5268   */\n      dup11\n        /* \"#utility.yul\":5255:5277   */\n      add\n        /* \"#utility.yul\":5226:5287   */\n      tag_155\n      jump\t// in\n    tag_273:\n        /* \"#utility.yul\":5216:5287   */\n      swap7\n      pop\n        /* \"#utility.yul\":5172:5297   */\n      pop\n        /* \"#utility.yul\":5336:5338   */\n      0x20\n        /* \"#utility.yul\":5362:5415   */\n      tag_274\n        /* \"#utility.yul\":5407:5414   */\n      dup10\n        /* \"#utility.yul\":5398:5404   */\n      dup3\n        /* \"#utility.yul\":5387:5396   */\n      dup11\n        /* \"#utility.yul\":5383:5405   */\n      add\n        /* \"#utility.yul\":5362:5415   */\n      tag_158\n      jump\t// in\n    tag_274:\n        /* \"#utility.yul\":5352:5415   */\n      swap6\n      pop\n        /* \"#utility.yul\":5307:5425   */\n      pop\n        /* \"#utility.yul\":5492:5494   */\n      0x40\n        /* \"#utility.yul\":5481:5490   */\n      dup8\n        /* \"#utility.yul\":5477:5495   */\n      add\n        /* \"#utility.yul\":5464:5496   */\n      calldataload\n        /* \"#utility.yul\":5523:5541   */\n      0xffffffffffffffff\n        /* \"#utility.yul\":5515:5521   */\n      dup2\n        /* \"#utility.yul\":5512:5542   */\n      gt\n        /* \"#utility.yul\":5509:5626   */\n      iszero\n      tag_275\n      jumpi\n        /* \"#utility.yul\":5545:5624   */\n      tag_276\n      tag_146\n      jump\t// in\n    tag_276:\n        /* \"#utility.yul\":5509:5626   */\n    tag_275:\n        /* \"#utility.yul\":5650:5713   */\n      tag_277\n        /* \"#utility.yul\":5705:5712   */\n      dup10\n        /* \"#utility.yul\":5696:5702   */\n      dup3\n        /* \"#utility.yul\":5685:5694   */\n      dup11\n        /* \"#utility.yul\":5681:5703   */\n      add\n        /* \"#utility.yul\":5650:5713   */\n      tag_168\n      jump\t// in\n    tag_277:\n        /* \"#utility.yul\":5640:5713   */\n      swap5\n      pop\n        /* \"#utility.yul\":5435:5723   */\n      pop\n        /* \"#utility.yul\":5790:5792   */\n      0x60\n        /* \"#utility.yul\":5779:5788   */\n      dup8\n        /* \"#utility.yul\":5775:5793   */\n      add\n        /* \"#utility.yul\":5762:5794   */\n      calldataload\n        /* \"#utility.yul\":5821:5839   */\n      0xffffffffffffffff\n        /* \"#utility.yul\":5813:5819   */\n      dup2\n        /* \"#utility.yul\":5810:5840   */\n      gt\n        /* \"#utility.yul\":5807:5924   */\n      iszero\n      tag_278\n      jumpi\n        /* \"#utility.yul\":5843:5922   */\n      tag_279\n      tag_146\n      jump\t// in\n    tag_279:\n        /* \"#utility.yul\":5807:5924   */\n    tag_278:\n        /* \"#utility.yul\":5948:6011   */\n      tag_280\n        /* \"#utility.yul\":6003:6010   */\n      dup10\n        /* \"#utility.yul\":5994:6000   */\n      dup3\n        /* \"#utility.yul\":5983:5992   */\n      dup11\n        /* \"#utility.yul\":5979:6001   */\n      add\n        /* \"#utility.yul\":5948:6011   */\n      tag_168\n      jump\t// in\n    tag_280:\n        /* \"#utility.yul\":5938:6011   */\n      swap4\n      pop\n        /* \"#utility.yul\":5733:6021   */\n      pop\n        /* \"#utility.yul\":6060:6063   */\n      0x80\n        /* \"#utility.yul\":6087:6140   */\n      tag_281\n        /* \"#utility.yul\":6132:6139   */\n      dup10\n        /* \"#utility.yul\":6123:6129   */\n      dup3\n        /* \"#utility.yul\":6112:6121   */\n      dup11\n        /* \"#utility.yul\":6108:6130   */\n      add\n        /* \"#utility.yul\":6087:6140   */\n      tag_158\n      jump\t// in\n    tag_281:\n        /* \"#utility.yul\":6077:6140   */\n      swap3\n      pop\n        /* \"#utility.yul\":6031:6150   */\n      pop\n        /* \"#utility.yul\":6189:6192   */\n      0xa0\n        /* \"#utility.yul\":6216:6266   */\n      tag_282\n        /* \"#utility.yul\":6258:6265   */\n      dup10\n        /* \"#utility.yul\":6249:6255   */\n      dup3\n        /* \"#utility.yul\":6238:6247   */\n      dup11\n        /* \"#utility.yul\":6234:6256   */\n      add\n        /* \"#utility.yul\":6216:6266   */\n      tag_170\n      jump\t// in\n    tag_282:\n        /* \"#utility.yul\":6206:6266   */\n      swap2\n      pop\n        /* \"#utility.yul\":6160:6276   */\n      pop\n        /* \"#utility.yul\":4856:6283   */\n      swap3\n      swap6\n      pop\n      swap3\n      swap6\n      pop\n      swap3\n      swap6\n      jump\t// out\n        /* \"#utility.yul\":6289:6634   */\n    tag_22:\n        /* \"#utility.yul\":6356:6362   */\n      0x00\n        /* \"#utility.yul\":6405:6407   */\n      0x20\n        /* \"#utility.yul\":6393:6402   */\n      dup3\n        /* \"#utility.yul\":6384:6391   */\n      dup5\n        /* \"#utility.yul\":6380:6403   */\n      sub\n        /* \"#utility.yul\":6376:6408   */\n      slt\n        /* \"#utility.yul\":6373:6492   */\n      iszero\n      tag_284\n      jumpi\n        /* \"#utility.yul\":6411:6490   */\n      tag_285\n      tag_145\n      jump\t// in\n    tag_285:\n        /* \"#utility.yul\":6373:6492   */\n    tag_284:\n        /* \"#utility.yul\":6531:6532   */\n      0x00\n        /* \"#utility.yul\":6556:6617   */\n      tag_286\n        /* \"#utility.yul\":6609:6616   */\n      dup5\n        /* \"#utility.yul\":6600:6606   */\n      dup3\n        /* \"#utility.yul\":6589:6598   */\n      dup6\n        /* \"#utility.yul\":6585:6607   */\n      add\n        /* \"#utility.yul\":6556:6617   */\n      tag_155\n      jump\t// in\n    tag_286:\n        /* \"#utility.yul\":6546:6617   */\n      swap2\n      pop\n        /* \"#utility.yul\":6502:6627   */\n      pop\n        /* \"#utility.yul\":6289:6634   */\n      swap3\n      swap2\n      pop\n      pop\n      jump\t// out\n        /* \"#utility.yul\":6640:6969   */\n    tag_27:\n        /* \"#utility.yul\":6699:6705   */\n      0x00\n        /* \"#utility.yul\":6748:6750   */\n      0x20\n        /* \"#utility.yul\":6736:6745   */\n      dup3\n        /* \"#utility.yul\":6727:6734   */\n      dup5\n        /* \"#utility.yul\":6723:6746   */\n      sub\n        /* \"#utility.yul\":6719:6751   */\n      slt\n        /* \"#utility.yul\":6716:6835   */\n      iszero\n      tag_288\n      jumpi\n        /* \"#utility.yul\":6754:6833   */\n      tag_289\n      tag_145\n      jump\t// in\n    tag_289:\n        /* \"#utility.yul\":6716:6835   */\n    tag_288:\n        /* \"#utility.yul\":6874:6875   */\n      0x00\n        /* \"#utility.yul\":6899:6952   */\n      tag_290\n        /* \"#utility.yul\":6944:6951   */\n      dup5\n        /* \"#utility.yul\":6935:6941   */\n      dup3\n        /* \"#utility.yul\":6924:6933   */\n      dup6\n        /* \"#utility.yul\":6920:6942   */\n      add\n        /* \"#utility.yul\":6899:6952   */\n      tag_158\n      jump\t// in\n    tag_290:\n        /* \"#utility.yul\":6889:6952   */\n      swap2\n      pop\n        /* \"#utility.yul\":6845:6962   */\n      pop\n        /* \"#utility.yul\":6640:6969   */\n      swap3\n      swap2\n      pop\n      pop\n      jump\t// out\n        /* \"#utility.yul\":6975:7117   */\n    tag_171:\n        /* \"#utility.yul\":7078:7110   */\n      tag_292\n        /* \"#utility.yul\":7104:7109   */\n      dup2\n        /* \"#utility.yul\":7078:7110   */\n      tag_153\n      jump\t// in\n    tag_292:\n        /* \"#utility.yul\":7073:7076   */\n      dup3\n        /* \"#utility.yul\":7066:7111   */\n      mstore\n        /* \"#utility.yul\":6975:7117   */\n      pop\n      pop\n      jump\t// out\n        /* \"#utility.yul\":7123:7241   */\n    tag_172:\n        /* \"#utility.yul\":7210:7234   */\n      tag_294\n        /* \"#utility.yul\":7228:7233   */\n      dup2\n        /* \"#utility.yul\":7210:7234   */\n      tag_156\n      jump\t// in\n    tag_294:\n        /* \"#utility.yul\":7205:7208   */\n      dup3\n        /* \"#utility.yul\":7198:7235   */\n      mstore\n        /* \"#utility.yul\":7123:7241   */\n      pop\n      pop\n      jump\t// out\n        /* \"#utility.yul\":7247:7346   */\n    tag_173:\n        /* \"#utility.yul\":7299:7305   */\n      0x00\n        /* \"#utility.yul\":7333:7338   */\n      dup2\n        /* \"#utility.yul\":7327:7339   */\n      mload\n        /* \"#utility.yul\":7317:7339   */\n      swap1\n      pop\n        /* \"#utility.yul\":7247:7346   */\n      swap2\n      swap1\n      pop\n      jump\t// out\n        /* \"#utility.yul\":7352:7521   */\n    tag_174:\n        /* \"#utility.yul\":7436:7447   */\n      0x00\n        /* \"#utility.yul\":7470:7476   */\n      dup3\n        /* \"#utility.yul\":7465:7468   */\n      dup3\n        /* \"#utility.yul\":7458:7477   */\n      mstore\n        /* \"#utility.yul\":7510:7514   */\n      0x20\n        /* \"#utility.yul\":7505:7508   */\n      dup3\n        /* \"#utility.yul\":7501:7515   */\n      add\n        /* \"#utility.yul\":7486:7515   */\n      swap1\n      pop\n        /* \"#utility.yul\":7352:7521   */\n      swap3\n      swap2\n      pop\n      pop\n      jump\t// out\n        /* \"#utility.yul\":7527:7666   */\n    tag_175:\n        /* \"#utility.yul\":7616:7622   */\n      dup3\n        /* \"#utility.yul\":7611:7614   */\n      dup2\n        /* \"#utility.yul\":7606:7609   */\n      dup4\n        /* \"#utility.yul\":7600:7623   */\n      mcopy\n        /* \"#utility.yul\":7657:7658   */\n      0x00\n        /* \"#utility.yul\":7648:7654   */\n      dup4\n        /* \"#utility.yul\":7643:7646   */\n      dup4\n        /* \"#utility.yul\":7639:7655   */\n      add\n        /* \"#utility.yul\":7632:7659   */\n      mstore\n        /* \"#utility.yul\":7527:7666   */\n      pop\n      pop\n      pop\n      jump\t// out\n        /* \"#utility.yul\":7672:8049   */\n    tag_176:\n        /* \"#utility.yul\":7760:7763   */\n      0x00\n        /* \"#utility.yul\":7788:7827   */\n      tag_299\n        /* \"#utility.yul\":7821:7826   */\n      dup3\n        /* \"#utility.yul\":7788:7827   */\n      tag_173\n      jump\t// in\n    tag_299:\n        /* \"#utility.yul\":7843:7914   */\n      tag_300\n        /* \"#utility.yul\":7907:7913   */\n      dup2\n        /* \"#utility.yul\":7902:7905   */\n      dup6\n        /* \"#utility.yul\":7843:7914   */\n      tag_174\n      jump\t// in\n    tag_300:\n        /* \"#utility.yul\":7836:7914   */\n      swap4\n      pop\n        /* \"#utility.yul\":7923:7988   */\n      tag_301\n        /* \"#utility.yul\":7981:7987   */\n      dup2\n        /* \"#utility.yul\":7976:7979   */\n      dup6\n        /* \"#utility.yul\":7969:7973   */\n      0x20\n        /* \"#utility.yul\":7962:7967   */\n      dup7\n        /* \"#utility.yul\":7958:7974   */\n      add\n        /* \"#utility.yul\":7923:7988   */\n      tag_175\n      jump\t// in\n    tag_301:\n        /* \"#utility.yul\":8013:8042   */\n      tag_302\n        /* \"#utility.yul\":8035:8041   */\n      dup2\n        /* \"#utility.yul\":8013:8042   */\n      tag_161\n      jump\t// in\n    tag_302:\n        /* \"#utility.yul\":8008:8011   */\n      dup5\n        /* \"#utility.yul\":8004:8043   */\n      add\n        /* \"#utility.yul\":7997:8043   */\n      swap2\n      pop\n        /* \"#utility.yul\":7764:8049   */\n      pop\n        /* \"#utility.yul\":7672:8049   */\n      swap3\n      swap2\n      pop\n      pop\n      jump\t// out\n        /* \"#utility.yul\":8055:9032   */\n    tag_30:\n        /* \"#utility.yul\":8338:8342   */\n      0x00\n        /* \"#utility.yul\":8376:8379   */\n      0xc0\n        /* \"#utility.yul\":8365:8374   */\n      dup3\n        /* \"#utility.yul\":8361:8380   */\n      add\n        /* \"#utility.yul\":8353:8380   */\n      swap1\n      pop\n        /* \"#utility.yul\":8390:8477   */\n      tag_304\n        /* \"#utility.yul\":8474:8475   */\n      0x00\n        /* \"#utility.yul\":8463:8472   */\n      dup4\n        /* \"#utility.yul\":8459:8476   */\n      add\n        /* \"#utility.yul\":8450:8456   */\n      dup10\n        /* \"#utility.yul\":8390:8477   */\n      tag_171\n      jump\t// in\n    tag_304:\n        /* \"#utility.yul\":8487:8559   */\n      tag_305\n        /* \"#utility.yul\":8555:8557   */\n      0x20\n        /* \"#utility.yul\":8544:8553   */\n      dup4\n        /* \"#utility.yul\":8540:8558   */\n      add\n        /* \"#utility.yul\":8531:8537   */\n      dup9\n        /* \"#utility.yul\":8487:8559   */\n      tag_172\n      jump\t// in\n    tag_305:\n        /* \"#utility.yul\":8606:8615   */\n      dup2\n        /* \"#utility.yul\":8600:8604   */\n      dup2\n        /* \"#utility.yul\":8596:8616   */\n      sub\n        /* \"#utility.yul\":8591:8593   */\n      0x40\n        /* \"#utility.yul\":8580:8589   */\n      dup4\n        /* \"#utility.yul\":8576:8594   */\n      add\n        /* \"#utility.yul\":8569:8617   */\n      mstore\n        /* \"#utility.yul\":8634:8712   */\n      tag_306\n        /* \"#utility.yul\":8707:8711   */\n      dup2\n        /* \"#utility.yul\":8698:8704   */\n      dup8\n        /* \"#utility.yul\":8634:8712   */\n      tag_176\n      jump\t// in\n    tag_306:\n        /* \"#utility.yul\":8626:8712   */\n      swap1\n      pop\n        /* \"#utility.yul\":8759:8768   */\n      dup2\n        /* \"#utility.yul\":8753:8757   */\n      dup2\n        /* \"#utility.yul\":8749:8769   */\n      sub\n        /* \"#utility.yul\":8744:8746   */\n      0x60\n        /* \"#utility.yul\":8733:8742   */\n      dup4\n        /* \"#utility.yul\":8729:8747   */\n      add\n        /* \"#utility.yul\":8722:8770   */\n      mstore\n        /* \"#utility.yul\":8787:8865   */\n      tag_307\n        /* \"#utility.yul\":8860:8864   */\n      dup2\n        /* \"#utility.yul\":8851:8857   */\n      dup7\n        /* \"#utility.yul\":8787:8865   */\n      tag_176\n      jump\t// in\n    tag_307:\n        /* \"#utility.yul\":8779:8865   */\n      swap1\n      pop\n        /* \"#utility.yul\":8875:8948   */\n      tag_308\n        /* \"#utility.yul\":8943:8946   */\n      0x80\n        /* \"#utility.yul\":8932:8941   */\n      dup4\n        /* \"#utility.yul\":8928:8947   */\n      add\n        /* \"#utility.yul\":8919:8925   */\n      dup6\n        /* \"#utility.yul\":8875:8948   */\n      tag_172\n      jump\t// in\n    tag_308:\n        /* \"#utility.yul\":8958:9025   */\n      tag_309\n        /* \"#utility.yul\":9020:9023   */\n      0xa0\n        /* \"#utility.yul\":9009:9018   */\n      dup4\n        /* \"#utility.yul\":9005:9024   */\n      add\n        /* \"#utility.yul\":8996:9002   */\n      dup5\n        /* \"#utility.yul\":8958:9025   */\n      tag_152\n      jump\t// in\n    tag_309:\n        /* \"#utility.yul\":8055:9032   */\n      swap8\n      swap7\n      pop\n      pop\n      pop\n      pop\n      pop\n      pop\n      pop\n      jump\t// out\n        /* \"#utility.yul\":9038:9260   */\n    tag_35:\n        /* \"#utility.yul\":9131:9135   */\n      0x00\n        /* \"#utility.yul\":9169:9171   */\n      0x20\n        /* \"#utility.yul\":9158:9167   */\n      dup3\n        /* \"#utility.yul\":9154:9172   */\n      add\n        /* \"#utility.yul\":9146:9172   */\n      swap1\n      pop\n        /* \"#utility.yul\":9182:9253   */\n      tag_311\n        /* \"#utility.yul\":9250:9251   */\n      0x00\n        /* \"#utility.yul\":9239:9248   */\n      dup4\n        /* \"#utility.yul\":9235:9252   */\n      add\n        /* \"#utility.yul\":9226:9232   */\n      dup5\n        /* \"#utility.yul\":9182:9253   */\n      tag_172\n      jump\t// in\n    tag_311:\n        /* \"#utility.yul\":9038:9260   */\n      swap3\n      swap2\n      pop\n      pop\n      jump\t// out\n        /* \"#utility.yul\":9266:9440   */\n    tag_177:\n        /* \"#utility.yul\":9406:9432   */\n      0x57726f6e67206368696c64206e6f7420696e20626c6f636b0000000000000000\n        /* \"#utility.yul\":9402:9403   */\n      0x00\n        /* \"#utility.yul\":9394:9400   */\n      dup3\n        /* \"#utility.yul\":9390:9404   */\n      add\n        /* \"#utility.yul\":9383:9433   */\n      mstore\n        /* \"#utility.yul\":9266:9440   */\n      pop\n      jump\t// out\n        /* \"#utility.yul\":9446:9812   */\n    tag_178:\n        /* \"#utility.yul\":9588:9591   */\n      0x00\n        /* \"#utility.yul\":9609:9676   */\n      tag_314\n        /* \"#utility.yul\":9673:9675   */\n      0x18\n        /* \"#utility.yul\":9668:9671   */\n      dup4\n        /* \"#utility.yul\":9609:9676   */\n      tag_174\n      jump\t// in\n    tag_314:\n        /* \"#utility.yul\":9602:9676   */\n      swap2\n      pop\n        /* \"#utility.yul\":9685:9778   */\n      tag_315\n        /* \"#utility.yul\":9774:9777   */\n      dup3\n        /* \"#utility.yul\":9685:9778   */\n      tag_177\n      jump\t// in\n    tag_315:\n        /* \"#utility.yul\":9803:9805   */\n      0x20\n        /* \"#utility.yul\":9798:9801   */\n      dup3\n        /* \"#utility.yul\":9794:9806   */\n      add\n        /* \"#utility.yul\":9787:9806   */\n      swap1\n      pop\n        /* \"#utility.yul\":9446:9812   */\n      swap2\n      swap1\n      pop\n      jump\t// out\n        /* \"#utility.yul\":9818:10237   */\n    tag_45:\n        /* \"#utility.yul\":9984:9988   */\n      0x00\n        /* \"#utility.yul\":10022:10024   */\n      0x20\n        /* \"#utility.yul\":10011:10020   */\n      dup3\n        /* \"#utility.yul\":10007:10025   */\n      add\n        /* \"#utility.yul\":9999:10025   */\n      swap1\n      pop\n        /* \"#utility.yul\":10071:10080   */\n      dup2\n        /* \"#utility.yul\":10065:10069   */\n      dup2\n        /* \"#utility.yul\":10061:10081   */\n      sub\n        /* \"#utility.yul\":10057:10058   */\n      0x00\n        /* \"#utility.yul\":10046:10055   */\n      dup4\n        /* \"#utility.yul\":10042:10059   */\n      add\n        /* \"#utility.yul\":10035:10082   */\n      mstore\n        /* \"#utility.yul\":10099:10230   */\n      tag_317\n        /* \"#utility.yul\":10225:10229   */\n      dup2\n        /* \"#utility.yul\":10099:10230   */\n      tag_178\n      jump\t// in\n    tag_317:\n        /* \"#utility.yul\":10091:10230   */\n      swap1\n      pop\n        /* \"#utility.yul\":9818:10237   */\n      swap2\n      swap1\n      pop\n      jump\t// out\n        /* \"#utility.yul\":10243:10423   */\n    tag_48:\n        /* \"#utility.yul\":10291:10368   */\n      0x4e487b7100000000000000000000000000000000000000000000000000000000\n        /* \"#utility.yul\":10288:10289   */\n      0x00\n        /* \"#utility.yul\":10281:10369   */\n      mstore\n        /* \"#utility.yul\":10388:10392   */\n      0x32\n        /* \"#utility.yul\":10385:10386   */\n      0x04\n        /* \"#utility.yul\":10378:10393   */\n      mstore\n        /* \"#utility.yul\":10412:10416   */\n      0x24\n        /* \"#utility.yul\":10409:10410   */\n      0x00\n        /* \"#utility.yul\":10402:10417   */\n      revert\n        /* \"#utility.yul\":10429:10600   */\n    tag_179:\n        /* \"#utility.yul\":10569:10592   */\n      0x796f752063616e74207769746864726177207965740000000000000000000000\n        /* \"#utility.yul\":10565:10566   */\n      0x00\n        /* \"#utility.yul\":10557:10563   */\n      dup3\n        /* \"#utility.yul\":10553:10567   */\n      add\n        /* \"#utility.yul\":10546:10593   */\n      mstore\n        /* \"#utility.yul\":10429:10600   */\n      pop\n      jump\t// out\n        /* \"#utility.yul\":10606:10972   */\n    tag_180:\n        /* \"#utility.yul\":10748:10751   */\n      0x00\n        /* \"#utility.yul\":10769:10836   */\n      tag_321\n        /* \"#utility.yul\":10833:10835   */\n      0x15\n        /* \"#utility.yul\":10828:10831   */\n      dup4\n        /* \"#utility.yul\":10769:10836   */\n      tag_174\n      jump\t// in\n    tag_321:\n        /* \"#utility.yul\":10762:10836   */\n      swap2\n      pop\n        /* \"#utility.yul\":10845:10938   */\n      tag_322\n        /* \"#utility.yul\":10934:10937   */\n      dup3\n        /* \"#utility.yul\":10845:10938   */\n      tag_179\n      jump\t// in\n    tag_322:\n        /* \"#utility.yul\":10963:10965   */\n      0x20\n        /* \"#utility.yul\":10958:10961   */\n      dup3\n        /* \"#utility.yul\":10954:10966   */\n      add\n        /* \"#utility.yul\":10947:10966   */\n      swap1\n      pop\n        /* \"#utility.yul\":10606:10972   */\n      swap2\n      swap1\n      pop\n      jump\t// out\n        /* \"#utility.yul\":10978:11397   */\n    tag_56:\n        /* \"#utility.yul\":11144:11148   */\n      0x00\n        /* \"#utility.yul\":11182:11184   */\n      0x20\n        /* \"#utility.yul\":11171:11180   */\n      dup3\n        /* \"#utility.yul\":11167:11185   */\n      add\n        /* \"#utility.yul\":11159:11185   */\n      swap1\n      pop\n        /* \"#utility.yul\":11231:11240   */\n      dup2\n        /* \"#utility.yul\":11225:11229   */\n      dup2\n        /* \"#utility.yul\":11221:11241   */\n      sub\n        /* \"#utility.yul\":11217:11218   */\n      0x00\n        /* \"#utility.yul\":11206:11215   */\n      dup4\n        /* \"#utility.yul\":11202:11219   */\n      add\n        /* \"#utility.yul\":11195:11242   */\n      mstore\n        /* \"#utility.yul\":11259:11390   */\n      tag_324\n        /* \"#utility.yul\":11385:11389   */\n      dup2\n        /* \"#utility.yul\":11259:11390   */\n      tag_180\n      jump\t// in\n    tag_324:\n        /* \"#utility.yul\":11251:11390   */\n      swap1\n      pop\n        /* \"#utility.yul\":10978:11397   */\n      swap2\n      swap1\n      pop\n      jump\t// out\n        /* \"#utility.yul\":11403:11571   */\n    tag_181:\n        /* \"#utility.yul\":11543:11563   */\n      0x796f75206172656e6f7420616c6c6f7765640000000000000000000000000000\n        /* \"#utility.yul\":11539:11540   */\n      0x00\n        /* \"#utility.yul\":11531:11537   */\n      dup3\n        /* \"#utility.yul\":11527:11541   */\n      add\n        /* \"#utility.yul\":11520:11564   */\n      mstore\n        /* \"#utility.yul\":11403:11571   */\n      pop\n      jump\t// out\n        /* \"#utility.yul\":11577:11943   */\n    tag_182:\n        /* \"#utility.yul\":11719:11722   */\n      0x00\n        /* \"#utility.yul\":11740:11807   */\n      tag_327\n        /* \"#utility.yul\":11804:11806   */\n      0x12\n        /* \"#utility.yul\":11799:11802   */\n      dup4\n        /* \"#utility.yul\":11740:11807   */\n      tag_174\n      jump\t// in\n    tag_327:\n        /* \"#utility.yul\":11733:11807   */\n      swap2\n      pop\n        /* \"#utility.yul\":11816:11909   */\n      tag_328\n        /* \"#utility.yul\":11905:11908   */\n      dup3\n        /* \"#utility.yul\":11816:11909   */\n      tag_181\n      jump\t// in\n    tag_328:\n        /* \"#utility.yul\":11934:11936   */\n      0x20\n        /* \"#utility.yul\":11929:11932   */\n      dup3\n        /* \"#utility.yul\":11925:11937   */\n      add\n        /* \"#utility.yul\":11918:11937   */\n      swap1\n      pop\n        /* \"#utility.yul\":11577:11943   */\n      swap2\n      swap1\n      pop\n      jump\t// out\n        /* \"#utility.yul\":11949:12368   */\n    tag_67:\n        /* \"#utility.yul\":12115:12119   */\n      0x00\n        /* \"#utility.yul\":12153:12155   */\n      0x20\n        /* \"#utility.yul\":12142:12151   */\n      dup3\n        /* \"#utility.yul\":12138:12156   */\n      add\n        /* \"#utility.yul\":12130:12156   */\n      swap1\n      pop\n        /* \"#utility.yul\":12202:12211   */\n      dup2\n        /* \"#utility.yul\":12196:12200   */\n      dup2\n        /* \"#utility.yul\":12192:12212   */\n      sub\n        /* \"#utility.yul\":12188:12189   */\n      0x00\n        /* \"#utility.yul\":12177:12186   */\n      dup4\n        /* \"#utility.yul\":12173:12190   */\n      add\n        /* \"#utility.yul\":12166:12213   */\n      mstore\n        /* \"#utility.yul\":12230:12361   */\n      tag_330\n        /* \"#utility.yul\":12356:12360   */\n      dup2\n        /* \"#utility.yul\":12230:12361   */\n      tag_182\n      jump\t// in\n    tag_330:\n        /* \"#utility.yul\":12222:12361   */\n      swap1\n      pop\n        /* \"#utility.yul\":11949:12368   */\n      swap2\n      swap1\n      pop\n      jump\t// out\n        /* \"#utility.yul\":12374:12554   */\n    tag_183:\n        /* \"#utility.yul\":12422:12499   */\n      0x4e487b7100000000000000000000000000000000000000000000000000000000\n        /* \"#utility.yul\":12419:12420   */\n      0x00\n        /* \"#utility.yul\":12412:12500   */\n      mstore\n        /* \"#utility.yul\":12519:12523   */\n      0x22\n        /* \"#utility.yul\":12516:12517   */\n      0x04\n        /* \"#utility.yul\":12509:12524   */\n      mstore\n        /* \"#utility.yul\":12543:12547   */\n      0x24\n        /* \"#utility.yul\":12540:12541   */\n      0x00\n        /* \"#utility.yul\":12533:12548   */\n      revert\n        /* \"#utility.yul\":12560:12880   */\n    tag_97:\n        /* \"#utility.yul\":12604:12610   */\n      0x00\n        /* \"#utility.yul\":12641:12642   */\n      0x02\n        /* \"#utility.yul\":12635:12639   */\n      dup3\n        /* \"#utility.yul\":12631:12643   */\n      div\n        /* \"#utility.yul\":12621:12643   */\n      swap1\n      pop\n        /* \"#utility.yul\":12688:12689   */\n      0x01\n        /* \"#utility.yul\":12682:12686   */\n      dup3\n        /* \"#utility.yul\":12678:12690   */\n      and\n        /* \"#utility.yul\":12709:12727   */\n      dup1\n        /* \"#utility.yul\":12699:12780   */\n      tag_333\n      jumpi\n        /* \"#utility.yul\":12765:12769   */\n      0x7f\n        /* \"#utility.yul\":12757:12763   */\n      dup3\n        /* \"#utility.yul\":12753:12770   */\n      and\n        /* \"#utility.yul\":12743:12770   */\n      swap2\n      pop\n        /* \"#utility.yul\":12699:12780   */\n    tag_333:\n        /* \"#utility.yul\":12827:12829   */\n      0x20\n        /* \"#utility.yul\":12819:12825   */\n      dup3\n        /* \"#utility.yul\":12816:12830   */\n      lt\n        /* \"#utility.yul\":12796:12814   */\n      dup2\n        /* \"#utility.yul\":12793:12831   */\n      sub\n        /* \"#utility.yul\":12790:12874   */\n      tag_334\n      jumpi\n        /* \"#utility.yul\":12846:12864   */\n      tag_335\n      tag_183\n      jump\t// in\n    tag_335:\n        /* \"#utility.yul\":12790:12874   */\n    tag_334:\n        /* \"#utility.yul\":12611:12880   */\n      pop\n        /* \"#utility.yul\":12560:12880   */\n      swap2\n      swap1\n      pop\n      jump\t// out\n        /* \"#utility.yul\":12886:13027   */\n    tag_184:\n        /* \"#utility.yul\":12935:12939   */\n      0x00\n        /* \"#utility.yul\":12958:12961   */\n      dup2\n        /* \"#utility.yul\":12950:12961   */\n      swap1\n      pop\n        /* \"#utility.yul\":12981:12984   */\n      dup2\n        /* \"#utility.yul\":12978:12979   */\n      0x00\n        /* \"#utility.yul\":12971:12985   */\n      mstore\n        /* \"#utility.yul\":13015:13019   */\n      0x20\n        /* \"#utility.yul\":13012:13013   */\n      0x00\n        /* \"#utility.yul\":13002:13020   */\n      keccak256\n        /* \"#utility.yul\":12994:13020   */\n      swap1\n      pop\n        /* \"#utility.yul\":12886:13027   */\n      swap2\n      swap1\n      pop\n      jump\t// out\n        /* \"#utility.yul\":13033:13126   */\n    tag_185:\n        /* \"#utility.yul\":13070:13076   */\n      0x00\n        /* \"#utility.yul\":13117:13119   */\n      0x20\n        /* \"#utility.yul\":13112:13114   */\n      0x1f\n        /* \"#utility.yul\":13105:13110   */\n      dup4\n        /* \"#utility.yul\":13101:13115   */\n      add\n        /* \"#utility.yul\":13097:13120   */\n      div\n        /* \"#utility.yul\":13087:13120   */\n      swap1\n      pop\n        /* \"#utility.yul\":13033:13126   */\n      swap2\n      swap1\n      pop\n      jump\t// out\n        /* \"#utility.yul\":13132:13239   */\n    tag_186:\n        /* \"#utility.yul\":13176:13184   */\n      0x00\n        /* \"#utility.yul\":13226:13231   */\n      dup3\n        /* \"#utility.yul\":13220:13224   */\n      dup3\n        /* \"#utility.yul\":13216:13232   */\n      shl\n        /* \"#utility.yul\":13195:13232   */\n      swap1\n      pop\n        /* \"#utility.yul\":13132:13239   */\n      swap3\n      swap2\n      pop\n      pop\n      jump\t// out\n        /* \"#utility.yul\":13245:13638   */\n    tag_187:\n        /* \"#utility.yul\":13314:13320   */\n      0x00\n        /* \"#utility.yul\":13364:13365   */\n      0x08\n        /* \"#utility.yul\":13352:13362   */\n      dup4\n        /* \"#utility.yul\":13348:13366   */\n      mul\n        /* \"#utility.yul\":13387:13484   */\n      tag_340\n        /* \"#utility.yul\":13417:13483   */\n      0xffffffffffffffffffffffffffffffffffffffffffffffffffffffffffffffff\n        /* \"#utility.yul\":13406:13415   */\n      dup3\n        /* \"#utility.yul\":13387:13484   */\n      tag_186\n      jump\t// in\n    tag_340:\n        /* \"#utility.yul\":13505:13544   */\n      tag_341\n        /* \"#utility.yul\":13535:13543   */\n      dup7\n        /* \"#utility.yul\":13524:13533   */\n      dup4\n        /* \"#utility.yul\":13505:13544   */\n      tag_186\n      jump\t// in\n    tag_341:\n        /* \"#utility.yul\":13493:13544   */\n      swap6\n      pop\n        /* \"#utility.yul\":13577:13581   */\n      dup1\n        /* \"#utility.yul\":13573:13582   */\n      not\n        /* \"#utility.yul\":13566:13571   */\n      dup5\n        /* \"#utility.yul\":13562:13583   */\n      and\n        /* \"#utility.yul\":13553:13583   */\n      swap4\n      pop\n        /* \"#utility.yul\":13626:13630   */\n      dup1\n        /* \"#utility.yul\":13616:13624   */\n      dup7\n        /* \"#utility.yul\":13612:13631   */\n      and\n        /* \"#utility.yul\":13605:13610   */\n      dup5\n        /* \"#utility.yul\":13602:13632   */\n      or\n        /* \"#utility.yul\":13592:13632   */\n      swap3\n      pop\n        /* \"#utility.yul\":13321:13638   */\n      pop\n      pop\n        /* \"#utility.yul\":13245:13638   */\n      swap4\n      swap3\n      pop\n      pop\n      pop\n      jump\t// out\n        /* \"#utility.yul\":13644:13704   */\n    tag_188:\n        /* \"#utility.yul\":13672:13675   */\n      0x00\n        /* \"#utility.yul\":13693:13698   */\n      dup2\n        /* \"#utility.yul\":13686:13698   */\n      swap1\n      pop\n        /* \"#utility.yul\":13644:13704   */\n      swap2\n      swap1\n      pop\n      jump\t// out\n        /* \"#utility.yul\":13710:13852   */\n    tag_189:\n        /* \"#utility.yul\":13760:13769   */\n      0x00\n        /* \"#utility.yul\":13793:13846   */\n      tag_344\n        /* \"#utility.yul\":13811:13845   */\n      tag_345\n        /* \"#utility.yul\":13820:13844   */\n      tag_346\n        /* \"#utility.yul\":13838:13843   */\n      dup5\n        /* \"#utility.yul\":13820:13844   */\n      tag_156\n      jump\t// in\n    tag_346:\n        /* \"#utility.yul\":13811:13845   */\n      tag_188\n      jump\t// in\n    tag_345:\n        /* \"#utility.yul\":13793:13846   */\n      tag_156\n      jump\t// in\n    tag_344:\n        /* \"#utility.yul\":13780:13846   */\n      swap1\n      pop\n        /* \"#utility.yul\":13710:13852   */\n      swap2\n      swap1\n      pop\n      jump\t// out\n        /* \"#utility.yul\":13858:13933   */\n    tag_190:\n        /* \"#utility.yul\":13901:13904   */\n      0x00\n        /* \"#utility.yul\":13922:13927   */\n      dup2\n        /* \"#utility.yul\":13915:13927   */\n      swap1\n      pop\n        /* \"#utility.yul\":13858:13933   */\n      swap2\n      swap1\n      pop\n      jump\t// out\n        /* \"#utility.yul\":13939:14208   */\n    tag_191:\n        /* \"#utility.yul\":14049:14088   */\n      tag_349\n        /* \"#utility.yul\":14080:14087   */\n      dup4\n        /* \"#utility.yul\":14049:14088   */\n      tag_189\n      jump\t// in\n    tag_349:\n        /* \"#utility.yul\":14110:14201   */\n      tag_350\n        /* \"#utility.yul\":14159:14200   */\n      tag_351\n        /* \"#utility.yul\":14183:14199   */\n      dup3\n        /* \"#utility.yul\":14159:14200   */\n      tag_190\n      jump\t// in\n    tag_351:\n        /* \"#utility.yul\":14151:14157   */\n      dup5\n        /* \"#utility.yul\":14144:14148   */\n      dup5\n        /* \"#utility.yul\":14138:14149   */\n      sload\n        /* \"#utility.yul\":14110:14201   */\n      tag_187\n      jump\t// in\n    tag_350:\n        /* \"#utility.yul\":14104:14108   */\n      dup3\n        /* \"#utility.yul\":14097:14202   */\n      sstore\n        /* \"#utility.yul\":14015:14208   */\n      pop\n        /* \"#utility.yul\":13939:14208   */\n      pop\n      pop\n      pop\n      jump\t// out\n        /* \"#utility.yul\":14214:14287   */\n    tag_192:\n        /* \"#utility.yul\":14259:14262   */\n      0x00\n        /* \"#utility.yul\":14280:14281   */\n      0x00\n        /* \"#utility.yul\":14273:14281   */\n      swap1\n      pop\n        /* \"#utility.yul\":14214:14287   */\n      swap1\n      jump\t// out\n        /* \"#utility.yul\":14293:14482   */\n    tag_193:\n        /* \"#utility.yul\":14370:14402   */\n      tag_354\n      tag_192\n      jump\t// in\n    tag_354:\n        /* \"#utility.yul\":14411:14476   */\n      tag_355\n        /* \"#utility.yul\":14469:14475   */\n      dup2\n        /* \"#utility.yul\":14461:14467   */\n      dup5\n        /* \"#utility.yul\":14455:14459   */\n      dup5\n        /* \"#utility.yul\":14411:14476   */\n      tag_191\n      jump\t// in\n    tag_355:\n        /* \"#utility.yul\":14346:14482   */\n      pop\n        /* \"#utility.yul\":14293:14482   */\n      pop\n      pop\n      jump\t// out\n        /* \"#utility.yul\":14488:14674   */\n    tag_194:\n        /* \"#utility.yul\":14548:14668   */\n    tag_357:\n        /* \"#utility.yul\":14565:14568   */\n      dup2\n        /* \"#utility.yul\":14558:14563   */\n      dup2\n        /* \"#utility.yul\":14555:14569   */\n      lt\n        /* \"#utility.yul\":14548:14668   */\n      iszero\n      tag_359\n      jumpi\n        /* \"#utility.yul\":14619:14658   */\n      tag_360\n        /* \"#utility.yul\":14656:14657   */\n      0x00\n        /* \"#utility.yul\":14649:14654   */\n      dup3\n        /* \"#utility.yul\":14619:14658   */\n      tag_193\n      jump\t// in\n    tag_360:\n        /* \"#utility.yul\":14592:14593   */\n      0x01\n        /* \"#utility.yul\":14585:14590   */\n      dup2\n        /* \"#utility.yul\":14581:14594   */\n      add\n        /* \"#utility.yul\":14572:14594   */\n      swap1\n      pop\n        /* \"#utility.yul\":14548:14668   */\n      jump(tag_357)\n    tag_359:\n        /* \"#utility.yul\":14488:14674   */\n      pop\n      pop\n      jump\t// out\n        /* \"#utility.yul\":14680:15223   */\n    tag_195:\n        /* \"#utility.yul\":14781:14783   */\n      0x1f\n        /* \"#utility.yul\":14776:14779   */\n      dup3\n        /* \"#utility.yul\":14773:14784   */\n      gt\n        /* \"#utility.yul\":14770:15216   */\n      iszero\n      tag_362\n      jumpi\n        /* \"#utility.yul\":14815:14853   */\n      tag_363\n        /* \"#utility.yul\":14847:14852   */\n      dup2\n        /* \"#utility.yul\":14815:14853   */\n      tag_184\n      jump\t// in\n    tag_363:\n        /* \"#utility.yul\":14899:14928   */\n      tag_364\n        /* \"#utility.yul\":14917:14927   */\n      dup5\n        /* \"#utility.yul\":14899:14928   */\n      tag_185\n      jump\t// in\n    tag_364:\n        /* \"#utility.yul\":14889:14897   */\n      dup2\n        /* \"#utility.yul\":14885:14929   */\n      add\n        /* \"#utility.yul\":15082:15084   */\n      0x20\n        /* \"#utility.yul\":15070:15080   */\n      dup6\n        /* \"#utility.yul\":15067:15085   */\n      lt\n        /* \"#utility.yul\":15064:15113   */\n      iszero\n      tag_365\n      jumpi\n        /* \"#utility.yul\":15103:15111   */\n      dup2\n        /* \"#utility.yul\":15088:15111   */\n      swap1\n      pop\n        /* \"#utility.yul\":15064:15113   */\n    tag_365:\n        /* \"#utility.yul\":15126:15206   */\n      tag_366\n        /* \"#utility.yul\":15182:15204   */\n      tag_367\n        /* \"#utility.yul\":15200:15203   */\n      dup6\n        /* \"#utility.yul\":15182:15204   */\n      tag_185\n      jump\t// in\n    tag_367:\n        /* \"#utility.yul\":15172:15180   */\n      dup4\n        /* \"#utility.yul\":15168:15205   */\n      add\n        /* \"#utility.yul\":15155:15166   */\n      dup3\n        /* \"#utility.yul\":15126:15206   */\n      tag_194\n      jump\t// in\n    tag_366:\n        /* \"#utility.yul\":14785:15216   */\n      pop\n      pop\n        /* \"#utility.yul\":14770:15216   */\n    tag_362:\n        /* \"#utility.yul\":14680:15223   */\n      pop\n      pop\n      pop\n      jump\t// out\n        /* \"#utility.yul\":15229:15346   */\n    tag_196:\n        /* \"#utility.yul\":15283:15291   */\n      0x00\n        /* \"#utility.yul\":15333:15338   */\n      dup3\n        /* \"#utility.yul\":15327:15331   */\n      dup3\n        /* \"#utility.yul\":15323:15339   */\n      shr\n        /* \"#utility.yul\":15302:15339   */\n      swap1\n      pop\n        /* \"#utility.yul\":15229:15346   */\n      swap3\n      swap2\n      pop\n      pop\n      jump\t// out\n        /* \"#utility.yul\":15352:15521   */\n    tag_197:\n        /* \"#utility.yul\":15396:15402   */\n      0x00\n        /* \"#utility.yul\":15429:15480   */\n      tag_370\n        /* \"#utility.yul\":15477:15478   */\n      0x00\n        /* \"#utility.yul\":15473:15479   */\n      not\n        /* \"#utility.yul\":15465:15470   */\n      dup5\n        /* \"#utility.yul\":15462:15463   */\n      0x08\n        /* \"#utility.yul\":15458:15471   */\n      mul\n        /* \"#utility.yul\":15429:15480   */\n      tag_196\n      jump\t// in\n    tag_370:\n        /* \"#utility.yul\":15425:15481   */\n      not\n        /* \"#utility.yul\":15510:15514   */\n      dup1\n        /* \"#utility.yul\":15504:15508   */\n      dup4\n        /* \"#utility.yul\":15500:15515   */\n      and\n        /* \"#utility.yul\":15490:15515   */\n      swap2\n      pop\n        /* \"#utility.yul\":15403:15521   */\n      pop\n        /* \"#utility.yul\":15352:15521   */\n      swap3\n      swap2\n      pop\n      pop\n      jump\t// out\n        /* \"#utility.yul\":15526:15821   */\n    tag_198:\n        /* \"#utility.yul\":15602:15606   */\n      0x00\n        /* \"#utility.yul\":15748:15777   */\n      tag_372\n        /* \"#utility.yul\":15773:15776   */\n      dup4\n        /* \"#utility.yul\":15767:15771   */\n      dup4\n        /* \"#utility.yul\":15748:15777   */\n      tag_197\n      jump\t// in\n    tag_372:\n        /* \"#utility.yul\":15740:15777   */\n      swap2\n      pop\n        /* \"#utility.yul\":15810:15813   */\n      dup3\n        /* \"#utility.yul\":15807:15808   */\n      0x02\n        /* \"#utility.yul\":15803:15814   */\n      mul\n        /* \"#utility.yul\":15797:15801   */\n      dup3\n        /* \"#utility.yul\":15794:15815   */\n      or\n        /* \"#utility.yul\":15786:15815   */\n      swap1\n      pop\n        /* \"#utility.yul\":15526:15821   */\n      swap3\n      swap2\n      pop\n      pop\n      jump\t// out\n        /* \"#utility.yul\":15826:17221   */\n    tag_71:\n        /* \"#utility.yul\":15943:15980   */\n      tag_374\n        /* \"#utility.yul\":15976:15979   */\n      dup3\n        /* \"#utility.yul\":15943:15980   */\n      tag_173\n      jump\t// in\n    tag_374:\n        /* \"#utility.yul\":16045:16063   */\n      0xffffffffffffffff\n        /* \"#utility.yul\":16037:16043   */\n      dup2\n        /* \"#utility.yul\":16034:16064   */\n      gt\n        /* \"#utility.yul\":16031:16087   */\n      iszero\n      tag_375\n      jumpi\n        /* \"#utility.yul\":16067:16085   */\n      tag_376\n      tag_162\n      jump\t// in\n    tag_376:\n        /* \"#utility.yul\":16031:16087   */\n    tag_375:\n        /* \"#utility.yul\":16111:16149   */\n      tag_377\n        /* \"#utility.yul\":16143:16147   */\n      dup3\n        /* \"#utility.yul\":16137:16148   */\n      sload\n        /* \"#utility.yul\":16111:16149   */\n      tag_97\n      jump\t// in\n    tag_377:\n        /* \"#utility.yul\":16196:16263   */\n      tag_378\n        /* \"#utility.yul\":16256:16262   */\n      dup3\n        /* \"#utility.yul\":16248:16254   */\n      dup3\n        /* \"#utility.yul\":16242:16246   */\n      dup6\n        /* \"#utility.yul\":16196:16263   */\n      tag_195\n      jump\t// in\n    tag_378:\n        /* \"#utility.yul\":16290:16291   */\n      0x00\n        /* \"#utility.yul\":16314:16318   */\n      0x20\n        /* \"#utility.yul\":16301:16318   */\n      swap1\n      pop\n        /* \"#utility.yul\":16346:16348   */\n      0x1f\n        /* \"#utility.yul\":16338:16344   */\n      dup4\n        /* \"#utility.yul\":16335:16349   */\n      gt\n        /* \"#utility.yul\":16363:16364   */\n      0x01\n        /* \"#utility.yul\":16358:16976   */\n      dup2\n      eq\n      tag_380\n      jumpi\n        /* \"#utility.yul\":17020:17021   */\n      0x00\n        /* \"#utility.yul\":17037:17043   */\n      dup5\n        /* \"#utility.yul\":17034:17111   */\n      iszero\n      tag_381\n      jumpi\n        /* \"#utility.yul\":17086:17095   */\n      dup3\n        /* \"#utility.yul\":17081:17084   */\n      dup8\n        /* \"#utility.yul\":17077:17096   */\n      add\n        /* \"#utility.yul\":17071:17097   */\n      mload\n        /* \"#utility.yul\":17062:17097   */\n      swap1\n      pop\n        /* \"#utility.yul\":17034:17111   */\n    tag_381:\n        /* \"#utility.yul\":17137:17204   */\n      tag_382\n        /* \"#utility.yul\":17197:17203   */\n      dup6\n        /* \"#utility.yul\":17190:17195   */\n      dup3\n        /* \"#utility.yul\":17137:17204   */\n      tag_198\n      jump\t// in\n    tag_382:\n        /* \"#utility.yul\":17131:17135   */\n      dup7\n        /* \"#utility.yul\":17124:17205   */\n      sstore\n        /* \"#utility.yul\":16993:17215   */\n      pop\n        /* \"#utility.yul\":16328:17215   */\n      jump(tag_379)\n        /* \"#utility.yul\":16358:16976   */\n    tag_380:\n        /* \"#utility.yul\":16410:16414   */\n      0x1f\n        /* \"#utility.yul\":16406:16415   */\n      not\n        /* \"#utility.yul\":16398:16404   */\n      dup5\n        /* \"#utility.yul\":16394:16416   */\n      and\n        /* \"#utility.yul\":16444:16481   */\n      tag_383\n        /* \"#utility.yul\":16476:16480   */\n      dup7\n        /* \"#utility.yul\":16444:16481   */\n      tag_184\n      jump\t// in\n    tag_383:\n        /* \"#utility.yul\":16503:16504   */\n      0x00\n        /* \"#utility.yul\":16517:16725   */\n    tag_384:\n        /* \"#utility.yul\":16531:16538   */\n      dup3\n        /* \"#utility.yul\":16528:16529   */\n      dup2\n        /* \"#utility.yul\":16525:16539   */\n      lt\n        /* \"#utility.yul\":16517:16725   */\n      iszero\n      tag_386\n      jumpi\n        /* \"#utility.yul\":16610:16619   */\n      dup5\n        /* \"#utility.yul\":16605:16608   */\n      dup10\n        /* \"#utility.yul\":16601:16620   */\n      add\n        /* \"#utility.yul\":16595:16621   */\n      mload\n        /* \"#utility.yul\":16587:16593   */\n      dup3\n        /* \"#utility.yul\":16580:16622   */\n      sstore\n        /* \"#utility.yul\":16661:16662   */\n      0x01\n        /* \"#utility.yul\":16653:16659   */\n      dup3\n        /* \"#utility.yul\":16649:16663   */\n      add\n        /* \"#utility.yul\":16639:16663   */\n      swap2\n      pop\n        /* \"#utility.yul\":16708:16710   */\n      0x20\n        /* \"#utility.yul\":16697:16706   */\n      dup6\n        /* \"#utility.yul\":16693:16711   */\n      add\n        /* \"#utility.yul\":16680:16711   */\n      swap5\n      pop\n        /* \"#utility.yul\":16554:16558   */\n      0x20\n        /* \"#utility.yul\":16551:16552   */\n      dup2\n        /* \"#utility.yul\":16547:16559   */\n      add\n        /* \"#utility.yul\":16542:16559   */\n      swap1\n      pop\n        /* \"#utility.yul\":16517:16725   */\n      jump(tag_384)\n    tag_386:\n        /* \"#utility.yul\":16753:16759   */\n      dup7\n        /* \"#utility.yul\":16744:16751   */\n      dup4\n        /* \"#utility.yul\":16741:16760   */\n      lt\n        /* \"#utility.yul\":16738:16917   */\n      iszero\n      tag_387\n      jumpi\n        /* \"#utility.yul\":16811:16820   */\n      dup5\n        /* \"#utility.yul\":16806:16809   */\n      dup10\n        /* \"#utility.yul\":16802:16821   */\n      add\n        /* \"#utility.yul\":16796:16822   */\n      mload\n        /* \"#utility.yul\":16854:16902   */\n      tag_388\n        /* \"#utility.yul\":16896:16900   */\n      0x1f\n        /* \"#utility.yul\":16888:16894   */\n      dup10\n        /* \"#utility.yul\":16884:16901   */\n      and\n        /* \"#utility.yul\":16873:16882   */\n      dup3\n        /* \"#utility.yul\":16854:16902   */\n      tag_197\n      jump\t// in\n    tag_388:\n        /* \"#utility.yul\":16846:16852   */\n      dup4\n        /* \"#utility.yul\":16839:16903   */\n      sstore\n        /* \"#utility.yul\":16761:16917   */\n      pop\n        /* \"#utility.yul\":16738:16917   */\n    tag_387:\n        /* \"#utility.yul\":16963:16964   */\n      0x01\n        /* \"#utility.yul\":16959:16960   */\n      0x02\n        /* \"#utility.yul\":16951:16957   */\n      dup9\n        /* \"#utility.yul\":16947:16961   */\n      mul\n        /* \"#utility.yul\":16943:16965   */\n      add\n        /* \"#utility.yul\":16937:16941   */\n      dup9\n        /* \"#utility.yul\":16930:16966   */\n      sstore\n        /* \"#utility.yul\":16365:16976   */\n      pop\n      pop\n      pop\n        /* \"#utility.yul\":16328:17215   */\n    tag_379:\n      pop\n        /* \"#utility.yul\":15918:17221   */\n      pop\n      pop\n      pop\n        /* \"#utility.yul\":15826:17221   */\n      pop\n      pop\n      jump\t// out\n        /* \"#utility.yul\":17227:17393   */\n    tag_199:\n        /* \"#utility.yul\":17367:17385   */\n      0x506f6c69636520697320636f6d696e6700000000000000000000000000000000\n        /* \"#utility.yul\":17363:17364   */\n      0x00\n        /* \"#utility.yul\":17355:17361   */\n      dup3\n        /* \"#utility.yul\":17351:17365   */\n      add\n        /* \"#utility.yul\":17344:17386   */\n      mstore\n        /* \"#utility.yul\":17227:17393   */\n      pop\n      jump\t// out\n        /* \"#utility.yul\":17399:17765   */\n    tag_200:\n        /* \"#utility.yul\":17541:17544   */\n      0x00\n        /* \"#utility.yul\":17562:17629   */\n      tag_391\n        /* \"#utility.yul\":17626:17628   */\n      0x10\n        /* \"#utility.yul\":17621:17624   */\n      dup4\n        /* \"#utility.yul\":17562:17629   */\n      tag_174\n      jump\t// in\n    tag_391:\n        /* \"#utility.yul\":17555:17629   */\n      swap2\n      pop\n        /* \"#utility.yul\":17638:17731   */\n      tag_392\n        /* \"#utility.yul\":17727:17730   */\n      dup3\n        /* \"#utility.yul\":17638:17731   */\n      tag_199\n      jump\t// in\n    tag_392:\n        /* \"#utility.yul\":17756:17758   */\n      0x20\n        /* \"#utility.yul\":17751:17754   */\n      dup3\n        /* \"#utility.yul\":17747:17759   */\n      add\n        /* \"#utility.yul\":17740:17759   */\n      swap1\n      pop\n        /* \"#utility.yul\":17399:17765   */\n      swap2\n      swap1\n      pop\n      jump\t// out\n        /* \"#utility.yul\":17771:18190   */\n    tag_81:\n        /* \"#utility.yul\":17937:17941   */\n      0x00\n        /* \"#utility.yul\":17975:17977   */\n      0x20\n        /* \"#utility.yul\":17964:17973   */\n      dup3\n        /* \"#utility.yul\":17960:17978   */\n      add\n        /* \"#utility.yul\":17952:17978   */\n      swap1\n      pop\n        /* \"#utility.yul\":18024:18033   */\n      dup2\n        /* \"#utility.yul\":18018:18022   */\n      dup2\n        /* \"#utility.yul\":18014:18034   */\n      sub\n        /* \"#utility.yul\":18010:18011   */\n      0x00\n        /* \"#utility.yul\":17999:18008   */\n      dup4\n        /* \"#utility.yul\":17995:18012   */\n      add\n        /* \"#utility.yul\":17988:18035   */\n      mstore\n        /* \"#utility.yul\":18052:18183   */\n      tag_394\n        /* \"#utility.yul\":18178:18182   */\n      dup2\n        /* \"#utility.yul\":18052:18183   */\n      tag_200\n      jump\t// in\n    tag_394:\n        /* \"#utility.yul\":18044:18183   */\n      swap1\n      pop\n        /* \"#utility.yul\":17771:18190   */\n      swap2\n      swap1\n      pop\n      jump\t// out\n        /* \"#utility.yul\":18196:18367   */\n    tag_201:\n        /* \"#utility.yul\":18336:18359   */\n      0x596f752063616e74207769746864726177207965740000000000000000000000\n        /* \"#utility.yul\":18332:18333   */\n      0x00\n        /* \"#utility.yul\":18324:18330   */\n      dup3\n        /* \"#utility.yul\":18320:18334   */\n      add\n        /* \"#utility.yul\":18313:18360   */\n      mstore\n        /* \"#utility.yul\":18196:18367   */\n      pop\n      jump\t// out\n        /* \"#utility.yul\":18373:18739   */\n    tag_202:\n        /* \"#utility.yul\":18515:18518   */\n      0x00\n        /* \"#utility.yul\":18536:18603   */\n      tag_397\n        /* \"#utility.yul\":18600:18602   */\n      0x15\n        /* \"#utility.yul\":18595:18598   */\n      dup4\n        /* \"#utility.yul\":18536:18603   */\n      tag_174\n      jump\t// in\n    tag_397:\n        /* \"#utility.yul\":18529:18603   */\n      swap2\n      pop\n        /* \"#utility.yul\":18612:18705   */\n      tag_398\n        /* \"#utility.yul\":18701:18704   */\n      dup3\n        /* \"#utility.yul\":18612:18705   */\n      tag_201\n      jump\t// in\n    tag_398:\n        /* \"#utility.yul\":18730:18732   */\n      0x20\n        /* \"#utility.yul\":18725:18728   */\n      dup3\n        /* \"#utility.yul\":18721:18733   */\n      add\n        /* \"#utility.yul\":18714:18733   */\n      swap1\n      pop\n        /* \"#utility.yul\":18373:18739   */\n      swap2\n      swap1\n      pop\n      jump\t// out\n        /* \"#utility.yul\":18745:19164   */\n    tag_85:\n        /* \"#utility.yul\":18911:18915   */\n      0x00\n        /* \"#utility.yul\":18949:18951   */\n      0x20\n        /* \"#utility.yul\":18938:18947   */\n      dup3\n        /* \"#utility.yul\":18934:18952   */\n      add\n        /* \"#utility.yul\":18926:18952   */\n      swap1\n      pop\n        /* \"#utility.yul\":18998:19007   */\n      dup2\n        /* \"#utility.yul\":18992:18996   */\n      dup2\n        /* \"#utility.yul\":18988:19008   */\n      sub\n        /* \"#utility.yul\":18984:18985   */\n      0x00\n        /* \"#utility.yul\":18973:18982   */\n      dup4\n        /* \"#utility.yul\":18969:18986   */\n      add\n        /* \"#utility.yul\":18962:19009   */\n      mstore\n        /* \"#utility.yul\":19026:19157   */\n      tag_400\n        /* \"#utility.yul\":19152:19156   */\n      dup2\n        /* \"#utility.yul\":19026:19157   */\n      tag_202\n      jump\t// in\n    tag_400:\n        /* \"#utility.yul\":19018:19157   */\n      swap1\n      pop\n        /* \"#utility.yul\":18745:19164   */\n      swap2\n      swap1\n      pop\n      jump\t// out\n        /* \"#utility.yul\":19170:19350   */\n    tag_203:\n        /* \"#utility.yul\":19218:19295   */\n      0x4e487b7100000000000000000000000000000000000000000000000000000000\n        /* \"#utility.yul\":19215:19216   */\n      0x00\n        /* \"#utility.yul\":19208:19296   */\n      mstore\n        /* \"#utility.yul\":19315:19319   */\n      0x11\n        /* \"#utility.yul\":19312:19313   */\n      0x04\n        /* \"#utility.yul\":19305:19320   */\n      mstore\n        /* \"#utility.yul\":19339:19343   */\n      0x24\n        /* \"#utility.yul\":19336:19337   */\n      0x00\n        /* \"#utility.yul\":19329:19344   */\n      revert\n        /* \"#utility.yul\":19356:19547   */\n    tag_137:\n        /* \"#utility.yul\":19396:19399   */\n      0x00\n        /* \"#utility.yul\":19415:19435   */\n      tag_403\n        /* \"#utility.yul\":19433:19434   */\n      dup3\n        /* \"#utility.yul\":19415:19435   */\n      tag_156\n      jump\t// in\n    tag_403:\n        /* \"#utility.yul\":19410:19435   */\n      swap2\n      pop\n        /* \"#utility.yul\":19449:19469   */\n      tag_404\n        /* \"#utility.yul\":19467:19468   */\n      dup4\n        /* \"#utility.yul\":19449:19469   */\n      tag_156\n      jump\t// in\n    tag_404:\n        /* \"#utility.yul\":19444:19469   */\n      swap3\n      pop\n        /* \"#utility.yul\":19492:19493   */\n      dup3\n        /* \"#utility.yul\":19489:19490   */\n      dup3\n        /* \"#utility.yul\":19485:19494   */\n      add\n        /* \"#utility.yul\":19478:19494   */\n      swap1\n      pop\n        /* \"#utility.yul\":19513:19516   */\n      dup1\n        /* \"#utility.yul\":19510:19511   */\n      dup3\n        /* \"#utility.yul\":19507:19517   */\n      gt\n        /* \"#utility.yul\":19504:19540   */\n      iszero\n      tag_405\n      jumpi\n        /* \"#utility.yul\":19520:19538   */\n      tag_406\n      tag_203\n      jump\t// in\n    tag_406:\n        /* \"#utility.yul\":19504:19540   */\n    tag_405:\n        /* \"#utility.yul\":19356:19547   */\n      swap3\n      swap2\n      pop\n      pop\n      jump\t// out\n        /* \"#utility.yul\":19553:19671   */\n    tag_204:\n        /* \"#utility.yul\":19640:19664   */\n      tag_408\n        /* \"#utility.yul\":19658:19663   */\n      dup2\n        /* \"#utility.yul\":19640:19664   */\n      tag_148\n      jump\t// in\n    tag_408:\n        /* \"#utility.yul\":19635:19638   */\n      dup3\n        /* \"#utility.yul\":19628:19665   */\n      mstore\n        /* \"#utility.yul\":19553:19671   */\n      pop\n      pop\n      jump\t// out\n        /* \"#utility.yul\":19677:20119   */\n    tag_143:\n        /* \"#utility.yul\":19826:19830   */\n      0x00\n        /* \"#utility.yul\":19864:19866   */\n      0x60\n        /* \"#utility.yul\":19853:19862   */\n      dup3\n        /* \"#utility.yul\":19849:19867   */\n      add\n        /* \"#utility.yul\":19841:19867   */\n      swap1\n      pop\n        /* \"#utility.yul\":19877:19948   */\n      tag_410\n        /* \"#utility.yul\":19945:19946   */\n      0x00\n        /* \"#utility.yul\":19934:19943   */\n      dup4\n        /* \"#utility.yul\":19930:19947   */\n      add\n        /* \"#utility.yul\":19921:19927   */\n      dup7\n        /* \"#utility.yul\":19877:19948   */\n      tag_204\n      jump\t// in\n    tag_410:\n        /* \"#utility.yul\":19958:20030   */\n      tag_411\n        /* \"#utility.yul\":20026:20028   */\n      0x20\n        /* \"#utility.yul\":20015:20024   */\n      dup4\n        /* \"#utility.yul\":20011:20029   */\n      add\n        /* \"#utility.yul\":20002:20008   */\n      dup6\n        /* \"#utility.yul\":19958:20030   */\n      tag_172\n      jump\t// in\n    tag_411:\n        /* \"#utility.yul\":20040:20112   */\n      tag_412\n        /* \"#utility.yul\":20108:20110   */\n      0x40\n        /* \"#utility.yul\":20097:20106   */\n      dup4\n        /* \"#utility.yul\":20093:20111   */\n      add\n        /* \"#utility.yul\":20084:20090   */\n      dup5\n        /* \"#utility.yul\":20040:20112   */\n      tag_172\n      jump\t// in\n    tag_412:\n        /* \"#utility.yul\":19677:20119   */\n      swap5\n      swap4\n      pop\n      pop\n      pop\n      pop\n      jump\t// out\n\n    auxdata: 0xa264697066735822122034b146b61afead837722f69e6b22f05f44576d77f7fc484bd6833f9ddf787a6864736f6c634300081e0033\n}\n",
				"bytecode": {
					"linkReferences": {},
					"object": "6080604052348015600e575f5ffd5b50335f5f6101000a81548173ffffffffffffffffffffffffffffffffffffffff021916908373ffffffffffffffffffffffffffffffffffffffff16021790555061155f8061005b5f395ff3fe608060405260043610610054575f3560e01c806319262d30146100585780632503aedc1461009457806351cff8d9146100bc5780637002ce42146100d8578063722713f714610119578063f340fa0114610143575b5f5ffd5b348015610063575f5ffd5b5061007e60048036038101906100799190610b37565b61015f565b60405161008b9190610b7c565b60405180910390f35b34801561009f575f5ffd5b506100ba60048036038101906100b59190610d69565b6102df565b005b6100d660048036038101906100d19190610e2a565b610487565b005b3480156100e3575f5ffd5b506100fe60048036038101906100f99190610e55565b610646565b60405161011096959493929190610efe565b60405180910390f35b348015610124575f5ffd5b5061012d6107c4565b60405161013a9190610f6b565b60405180910390f35b61015d60048036038101906101589190610b37565b6107cb565b005b5f5f61016a83610865565b905061270f810361017e575f9150506102da565b61270f81036101c2576040517f08c379a00000000000000000000000000000000000000000000000000000000081526004016101b990610fce565b60405180910390fd5b600181815481106101d6576101d5610fec565b5b905f5260205f2090600602016005015f9054906101000a900460ff16156102015760019150506102da565b6001818154811061021557610214610fec565b5b905f5260205f20906006020160040154421015610267576040517f08c379a000000000000000000000000000000000000000000000000000000000815260040161025e90611063565b60405180910390fd5b6001818154811061027b5761027a610fec565b5b905f5260205f2090600602016004015442106102d55760018082815481106102a6576102a5610fec565b5b905f5260205f2090600602016005015f6101000a81548160ff02191690831515021790555060019150506102da565b5f9150505b919050565b5f5f9054906101000a900473ffffffffffffffffffffffffffffffffffffffff1673ffffffffffffffffffffffffffffffffffffffff163373ffffffffffffffffffffffffffffffffffffffff161461036d576040517f08c379a0000000000000000000000000000000000000000000000000000000008152600401610364906110cb565b60405180910390fd5b60016040518060c001604052808873ffffffffffffffffffffffffffffffffffffffff168152602001878152602001868152602001858152602001848152602001831515815250908060018154018082558091505060019003905f5260205f2090600602015f909190919091505f820151815f015f6101000a81548173ffffffffffffffffffffffffffffffffffffffff021916908373ffffffffffffffffffffffffffffffffffffffff16021790555060208201518160010155604082015181600201908161043d91906112e6565b50606082015181600301908161045391906112e6565b506080820151816004015560a0820151816005015f6101000a81548160ff0219169083151502179055505050505050505050565b5f61049182610865565b905061270f81036104a25750610643565b3373ffffffffffffffffffffffffffffffffffffffff16600182815481106104cd576104cc610fec565b5b905f5260205f2090600602015f015f9054906101000a900473ffffffffffffffffffffffffffffffffffffffff1673ffffffffffffffffffffffffffffffffffffffff1614610551576040517f08c379a0000000000000000000000000000000000000000000000000000000008152600401610548906113ff565b60405180910390fd5b61055a8261015f565b610599576040517f08c379a000000000000000000000000000000000000000000000000000000000815260040161059090611467565b60405180910390fd5b600181815481106105ad576105ac610fec565b5b905f5260205f2090600602015f015f9054906101000a900473ffffffffffffffffffffffffffffffffffffffff1673ffffffffffffffffffffffffffffffffffffffff166108fc6001838154811061060857610607610fec565b5b905f5260205f2090600602016001015490811502906040515f60405180830381858888f19350505050158015610640573d5f5f3e3d5ffd5b50505b50565b60018181548110610655575f80fd5b905f5260205f2090600602015f91509050805f015f9054906101000a900473ffffffffffffffffffffffffffffffffffffffff169080600101549080600201805461069f90611116565b80601f01602080910402602001604051908101604052809291908181526020018280546106cb90611116565b80156107165780601f106106ed57610100808354040283529160200191610716565b820191905f5260205f20905b8154815290600101906020018083116106f957829003601f168201915b50505050509080600301805461072b90611116565b80601f016020809104026020016040519081016040528092919081815260200182805461075790611116565b80156107a25780601f10610779576101008083540402835291602001916107a2565b820191905f5260205f20905b81548152906001019060200180831161078557829003601f168201915b505050505090806004015490806005015f9054906101000a900460ff16905086565b5f47905090565b5f5f9054906101000a900473ffffffffffffffffffffffffffffffffffffffff1673ffffffffffffffffffffffffffffffffffffffff163373ffffffffffffffffffffffffffffffffffffffff1614610859576040517f08c379a0000000000000000000000000000000000000000000000000000000008152600401610850906110cb565b60405180910390fd5b6108628161090e565b50565b5f5f5f90505b600180549050811015610902578273ffffffffffffffffffffffffffffffffffffffff16600182815481106108a3576108a2610fec565b5b905f5260205f2090600602015f015f9054906101000a900473ffffffffffffffffffffffffffffffffffffffff1673ffffffffffffffffffffffffffffffffffffffff16036108f55780915050610909565b808060010191505061086b565b5061270f90505b919050565b5f5f9054906101000a900473ffffffffffffffffffffffffffffffffffffffff1673ffffffffffffffffffffffffffffffffffffffff163373ffffffffffffffffffffffffffffffffffffffff161461099c576040517f08c379a0000000000000000000000000000000000000000000000000000000008152600401610993906110cb565b60405180910390fd5b5f5f90505b600180549050811015610ac8578173ffffffffffffffffffffffffffffffffffffffff16600182815481106109d9576109d8610fec565b5b905f5260205f2090600602015f015f9054906101000a900473ffffffffffffffffffffffffffffffffffffffff1673ffffffffffffffffffffffffffffffffffffffff1603610abb573460018281548110610a3757610a36610fec565b5b905f5260205f20906006020160010154610a5191906114b2565b60018281548110610a6557610a64610fec565b5b905f5260205f209060060201600101819055507fb6b62bf7c6691da8355cd23a1de771ac90134b6cb4e6f984291427e711e4bfb78234610aa36107c4565b604051610ab2939291906114f4565b60405180910390a15b80806001019150506109a1565b5050565b5f604051905090565b5f5ffd5b5f5ffd5b5f73ffffffffffffffffffffffffffffffffffffffff82169050919050565b5f610b0682610add565b9050919050565b610b1681610afc565b8114610b20575f5ffd5b50565b5f81359050610b3181610b0d565b92915050565b5f60208284031215610b4c57610b4b610ad5565b5b5f610b5984828501610b23565b91505092915050565b5f8115159050919050565b610b7681610b62565b82525050565b5f602082019050610b8f5f830184610b6d565b92915050565b5f610b9f82610add565b9050919050565b610baf81610b95565b8114610bb9575f5ffd5b50565b5f81359050610bca81610ba6565b92915050565b5f819050919050565b610be281610bd0565b8114610bec575f5ffd5b50565b5f81359050610bfd81610bd9565b92915050565b5f5ffd5b5f5ffd5b5f601f19601f8301169050919050565b7f4e487b71000000000000000000000000000000000000000000000000000000005f52604160045260245ffd5b610c5182610c0b565b810181811067ffffffffffffffff82111715610c7057610c6f610c1b565b5b80604052505050565b5f610c82610acc565b9050610c8e8282610c48565b919050565b5f67ffffffffffffffff821115610cad57610cac610c1b565b5b610cb682610c0b565b9050602081019050919050565b828183375f83830152505050565b5f610ce3610cde84610c93565b610c79565b905082815260208101848484011115610cff57610cfe610c07565b5b610d0a848285610cc3565b509392505050565b5f82601f830112610d2657610d25610c03565b5b8135610d36848260208601610cd1565b91505092915050565b610d4881610b62565b8114610d52575f5ffd5b50565b5f81359050610d6381610d3f565b92915050565b5f5f5f5f5f5f60c08789031215610d8357610d82610ad5565b5b5f610d9089828a01610bbc565b9650506020610da189828a01610bef565b955050604087013567ffffffffffffffff811115610dc257610dc1610ad9565b5b610dce89828a01610d12565b945050606087013567ffffffffffffffff811115610def57610dee610ad9565b5b610dfb89828a01610d12565b9350506080610e0c89828a01610bef565b92505060a0610e1d89828a01610d55565b9150509295509295509295565b5f60208284031215610e3f57610e3e610ad5565b5b5f610e4c84828501610bbc565b91505092915050565b5f60208284031215610e6a57610e69610ad5565b5b5f610e7784828501610bef565b91505092915050565b610e8981610b95565b82525050565b610e9881610bd0565b82525050565b5f81519050919050565b5f82825260208201905092915050565b8281835e5f83830152505050565b5f610ed082610e9e565b610eda8185610ea8565b9350610eea818560208601610eb8565b610ef381610c0b565b840191505092915050565b5f60c082019050610f115f830189610e80565b610f1e6020830188610e8f565b8181036040830152610f308187610ec6565b90508181036060830152610f448186610ec6565b9050610f536080830185610e8f565b610f6060a0830184610b6d565b979650505050505050565b5f602082019050610f7e5f830184610e8f565b92915050565b7f57726f6e67206368696c64206e6f7420696e20626c6f636b00000000000000005f82015250565b5f610fb8601883610ea8565b9150610fc382610f84565b602082019050919050565b5f6020820190508181035f830152610fe581610fac565b9050919050565b7f4e487b71000000000000000000000000000000000000000000000000000000005f52603260045260245ffd5b7f796f752063616e742077697468647261772079657400000000000000000000005f82015250565b5f61104d601583610ea8565b915061105882611019565b602082019050919050565b5f6020820190508181035f83015261107a81611041565b9050919050565b7f796f75206172656e6f7420616c6c6f77656400000000000000000000000000005f82015250565b5f6110b5601283610ea8565b91506110c082611081565b602082019050919050565b5f6020820190508181035f8301526110e2816110a9565b9050919050565b7f4e487b71000000000000000000000000000000000000000000000000000000005f52602260045260245ffd5b5f600282049050600182168061112d57607f821691505b6020821081036111405761113f6110e9565b5b50919050565b5f819050815f5260205f209050919050565b5f6020601f8301049050919050565b5f82821b905092915050565b5f600883026111a27fffffffffffffffffffffffffffffffffffffffffffffffffffffffffffffffff82611167565b6111ac8683611167565b95508019841693508086168417925050509392505050565b5f819050919050565b5f6111e76111e26111dd84610bd0565b6111c4565b610bd0565b9050919050565b5f819050919050565b611200836111cd565b61121461120c826111ee565b848454611173565b825550505050565b5f5f905090565b61122b61121c565b6112368184846111f7565b505050565b5b818110156112595761124e5f82611223565b60018101905061123c565b5050565b601f82111561129e5761126f81611146565b61127884611158565b81016020851015611287578190505b61129b61129385611158565b83018261123b565b50505b505050565b5f82821c905092915050565b5f6112be5f19846008026112a3565b1980831691505092915050565b5f6112d683836112af565b9150826002028217905092915050565b6112ef82610e9e565b67ffffffffffffffff81111561130857611307610c1b565b5b6113128254611116565b61131d82828561125d565b5f60209050601f83116001811461134e575f841561133c578287015190505b61134685826112cb565b8655506113ad565b601f19841661135c86611146565b5f5b828110156113835784890151825560018201915060208501945060208101905061135e565b868310156113a0578489015161139c601f8916826112af565b8355505b6001600288020188555050505b505050505050565b7f506f6c69636520697320636f6d696e67000000000000000000000000000000005f82015250565b5f6113e9601083610ea8565b91506113f4826113b5565b602082019050919050565b5f6020820190508181035f830152611416816113dd565b9050919050565b7f596f752063616e742077697468647261772079657400000000000000000000005f82015250565b5f611451601583610ea8565b915061145c8261141d565b602082019050919050565b5f6020820190508181035f83015261147e81611445565b9050919050565b7f4e487b71000000000000000000000000000000000000000000000000000000005f52601160045260245ffd5b5f6114bc82610bd0565b91506114c783610bd0565b92508282019050808211156114df576114de611485565b5b92915050565b6114ee81610afc565b82525050565b5f6060820190506115075f8301866114e5565b6115146020830185610e8f565b6115216040830184610e8f565b94935050505056fea264697066735822122034b146b61afead837722f69e6b22f05f44576d77f7fc484bd6833f9ddf787a6864736f6c634300081e0033",
					"opcodes": "PUSH1 0x80 PUSH1 0x40 MSTORE CALLVALUE DUP1 ISZERO PUSH1 0xE JUMPI PUSH0 PUSH0 REVERT JUMPDEST POP CALLER PUSH0 PUSH0 PUSH2 0x100 EXP DUP2 SLOAD DUP2 PUSH20 0xFFFFFFFFFFFFFFFFFFFFFFFFFFFFFFFFFFFFFFFF MUL NOT AND SWAP1 DUP4 PUSH20 0xFFFFFFFFFFFFFFFFFFFFFFFFFFFFFFFFFFFFFFFF AND MUL OR SWAP1 SSTORE POP PUSH2 0x155F DUP1 PUSH2 0x5B PUSH0 CODECOPY PUSH0 RETURN INVALID PUSH1 0x80 PUSH1 0x40 MSTORE PUSH1 0x4 CALLDATASIZE LT PUSH2 0x54 JUMPI PUSH0 CALLDATALOAD PUSH1 0xE0 SHR DUP1 PUSH4 0x19262D30 EQ PUSH2 0x58 JUMPI DUP1 PUSH4 0x2503AEDC EQ PUSH2 0x94 JUMPI DUP1 PUSH4 0x51CFF8D9 EQ PUSH2 0xBC JUMPI DUP1 PUSH4 0x7002CE42 EQ PUSH2 0xD8 JUMPI DUP1 PUSH4 0x722713F7 EQ PUSH2 0x119 JUMPI DUP1 PUSH4 0xF340FA01 EQ PUSH2 0x143 JUMPI JUMPDEST PUSH0 PUSH0 REVERT JUMPDEST CALLVALUE DUP1 ISZERO PUSH2 0x63 JUMPI PUSH0 PUSH0 REVERT JUMPDEST POP PUSH2 0x7E PUSH1 0x4 DUP1 CALLDATASIZE SUB DUP2 ADD SWAP1 PUSH2 0x79 SWAP2 SWAP1 PUSH2 0xB37 JUMP JUMPDEST PUSH2 0x15F JUMP JUMPDEST PUSH1 0x40 MLOAD PUSH2 0x8B SWAP2 SWAP1 PUSH2 0xB7C JUMP JUMPDEST PUSH1 0x40 MLOAD DUP1 SWAP2 SUB SWAP1 RETURN JUMPDEST CALLVALUE DUP1 ISZERO PUSH2 0x9F JUMPI PUSH0 PUSH0 REVERT JUMPDEST POP PUSH2 0xBA PUSH1 0x4 DUP1 CALLDATASIZE SUB DUP2 ADD SWAP1 PUSH2 0xB5 SWAP2 SWAP1 PUSH2 0xD69 JUMP JUMPDEST PUSH2 0x2DF JUMP JUMPDEST STOP JUMPDEST PUSH2 0xD6 PUSH1 0x4 DUP1 CALLDATASIZE SUB DUP2 ADD SWAP1 PUSH2 0xD1 SWAP2 SWAP1 PUSH2 0xE2A JUMP JUMPDEST PUSH2 0x487 JUMP JUMPDEST STOP JUMPDEST CALLVALUE DUP1 ISZERO PUSH2 0xE3 JUMPI PUSH0 PUSH0 REVERT JUMPDEST POP PUSH2 0xFE PUSH1 0x4 DUP1 CALLDATASIZE SUB DUP2 ADD SWAP1 PUSH2 0xF9 SWAP2 SWAP1 PUSH2 0xE55 JUMP JUMPDEST PUSH2 0x646 JUMP JUMPDEST PUSH1 0x40 MLOAD PUSH2 0x110 SWAP7 SWAP6 SWAP5 SWAP4 SWAP3 SWAP2 SWAP1 PUSH2 0xEFE JUMP JUMPDEST PUSH1 0x40 MLOAD DUP1 SWAP2 SUB SWAP1 RETURN JUMPDEST CALLVALUE DUP1 ISZERO PUSH2 0x124 JUMPI PUSH0 PUSH0 REVERT JUMPDEST POP PUSH2 0x12D PUSH2 0x7C4 JUMP JUMPDEST PUSH1 0x40 MLOAD PUSH2 0x13A SWAP2 SWAP1 PUSH2 0xF6B JUMP JUMPDEST PUSH1 0x40 MLOAD DUP1 SWAP2 SUB SWAP1 RETURN JUMPDEST PUSH2 0x15D PUSH1 0x4 DUP1 CALLDATASIZE SUB DUP2 ADD SWAP1 PUSH2 0x158 SWAP2 SWAP1 PUSH2 0xB37 JUMP JUMPDEST PUSH2 0x7CB JUMP JUMPDEST STOP JUMPDEST PUSH0 PUSH0 PUSH2 0x16A DUP4 PUSH2 0x865 JUMP JUMPDEST SWAP1 POP PUSH2 0x270F DUP2 SUB PUSH2 0x17E JUMPI PUSH0 SWAP2 POP POP PUSH2 0x2DA JUMP JUMPDEST PUSH2 0x270F DUP2 SUB PUSH2 0x1C2 JUMPI PUSH1 0x40 MLOAD PUSH32 0x8C379A000000000000000000000000000000000000000000000000000000000 DUP2 MSTORE PUSH1 0x4 ADD PUSH2 0x1B9 SWAP1 PUSH2 0xFCE JUMP JUMPDEST PUSH1 0x40 MLOAD DUP1 SWAP2 SUB SWAP1 REVERT JUMPDEST PUSH1 0x1 DUP2 DUP2 SLOAD DUP2 LT PUSH2 0x1D6 JUMPI PUSH2 0x1D5 PUSH2 0xFEC JUMP JUMPDEST JUMPDEST SWAP1 PUSH0 MSTORE PUSH1 0x20 PUSH0 KECCAK256 SWAP1 PUSH1 0x6 MUL ADD PUSH1 0x5 ADD PUSH0 SWAP1 SLOAD SWAP1 PUSH2 0x100 EXP SWAP1 DIV PUSH1 0xFF AND ISZERO PUSH2 0x201 JUMPI PUSH1 0x1 SWAP2 POP POP PUSH2 0x2DA JUMP JUMPDEST PUSH1 0x1 DUP2 DUP2 SLOAD DUP2 LT PUSH2 0x215 JUMPI PUSH2 0x214 PUSH2 0xFEC JUMP JUMPDEST JUMPDEST SWAP1 PUSH0 MSTORE PUSH1 0x20 PUSH0 KECCAK256 SWAP1 PUSH1 0x6 MUL ADD PUSH1 0x4 ADD SLOAD TIMESTAMP LT ISZERO PUSH2 0x267 JUMPI PUSH1 0x40 MLOAD PUSH32 0x8C379A000000000000000000000000000000000000000000000000000000000 DUP2 MSTORE PUSH1 0x4 ADD PUSH2 0x25E SWAP1 PUSH2 0x1063 JUMP JUMPDEST PUSH1 0x40 MLOAD DUP1 SWAP2 SUB SWAP1 REVERT JUMPDEST PUSH1 0x1 DUP2 DUP2 SLOAD DUP2 LT PUSH2 0x27B JUMPI PUSH2 0x27A PUSH2 0xFEC JUMP JUMPDEST JUMPDEST SWAP1 PUSH0 MSTORE PUSH1 0x20 PUSH0 KECCAK256 SWAP1 PUSH1 0x6 MUL ADD PUSH1 0x4 ADD SLOAD TIMESTAMP LT PUSH2 0x2D5 JUMPI PUSH1 0x1 DUP1 DUP3 DUP2 SLOAD DUP2 LT PUSH2 0x2A6 JUMPI PUSH2 0x2A5 PUSH2 0xFEC JUMP JUMPDEST JUMPDEST SWAP1 PUSH0 MSTORE PUSH1 0x20 PUSH0 KECCAK256 SWAP1 PUSH1 0x6 MUL ADD PUSH1 0x5 ADD PUSH0 PUSH2 0x100 EXP DUP2 SLOAD DUP2 PUSH1 0xFF MUL NOT AND SWAP1 DUP4 ISZERO ISZERO MUL OR SWAP1 SSTORE POP PUSH1 0x1 SWAP2 POP POP PUSH2 0x2DA JUMP JUMPDEST PUSH0 SWAP2 POP POP JUMPDEST SWAP2 SWAP1 POP JUMP JUMPDEST PUSH0 PUSH0 SWAP1 SLOAD SWAP1 PUSH2 0x100 EXP SWAP1 DIV PUSH20 0xFFFFFFFFFFFFFFFFFFFFFFFFFFFFFFFFFFFFFFFF AND PUSH20 0xFFFFFFFFFFFFFFFFFFFFFFFFFFFFFFFFFFFFFFFF AND CALLER PUSH20 0xFFFFFFFFFFFFFFFFFFFFFFFFFFFFFFFFFFFFFFFF AND EQ PUSH2 0x36D JUMPI PUSH1 0x40 MLOAD PUSH32 0x8C379A000000000000000000000000000000000000000000000000000000000 DUP2 MSTORE PUSH1 0x4 ADD PUSH2 0x364 SWAP1 PUSH2 0x10CB JUMP JUMPDEST PUSH1 0x40 MLOAD DUP1 SWAP2 SUB SWAP1 REVERT JUMPDEST PUSH1 0x1 PUSH1 0x40 MLOAD DUP1 PUSH1 0xC0 ADD PUSH1 0x40 MSTORE DUP1 DUP9 PUSH20 0xFFFFFFFFFFFFFFFFFFFFFFFFFFFFFFFFFFFFFFFF AND DUP2 MSTORE PUSH1 0x20 ADD DUP8 DUP2 MSTORE PUSH1 0x20 ADD DUP7 DUP2 MSTORE PUSH1 0x20 ADD DUP6 DUP2 MSTORE PUSH1 0x20 ADD DUP5 DUP2 MSTORE PUSH1 0x20 ADD DUP4 ISZERO ISZERO DUP2 MSTORE POP SWAP1 DUP1 PUSH1 0x1 DUP2 SLOAD ADD DUP1 DUP3 SSTORE DUP1 SWAP2 POP POP PUSH1 0x1 SWAP1 SUB SWAP1 PUSH0 MSTORE PUSH1 0x20 PUSH0 KECCAK256 SWAP1 PUSH1 0x6 MUL ADD PUSH0 SWAP1 SWAP2 SWAP1 SWAP2 SWAP1 SWAP2 POP PUSH0 DUP3 ADD MLOAD DUP2 PUSH0 ADD PUSH0 PUSH2 0x100 EXP DUP2 SLOAD DUP2 PUSH20 0xFFFFFFFFFFFFFFFFFFFFFFFFFFFFFFFFFFFFFFFF MUL NOT AND SWAP1 DUP4 PUSH20 0xFFFFFFFFFFFFFFFFFFFFFFFFFFFFFFFFFFFFFFFF AND MUL OR SWAP1 SSTORE POP PUSH1 0x20 DUP3 ADD MLOAD DUP2 PUSH1 0x1 ADD SSTORE PUSH1 0x40 DUP3 ADD MLOAD DUP2 PUSH1 0x2 ADD SWAP1 DUP2 PUSH2 0x43D SWAP2 SWAP1 PUSH2 0x12E6 JUMP JUMPDEST POP PUSH1 0x60 DUP3 ADD MLOAD DUP2 PUSH1 0x3 ADD SWAP1 DUP2 PUSH2 0x453 SWAP2 SWAP1 PUSH2 0x12E6 JUMP JUMPDEST POP PUSH1 0x80 DUP3 ADD MLOAD DUP2 PUSH1 0x4 ADD SSTORE PUSH1 0xA0 DUP3 ADD MLOAD DUP2 PUSH1 0x5 ADD PUSH0 PUSH2 0x100 EXP DUP2 SLOAD DUP2 PUSH1 0xFF MUL NOT AND SWAP1 DUP4 ISZERO ISZERO MUL OR SWAP1 SSTORE POP POP POP POP POP POP POP POP POP JUMP JUMPDEST PUSH0 PUSH2 0x491 DUP3 PUSH2 0x865 JUMP JUMPDEST SWAP1 POP PUSH2 0x270F DUP2 SUB PUSH2 0x4A2 JUMPI POP PUSH2 0x643 JUMP JUMPDEST CALLER PUSH20 0xFFFFFFFFFFFFFFFFFFFFFFFFFFFFFFFFFFFFFFFF AND PUSH1 0x1 DUP3 DUP2 SLOAD DUP2 LT PUSH2 0x4CD JUMPI PUSH2 0x4CC PUSH2 0xFEC JUMP JUMPDEST JUMPDEST SWAP1 PUSH0 MSTORE PUSH1 0x20 PUSH0 KECCAK256 SWAP1 PUSH1 0x6 MUL ADD PUSH0 ADD PUSH0 SWAP1 SLOAD SWAP1 PUSH2 0x100 EXP SWAP1 DIV PUSH20 0xFFFFFFFFFFFFFFFFFFFFFFFFFFFFFFFFFFFFFFFF AND PUSH20 0xFFFFFFFFFFFFFFFFFFFFFFFFFFFFFFFFFFFFFFFF AND EQ PUSH2 0x551 JUMPI PUSH1 0x40 MLOAD PUSH32 0x8C379A000000000000000000000000000000000000000000000000000000000 DUP2 MSTORE PUSH1 0x4 ADD PUSH2 0x548 SWAP1 PUSH2 0x13FF JUMP JUMPDEST PUSH1 0x40 MLOAD DUP1 SWAP2 SUB SWAP1 REVERT JUMPDEST PUSH2 0x55A DUP3 PUSH2 0x15F JUMP JUMPDEST PUSH2 0x599 JUMPI PUSH1 0x40 MLOAD PUSH32 0x8C379A000000000000000000000000000000000000000000000000000000000 DUP2 MSTORE PUSH1 0x4 ADD PUSH2 0x590 SWAP1 PUSH2 0x1467 JUMP JUMPDEST PUSH1 0x40 MLOAD DUP1 SWAP2 SUB SWAP1 REVERT JUMPDEST PUSH1 0x1 DUP2 DUP2 SLOAD DUP2 LT PUSH2 0x5AD JUMPI PUSH2 0x5AC PUSH2 0xFEC JUMP JUMPDEST JUMPDEST SWAP1 PUSH0 MSTORE PUSH1 0x20 PUSH0 KECCAK256 SWAP1 PUSH1 0x6 MUL ADD PUSH0 ADD PUSH0 SWAP1 SLOAD SWAP1 PUSH2 0x100 EXP SWAP1 DIV PUSH20 0xFFFFFFFFFFFFFFFFFFFFFFFFFFFFFFFFFFFFFFFF AND PUSH20 0xFFFFFFFFFFFFFFFFFFFFFFFFFFFFFFFFFFFFFFFF AND PUSH2 0x8FC PUSH1 0x1 DUP4 DUP2 SLOAD DUP2 LT PUSH2 0x608 JUMPI PUSH2 0x607 PUSH2 0xFEC JUMP JUMPDEST JUMPDEST SWAP1 PUSH0 MSTORE PUSH1 0x20 PUSH0 KECCAK256 SWAP1 PUSH1 0x6 MUL ADD PUSH1 0x1 ADD SLOAD SWAP1 DUP2 ISZERO MUL SWAP1 PUSH1 0x40 MLOAD PUSH0 PUSH1 0x40 MLOAD DUP1 DUP4 SUB DUP2 DUP6 DUP9 DUP9 CALL SWAP4 POP POP POP POP ISZERO DUP1 ISZERO PUSH2 0x640 JUMPI RETURNDATASIZE PUSH0 PUSH0 RETURNDATACOPY RETURNDATASIZE PUSH0 REVERT JUMPDEST POP POP JUMPDEST POP JUMP JUMPDEST PUSH1 0x1 DUP2 DUP2 SLOAD DUP2 LT PUSH2 0x655 JUMPI PUSH0 DUP1 REVERT JUMPDEST SWAP1 PUSH0 MSTORE PUSH1 0x20 PUSH0 KECCAK256 SWAP1 PUSH1 0x6 MUL ADD PUSH0 SWAP2 POP SWAP1 POP DUP1 PUSH0 ADD PUSH0 SWAP1 SLOAD SWAP1 PUSH2 0x100 EXP SWAP1 DIV PUSH20 0xFFFFFFFFFFFFFFFFFFFFFFFFFFFFFFFFFFFFFFFF AND SWAP1 DUP1 PUSH1 0x1 ADD SLOAD SWAP1 DUP1 PUSH1 0x2 ADD DUP1 SLOAD PUSH2 0x69F SWAP1 PUSH2 0x1116 JUMP JUMPDEST DUP1 PUSH1 0x1F ADD PUSH1 0x20 DUP1 SWAP2 DIV MUL PUSH1 0x20 ADD PUSH1 0x40 MLOAD SWAP1 DUP2 ADD PUSH1 0x40 MSTORE DUP1 SWAP3 SWAP2 SWAP1 DUP2 DUP2 MSTORE PUSH1 0x20 ADD DUP3 DUP1 SLOAD PUSH2 0x6CB SWAP1 PUSH2 0x1116 JUMP JUMPDEST DUP1 ISZERO PUSH2 0x716 JUMPI DUP1 PUSH1 0x1F LT PUSH2 0x6ED JUMPI PUSH2 0x100 DUP1 DUP4 SLOAD DIV MUL DUP4 MSTORE SWAP2 PUSH1 0x20 ADD SWAP2 PUSH2 0x716 JUMP JUMPDEST DUP3 ADD SWAP2 SWAP1 PUSH0 MSTORE PUSH1 0x20 PUSH0 KECCAK256 SWAP1 JUMPDEST DUP2 SLOAD DUP2 MSTORE SWAP1 PUSH1 0x1 ADD SWAP1 PUSH1 0x20 ADD DUP1 DUP4 GT PUSH2 0x6F9 JUMPI DUP3 SWAP1 SUB PUSH1 0x1F AND DUP3 ADD SWAP2 JUMPDEST POP POP POP POP POP SWAP1 DUP1 PUSH1 0x3 ADD DUP1 SLOAD PUSH2 0x72B SWAP1 PUSH2 0x1116 JUMP JUMPDEST DUP1 PUSH1 0x1F ADD PUSH1 0x20 DUP1 SWAP2 DIV MUL PUSH1 0x20 ADD PUSH1 0x40 MLOAD SWAP1 DUP2 ADD PUSH1 0x40 MSTORE DUP1 SWAP3 SWAP2 SWAP1 DUP2 DUP2 MSTORE PUSH1 0x20 ADD DUP3 DUP1 SLOAD PUSH2 0x757 SWAP1 PUSH2 0x1116 JUMP JUMPDEST DUP1 ISZERO PUSH2 0x7A2 JUMPI DUP1 PUSH1 0x1F LT PUSH2 0x779 JUMPI PUSH2 0x100 DUP1 DUP4 SLOAD DIV MUL DUP4 MSTORE SWAP2 PUSH1 0x20 ADD SWAP2 PUSH2 0x7A2 JUMP JUMPDEST DUP3 ADD SWAP2 SWAP1 PUSH0 MSTORE PUSH1 0x20 PUSH0 KECCAK256 SWAP1 JUMPDEST DUP2 SLOAD DUP2 MSTORE SWAP1 PUSH1 0x1 ADD SWAP1 PUSH1 0x20 ADD DUP1 DUP4 GT PUSH2 0x785 JUMPI DUP3 SWAP1 SUB PUSH1 0x1F AND DUP3 ADD SWAP2 JUMPDEST POP POP POP POP POP SWAP1 DUP1 PUSH1 0x4 ADD SLOAD SWAP1 DUP1 PUSH1 0x5 ADD PUSH0 SWAP1 SLOAD SWAP1 PUSH2 0x100 EXP SWAP1 DIV PUSH1 0xFF AND SWAP1 POP DUP7 JUMP JUMPDEST PUSH0 SELFBALANCE SWAP1 POP SWAP1 JUMP JUMPDEST PUSH0 PUSH0 SWAP1 SLOAD SWAP1 PUSH2 0x100 EXP SWAP1 DIV PUSH20 0xFFFFFFFFFFFFFFFFFFFFFFFFFFFFFFFFFFFFFFFF AND PUSH20 0xFFFFFFFFFFFFFFFFFFFFFFFFFFFFFFFFFFFFFFFF AND CALLER PUSH20 0xFFFFFFFFFFFFFFFFFFFFFFFFFFFFFFFFFFFFFFFF AND EQ PUSH2 0x859 JUMPI PUSH1 0x40 MLOAD PUSH32 0x8C379A000000000000000000000000000000000000000000000000000000000 DUP2 MSTORE PUSH1 0x4 ADD PUSH2 0x850 SWAP1 PUSH2 0x10CB JUMP JUMPDEST PUSH1 0x40 MLOAD DUP1 SWAP2 SUB SWAP1 REVERT JUMPDEST PUSH2 0x862 DUP2 PUSH2 0x90E JUMP JUMPDEST POP JUMP JUMPDEST PUSH0 PUSH0 PUSH0 SWAP1 POP JUMPDEST PUSH1 0x1 DUP1 SLOAD SWAP1 POP DUP2 LT ISZERO PUSH2 0x902 JUMPI DUP3 PUSH20 0xFFFFFFFFFFFFFFFFFFFFFFFFFFFFFFFFFFFFFFFF AND PUSH1 0x1 DUP3 DUP2 SLOAD DUP2 LT PUSH2 0x8A3 JUMPI PUSH2 0x8A2 PUSH2 0xFEC JUMP JUMPDEST JUMPDEST SWAP1 PUSH0 MSTORE PUSH1 0x20 PUSH0 KECCAK256 SWAP1 PUSH1 0x6 MUL ADD PUSH0 ADD PUSH0 SWAP1 SLOAD SWAP1 PUSH2 0x100 EXP SWAP1 DIV PUSH20 0xFFFFFFFFFFFFFFFFFFFFFFFFFFFFFFFFFFFFFFFF AND PUSH20 0xFFFFFFFFFFFFFFFFFFFFFFFFFFFFFFFFFFFFFFFF AND SUB PUSH2 0x8F5 JUMPI DUP1 SWAP2 POP POP PUSH2 0x909 JUMP JUMPDEST DUP1 DUP1 PUSH1 0x1 ADD SWAP2 POP POP PUSH2 0x86B JUMP JUMPDEST POP PUSH2 0x270F SWAP1 POP JUMPDEST SWAP2 SWAP1 POP JUMP JUMPDEST PUSH0 PUSH0 SWAP1 SLOAD SWAP1 PUSH2 0x100 EXP SWAP1 DIV PUSH20 0xFFFFFFFFFFFFFFFFFFFFFFFFFFFFFFFFFFFFFFFF AND PUSH20 0xFFFFFFFFFFFFFFFFFFFFFFFFFFFFFFFFFFFFFFFF AND CALLER PUSH20 0xFFFFFFFFFFFFFFFFFFFFFFFFFFFFFFFFFFFFFFFF AND EQ PUSH2 0x99C JUMPI PUSH1 0x40 MLOAD PUSH32 0x8C379A000000000000000000000000000000000000000000000000000000000 DUP2 MSTORE PUSH1 0x4 ADD PUSH2 0x993 SWAP1 PUSH2 0x10CB JUMP JUMPDEST PUSH1 0x40 MLOAD DUP1 SWAP2 SUB SWAP1 REVERT JUMPDEST PUSH0 PUSH0 SWAP1 POP JUMPDEST PUSH1 0x1 DUP1 SLOAD SWAP1 POP DUP2 LT ISZERO PUSH2 0xAC8 JUMPI DUP2 PUSH20 0xFFFFFFFFFFFFFFFFFFFFFFFFFFFFFFFFFFFFFFFF AND PUSH1 0x1 DUP3 DUP2 SLOAD DUP2 LT PUSH2 0x9D9 JUMPI PUSH2 0x9D8 PUSH2 0xFEC JUMP JUMPDEST JUMPDEST SWAP1 PUSH0 MSTORE PUSH1 0x20 PUSH0 KECCAK256 SWAP1 PUSH1 0x6 MUL ADD PUSH0 ADD PUSH0 SWAP1 SLOAD SWAP1 PUSH2 0x100 EXP SWAP1 DIV PUSH20 0xFFFFFFFFFFFFFFFFFFFFFFFFFFFFFFFFFFFFFFFF AND PUSH20 0xFFFFFFFFFFFFFFFFFFFFFFFFFFFFFFFFFFFFFFFF AND SUB PUSH2 0xABB JUMPI CALLVALUE PUSH1 0x1 DUP3 DUP2 SLOAD DUP2 LT PUSH2 0xA37 JUMPI PUSH2 0xA36 PUSH2 0xFEC JUMP JUMPDEST JUMPDEST SWAP1 PUSH0 MSTORE PUSH1 0x20 PUSH0 KECCAK256 SWAP1 PUSH1 0x6 MUL ADD PUSH1 0x1 ADD SLOAD PUSH2 0xA51 SWAP2 SWAP1 PUSH2 0x14B2 JUMP JUMPDEST PUSH1 0x1 DUP3 DUP2 SLOAD DUP2 LT PUSH2 0xA65 JUMPI PUSH2 0xA64 PUSH2 0xFEC JUMP JUMPDEST JUMPDEST SWAP1 PUSH0 MSTORE PUSH1 0x20 PUSH0 KECCAK256 SWAP1 PUSH1 0x6 MUL ADD PUSH1 0x1 ADD DUP2 SWAP1 SSTORE POP PUSH32 0xB6B62BF7C6691DA8355CD23A1DE771AC90134B6CB4E6F984291427E711E4BFB7 DUP3 CALLVALUE PUSH2 0xAA3 PUSH2 0x7C4 JUMP JUMPDEST PUSH1 0x40 MLOAD PUSH2 0xAB2 SWAP4 SWAP3 SWAP2 SWAP1 PUSH2 0x14F4 JUMP JUMPDEST PUSH1 0x40 MLOAD DUP1 SWAP2 SUB SWAP1 LOG1 JUMPDEST DUP1 DUP1 PUSH1 0x1 ADD SWAP2 POP POP PUSH2 0x9A1 JUMP JUMPDEST POP POP JUMP JUMPDEST PUSH0 PUSH1 0x40 MLOAD SWAP1 POP SWAP1 JUMP JUMPDEST PUSH0 PUSH0 REVERT JUMPDEST PUSH0 PUSH0 REVERT JUMPDEST PUSH0 PUSH20 0xFFFFFFFFFFFFFFFFFFFFFFFFFFFFFFFFFFFFFFFF DUP3 AND SWAP1 POP SWAP2 SWAP1 POP JUMP JUMPDEST PUSH0 PUSH2 0xB06 DUP3 PUSH2 0xADD JUMP JUMPDEST SWAP1 POP SWAP2 SWAP1 POP JUMP JUMPDEST PUSH2 0xB16 DUP2 PUSH2 0xAFC JUMP JUMPDEST DUP2 EQ PUSH2 0xB20 JUMPI PUSH0 PUSH0 REVERT JUMPDEST POP JUMP JUMPDEST PUSH0 DUP2 CALLDATALOAD SWAP1 POP PUSH2 0xB31 DUP2 PUSH2 0xB0D JUMP JUMPDEST SWAP3 SWAP2 POP POP JUMP JUMPDEST PUSH0 PUSH1 0x20 DUP3 DUP5 SUB SLT ISZERO PUSH2 0xB4C JUMPI PUSH2 0xB4B PUSH2 0xAD5 JUMP JUMPDEST JUMPDEST PUSH0 PUSH2 0xB59 DUP5 DUP3 DUP6 ADD PUSH2 0xB23 JUMP JUMPDEST SWAP2 POP POP SWAP3 SWAP2 POP POP JUMP JUMPDEST PUSH0 DUP2 ISZERO ISZERO SWAP1 POP SWAP2 SWAP1 POP JUMP JUMPDEST PUSH2 0xB76 DUP2 PUSH2 0xB62 JUMP JUMPDEST DUP3 MSTORE POP POP JUMP JUMPDEST PUSH0 PUSH1 0x20 DUP3 ADD SWAP1 POP PUSH2 0xB8F PUSH0 DUP4 ADD DUP5 PUSH2 0xB6D JUMP JUMPDEST SWAP3 SWAP2 POP POP JUMP JUMPDEST PUSH0 PUSH2 0xB9F DUP3 PUSH2 0xADD JUMP JUMPDEST SWAP1 POP SWAP2 SWAP1 POP JUMP JUMPDEST PUSH2 0xBAF DUP2 PUSH2 0xB95 JUMP JUMPDEST DUP2 EQ PUSH2 0xBB9 JUMPI PUSH0 PUSH0 REVERT JUMPDEST POP JUMP JUMPDEST PUSH0 DUP2 CALLDATALOAD SWAP1 POP PUSH2 0xBCA DUP2 PUSH2 0xBA6 JUMP JUMPDEST SWAP3 SWAP2 POP POP JUMP JUMPDEST PUSH0 DUP2 SWAP1 POP SWAP2 SWAP1 POP JUMP JUMPDEST PUSH2 0xBE2 DUP2 PUSH2 0xBD0 JUMP JUMPDEST DUP2 EQ PUSH2 0xBEC JUMPI PUSH0 PUSH0 REVERT JUMPDEST POP JUMP JUMPDEST PUSH0 DUP2 CALLDATALOAD SWAP1 POP PUSH2 0xBFD DUP2 PUSH2 0xBD9 JUMP JUMPDEST SWAP3 SWAP2 POP POP JUMP JUMPDEST PUSH0 PUSH0 REVERT JUMPDEST PUSH0 PUSH0 REVERT JUMPDEST PUSH0 PUSH1 0x1F NOT PUSH1 0x1F DUP4 ADD AND SWAP1 POP SWAP2 SWAP1 POP JUMP JUMPDEST PUSH32 0x4E487B7100000000000000000000000000000000000000000000000000000000 PUSH0 MSTORE PUSH1 0x41 PUSH1 0x4 MSTORE PUSH1 0x24 PUSH0 REVERT JUMPDEST PUSH2 0xC51 DUP3 PUSH2 0xC0B JUMP JUMPDEST DUP2 ADD DUP2 DUP2 LT PUSH8 0xFFFFFFFFFFFFFFFF DUP3 GT OR ISZERO PUSH2 0xC70 JUMPI PUSH2 0xC6F PUSH2 0xC1B JUMP JUMPDEST JUMPDEST DUP1 PUSH1 0x40 MSTORE POP POP POP JUMP JUMPDEST PUSH0 PUSH2 0xC82 PUSH2 0xACC JUMP JUMPDEST SWAP1 POP PUSH2 0xC8E DUP3 DUP3 PUSH2 0xC48 JUMP JUMPDEST SWAP2 SWAP1 POP JUMP JUMPDEST PUSH0 PUSH8 0xFFFFFFFFFFFFFFFF DUP3 GT ISZERO PUSH2 0xCAD JUMPI PUSH2 0xCAC PUSH2 0xC1B JUMP JUMPDEST JUMPDEST PUSH2 0xCB6 DUP3 PUSH2 0xC0B JUMP JUMPDEST SWAP1 POP PUSH1 0x20 DUP2 ADD SWAP1 POP SWAP2 SWAP1 POP JUMP JUMPDEST DUP3 DUP2 DUP4 CALLDATACOPY PUSH0 DUP4 DUP4 ADD MSTORE POP POP POP JUMP JUMPDEST PUSH0 PUSH2 0xCE3 PUSH2 0xCDE DUP5 PUSH2 0xC93 JUMP JUMPDEST PUSH2 0xC79 JUMP JUMPDEST SWAP1 POP DUP3 DUP2 MSTORE PUSH1 0x20 DUP2 ADD DUP5 DUP5 DUP5 ADD GT ISZERO PUSH2 0xCFF JUMPI PUSH2 0xCFE PUSH2 0xC07 JUMP JUMPDEST JUMPDEST PUSH2 0xD0A DUP5 DUP3 DUP6 PUSH2 0xCC3 JUMP JUMPDEST POP SWAP4 SWAP3 POP POP POP JUMP JUMPDEST PUSH0 DUP3 PUSH1 0x1F DUP4 ADD SLT PUSH2 0xD26 JUMPI PUSH2 0xD25 PUSH2 0xC03 JUMP JUMPDEST JUMPDEST DUP2 CALLDATALOAD PUSH2 0xD36 DUP5 DUP3 PUSH1 0x20 DUP7 ADD PUSH2 0xCD1 JUMP JUMPDEST SWAP2 POP POP SWAP3 SWAP2 POP POP JUMP JUMPDEST PUSH2 0xD48 DUP2 PUSH2 0xB62 JUMP JUMPDEST DUP2 EQ PUSH2 0xD52 JUMPI PUSH0 PUSH0 REVERT JUMPDEST POP JUMP JUMPDEST PUSH0 DUP2 CALLDATALOAD SWAP1 POP PUSH2 0xD63 DUP2 PUSH2 0xD3F JUMP JUMPDEST SWAP3 SWAP2 POP POP JUMP JUMPDEST PUSH0 PUSH0 PUSH0 PUSH0 PUSH0 PUSH0 PUSH1 0xC0 DUP8 DUP10 SUB SLT ISZERO PUSH2 0xD83 JUMPI PUSH2 0xD82 PUSH2 0xAD5 JUMP JUMPDEST JUMPDEST PUSH0 PUSH2 0xD90 DUP10 DUP3 DUP11 ADD PUSH2 0xBBC JUMP JUMPDEST SWAP7 POP POP PUSH1 0x20 PUSH2 0xDA1 DUP10 DUP3 DUP11 ADD PUSH2 0xBEF JUMP JUMPDEST SWAP6 POP POP PUSH1 0x40 DUP8 ADD CALLDATALOAD PUSH8 0xFFFFFFFFFFFFFFFF DUP2 GT ISZERO PUSH2 0xDC2 JUMPI PUSH2 0xDC1 PUSH2 0xAD9 JUMP JUMPDEST JUMPDEST PUSH2 0xDCE DUP10 DUP3 DUP11 ADD PUSH2 0xD12 JUMP JUMPDEST SWAP5 POP POP PUSH1 0x60 DUP8 ADD CALLDATALOAD PUSH8 0xFFFFFFFFFFFFFFFF DUP2 GT ISZERO PUSH2 0xDEF JUMPI PUSH2 0xDEE PUSH2 0xAD9 JUMP JUMPDEST JUMPDEST PUSH2 0xDFB DUP10 DUP3 DUP11 ADD PUSH2 0xD12 JUMP JUMPDEST SWAP4 POP POP PUSH1 0x80 PUSH2 0xE0C DUP10 DUP3 DUP11 ADD PUSH2 0xBEF JUMP JUMPDEST SWAP3 POP POP PUSH1 0xA0 PUSH2 0xE1D DUP10 DUP3 DUP11 ADD PUSH2 0xD55 JUMP JUMPDEST SWAP2 POP POP SWAP3 SWAP6 POP SWAP3 SWAP6 POP SWAP3 SWAP6 JUMP JUMPDEST PUSH0 PUSH1 0x20 DUP3 DUP5 SUB SLT ISZERO PUSH2 0xE3F JUMPI PUSH2 0xE3E PUSH2 0xAD5 JUMP JUMPDEST JUMPDEST PUSH0 PUSH2 0xE4C DUP5 DUP3 DUP6 ADD PUSH2 0xBBC JUMP JUMPDEST SWAP2 POP POP SWAP3 SWAP2 POP POP JUMP JUMPDEST PUSH0 PUSH1 0x20 DUP3 DUP5 SUB SLT ISZERO PUSH2 0xE6A JUMPI PUSH2 0xE69 PUSH2 0xAD5 JUMP JUMPDEST JUMPDEST PUSH0 PUSH2 0xE77 DUP5 DUP3 DUP6 ADD PUSH2 0xBEF JUMP JUMPDEST SWAP2 POP POP SWAP3 SWAP2 POP POP JUMP JUMPDEST PUSH2 0xE89 DUP2 PUSH2 0xB95 JUMP JUMPDEST DUP3 MSTORE POP POP JUMP JUMPDEST PUSH2 0xE98 DUP2 PUSH2 0xBD0 JUMP JUMPDEST DUP3 MSTORE POP POP JUMP JUMPDEST PUSH0 DUP2 MLOAD SWAP1 POP SWAP2 SWAP1 POP JUMP JUMPDEST PUSH0 DUP3 DUP3 MSTORE PUSH1 0x20 DUP3 ADD SWAP1 POP SWAP3 SWAP2 POP POP JUMP JUMPDEST DUP3 DUP2 DUP4 MCOPY PUSH0 DUP4 DUP4 ADD MSTORE POP POP POP JUMP JUMPDEST PUSH0 PUSH2 0xED0 DUP3 PUSH2 0xE9E JUMP JUMPDEST PUSH2 0xEDA DUP2 DUP6 PUSH2 0xEA8 JUMP JUMPDEST SWAP4 POP PUSH2 0xEEA DUP2 DUP6 PUSH1 0x20 DUP7 ADD PUSH2 0xEB8 JUMP JUMPDEST PUSH2 0xEF3 DUP2 PUSH2 0xC0B JUMP JUMPDEST DUP5 ADD SWAP2 POP POP SWAP3 SWAP2 POP POP JUMP JUMPDEST PUSH0 PUSH1 0xC0 DUP3 ADD SWAP1 POP PUSH2 0xF11 PUSH0 DUP4 ADD DUP10 PUSH2 0xE80 JUMP JUMPDEST PUSH2 0xF1E PUSH1 0x20 DUP4 ADD DUP9 PUSH2 0xE8F JUMP JUMPDEST DUP2 DUP2 SUB PUSH1 0x40 DUP4 ADD MSTORE PUSH2 0xF30 DUP2 DUP8 PUSH2 0xEC6 JUMP JUMPDEST SWAP1 POP DUP2 DUP2 SUB PUSH1 0x60 DUP4 ADD MSTORE PUSH2 0xF44 DUP2 DUP7 PUSH2 0xEC6 JUMP JUMPDEST SWAP1 POP PUSH2 0xF53 PUSH1 0x80 DUP4 ADD DUP6 PUSH2 0xE8F JUMP JUMPDEST PUSH2 0xF60 PUSH1 0xA0 DUP4 ADD DUP5 PUSH2 0xB6D JUMP JUMPDEST SWAP8 SWAP7 POP POP POP POP POP POP POP JUMP JUMPDEST PUSH0 PUSH1 0x20 DUP3 ADD SWAP1 POP PUSH2 0xF7E PUSH0 DUP4 ADD DUP5 PUSH2 0xE8F JUMP JUMPDEST SWAP3 SWAP2 POP POP JUMP JUMPDEST PUSH32 0x57726F6E67206368696C64206E6F7420696E20626C6F636B0000000000000000 PUSH0 DUP3 ADD MSTORE POP JUMP JUMPDEST PUSH0 PUSH2 0xFB8 PUSH1 0x18 DUP4 PUSH2 0xEA8 JUMP JUMPDEST SWAP2 POP PUSH2 0xFC3 DUP3 PUSH2 0xF84 JUMP JUMPDEST PUSH1 0x20 DUP3 ADD SWAP1 POP SWAP2 SWAP1 POP JUMP JUMPDEST PUSH0 PUSH1 0x20 DUP3 ADD SWAP1 POP DUP2 DUP2 SUB PUSH0 DUP4 ADD MSTORE PUSH2 0xFE5 DUP2 PUSH2 0xFAC JUMP JUMPDEST SWAP1 POP SWAP2 SWAP1 POP JUMP JUMPDEST PUSH32 0x4E487B7100000000000000000000000000000000000000000000000000000000 PUSH0 MSTORE PUSH1 0x32 PUSH1 0x4 MSTORE PUSH1 0x24 PUSH0 REVERT JUMPDEST PUSH32 0x796F752063616E74207769746864726177207965740000000000000000000000 PUSH0 DUP3 ADD MSTORE POP JUMP JUMPDEST PUSH0 PUSH2 0x104D PUSH1 0x15 DUP4 PUSH2 0xEA8 JUMP JUMPDEST SWAP2 POP PUSH2 0x1058 DUP3 PUSH2 0x1019 JUMP JUMPDEST PUSH1 0x20 DUP3 ADD SWAP1 POP SWAP2 SWAP1 POP JUMP JUMPDEST PUSH0 PUSH1 0x20 DUP3 ADD SWAP1 POP DUP2 DUP2 SUB PUSH0 DUP4 ADD MSTORE PUSH2 0x107A DUP2 PUSH2 0x1041 JUMP JUMPDEST SWAP1 POP SWAP2 SWAP1 POP JUMP JUMPDEST PUSH32 0x796F75206172656E6F7420616C6C6F7765640000000000000000000000000000 PUSH0 DUP3 ADD MSTORE POP JUMP JUMPDEST PUSH0 PUSH2 0x10B5 PUSH1 0x12 DUP4 PUSH2 0xEA8 JUMP JUMPDEST SWAP2 POP PUSH2 0x10C0 DUP3 PUSH2 0x1081 JUMP JUMPDEST PUSH1 0x20 DUP3 ADD SWAP1 POP SWAP2 SWAP1 POP JUMP JUMPDEST PUSH0 PUSH1 0x20 DUP3 ADD SWAP1 POP DUP2 DUP2 SUB PUSH0 DUP4 ADD MSTORE PUSH2 0x10E2 DUP2 PUSH2 0x10A9 JUMP JUMPDEST SWAP1 POP SWAP2 SWAP1 POP JUMP JUMPDEST PUSH32 0x4E487B7100000000000000000000000000000000000000000000000000000000 PUSH0 MSTORE PUSH1 0x22 PUSH1 0x4 MSTORE PUSH1 0x24 PUSH0 REVERT JUMPDEST PUSH0 PUSH1 0x2 DUP3 DIV SWAP1 POP PUSH1 0x1 DUP3 AND DUP1 PUSH2 0x112D JUMPI PUSH1 0x7F DUP3 AND SWAP2 POP JUMPDEST PUSH1 0x20 DUP3 LT DUP2 SUB PUSH2 0x1140 JUMPI PUSH2 0x113F PUSH2 0x10E9 JUMP JUMPDEST JUMPDEST POP SWAP2 SWAP1 POP JUMP JUMPDEST PUSH0 DUP2 SWAP1 POP DUP2 PUSH0 MSTORE PUSH1 0x20 PUSH0 KECCAK256 SWAP1 POP SWAP2 SWAP1 POP JUMP JUMPDEST PUSH0 PUSH1 0x20 PUSH1 0x1F DUP4 ADD DIV SWAP1 POP SWAP2 SWAP1 POP JUMP JUMPDEST PUSH0 DUP3 DUP3 SHL SWAP1 POP SWAP3 SWAP2 POP POP JUMP JUMPDEST PUSH0 PUSH1 0x8 DUP4 MUL PUSH2 0x11A2 PUSH32 0xFFFFFFFFFFFFFFFFFFFFFFFFFFFFFFFFFFFFFFFFFFFFFFFFFFFFFFFFFFFFFFFF DUP3 PUSH2 0x1167 JUMP JUMPDEST PUSH2 0x11AC DUP7 DUP4 PUSH2 0x1167 JUMP JUMPDEST SWAP6 POP DUP1 NOT DUP5 AND SWAP4 POP DUP1 DUP7 AND DUP5 OR SWAP3 POP POP POP SWAP4 SWAP3 POP POP POP JUMP JUMPDEST PUSH0 DUP2 SWAP1 POP SWAP2 SWAP1 POP JUMP JUMPDEST PUSH0 PUSH2 0x11E7 PUSH2 0x11E2 PUSH2 0x11DD DUP5 PUSH2 0xBD0 JUMP JUMPDEST PUSH2 0x11C4 JUMP JUMPDEST PUSH2 0xBD0 JUMP JUMPDEST SWAP1 POP SWAP2 SWAP1 POP JUMP JUMPDEST PUSH0 DUP2 SWAP1 POP SWAP2 SWAP1 POP JUMP JUMPDEST PUSH2 0x1200 DUP4 PUSH2 0x11CD JUMP JUMPDEST PUSH2 0x1214 PUSH2 0x120C DUP3 PUSH2 0x11EE JUMP JUMPDEST DUP5 DUP5 SLOAD PUSH2 0x1173 JUMP JUMPDEST DUP3 SSTORE POP POP POP POP JUMP JUMPDEST PUSH0 PUSH0 SWAP1 POP SWAP1 JUMP JUMPDEST PUSH2 0x122B PUSH2 0x121C JUMP JUMPDEST PUSH2 0x1236 DUP2 DUP5 DUP5 PUSH2 0x11F7 JUMP JUMPDEST POP POP POP JUMP JUMPDEST JUMPDEST DUP2 DUP2 LT ISZERO PUSH2 0x1259 JUMPI PUSH2 0x124E PUSH0 DUP3 PUSH2 0x1223 JUMP JUMPDEST PUSH1 0x1 DUP2 ADD SWAP1 POP PUSH2 0x123C JUMP JUMPDEST POP POP JUMP JUMPDEST PUSH1 0x1F DUP3 GT ISZERO PUSH2 0x129E JUMPI PUSH2 0x126F DUP2 PUSH2 0x1146 JUMP JUMPDEST PUSH2 0x1278 DUP5 PUSH2 0x1158 JUMP JUMPDEST DUP2 ADD PUSH1 0x20 DUP6 LT ISZERO PUSH2 0x1287 JUMPI DUP2 SWAP1 POP JUMPDEST PUSH2 0x129B PUSH2 0x1293 DUP6 PUSH2 0x1158 JUMP JUMPDEST DUP4 ADD DUP3 PUSH2 0x123B JUMP JUMPDEST POP POP JUMPDEST POP POP POP JUMP JUMPDEST PUSH0 DUP3 DUP3 SHR SWAP1 POP SWAP3 SWAP2 POP POP JUMP JUMPDEST PUSH0 PUSH2 0x12BE PUSH0 NOT DUP5 PUSH1 0x8 MUL PUSH2 0x12A3 JUMP JUMPDEST NOT DUP1 DUP4 AND SWAP2 POP POP SWAP3 SWAP2 POP POP JUMP JUMPDEST PUSH0 PUSH2 0x12D6 DUP4 DUP4 PUSH2 0x12AF JUMP JUMPDEST SWAP2 POP DUP3 PUSH1 0x2 MUL DUP3 OR SWAP1 POP SWAP3 SWAP2 POP POP JUMP JUMPDEST PUSH2 0x12EF DUP3 PUSH2 0xE9E JUMP JUMPDEST PUSH8 0xFFFFFFFFFFFFFFFF DUP2 GT ISZERO PUSH2 0x1308 JUMPI PUSH2 0x1307 PUSH2 0xC1B JUMP JUMPDEST JUMPDEST PUSH2 0x1312 DUP3 SLOAD PUSH2 0x1116 JUMP JUMPDEST PUSH2 0x131D DUP3 DUP3 DUP6 PUSH2 0x125D JUMP JUMPDEST PUSH0 PUSH1 0x20 SWAP1 POP PUSH1 0x1F DUP4 GT PUSH1 0x1 DUP2 EQ PUSH2 0x134E JUMPI PUSH0 DUP5 ISZERO PUSH2 0x133C JUMPI DUP3 DUP8 ADD MLOAD SWAP1 POP JUMPDEST PUSH2 0x1346 DUP6 DUP3 PUSH2 0x12CB JUMP JUMPDEST DUP7 SSTORE POP PUSH2 0x13AD JUMP JUMPDEST PUSH1 0x1F NOT DUP5 AND PUSH2 0x135C DUP7 PUSH2 0x1146 JUMP JUMPDEST PUSH0 JUMPDEST DUP3 DUP2 LT ISZERO PUSH2 0x1383 JUMPI DUP5 DUP10 ADD MLOAD DUP3 SSTORE PUSH1 0x1 DUP3 ADD SWAP2 POP PUSH1 0x20 DUP6 ADD SWAP5 POP PUSH1 0x20 DUP2 ADD SWAP1 POP PUSH2 0x135E JUMP JUMPDEST DUP7 DUP4 LT ISZERO PUSH2 0x13A0 JUMPI DUP5 DUP10 ADD MLOAD PUSH2 0x139C PUSH1 0x1F DUP10 AND DUP3 PUSH2 0x12AF JUMP JUMPDEST DUP4 SSTORE POP JUMPDEST PUSH1 0x1 PUSH1 0x2 DUP9 MUL ADD DUP9 SSTORE POP POP POP JUMPDEST POP POP POP POP POP POP JUMP JUMPDEST PUSH32 0x506F6C69636520697320636F6D696E6700000000000000000000000000000000 PUSH0 DUP3 ADD MSTORE POP JUMP JUMPDEST PUSH0 PUSH2 0x13E9 PUSH1 0x10 DUP4 PUSH2 0xEA8 JUMP JUMPDEST SWAP2 POP PUSH2 0x13F4 DUP3 PUSH2 0x13B5 JUMP JUMPDEST PUSH1 0x20 DUP3 ADD SWAP1 POP SWAP2 SWAP1 POP JUMP JUMPDEST PUSH0 PUSH1 0x20 DUP3 ADD SWAP1 POP DUP2 DUP2 SUB PUSH0 DUP4 ADD MSTORE PUSH2 0x1416 DUP2 PUSH2 0x13DD JUMP JUMPDEST SWAP1 POP SWAP2 SWAP1 POP JUMP JUMPDEST PUSH32 0x596F752063616E74207769746864726177207965740000000000000000000000 PUSH0 DUP3 ADD MSTORE POP JUMP JUMPDEST PUSH0 PUSH2 0x1451 PUSH1 0x15 DUP4 PUSH2 0xEA8 JUMP JUMPDEST SWAP2 POP PUSH2 0x145C DUP3 PUSH2 0x141D JUMP JUMPDEST PUSH1 0x20 DUP3 ADD SWAP1 POP SWAP2 SWAP1 POP JUMP JUMPDEST PUSH0 PUSH1 0x20 DUP3 ADD SWAP1 POP DUP2 DUP2 SUB PUSH0 DUP4 ADD MSTORE PUSH2 0x147E DUP2 PUSH2 0x1445 JUMP JUMPDEST SWAP1 POP SWAP2 SWAP1 POP JUMP JUMPDEST PUSH32 0x4E487B7100000000000000000000000000000000000000000000000000000000 PUSH0 MSTORE PUSH1 0x11 PUSH1 0x4 MSTORE PUSH1 0x24 PUSH0 REVERT JUMPDEST PUSH0 PUSH2 0x14BC DUP3 PUSH2 0xBD0 JUMP JUMPDEST SWAP2 POP PUSH2 0x14C7 DUP4 PUSH2 0xBD0 JUMP JUMPDEST SWAP3 POP DUP3 DUP3 ADD SWAP1 POP DUP1 DUP3 GT ISZERO PUSH2 0x14DF JUMPI PUSH2 0x14DE PUSH2 0x1485 JUMP JUMPDEST JUMPDEST SWAP3 SWAP2 POP POP JUMP JUMPDEST PUSH2 0x14EE DUP2 PUSH2 0xAFC JUMP JUMPDEST DUP3 MSTORE POP POP JUMP JUMPDEST PUSH0 PUSH1 0x60 DUP3 ADD SWAP1 POP PUSH2 0x1507 PUSH0 DUP4 ADD DUP7 PUSH2 0x14E5 JUMP JUMPDEST PUSH2 0x1514 PUSH1 0x20 DUP4 ADD DUP6 PUSH2 0xE8F JUMP JUMPDEST PUSH2 0x1521 PUSH1 0x40 DUP4 ADD DUP5 PUSH2 0xE8F JUMP JUMPDEST SWAP5 SWAP4 POP POP POP POP JUMP INVALID LOG2 PUSH5 0x6970667358 0x22 SLT KECCAK256 CALLVALUE 0xB1 CHAINID 0xB6 BYTE INVALID 0xAD DUP4 PUSH24 0x22F69E6B22F05F44576D77F7FC484BD6833F9DDF787A6864 PUSH20 0x6F6C634300081E00330000000000000000000000 "
				},
				"gasEstimates": {
					"creation": {
						"codeDepositCost": "1094200",
						"executionCost": "25396",
						"totalCost": "1119596"
					},
					"external": {
						"addChild(address,uint256,string,string,uint256,bool)": "infinite",
						"balanceOf()": "400",
						"canWithdraw(address)": "infinite",
						"children(uint256)": "infinite",
						"deposit(address)": "infinite",
						"withdraw(address)": "infinite"
					},
					"internal": {
						"addToChildsBalance(address)": "infinite",
						"getIndex(address)": "infinite"
					}
				},
				"methodIdentifiers": {
					"addChild(address,uint256,string,string,uint256,bool)": "2503aedc",
					"balanceOf()": "722713f7",
					"canWithdraw(address)": "19262d30",
					"children(uint256)": "7002ce42",
					"deposit(address)": "f340fa01",
					"withdraw(address)": "51cff8d9"
				}
			},
			"storageLayout": {
				"storage": [
					{
						"astId": 3,
						"contract": "contracts/first_test.sol:first_test",
						"label": "owner",
						"offset": 0,
						"slot": "0",
						"type": "t_address"
					},
					{
						"astId": 37,
						"contract": "contracts/first_test.sol:first_test",
						"label": "children",
						"offset": 0,
						"slot": "1",
						"type": "t_array(t_struct(child)33_storage)dyn_storage"
					}
				],
				"types": {
					"t_address": {
						"encoding": "inplace",
						"label": "address",
						"numberOfBytes": "20"
					},
					"t_address_payable": {
						"encoding": "inplace",
						"label": "address payable",
						"numberOfBytes": "20"
					},
					"t_array(t_struct(child)33_storage)dyn_storage": {
						"base": "t_struct(child)33_storage",
						"encoding": "dynamic_array",
						"label": "struct first_test.child[]",
						"numberOfBytes": "32"
					},
					"t_bool": {
						"encoding": "inplace",
						"label": "bool",
						"numberOfBytes": "1"
					},
					"t_string_storage": {
						"encoding": "bytes",
						"label": "string",
						"numberOfBytes": "32"
					},
					"t_struct(child)33_storage": {
						"encoding": "inplace",
						"label": "struct first_test.child",
						"members": [
							{
								"astId": 22,
								"contract": "contracts/first_test.sol:first_test",
								"label": "childAddress",
								"offset": 0,
								"slot": "0",
								"type": "t_address_payable"
							},
							{
								"astId": 24,
								"contract": "contracts/first_test.sol:first_test",
								"label": "amount",
								"offset": 0,
								"slot": "1",
								"type": "t_uint256"
							},
							{
								"astId": 26,
								"contract": "contracts/first_test.sol:first_test",
								"label": "firstName",
								"offset": 0,
								"slot": "2",
								"type": "t_string_storage"
							},
							{
								"astId": 28,
								"contract": "contracts/first_test.sol:first_test",
								"label": "lastName",
								"offset": 0,
								"slot": "3",
								"type": "t_string_storage"
							},
							{
								"astId": 30,
								"contract": "contracts/first_test.sol:first_test",
								"label": "releaseDate",
								"offset": 0,
								"slot": "4",
								"type": "t_uint256"
							},
							{
								"astId": 32,
								"contract": "contracts/first_test.sol:first_test",
								"label": "isWithdrawable",
								"offset": 0,
								"slot": "5",
								"type": "t_bool"
							}
						],
						"numberOfBytes": "192"
					},
					"t_uint256": {
						"encoding": "inplace",
						"label": "uint256",
						"numberOfBytes": "32"
					}
				}
			},
			"userdoc": {
				"kind": "user",
				"methods": {},
				"version": 1
			}
		}
	}
}