{
	"contracts/my_contracts/payment_escrow.sol": {
		"Escrow": {
			"abi": [
				{
					"inputs": [],
					"stateMutability": "nonpayable",
					"type": "constructor"
				},
				{
					"anonymous": false,
					"inputs": [
						{
							"indexed": false,
							"internalType": "uint256",
							"name": "id",
							"type": "uint256"
						}
					],
					"name": "EscrowTxnApproved",
					"type": "event"
				},
				{
					"anonymous": false,
					"inputs": [
						{
							"indexed": false,
							"internalType": "uint256",
							"name": "id",
							"type": "uint256"
						},
						{
							"indexed": false,
							"internalType": "address",
							"name": "depositer",
							"type": "address"
						},
						{
							"indexed": false,
							"internalType": "address",
							"name": "recipient",
							"type": "address"
						},
						{
							"indexed": false,
							"internalType": "uint256",
							"name": "amount",
							"type": "uint256"
						},
						{
							"indexed": false,
							"internalType": "string",
							"name": "message",
							"type": "string"
						}
					],
					"name": "EscrowTxnCreated",
					"type": "event"
				},
				{
					"anonymous": false,
					"inputs": [
						{
							"indexed": false,
							"internalType": "uint256",
							"name": "id",
							"type": "uint256"
						}
					],
					"name": "EscrowTxnRejected",
					"type": "event"
				},
				{
					"inputs": [
						{
							"internalType": "address payable",
							"name": "seller",
							"type": "address"
						}
					],
					"name": "deposit",
					"outputs": [
						{
							"internalType": "uint256",
							"name": "",
							"type": "uint256"
						}
					],
					"stateMutability": "payable",
					"type": "function"
				},
				{
					"inputs": [
						{
							"internalType": "uint256",
							"name": "",
							"type": "uint256"
						}
					],
					"name": "escrowTxn",
					"outputs": [
						{
							"internalType": "uint256",
							"name": "id",
							"type": "uint256"
						},
						{
							"internalType": "address payable",
							"name": "depositer",
							"type": "address"
						},
						{
							"internalType": "address payable",
							"name": "recipient",
							"type": "address"
						},
						{
							"internalType": "uint256",
							"name": "blockedAmount",
							"type": "uint256"
						},
						{
							"internalType": "uint256",
							"name": "timeStamp",
							"type": "uint256"
						},
						{
							"internalType": "uint256",
							"name": "completeTimeStamp",
							"type": "uint256"
						},
						{
							"internalType": "enum Escrow.Status",
							"name": "status",
							"type": "uint8"
						}
					],
					"stateMutability": "view",
					"type": "function"
				},
				{
					"inputs": [],
					"name": "escrowTxnCount",
					"outputs": [
						{
							"internalType": "uint256",
							"name": "",
							"type": "uint256"
						}
					],
					"stateMutability": "view",
					"type": "function"
				}
			],
			"devdoc": {
				"kind": "dev",
				"methods": {},
				"version": 1
			},
			"evm": {
				"assembly": "    /* \"contracts/my_contracts/payment_escrow.sol\":65:1784  contract Escrow{... */\n  mstore(0x40, 0x80)\n    /* \"contracts/my_contracts/payment_escrow.sol\":424:482  constructor () {... */\n  callvalue\n  dup1\n  iszero\n  tag_1\n  jumpi\n  revert(0x00, 0x00)\ntag_1:\n  pop\n    /* \"contracts/my_contracts/payment_escrow.sol\":460:470  msg.sender */\n  caller\n    /* \"contracts/my_contracts/payment_escrow.sol\":454:459  owner */\n  0x00\n  0x00\n    /* \"contracts/my_contracts/payment_escrow.sol\":454:470  owner=msg.sender */\n  0x0100\n  exp\n  dup2\n  sload\n  dup2\n  0xffffffffffffffffffffffffffffffffffffffff\n  mul\n  not\n  and\n  swap1\n  dup4\n  0xffffffffffffffffffffffffffffffffffffffff\n  and\n  mul\n  or\n  swap1\n  sstore\n  pop\n    /* \"contracts/my_contracts/payment_escrow.sol\":65:1784  contract Escrow{... */\n  dataSize(sub_0)\n  dup1\n  dataOffset(sub_0)\n  0x00\n  codecopy\n  0x00\n  return\nstop\n\nsub_0: assembly {\n        /* \"contracts/my_contracts/payment_escrow.sol\":65:1784  contract Escrow{... */\n      mstore(0x40, 0x80)\n      jumpi(tag_1, lt(calldatasize, 0x04))\n      shr(0xe0, calldataload(0x00))\n      dup1\n      0xd67f205f\n      eq\n      tag_2\n      jumpi\n      dup1\n      0xf340fa01\n      eq\n      tag_3\n      jumpi\n      dup1\n      0xf62659b3\n      eq\n      tag_4\n      jumpi\n    tag_1:\n      revert(0x00, 0x00)\n        /* \"contracts/my_contracts/payment_escrow.sol\":115:162  mapping (uint256 => EscrowTxn) public escrowTxn */\n    tag_2:\n      callvalue\n      dup1\n      iszero\n      tag_5\n      jumpi\n      revert(0x00, 0x00)\n    tag_5:\n      pop\n      tag_6\n      0x04\n      dup1\n      calldatasize\n      sub\n      dup2\n      add\n      swap1\n      tag_7\n      swap2\n      swap1\n      tag_8\n      jump\t// in\n    tag_7:\n      tag_9\n      jump\t// in\n    tag_6:\n      mload(0x40)\n      tag_10\n      swap8\n      swap7\n      swap6\n      swap5\n      swap4\n      swap3\n      swap2\n      swap1\n      tag_11\n      jump\t// in\n    tag_10:\n      mload(0x40)\n      dup1\n      swap2\n      sub\n      swap1\n      return\n        /* \"contracts/my_contracts/payment_escrow.sol\":1005:1777  function deposit(address payable  seller) public payable returns (uint256)  {... */\n    tag_3:\n      tag_12\n      0x04\n      dup1\n      calldatasize\n      sub\n      dup2\n      add\n      swap1\n      tag_13\n      swap2\n      swap1\n      tag_14\n      jump\t// in\n    tag_13:\n      tag_15\n      jump\t// in\n    tag_12:\n      mload(0x40)\n      tag_16\n      swap2\n      swap1\n      tag_17\n      jump\t// in\n    tag_16:\n      mload(0x40)\n      dup1\n      swap2\n      sub\n      swap1\n      return\n        /* \"contracts/my_contracts/payment_escrow.sol\":173:202  uint256 public escrowTxnCount */\n    tag_4:\n      callvalue\n      dup1\n      iszero\n      tag_18\n      jumpi\n      revert(0x00, 0x00)\n    tag_18:\n      pop\n      tag_19\n      tag_20\n      jump\t// in\n    tag_19:\n      mload(0x40)\n      tag_21\n      swap2\n      swap1\n      tag_17\n      jump\t// in\n    tag_21:\n      mload(0x40)\n      dup1\n      swap2\n      sub\n      swap1\n      return\n        /* \"contracts/my_contracts/payment_escrow.sol\":115:162  mapping (uint256 => EscrowTxn) public escrowTxn */\n    tag_9:\n      mstore(0x20, 0x01)\n      dup1\n      0x00\n      mstore\n      keccak256(0x00, 0x40)\n      0x00\n      swap2\n      pop\n      swap1\n      pop\n      dup1\n      0x00\n      add\n      sload\n      swap1\n      dup1\n      0x01\n      add\n      0x00\n      swap1\n      sload\n      swap1\n      0x0100\n      exp\n      swap1\n      div\n      0xffffffffffffffffffffffffffffffffffffffff\n      and\n      swap1\n      dup1\n      0x02\n      add\n      0x00\n      swap1\n      sload\n      swap1\n      0x0100\n      exp\n      swap1\n      div\n      0xffffffffffffffffffffffffffffffffffffffff\n      and\n      swap1\n      dup1\n      0x03\n      add\n      sload\n      swap1\n      dup1\n      0x04\n      add\n      sload\n      swap1\n      dup1\n      0x05\n      add\n      sload\n      swap1\n      dup1\n      0x06\n      add\n      0x00\n      swap1\n      sload\n      swap1\n      0x0100\n      exp\n      swap1\n      div\n      0xff\n      and\n      swap1\n      pop\n      dup8\n      jump\t// out\n        /* \"contracts/my_contracts/payment_escrow.sol\":1005:1777  function deposit(address payable  seller) public payable returns (uint256)  {... */\n    tag_15:\n        /* \"contracts/my_contracts/payment_escrow.sol\":1071:1078  uint256 */\n      0x00\n        /* \"contracts/my_contracts/payment_escrow.sol\":1114:1115  0 */\n      0x00\n        /* \"contracts/my_contracts/payment_escrow.sol\":1104:1113  msg.value */\n      callvalue\n        /* \"contracts/my_contracts/payment_escrow.sol\":1104:1115  msg.value>0 */\n      gt\n        /* \"contracts/my_contracts/payment_escrow.sol\":1096:1157  require(msg.value>0,\"Invalid amount, must be greater than 0\") */\n      tag_23\n      jumpi\n      mload(0x40)\n      0x08c379a000000000000000000000000000000000000000000000000000000000\n      dup2\n      mstore\n      0x04\n      add\n      tag_24\n      swap1\n      tag_25\n      jump\t// in\n    tag_24:\n      mload(0x40)\n      dup1\n      swap2\n      sub\n      swap1\n      revert\n    tag_23:\n        /* \"contracts/my_contracts/payment_escrow.sol\":1196:1197  0 */\n      0x00\n        /* \"contracts/my_contracts/payment_escrow.sol\":1180:1198  seller!=address(0) */\n      0xffffffffffffffffffffffffffffffffffffffff\n      and\n        /* \"contracts/my_contracts/payment_escrow.sol\":1180:1186  seller */\n      dup3\n        /* \"contracts/my_contracts/payment_escrow.sol\":1180:1198  seller!=address(0) */\n      0xffffffffffffffffffffffffffffffffffffffff\n      and\n      sub\n        /* \"contracts/my_contracts/payment_escrow.sol\":1172:1217  require(seller!=address(0),\"Invalid address\") */\n      tag_26\n      jumpi\n      mload(0x40)\n      0x08c379a000000000000000000000000000000000000000000000000000000000\n      dup2\n      mstore\n      0x04\n      add\n      tag_27\n      swap1\n      tag_28\n      jump\t// in\n    tag_27:\n      mload(0x40)\n      dup1\n      swap2\n      sub\n      swap1\n      revert\n    tag_26:\n        /* \"contracts/my_contracts/payment_escrow.sol\":1232:1242  uint256 id */\n      0x00\n        /* \"contracts/my_contracts/payment_escrow.sol\":1245:1259  escrowTxnCount */\n      0x02\n      0x00\n        /* \"contracts/my_contracts/payment_escrow.sol\":1245:1261  escrowTxnCount++ */\n      dup2\n      sload\n      dup1\n      swap3\n      swap2\n      swap1\n      tag_29\n      swap1\n      tag_30\n      jump\t// in\n    tag_29:\n      swap2\n      swap1\n      pop\n      sstore\n        /* \"contracts/my_contracts/payment_escrow.sol\":1232:1261  uint256 id = escrowTxnCount++ */\n      swap1\n      pop\n        /* \"contracts/my_contracts/payment_escrow.sol\":1276:1301  EscrowTxn storage currEsc */\n      0x00\n        /* \"contracts/my_contracts/payment_escrow.sol\":1302:1311  escrowTxn */\n      0x01\n        /* \"contracts/my_contracts/payment_escrow.sol\":1302:1315  escrowTxn[id] */\n      0x00\n        /* \"contracts/my_contracts/payment_escrow.sol\":1312:1314  id */\n      dup4\n        /* \"contracts/my_contracts/payment_escrow.sol\":1302:1315  escrowTxn[id] */\n      dup2\n      mstore\n      0x20\n      add\n      swap1\n      dup2\n      mstore\n      0x20\n      add\n      0x00\n      keccak256\n        /* \"contracts/my_contracts/payment_escrow.sol\":1276:1315  EscrowTxn storage currEsc=escrowTxn[id] */\n      swap1\n      pop\n        /* \"contracts/my_contracts/payment_escrow.sol\":1343:1345  id */\n      dup2\n        /* \"contracts/my_contracts/payment_escrow.sol\":1330:1337  currEsc */\n      dup2\n        /* \"contracts/my_contracts/payment_escrow.sol\":1330:1340  currEsc.id */\n      0x00\n      add\n        /* \"contracts/my_contracts/payment_escrow.sol\":1330:1345  currEsc.id = id */\n      dup2\n      swap1\n      sstore\n      pop\n        /* \"contracts/my_contracts/payment_escrow.sol\":1389:1399  msg.sender */\n      caller\n        /* \"contracts/my_contracts/payment_escrow.sol\":1360:1367  currEsc */\n      dup2\n        /* \"contracts/my_contracts/payment_escrow.sol\":1360:1377  currEsc.depositer */\n      0x01\n      add\n      0x00\n        /* \"contracts/my_contracts/payment_escrow.sol\":1360:1400  currEsc.depositer = payable (msg.sender) */\n      0x0100\n      exp\n      dup2\n      sload\n      dup2\n      0xffffffffffffffffffffffffffffffffffffffff\n      mul\n      not\n      and\n      swap1\n      dup4\n      0xffffffffffffffffffffffffffffffffffffffff\n      and\n      mul\n      or\n      swap1\n      sstore\n      pop\n        /* \"contracts/my_contracts/payment_escrow.sol\":1435:1441  seller */\n      dup4\n        /* \"contracts/my_contracts/payment_escrow.sol\":1415:1422  currEsc */\n      dup2\n        /* \"contracts/my_contracts/payment_escrow.sol\":1415:1432  currEsc.recipient */\n      0x02\n      add\n      0x00\n        /* \"contracts/my_contracts/payment_escrow.sol\":1415:1441  currEsc.recipient = seller */\n      0x0100\n      exp\n      dup2\n      sload\n      dup2\n      0xffffffffffffffffffffffffffffffffffffffff\n      mul\n      not\n      and\n      swap1\n      dup4\n      0xffffffffffffffffffffffffffffffffffffffff\n      and\n      mul\n      or\n      swap1\n      sstore\n      pop\n        /* \"contracts/my_contracts/payment_escrow.sol\":1480:1489  msg.value */\n      callvalue\n        /* \"contracts/my_contracts/payment_escrow.sol\":1456:1463  currEsc */\n      dup2\n        /* \"contracts/my_contracts/payment_escrow.sol\":1456:1477  currEsc.blockedAmount */\n      0x03\n      add\n        /* \"contracts/my_contracts/payment_escrow.sol\":1456:1489  currEsc.blockedAmount = msg.value */\n      dup2\n      swap1\n      sstore\n      pop\n        /* \"contracts/my_contracts/payment_escrow.sol\":1524:1539  block.timestamp */\n      timestamp\n        /* \"contracts/my_contracts/payment_escrow.sol\":1504:1511  currEsc */\n      dup2\n        /* \"contracts/my_contracts/payment_escrow.sol\":1504:1521  currEsc.timeStamp */\n      0x04\n      add\n        /* \"contracts/my_contracts/payment_escrow.sol\":1504:1539  currEsc.timeStamp = block.timestamp */\n      dup2\n      swap1\n      sstore\n      pop\n        /* \"contracts/my_contracts/payment_escrow.sol\":1571:1585  Status.Pending */\n      0x00\n        /* \"contracts/my_contracts/payment_escrow.sol\":1554:1561  currEsc */\n      dup2\n        /* \"contracts/my_contracts/payment_escrow.sol\":1554:1568  currEsc.status */\n      0x06\n      add\n      0x00\n        /* \"contracts/my_contracts/payment_escrow.sol\":1554:1585  currEsc.status = Status.Pending */\n      0x0100\n      exp\n      dup2\n      sload\n      dup2\n      0xff\n      mul\n      not\n      and\n      swap1\n      dup4\n      0x02\n      dup2\n      gt\n      iszero\n      tag_31\n      jumpi\n      tag_32\n      tag_33\n      jump\t// in\n    tag_32:\n    tag_31:\n      mul\n      or\n      swap1\n      sstore\n      pop\n        /* \"contracts/my_contracts/payment_escrow.sol\":1628:1629  0 */\n      0x00\n        /* \"contracts/my_contracts/payment_escrow.sol\":1600:1607  currEsc */\n      dup2\n        /* \"contracts/my_contracts/payment_escrow.sol\":1600:1625  currEsc.completeTimeStamp */\n      0x05\n      add\n        /* \"contracts/my_contracts/payment_escrow.sol\":1600:1629  currEsc.completeTimeStamp = 0 */\n      dup2\n      swap1\n      sstore\n      pop\n        /* \"contracts/my_contracts/payment_escrow.sol\":1649:1741  EscrowTxnCreated(id, msg.sender,seller , msg.value, \"Sending escrow id please keep it safe\") */\n      0xf25b36e397803ccb0ef290f8c7abf7082e06d27d60a68c4a94d5f1fd08e67860\n        /* \"contracts/my_contracts/payment_escrow.sol\":1666:1668  id */\n      dup3\n        /* \"contracts/my_contracts/payment_escrow.sol\":1670:1680  msg.sender */\n      caller\n        /* \"contracts/my_contracts/payment_escrow.sol\":1681:1687  seller */\n      dup7\n        /* \"contracts/my_contracts/payment_escrow.sol\":1690:1699  msg.value */\n      callvalue\n        /* \"contracts/my_contracts/payment_escrow.sol\":1649:1741  EscrowTxnCreated(id, msg.sender,seller , msg.value, \"Sending escrow id please keep it safe\") */\n      mload(0x40)\n      tag_34\n      swap5\n      swap4\n      swap3\n      swap2\n      swap1\n      tag_35\n      jump\t// in\n    tag_34:\n      mload(0x40)\n      dup1\n      swap2\n      sub\n      swap1\n      log1\n        /* \"contracts/my_contracts/payment_escrow.sol\":1763:1765  id */\n      dup2\n        /* \"contracts/my_contracts/payment_escrow.sol\":1756:1765  return id */\n      swap3\n      pop\n      pop\n      pop\n        /* \"contracts/my_contracts/payment_escrow.sol\":1005:1777  function deposit(address payable  seller) public payable returns (uint256)  {... */\n      swap2\n      swap1\n      pop\n      jump\t// out\n        /* \"contracts/my_contracts/payment_escrow.sol\":173:202  uint256 public escrowTxnCount */\n    tag_20:\n      sload(0x02)\n      dup2\n      jump\t// out\n        /* \"#utility.yul\":88:205   */\n    tag_37:\n        /* \"#utility.yul\":197:198   */\n      0x00\n        /* \"#utility.yul\":194:195   */\n      0x00\n        /* \"#utility.yul\":187:199   */\n      revert\n        /* \"#utility.yul\":334:411   */\n    tag_39:\n        /* \"#utility.yul\":371:378   */\n      0x00\n        /* \"#utility.yul\":400:405   */\n      dup2\n        /* \"#utility.yul\":389:405   */\n      swap1\n      pop\n        /* \"#utility.yul\":334:411   */\n      swap2\n      swap1\n      pop\n      jump\t// out\n        /* \"#utility.yul\":417:539   */\n    tag_40:\n        /* \"#utility.yul\":490:514   */\n      tag_73\n        /* \"#utility.yul\":508:513   */\n      dup2\n        /* \"#utility.yul\":490:514   */\n      tag_39\n      jump\t// in\n    tag_73:\n        /* \"#utility.yul\":483:488   */\n      dup2\n        /* \"#utility.yul\":480:515   */\n      eq\n        /* \"#utility.yul\":470:533   */\n      tag_74\n      jumpi\n        /* \"#utility.yul\":529:530   */\n      0x00\n        /* \"#utility.yul\":526:527   */\n      0x00\n        /* \"#utility.yul\":519:531   */\n      revert\n        /* \"#utility.yul\":470:533   */\n    tag_74:\n        /* \"#utility.yul\":417:539   */\n      pop\n      jump\t// out\n        /* \"#utility.yul\":545:684   */\n    tag_41:\n        /* \"#utility.yul\":591:596   */\n      0x00\n        /* \"#utility.yul\":629:635   */\n      dup2\n        /* \"#utility.yul\":616:636   */\n      calldataload\n        /* \"#utility.yul\":607:636   */\n      swap1\n      pop\n        /* \"#utility.yul\":645:678   */\n      tag_76\n        /* \"#utility.yul\":672:677   */\n      dup2\n        /* \"#utility.yul\":645:678   */\n      tag_40\n      jump\t// in\n    tag_76:\n        /* \"#utility.yul\":545:684   */\n      swap3\n      swap2\n      pop\n      pop\n      jump\t// out\n        /* \"#utility.yul\":690:1019   */\n    tag_8:\n        /* \"#utility.yul\":749:755   */\n      0x00\n        /* \"#utility.yul\":798:800   */\n      0x20\n        /* \"#utility.yul\":786:795   */\n      dup3\n        /* \"#utility.yul\":777:784   */\n      dup5\n        /* \"#utility.yul\":773:796   */\n      sub\n        /* \"#utility.yul\":769:801   */\n      slt\n        /* \"#utility.yul\":766:885   */\n      iszero\n      tag_78\n      jumpi\n        /* \"#utility.yul\":804:883   */\n      tag_79\n      tag_37\n      jump\t// in\n    tag_79:\n        /* \"#utility.yul\":766:885   */\n    tag_78:\n        /* \"#utility.yul\":924:925   */\n      0x00\n        /* \"#utility.yul\":949:1002   */\n      tag_80\n        /* \"#utility.yul\":994:1001   */\n      dup5\n        /* \"#utility.yul\":985:991   */\n      dup3\n        /* \"#utility.yul\":974:983   */\n      dup6\n        /* \"#utility.yul\":970:992   */\n      add\n        /* \"#utility.yul\":949:1002   */\n      tag_41\n      jump\t// in\n    tag_80:\n        /* \"#utility.yul\":939:1002   */\n      swap2\n      pop\n        /* \"#utility.yul\":895:1012   */\n      pop\n        /* \"#utility.yul\":690:1019   */\n      swap3\n      swap2\n      pop\n      pop\n      jump\t// out\n        /* \"#utility.yul\":1025:1143   */\n    tag_42:\n        /* \"#utility.yul\":1112:1136   */\n      tag_82\n        /* \"#utility.yul\":1130:1135   */\n      dup2\n        /* \"#utility.yul\":1112:1136   */\n      tag_39\n      jump\t// in\n    tag_82:\n        /* \"#utility.yul\":1107:1110   */\n      dup3\n        /* \"#utility.yul\":1100:1137   */\n      mstore\n        /* \"#utility.yul\":1025:1143   */\n      pop\n      pop\n      jump\t// out\n        /* \"#utility.yul\":1149:1275   */\n    tag_43:\n        /* \"#utility.yul\":1186:1193   */\n      0x00\n        /* \"#utility.yul\":1226:1268   */\n      0xffffffffffffffffffffffffffffffffffffffff\n        /* \"#utility.yul\":1219:1224   */\n      dup3\n        /* \"#utility.yul\":1215:1269   */\n      and\n        /* \"#utility.yul\":1204:1269   */\n      swap1\n      pop\n        /* \"#utility.yul\":1149:1275   */\n      swap2\n      swap1\n      pop\n      jump\t// out\n        /* \"#utility.yul\":1281:1385   */\n    tag_44:\n        /* \"#utility.yul\":1326:1333   */\n      0x00\n        /* \"#utility.yul\":1355:1379   */\n      tag_85\n        /* \"#utility.yul\":1373:1378   */\n      dup3\n        /* \"#utility.yul\":1355:1379   */\n      tag_43\n      jump\t// in\n    tag_85:\n        /* \"#utility.yul\":1344:1379   */\n      swap1\n      pop\n        /* \"#utility.yul\":1281:1385   */\n      swap2\n      swap1\n      pop\n      jump\t// out\n        /* \"#utility.yul\":1391:1533   */\n    tag_45:\n        /* \"#utility.yul\":1494:1526   */\n      tag_87\n        /* \"#utility.yul\":1520:1525   */\n      dup2\n        /* \"#utility.yul\":1494:1526   */\n      tag_44\n      jump\t// in\n    tag_87:\n        /* \"#utility.yul\":1489:1492   */\n      dup3\n        /* \"#utility.yul\":1482:1527   */\n      mstore\n        /* \"#utility.yul\":1391:1533   */\n      pop\n      pop\n      jump\t// out\n        /* \"#utility.yul\":1539:1719   */\n    tag_33:\n        /* \"#utility.yul\":1587:1664   */\n      0x4e487b7100000000000000000000000000000000000000000000000000000000\n        /* \"#utility.yul\":1584:1585   */\n      0x00\n        /* \"#utility.yul\":1577:1665   */\n      mstore\n        /* \"#utility.yul\":1684:1688   */\n      0x21\n        /* \"#utility.yul\":1681:1682   */\n      0x04\n        /* \"#utility.yul\":1674:1689   */\n      mstore\n        /* \"#utility.yul\":1708:1712   */\n      0x24\n        /* \"#utility.yul\":1705:1706   */\n      0x00\n        /* \"#utility.yul\":1698:1713   */\n      revert\n        /* \"#utility.yul\":1725:1839   */\n    tag_46:\n        /* \"#utility.yul\":1807:1808   */\n      0x03\n        /* \"#utility.yul\":1800:1805   */\n      dup2\n        /* \"#utility.yul\":1797:1809   */\n      lt\n        /* \"#utility.yul\":1787:1833   */\n      tag_90\n      jumpi\n        /* \"#utility.yul\":1813:1831   */\n      tag_91\n      tag_33\n      jump\t// in\n    tag_91:\n        /* \"#utility.yul\":1787:1833   */\n    tag_90:\n        /* \"#utility.yul\":1725:1839   */\n      pop\n      jump\t// out\n        /* \"#utility.yul\":1845:1974   */\n    tag_47:\n        /* \"#utility.yul\":1891:1898   */\n      0x00\n        /* \"#utility.yul\":1920:1925   */\n      dup2\n        /* \"#utility.yul\":1909:1925   */\n      swap1\n      pop\n        /* \"#utility.yul\":1926:1968   */\n      tag_93\n        /* \"#utility.yul\":1962:1967   */\n      dup3\n        /* \"#utility.yul\":1926:1968   */\n      tag_46\n      jump\t// in\n    tag_93:\n        /* \"#utility.yul\":1845:1974   */\n      swap2\n      swap1\n      pop\n      jump\t// out\n        /* \"#utility.yul\":1980:2109   */\n    tag_48:\n        /* \"#utility.yul\":2037:2046   */\n      0x00\n        /* \"#utility.yul\":2070:2103   */\n      tag_95\n        /* \"#utility.yul\":2097:2102   */\n      dup3\n        /* \"#utility.yul\":2070:2103   */\n      tag_47\n      jump\t// in\n    tag_95:\n        /* \"#utility.yul\":2057:2103   */\n      swap1\n      pop\n        /* \"#utility.yul\":1980:2109   */\n      swap2\n      swap1\n      pop\n      jump\t// out\n        /* \"#utility.yul\":2115:2260   */\n    tag_49:\n        /* \"#utility.yul\":2209:2253   */\n      tag_97\n        /* \"#utility.yul\":2247:2252   */\n      dup2\n        /* \"#utility.yul\":2209:2253   */\n      tag_48\n      jump\t// in\n    tag_97:\n        /* \"#utility.yul\":2204:2207   */\n      dup3\n        /* \"#utility.yul\":2197:2254   */\n      mstore\n        /* \"#utility.yul\":2115:2260   */\n      pop\n      pop\n      jump\t// out\n        /* \"#utility.yul\":2266:3230   */\n    tag_11:\n        /* \"#utility.yul\":2566:2570   */\n      0x00\n        /* \"#utility.yul\":2604:2607   */\n      0xe0\n        /* \"#utility.yul\":2593:2602   */\n      dup3\n        /* \"#utility.yul\":2589:2608   */\n      add\n        /* \"#utility.yul\":2581:2608   */\n      swap1\n      pop\n        /* \"#utility.yul\":2618:2689   */\n      tag_99\n        /* \"#utility.yul\":2686:2687   */\n      0x00\n        /* \"#utility.yul\":2675:2684   */\n      dup4\n        /* \"#utility.yul\":2671:2688   */\n      add\n        /* \"#utility.yul\":2662:2668   */\n      dup11\n        /* \"#utility.yul\":2618:2689   */\n      tag_42\n      jump\t// in\n    tag_99:\n        /* \"#utility.yul\":2699:2787   */\n      tag_100\n        /* \"#utility.yul\":2783:2785   */\n      0x20\n        /* \"#utility.yul\":2772:2781   */\n      dup4\n        /* \"#utility.yul\":2768:2786   */\n      add\n        /* \"#utility.yul\":2759:2765   */\n      dup10\n        /* \"#utility.yul\":2699:2787   */\n      tag_45\n      jump\t// in\n    tag_100:\n        /* \"#utility.yul\":2797:2885   */\n      tag_101\n        /* \"#utility.yul\":2881:2883   */\n      0x40\n        /* \"#utility.yul\":2870:2879   */\n      dup4\n        /* \"#utility.yul\":2866:2884   */\n      add\n        /* \"#utility.yul\":2857:2863   */\n      dup9\n        /* \"#utility.yul\":2797:2885   */\n      tag_45\n      jump\t// in\n    tag_101:\n        /* \"#utility.yul\":2895:2967   */\n      tag_102\n        /* \"#utility.yul\":2963:2965   */\n      0x60\n        /* \"#utility.yul\":2952:2961   */\n      dup4\n        /* \"#utility.yul\":2948:2966   */\n      add\n        /* \"#utility.yul\":2939:2945   */\n      dup8\n        /* \"#utility.yul\":2895:2967   */\n      tag_42\n      jump\t// in\n    tag_102:\n        /* \"#utility.yul\":2977:3050   */\n      tag_103\n        /* \"#utility.yul\":3045:3048   */\n      0x80\n        /* \"#utility.yul\":3034:3043   */\n      dup4\n        /* \"#utility.yul\":3030:3049   */\n      add\n        /* \"#utility.yul\":3021:3027   */\n      dup7\n        /* \"#utility.yul\":2977:3050   */\n      tag_42\n      jump\t// in\n    tag_103:\n        /* \"#utility.yul\":3060:3133   */\n      tag_104\n        /* \"#utility.yul\":3128:3131   */\n      0xa0\n        /* \"#utility.yul\":3117:3126   */\n      dup4\n        /* \"#utility.yul\":3113:3132   */\n      add\n        /* \"#utility.yul\":3104:3110   */\n      dup6\n        /* \"#utility.yul\":3060:3133   */\n      tag_42\n      jump\t// in\n    tag_104:\n        /* \"#utility.yul\":3143:3223   */\n      tag_105\n        /* \"#utility.yul\":3218:3221   */\n      0xc0\n        /* \"#utility.yul\":3207:3216   */\n      dup4\n        /* \"#utility.yul\":3203:3222   */\n      add\n        /* \"#utility.yul\":3194:3200   */\n      dup5\n        /* \"#utility.yul\":3143:3223   */\n      tag_49\n      jump\t// in\n    tag_105:\n        /* \"#utility.yul\":2266:3230   */\n      swap9\n      swap8\n      pop\n      pop\n      pop\n      pop\n      pop\n      pop\n      pop\n      pop\n      jump\t// out\n        /* \"#utility.yul\":3236:3374   */\n    tag_50:\n        /* \"#utility.yul\":3317:3349   */\n      tag_107\n        /* \"#utility.yul\":3343:3348   */\n      dup2\n        /* \"#utility.yul\":3317:3349   */\n      tag_44\n      jump\t// in\n    tag_107:\n        /* \"#utility.yul\":3310:3315   */\n      dup2\n        /* \"#utility.yul\":3307:3350   */\n      eq\n        /* \"#utility.yul\":3297:3368   */\n      tag_108\n      jumpi\n        /* \"#utility.yul\":3364:3365   */\n      0x00\n        /* \"#utility.yul\":3361:3362   */\n      0x00\n        /* \"#utility.yul\":3354:3366   */\n      revert\n        /* \"#utility.yul\":3297:3368   */\n    tag_108:\n        /* \"#utility.yul\":3236:3374   */\n      pop\n      jump\t// out\n        /* \"#utility.yul\":3380:3535   */\n    tag_51:\n        /* \"#utility.yul\":3434:3439   */\n      0x00\n        /* \"#utility.yul\":3472:3478   */\n      dup2\n        /* \"#utility.yul\":3459:3479   */\n      calldataload\n        /* \"#utility.yul\":3450:3479   */\n      swap1\n      pop\n        /* \"#utility.yul\":3488:3529   */\n      tag_110\n        /* \"#utility.yul\":3523:3528   */\n      dup2\n        /* \"#utility.yul\":3488:3529   */\n      tag_50\n      jump\t// in\n    tag_110:\n        /* \"#utility.yul\":3380:3535   */\n      swap3\n      swap2\n      pop\n      pop\n      jump\t// out\n        /* \"#utility.yul\":3541:3886   */\n    tag_14:\n        /* \"#utility.yul\":3608:3614   */\n      0x00\n        /* \"#utility.yul\":3657:3659   */\n      0x20\n        /* \"#utility.yul\":3645:3654   */\n      dup3\n        /* \"#utility.yul\":3636:3643   */\n      dup5\n        /* \"#utility.yul\":3632:3655   */\n      sub\n        /* \"#utility.yul\":3628:3660   */\n      slt\n        /* \"#utility.yul\":3625:3744   */\n      iszero\n      tag_112\n      jumpi\n        /* \"#utility.yul\":3663:3742   */\n      tag_113\n      tag_37\n      jump\t// in\n    tag_113:\n        /* \"#utility.yul\":3625:3744   */\n    tag_112:\n        /* \"#utility.yul\":3783:3784   */\n      0x00\n        /* \"#utility.yul\":3808:3869   */\n      tag_114\n        /* \"#utility.yul\":3861:3868   */\n      dup5\n        /* \"#utility.yul\":3852:3858   */\n      dup3\n        /* \"#utility.yul\":3841:3850   */\n      dup6\n        /* \"#utility.yul\":3837:3859   */\n      add\n        /* \"#utility.yul\":3808:3869   */\n      tag_51\n      jump\t// in\n    tag_114:\n        /* \"#utility.yul\":3798:3869   */\n      swap2\n      pop\n        /* \"#utility.yul\":3754:3879   */\n      pop\n        /* \"#utility.yul\":3541:3886   */\n      swap3\n      swap2\n      pop\n      pop\n      jump\t// out\n        /* \"#utility.yul\":3892:4114   */\n    tag_17:\n        /* \"#utility.yul\":3985:3989   */\n      0x00\n        /* \"#utility.yul\":4023:4025   */\n      0x20\n        /* \"#utility.yul\":4012:4021   */\n      dup3\n        /* \"#utility.yul\":4008:4026   */\n      add\n        /* \"#utility.yul\":4000:4026   */\n      swap1\n      pop\n        /* \"#utility.yul\":4036:4107   */\n      tag_116\n        /* \"#utility.yul\":4104:4105   */\n      0x00\n        /* \"#utility.yul\":4093:4102   */\n      dup4\n        /* \"#utility.yul\":4089:4106   */\n      add\n        /* \"#utility.yul\":4080:4086   */\n      dup5\n        /* \"#utility.yul\":4036:4107   */\n      tag_42\n      jump\t// in\n    tag_116:\n        /* \"#utility.yul\":3892:4114   */\n      swap3\n      swap2\n      pop\n      pop\n      jump\t// out\n        /* \"#utility.yul\":4120:4289   */\n    tag_52:\n        /* \"#utility.yul\":4204:4215   */\n      0x00\n        /* \"#utility.yul\":4238:4244   */\n      dup3\n        /* \"#utility.yul\":4233:4236   */\n      dup3\n        /* \"#utility.yul\":4226:4245   */\n      mstore\n        /* \"#utility.yul\":4278:4282   */\n      0x20\n        /* \"#utility.yul\":4273:4276   */\n      dup3\n        /* \"#utility.yul\":4269:4283   */\n      add\n        /* \"#utility.yul\":4254:4283   */\n      swap1\n      pop\n        /* \"#utility.yul\":4120:4289   */\n      swap3\n      swap2\n      pop\n      pop\n      jump\t// out\n        /* \"#utility.yul\":4295:4520   */\n    tag_53:\n        /* \"#utility.yul\":4435:4469   */\n      0x496e76616c696420616d6f756e742c206d757374206265206772656174657220\n        /* \"#utility.yul\":4431:4432   */\n      0x00\n        /* \"#utility.yul\":4423:4429   */\n      dup3\n        /* \"#utility.yul\":4419:4433   */\n      add\n        /* \"#utility.yul\":4412:4470   */\n      mstore\n        /* \"#utility.yul\":4504:4512   */\n      0x7468616e20300000000000000000000000000000000000000000000000000000\n        /* \"#utility.yul\":4499:4501   */\n      0x20\n        /* \"#utility.yul\":4491:4497   */\n      dup3\n        /* \"#utility.yul\":4487:4502   */\n      add\n        /* \"#utility.yul\":4480:4513   */\n      mstore\n        /* \"#utility.yul\":4295:4520   */\n      pop\n      jump\t// out\n        /* \"#utility.yul\":4526:4892   */\n    tag_54:\n        /* \"#utility.yul\":4668:4671   */\n      0x00\n        /* \"#utility.yul\":4689:4756   */\n      tag_120\n        /* \"#utility.yul\":4753:4755   */\n      0x26\n        /* \"#utility.yul\":4748:4751   */\n      dup4\n        /* \"#utility.yul\":4689:4756   */\n      tag_52\n      jump\t// in\n    tag_120:\n        /* \"#utility.yul\":4682:4756   */\n      swap2\n      pop\n        /* \"#utility.yul\":4765:4858   */\n      tag_121\n        /* \"#utility.yul\":4854:4857   */\n      dup3\n        /* \"#utility.yul\":4765:4858   */\n      tag_53\n      jump\t// in\n    tag_121:\n        /* \"#utility.yul\":4883:4885   */\n      0x40\n        /* \"#utility.yul\":4878:4881   */\n      dup3\n        /* \"#utility.yul\":4874:4886   */\n      add\n        /* \"#utility.yul\":4867:4886   */\n      swap1\n      pop\n        /* \"#utility.yul\":4526:4892   */\n      swap2\n      swap1\n      pop\n      jump\t// out\n        /* \"#utility.yul\":4898:5317   */\n    tag_25:\n        /* \"#utility.yul\":5064:5068   */\n      0x00\n        /* \"#utility.yul\":5102:5104   */\n      0x20\n        /* \"#utility.yul\":5091:5100   */\n      dup3\n        /* \"#utility.yul\":5087:5105   */\n      add\n        /* \"#utility.yul\":5079:5105   */\n      swap1\n      pop\n        /* \"#utility.yul\":5151:5160   */\n      dup2\n        /* \"#utility.yul\":5145:5149   */\n      dup2\n        /* \"#utility.yul\":5141:5161   */\n      sub\n        /* \"#utility.yul\":5137:5138   */\n      0x00\n        /* \"#utility.yul\":5126:5135   */\n      dup4\n        /* \"#utility.yul\":5122:5139   */\n      add\n        /* \"#utility.yul\":5115:5162   */\n      mstore\n        /* \"#utility.yul\":5179:5310   */\n      tag_123\n        /* \"#utility.yul\":5305:5309   */\n      dup2\n        /* \"#utility.yul\":5179:5310   */\n      tag_54\n      jump\t// in\n    tag_123:\n        /* \"#utility.yul\":5171:5310   */\n      swap1\n      pop\n        /* \"#utility.yul\":4898:5317   */\n      swap2\n      swap1\n      pop\n      jump\t// out\n        /* \"#utility.yul\":5323:5488   */\n    tag_55:\n        /* \"#utility.yul\":5463:5480   */\n      0x496e76616c696420616464726573730000000000000000000000000000000000\n        /* \"#utility.yul\":5459:5460   */\n      0x00\n        /* \"#utility.yul\":5451:5457   */\n      dup3\n        /* \"#utility.yul\":5447:5461   */\n      add\n        /* \"#utility.yul\":5440:5481   */\n      mstore\n        /* \"#utility.yul\":5323:5488   */\n      pop\n      jump\t// out\n        /* \"#utility.yul\":5494:5860   */\n    tag_56:\n        /* \"#utility.yul\":5636:5639   */\n      0x00\n        /* \"#utility.yul\":5657:5724   */\n      tag_126\n        /* \"#utility.yul\":5721:5723   */\n      0x0f\n        /* \"#utility.yul\":5716:5719   */\n      dup4\n        /* \"#utility.yul\":5657:5724   */\n      tag_52\n      jump\t// in\n    tag_126:\n        /* \"#utility.yul\":5650:5724   */\n      swap2\n      pop\n        /* \"#utility.yul\":5733:5826   */\n      tag_127\n        /* \"#utility.yul\":5822:5825   */\n      dup3\n        /* \"#utility.yul\":5733:5826   */\n      tag_55\n      jump\t// in\n    tag_127:\n        /* \"#utility.yul\":5851:5853   */\n      0x20\n        /* \"#utility.yul\":5846:5849   */\n      dup3\n        /* \"#utility.yul\":5842:5854   */\n      add\n        /* \"#utility.yul\":5835:5854   */\n      swap1\n      pop\n        /* \"#utility.yul\":5494:5860   */\n      swap2\n      swap1\n      pop\n      jump\t// out\n        /* \"#utility.yul\":5866:6285   */\n    tag_28:\n        /* \"#utility.yul\":6032:6036   */\n      0x00\n        /* \"#utility.yul\":6070:6072   */\n      0x20\n        /* \"#utility.yul\":6059:6068   */\n      dup3\n        /* \"#utility.yul\":6055:6073   */\n      add\n        /* \"#utility.yul\":6047:6073   */\n      swap1\n      pop\n        /* \"#utility.yul\":6119:6128   */\n      dup2\n        /* \"#utility.yul\":6113:6117   */\n      dup2\n        /* \"#utility.yul\":6109:6129   */\n      sub\n        /* \"#utility.yul\":6105:6106   */\n      0x00\n        /* \"#utility.yul\":6094:6103   */\n      dup4\n        /* \"#utility.yul\":6090:6107   */\n      add\n        /* \"#utility.yul\":6083:6130   */\n      mstore\n        /* \"#utility.yul\":6147:6278   */\n      tag_129\n        /* \"#utility.yul\":6273:6277   */\n      dup2\n        /* \"#utility.yul\":6147:6278   */\n      tag_56\n      jump\t// in\n    tag_129:\n        /* \"#utility.yul\":6139:6278   */\n      swap1\n      pop\n        /* \"#utility.yul\":5866:6285   */\n      swap2\n      swap1\n      pop\n      jump\t// out\n        /* \"#utility.yul\":6291:6471   */\n    tag_57:\n        /* \"#utility.yul\":6339:6416   */\n      0x4e487b7100000000000000000000000000000000000000000000000000000000\n        /* \"#utility.yul\":6336:6337   */\n      0x00\n        /* \"#utility.yul\":6329:6417   */\n      mstore\n        /* \"#utility.yul\":6436:6440   */\n      0x11\n        /* \"#utility.yul\":6433:6434   */\n      0x04\n        /* \"#utility.yul\":6426:6441   */\n      mstore\n        /* \"#utility.yul\":6460:6464   */\n      0x24\n        /* \"#utility.yul\":6457:6458   */\n      0x00\n        /* \"#utility.yul\":6450:6465   */\n      revert\n        /* \"#utility.yul\":6477:6710   */\n    tag_30:\n        /* \"#utility.yul\":6516:6519   */\n      0x00\n        /* \"#utility.yul\":6539:6563   */\n      tag_132\n        /* \"#utility.yul\":6557:6562   */\n      dup3\n        /* \"#utility.yul\":6539:6563   */\n      tag_39\n      jump\t// in\n    tag_132:\n        /* \"#utility.yul\":6530:6563   */\n      swap2\n      pop\n        /* \"#utility.yul\":6585:6651   */\n      0xffffffffffffffffffffffffffffffffffffffffffffffffffffffffffffffff\n        /* \"#utility.yul\":6578:6583   */\n      dup3\n        /* \"#utility.yul\":6575:6652   */\n      sub\n        /* \"#utility.yul\":6572:6675   */\n      tag_133\n      jumpi\n        /* \"#utility.yul\":6655:6673   */\n      tag_134\n      tag_57\n      jump\t// in\n    tag_134:\n        /* \"#utility.yul\":6572:6675   */\n    tag_133:\n        /* \"#utility.yul\":6702:6703   */\n      0x01\n        /* \"#utility.yul\":6695:6700   */\n      dup3\n        /* \"#utility.yul\":6691:6704   */\n      add\n        /* \"#utility.yul\":6684:6704   */\n      swap1\n      pop\n        /* \"#utility.yul\":6477:6710   */\n      swap2\n      swap1\n      pop\n      jump\t// out\n        /* \"#utility.yul\":6716:6812   */\n    tag_58:\n        /* \"#utility.yul\":6753:6760   */\n      0x00\n        /* \"#utility.yul\":6782:6806   */\n      tag_136\n        /* \"#utility.yul\":6800:6805   */\n      dup3\n        /* \"#utility.yul\":6782:6806   */\n      tag_43\n      jump\t// in\n    tag_136:\n        /* \"#utility.yul\":6771:6806   */\n      swap1\n      pop\n        /* \"#utility.yul\":6716:6812   */\n      swap2\n      swap1\n      pop\n      jump\t// out\n        /* \"#utility.yul\":6818:6936   */\n    tag_59:\n        /* \"#utility.yul\":6905:6929   */\n      tag_138\n        /* \"#utility.yul\":6923:6928   */\n      dup2\n        /* \"#utility.yul\":6905:6929   */\n      tag_58\n      jump\t// in\n    tag_138:\n        /* \"#utility.yul\":6900:6903   */\n      dup3\n        /* \"#utility.yul\":6893:6930   */\n      mstore\n        /* \"#utility.yul\":6818:6936   */\n      pop\n      pop\n      jump\t// out\n        /* \"#utility.yul\":6942:7002   */\n    tag_60:\n        /* \"#utility.yul\":6970:6973   */\n      0x00\n        /* \"#utility.yul\":6991:6996   */\n      dup2\n        /* \"#utility.yul\":6984:6996   */\n      swap1\n      pop\n        /* \"#utility.yul\":6942:7002   */\n      swap2\n      swap1\n      pop\n      jump\t// out\n        /* \"#utility.yul\":7008:7150   */\n    tag_61:\n        /* \"#utility.yul\":7058:7067   */\n      0x00\n        /* \"#utility.yul\":7091:7144   */\n      tag_141\n        /* \"#utility.yul\":7109:7143   */\n      tag_142\n        /* \"#utility.yul\":7118:7142   */\n      tag_143\n        /* \"#utility.yul\":7136:7141   */\n      dup5\n        /* \"#utility.yul\":7118:7142   */\n      tag_43\n      jump\t// in\n    tag_143:\n        /* \"#utility.yul\":7109:7143   */\n      tag_60\n      jump\t// in\n    tag_142:\n        /* \"#utility.yul\":7091:7144   */\n      tag_43\n      jump\t// in\n    tag_141:\n        /* \"#utility.yul\":7078:7144   */\n      swap1\n      pop\n        /* \"#utility.yul\":7008:7150   */\n      swap2\n      swap1\n      pop\n      jump\t// out\n        /* \"#utility.yul\":7156:7282   */\n    tag_62:\n        /* \"#utility.yul\":7206:7215   */\n      0x00\n        /* \"#utility.yul\":7239:7276   */\n      tag_145\n        /* \"#utility.yul\":7270:7275   */\n      dup3\n        /* \"#utility.yul\":7239:7276   */\n      tag_61\n      jump\t// in\n    tag_145:\n        /* \"#utility.yul\":7226:7276   */\n      swap1\n      pop\n        /* \"#utility.yul\":7156:7282   */\n      swap2\n      swap1\n      pop\n      jump\t// out\n        /* \"#utility.yul\":7288:7422   */\n    tag_63:\n        /* \"#utility.yul\":7346:7355   */\n      0x00\n        /* \"#utility.yul\":7379:7416   */\n      tag_147\n        /* \"#utility.yul\":7410:7415   */\n      dup3\n        /* \"#utility.yul\":7379:7416   */\n      tag_62\n      jump\t// in\n    tag_147:\n        /* \"#utility.yul\":7366:7416   */\n      swap1\n      pop\n        /* \"#utility.yul\":7288:7422   */\n      swap2\n      swap1\n      pop\n      jump\t// out\n        /* \"#utility.yul\":7428:7575   */\n    tag_64:\n        /* \"#utility.yul\":7523:7568   */\n      tag_149\n        /* \"#utility.yul\":7562:7567   */\n      dup2\n        /* \"#utility.yul\":7523:7568   */\n      tag_63\n      jump\t// in\n    tag_149:\n        /* \"#utility.yul\":7518:7521   */\n      dup3\n        /* \"#utility.yul\":7511:7569   */\n      mstore\n        /* \"#utility.yul\":7428:7575   */\n      pop\n      pop\n      jump\t// out\n        /* \"#utility.yul\":7581:7805   */\n    tag_65:\n        /* \"#utility.yul\":7721:7755   */\n      0x53656e64696e6720657363726f7720696420706c65617365206b656570206974\n        /* \"#utility.yul\":7717:7718   */\n      0x00\n        /* \"#utility.yul\":7709:7715   */\n      dup3\n        /* \"#utility.yul\":7705:7719   */\n      add\n        /* \"#utility.yul\":7698:7756   */\n      mstore\n        /* \"#utility.yul\":7790:7797   */\n      0x2073616665000000000000000000000000000000000000000000000000000000\n        /* \"#utility.yul\":7785:7787   */\n      0x20\n        /* \"#utility.yul\":7777:7783   */\n      dup3\n        /* \"#utility.yul\":7773:7788   */\n      add\n        /* \"#utility.yul\":7766:7798   */\n      mstore\n        /* \"#utility.yul\":7581:7805   */\n      pop\n      jump\t// out\n        /* \"#utility.yul\":7811:8177   */\n    tag_66:\n        /* \"#utility.yul\":7953:7956   */\n      0x00\n        /* \"#utility.yul\":7974:8041   */\n      tag_152\n        /* \"#utility.yul\":8038:8040   */\n      0x25\n        /* \"#utility.yul\":8033:8036   */\n      dup4\n        /* \"#utility.yul\":7974:8041   */\n      tag_52\n      jump\t// in\n    tag_152:\n        /* \"#utility.yul\":7967:8041   */\n      swap2\n      pop\n        /* \"#utility.yul\":8050:8143   */\n      tag_153\n        /* \"#utility.yul\":8139:8142   */\n      dup3\n        /* \"#utility.yul\":8050:8143   */\n      tag_65\n      jump\t// in\n    tag_153:\n        /* \"#utility.yul\":8168:8170   */\n      0x40\n        /* \"#utility.yul\":8163:8166   */\n      dup3\n        /* \"#utility.yul\":8159:8171   */\n      add\n        /* \"#utility.yul\":8152:8171   */\n      swap1\n      pop\n        /* \"#utility.yul\":7811:8177   */\n      swap2\n      swap1\n      pop\n      jump\t// out\n        /* \"#utility.yul\":8183:9060   */\n    tag_35:\n        /* \"#utility.yul\":8469:8473   */\n      0x00\n        /* \"#utility.yul\":8507:8510   */\n      0xa0\n        /* \"#utility.yul\":8496:8505   */\n      dup3\n        /* \"#utility.yul\":8492:8511   */\n      add\n        /* \"#utility.yul\":8484:8511   */\n      swap1\n      pop\n        /* \"#utility.yul\":8521:8592   */\n      tag_155\n        /* \"#utility.yul\":8589:8590   */\n      0x00\n        /* \"#utility.yul\":8578:8587   */\n      dup4\n        /* \"#utility.yul\":8574:8591   */\n      add\n        /* \"#utility.yul\":8565:8571   */\n      dup8\n        /* \"#utility.yul\":8521:8592   */\n      tag_42\n      jump\t// in\n    tag_155:\n        /* \"#utility.yul\":8602:8674   */\n      tag_156\n        /* \"#utility.yul\":8670:8672   */\n      0x20\n        /* \"#utility.yul\":8659:8668   */\n      dup4\n        /* \"#utility.yul\":8655:8673   */\n      add\n        /* \"#utility.yul\":8646:8652   */\n      dup7\n        /* \"#utility.yul\":8602:8674   */\n      tag_59\n      jump\t// in\n    tag_156:\n        /* \"#utility.yul\":8684:8764   */\n      tag_157\n        /* \"#utility.yul\":8760:8762   */\n      0x40\n        /* \"#utility.yul\":8749:8758   */\n      dup4\n        /* \"#utility.yul\":8745:8763   */\n      add\n        /* \"#utility.yul\":8736:8742   */\n      dup6\n        /* \"#utility.yul\":8684:8764   */\n      tag_64\n      jump\t// in\n    tag_157:\n        /* \"#utility.yul\":8774:8846   */\n      tag_158\n        /* \"#utility.yul\":8842:8844   */\n      0x60\n        /* \"#utility.yul\":8831:8840   */\n      dup4\n        /* \"#utility.yul\":8827:8845   */\n      add\n        /* \"#utility.yul\":8818:8824   */\n      dup5\n        /* \"#utility.yul\":8774:8846   */\n      tag_42\n      jump\t// in\n    tag_158:\n        /* \"#utility.yul\":8894:8903   */\n      dup2\n        /* \"#utility.yul\":8888:8892   */\n      dup2\n        /* \"#utility.yul\":8884:8904   */\n      sub\n        /* \"#utility.yul\":8878:8881   */\n      0x80\n        /* \"#utility.yul\":8867:8876   */\n      dup4\n        /* \"#utility.yul\":8863:8882   */\n      add\n        /* \"#utility.yul\":8856:8905   */\n      mstore\n        /* \"#utility.yul\":8922:9053   */\n      tag_159\n        /* \"#utility.yul\":9048:9052   */\n      dup2\n        /* \"#utility.yul\":8922:9053   */\n      tag_66\n      jump\t// in\n    tag_159:\n        /* \"#utility.yul\":8914:9053   */\n      swap1\n      pop\n        /* \"#utility.yul\":8183:9060   */\n      swap6\n      swap5\n      pop\n      pop\n      pop\n      pop\n      pop\n      jump\t// out\n\n    auxdata: 0xa2646970667358221220c04ee404091a49e78b6a2558b2117a534c5723a677db6d6619f54c9d2897512864736f6c634300081f0033\n}\n",
				"bytecode": {
					"linkReferences": {},
					"object": "6080604052348015600e575f5ffd5b50335f5f6101000a81548173ffffffffffffffffffffffffffffffffffffffff021916908373ffffffffffffffffffffffffffffffffffffffff1602179055506108478061005b5f395ff3fe608060405260043610610033575f3560e01c8063d67f205f14610037578063f340fa0114610079578063f62659b3146100a9575b5f5ffd5b348015610042575f5ffd5b5061005d6004803603810190610058919061038f565b6100d3565b604051610070979695949392919061047b565b60405180910390f35b610093600480360381019061008e9190610512565b61015b565b6040516100a0919061053d565b60405180910390f35b3480156100b4575f5ffd5b506100bd610352565b6040516100ca919061053d565b60405180910390f35b6001602052805f5260405f205f91509050805f015490806001015f9054906101000a900473ffffffffffffffffffffffffffffffffffffffff1690806002015f9054906101000a900473ffffffffffffffffffffffffffffffffffffffff1690806003015490806004015490806005015490806006015f9054906101000a900460ff16905087565b5f5f341161019e576040517f08c379a0000000000000000000000000000000000000000000000000000000008152600401610195906105d6565b60405180910390fd5b5f73ffffffffffffffffffffffffffffffffffffffff168273ffffffffffffffffffffffffffffffffffffffff160361020c576040517f08c379a00000000000000000000000000000000000000000000000000000000081526004016102039061063e565b60405180910390fd5b5f60025f81548092919061021f90610689565b9190505590505f60015f8381526020019081526020015f20905081815f018190555033816001015f6101000a81548173ffffffffffffffffffffffffffffffffffffffff021916908373ffffffffffffffffffffffffffffffffffffffff16021790555083816002015f6101000a81548173ffffffffffffffffffffffffffffffffffffffff021916908373ffffffffffffffffffffffffffffffffffffffff1602179055503481600301819055504281600401819055505f816006015f6101000a81548160ff021916908360028111156102fd576102fc610408565b5b02179055505f81600501819055507ff25b36e397803ccb0ef290f8c7abf7082e06d27d60a68c4a94d5f1fd08e678608233863460405161034094939291906107bb565b60405180910390a18192505050919050565b60025481565b5f5ffd5b5f819050919050565b61036e8161035c565b8114610378575f5ffd5b50565b5f8135905061038981610365565b92915050565b5f602082840312156103a4576103a3610358565b5b5f6103b18482850161037b565b91505092915050565b6103c38161035c565b82525050565b5f73ffffffffffffffffffffffffffffffffffffffff82169050919050565b5f6103f2826103c9565b9050919050565b610402816103e8565b82525050565b7f4e487b71000000000000000000000000000000000000000000000000000000005f52602160045260245ffd5b6003811061044657610445610408565b5b50565b5f81905061045682610435565b919050565b5f61046582610449565b9050919050565b6104758161045b565b82525050565b5f60e08201905061048e5f83018a6103ba565b61049b60208301896103f9565b6104a860408301886103f9565b6104b560608301876103ba565b6104c260808301866103ba565b6104cf60a08301856103ba565b6104dc60c083018461046c565b98975050505050505050565b6104f1816103e8565b81146104fb575f5ffd5b50565b5f8135905061050c816104e8565b92915050565b5f6020828403121561052757610526610358565b5b5f610534848285016104fe565b91505092915050565b5f6020820190506105505f8301846103ba565b92915050565b5f82825260208201905092915050565b7f496e76616c696420616d6f756e742c206d7573742062652067726561746572205f8201527f7468616e20300000000000000000000000000000000000000000000000000000602082015250565b5f6105c0602683610556565b91506105cb82610566565b604082019050919050565b5f6020820190508181035f8301526105ed816105b4565b9050919050565b7f496e76616c6964206164647265737300000000000000000000000000000000005f82015250565b5f610628600f83610556565b9150610633826105f4565b602082019050919050565b5f6020820190508181035f8301526106558161061c565b9050919050565b7f4e487b71000000000000000000000000000000000000000000000000000000005f52601160045260245ffd5b5f6106938261035c565b91507fffffffffffffffffffffffffffffffffffffffffffffffffffffffffffffffff82036106c5576106c461065c565b5b600182019050919050565b5f6106da826103c9565b9050919050565b6106ea816106d0565b82525050565b5f819050919050565b5f61071361070e610709846103c9565b6106f0565b6103c9565b9050919050565b5f610724826106f9565b9050919050565b5f6107358261071a565b9050919050565b6107458161072b565b82525050565b7f53656e64696e6720657363726f7720696420706c65617365206b6565702069745f8201527f2073616665000000000000000000000000000000000000000000000000000000602082015250565b5f6107a5602583610556565b91506107b08261074b565b604082019050919050565b5f60a0820190506107ce5f8301876103ba565b6107db60208301866106e1565b6107e8604083018561073c565b6107f560608301846103ba565b818103608083015261080681610799565b90509594505050505056fea2646970667358221220c04ee404091a49e78b6a2558b2117a534c5723a677db6d6619f54c9d2897512864736f6c634300081f0033",
					"opcodes": "PUSH1 0x80 PUSH1 0x40 MSTORE CALLVALUE DUP1 ISZERO PUSH1 0xE JUMPI PUSH0 PUSH0 REVERT JUMPDEST POP CALLER PUSH0 PUSH0 PUSH2 0x100 EXP DUP2 SLOAD DUP2 PUSH20 0xFFFFFFFFFFFFFFFFFFFFFFFFFFFFFFFFFFFFFFFF MUL NOT AND SWAP1 DUP4 PUSH20 0xFFFFFFFFFFFFFFFFFFFFFFFFFFFFFFFFFFFFFFFF AND MUL OR SWAP1 SSTORE POP PUSH2 0x847 DUP1 PUSH2 0x5B PUSH0 CODECOPY PUSH0 RETURN INVALID PUSH1 0x80 PUSH1 0x40 MSTORE PUSH1 0x4 CALLDATASIZE LT PUSH2 0x33 JUMPI PUSH0 CALLDATALOAD PUSH1 0xE0 SHR DUP1 PUSH4 0xD67F205F EQ PUSH2 0x37 JUMPI DUP1 PUSH4 0xF340FA01 EQ PUSH2 0x79 JUMPI DUP1 PUSH4 0xF62659B3 EQ PUSH2 0xA9 JUMPI JUMPDEST PUSH0 PUSH0 REVERT JUMPDEST CALLVALUE DUP1 ISZERO PUSH2 0x42 JUMPI PUSH0 PUSH0 REVERT JUMPDEST POP PUSH2 0x5D PUSH1 0x4 DUP1 CALLDATASIZE SUB DUP2 ADD SWAP1 PUSH2 0x58 SWAP2 SWAP1 PUSH2 0x38F JUMP JUMPDEST PUSH2 0xD3 JUMP JUMPDEST PUSH1 0x40 MLOAD PUSH2 0x70 SWAP8 SWAP7 SWAP6 SWAP5 SWAP4 SWAP3 SWAP2 SWAP1 PUSH2 0x47B JUMP JUMPDEST PUSH1 0x40 MLOAD DUP1 SWAP2 SUB SWAP1 RETURN JUMPDEST PUSH2 0x93 PUSH1 0x4 DUP1 CALLDATASIZE SUB DUP2 ADD SWAP1 PUSH2 0x8E SWAP2 SWAP1 PUSH2 0x512 JUMP JUMPDEST PUSH2 0x15B JUMP JUMPDEST PUSH1 0x40 MLOAD PUSH2 0xA0 SWAP2 SWAP1 PUSH2 0x53D JUMP JUMPDEST PUSH1 0x40 MLOAD DUP1 SWAP2 SUB SWAP1 RETURN JUMPDEST CALLVALUE DUP1 ISZERO PUSH2 0xB4 JUMPI PUSH0 PUSH0 REVERT JUMPDEST POP PUSH2 0xBD PUSH2 0x352 JUMP JUMPDEST PUSH1 0x40 MLOAD PUSH2 0xCA SWAP2 SWAP1 PUSH2 0x53D JUMP JUMPDEST PUSH1 0x40 MLOAD DUP1 SWAP2 SUB SWAP1 RETURN JUMPDEST PUSH1 0x1 PUSH1 0x20 MSTORE DUP1 PUSH0 MSTORE PUSH1 0x40 PUSH0 KECCAK256 PUSH0 SWAP2 POP SWAP1 POP DUP1 PUSH0 ADD SLOAD SWAP1 DUP1 PUSH1 0x1 ADD PUSH0 SWAP1 SLOAD SWAP1 PUSH2 0x100 EXP SWAP1 DIV PUSH20 0xFFFFFFFFFFFFFFFFFFFFFFFFFFFFFFFFFFFFFFFF AND SWAP1 DUP1 PUSH1 0x2 ADD PUSH0 SWAP1 SLOAD SWAP1 PUSH2 0x100 EXP SWAP1 DIV PUSH20 0xFFFFFFFFFFFFFFFFFFFFFFFFFFFFFFFFFFFFFFFF AND SWAP1 DUP1 PUSH1 0x3 ADD SLOAD SWAP1 DUP1 PUSH1 0x4 ADD SLOAD SWAP1 DUP1 PUSH1 0x5 ADD SLOAD SWAP1 DUP1 PUSH1 0x6 ADD PUSH0 SWAP1 SLOAD SWAP1 PUSH2 0x100 EXP SWAP1 DIV PUSH1 0xFF AND SWAP1 POP DUP8 JUMP JUMPDEST PUSH0 PUSH0 CALLVALUE GT PUSH2 0x19E JUMPI PUSH1 0x40 MLOAD PUSH32 0x8C379A000000000000000000000000000000000000000000000000000000000 DUP2 MSTORE PUSH1 0x4 ADD PUSH2 0x195 SWAP1 PUSH2 0x5D6 JUMP JUMPDEST PUSH1 0x40 MLOAD DUP1 SWAP2 SUB SWAP1 REVERT JUMPDEST PUSH0 PUSH20 0xFFFFFFFFFFFFFFFFFFFFFFFFFFFFFFFFFFFFFFFF AND DUP3 PUSH20 0xFFFFFFFFFFFFFFFFFFFFFFFFFFFFFFFFFFFFFFFF AND SUB PUSH2 0x20C JUMPI PUSH1 0x40 MLOAD PUSH32 0x8C379A000000000000000000000000000000000000000000000000000000000 DUP2 MSTORE PUSH1 0x4 ADD PUSH2 0x203 SWAP1 PUSH2 0x63E JUMP JUMPDEST PUSH1 0x40 MLOAD DUP1 SWAP2 SUB SWAP1 REVERT JUMPDEST PUSH0 PUSH1 0x2 PUSH0 DUP2 SLOAD DUP1 SWAP3 SWAP2 SWAP1 PUSH2 0x21F SWAP1 PUSH2 0x689 JUMP JUMPDEST SWAP2 SWAP1 POP SSTORE SWAP1 POP PUSH0 PUSH1 0x1 PUSH0 DUP4 DUP2 MSTORE PUSH1 0x20 ADD SWAP1 DUP2 MSTORE PUSH1 0x20 ADD PUSH0 KECCAK256 SWAP1 POP DUP2 DUP2 PUSH0 ADD DUP2 SWAP1 SSTORE POP CALLER DUP2 PUSH1 0x1 ADD PUSH0 PUSH2 0x100 EXP DUP2 SLOAD DUP2 PUSH20 0xFFFFFFFFFFFFFFFFFFFFFFFFFFFFFFFFFFFFFFFF MUL NOT AND SWAP1 DUP4 PUSH20 0xFFFFFFFFFFFFFFFFFFFFFFFFFFFFFFFFFFFFFFFF AND MUL OR SWAP1 SSTORE POP DUP4 DUP2 PUSH1 0x2 ADD PUSH0 PUSH2 0x100 EXP DUP2 SLOAD DUP2 PUSH20 0xFFFFFFFFFFFFFFFFFFFFFFFFFFFFFFFFFFFFFFFF MUL NOT AND SWAP1 DUP4 PUSH20 0xFFFFFFFFFFFFFFFFFFFFFFFFFFFFFFFFFFFFFFFF AND MUL OR SWAP1 SSTORE POP CALLVALUE DUP2 PUSH1 0x3 ADD DUP2 SWAP1 SSTORE POP TIMESTAMP DUP2 PUSH1 0x4 ADD DUP2 SWAP1 SSTORE POP PUSH0 DUP2 PUSH1 0x6 ADD PUSH0 PUSH2 0x100 EXP DUP2 SLOAD DUP2 PUSH1 0xFF MUL NOT AND SWAP1 DUP4 PUSH1 0x2 DUP2 GT ISZERO PUSH2 0x2FD JUMPI PUSH2 0x2FC PUSH2 0x408 JUMP JUMPDEST JUMPDEST MUL OR SWAP1 SSTORE POP PUSH0 DUP2 PUSH1 0x5 ADD DUP2 SWAP1 SSTORE POP PUSH32 0xF25B36E397803CCB0EF290F8C7ABF7082E06D27D60A68C4A94D5F1FD08E67860 DUP3 CALLER DUP7 CALLVALUE PUSH1 0x40 MLOAD PUSH2 0x340 SWAP5 SWAP4 SWAP3 SWAP2 SWAP1 PUSH2 0x7BB JUMP JUMPDEST PUSH1 0x40 MLOAD DUP1 SWAP2 SUB SWAP1 LOG1 DUP2 SWAP3 POP POP POP SWAP2 SWAP1 POP JUMP JUMPDEST PUSH1 0x2 SLOAD DUP2 JUMP JUMPDEST PUSH0 PUSH0 REVERT JUMPDEST PUSH0 DUP2 SWAP1 POP SWAP2 SWAP1 POP JUMP JUMPDEST PUSH2 0x36E DUP2 PUSH2 0x35C JUMP JUMPDEST DUP2 EQ PUSH2 0x378 JUMPI PUSH0 PUSH0 REVERT JUMPDEST POP JUMP JUMPDEST PUSH0 DUP2 CALLDATALOAD SWAP1 POP PUSH2 0x389 DUP2 PUSH2 0x365 JUMP JUMPDEST SWAP3 SWAP2 POP POP JUMP JUMPDEST PUSH0 PUSH1 0x20 DUP3 DUP5 SUB SLT ISZERO PUSH2 0x3A4 JUMPI PUSH2 0x3A3 PUSH2 0x358 JUMP JUMPDEST JUMPDEST PUSH0 PUSH2 0x3B1 DUP5 DUP3 DUP6 ADD PUSH2 0x37B JUMP JUMPDEST SWAP2 POP POP SWAP3 SWAP2 POP POP JUMP JUMPDEST PUSH2 0x3C3 DUP2 PUSH2 0x35C JUMP JUMPDEST DUP3 MSTORE POP POP JUMP JUMPDEST PUSH0 PUSH20 0xFFFFFFFFFFFFFFFFFFFFFFFFFFFFFFFFFFFFFFFF DUP3 AND SWAP1 POP SWAP2 SWAP1 POP JUMP JUMPDEST PUSH0 PUSH2 0x3F2 DUP3 PUSH2 0x3C9 JUMP JUMPDEST SWAP1 POP SWAP2 SWAP1 POP JUMP JUMPDEST PUSH2 0x402 DUP2 PUSH2 0x3E8 JUMP JUMPDEST DUP3 MSTORE POP POP JUMP JUMPDEST PUSH32 0x4E487B7100000000000000000000000000000000000000000000000000000000 PUSH0 MSTORE PUSH1 0x21 PUSH1 0x4 MSTORE PUSH1 0x24 PUSH0 REVERT JUMPDEST PUSH1 0x3 DUP2 LT PUSH2 0x446 JUMPI PUSH2 0x445 PUSH2 0x408 JUMP JUMPDEST JUMPDEST POP JUMP JUMPDEST PUSH0 DUP2 SWAP1 POP PUSH2 0x456 DUP3 PUSH2 0x435 JUMP JUMPDEST SWAP2 SWAP1 POP JUMP JUMPDEST PUSH0 PUSH2 0x465 DUP3 PUSH2 0x449 JUMP JUMPDEST SWAP1 POP SWAP2 SWAP1 POP JUMP JUMPDEST PUSH2 0x475 DUP2 PUSH2 0x45B JUMP JUMPDEST DUP3 MSTORE POP POP JUMP JUMPDEST PUSH0 PUSH1 0xE0 DUP3 ADD SWAP1 POP PUSH2 0x48E PUSH0 DUP4 ADD DUP11 PUSH2 0x3BA JUMP JUMPDEST PUSH2 0x49B PUSH1 0x20 DUP4 ADD DUP10 PUSH2 0x3F9 JUMP JUMPDEST PUSH2 0x4A8 PUSH1 0x40 DUP4 ADD DUP9 PUSH2 0x3F9 JUMP JUMPDEST PUSH2 0x4B5 PUSH1 0x60 DUP4 ADD DUP8 PUSH2 0x3BA JUMP JUMPDEST PUSH2 0x4C2 PUSH1 0x80 DUP4 ADD DUP7 PUSH2 0x3BA JUMP JUMPDEST PUSH2 0x4CF PUSH1 0xA0 DUP4 ADD DUP6 PUSH2 0x3BA JUMP JUMPDEST PUSH2 0x4DC PUSH1 0xC0 DUP4 ADD DUP5 PUSH2 0x46C JUMP JUMPDEST SWAP9 SWAP8 POP POP POP POP POP POP POP POP JUMP JUMPDEST PUSH2 0x4F1 DUP2 PUSH2 0x3E8 JUMP JUMPDEST DUP2 EQ PUSH2 0x4FB JUMPI PUSH0 PUSH0 REVERT JUMPDEST POP JUMP JUMPDEST PUSH0 DUP2 CALLDATALOAD SWAP1 POP PUSH2 0x50C DUP2 PUSH2 0x4E8 JUMP JUMPDEST SWAP3 SWAP2 POP POP JUMP JUMPDEST PUSH0 PUSH1 0x20 DUP3 DUP5 SUB SLT ISZERO PUSH2 0x527 JUMPI PUSH2 0x526 PUSH2 0x358 JUMP JUMPDEST JUMPDEST PUSH0 PUSH2 0x534 DUP5 DUP3 DUP6 ADD PUSH2 0x4FE JUMP JUMPDEST SWAP2 POP POP SWAP3 SWAP2 POP POP JUMP JUMPDEST PUSH0 PUSH1 0x20 DUP3 ADD SWAP1 POP PUSH2 0x550 PUSH0 DUP4 ADD DUP5 PUSH2 0x3BA JUMP JUMPDEST SWAP3 SWAP2 POP POP JUMP JUMPDEST PUSH0 DUP3 DUP3 MSTORE PUSH1 0x20 DUP3 ADD SWAP1 POP SWAP3 SWAP2 POP POP JUMP JUMPDEST PUSH32 0x496E76616C696420616D6F756E742C206D757374206265206772656174657220 PUSH0 DUP3 ADD MSTORE PUSH32 0x7468616E20300000000000000000000000000000000000000000000000000000 PUSH1 0x20 DUP3 ADD MSTORE POP JUMP JUMPDEST PUSH0 PUSH2 0x5C0 PUSH1 0x26 DUP4 PUSH2 0x556 JUMP JUMPDEST SWAP2 POP PUSH2 0x5CB DUP3 PUSH2 0x566 JUMP JUMPDEST PUSH1 0x40 DUP3 ADD SWAP1 POP SWAP2 SWAP1 POP JUMP JUMPDEST PUSH0 PUSH1 0x20 DUP3 ADD SWAP1 POP DUP2 DUP2 SUB PUSH0 DUP4 ADD MSTORE PUSH2 0x5ED DUP2 PUSH2 0x5B4 JUMP JUMPDEST SWAP1 POP SWAP2 SWAP1 POP JUMP JUMPDEST PUSH32 0x496E76616C696420616464726573730000000000000000000000000000000000 PUSH0 DUP3 ADD MSTORE POP JUMP JUMPDEST PUSH0 PUSH2 0x628 PUSH1 0xF DUP4 PUSH2 0x556 JUMP JUMPDEST SWAP2 POP PUSH2 0x633 DUP3 PUSH2 0x5F4 JUMP JUMPDEST PUSH1 0x20 DUP3 ADD SWAP1 POP SWAP2 SWAP1 POP JUMP JUMPDEST PUSH0 PUSH1 0x20 DUP3 ADD SWAP1 POP DUP2 DUP2 SUB PUSH0 DUP4 ADD MSTORE PUSH2 0x655 DUP2 PUSH2 0x61C JUMP JUMPDEST SWAP1 POP SWAP2 SWAP1 POP JUMP JUMPDEST PUSH32 0x4E487B7100000000000000000000000000000000000000000000000000000000 PUSH0 MSTORE PUSH1 0x11 PUSH1 0x4 MSTORE PUSH1 0x24 PUSH0 REVERT JUMPDEST PUSH0 PUSH2 0x693 DUP3 PUSH2 0x35C JUMP JUMPDEST SWAP2 POP PUSH32 0xFFFFFFFFFFFFFFFFFFFFFFFFFFFFFFFFFFFFFFFFFFFFFFFFFFFFFFFFFFFFFFFF DUP3 SUB PUSH2 0x6C5 JUMPI PUSH2 0x6C4 PUSH2 0x65C JUMP JUMPDEST JUMPDEST PUSH1 0x1 DUP3 ADD SWAP1 POP SWAP2 SWAP1 POP JUMP JUMPDEST PUSH0 PUSH2 0x6DA DUP3 PUSH2 0x3C9 JUMP JUMPDEST SWAP1 POP SWAP2 SWAP1 POP JUMP JUMPDEST PUSH2 0x6EA DUP2 PUSH2 0x6D0 JUMP JUMPDEST DUP3 MSTORE POP POP JUMP JUMPDEST PUSH0 DUP2 SWAP1 POP SWAP2 SWAP1 POP JUMP JUMPDEST PUSH0 PUSH2 0x713 PUSH2 0x70E PUSH2 0x709 DUP5 PUSH2 0x3C9 JUMP JUMPDEST PUSH2 0x6F0 JUMP JUMPDEST PUSH2 0x3C9 JUMP JUMPDEST SWAP1 POP SWAP2 SWAP1 POP JUMP JUMPDEST PUSH0 PUSH2 0x724 DUP3 PUSH2 0x6F9 JUMP JUMPDEST SWAP1 POP SWAP2 SWAP1 POP JUMP JUMPDEST PUSH0 PUSH2 0x735 DUP3 PUSH2 0x71A JUMP JUMPDEST SWAP1 POP SWAP2 SWAP1 POP JUMP JUMPDEST PUSH2 0x745 DUP2 PUSH2 0x72B JUMP JUMPDEST DUP3 MSTORE POP POP JUMP JUMPDEST PUSH32 0x53656E64696E6720657363726F7720696420706C65617365206B656570206974 PUSH0 DUP3 ADD MSTORE PUSH32 0x2073616665000000000000000000000000000000000000000000000000000000 PUSH1 0x20 DUP3 ADD MSTORE POP JUMP JUMPDEST PUSH0 PUSH2 0x7A5 PUSH1 0x25 DUP4 PUSH2 0x556 JUMP JUMPDEST SWAP2 POP PUSH2 0x7B0 DUP3 PUSH2 0x74B JUMP JUMPDEST PUSH1 0x40 DUP3 ADD SWAP1 POP SWAP2 SWAP1 POP JUMP JUMPDEST PUSH0 PUSH1 0xA0 DUP3 ADD SWAP1 POP PUSH2 0x7CE PUSH0 DUP4 ADD DUP8 PUSH2 0x3BA JUMP JUMPDEST PUSH2 0x7DB PUSH1 0x20 DUP4 ADD DUP7 PUSH2 0x6E1 JUMP JUMPDEST PUSH2 0x7E8 PUSH1 0x40 DUP4 ADD DUP6 PUSH2 0x73C JUMP JUMPDEST PUSH2 0x7F5 PUSH1 0x60 DUP4 ADD DUP5 PUSH2 0x3BA JUMP JUMPDEST DUP2 DUP2 SUB PUSH1 0x80 DUP4 ADD MSTORE PUSH2 0x806 DUP2 PUSH2 0x799 JUMP JUMPDEST SWAP1 POP SWAP6 SWAP5 POP POP POP POP POP JUMP INVALID LOG2 PUSH5 0x6970667358 0x22 SLT KECCAK256 0xC0 0x4E RETF DIV MULMOD BYTE BLOBHASH SWAPN 0x8B PUSH11 0x2558B2117A534C5723A677 0xDB PUSH14 0x6619F54C9D2897512864736F6C63 NUMBER STOP ADDMOD 0x1F STOP CALLER "
				},
				"gasEstimates": {
					"creation": {
						"codeDepositCost": "423800",
						"executionCost": "24723",
						"totalCost": "448523"
					},
					"external": {
						"deposit(address)": "infinite",
						"escrowTxn(uint256)": "infinite",
						"escrowTxnCount()": "2447"
					}
				},
				"methodIdentifiers": {
					"deposit(address)": "f340fa01",
					"escrowTxn(uint256)": "d67f205f",
					"escrowTxnCount()": "f62659b3"
				}
			},
			"storageLayout": {
				"storage": [
					{
						"astId": 3,
						"contract": "contracts/my_contracts/payment_escrow.sol:Escrow",
						"label": "owner",
						"offset": 0,
						"slot": "0",
						"type": "t_address"
					},
					{
						"astId": 8,
						"contract": "contracts/my_contracts/payment_escrow.sol:Escrow",
						"label": "escrowTxn",
						"offset": 0,
						"slot": "1",
						"type": "t_mapping(t_uint256,t_struct(EscrowTxn)59_storage)"
					},
					{
						"astId": 10,
						"contract": "contracts/my_contracts/payment_escrow.sol:Escrow",
						"label": "escrowTxnCount",
						"offset": 0,
						"slot": "2",
						"type": "t_uint256"
					}
				],
				"types": {
					"t_address": {
						"encoding": "inplace",
						"label": "address",
						"numberOfBytes": "20"
					},
					"t_address_payable": {
						"encoding": "inplace",
						"label": "address payable",
						"numberOfBytes": "20"
					},
					"t_enum(Status)43": {
						"encoding": "inplace",
						"label": "enum Escrow.Status",
						"numberOfBytes": "1"
					},
					"t_mapping(t_uint256,t_struct(EscrowTxn)59_storage)": {
						"encoding": "mapping",
						"key": "t_uint256",
						"label": "mapping(uint256 => struct Escrow.EscrowTxn)",
						"numberOfBytes": "32",
						"value": "t_struct(EscrowTxn)59_storage"
					},
					"t_struct(EscrowTxn)59_storage": {
						"encoding": "inplace",
						"label": "struct Escrow.EscrowTxn",
						"members": [
							{
								"astId": 45,
								"contract": "contracts/my_contracts/payment_escrow.sol:Escrow",
								"label": "id",
								"offset": 0,
								"slot": "0",
								"type": "t_uint256"
							},
							{
								"astId": 47,
								"contract": "contracts/my_contracts/payment_escrow.sol:Escrow",
								"label": "depositer",
								"offset": 0,
								"slot": "1",
								"type": "t_address_payable"
							},
							{
								"astId": 49,
								"contract": "contracts/my_contracts/payment_escrow.sol:Escrow",
								"label": "recipient",
								"offset": 0,
								"slot": "2",
								"type": "t_address_payable"
							},
							{
								"astId": 51,
								"contract": "contracts/my_contracts/payment_escrow.sol:Escrow",
								"label": "blockedAmount",
								"offset": 0,
								"slot": "3",
								"type": "t_uint256"
							},
							{
								"astId": 53,
								"contract": "contracts/my_contracts/payment_escrow.sol:Escrow",
								"label": "timeStamp",
								"offset": 0,
								"slot": "4",
								"type": "t_uint256"
							},
							{
								"astId": 55,
								"contract": "contracts/my_contracts/payment_escrow.sol:Escrow",
								"label": "completeTimeStamp",
								"offset": 0,
								"slot": "5",
								"type": "t_uint256"
							},
							{
								"astId": 58,
								"contract": "contracts/my_contracts/payment_escrow.sol:Escrow",
								"label": "status",
								"offset": 0,
								"slot": "6",
								"type": "t_enum(Status)43"
							}
						],
						"numberOfBytes": "224"
					},
					"t_uint256": {
						"encoding": "inplace",
						"label": "uint256",
						"numberOfBytes": "32"
					}
				}
			},
			"userdoc": {
				"kind": "user",
				"methods": {},
				"version": 1
			}
		}
	}
}