{
	"contracts/Proxy deployment contracts/TestProxyImpl.sol": {
		"TestToken": {
			"abi": [
				{
					"inputs": [
						{
							"internalType": "uint256",
							"name": "increasedSupply",
							"type": "uint256"
						},
						{
							"internalType": "uint256",
							"name": "cap",
							"type": "uint256"
						}
					],
					"name": "ERC20ExceededCap",
					"type": "error"
				},
				{
					"inputs": [
						{
							"internalType": "address",
							"name": "spender",
							"type": "address"
						},
						{
							"internalType": "uint256",
							"name": "allowance",
							"type": "uint256"
						},
						{
							"internalType": "uint256",
							"name": "needed",
							"type": "uint256"
						}
					],
					"name": "ERC20InsufficientAllowance",
					"type": "error"
				},
				{
					"inputs": [
						{
							"internalType": "address",
							"name": "sender",
							"type": "address"
						},
						{
							"internalType": "uint256",
							"name": "balance",
							"type": "uint256"
						},
						{
							"internalType": "uint256",
							"name": "needed",
							"type": "uint256"
						}
					],
					"name": "ERC20InsufficientBalance",
					"type": "error"
				},
				{
					"inputs": [
						{
							"internalType": "address",
							"name": "approver",
							"type": "address"
						}
					],
					"name": "ERC20InvalidApprover",
					"type": "error"
				},
				{
					"inputs": [
						{
							"internalType": "uint256",
							"name": "cap",
							"type": "uint256"
						}
					],
					"name": "ERC20InvalidCap",
					"type": "error"
				},
				{
					"inputs": [
						{
							"internalType": "address",
							"name": "receiver",
							"type": "address"
						}
					],
					"name": "ERC20InvalidReceiver",
					"type": "error"
				},
				{
					"inputs": [
						{
							"internalType": "address",
							"name": "sender",
							"type": "address"
						}
					],
					"name": "ERC20InvalidSender",
					"type": "error"
				},
				{
					"inputs": [
						{
							"internalType": "address",
							"name": "spender",
							"type": "address"
						}
					],
					"name": "ERC20InvalidSpender",
					"type": "error"
				},
				{
					"inputs": [],
					"name": "InvalidInitialization",
					"type": "error"
				},
				{
					"inputs": [],
					"name": "NotInitializing",
					"type": "error"
				},
				{
					"inputs": [
						{
							"internalType": "address",
							"name": "owner",
							"type": "address"
						}
					],
					"name": "OwnableInvalidOwner",
					"type": "error"
				},
				{
					"inputs": [
						{
							"internalType": "address",
							"name": "account",
							"type": "address"
						}
					],
					"name": "OwnableUnauthorizedAccount",
					"type": "error"
				},
				{
					"inputs": [],
					"name": "ReentrancyGuardReentrantCall",
					"type": "error"
				},
				{
					"anonymous": false,
					"inputs": [
						{
							"indexed": true,
							"internalType": "address",
							"name": "owner",
							"type": "address"
						},
						{
							"indexed": true,
							"internalType": "address",
							"name": "spender",
							"type": "address"
						},
						{
							"indexed": false,
							"internalType": "uint256",
							"name": "value",
							"type": "uint256"
						}
					],
					"name": "Approval",
					"type": "event"
				},
				{
					"anonymous": false,
					"inputs": [
						{
							"indexed": false,
							"internalType": "uint64",
							"name": "version",
							"type": "uint64"
						}
					],
					"name": "Initialized",
					"type": "event"
				},
				{
					"anonymous": false,
					"inputs": [
						{
							"indexed": true,
							"internalType": "address",
							"name": "previousOwner",
							"type": "address"
						},
						{
							"indexed": true,
							"internalType": "address",
							"name": "newOwner",
							"type": "address"
						}
					],
					"name": "OwnershipTransferStarted",
					"type": "event"
				},
				{
					"anonymous": false,
					"inputs": [
						{
							"indexed": true,
							"internalType": "address",
							"name": "previousOwner",
							"type": "address"
						},
						{
							"indexed": true,
							"internalType": "address",
							"name": "newOwner",
							"type": "address"
						}
					],
					"name": "OwnershipTransferred",
					"type": "event"
				},
				{
					"anonymous": false,
					"inputs": [
						{
							"indexed": true,
							"internalType": "address",
							"name": "from",
							"type": "address"
						},
						{
							"indexed": true,
							"internalType": "address",
							"name": "to",
							"type": "address"
						},
						{
							"indexed": false,
							"internalType": "uint256",
							"name": "value",
							"type": "uint256"
						}
					],
					"name": "Transfer",
					"type": "event"
				},
				{
					"inputs": [],
					"name": "VERSION",
					"outputs": [
						{
							"internalType": "string",
							"name": "",
							"type": "string"
						}
					],
					"stateMutability": "view",
					"type": "function"
				},
				{
					"inputs": [],
					"name": "acceptOwnership",
					"outputs": [],
					"stateMutability": "nonpayable",
					"type": "function"
				},
				{
					"inputs": [
						{
							"internalType": "address",
							"name": "owner",
							"type": "address"
						},
						{
							"internalType": "address",
							"name": "spender",
							"type": "address"
						}
					],
					"name": "allowance",
					"outputs": [
						{
							"internalType": "uint256",
							"name": "",
							"type": "uint256"
						}
					],
					"stateMutability": "view",
					"type": "function"
				},
				{
					"inputs": [
						{
							"internalType": "address",
							"name": "spender",
							"type": "address"
						},
						{
							"internalType": "uint256",
							"name": "value",
							"type": "uint256"
						}
					],
					"name": "approve",
					"outputs": [
						{
							"internalType": "bool",
							"name": "",
							"type": "bool"
						}
					],
					"stateMutability": "nonpayable",
					"type": "function"
				},
				{
					"inputs": [
						{
							"internalType": "address",
							"name": "account",
							"type": "address"
						}
					],
					"name": "balanceOf",
					"outputs": [
						{
							"internalType": "uint256",
							"name": "",
							"type": "uint256"
						}
					],
					"stateMutability": "view",
					"type": "function"
				},
				{
					"inputs": [
						{
							"internalType": "uint256",
							"name": "amount",
							"type": "uint256"
						}
					],
					"name": "burn",
					"outputs": [],
					"stateMutability": "nonpayable",
					"type": "function"
				},
				{
					"inputs": [],
					"name": "cap",
					"outputs": [
						{
							"internalType": "uint256",
							"name": "",
							"type": "uint256"
						}
					],
					"stateMutability": "view",
					"type": "function"
				},
				{
					"inputs": [],
					"name": "decimals",
					"outputs": [
						{
							"internalType": "uint8",
							"name": "",
							"type": "uint8"
						}
					],
					"stateMutability": "view",
					"type": "function"
				},
				{
					"inputs": [
						{
							"internalType": "string",
							"name": "tokenName",
							"type": "string"
						},
						{
							"internalType": "string",
							"name": "tokenSymbol",
							"type": "string"
						},
						{
							"internalType": "uint256",
							"name": "capp",
							"type": "uint256"
						},
						{
							"internalType": "uint256",
							"name": "initialAmount",
							"type": "uint256"
						},
						{
							"internalType": "address",
							"name": "owner",
							"type": "address"
						}
					],
					"name": "initialize",
					"outputs": [],
					"stateMutability": "nonpayable",
					"type": "function"
				},
				{
					"inputs": [
						{
							"internalType": "address",
							"name": "to",
							"type": "address"
						},
						{
							"internalType": "uint256",
							"name": "amount",
							"type": "uint256"
						}
					],
					"name": "mint",
					"outputs": [],
					"stateMutability": "nonpayable",
					"type": "function"
				},
				{
					"inputs": [],
					"name": "name",
					"outputs": [
						{
							"internalType": "string",
							"name": "",
							"type": "string"
						}
					],
					"stateMutability": "view",
					"type": "function"
				},
				{
					"inputs": [],
					"name": "owner",
					"outputs": [
						{
							"internalType": "address",
							"name": "",
							"type": "address"
						}
					],
					"stateMutability": "view",
					"type": "function"
				},
				{
					"inputs": [],
					"name": "pendingOwner",
					"outputs": [
						{
							"internalType": "address",
							"name": "",
							"type": "address"
						}
					],
					"stateMutability": "view",
					"type": "function"
				},
				{
					"inputs": [],
					"name": "renounceOwnership",
					"outputs": [],
					"stateMutability": "nonpayable",
					"type": "function"
				},
				{
					"inputs": [],
					"name": "symbol",
					"outputs": [
						{
							"internalType": "string",
							"name": "",
							"type": "string"
						}
					],
					"stateMutability": "view",
					"type": "function"
				},
				{
					"inputs": [],
					"name": "totalSupply",
					"outputs": [
						{
							"internalType": "uint256",
							"name": "",
							"type": "uint256"
						}
					],
					"stateMutability": "view",
					"type": "function"
				},
				{
					"inputs": [
						{
							"internalType": "address",
							"name": "to",
							"type": "address"
						},
						{
							"internalType": "uint256",
							"name": "value",
							"type": "uint256"
						}
					],
					"name": "transfer",
					"outputs": [
						{
							"internalType": "bool",
							"name": "",
							"type": "bool"
						}
					],
					"stateMutability": "nonpayable",
					"type": "function"
				},
				{
					"inputs": [
						{
							"internalType": "address",
							"name": "from",
							"type": "address"
						},
						{
							"internalType": "address",
							"name": "to",
							"type": "address"
						},
						{
							"internalType": "uint256",
							"name": "value",
							"type": "uint256"
						}
					],
					"name": "transferFrom",
					"outputs": [
						{
							"internalType": "bool",
							"name": "",
							"type": "bool"
						}
					],
					"stateMutability": "nonpayable",
					"type": "function"
				},
				{
					"inputs": [
						{
							"internalType": "address",
							"name": "newOwner",
							"type": "address"
						}
					],
					"name": "transferOwnership",
					"outputs": [],
					"stateMutability": "nonpayable",
					"type": "function"
				},
				{
					"inputs": [],
					"name": "version",
					"outputs": [
						{
							"internalType": "string",
							"name": "",
							"type": "string"
						}
					],
					"stateMutability": "pure",
					"type": "function"
				}
			],
			"devdoc": {
				"errors": {
					"ERC20ExceededCap(uint256,uint256)": [
						{
							"details": "Total supply cap has been exceeded."
						}
					],
					"ERC20InsufficientAllowance(address,uint256,uint256)": [
						{
							"details": "Indicates a failure with the `spender`’s `allowance`. Used in transfers.",
							"params": {
								"allowance": "Amount of tokens a `spender` is allowed to operate with.",
								"needed": "Minimum amount required to perform a transfer.",
								"spender": "Address that may be allowed to operate on tokens without being their owner."
							}
						}
					],
					"ERC20InsufficientBalance(address,uint256,uint256)": [
						{
							"details": "Indicates an error related to the current `balance` of a `sender`. Used in transfers.",
							"params": {
								"balance": "Current balance for the interacting account.",
								"needed": "Minimum amount required to perform a transfer.",
								"sender": "Address whose tokens are being transferred."
							}
						}
					],
					"ERC20InvalidApprover(address)": [
						{
							"details": "Indicates a failure with the `approver` of a token to be approved. Used in approvals.",
							"params": {
								"approver": "Address initiating an approval operation."
							}
						}
					],
					"ERC20InvalidCap(uint256)": [
						{
							"details": "The supplied cap is not a valid cap."
						}
					],
					"ERC20InvalidReceiver(address)": [
						{
							"details": "Indicates a failure with the token `receiver`. Used in transfers.",
							"params": {
								"receiver": "Address to which tokens are being transferred."
							}
						}
					],
					"ERC20InvalidSender(address)": [
						{
							"details": "Indicates a failure with the token `sender`. Used in transfers.",
							"params": {
								"sender": "Address whose tokens are being transferred."
							}
						}
					],
					"ERC20InvalidSpender(address)": [
						{
							"details": "Indicates a failure with the `spender` to be approved. Used in approvals.",
							"params": {
								"spender": "Address that may be allowed to operate on tokens without being their owner."
							}
						}
					],
					"InvalidInitialization()": [
						{
							"details": "The contract is already initialized."
						}
					],
					"NotInitializing()": [
						{
							"details": "The contract is not initializing."
						}
					],
					"OwnableInvalidOwner(address)": [
						{
							"details": "The owner is not a valid owner account. (eg. `address(0)`)"
						}
					],
					"OwnableUnauthorizedAccount(address)": [
						{
							"details": "The caller account is not authorized to perform an operation."
						}
					],
					"ReentrancyGuardReentrantCall()": [
						{
							"details": "Unauthorized reentrant call."
						}
					]
				},
				"events": {
					"Approval(address,address,uint256)": {
						"details": "Emitted when the allowance of a `spender` for an `owner` is set by a call to {approve}. `value` is the new allowance."
					},
					"Initialized(uint64)": {
						"details": "Triggered when the contract has been initialized or reinitialized."
					},
					"Transfer(address,address,uint256)": {
						"details": "Emitted when `value` tokens are moved from one account (`from`) to another (`to`). Note that `value` may be zero."
					}
				},
				"kind": "dev",
				"methods": {
					"acceptOwnership()": {
						"details": "The new owner accepts the ownership transfer."
					},
					"allowance(address,address)": {
						"details": "Returns the remaining number of tokens that `spender` will be allowed to spend on behalf of `owner` through {transferFrom}. This is zero by default. This value changes when {approve} or {transferFrom} are called."
					},
					"approve(address,uint256)": {
						"details": "See {IERC20-approve}. NOTE: If `value` is the maximum `uint256`, the allowance is not updated on `transferFrom`. This is semantically equivalent to an infinite approval. Requirements: - `spender` cannot be the zero address."
					},
					"balanceOf(address)": {
						"details": "Returns the value of tokens owned by `account`."
					},
					"cap()": {
						"details": "Returns the cap on the token's total supply."
					},
					"decimals()": {
						"details": "Returns the number of decimals used to get its user representation. For example, if `decimals` equals `2`, a balance of `505` tokens should be displayed to a user as `5.05` (`505 / 10 ** 2`). Tokens usually opt for a value of 18, imitating the relationship between Ether and Wei. This is the default value returned by this function, unless it's overridden. NOTE: This information is only used for _display_ purposes: it in no way affects any of the arithmetic of the contract, including {IERC20-balanceOf} and {IERC20-transfer}."
					},
					"name()": {
						"details": "Returns the name of the token."
					},
					"owner()": {
						"details": "Returns the address of the current owner."
					},
					"pendingOwner()": {
						"details": "Returns the address of the pending owner."
					},
					"renounceOwnership()": {
						"details": "Leaves the contract without owner. It will not be possible to call `onlyOwner` functions. Can only be called by the current owner. NOTE: Renouncing ownership will leave the contract without an owner, thereby disabling any functionality that is only available to the owner."
					},
					"symbol()": {
						"details": "Returns the symbol of the token, usually a shorter version of the name."
					},
					"totalSupply()": {
						"details": "Returns the value of tokens in existence."
					},
					"transfer(address,uint256)": {
						"details": "See {IERC20-transfer}. Requirements: - `to` cannot be the zero address. - the caller must have a balance of at least `value`."
					},
					"transferFrom(address,address,uint256)": {
						"details": "See {IERC20-transferFrom}. Skips emitting an {Approval} event indicating an allowance update. This is not required by the ERC. See {xref-ERC20-_approve-address-address-uint256-bool-}[_approve]. NOTE: Does not update the allowance if the current allowance is the maximum `uint256`. Requirements: - `from` and `to` cannot be the zero address. - `from` must have a balance of at least `value`. - the caller must have allowance for ``from``'s tokens of at least `value`."
					},
					"transferOwnership(address)": {
						"details": "Starts the ownership transfer of the contract to a new account. Replaces the pending transfer if there is one. Can only be called by the current owner. Setting `newOwner` to the zero address is allowed; this can be used to cancel an initiated ownership transfer."
					}
				},
				"version": 1
			},
			"evm": {
				"assembly": "    /* \"contracts/Proxy deployment contracts/TestProxyImpl.sol\":483:1943  contract TestToken is... */\n  mstore(0x40, 0x80)\n  callvalue\n  dup1\n  iszero\n  tag_1\n  jumpi\n  revert(0x00, 0x00)\ntag_1:\n  pop\n  dataSize(sub_0)\n  dup1\n  dataOffset(sub_0)\n  0x00\n  codecopy\n  0x00\n  return\nstop\n\nsub_0: assembly {\n        /* \"contracts/Proxy deployment contracts/TestProxyImpl.sol\":483:1943  contract TestToken is... */\n      mstore(0x40, 0x80)\n      callvalue\n      dup1\n      iszero\n      tag_1\n      jumpi\n      revert(0x00, 0x00)\n    tag_1:\n      pop\n      jumpi(tag_2, lt(calldatasize, 0x04))\n      shr(0xe0, calldataload(0x00))\n      dup1\n      0x70a08231\n      gt\n      tag_23\n      jumpi\n      dup1\n      0xa9059cbb\n      gt\n      tag_24\n      jumpi\n      dup1\n      0xa9059cbb\n      eq\n      tag_18\n      jumpi\n      dup1\n      0xdd62ed3e\n      eq\n      tag_19\n      jumpi\n      dup1\n      0xe30c3978\n      eq\n      tag_20\n      jumpi\n      dup1\n      0xf2fde38b\n      eq\n      tag_21\n      jumpi\n      dup1\n      0xffa1ad74\n      eq\n      tag_22\n      jumpi\n      jump(tag_2)\n    tag_24:\n      dup1\n      0x70a08231\n      eq\n      tag_13\n      jumpi\n      dup1\n      0x715018a6\n      eq\n      tag_14\n      jumpi\n      dup1\n      0x79ba5097\n      eq\n      tag_15\n      jumpi\n      dup1\n      0x8da5cb5b\n      eq\n      tag_16\n      jumpi\n      dup1\n      0x95d89b41\n      eq\n      tag_17\n      jumpi\n      jump(tag_2)\n    tag_23:\n      dup1\n      0x33eea181\n      gt\n      tag_25\n      jumpi\n      dup1\n      0x33eea181\n      eq\n      tag_8\n      jumpi\n      dup1\n      0x355274ea\n      eq\n      tag_9\n      jumpi\n      dup1\n      0x40c10f19\n      eq\n      tag_10\n      jumpi\n      dup1\n      0x42966c68\n      eq\n      tag_11\n      jumpi\n      dup1\n      0x54fd4d50\n      eq\n      tag_12\n      jumpi\n      jump(tag_2)\n    tag_25:\n      dup1\n      0x06fdde03\n      eq\n      tag_3\n      jumpi\n      dup1\n      0x095ea7b3\n      eq\n      tag_4\n      jumpi\n      dup1\n      0x18160ddd\n      eq\n      tag_5\n      jumpi\n      dup1\n      0x23b872dd\n      eq\n      tag_6\n      jumpi\n      dup1\n      0x313ce567\n      eq\n      tag_7\n      jumpi\n    tag_2:\n      revert(0x00, 0x00)\n        /* \"@openzeppelin/contracts-upgradeable/token/ERC20/ERC20Upgradeable.sol\":2697:2841  function name() public view virtual returns (string memory) {... */\n    tag_3:\n      tag_26\n      tag_27\n      jump\t// in\n    tag_26:\n      mload(0x40)\n      tag_28\n      swap2\n      swap1\n      tag_29\n      jump\t// in\n    tag_28:\n      mload(0x40)\n      dup1\n      swap2\n      sub\n      swap1\n      return\n        /* \"@openzeppelin/contracts-upgradeable/token/ERC20/ERC20Upgradeable.sol\":5114:5300  function approve(address spender, uint256 value) public virtual returns (bool) {... */\n    tag_4:\n      tag_30\n      0x04\n      dup1\n      calldatasize\n      sub\n      dup2\n      add\n      swap1\n      tag_31\n      swap2\n      swap1\n      tag_32\n      jump\t// in\n    tag_31:\n      tag_33\n      jump\t// in\n    tag_30:\n      mload(0x40)\n      tag_34\n      swap2\n      swap1\n      tag_35\n      jump\t// in\n    tag_34:\n      mload(0x40)\n      dup1\n      swap2\n      sub\n      swap1\n      return\n        /* \"@openzeppelin/contracts-upgradeable/token/ERC20/ERC20Upgradeable.sol\":3850:4002  function totalSupply() public view virtual returns (uint256) {... */\n    tag_5:\n      tag_36\n      tag_37\n      jump\t// in\n    tag_36:\n      mload(0x40)\n      tag_38\n      swap2\n      swap1\n      tag_39\n      jump\t// in\n    tag_38:\n      mload(0x40)\n      dup1\n      swap2\n      sub\n      swap1\n      return\n        /* \"@openzeppelin/contracts-upgradeable/token/ERC20/ERC20Upgradeable.sol\":5892:6136  function transferFrom(address from, address to, uint256 value) public virtual returns (bool) {... */\n    tag_6:\n      tag_40\n      0x04\n      dup1\n      calldatasize\n      sub\n      dup2\n      add\n      swap1\n      tag_41\n      swap2\n      swap1\n      tag_42\n      jump\t// in\n    tag_41:\n      tag_43\n      jump\t// in\n    tag_40:\n      mload(0x40)\n      tag_44\n      swap2\n      swap1\n      tag_35\n      jump\t// in\n    tag_44:\n      mload(0x40)\n      dup1\n      swap2\n      sub\n      swap1\n      return\n        /* \"@openzeppelin/contracts-upgradeable/token/ERC20/ERC20Upgradeable.sol\":3735:3817  function decimals() public view virtual returns (uint8) {... */\n    tag_7:\n      tag_45\n      tag_46\n      jump\t// in\n    tag_45:\n      mload(0x40)\n      tag_47\n      swap2\n      swap1\n      tag_48\n      jump\t// in\n    tag_47:\n      mload(0x40)\n      dup1\n      swap2\n      sub\n      swap1\n      return\n        /* \"contracts/Proxy deployment contracts/TestProxyImpl.sol\":699:1227  function initialize(... */\n    tag_8:\n      tag_49\n      0x04\n      dup1\n      calldatasize\n      sub\n      dup2\n      add\n      swap1\n      tag_50\n      swap2\n      swap1\n      tag_51\n      jump\t// in\n    tag_50:\n      tag_52\n      jump\t// in\n    tag_49:\n      stop\n        /* \"@openzeppelin/contracts-upgradeable/token/ERC20/extensions/ERC20CappedUpgradeable.sol\":1813:1961  function cap() public view virtual returns (uint256) {... */\n    tag_9:\n      tag_53\n      tag_54\n      jump\t// in\n    tag_53:\n      mload(0x40)\n      tag_55\n      swap2\n      swap1\n      tag_39\n      jump\t// in\n    tag_55:\n      mload(0x40)\n      dup1\n      swap2\n      sub\n      swap1\n      return\n        /* \"contracts/Proxy deployment contracts/TestProxyImpl.sol\":1743:1851  function mint(address to, uint256 amount) public onlyOwner nonReentrant {... */\n    tag_10:\n      tag_56\n      0x04\n      dup1\n      calldatasize\n      sub\n      dup2\n      add\n      swap1\n      tag_57\n      swap2\n      swap1\n      tag_32\n      jump\t// in\n    tag_57:\n      tag_58\n      jump\t// in\n    tag_56:\n      stop\n        /* \"contracts/Proxy deployment contracts/TestProxyImpl.sol\":1859:1940  function burn(uint256 amount) public {... */\n    tag_11:\n      tag_59\n      0x04\n      dup1\n      calldatasize\n      sub\n      dup2\n      add\n      swap1\n      tag_60\n      swap2\n      swap1\n      tag_61\n      jump\t// in\n    tag_60:\n      tag_62\n      jump\t// in\n    tag_59:\n      stop\n        /* \"contracts/Proxy deployment contracts/TestProxyImpl.sol\":1317:1403  function version() public pure returns(string memory){... */\n    tag_12:\n      tag_63\n      tag_64\n      jump\t// in\n    tag_63:\n      mload(0x40)\n      tag_65\n      swap2\n      swap1\n      tag_29\n      jump\t// in\n    tag_65:\n      mload(0x40)\n      dup1\n      swap2\n      sub\n      swap1\n      return\n        /* \"@openzeppelin/contracts-upgradeable/token/ERC20/ERC20Upgradeable.sol\":4035:4206  function balanceOf(address account) public view virtual returns (uint256) {... */\n    tag_13:\n      tag_66\n      0x04\n      dup1\n      calldatasize\n      sub\n      dup2\n      add\n      swap1\n      tag_67\n      swap2\n      swap1\n      tag_68\n      jump\t// in\n    tag_67:\n      tag_69\n      jump\t// in\n    tag_66:\n      mload(0x40)\n      tag_70\n      swap2\n      swap1\n      tag_39\n      jump\t// in\n    tag_70:\n      mload(0x40)\n      dup1\n      swap2\n      sub\n      swap1\n      return\n        /* \"@openzeppelin/contracts-upgradeable/access/OwnableUpgradeable.sol\":3155:3256  function renounceOwnership() public virtual onlyOwner {... */\n    tag_14:\n      tag_71\n      tag_72\n      jump\t// in\n    tag_71:\n      stop\n        /* \"@openzeppelin/contracts-upgradeable/access/Ownable2StepUpgradeable.sol\":3257:3486  function acceptOwnership() public virtual {... */\n    tag_15:\n      tag_73\n      tag_74\n      jump\t// in\n    tag_73:\n      stop\n        /* \"@openzeppelin/contracts-upgradeable/access/OwnableUpgradeable.sol\":2441:2585  function owner() public view virtual returns (address) {... */\n    tag_16:\n      tag_75\n      tag_76\n      jump\t// in\n    tag_75:\n      mload(0x40)\n      tag_77\n      swap2\n      swap1\n      tag_78\n      jump\t// in\n    tag_77:\n      mload(0x40)\n      dup1\n      swap2\n      sub\n      swap1\n      return\n        /* \"@openzeppelin/contracts-upgradeable/token/ERC20/ERC20Upgradeable.sol\":2954:3102  function symbol() public view virtual returns (string memory) {... */\n    tag_17:\n      tag_79\n      tag_80\n      jump\t// in\n    tag_79:\n      mload(0x40)\n      tag_81\n      swap2\n      swap1\n      tag_29\n      jump\t// in\n    tag_81:\n      mload(0x40)\n      dup1\n      swap2\n      sub\n      swap1\n      return\n        /* \"@openzeppelin/contracts-upgradeable/token/ERC20/ERC20Upgradeable.sol\":4401:4579  function transfer(address to, uint256 value) public virtual returns (bool) {... */\n    tag_18:\n      tag_82\n      0x04\n      dup1\n      calldatasize\n      sub\n      dup2\n      add\n      swap1\n      tag_83\n      swap2\n      swap1\n      tag_32\n      jump\t// in\n    tag_83:\n      tag_84\n      jump\t// in\n    tag_82:\n      mload(0x40)\n      tag_85\n      swap2\n      swap1\n      tag_35\n      jump\t// in\n    tag_85:\n      mload(0x40)\n      dup1\n      swap2\n      sub\n      swap1\n      return\n        /* \"@openzeppelin/contracts-upgradeable/token/ERC20/ERC20Upgradeable.sol\":4612:4807  function allowance(address owner, address spender) public view virtual returns (uint256) {... */\n    tag_19:\n      tag_86\n      0x04\n      dup1\n      calldatasize\n      sub\n      dup2\n      add\n      swap1\n      tag_87\n      swap2\n      swap1\n      tag_88\n      jump\t// in\n    tag_87:\n      tag_89\n      jump\t// in\n    tag_86:\n      mload(0x40)\n      tag_90\n      swap2\n      swap1\n      tag_39\n      jump\t// in\n    tag_90:\n      mload(0x40)\n      dup1\n      swap2\n      sub\n      swap1\n      return\n        /* \"@openzeppelin/contracts-upgradeable/access/Ownable2StepUpgradeable.sol\":2038:2206  function pendingOwner() public view virtual returns (address) {... */\n    tag_20:\n      tag_91\n      tag_92\n      jump\t// in\n    tag_91:\n      mload(0x40)\n      tag_93\n      swap2\n      swap1\n      tag_78\n      jump\t// in\n    tag_93:\n      mload(0x40)\n      dup1\n      swap2\n      sub\n      swap1\n      return\n        /* \"@openzeppelin/contracts-upgradeable/access/Ownable2StepUpgradeable.sol\":2524:2771  function transferOwnership(address newOwner) public virtual override onlyOwner {... */\n    tag_21:\n      tag_94\n      0x04\n      dup1\n      calldatasize\n      sub\n      dup2\n      add\n      swap1\n      tag_95\n      swap2\n      swap1\n      tag_68\n      jump\t// in\n    tag_95:\n      tag_96\n      jump\t// in\n    tag_94:\n      stop\n        /* \"contracts/Proxy deployment contracts/TestProxyImpl.sol\":1235:1271  string public constant VERSION=\"2.0\" */\n    tag_22:\n      tag_97\n      tag_98\n      jump\t// in\n    tag_97:\n      mload(0x40)\n      tag_99\n      swap2\n      swap1\n      tag_29\n      jump\t// in\n    tag_99:\n      mload(0x40)\n      dup1\n      swap2\n      sub\n      swap1\n      return\n        /* \"@openzeppelin/contracts-upgradeable/token/ERC20/ERC20Upgradeable.sol\":2697:2841  function name() public view virtual returns (string memory) {... */\n    tag_27:\n        /* \"@openzeppelin/contracts-upgradeable/token/ERC20/ERC20Upgradeable.sol\":2742:2755  string memory */\n      0x60\n        /* \"@openzeppelin/contracts-upgradeable/token/ERC20/ERC20Upgradeable.sol\":2767:2789  ERC20Storage storage $ */\n      0x00\n        /* \"@openzeppelin/contracts-upgradeable/token/ERC20/ERC20Upgradeable.sol\":2792:2810  _getERC20Storage() */\n      tag_101\n        /* \"@openzeppelin/contracts-upgradeable/token/ERC20/ERC20Upgradeable.sol\":2792:2808  _getERC20Storage */\n      tag_102\n        /* \"@openzeppelin/contracts-upgradeable/token/ERC20/ERC20Upgradeable.sol\":2792:2810  _getERC20Storage() */\n      jump\t// in\n    tag_101:\n        /* \"@openzeppelin/contracts-upgradeable/token/ERC20/ERC20Upgradeable.sol\":2767:2810  ERC20Storage storage $ = _getERC20Storage() */\n      swap1\n      pop\n        /* \"@openzeppelin/contracts-upgradeable/token/ERC20/ERC20Upgradeable.sol\":2827:2828  $ */\n      dup1\n        /* \"@openzeppelin/contracts-upgradeable/token/ERC20/ERC20Upgradeable.sol\":2827:2834  $._name */\n      0x03\n      add\n        /* \"@openzeppelin/contracts-upgradeable/token/ERC20/ERC20Upgradeable.sol\":2820:2834  return $._name */\n      dup1\n      sload\n      tag_103\n      swap1\n      tag_104\n      jump\t// in\n    tag_103:\n      dup1\n      0x1f\n      add\n      0x20\n      dup1\n      swap2\n      div\n      mul\n      0x20\n      add\n      mload(0x40)\n      swap1\n      dup2\n      add\n      0x40\n      mstore\n      dup1\n      swap3\n      swap2\n      swap1\n      dup2\n      dup2\n      mstore\n      0x20\n      add\n      dup3\n      dup1\n      sload\n      tag_105\n      swap1\n      tag_104\n      jump\t// in\n    tag_105:\n      dup1\n      iszero\n      tag_106\n      jumpi\n      dup1\n      0x1f\n      lt\n      tag_107\n      jumpi\n      0x0100\n      dup1\n      dup4\n      sload\n      div\n      mul\n      dup4\n      mstore\n      swap2\n      0x20\n      add\n      swap2\n      jump(tag_106)\n    tag_107:\n      dup3\n      add\n      swap2\n      swap1\n      0x00\n      mstore\n      keccak256(0x00, 0x20)\n      swap1\n    tag_108:\n      dup2\n      sload\n      dup2\n      mstore\n      swap1\n      0x01\n      add\n      swap1\n      0x20\n      add\n      dup1\n      dup4\n      gt\n      tag_108\n      jumpi\n      dup3\n      swap1\n      sub\n      0x1f\n      and\n      dup3\n      add\n      swap2\n    tag_106:\n      pop\n      pop\n      pop\n      pop\n      pop\n      swap2\n      pop\n      pop\n        /* \"@openzeppelin/contracts-upgradeable/token/ERC20/ERC20Upgradeable.sol\":2697:2841  function name() public view virtual returns (string memory) {... */\n      swap1\n      jump\t// out\n        /* \"@openzeppelin/contracts-upgradeable/token/ERC20/ERC20Upgradeable.sol\":5114:5300  function approve(address spender, uint256 value) public virtual returns (bool) {... */\n    tag_33:\n        /* \"@openzeppelin/contracts-upgradeable/token/ERC20/ERC20Upgradeable.sol\":5187:5191  bool */\n      0x00\n        /* \"@openzeppelin/contracts-upgradeable/token/ERC20/ERC20Upgradeable.sol\":5203:5216  address owner */\n      0x00\n        /* \"@openzeppelin/contracts-upgradeable/token/ERC20/ERC20Upgradeable.sol\":5219:5231  _msgSender() */\n      tag_110\n        /* \"@openzeppelin/contracts-upgradeable/token/ERC20/ERC20Upgradeable.sol\":5219:5229  _msgSender */\n      tag_111\n        /* \"@openzeppelin/contracts-upgradeable/token/ERC20/ERC20Upgradeable.sol\":5219:5231  _msgSender() */\n      jump\t// in\n    tag_110:\n        /* \"@openzeppelin/contracts-upgradeable/token/ERC20/ERC20Upgradeable.sol\":5203:5231  address owner = _msgSender() */\n      swap1\n      pop\n        /* \"@openzeppelin/contracts-upgradeable/token/ERC20/ERC20Upgradeable.sol\":5241:5272  _approve(owner, spender, value) */\n      tag_112\n        /* \"@openzeppelin/contracts-upgradeable/token/ERC20/ERC20Upgradeable.sol\":5250:5255  owner */\n      dup2\n        /* \"@openzeppelin/contracts-upgradeable/token/ERC20/ERC20Upgradeable.sol\":5257:5264  spender */\n      dup6\n        /* \"@openzeppelin/contracts-upgradeable/token/ERC20/ERC20Upgradeable.sol\":5266:5271  value */\n      dup6\n        /* \"@openzeppelin/contracts-upgradeable/token/ERC20/ERC20Upgradeable.sol\":5241:5249  _approve */\n      tag_113\n        /* \"@openzeppelin/contracts-upgradeable/token/ERC20/ERC20Upgradeable.sol\":5241:5272  _approve(owner, spender, value) */\n      jump\t// in\n    tag_112:\n        /* \"@openzeppelin/contracts-upgradeable/token/ERC20/ERC20Upgradeable.sol\":5289:5293  true */\n      0x01\n        /* \"@openzeppelin/contracts-upgradeable/token/ERC20/ERC20Upgradeable.sol\":5282:5293  return true */\n      swap2\n      pop\n      pop\n        /* \"@openzeppelin/contracts-upgradeable/token/ERC20/ERC20Upgradeable.sol\":5114:5300  function approve(address spender, uint256 value) public virtual returns (bool) {... */\n      swap3\n      swap2\n      pop\n      pop\n      jump\t// out\n        /* \"@openzeppelin/contracts-upgradeable/token/ERC20/ERC20Upgradeable.sol\":3850:4002  function totalSupply() public view virtual returns (uint256) {... */\n    tag_37:\n        /* \"@openzeppelin/contracts-upgradeable/token/ERC20/ERC20Upgradeable.sol\":3902:3909  uint256 */\n      0x00\n        /* \"@openzeppelin/contracts-upgradeable/token/ERC20/ERC20Upgradeable.sol\":3921:3943  ERC20Storage storage $ */\n      0x00\n        /* \"@openzeppelin/contracts-upgradeable/token/ERC20/ERC20Upgradeable.sol\":3946:3964  _getERC20Storage() */\n      tag_115\n        /* \"@openzeppelin/contracts-upgradeable/token/ERC20/ERC20Upgradeable.sol\":3946:3962  _getERC20Storage */\n      tag_102\n        /* \"@openzeppelin/contracts-upgradeable/token/ERC20/ERC20Upgradeable.sol\":3946:3964  _getERC20Storage() */\n      jump\t// in\n    tag_115:\n        /* \"@openzeppelin/contracts-upgradeable/token/ERC20/ERC20Upgradeable.sol\":3921:3964  ERC20Storage storage $ = _getERC20Storage() */\n      swap1\n      pop\n        /* \"@openzeppelin/contracts-upgradeable/token/ERC20/ERC20Upgradeable.sol\":3981:3982  $ */\n      dup1\n        /* \"@openzeppelin/contracts-upgradeable/token/ERC20/ERC20Upgradeable.sol\":3981:3995  $._totalSupply */\n      0x02\n      add\n      sload\n        /* \"@openzeppelin/contracts-upgradeable/token/ERC20/ERC20Upgradeable.sol\":3974:3995  return $._totalSupply */\n      swap2\n      pop\n      pop\n        /* \"@openzeppelin/contracts-upgradeable/token/ERC20/ERC20Upgradeable.sol\":3850:4002  function totalSupply() public view virtual returns (uint256) {... */\n      swap1\n      jump\t// out\n        /* \"@openzeppelin/contracts-upgradeable/token/ERC20/ERC20Upgradeable.sol\":5892:6136  function transferFrom(address from, address to, uint256 value) public virtual returns (bool) {... */\n    tag_43:\n        /* \"@openzeppelin/contracts-upgradeable/token/ERC20/ERC20Upgradeable.sol\":5979:5983  bool */\n      0x00\n        /* \"@openzeppelin/contracts-upgradeable/token/ERC20/ERC20Upgradeable.sol\":5995:6010  address spender */\n      0x00\n        /* \"@openzeppelin/contracts-upgradeable/token/ERC20/ERC20Upgradeable.sol\":6013:6025  _msgSender() */\n      tag_117\n        /* \"@openzeppelin/contracts-upgradeable/token/ERC20/ERC20Upgradeable.sol\":6013:6023  _msgSender */\n      tag_111\n        /* \"@openzeppelin/contracts-upgradeable/token/ERC20/ERC20Upgradeable.sol\":6013:6025  _msgSender() */\n      jump\t// in\n    tag_117:\n        /* \"@openzeppelin/contracts-upgradeable/token/ERC20/ERC20Upgradeable.sol\":5995:6025  address spender = _msgSender() */\n      swap1\n      pop\n        /* \"@openzeppelin/contracts-upgradeable/token/ERC20/ERC20Upgradeable.sol\":6035:6072  _spendAllowance(from, spender, value) */\n      tag_118\n        /* \"@openzeppelin/contracts-upgradeable/token/ERC20/ERC20Upgradeable.sol\":6051:6055  from */\n      dup6\n        /* \"@openzeppelin/contracts-upgradeable/token/ERC20/ERC20Upgradeable.sol\":6057:6064  spender */\n      dup3\n        /* \"@openzeppelin/contracts-upgradeable/token/ERC20/ERC20Upgradeable.sol\":6066:6071  value */\n      dup6\n        /* \"@openzeppelin/contracts-upgradeable/token/ERC20/ERC20Upgradeable.sol\":6035:6050  _spendAllowance */\n      tag_119\n        /* \"@openzeppelin/contracts-upgradeable/token/ERC20/ERC20Upgradeable.sol\":6035:6072  _spendAllowance(from, spender, value) */\n      jump\t// in\n    tag_118:\n        /* \"@openzeppelin/contracts-upgradeable/token/ERC20/ERC20Upgradeable.sol\":6082:6108  _transfer(from, to, value) */\n      tag_120\n        /* \"@openzeppelin/contracts-upgradeable/token/ERC20/ERC20Upgradeable.sol\":6092:6096  from */\n      dup6\n        /* \"@openzeppelin/contracts-upgradeable/token/ERC20/ERC20Upgradeable.sol\":6098:6100  to */\n      dup6\n        /* \"@openzeppelin/contracts-upgradeable/token/ERC20/ERC20Upgradeable.sol\":6102:6107  value */\n      dup6\n        /* \"@openzeppelin/contracts-upgradeable/token/ERC20/ERC20Upgradeable.sol\":6082:6091  _transfer */\n      tag_121\n        /* \"@openzeppelin/contracts-upgradeable/token/ERC20/ERC20Upgradeable.sol\":6082:6108  _transfer(from, to, value) */\n      jump\t// in\n    tag_120:\n        /* \"@openzeppelin/contracts-upgradeable/token/ERC20/ERC20Upgradeable.sol\":6125:6129  true */\n      0x01\n        /* \"@openzeppelin/contracts-upgradeable/token/ERC20/ERC20Upgradeable.sol\":6118:6129  return true */\n      swap2\n      pop\n      pop\n        /* \"@openzeppelin/contracts-upgradeable/token/ERC20/ERC20Upgradeable.sol\":5892:6136  function transferFrom(address from, address to, uint256 value) public virtual returns (bool) {... */\n      swap4\n      swap3\n      pop\n      pop\n      pop\n      jump\t// out\n        /* \"@openzeppelin/contracts-upgradeable/token/ERC20/ERC20Upgradeable.sol\":3735:3817  function decimals() public view virtual returns (uint8) {... */\n    tag_46:\n        /* \"@openzeppelin/contracts-upgradeable/token/ERC20/ERC20Upgradeable.sol\":3784:3789  uint8 */\n      0x00\n        /* \"@openzeppelin/contracts-upgradeable/token/ERC20/ERC20Upgradeable.sol\":3808:3810  18 */\n      0x12\n        /* \"@openzeppelin/contracts-upgradeable/token/ERC20/ERC20Upgradeable.sol\":3801:3810  return 18 */\n      swap1\n      pop\n        /* \"@openzeppelin/contracts-upgradeable/token/ERC20/ERC20Upgradeable.sol\":3735:3817  function decimals() public view virtual returns (uint8) {... */\n      swap1\n      jump\t// out\n        /* \"contracts/Proxy deployment contracts/TestProxyImpl.sol\":699:1227  function initialize(... */\n    tag_52:\n        /* \"@openzeppelin/contracts-upgradeable/proxy/utils/Initializable.sol\":4158:4188  InitializableStorage storage $ */\n      0x00\n        /* \"@openzeppelin/contracts-upgradeable/proxy/utils/Initializable.sol\":4191:4217  _getInitializableStorage() */\n      tag_124\n        /* \"@openzeppelin/contracts-upgradeable/proxy/utils/Initializable.sol\":4191:4215  _getInitializableStorage */\n      tag_125\n        /* \"@openzeppelin/contracts-upgradeable/proxy/utils/Initializable.sol\":4191:4217  _getInitializableStorage() */\n      jump\t// in\n    tag_124:\n        /* \"@openzeppelin/contracts-upgradeable/proxy/utils/Initializable.sol\":4158:4217  InitializableStorage storage $ = _getInitializableStorage() */\n      swap1\n      pop\n        /* \"@openzeppelin/contracts-upgradeable/proxy/utils/Initializable.sol\":4279:4298  bool isTopLevelCall */\n      0x00\n        /* \"@openzeppelin/contracts-upgradeable/proxy/utils/Initializable.sol\":4302:4303  $ */\n      dup2\n        /* \"@openzeppelin/contracts-upgradeable/proxy/utils/Initializable.sol\":4302:4317  $._initializing */\n      0x00\n      add\n      0x08\n      swap1\n      sload\n      swap1\n      0x0100\n      exp\n      swap1\n      div\n      0xff\n      and\n        /* \"@openzeppelin/contracts-upgradeable/proxy/utils/Initializable.sol\":4301:4317  !$._initializing */\n      iszero\n        /* \"@openzeppelin/contracts-upgradeable/proxy/utils/Initializable.sol\":4279:4317  bool isTopLevelCall = !$._initializing */\n      swap1\n      pop\n        /* \"@openzeppelin/contracts-upgradeable/proxy/utils/Initializable.sol\":4327:4345  uint64 initialized */\n      0x00\n        /* \"@openzeppelin/contracts-upgradeable/proxy/utils/Initializable.sol\":4348:4349  $ */\n      dup3\n        /* \"@openzeppelin/contracts-upgradeable/proxy/utils/Initializable.sol\":4348:4362  $._initialized */\n      0x00\n      add\n      0x00\n      swap1\n      sload\n      swap1\n      0x0100\n      exp\n      swap1\n      div\n      0xffffffffffffffff\n      and\n        /* \"@openzeppelin/contracts-upgradeable/proxy/utils/Initializable.sol\":4327:4362  uint64 initialized = $._initialized */\n      swap1\n      pop\n        /* \"@openzeppelin/contracts-upgradeable/proxy/utils/Initializable.sol\":4704:4721  bool initialSetup */\n      0x00\n        /* \"@openzeppelin/contracts-upgradeable/proxy/utils/Initializable.sol\":4739:4740  0 */\n      0x00\n        /* \"@openzeppelin/contracts-upgradeable/proxy/utils/Initializable.sol\":4724:4735  initialized */\n      dup3\n        /* \"@openzeppelin/contracts-upgradeable/proxy/utils/Initializable.sol\":4724:4740  initialized == 0 */\n      0xffffffffffffffff\n      and\n      eq\n        /* \"@openzeppelin/contracts-upgradeable/proxy/utils/Initializable.sol\":4724:4758  initialized == 0 && isTopLevelCall */\n      dup1\n      iszero\n      tag_126\n      jumpi\n      pop\n        /* \"@openzeppelin/contracts-upgradeable/proxy/utils/Initializable.sol\":4744:4758  isTopLevelCall */\n      dup3\n        /* \"@openzeppelin/contracts-upgradeable/proxy/utils/Initializable.sol\":4724:4758  initialized == 0 && isTopLevelCall */\n    tag_126:\n        /* \"@openzeppelin/contracts-upgradeable/proxy/utils/Initializable.sol\":4704:4758  bool initialSetup = initialized == 0 && isTopLevelCall */\n      swap1\n      pop\n        /* \"@openzeppelin/contracts-upgradeable/proxy/utils/Initializable.sol\":4768:4785  bool construction */\n      0x00\n        /* \"@openzeppelin/contracts-upgradeable/proxy/utils/Initializable.sol\":4803:4804  1 */\n      0x01\n        /* \"@openzeppelin/contracts-upgradeable/proxy/utils/Initializable.sol\":4788:4799  initialized */\n      dup4\n        /* \"@openzeppelin/contracts-upgradeable/proxy/utils/Initializable.sol\":4788:4804  initialized == 1 */\n      0xffffffffffffffff\n      and\n      eq\n        /* \"@openzeppelin/contracts-upgradeable/proxy/utils/Initializable.sol\":4788:4838  initialized == 1 && address(this).code.length == 0 */\n      dup1\n      iszero\n      tag_127\n      jumpi\n      pop\n        /* \"@openzeppelin/contracts-upgradeable/proxy/utils/Initializable.sol\":4837:4838  0 */\n      0x00\n        /* \"@openzeppelin/contracts-upgradeable/proxy/utils/Initializable.sol\":4816:4820  this */\n      address\n        /* \"@openzeppelin/contracts-upgradeable/proxy/utils/Initializable.sol\":4808:4833  address(this).code.length */\n      0xffffffffffffffffffffffffffffffffffffffff\n      and\n      extcodesize\n        /* \"@openzeppelin/contracts-upgradeable/proxy/utils/Initializable.sol\":4808:4838  address(this).code.length == 0 */\n      eq\n        /* \"@openzeppelin/contracts-upgradeable/proxy/utils/Initializable.sol\":4788:4838  initialized == 1 && address(this).code.length == 0 */\n    tag_127:\n        /* \"@openzeppelin/contracts-upgradeable/proxy/utils/Initializable.sol\":4768:4838  bool construction = initialized == 1 && address(this).code.length == 0 */\n      swap1\n      pop\n        /* \"@openzeppelin/contracts-upgradeable/proxy/utils/Initializable.sol\":4854:4866  initialSetup */\n      dup2\n        /* \"@openzeppelin/contracts-upgradeable/proxy/utils/Initializable.sol\":4853:4866  !initialSetup */\n      iszero\n        /* \"@openzeppelin/contracts-upgradeable/proxy/utils/Initializable.sol\":4853:4883  !initialSetup && !construction */\n      dup1\n      iszero\n      tag_128\n      jumpi\n      pop\n        /* \"@openzeppelin/contracts-upgradeable/proxy/utils/Initializable.sol\":4871:4883  construction */\n      dup1\n        /* \"@openzeppelin/contracts-upgradeable/proxy/utils/Initializable.sol\":4870:4883  !construction */\n      iszero\n        /* \"@openzeppelin/contracts-upgradeable/proxy/utils/Initializable.sol\":4853:4883  !initialSetup && !construction */\n    tag_128:\n        /* \"@openzeppelin/contracts-upgradeable/proxy/utils/Initializable.sol\":4849:4940  if (!initialSetup && !construction) {... */\n      iszero\n      tag_129\n      jumpi\n        /* \"@openzeppelin/contracts-upgradeable/proxy/utils/Initializable.sol\":4906:4929  InvalidInitialization() */\n      mload(0x40)\n      0xf92ee8a900000000000000000000000000000000000000000000000000000000\n      dup2\n      mstore\n      0x04\n      add\n      mload(0x40)\n      dup1\n      swap2\n      sub\n      swap1\n      revert\n        /* \"@openzeppelin/contracts-upgradeable/proxy/utils/Initializable.sol\":4849:4940  if (!initialSetup && !construction) {... */\n    tag_129:\n        /* \"@openzeppelin/contracts-upgradeable/proxy/utils/Initializable.sol\":4966:4967  1 */\n      0x01\n        /* \"@openzeppelin/contracts-upgradeable/proxy/utils/Initializable.sol\":4949:4950  $ */\n      dup6\n        /* \"@openzeppelin/contracts-upgradeable/proxy/utils/Initializable.sol\":4949:4963  $._initialized */\n      0x00\n      add\n      0x00\n        /* \"@openzeppelin/contracts-upgradeable/proxy/utils/Initializable.sol\":4949:4967  $._initialized = 1 */\n      0x0100\n      exp\n      dup2\n      sload\n      dup2\n      0xffffffffffffffff\n      mul\n      not\n      and\n      swap1\n      dup4\n      0xffffffffffffffff\n      and\n      mul\n      or\n      swap1\n      sstore\n      pop\n        /* \"@openzeppelin/contracts-upgradeable/proxy/utils/Initializable.sol\":4981:4995  isTopLevelCall */\n      dup4\n        /* \"@openzeppelin/contracts-upgradeable/proxy/utils/Initializable.sol\":4977:5044  if (isTopLevelCall) {... */\n      iszero\n      tag_130\n      jumpi\n        /* \"@openzeppelin/contracts-upgradeable/proxy/utils/Initializable.sol\":5029:5033  true */\n      0x01\n        /* \"@openzeppelin/contracts-upgradeable/proxy/utils/Initializable.sol\":5011:5012  $ */\n      dup6\n        /* \"@openzeppelin/contracts-upgradeable/proxy/utils/Initializable.sol\":5011:5026  $._initializing */\n      0x00\n      add\n      0x08\n        /* \"@openzeppelin/contracts-upgradeable/proxy/utils/Initializable.sol\":5011:5033  $._initializing = true */\n      0x0100\n      exp\n      dup2\n      sload\n      dup2\n      0xff\n      mul\n      not\n      and\n      swap1\n      dup4\n      iszero\n      iszero\n      mul\n      or\n      swap1\n      sstore\n      pop\n        /* \"@openzeppelin/contracts-upgradeable/proxy/utils/Initializable.sol\":4977:5044  if (isTopLevelCall) {... */\n    tag_130:\n        /* \"contracts/Proxy deployment contracts/TestProxyImpl.sol\":905:941  __ERC20_init(tokenName, tokenSymbol) */\n      tag_132\n        /* \"contracts/Proxy deployment contracts/TestProxyImpl.sol\":918:927  tokenName */\n      dup11\n        /* \"contracts/Proxy deployment contracts/TestProxyImpl.sol\":929:940  tokenSymbol */\n      dup11\n        /* \"contracts/Proxy deployment contracts/TestProxyImpl.sol\":905:917  __ERC20_init */\n      tag_133\n        /* \"contracts/Proxy deployment contracts/TestProxyImpl.sol\":905:941  __ERC20_init(tokenName, tokenSymbol) */\n      jump\t// in\n    tag_132:\n        /* \"contracts/Proxy deployment contracts/TestProxyImpl.sol\":978:1021  __ERC20Capped_init(capp * 10 ** decimals()) */\n      tag_134\n        /* \"contracts/Proxy deployment contracts/TestProxyImpl.sol\":1010:1020  decimals() */\n      tag_135\n        /* \"contracts/Proxy deployment contracts/TestProxyImpl.sol\":1010:1018  decimals */\n      tag_46\n        /* \"contracts/Proxy deployment contracts/TestProxyImpl.sol\":1010:1020  decimals() */\n      jump\t// in\n    tag_135:\n        /* \"contracts/Proxy deployment contracts/TestProxyImpl.sol\":1004:1006  10 */\n      0x0a\n        /* \"contracts/Proxy deployment contracts/TestProxyImpl.sol\":1004:1020  10 ** decimals() */\n      tag_136\n      swap2\n      swap1\n      tag_137\n      jump\t// in\n    tag_136:\n        /* \"contracts/Proxy deployment contracts/TestProxyImpl.sol\":997:1001  capp */\n      dup10\n        /* \"contracts/Proxy deployment contracts/TestProxyImpl.sol\":997:1020  capp * 10 ** decimals() */\n      tag_138\n      swap2\n      swap1\n      tag_139\n      jump\t// in\n    tag_138:\n        /* \"contracts/Proxy deployment contracts/TestProxyImpl.sol\":978:996  __ERC20Capped_init */\n      tag_140\n        /* \"contracts/Proxy deployment contracts/TestProxyImpl.sol\":978:1021  __ERC20Capped_init(capp * 10 ** decimals()) */\n      jump\t// in\n    tag_134:\n        /* \"contracts/Proxy deployment contracts/TestProxyImpl.sol\":1049:1070  __Ownable_init(owner) */\n      tag_141\n        /* \"contracts/Proxy deployment contracts/TestProxyImpl.sol\":1064:1069  owner */\n      dup7\n        /* \"contracts/Proxy deployment contracts/TestProxyImpl.sol\":1049:1063  __Ownable_init */\n      tag_142\n        /* \"contracts/Proxy deployment contracts/TestProxyImpl.sol\":1049:1070  __Ownable_init(owner) */\n      jump\t// in\n    tag_141:\n        /* \"contracts/Proxy deployment contracts/TestProxyImpl.sol\":1107:1131  __ReentrancyGuard_init() */\n      tag_143\n        /* \"contracts/Proxy deployment contracts/TestProxyImpl.sol\":1107:1129  __ReentrancyGuard_init */\n      tag_144\n        /* \"contracts/Proxy deployment contracts/TestProxyImpl.sol\":1107:1131  __ReentrancyGuard_init() */\n      jump\t// in\n    tag_143:\n        /* \"contracts/Proxy deployment contracts/TestProxyImpl.sol\":1173:1219  _mint(owner, initialAmount * 10 ** decimals()) */\n      tag_145\n        /* \"contracts/Proxy deployment contracts/TestProxyImpl.sol\":1179:1184  owner */\n      dup7\n        /* \"contracts/Proxy deployment contracts/TestProxyImpl.sol\":1208:1218  decimals() */\n      tag_146\n        /* \"contracts/Proxy deployment contracts/TestProxyImpl.sol\":1208:1216  decimals */\n      tag_46\n        /* \"contracts/Proxy deployment contracts/TestProxyImpl.sol\":1208:1218  decimals() */\n      jump\t// in\n    tag_146:\n        /* \"contracts/Proxy deployment contracts/TestProxyImpl.sol\":1202:1204  10 */\n      0x0a\n        /* \"contracts/Proxy deployment contracts/TestProxyImpl.sol\":1202:1218  10 ** decimals() */\n      tag_147\n      swap2\n      swap1\n      tag_137\n      jump\t// in\n    tag_147:\n        /* \"contracts/Proxy deployment contracts/TestProxyImpl.sol\":1186:1199  initialAmount */\n      dup10\n        /* \"contracts/Proxy deployment contracts/TestProxyImpl.sol\":1186:1218  initialAmount * 10 ** decimals() */\n      tag_148\n      swap2\n      swap1\n      tag_139\n      jump\t// in\n    tag_148:\n        /* \"contracts/Proxy deployment contracts/TestProxyImpl.sol\":1173:1178  _mint */\n      tag_149\n        /* \"contracts/Proxy deployment contracts/TestProxyImpl.sol\":1173:1219  _mint(owner, initialAmount * 10 ** decimals()) */\n      jump\t// in\n    tag_145:\n        /* \"@openzeppelin/contracts-upgradeable/proxy/utils/Initializable.sol\":5068:5082  isTopLevelCall */\n      dup4\n        /* \"@openzeppelin/contracts-upgradeable/proxy/utils/Initializable.sol\":5064:5165  if (isTopLevelCall) {... */\n      iszero\n      tag_150\n      jumpi\n        /* \"@openzeppelin/contracts-upgradeable/proxy/utils/Initializable.sol\":5116:5121  false */\n      0x00\n        /* \"@openzeppelin/contracts-upgradeable/proxy/utils/Initializable.sol\":5098:5099  $ */\n      dup6\n        /* \"@openzeppelin/contracts-upgradeable/proxy/utils/Initializable.sol\":5098:5113  $._initializing */\n      0x00\n      add\n      0x08\n        /* \"@openzeppelin/contracts-upgradeable/proxy/utils/Initializable.sol\":5098:5121  $._initializing = false */\n      0x0100\n      exp\n      dup2\n      sload\n      dup2\n      0xff\n      mul\n      not\n      and\n      swap1\n      dup4\n      iszero\n      iszero\n      mul\n      or\n      swap1\n      sstore\n      pop\n        /* \"@openzeppelin/contracts-upgradeable/proxy/utils/Initializable.sol\":5140:5154  Initialized(1) */\n      0xc7f505b2f371ae2175ee4913f4499e1f2633a7b5936321eed1cdaeb6115181d2\n        /* \"@openzeppelin/contracts-upgradeable/proxy/utils/Initializable.sol\":5152:5153  1 */\n      0x01\n        /* \"@openzeppelin/contracts-upgradeable/proxy/utils/Initializable.sol\":5140:5154  Initialized(1) */\n      mload(0x40)\n      tag_151\n      swap2\n      swap1\n      tag_152\n      jump\t// in\n    tag_151:\n      mload(0x40)\n      dup1\n      swap2\n      sub\n      swap1\n      log1\n        /* \"@openzeppelin/contracts-upgradeable/proxy/utils/Initializable.sol\":5064:5165  if (isTopLevelCall) {... */\n    tag_150:\n        /* \"@openzeppelin/contracts-upgradeable/proxy/utils/Initializable.sol\":4092:5171  {... */\n      pop\n      pop\n      pop\n      pop\n      pop\n        /* \"contracts/Proxy deployment contracts/TestProxyImpl.sol\":699:1227  function initialize(... */\n      pop\n      pop\n      pop\n      pop\n      pop\n      jump\t// out\n        /* \"@openzeppelin/contracts-upgradeable/token/ERC20/extensions/ERC20CappedUpgradeable.sol\":1813:1961  function cap() public view virtual returns (uint256) {... */\n    tag_54:\n        /* \"@openzeppelin/contracts-upgradeable/token/ERC20/extensions/ERC20CappedUpgradeable.sol\":1857:1864  uint256 */\n      0x00\n        /* \"@openzeppelin/contracts-upgradeable/token/ERC20/extensions/ERC20CappedUpgradeable.sol\":1876:1904  ERC20CappedStorage storage $ */\n      0x00\n        /* \"@openzeppelin/contracts-upgradeable/token/ERC20/extensions/ERC20CappedUpgradeable.sol\":1907:1931  _getERC20CappedStorage() */\n      tag_154\n        /* \"@openzeppelin/contracts-upgradeable/token/ERC20/extensions/ERC20CappedUpgradeable.sol\":1907:1929  _getERC20CappedStorage */\n      tag_155\n        /* \"@openzeppelin/contracts-upgradeable/token/ERC20/extensions/ERC20CappedUpgradeable.sol\":1907:1931  _getERC20CappedStorage() */\n      jump\t// in\n    tag_154:\n        /* \"@openzeppelin/contracts-upgradeable/token/ERC20/extensions/ERC20CappedUpgradeable.sol\":1876:1931  ERC20CappedStorage storage $ = _getERC20CappedStorage() */\n      swap1\n      pop\n        /* \"@openzeppelin/contracts-upgradeable/token/ERC20/extensions/ERC20CappedUpgradeable.sol\":1948:1949  $ */\n      dup1\n        /* \"@openzeppelin/contracts-upgradeable/token/ERC20/extensions/ERC20CappedUpgradeable.sol\":1948:1954  $._cap */\n      0x00\n      add\n      sload\n        /* \"@openzeppelin/contracts-upgradeable/token/ERC20/extensions/ERC20CappedUpgradeable.sol\":1941:1954  return $._cap */\n      swap2\n      pop\n      pop\n        /* \"@openzeppelin/contracts-upgradeable/token/ERC20/extensions/ERC20CappedUpgradeable.sol\":1813:1961  function cap() public view virtual returns (uint256) {... */\n      swap1\n      jump\t// out\n        /* \"contracts/Proxy deployment contracts/TestProxyImpl.sol\":1743:1851  function mint(address to, uint256 amount) public onlyOwner nonReentrant {... */\n    tag_58:\n        /* \"@openzeppelin/contracts-upgradeable/access/OwnableUpgradeable.sol\":2334:2347  _checkOwner() */\n      tag_157\n        /* \"@openzeppelin/contracts-upgradeable/access/OwnableUpgradeable.sol\":2334:2345  _checkOwner */\n      tag_158\n        /* \"@openzeppelin/contracts-upgradeable/access/OwnableUpgradeable.sol\":2334:2347  _checkOwner() */\n      jump\t// in\n    tag_157:\n        /* \"@openzeppelin/contracts-upgradeable/utils/ReentrancyGuardUpgradeable.sol\":3395:3416  _nonReentrantBefore() */\n      tag_160\n        /* \"@openzeppelin/contracts-upgradeable/utils/ReentrancyGuardUpgradeable.sol\":3395:3414  _nonReentrantBefore */\n      tag_161\n        /* \"@openzeppelin/contracts-upgradeable/utils/ReentrancyGuardUpgradeable.sol\":3395:3416  _nonReentrantBefore() */\n      jump\t// in\n    tag_160:\n        /* \"contracts/Proxy deployment contracts/TestProxyImpl.sol\":1826:1843  _mint(to, amount) */\n      tag_163\n        /* \"contracts/Proxy deployment contracts/TestProxyImpl.sol\":1832:1834  to */\n      dup3\n        /* \"contracts/Proxy deployment contracts/TestProxyImpl.sol\":1836:1842  amount */\n      dup3\n        /* \"contracts/Proxy deployment contracts/TestProxyImpl.sol\":1826:1831  _mint */\n      tag_149\n        /* \"contracts/Proxy deployment contracts/TestProxyImpl.sol\":1826:1843  _mint(to, amount) */\n      jump\t// in\n    tag_163:\n        /* \"@openzeppelin/contracts-upgradeable/utils/ReentrancyGuardUpgradeable.sol\":3437:3457  _nonReentrantAfter() */\n      tag_164\n        /* \"@openzeppelin/contracts-upgradeable/utils/ReentrancyGuardUpgradeable.sol\":3437:3455  _nonReentrantAfter */\n      tag_165\n        /* \"@openzeppelin/contracts-upgradeable/utils/ReentrancyGuardUpgradeable.sol\":3437:3457  _nonReentrantAfter() */\n      jump\t// in\n    tag_164:\n        /* \"contracts/Proxy deployment contracts/TestProxyImpl.sol\":1743:1851  function mint(address to, uint256 amount) public onlyOwner nonReentrant {... */\n      pop\n      pop\n      jump\t// out\n        /* \"contracts/Proxy deployment contracts/TestProxyImpl.sol\":1859:1940  function burn(uint256 amount) public {... */\n    tag_62:\n        /* \"contracts/Proxy deployment contracts/TestProxyImpl.sol\":1907:1932  _burn(msg.sender, amount) */\n      tag_167\n        /* \"contracts/Proxy deployment contracts/TestProxyImpl.sol\":1913:1923  msg.sender */\n      caller\n        /* \"contracts/Proxy deployment contracts/TestProxyImpl.sol\":1925:1931  amount */\n      dup3\n        /* \"contracts/Proxy deployment contracts/TestProxyImpl.sol\":1907:1912  _burn */\n      tag_168\n        /* \"contracts/Proxy deployment contracts/TestProxyImpl.sol\":1907:1932  _burn(msg.sender, amount) */\n      jump\t// in\n    tag_167:\n        /* \"contracts/Proxy deployment contracts/TestProxyImpl.sol\":1859:1940  function burn(uint256 amount) public {... */\n      pop\n      jump\t// out\n        /* \"contracts/Proxy deployment contracts/TestProxyImpl.sol\":1317:1403  function version() public pure returns(string memory){... */\n    tag_64:\n        /* \"contracts/Proxy deployment contracts/TestProxyImpl.sol\":1356:1369  string memory */\n      0x60\n        /* \"contracts/Proxy deployment contracts/TestProxyImpl.sol\":1388:1395  VERSION */\n      mload(0x40)\n      dup1\n      0x40\n      add\n      0x40\n      mstore\n      dup1\n      0x03\n      dup2\n      mstore\n      0x20\n      add\n      0x322e300000000000000000000000000000000000000000000000000000000000\n      dup2\n      mstore\n      pop\n        /* \"contracts/Proxy deployment contracts/TestProxyImpl.sol\":1381:1395  return VERSION */\n      swap1\n      pop\n        /* \"contracts/Proxy deployment contracts/TestProxyImpl.sol\":1317:1403  function version() public pure returns(string memory){... */\n      swap1\n      jump\t// out\n        /* \"@openzeppelin/contracts-upgradeable/token/ERC20/ERC20Upgradeable.sol\":4035:4206  function balanceOf(address account) public view virtual returns (uint256) {... */\n    tag_69:\n        /* \"@openzeppelin/contracts-upgradeable/token/ERC20/ERC20Upgradeable.sol\":4100:4107  uint256 */\n      0x00\n        /* \"@openzeppelin/contracts-upgradeable/token/ERC20/ERC20Upgradeable.sol\":4119:4141  ERC20Storage storage $ */\n      0x00\n        /* \"@openzeppelin/contracts-upgradeable/token/ERC20/ERC20Upgradeable.sol\":4144:4162  _getERC20Storage() */\n      tag_171\n        /* \"@openzeppelin/contracts-upgradeable/token/ERC20/ERC20Upgradeable.sol\":4144:4160  _getERC20Storage */\n      tag_102\n        /* \"@openzeppelin/contracts-upgradeable/token/ERC20/ERC20Upgradeable.sol\":4144:4162  _getERC20Storage() */\n      jump\t// in\n    tag_171:\n        /* \"@openzeppelin/contracts-upgradeable/token/ERC20/ERC20Upgradeable.sol\":4119:4162  ERC20Storage storage $ = _getERC20Storage() */\n      swap1\n      pop\n        /* \"@openzeppelin/contracts-upgradeable/token/ERC20/ERC20Upgradeable.sol\":4179:4180  $ */\n      dup1\n        /* \"@openzeppelin/contracts-upgradeable/token/ERC20/ERC20Upgradeable.sol\":4179:4190  $._balances */\n      0x00\n      add\n        /* \"@openzeppelin/contracts-upgradeable/token/ERC20/ERC20Upgradeable.sol\":4179:4199  $._balances[account] */\n      0x00\n        /* \"@openzeppelin/contracts-upgradeable/token/ERC20/ERC20Upgradeable.sol\":4191:4198  account */\n      dup5\n        /* \"@openzeppelin/contracts-upgradeable/token/ERC20/ERC20Upgradeable.sol\":4179:4199  $._balances[account] */\n      0xffffffffffffffffffffffffffffffffffffffff\n      and\n      0xffffffffffffffffffffffffffffffffffffffff\n      and\n      dup2\n      mstore\n      0x20\n      add\n      swap1\n      dup2\n      mstore\n      0x20\n      add\n      0x00\n      keccak256\n      sload\n        /* \"@openzeppelin/contracts-upgradeable/token/ERC20/ERC20Upgradeable.sol\":4172:4199  return $._balances[account] */\n      swap2\n      pop\n      pop\n        /* \"@openzeppelin/contracts-upgradeable/token/ERC20/ERC20Upgradeable.sol\":4035:4206  function balanceOf(address account) public view virtual returns (uint256) {... */\n      swap2\n      swap1\n      pop\n      jump\t// out\n        /* \"@openzeppelin/contracts-upgradeable/access/OwnableUpgradeable.sol\":3155:3256  function renounceOwnership() public virtual onlyOwner {... */\n    tag_72:\n        /* \"@openzeppelin/contracts-upgradeable/access/OwnableUpgradeable.sol\":2334:2347  _checkOwner() */\n      tag_173\n        /* \"@openzeppelin/contracts-upgradeable/access/OwnableUpgradeable.sol\":2334:2345  _checkOwner */\n      tag_158\n        /* \"@openzeppelin/contracts-upgradeable/access/OwnableUpgradeable.sol\":2334:2347  _checkOwner() */\n      jump\t// in\n    tag_173:\n        /* \"@openzeppelin/contracts-upgradeable/access/OwnableUpgradeable.sol\":3219:3249  _transferOwnership(address(0)) */\n      tag_175\n        /* \"@openzeppelin/contracts-upgradeable/access/OwnableUpgradeable.sol\":3246:3247  0 */\n      0x00\n        /* \"@openzeppelin/contracts-upgradeable/access/OwnableUpgradeable.sol\":3219:3237  _transferOwnership */\n      tag_176\n        /* \"@openzeppelin/contracts-upgradeable/access/OwnableUpgradeable.sol\":3219:3249  _transferOwnership(address(0)) */\n      jump\t// in\n    tag_175:\n        /* \"@openzeppelin/contracts-upgradeable/access/OwnableUpgradeable.sol\":3155:3256  function renounceOwnership() public virtual onlyOwner {... */\n      jump\t// out\n        /* \"@openzeppelin/contracts-upgradeable/access/Ownable2StepUpgradeable.sol\":3257:3486  function acceptOwnership() public virtual {... */\n    tag_74:\n        /* \"@openzeppelin/contracts-upgradeable/access/Ownable2StepUpgradeable.sol\":3309:3323  address sender */\n      0x00\n        /* \"@openzeppelin/contracts-upgradeable/access/Ownable2StepUpgradeable.sol\":3326:3338  _msgSender() */\n      tag_178\n        /* \"@openzeppelin/contracts-upgradeable/access/Ownable2StepUpgradeable.sol\":3326:3336  _msgSender */\n      tag_111\n        /* \"@openzeppelin/contracts-upgradeable/access/Ownable2StepUpgradeable.sol\":3326:3338  _msgSender() */\n      jump\t// in\n    tag_178:\n        /* \"@openzeppelin/contracts-upgradeable/access/Ownable2StepUpgradeable.sol\":3309:3338  address sender = _msgSender() */\n      swap1\n      pop\n        /* \"@openzeppelin/contracts-upgradeable/access/Ownable2StepUpgradeable.sol\":3370:3376  sender */\n      dup1\n        /* \"@openzeppelin/contracts-upgradeable/access/Ownable2StepUpgradeable.sol\":3352:3376  pendingOwner() != sender */\n      0xffffffffffffffffffffffffffffffffffffffff\n      and\n        /* \"@openzeppelin/contracts-upgradeable/access/Ownable2StepUpgradeable.sol\":3352:3366  pendingOwner() */\n      tag_179\n        /* \"@openzeppelin/contracts-upgradeable/access/Ownable2StepUpgradeable.sol\":3352:3364  pendingOwner */\n      tag_92\n        /* \"@openzeppelin/contracts-upgradeable/access/Ownable2StepUpgradeable.sol\":3352:3366  pendingOwner() */\n      jump\t// in\n    tag_179:\n        /* \"@openzeppelin/contracts-upgradeable/access/Ownable2StepUpgradeable.sol\":3352:3376  pendingOwner() != sender */\n      0xffffffffffffffffffffffffffffffffffffffff\n      and\n      eq\n        /* \"@openzeppelin/contracts-upgradeable/access/Ownable2StepUpgradeable.sol\":3348:3444  if (pendingOwner() != sender) {... */\n      tag_180\n      jumpi\n        /* \"@openzeppelin/contracts-upgradeable/access/Ownable2StepUpgradeable.sol\":3426:3432  sender */\n      dup1\n        /* \"@openzeppelin/contracts-upgradeable/access/Ownable2StepUpgradeable.sol\":3399:3433  OwnableUnauthorizedAccount(sender) */\n      mload(0x40)\n      0x118cdaa700000000000000000000000000000000000000000000000000000000\n      dup2\n      mstore\n      0x04\n      add\n      tag_181\n      swap2\n      swap1\n      tag_78\n      jump\t// in\n    tag_181:\n      mload(0x40)\n      dup1\n      swap2\n      sub\n      swap1\n      revert\n        /* \"@openzeppelin/contracts-upgradeable/access/Ownable2StepUpgradeable.sol\":3348:3444  if (pendingOwner() != sender) {... */\n    tag_180:\n        /* \"@openzeppelin/contracts-upgradeable/access/Ownable2StepUpgradeable.sol\":3453:3479  _transferOwnership(sender) */\n      tag_182\n        /* \"@openzeppelin/contracts-upgradeable/access/Ownable2StepUpgradeable.sol\":3472:3478  sender */\n      dup2\n        /* \"@openzeppelin/contracts-upgradeable/access/Ownable2StepUpgradeable.sol\":3453:3471  _transferOwnership */\n      tag_176\n        /* \"@openzeppelin/contracts-upgradeable/access/Ownable2StepUpgradeable.sol\":3453:3479  _transferOwnership(sender) */\n      jump\t// in\n    tag_182:\n        /* \"@openzeppelin/contracts-upgradeable/access/Ownable2StepUpgradeable.sol\":3299:3486  {... */\n      pop\n        /* \"@openzeppelin/contracts-upgradeable/access/Ownable2StepUpgradeable.sol\":3257:3486  function acceptOwnership() public virtual {... */\n      jump\t// out\n        /* \"@openzeppelin/contracts-upgradeable/access/OwnableUpgradeable.sol\":2441:2585  function owner() public view virtual returns (address) {... */\n    tag_76:\n        /* \"@openzeppelin/contracts-upgradeable/access/OwnableUpgradeable.sol\":2487:2494  address */\n      0x00\n        /* \"@openzeppelin/contracts-upgradeable/access/OwnableUpgradeable.sol\":2506:2530  OwnableStorage storage $ */\n      0x00\n        /* \"@openzeppelin/contracts-upgradeable/access/OwnableUpgradeable.sol\":2533:2553  _getOwnableStorage() */\n      tag_184\n        /* \"@openzeppelin/contracts-upgradeable/access/OwnableUpgradeable.sol\":2533:2551  _getOwnableStorage */\n      tag_185\n        /* \"@openzeppelin/contracts-upgradeable/access/OwnableUpgradeable.sol\":2533:2553  _getOwnableStorage() */\n      jump\t// in\n    tag_184:\n        /* \"@openzeppelin/contracts-upgradeable/access/OwnableUpgradeable.sol\":2506:2553  OwnableStorage storage $ = _getOwnableStorage() */\n      swap1\n      pop\n        /* \"@openzeppelin/contracts-upgradeable/access/OwnableUpgradeable.sol\":2570:2571  $ */\n      dup1\n        /* \"@openzeppelin/contracts-upgradeable/access/OwnableUpgradeable.sol\":2570:2578  $._owner */\n      0x00\n      add\n      0x00\n      swap1\n      sload\n      swap1\n      0x0100\n      exp\n      swap1\n      div\n      0xffffffffffffffffffffffffffffffffffffffff\n      and\n        /* \"@openzeppelin/contracts-upgradeable/access/OwnableUpgradeable.sol\":2563:2578  return $._owner */\n      swap2\n      pop\n      pop\n        /* \"@openzeppelin/contracts-upgradeable/access/OwnableUpgradeable.sol\":2441:2585  function owner() public view virtual returns (address) {... */\n      swap1\n      jump\t// out\n        /* \"@openzeppelin/contracts-upgradeable/token/ERC20/ERC20Upgradeable.sol\":2954:3102  function symbol() public view virtual returns (string memory) {... */\n    tag_80:\n        /* \"@openzeppelin/contracts-upgradeable/token/ERC20/ERC20Upgradeable.sol\":3001:3014  string memory */\n      0x60\n        /* \"@openzeppelin/contracts-upgradeable/token/ERC20/ERC20Upgradeable.sol\":3026:3048  ERC20Storage storage $ */\n      0x00\n        /* \"@openzeppelin/contracts-upgradeable/token/ERC20/ERC20Upgradeable.sol\":3051:3069  _getERC20Storage() */\n      tag_187\n        /* \"@openzeppelin/contracts-upgradeable/token/ERC20/ERC20Upgradeable.sol\":3051:3067  _getERC20Storage */\n      tag_102\n        /* \"@openzeppelin/contracts-upgradeable/token/ERC20/ERC20Upgradeable.sol\":3051:3069  _getERC20Storage() */\n      jump\t// in\n    tag_187:\n        /* \"@openzeppelin/contracts-upgradeable/token/ERC20/ERC20Upgradeable.sol\":3026:3069  ERC20Storage storage $ = _getERC20Storage() */\n      swap1\n      pop\n        /* \"@openzeppelin/contracts-upgradeable/token/ERC20/ERC20Upgradeable.sol\":3086:3087  $ */\n      dup1\n        /* \"@openzeppelin/contracts-upgradeable/token/ERC20/ERC20Upgradeable.sol\":3086:3095  $._symbol */\n      0x04\n      add\n        /* \"@openzeppelin/contracts-upgradeable/token/ERC20/ERC20Upgradeable.sol\":3079:3095  return $._symbol */\n      dup1\n      sload\n      tag_188\n      swap1\n      tag_104\n      jump\t// in\n    tag_188:\n      dup1\n      0x1f\n      add\n      0x20\n      dup1\n      swap2\n      div\n      mul\n      0x20\n      add\n      mload(0x40)\n      swap1\n      dup2\n      add\n      0x40\n      mstore\n      dup1\n      swap3\n      swap2\n      swap1\n      dup2\n      dup2\n      mstore\n      0x20\n      add\n      dup3\n      dup1\n      sload\n      tag_189\n      swap1\n      tag_104\n      jump\t// in\n    tag_189:\n      dup1\n      iszero\n      tag_190\n      jumpi\n      dup1\n      0x1f\n      lt\n      tag_191\n      jumpi\n      0x0100\n      dup1\n      dup4\n      sload\n      div\n      mul\n      dup4\n      mstore\n      swap2\n      0x20\n      add\n      swap2\n      jump(tag_190)\n    tag_191:\n      dup3\n      add\n      swap2\n      swap1\n      0x00\n      mstore\n      keccak256(0x00, 0x20)\n      swap1\n    tag_192:\n      dup2\n      sload\n      dup2\n      mstore\n      swap1\n      0x01\n      add\n      swap1\n      0x20\n      add\n      dup1\n      dup4\n      gt\n      tag_192\n      jumpi\n      dup3\n      swap1\n      sub\n      0x1f\n      and\n      dup3\n      add\n      swap2\n    tag_190:\n      pop\n      pop\n      pop\n      pop\n      pop\n      swap2\n      pop\n      pop\n        /* \"@openzeppelin/contracts-upgradeable/token/ERC20/ERC20Upgradeable.sol\":2954:3102  function symbol() public view virtual returns (string memory) {... */\n      swap1\n      jump\t// out\n        /* \"@openzeppelin/contracts-upgradeable/token/ERC20/ERC20Upgradeable.sol\":4401:4579  function transfer(address to, uint256 value) public virtual returns (bool) {... */\n    tag_84:\n        /* \"@openzeppelin/contracts-upgradeable/token/ERC20/ERC20Upgradeable.sol\":4470:4474  bool */\n      0x00\n        /* \"@openzeppelin/contracts-upgradeable/token/ERC20/ERC20Upgradeable.sol\":4486:4499  address owner */\n      0x00\n        /* \"@openzeppelin/contracts-upgradeable/token/ERC20/ERC20Upgradeable.sol\":4502:4514  _msgSender() */\n      tag_194\n        /* \"@openzeppelin/contracts-upgradeable/token/ERC20/ERC20Upgradeable.sol\":4502:4512  _msgSender */\n      tag_111\n        /* \"@openzeppelin/contracts-upgradeable/token/ERC20/ERC20Upgradeable.sol\":4502:4514  _msgSender() */\n      jump\t// in\n    tag_194:\n        /* \"@openzeppelin/contracts-upgradeable/token/ERC20/ERC20Upgradeable.sol\":4486:4514  address owner = _msgSender() */\n      swap1\n      pop\n        /* \"@openzeppelin/contracts-upgradeable/token/ERC20/ERC20Upgradeable.sol\":4524:4551  _transfer(owner, to, value) */\n      tag_195\n        /* \"@openzeppelin/contracts-upgradeable/token/ERC20/ERC20Upgradeable.sol\":4534:4539  owner */\n      dup2\n        /* \"@openzeppelin/contracts-upgradeable/token/ERC20/ERC20Upgradeable.sol\":4541:4543  to */\n      dup6\n        /* \"@openzeppelin/contracts-upgradeable/token/ERC20/ERC20Upgradeable.sol\":4545:4550  value */\n      dup6\n        /* \"@openzeppelin/contracts-upgradeable/token/ERC20/ERC20Upgradeable.sol\":4524:4533  _transfer */\n      tag_121\n        /* \"@openzeppelin/contracts-upgradeable/token/ERC20/ERC20Upgradeable.sol\":4524:4551  _transfer(owner, to, value) */\n      jump\t// in\n    tag_195:\n        /* \"@openzeppelin/contracts-upgradeable/token/ERC20/ERC20Upgradeable.sol\":4568:4572  true */\n      0x01\n        /* \"@openzeppelin/contracts-upgradeable/token/ERC20/ERC20Upgradeable.sol\":4561:4572  return true */\n      swap2\n      pop\n      pop\n        /* \"@openzeppelin/contracts-upgradeable/token/ERC20/ERC20Upgradeable.sol\":4401:4579  function transfer(address to, uint256 value) public virtual returns (bool) {... */\n      swap3\n      swap2\n      pop\n      pop\n      jump\t// out\n        /* \"@openzeppelin/contracts-upgradeable/token/ERC20/ERC20Upgradeable.sol\":4612:4807  function allowance(address owner, address spender) public view virtual returns (uint256) {... */\n    tag_89:\n        /* \"@openzeppelin/contracts-upgradeable/token/ERC20/ERC20Upgradeable.sol\":4692:4699  uint256 */\n      0x00\n        /* \"@openzeppelin/contracts-upgradeable/token/ERC20/ERC20Upgradeable.sol\":4711:4733  ERC20Storage storage $ */\n      0x00\n        /* \"@openzeppelin/contracts-upgradeable/token/ERC20/ERC20Upgradeable.sol\":4736:4754  _getERC20Storage() */\n      tag_197\n        /* \"@openzeppelin/contracts-upgradeable/token/ERC20/ERC20Upgradeable.sol\":4736:4752  _getERC20Storage */\n      tag_102\n        /* \"@openzeppelin/contracts-upgradeable/token/ERC20/ERC20Upgradeable.sol\":4736:4754  _getERC20Storage() */\n      jump\t// in\n    tag_197:\n        /* \"@openzeppelin/contracts-upgradeable/token/ERC20/ERC20Upgradeable.sol\":4711:4754  ERC20Storage storage $ = _getERC20Storage() */\n      swap1\n      pop\n        /* \"@openzeppelin/contracts-upgradeable/token/ERC20/ERC20Upgradeable.sol\":4771:4772  $ */\n      dup1\n        /* \"@openzeppelin/contracts-upgradeable/token/ERC20/ERC20Upgradeable.sol\":4771:4784  $._allowances */\n      0x01\n      add\n        /* \"@openzeppelin/contracts-upgradeable/token/ERC20/ERC20Upgradeable.sol\":4771:4791  $._allowances[owner] */\n      0x00\n        /* \"@openzeppelin/contracts-upgradeable/token/ERC20/ERC20Upgradeable.sol\":4785:4790  owner */\n      dup6\n        /* \"@openzeppelin/contracts-upgradeable/token/ERC20/ERC20Upgradeable.sol\":4771:4791  $._allowances[owner] */\n      0xffffffffffffffffffffffffffffffffffffffff\n      and\n      0xffffffffffffffffffffffffffffffffffffffff\n      and\n      dup2\n      mstore\n      0x20\n      add\n      swap1\n      dup2\n      mstore\n      0x20\n      add\n      0x00\n      keccak256\n        /* \"@openzeppelin/contracts-upgradeable/token/ERC20/ERC20Upgradeable.sol\":4771:4800  $._allowances[owner][spender] */\n      0x00\n        /* \"@openzeppelin/contracts-upgradeable/token/ERC20/ERC20Upgradeable.sol\":4792:4799  spender */\n      dup5\n        /* \"@openzeppelin/contracts-upgradeable/token/ERC20/ERC20Upgradeable.sol\":4771:4800  $._allowances[owner][spender] */\n      0xffffffffffffffffffffffffffffffffffffffff\n      and\n      0xffffffffffffffffffffffffffffffffffffffff\n      and\n      dup2\n      mstore\n      0x20\n      add\n      swap1\n      dup2\n      mstore\n      0x20\n      add\n      0x00\n      keccak256\n      sload\n        /* \"@openzeppelin/contracts-upgradeable/token/ERC20/ERC20Upgradeable.sol\":4764:4800  return $._allowances[owner][spender] */\n      swap2\n      pop\n      pop\n        /* \"@openzeppelin/contracts-upgradeable/token/ERC20/ERC20Upgradeable.sol\":4612:4807  function allowance(address owner, address spender) public view virtual returns (uint256) {... */\n      swap3\n      swap2\n      pop\n      pop\n      jump\t// out\n        /* \"@openzeppelin/contracts-upgradeable/access/Ownable2StepUpgradeable.sol\":2038:2206  function pendingOwner() public view virtual returns (address) {... */\n    tag_92:\n        /* \"@openzeppelin/contracts-upgradeable/access/Ownable2StepUpgradeable.sol\":2091:2098  address */\n      0x00\n        /* \"@openzeppelin/contracts-upgradeable/access/Ownable2StepUpgradeable.sol\":2110:2139  Ownable2StepStorage storage $ */\n      0x00\n        /* \"@openzeppelin/contracts-upgradeable/access/Ownable2StepUpgradeable.sol\":2142:2167  _getOwnable2StepStorage() */\n      tag_199\n        /* \"@openzeppelin/contracts-upgradeable/access/Ownable2StepUpgradeable.sol\":2142:2165  _getOwnable2StepStorage */\n      tag_200\n        /* \"@openzeppelin/contracts-upgradeable/access/Ownable2StepUpgradeable.sol\":2142:2167  _getOwnable2StepStorage() */\n      jump\t// in\n    tag_199:\n        /* \"@openzeppelin/contracts-upgradeable/access/Ownable2StepUpgradeable.sol\":2110:2167  Ownable2StepStorage storage $ = _getOwnable2StepStorage() */\n      swap1\n      pop\n        /* \"@openzeppelin/contracts-upgradeable/access/Ownable2StepUpgradeable.sol\":2184:2185  $ */\n      dup1\n        /* \"@openzeppelin/contracts-upgradeable/access/Ownable2StepUpgradeable.sol\":2184:2199  $._pendingOwner */\n      0x00\n      add\n      0x00\n      swap1\n      sload\n      swap1\n      0x0100\n      exp\n      swap1\n      div\n      0xffffffffffffffffffffffffffffffffffffffff\n      and\n        /* \"@openzeppelin/contracts-upgradeable/access/Ownable2StepUpgradeable.sol\":2177:2199  return $._pendingOwner */\n      swap2\n      pop\n      pop\n        /* \"@openzeppelin/contracts-upgradeable/access/Ownable2StepUpgradeable.sol\":2038:2206  function pendingOwner() public view virtual returns (address) {... */\n      swap1\n      jump\t// out\n        /* \"@openzeppelin/contracts-upgradeable/access/Ownable2StepUpgradeable.sol\":2524:2771  function transferOwnership(address newOwner) public virtual override onlyOwner {... */\n    tag_96:\n        /* \"@openzeppelin/contracts-upgradeable/access/OwnableUpgradeable.sol\":2334:2347  _checkOwner() */\n      tag_202\n        /* \"@openzeppelin/contracts-upgradeable/access/OwnableUpgradeable.sol\":2334:2345  _checkOwner */\n      tag_158\n        /* \"@openzeppelin/contracts-upgradeable/access/OwnableUpgradeable.sol\":2334:2347  _checkOwner() */\n      jump\t// in\n    tag_202:\n        /* \"@openzeppelin/contracts-upgradeable/access/Ownable2StepUpgradeable.sol\":2613:2642  Ownable2StepStorage storage $ */\n      0x00\n        /* \"@openzeppelin/contracts-upgradeable/access/Ownable2StepUpgradeable.sol\":2645:2670  _getOwnable2StepStorage() */\n      tag_204\n        /* \"@openzeppelin/contracts-upgradeable/access/Ownable2StepUpgradeable.sol\":2645:2668  _getOwnable2StepStorage */\n      tag_200\n        /* \"@openzeppelin/contracts-upgradeable/access/Ownable2StepUpgradeable.sol\":2645:2670  _getOwnable2StepStorage() */\n      jump\t// in\n    tag_204:\n        /* \"@openzeppelin/contracts-upgradeable/access/Ownable2StepUpgradeable.sol\":2613:2670  Ownable2StepStorage storage $ = _getOwnable2StepStorage() */\n      swap1\n      pop\n        /* \"@openzeppelin/contracts-upgradeable/access/Ownable2StepUpgradeable.sol\":2698:2706  newOwner */\n      dup2\n        /* \"@openzeppelin/contracts-upgradeable/access/Ownable2StepUpgradeable.sol\":2680:2681  $ */\n      dup2\n        /* \"@openzeppelin/contracts-upgradeable/access/Ownable2StepUpgradeable.sol\":2680:2695  $._pendingOwner */\n      0x00\n      add\n      0x00\n        /* \"@openzeppelin/contracts-upgradeable/access/Ownable2StepUpgradeable.sol\":2680:2706  $._pendingOwner = newOwner */\n      0x0100\n      exp\n      dup2\n      sload\n      dup2\n      0xffffffffffffffffffffffffffffffffffffffff\n      mul\n      not\n      and\n      swap1\n      dup4\n      0xffffffffffffffffffffffffffffffffffffffff\n      and\n      mul\n      or\n      swap1\n      sstore\n      pop\n        /* \"@openzeppelin/contracts-upgradeable/access/Ownable2StepUpgradeable.sol\":2755:2763  newOwner */\n      dup2\n        /* \"@openzeppelin/contracts-upgradeable/access/Ownable2StepUpgradeable.sol\":2721:2764  OwnershipTransferStarted(owner(), newOwner) */\n      0xffffffffffffffffffffffffffffffffffffffff\n      and\n        /* \"@openzeppelin/contracts-upgradeable/access/Ownable2StepUpgradeable.sol\":2746:2753  owner() */\n      tag_205\n        /* \"@openzeppelin/contracts-upgradeable/access/Ownable2StepUpgradeable.sol\":2746:2751  owner */\n      tag_76\n        /* \"@openzeppelin/contracts-upgradeable/access/Ownable2StepUpgradeable.sol\":2746:2753  owner() */\n      jump\t// in\n    tag_205:\n        /* \"@openzeppelin/contracts-upgradeable/access/Ownable2StepUpgradeable.sol\":2721:2764  OwnershipTransferStarted(owner(), newOwner) */\n      0xffffffffffffffffffffffffffffffffffffffff\n      and\n      0x38d16b8cac22d99fc7c124b9cd0de2d3fa1faef420bfe791d8c362d765e22700\n      mload(0x40)\n      mload(0x40)\n      dup1\n      swap2\n      sub\n      swap1\n      log3\n        /* \"@openzeppelin/contracts-upgradeable/access/Ownable2StepUpgradeable.sol\":2603:2771  {... */\n      pop\n        /* \"@openzeppelin/contracts-upgradeable/access/Ownable2StepUpgradeable.sol\":2524:2771  function transferOwnership(address newOwner) public virtual override onlyOwner {... */\n      pop\n      jump\t// out\n        /* \"contracts/Proxy deployment contracts/TestProxyImpl.sol\":1235:1271  string public constant VERSION=\"2.0\" */\n    tag_98:\n      mload(0x40)\n      dup1\n      0x40\n      add\n      0x40\n      mstore\n      dup1\n      0x03\n      dup2\n      mstore\n      0x20\n      add\n      0x322e300000000000000000000000000000000000000000000000000000000000\n      dup2\n      mstore\n      pop\n      dup2\n      jump\t// out\n        /* \"@openzeppelin/contracts-upgradeable/token/ERC20/ERC20Upgradeable.sol\":1947:2100  function _getERC20Storage() private pure returns (ERC20Storage storage $) {... */\n    tag_102:\n        /* \"@openzeppelin/contracts-upgradeable/token/ERC20/ERC20Upgradeable.sol\":1997:2019  ERC20Storage storage $ */\n      0x00\n        /* \"@openzeppelin/contracts-upgradeable/token/ERC20/ERC20Upgradeable.sol\":2064:2084  ERC20StorageLocation */\n      0x52c63247e1f47db19d5ce0460030c497f067ca4cebf71ba98eeadabe20bace00\n        /* \"@openzeppelin/contracts-upgradeable/token/ERC20/ERC20Upgradeable.sol\":2054:2084  $.slot := ERC20StorageLocation */\n      swap1\n      pop\n        /* \"@openzeppelin/contracts-upgradeable/token/ERC20/ERC20Upgradeable.sol\":1947:2100  function _getERC20Storage() private pure returns (ERC20Storage storage $) {... */\n      swap1\n      jump\t// out\n        /* \"@openzeppelin/contracts-upgradeable/utils/ContextUpgradeable.sol\":887:983  function _msgSender() internal view virtual returns (address) {... */\n    tag_111:\n        /* \"@openzeppelin/contracts-upgradeable/utils/ContextUpgradeable.sol\":940:947  address */\n      0x00\n        /* \"@openzeppelin/contracts-upgradeable/utils/ContextUpgradeable.sol\":966:976  msg.sender */\n      caller\n        /* \"@openzeppelin/contracts-upgradeable/utils/ContextUpgradeable.sol\":959:976  return msg.sender */\n      swap1\n      pop\n        /* \"@openzeppelin/contracts-upgradeable/utils/ContextUpgradeable.sol\":887:983  function _msgSender() internal view virtual returns (address) {... */\n      swap1\n      jump\t// out\n        /* \"@openzeppelin/contracts-upgradeable/token/ERC20/ERC20Upgradeable.sol\":9905:10033  function _approve(address owner, address spender, uint256 value) internal {... */\n    tag_113:\n        /* \"@openzeppelin/contracts-upgradeable/token/ERC20/ERC20Upgradeable.sol\":9989:10026  _approve(owner, spender, value, true) */\n      tag_209\n        /* \"@openzeppelin/contracts-upgradeable/token/ERC20/ERC20Upgradeable.sol\":9998:10003  owner */\n      dup4\n        /* \"@openzeppelin/contracts-upgradeable/token/ERC20/ERC20Upgradeable.sol\":10005:10012  spender */\n      dup4\n        /* \"@openzeppelin/contracts-upgradeable/token/ERC20/ERC20Upgradeable.sol\":10014:10019  value */\n      dup4\n        /* \"@openzeppelin/contracts-upgradeable/token/ERC20/ERC20Upgradeable.sol\":10021:10025  true */\n      0x01\n        /* \"@openzeppelin/contracts-upgradeable/token/ERC20/ERC20Upgradeable.sol\":9989:9997  _approve */\n      tag_210\n        /* \"@openzeppelin/contracts-upgradeable/token/ERC20/ERC20Upgradeable.sol\":9989:10026  _approve(owner, spender, value, true) */\n      jump\t// in\n    tag_209:\n        /* \"@openzeppelin/contracts-upgradeable/token/ERC20/ERC20Upgradeable.sol\":9905:10033  function _approve(address owner, address spender, uint256 value) internal {... */\n      pop\n      pop\n      pop\n      jump\t// out\n        /* \"@openzeppelin/contracts-upgradeable/token/ERC20/ERC20Upgradeable.sol\":11649:12125  function _spendAllowance(address owner, address spender, uint256 value) internal virtual {... */\n    tag_119:\n        /* \"@openzeppelin/contracts-upgradeable/token/ERC20/ERC20Upgradeable.sol\":11748:11772  uint256 currentAllowance */\n      0x00\n        /* \"@openzeppelin/contracts-upgradeable/token/ERC20/ERC20Upgradeable.sol\":11775:11800  allowance(owner, spender) */\n      tag_212\n        /* \"@openzeppelin/contracts-upgradeable/token/ERC20/ERC20Upgradeable.sol\":11785:11790  owner */\n      dup5\n        /* \"@openzeppelin/contracts-upgradeable/token/ERC20/ERC20Upgradeable.sol\":11792:11799  spender */\n      dup5\n        /* \"@openzeppelin/contracts-upgradeable/token/ERC20/ERC20Upgradeable.sol\":11775:11784  allowance */\n      tag_89\n        /* \"@openzeppelin/contracts-upgradeable/token/ERC20/ERC20Upgradeable.sol\":11775:11800  allowance(owner, spender) */\n      jump\t// in\n    tag_212:\n        /* \"@openzeppelin/contracts-upgradeable/token/ERC20/ERC20Upgradeable.sol\":11748:11800  uint256 currentAllowance = allowance(owner, spender) */\n      swap1\n      pop\n        /* \"@openzeppelin/contracts-upgradeable/token/ERC20/ERC20Upgradeable.sol\":11833:11850  type(uint256).max */\n      0xffffffffffffffffffffffffffffffffffffffffffffffffffffffffffffffff\n        /* \"@openzeppelin/contracts-upgradeable/token/ERC20/ERC20Upgradeable.sol\":11814:11830  currentAllowance */\n      dup2\n        /* \"@openzeppelin/contracts-upgradeable/token/ERC20/ERC20Upgradeable.sol\":11814:11850  currentAllowance < type(uint256).max */\n      lt\n        /* \"@openzeppelin/contracts-upgradeable/token/ERC20/ERC20Upgradeable.sol\":11810:12119  if (currentAllowance < type(uint256).max) {... */\n      iszero\n      tag_213\n      jumpi\n        /* \"@openzeppelin/contracts-upgradeable/token/ERC20/ERC20Upgradeable.sol\":11889:11894  value */\n      dup2\n        /* \"@openzeppelin/contracts-upgradeable/token/ERC20/ERC20Upgradeable.sol\":11870:11886  currentAllowance */\n      dup2\n        /* \"@openzeppelin/contracts-upgradeable/token/ERC20/ERC20Upgradeable.sol\":11870:11894  currentAllowance < value */\n      lt\n        /* \"@openzeppelin/contracts-upgradeable/token/ERC20/ERC20Upgradeable.sol\":11866:11996  if (currentAllowance < value) {... */\n      iszero\n      tag_214\n      jumpi\n        /* \"@openzeppelin/contracts-upgradeable/token/ERC20/ERC20Upgradeable.sol\":11948:11955  spender */\n      dup3\n        /* \"@openzeppelin/contracts-upgradeable/token/ERC20/ERC20Upgradeable.sol\":11957:11973  currentAllowance */\n      dup2\n        /* \"@openzeppelin/contracts-upgradeable/token/ERC20/ERC20Upgradeable.sol\":11975:11980  value */\n      dup4\n        /* \"@openzeppelin/contracts-upgradeable/token/ERC20/ERC20Upgradeable.sol\":11921:11981  ERC20InsufficientAllowance(spender, currentAllowance, value) */\n      mload(0x40)\n      0xfb8f41b200000000000000000000000000000000000000000000000000000000\n      dup2\n      mstore\n      0x04\n      add\n      tag_215\n      swap4\n      swap3\n      swap2\n      swap1\n      tag_216\n      jump\t// in\n    tag_215:\n      mload(0x40)\n      dup1\n      swap2\n      sub\n      swap1\n      revert\n        /* \"@openzeppelin/contracts-upgradeable/token/ERC20/ERC20Upgradeable.sol\":11866:11996  if (currentAllowance < value) {... */\n    tag_214:\n        /* \"@openzeppelin/contracts-upgradeable/token/ERC20/ERC20Upgradeable.sol\":12037:12094  _approve(owner, spender, currentAllowance - value, false) */\n      tag_217\n        /* \"@openzeppelin/contracts-upgradeable/token/ERC20/ERC20Upgradeable.sol\":12046:12051  owner */\n      dup5\n        /* \"@openzeppelin/contracts-upgradeable/token/ERC20/ERC20Upgradeable.sol\":12053:12060  spender */\n      dup5\n        /* \"@openzeppelin/contracts-upgradeable/token/ERC20/ERC20Upgradeable.sol\":12081:12086  value */\n      dup5\n        /* \"@openzeppelin/contracts-upgradeable/token/ERC20/ERC20Upgradeable.sol\":12062:12078  currentAllowance */\n      dup5\n        /* \"@openzeppelin/contracts-upgradeable/token/ERC20/ERC20Upgradeable.sol\":12062:12086  currentAllowance - value */\n      sub\n        /* \"@openzeppelin/contracts-upgradeable/token/ERC20/ERC20Upgradeable.sol\":12088:12093  false */\n      0x00\n        /* \"@openzeppelin/contracts-upgradeable/token/ERC20/ERC20Upgradeable.sol\":12037:12045  _approve */\n      tag_210\n        /* \"@openzeppelin/contracts-upgradeable/token/ERC20/ERC20Upgradeable.sol\":12037:12094  _approve(owner, spender, currentAllowance - value, false) */\n      jump\t// in\n    tag_217:\n        /* \"@openzeppelin/contracts-upgradeable/token/ERC20/ERC20Upgradeable.sol\":11810:12119  if (currentAllowance < type(uint256).max) {... */\n    tag_213:\n        /* \"@openzeppelin/contracts-upgradeable/token/ERC20/ERC20Upgradeable.sol\":11738:12125  {... */\n      pop\n        /* \"@openzeppelin/contracts-upgradeable/token/ERC20/ERC20Upgradeable.sol\":11649:12125  function _spendAllowance(address owner, address spender, uint256 value) internal virtual {... */\n      pop\n      pop\n      pop\n      jump\t// out\n        /* \"@openzeppelin/contracts-upgradeable/token/ERC20/ERC20Upgradeable.sol\":6509:6809  function _transfer(address from, address to, uint256 value) internal {... */\n    tag_121:\n        /* \"@openzeppelin/contracts-upgradeable/token/ERC20/ERC20Upgradeable.sol\":6608:6609  0 */\n      0x00\n        /* \"@openzeppelin/contracts-upgradeable/token/ERC20/ERC20Upgradeable.sol\":6592:6610  from == address(0) */\n      0xffffffffffffffffffffffffffffffffffffffff\n      and\n        /* \"@openzeppelin/contracts-upgradeable/token/ERC20/ERC20Upgradeable.sol\":6592:6596  from */\n      dup4\n        /* \"@openzeppelin/contracts-upgradeable/token/ERC20/ERC20Upgradeable.sol\":6592:6610  from == address(0) */\n      0xffffffffffffffffffffffffffffffffffffffff\n      and\n      sub\n        /* \"@openzeppelin/contracts-upgradeable/token/ERC20/ERC20Upgradeable.sol\":6588:6674  if (from == address(0)) {... */\n      tag_219\n      jumpi\n        /* \"@openzeppelin/contracts-upgradeable/token/ERC20/ERC20Upgradeable.sol\":6660:6661  0 */\n      0x00\n        /* \"@openzeppelin/contracts-upgradeable/token/ERC20/ERC20Upgradeable.sol\":6633:6663  ERC20InvalidSender(address(0)) */\n      mload(0x40)\n      0x96c6fd1e00000000000000000000000000000000000000000000000000000000\n      dup2\n      mstore\n      0x04\n      add\n      tag_220\n      swap2\n      swap1\n      tag_78\n      jump\t// in\n    tag_220:\n      mload(0x40)\n      dup1\n      swap2\n      sub\n      swap1\n      revert\n        /* \"@openzeppelin/contracts-upgradeable/token/ERC20/ERC20Upgradeable.sol\":6588:6674  if (from == address(0)) {... */\n    tag_219:\n        /* \"@openzeppelin/contracts-upgradeable/token/ERC20/ERC20Upgradeable.sol\":6701:6702  0 */\n      0x00\n        /* \"@openzeppelin/contracts-upgradeable/token/ERC20/ERC20Upgradeable.sol\":6687:6703  to == address(0) */\n      0xffffffffffffffffffffffffffffffffffffffff\n      and\n        /* \"@openzeppelin/contracts-upgradeable/token/ERC20/ERC20Upgradeable.sol\":6687:6689  to */\n      dup3\n        /* \"@openzeppelin/contracts-upgradeable/token/ERC20/ERC20Upgradeable.sol\":6687:6703  to == address(0) */\n      0xffffffffffffffffffffffffffffffffffffffff\n      and\n      sub\n        /* \"@openzeppelin/contracts-upgradeable/token/ERC20/ERC20Upgradeable.sol\":6683:6769  if (to == address(0)) {... */\n      tag_221\n      jumpi\n        /* \"@openzeppelin/contracts-upgradeable/token/ERC20/ERC20Upgradeable.sol\":6755:6756  0 */\n      0x00\n        /* \"@openzeppelin/contracts-upgradeable/token/ERC20/ERC20Upgradeable.sol\":6726:6758  ERC20InvalidReceiver(address(0)) */\n      mload(0x40)\n      0xec442f0500000000000000000000000000000000000000000000000000000000\n      dup2\n      mstore\n      0x04\n      add\n      tag_222\n      swap2\n      swap1\n      tag_78\n      jump\t// in\n    tag_222:\n      mload(0x40)\n      dup1\n      swap2\n      sub\n      swap1\n      revert\n        /* \"@openzeppelin/contracts-upgradeable/token/ERC20/ERC20Upgradeable.sol\":6683:6769  if (to == address(0)) {... */\n    tag_221:\n        /* \"@openzeppelin/contracts-upgradeable/token/ERC20/ERC20Upgradeable.sol\":6778:6802  _update(from, to, value) */\n      tag_223\n        /* \"@openzeppelin/contracts-upgradeable/token/ERC20/ERC20Upgradeable.sol\":6786:6790  from */\n      dup4\n        /* \"@openzeppelin/contracts-upgradeable/token/ERC20/ERC20Upgradeable.sol\":6792:6794  to */\n      dup4\n        /* \"@openzeppelin/contracts-upgradeable/token/ERC20/ERC20Upgradeable.sol\":6796:6801  value */\n      dup4\n        /* \"@openzeppelin/contracts-upgradeable/token/ERC20/ERC20Upgradeable.sol\":6778:6785  _update */\n      tag_224\n        /* \"@openzeppelin/contracts-upgradeable/token/ERC20/ERC20Upgradeable.sol\":6778:6802  _update(from, to, value) */\n      jump\t// in\n    tag_223:\n        /* \"@openzeppelin/contracts-upgradeable/token/ERC20/ERC20Upgradeable.sol\":6509:6809  function _transfer(address from, address to, uint256 value) internal {... */\n      pop\n      pop\n      pop\n      jump\t// out\n        /* \"@openzeppelin/contracts-upgradeable/proxy/utils/Initializable.sol\":9071:9276  function _getInitializableStorage() private pure returns (InitializableStorage storage $) {... */\n    tag_125:\n        /* \"@openzeppelin/contracts-upgradeable/proxy/utils/Initializable.sol\":9129:9159  InitializableStorage storage $ */\n      0x00\n        /* \"@openzeppelin/contracts-upgradeable/proxy/utils/Initializable.sol\":9171:9183  bytes32 slot */\n      0x00\n        /* \"@openzeppelin/contracts-upgradeable/proxy/utils/Initializable.sol\":9186:9213  _initializableStorageSlot() */\n      tag_226\n        /* \"@openzeppelin/contracts-upgradeable/proxy/utils/Initializable.sol\":9186:9211  _initializableStorageSlot */\n      tag_227\n        /* \"@openzeppelin/contracts-upgradeable/proxy/utils/Initializable.sol\":9186:9213  _initializableStorageSlot() */\n      jump\t// in\n    tag_226:\n        /* \"@openzeppelin/contracts-upgradeable/proxy/utils/Initializable.sol\":9171:9213  bytes32 slot = _initializableStorageSlot() */\n      swap1\n      pop\n        /* \"@openzeppelin/contracts-upgradeable/proxy/utils/Initializable.sol\":9256:9260  slot */\n      dup1\n        /* \"@openzeppelin/contracts-upgradeable/proxy/utils/Initializable.sol\":9246:9260  $.slot := slot */\n      swap2\n      pop\n        /* \"@openzeppelin/contracts-upgradeable/proxy/utils/Initializable.sol\":9232:9270  {... */\n      pop\n        /* \"@openzeppelin/contracts-upgradeable/proxy/utils/Initializable.sol\":9071:9276  function _getInitializableStorage() private pure returns (InitializableStorage storage $) {... */\n      swap1\n      jump\t// out\n        /* \"@openzeppelin/contracts-upgradeable/token/ERC20/ERC20Upgradeable.sol\":2263:2410  function __ERC20_init(string memory name_, string memory symbol_) internal onlyInitializing {... */\n    tag_133:\n        /* \"@openzeppelin/contracts-upgradeable/proxy/utils/Initializable.sol\":6929:6949  _checkInitializing() */\n      tag_229\n        /* \"@openzeppelin/contracts-upgradeable/proxy/utils/Initializable.sol\":6929:6947  _checkInitializing */\n      tag_230\n        /* \"@openzeppelin/contracts-upgradeable/proxy/utils/Initializable.sol\":6929:6949  _checkInitializing() */\n      jump\t// in\n    tag_229:\n        /* \"@openzeppelin/contracts-upgradeable/token/ERC20/ERC20Upgradeable.sol\":2365:2403  __ERC20_init_unchained(name_, symbol_) */\n      tag_232\n        /* \"@openzeppelin/contracts-upgradeable/token/ERC20/ERC20Upgradeable.sol\":2388:2393  name_ */\n      dup3\n        /* \"@openzeppelin/contracts-upgradeable/token/ERC20/ERC20Upgradeable.sol\":2395:2402  symbol_ */\n      dup3\n        /* \"@openzeppelin/contracts-upgradeable/token/ERC20/ERC20Upgradeable.sol\":2365:2387  __ERC20_init_unchained */\n      tag_233\n        /* \"@openzeppelin/contracts-upgradeable/token/ERC20/ERC20Upgradeable.sol\":2365:2403  __ERC20_init_unchained(name_, symbol_) */\n      jump\t// in\n    tag_232:\n        /* \"@openzeppelin/contracts-upgradeable/token/ERC20/ERC20Upgradeable.sol\":2263:2410  function __ERC20_init(string memory name_, string memory symbol_) internal onlyInitializing {... */\n      pop\n      pop\n      jump\t// out\n        /* \"@openzeppelin/contracts-upgradeable/token/ERC20/extensions/ERC20CappedUpgradeable.sol\":1362:1481  function __ERC20Capped_init(uint256 cap_) internal onlyInitializing {... */\n    tag_140:\n        /* \"@openzeppelin/contracts-upgradeable/proxy/utils/Initializable.sol\":6929:6949  _checkInitializing() */\n      tag_235\n        /* \"@openzeppelin/contracts-upgradeable/proxy/utils/Initializable.sol\":6929:6947  _checkInitializing */\n      tag_230\n        /* \"@openzeppelin/contracts-upgradeable/proxy/utils/Initializable.sol\":6929:6949  _checkInitializing() */\n      jump\t// in\n    tag_235:\n        /* \"@openzeppelin/contracts-upgradeable/token/ERC20/extensions/ERC20CappedUpgradeable.sol\":1440:1474  __ERC20Capped_init_unchained(cap_) */\n      tag_237\n        /* \"@openzeppelin/contracts-upgradeable/token/ERC20/extensions/ERC20CappedUpgradeable.sol\":1469:1473  cap_ */\n      dup2\n        /* \"@openzeppelin/contracts-upgradeable/token/ERC20/extensions/ERC20CappedUpgradeable.sol\":1440:1468  __ERC20Capped_init_unchained */\n      tag_238\n        /* \"@openzeppelin/contracts-upgradeable/token/ERC20/extensions/ERC20CappedUpgradeable.sol\":1440:1474  __ERC20Capped_init_unchained(cap_) */\n      jump\t// in\n    tag_237:\n        /* \"@openzeppelin/contracts-upgradeable/token/ERC20/extensions/ERC20CappedUpgradeable.sol\":1362:1481  function __ERC20Capped_init(uint256 cap_) internal onlyInitializing {... */\n      pop\n      jump\t// out\n        /* \"@openzeppelin/contracts-upgradeable/access/OwnableUpgradeable.sol\":1847:1974  function __Ownable_init(address initialOwner) internal onlyInitializing {... */\n    tag_142:\n        /* \"@openzeppelin/contracts-upgradeable/proxy/utils/Initializable.sol\":6929:6949  _checkInitializing() */\n      tag_240\n        /* \"@openzeppelin/contracts-upgradeable/proxy/utils/Initializable.sol\":6929:6947  _checkInitializing */\n      tag_230\n        /* \"@openzeppelin/contracts-upgradeable/proxy/utils/Initializable.sol\":6929:6949  _checkInitializing() */\n      jump\t// in\n    tag_240:\n        /* \"@openzeppelin/contracts-upgradeable/access/OwnableUpgradeable.sol\":1929:1967  __Ownable_init_unchained(initialOwner) */\n      tag_242\n        /* \"@openzeppelin/contracts-upgradeable/access/OwnableUpgradeable.sol\":1954:1966  initialOwner */\n      dup2\n        /* \"@openzeppelin/contracts-upgradeable/access/OwnableUpgradeable.sol\":1929:1953  __Ownable_init_unchained */\n      tag_243\n        /* \"@openzeppelin/contracts-upgradeable/access/OwnableUpgradeable.sol\":1929:1967  __Ownable_init_unchained(initialOwner) */\n      jump\t// in\n    tag_242:\n        /* \"@openzeppelin/contracts-upgradeable/access/OwnableUpgradeable.sol\":1847:1974  function __Ownable_init(address initialOwner) internal onlyInitializing {... */\n      pop\n      jump\t// out\n        /* \"@openzeppelin/contracts-upgradeable/utils/ReentrancyGuardUpgradeable.sol\":2684:2795  function __ReentrancyGuard_init() internal onlyInitializing {... */\n    tag_144:\n        /* \"@openzeppelin/contracts-upgradeable/proxy/utils/Initializable.sol\":6929:6949  _checkInitializing() */\n      tag_245\n        /* \"@openzeppelin/contracts-upgradeable/proxy/utils/Initializable.sol\":6929:6947  _checkInitializing */\n      tag_230\n        /* \"@openzeppelin/contracts-upgradeable/proxy/utils/Initializable.sol\":6929:6949  _checkInitializing() */\n      jump\t// in\n    tag_245:\n        /* \"@openzeppelin/contracts-upgradeable/utils/ReentrancyGuardUpgradeable.sol\":2754:2788  __ReentrancyGuard_init_unchained() */\n      tag_247\n        /* \"@openzeppelin/contracts-upgradeable/utils/ReentrancyGuardUpgradeable.sol\":2754:2786  __ReentrancyGuard_init_unchained */\n      tag_248\n        /* \"@openzeppelin/contracts-upgradeable/utils/ReentrancyGuardUpgradeable.sol\":2754:2788  __ReentrancyGuard_init_unchained() */\n      jump\t// in\n    tag_247:\n        /* \"@openzeppelin/contracts-upgradeable/utils/ReentrancyGuardUpgradeable.sol\":2684:2795  function __ReentrancyGuard_init() internal onlyInitializing {... */\n      jump\t// out\n        /* \"@openzeppelin/contracts-upgradeable/token/ERC20/ERC20Upgradeable.sol\":8637:8845  function _mint(address account, uint256 value) internal {... */\n    tag_149:\n        /* \"@openzeppelin/contracts-upgradeable/token/ERC20/ERC20Upgradeable.sol\":8726:8727  0 */\n      0x00\n        /* \"@openzeppelin/contracts-upgradeable/token/ERC20/ERC20Upgradeable.sol\":8707:8728  account == address(0) */\n      0xffffffffffffffffffffffffffffffffffffffff\n      and\n        /* \"@openzeppelin/contracts-upgradeable/token/ERC20/ERC20Upgradeable.sol\":8707:8714  account */\n      dup3\n        /* \"@openzeppelin/contracts-upgradeable/token/ERC20/ERC20Upgradeable.sol\":8707:8728  account == address(0) */\n      0xffffffffffffffffffffffffffffffffffffffff\n      and\n      sub\n        /* \"@openzeppelin/contracts-upgradeable/token/ERC20/ERC20Upgradeable.sol\":8703:8794  if (account == address(0)) {... */\n      tag_250\n      jumpi\n        /* \"@openzeppelin/contracts-upgradeable/token/ERC20/ERC20Upgradeable.sol\":8780:8781  0 */\n      0x00\n        /* \"@openzeppelin/contracts-upgradeable/token/ERC20/ERC20Upgradeable.sol\":8751:8783  ERC20InvalidReceiver(address(0)) */\n      mload(0x40)\n      0xec442f0500000000000000000000000000000000000000000000000000000000\n      dup2\n      mstore\n      0x04\n      add\n      tag_251\n      swap2\n      swap1\n      tag_78\n      jump\t// in\n    tag_251:\n      mload(0x40)\n      dup1\n      swap2\n      sub\n      swap1\n      revert\n        /* \"@openzeppelin/contracts-upgradeable/token/ERC20/ERC20Upgradeable.sol\":8703:8794  if (account == address(0)) {... */\n    tag_250:\n        /* \"@openzeppelin/contracts-upgradeable/token/ERC20/ERC20Upgradeable.sol\":8803:8838  _update(address(0), account, value) */\n      tag_252\n        /* \"@openzeppelin/contracts-upgradeable/token/ERC20/ERC20Upgradeable.sol\":8819:8820  0 */\n      0x00\n        /* \"@openzeppelin/contracts-upgradeable/token/ERC20/ERC20Upgradeable.sol\":8823:8830  account */\n      dup4\n        /* \"@openzeppelin/contracts-upgradeable/token/ERC20/ERC20Upgradeable.sol\":8832:8837  value */\n      dup4\n        /* \"@openzeppelin/contracts-upgradeable/token/ERC20/ERC20Upgradeable.sol\":8803:8810  _update */\n      tag_224\n        /* \"@openzeppelin/contracts-upgradeable/token/ERC20/ERC20Upgradeable.sol\":8803:8838  _update(address(0), account, value) */\n      jump\t// in\n    tag_252:\n        /* \"@openzeppelin/contracts-upgradeable/token/ERC20/ERC20Upgradeable.sol\":8637:8845  function _mint(address account, uint256 value) internal {... */\n      pop\n      pop\n      jump\t// out\n        /* \"@openzeppelin/contracts-upgradeable/token/ERC20/extensions/ERC20CappedUpgradeable.sol\":814:985  function _getERC20CappedStorage() private pure returns (ERC20CappedStorage storage $) {... */\n    tag_155:\n        /* \"@openzeppelin/contracts-upgradeable/token/ERC20/extensions/ERC20CappedUpgradeable.sol\":870:898  ERC20CappedStorage storage $ */\n      0x00\n        /* \"@openzeppelin/contracts-upgradeable/token/ERC20/extensions/ERC20CappedUpgradeable.sol\":943:969  ERC20CappedStorageLocation */\n      0x0f070392f17d5f958cc1ac31867dabecfc5c9758b4a419a200803226d7155d00\n        /* \"@openzeppelin/contracts-upgradeable/token/ERC20/extensions/ERC20CappedUpgradeable.sol\":933:969  $.slot := ERC20CappedStorageLocation */\n      swap1\n      pop\n        /* \"@openzeppelin/contracts-upgradeable/token/ERC20/extensions/ERC20CappedUpgradeable.sol\":814:985  function _getERC20CappedStorage() private pure returns (ERC20CappedStorage storage $) {... */\n      swap1\n      jump\t// out\n        /* \"@openzeppelin/contracts-upgradeable/access/OwnableUpgradeable.sol\":2658:2820  function _checkOwner() internal view virtual {... */\n    tag_158:\n        /* \"@openzeppelin/contracts-upgradeable/access/OwnableUpgradeable.sol\":2728:2740  _msgSender() */\n      tag_255\n        /* \"@openzeppelin/contracts-upgradeable/access/OwnableUpgradeable.sol\":2728:2738  _msgSender */\n      tag_111\n        /* \"@openzeppelin/contracts-upgradeable/access/OwnableUpgradeable.sol\":2728:2740  _msgSender() */\n      jump\t// in\n    tag_255:\n        /* \"@openzeppelin/contracts-upgradeable/access/OwnableUpgradeable.sol\":2717:2740  owner() != _msgSender() */\n      0xffffffffffffffffffffffffffffffffffffffff\n      and\n        /* \"@openzeppelin/contracts-upgradeable/access/OwnableUpgradeable.sol\":2717:2724  owner() */\n      tag_256\n        /* \"@openzeppelin/contracts-upgradeable/access/OwnableUpgradeable.sol\":2717:2722  owner */\n      tag_76\n        /* \"@openzeppelin/contracts-upgradeable/access/OwnableUpgradeable.sol\":2717:2724  owner() */\n      jump\t// in\n    tag_256:\n        /* \"@openzeppelin/contracts-upgradeable/access/OwnableUpgradeable.sol\":2717:2740  owner() != _msgSender() */\n      0xffffffffffffffffffffffffffffffffffffffff\n      and\n      eq\n        /* \"@openzeppelin/contracts-upgradeable/access/OwnableUpgradeable.sol\":2713:2814  if (owner() != _msgSender()) {... */\n      tag_257\n      jumpi\n        /* \"@openzeppelin/contracts-upgradeable/access/OwnableUpgradeable.sol\":2790:2802  _msgSender() */\n      tag_258\n        /* \"@openzeppelin/contracts-upgradeable/access/OwnableUpgradeable.sol\":2790:2800  _msgSender */\n      tag_111\n        /* \"@openzeppelin/contracts-upgradeable/access/OwnableUpgradeable.sol\":2790:2802  _msgSender() */\n      jump\t// in\n    tag_258:\n        /* \"@openzeppelin/contracts-upgradeable/access/OwnableUpgradeable.sol\":2763:2803  OwnableUnauthorizedAccount(_msgSender()) */\n      mload(0x40)\n      0x118cdaa700000000000000000000000000000000000000000000000000000000\n      dup2\n      mstore\n      0x04\n      add\n      tag_259\n      swap2\n      swap1\n      tag_78\n      jump\t// in\n    tag_259:\n      mload(0x40)\n      dup1\n      swap2\n      sub\n      swap1\n      revert\n        /* \"@openzeppelin/contracts-upgradeable/access/OwnableUpgradeable.sol\":2713:2814  if (owner() != _msgSender()) {... */\n    tag_257:\n        /* \"@openzeppelin/contracts-upgradeable/access/OwnableUpgradeable.sol\":2658:2820  function _checkOwner() internal view virtual {... */\n      jump\t// out\n        /* \"@openzeppelin/contracts-upgradeable/utils/ReentrancyGuardUpgradeable.sol\":3470:3854  function _nonReentrantBefore() private {... */\n    tag_161:\n        /* \"@openzeppelin/contracts-upgradeable/utils/ReentrancyGuardUpgradeable.sol\":3519:3551  ReentrancyGuardStorage storage $ */\n      0x00\n        /* \"@openzeppelin/contracts-upgradeable/utils/ReentrancyGuardUpgradeable.sol\":3554:3582  _getReentrancyGuardStorage() */\n      tag_261\n        /* \"@openzeppelin/contracts-upgradeable/utils/ReentrancyGuardUpgradeable.sol\":3554:3580  _getReentrancyGuardStorage */\n      tag_262\n        /* \"@openzeppelin/contracts-upgradeable/utils/ReentrancyGuardUpgradeable.sol\":3554:3582  _getReentrancyGuardStorage() */\n      jump\t// in\n    tag_261:\n        /* \"@openzeppelin/contracts-upgradeable/utils/ReentrancyGuardUpgradeable.sol\":3519:3582  ReentrancyGuardStorage storage $ = _getReentrancyGuardStorage() */\n      swap1\n      pop\n        /* \"@openzeppelin/contracts-upgradeable/utils/ReentrancyGuardUpgradeable.sol\":1991:1992  2 */\n      0x02\n        /* \"@openzeppelin/contracts-upgradeable/utils/ReentrancyGuardUpgradeable.sol\":3670:3671  $ */\n      dup2\n        /* \"@openzeppelin/contracts-upgradeable/utils/ReentrancyGuardUpgradeable.sol\":3670:3679  $._status */\n      0x00\n      add\n      sload\n        /* \"@openzeppelin/contracts-upgradeable/utils/ReentrancyGuardUpgradeable.sol\":3670:3690  $._status == ENTERED */\n      sub\n        /* \"@openzeppelin/contracts-upgradeable/utils/ReentrancyGuardUpgradeable.sol\":3666:3754  if ($._status == ENTERED) {... */\n      tag_263\n      jumpi\n        /* \"@openzeppelin/contracts-upgradeable/utils/ReentrancyGuardUpgradeable.sol\":3713:3743  ReentrancyGuardReentrantCall() */\n      mload(0x40)\n      0x3ee5aeb500000000000000000000000000000000000000000000000000000000\n      dup2\n      mstore\n      0x04\n      add\n      mload(0x40)\n      dup1\n      swap2\n      sub\n      swap1\n      revert\n        /* \"@openzeppelin/contracts-upgradeable/utils/ReentrancyGuardUpgradeable.sol\":3666:3754  if ($._status == ENTERED) {... */\n    tag_263:\n        /* \"@openzeppelin/contracts-upgradeable/utils/ReentrancyGuardUpgradeable.sol\":1991:1992  2 */\n      0x02\n        /* \"@openzeppelin/contracts-upgradeable/utils/ReentrancyGuardUpgradeable.sol\":3828:3829  $ */\n      dup2\n        /* \"@openzeppelin/contracts-upgradeable/utils/ReentrancyGuardUpgradeable.sol\":3828:3837  $._status */\n      0x00\n      add\n        /* \"@openzeppelin/contracts-upgradeable/utils/ReentrancyGuardUpgradeable.sol\":3828:3847  $._status = ENTERED */\n      dup2\n      swap1\n      sstore\n      pop\n        /* \"@openzeppelin/contracts-upgradeable/utils/ReentrancyGuardUpgradeable.sol\":3509:3854  {... */\n      pop\n        /* \"@openzeppelin/contracts-upgradeable/utils/ReentrancyGuardUpgradeable.sol\":3470:3854  function _nonReentrantBefore() private {... */\n      jump\t// out\n        /* \"@openzeppelin/contracts-upgradeable/utils/ReentrancyGuardUpgradeable.sol\":3860:4143  function _nonReentrantAfter() private {... */\n    tag_165:\n        /* \"@openzeppelin/contracts-upgradeable/utils/ReentrancyGuardUpgradeable.sol\":3908:3940  ReentrancyGuardStorage storage $ */\n      0x00\n        /* \"@openzeppelin/contracts-upgradeable/utils/ReentrancyGuardUpgradeable.sol\":3943:3971  _getReentrancyGuardStorage() */\n      tag_265\n        /* \"@openzeppelin/contracts-upgradeable/utils/ReentrancyGuardUpgradeable.sol\":3943:3969  _getReentrancyGuardStorage */\n      tag_262\n        /* \"@openzeppelin/contracts-upgradeable/utils/ReentrancyGuardUpgradeable.sol\":3943:3971  _getReentrancyGuardStorage() */\n      jump\t// in\n    tag_265:\n        /* \"@openzeppelin/contracts-upgradeable/utils/ReentrancyGuardUpgradeable.sol\":3908:3971  ReentrancyGuardStorage storage $ = _getReentrancyGuardStorage() */\n      swap1\n      pop\n        /* \"@openzeppelin/contracts-upgradeable/utils/ReentrancyGuardUpgradeable.sol\":1949:1950  1 */\n      0x01\n        /* \"@openzeppelin/contracts-upgradeable/utils/ReentrancyGuardUpgradeable.sol\":4113:4114  $ */\n      dup2\n        /* \"@openzeppelin/contracts-upgradeable/utils/ReentrancyGuardUpgradeable.sol\":4113:4122  $._status */\n      0x00\n      add\n        /* \"@openzeppelin/contracts-upgradeable/utils/ReentrancyGuardUpgradeable.sol\":4113:4136  $._status = NOT_ENTERED */\n      dup2\n      swap1\n      sstore\n      pop\n        /* \"@openzeppelin/contracts-upgradeable/utils/ReentrancyGuardUpgradeable.sol\":3898:4143  {... */\n      pop\n        /* \"@openzeppelin/contracts-upgradeable/utils/ReentrancyGuardUpgradeable.sol\":3860:4143  function _nonReentrantAfter() private {... */\n      jump\t// out\n        /* \"@openzeppelin/contracts-upgradeable/token/ERC20/ERC20Upgradeable.sol\":9163:9369  function _burn(address account, uint256 value) internal {... */\n    tag_168:\n        /* \"@openzeppelin/contracts-upgradeable/token/ERC20/ERC20Upgradeable.sol\":9252:9253  0 */\n      0x00\n        /* \"@openzeppelin/contracts-upgradeable/token/ERC20/ERC20Upgradeable.sol\":9233:9254  account == address(0) */\n      0xffffffffffffffffffffffffffffffffffffffff\n      and\n        /* \"@openzeppelin/contracts-upgradeable/token/ERC20/ERC20Upgradeable.sol\":9233:9240  account */\n      dup3\n        /* \"@openzeppelin/contracts-upgradeable/token/ERC20/ERC20Upgradeable.sol\":9233:9254  account == address(0) */\n      0xffffffffffffffffffffffffffffffffffffffff\n      and\n      sub\n        /* \"@openzeppelin/contracts-upgradeable/token/ERC20/ERC20Upgradeable.sol\":9229:9318  if (account == address(0)) {... */\n      tag_267\n      jumpi\n        /* \"@openzeppelin/contracts-upgradeable/token/ERC20/ERC20Upgradeable.sol\":9304:9305  0 */\n      0x00\n        /* \"@openzeppelin/contracts-upgradeable/token/ERC20/ERC20Upgradeable.sol\":9277:9307  ERC20InvalidSender(address(0)) */\n      mload(0x40)\n      0x96c6fd1e00000000000000000000000000000000000000000000000000000000\n      dup2\n      mstore\n      0x04\n      add\n      tag_268\n      swap2\n      swap1\n      tag_78\n      jump\t// in\n    tag_268:\n      mload(0x40)\n      dup1\n      swap2\n      sub\n      swap1\n      revert\n        /* \"@openzeppelin/contracts-upgradeable/token/ERC20/ERC20Upgradeable.sol\":9229:9318  if (account == address(0)) {... */\n    tag_267:\n        /* \"@openzeppelin/contracts-upgradeable/token/ERC20/ERC20Upgradeable.sol\":9327:9362  _update(account, address(0), value) */\n      tag_269\n        /* \"@openzeppelin/contracts-upgradeable/token/ERC20/ERC20Upgradeable.sol\":9335:9342  account */\n      dup3\n        /* \"@openzeppelin/contracts-upgradeable/token/ERC20/ERC20Upgradeable.sol\":9352:9353  0 */\n      0x00\n        /* \"@openzeppelin/contracts-upgradeable/token/ERC20/ERC20Upgradeable.sol\":9356:9361  value */\n      dup4\n        /* \"@openzeppelin/contracts-upgradeable/token/ERC20/ERC20Upgradeable.sol\":9327:9334  _update */\n      tag_224\n        /* \"@openzeppelin/contracts-upgradeable/token/ERC20/ERC20Upgradeable.sol\":9327:9362  _update(account, address(0), value) */\n      jump\t// in\n    tag_269:\n        /* \"@openzeppelin/contracts-upgradeable/token/ERC20/ERC20Upgradeable.sol\":9163:9369  function _burn(address account, uint256 value) internal {... */\n      pop\n      pop\n      jump\t// out\n        /* \"@openzeppelin/contracts-upgradeable/access/Ownable2StepUpgradeable.sol\":2955:3177  function _transferOwnership(address newOwner) internal virtual override {... */\n    tag_176:\n        /* \"@openzeppelin/contracts-upgradeable/access/Ownable2StepUpgradeable.sol\":3037:3066  Ownable2StepStorage storage $ */\n      0x00\n        /* \"@openzeppelin/contracts-upgradeable/access/Ownable2StepUpgradeable.sol\":3069:3094  _getOwnable2StepStorage() */\n      tag_271\n        /* \"@openzeppelin/contracts-upgradeable/access/Ownable2StepUpgradeable.sol\":3069:3092  _getOwnable2StepStorage */\n      tag_200\n        /* \"@openzeppelin/contracts-upgradeable/access/Ownable2StepUpgradeable.sol\":3069:3094  _getOwnable2StepStorage() */\n      jump\t// in\n    tag_271:\n        /* \"@openzeppelin/contracts-upgradeable/access/Ownable2StepUpgradeable.sol\":3037:3094  Ownable2StepStorage storage $ = _getOwnable2StepStorage() */\n      swap1\n      pop\n        /* \"@openzeppelin/contracts-upgradeable/access/Ownable2StepUpgradeable.sol\":3111:3112  $ */\n      dup1\n        /* \"@openzeppelin/contracts-upgradeable/access/Ownable2StepUpgradeable.sol\":3111:3126  $._pendingOwner */\n      0x00\n      add\n      0x00\n        /* \"@openzeppelin/contracts-upgradeable/access/Ownable2StepUpgradeable.sol\":3104:3126  delete $._pendingOwner */\n      0x0100\n      exp\n      dup2\n      sload\n      swap1\n      0xffffffffffffffffffffffffffffffffffffffff\n      mul\n      not\n      and\n      swap1\n      sstore\n        /* \"@openzeppelin/contracts-upgradeable/access/Ownable2StepUpgradeable.sol\":3136:3170  super._transferOwnership(newOwner) */\n      tag_272\n        /* \"@openzeppelin/contracts-upgradeable/access/Ownable2StepUpgradeable.sol\":3161:3169  newOwner */\n      dup3\n        /* \"@openzeppelin/contracts-upgradeable/access/Ownable2StepUpgradeable.sol\":3136:3160  super._transferOwnership */\n      tag_273\n        /* \"@openzeppelin/contracts-upgradeable/access/Ownable2StepUpgradeable.sol\":3136:3170  super._transferOwnership(newOwner) */\n      jump\t// in\n    tag_272:\n        /* \"@openzeppelin/contracts-upgradeable/access/Ownable2StepUpgradeable.sol\":3027:3177  {... */\n      pop\n        /* \"@openzeppelin/contracts-upgradeable/access/Ownable2StepUpgradeable.sol\":2955:3177  function _transferOwnership(address newOwner) internal virtual override {... */\n      pop\n      jump\t// out\n        /* \"@openzeppelin/contracts-upgradeable/access/OwnableUpgradeable.sol\":1192:1351  function _getOwnableStorage() private pure returns (OwnableStorage storage $) {... */\n    tag_185:\n        /* \"@openzeppelin/contracts-upgradeable/access/OwnableUpgradeable.sol\":1244:1268  OwnableStorage storage $ */\n      0x00\n        /* \"@openzeppelin/contracts-upgradeable/access/OwnableUpgradeable.sol\":1313:1335  OwnableStorageLocation */\n      0x9016d09d72d40fdae2fd8ceac6b6234c7706214fd39c1cd1e609a0528c199300\n        /* \"@openzeppelin/contracts-upgradeable/access/OwnableUpgradeable.sol\":1303:1335  $.slot := OwnableStorageLocation */\n      swap1\n      pop\n        /* \"@openzeppelin/contracts-upgradeable/access/OwnableUpgradeable.sol\":1192:1351  function _getOwnableStorage() private pure returns (OwnableStorage storage $) {... */\n      swap1\n      jump\t// out\n        /* \"@openzeppelin/contracts-upgradeable/access/Ownable2StepUpgradeable.sol\":1545:1719  function _getOwnable2StepStorage() private pure returns (Ownable2StepStorage storage $) {... */\n    tag_200:\n        /* \"@openzeppelin/contracts-upgradeable/access/Ownable2StepUpgradeable.sol\":1602:1631  Ownable2StepStorage storage $ */\n      0x00\n        /* \"@openzeppelin/contracts-upgradeable/access/Ownable2StepUpgradeable.sol\":1676:1703  Ownable2StepStorageLocation */\n      0x237e158222e3e6968b72b9db0d8043aacf074ad9f650f0d1606b4d82ee432c00\n        /* \"@openzeppelin/contracts-upgradeable/access/Ownable2StepUpgradeable.sol\":1666:1703  $.slot := Ownable2StepStorageLocation */\n      swap1\n      pop\n        /* \"@openzeppelin/contracts-upgradeable/access/Ownable2StepUpgradeable.sol\":1545:1719  function _getOwnable2StepStorage() private pure returns (Ownable2StepStorage storage $) {... */\n      swap1\n      jump\t// out\n        /* \"@openzeppelin/contracts-upgradeable/token/ERC20/ERC20Upgradeable.sol\":10880:11367  function _approve(address owner, address spender, uint256 value, bool emitEvent) internal virtual {... */\n    tag_210:\n        /* \"@openzeppelin/contracts-upgradeable/token/ERC20/ERC20Upgradeable.sol\":10988:11010  ERC20Storage storage $ */\n      0x00\n        /* \"@openzeppelin/contracts-upgradeable/token/ERC20/ERC20Upgradeable.sol\":11013:11031  _getERC20Storage() */\n      tag_277\n        /* \"@openzeppelin/contracts-upgradeable/token/ERC20/ERC20Upgradeable.sol\":11013:11029  _getERC20Storage */\n      tag_102\n        /* \"@openzeppelin/contracts-upgradeable/token/ERC20/ERC20Upgradeable.sol\":11013:11031  _getERC20Storage() */\n      jump\t// in\n    tag_277:\n        /* \"@openzeppelin/contracts-upgradeable/token/ERC20/ERC20Upgradeable.sol\":10988:11031  ERC20Storage storage $ = _getERC20Storage() */\n      swap1\n      pop\n        /* \"@openzeppelin/contracts-upgradeable/token/ERC20/ERC20Upgradeable.sol\":11062:11063  0 */\n      0x00\n        /* \"@openzeppelin/contracts-upgradeable/token/ERC20/ERC20Upgradeable.sol\":11045:11064  owner == address(0) */\n      0xffffffffffffffffffffffffffffffffffffffff\n      and\n        /* \"@openzeppelin/contracts-upgradeable/token/ERC20/ERC20Upgradeable.sol\":11045:11050  owner */\n      dup6\n        /* \"@openzeppelin/contracts-upgradeable/token/ERC20/ERC20Upgradeable.sol\":11045:11064  owner == address(0) */\n      0xffffffffffffffffffffffffffffffffffffffff\n      and\n      sub\n        /* \"@openzeppelin/contracts-upgradeable/token/ERC20/ERC20Upgradeable.sol\":11041:11130  if (owner == address(0)) {... */\n      tag_278\n      jumpi\n        /* \"@openzeppelin/contracts-upgradeable/token/ERC20/ERC20Upgradeable.sol\":11116:11117  0 */\n      0x00\n        /* \"@openzeppelin/contracts-upgradeable/token/ERC20/ERC20Upgradeable.sol\":11087:11119  ERC20InvalidApprover(address(0)) */\n      mload(0x40)\n      0xe602df0500000000000000000000000000000000000000000000000000000000\n      dup2\n      mstore\n      0x04\n      add\n      tag_279\n      swap2\n      swap1\n      tag_78\n      jump\t// in\n    tag_279:\n      mload(0x40)\n      dup1\n      swap2\n      sub\n      swap1\n      revert\n        /* \"@openzeppelin/contracts-upgradeable/token/ERC20/ERC20Upgradeable.sol\":11041:11130  if (owner == address(0)) {... */\n    tag_278:\n        /* \"@openzeppelin/contracts-upgradeable/token/ERC20/ERC20Upgradeable.sol\":11162:11163  0 */\n      0x00\n        /* \"@openzeppelin/contracts-upgradeable/token/ERC20/ERC20Upgradeable.sol\":11143:11164  spender == address(0) */\n      0xffffffffffffffffffffffffffffffffffffffff\n      and\n        /* \"@openzeppelin/contracts-upgradeable/token/ERC20/ERC20Upgradeable.sol\":11143:11150  spender */\n      dup5\n        /* \"@openzeppelin/contracts-upgradeable/token/ERC20/ERC20Upgradeable.sol\":11143:11164  spender == address(0) */\n      0xffffffffffffffffffffffffffffffffffffffff\n      and\n      sub\n        /* \"@openzeppelin/contracts-upgradeable/token/ERC20/ERC20Upgradeable.sol\":11139:11229  if (spender == address(0)) {... */\n      tag_280\n      jumpi\n        /* \"@openzeppelin/contracts-upgradeable/token/ERC20/ERC20Upgradeable.sol\":11215:11216  0 */\n      0x00\n        /* \"@openzeppelin/contracts-upgradeable/token/ERC20/ERC20Upgradeable.sol\":11187:11218  ERC20InvalidSpender(address(0)) */\n      mload(0x40)\n      0x94280d6200000000000000000000000000000000000000000000000000000000\n      dup2\n      mstore\n      0x04\n      add\n      tag_281\n      swap2\n      swap1\n      tag_78\n      jump\t// in\n    tag_281:\n      mload(0x40)\n      dup1\n      swap2\n      sub\n      swap1\n      revert\n        /* \"@openzeppelin/contracts-upgradeable/token/ERC20/ERC20Upgradeable.sol\":11139:11229  if (spender == address(0)) {... */\n    tag_280:\n        /* \"@openzeppelin/contracts-upgradeable/token/ERC20/ERC20Upgradeable.sol\":11270:11275  value */\n      dup3\n        /* \"@openzeppelin/contracts-upgradeable/token/ERC20/ERC20Upgradeable.sol\":11238:11239  $ */\n      dup2\n        /* \"@openzeppelin/contracts-upgradeable/token/ERC20/ERC20Upgradeable.sol\":11238:11251  $._allowances */\n      0x01\n      add\n        /* \"@openzeppelin/contracts-upgradeable/token/ERC20/ERC20Upgradeable.sol\":11238:11258  $._allowances[owner] */\n      0x00\n        /* \"@openzeppelin/contracts-upgradeable/token/ERC20/ERC20Upgradeable.sol\":11252:11257  owner */\n      dup8\n        /* \"@openzeppelin/contracts-upgradeable/token/ERC20/ERC20Upgradeable.sol\":11238:11258  $._allowances[owner] */\n      0xffffffffffffffffffffffffffffffffffffffff\n      and\n      0xffffffffffffffffffffffffffffffffffffffff\n      and\n      dup2\n      mstore\n      0x20\n      add\n      swap1\n      dup2\n      mstore\n      0x20\n      add\n      0x00\n      keccak256\n        /* \"@openzeppelin/contracts-upgradeable/token/ERC20/ERC20Upgradeable.sol\":11238:11267  $._allowances[owner][spender] */\n      0x00\n        /* \"@openzeppelin/contracts-upgradeable/token/ERC20/ERC20Upgradeable.sol\":11259:11266  spender */\n      dup7\n        /* \"@openzeppelin/contracts-upgradeable/token/ERC20/ERC20Upgradeable.sol\":11238:11267  $._allowances[owner][spender] */\n      0xffffffffffffffffffffffffffffffffffffffff\n      and\n      0xffffffffffffffffffffffffffffffffffffffff\n      and\n      dup2\n      mstore\n      0x20\n      add\n      swap1\n      dup2\n      mstore\n      0x20\n      add\n      0x00\n      keccak256\n        /* \"@openzeppelin/contracts-upgradeable/token/ERC20/ERC20Upgradeable.sol\":11238:11275  $._allowances[owner][spender] = value */\n      dup2\n      swap1\n      sstore\n      pop\n        /* \"@openzeppelin/contracts-upgradeable/token/ERC20/ERC20Upgradeable.sol\":11289:11298  emitEvent */\n      dup2\n        /* \"@openzeppelin/contracts-upgradeable/token/ERC20/ERC20Upgradeable.sol\":11285:11361  if (emitEvent) {... */\n      iszero\n      tag_282\n      jumpi\n        /* \"@openzeppelin/contracts-upgradeable/token/ERC20/ERC20Upgradeable.sol\":11335:11342  spender */\n      dup4\n        /* \"@openzeppelin/contracts-upgradeable/token/ERC20/ERC20Upgradeable.sol\":11319:11350  Approval(owner, spender, value) */\n      0xffffffffffffffffffffffffffffffffffffffff\n      and\n        /* \"@openzeppelin/contracts-upgradeable/token/ERC20/ERC20Upgradeable.sol\":11328:11333  owner */\n      dup6\n        /* \"@openzeppelin/contracts-upgradeable/token/ERC20/ERC20Upgradeable.sol\":11319:11350  Approval(owner, spender, value) */\n      0xffffffffffffffffffffffffffffffffffffffff\n      and\n      0x8c5be1e5ebec7d5bd14f71427d1e84f3dd0314c0f7b2291e5b200ac8c7c3b925\n        /* \"@openzeppelin/contracts-upgradeable/token/ERC20/ERC20Upgradeable.sol\":11344:11349  value */\n      dup6\n        /* \"@openzeppelin/contracts-upgradeable/token/ERC20/ERC20Upgradeable.sol\":11319:11350  Approval(owner, spender, value) */\n      mload(0x40)\n      tag_283\n      swap2\n      swap1\n      tag_39\n      jump\t// in\n    tag_283:\n      mload(0x40)\n      dup1\n      swap2\n      sub\n      swap1\n      log3\n        /* \"@openzeppelin/contracts-upgradeable/token/ERC20/ERC20Upgradeable.sol\":11285:11361  if (emitEvent) {... */\n    tag_282:\n        /* \"@openzeppelin/contracts-upgradeable/token/ERC20/ERC20Upgradeable.sol\":10978:11367  {... */\n      pop\n        /* \"@openzeppelin/contracts-upgradeable/token/ERC20/ERC20Upgradeable.sol\":10880:11367  function _approve(address owner, address spender, uint256 value, bool emitEvent) internal virtual {... */\n      pop\n      pop\n      pop\n      pop\n      jump\t// out\n        /* \"contracts/Proxy deployment contracts/TestProxyImpl.sol\":1513:1678  function _update(address from,address to,uint256 value) internal override(ERC20Upgradeable,ERC20CappedUpgradeable) {... */\n    tag_224:\n        /* \"contracts/Proxy deployment contracts/TestProxyImpl.sol\":1639:1669  super._update(from, to, value) */\n      tag_285\n        /* \"contracts/Proxy deployment contracts/TestProxyImpl.sol\":1653:1657  from */\n      dup4\n        /* \"contracts/Proxy deployment contracts/TestProxyImpl.sol\":1659:1661  to */\n      dup4\n        /* \"contracts/Proxy deployment contracts/TestProxyImpl.sol\":1663:1668  value */\n      dup4\n        /* \"contracts/Proxy deployment contracts/TestProxyImpl.sol\":1639:1652  super._update */\n      tag_286\n        /* \"contracts/Proxy deployment contracts/TestProxyImpl.sol\":1639:1669  super._update(from, to, value) */\n      jump\t// in\n    tag_285:\n        /* \"contracts/Proxy deployment contracts/TestProxyImpl.sol\":1513:1678  function _update(address from,address to,uint256 value) internal override(ERC20Upgradeable,ERC20CappedUpgradeable) {... */\n      pop\n      pop\n      pop\n      jump\t// out\n        /* \"@openzeppelin/contracts-upgradeable/proxy/utils/Initializable.sol\":8819:8941  function _initializableStorageSlot() internal pure virtual returns (bytes32) {... */\n    tag_227:\n        /* \"@openzeppelin/contracts-upgradeable/proxy/utils/Initializable.sol\":8887:8894  bytes32 */\n      0x00\n        /* \"@openzeppelin/contracts-upgradeable/proxy/utils/Initializable.sol\":3147:3213  0xf0c57e16840df040f15088dc2f81fe391c3923bec73e23a9662efc9c229c6a00 */\n      0xf0c57e16840df040f15088dc2f81fe391c3923bec73e23a9662efc9c229c6a00\n        /* \"@openzeppelin/contracts-upgradeable/proxy/utils/Initializable.sol\":8913:8934  INITIALIZABLE_STORAGE */\n      0x00\n      shl\n        /* \"@openzeppelin/contracts-upgradeable/proxy/utils/Initializable.sol\":8906:8934  return INITIALIZABLE_STORAGE */\n      swap1\n      pop\n        /* \"@openzeppelin/contracts-upgradeable/proxy/utils/Initializable.sol\":8819:8941  function _initializableStorageSlot() internal pure virtual returns (bytes32) {... */\n      swap1\n      jump\t// out\n        /* \"@openzeppelin/contracts-upgradeable/proxy/utils/Initializable.sol\":7082:7223  function _checkInitializing() internal view virtual {... */\n    tag_230:\n        /* \"@openzeppelin/contracts-upgradeable/proxy/utils/Initializable.sol\":7149:7166  _isInitializing() */\n      tag_289\n        /* \"@openzeppelin/contracts-upgradeable/proxy/utils/Initializable.sol\":7149:7164  _isInitializing */\n      tag_290\n        /* \"@openzeppelin/contracts-upgradeable/proxy/utils/Initializable.sol\":7149:7166  _isInitializing() */\n      jump\t// in\n    tag_289:\n        /* \"@openzeppelin/contracts-upgradeable/proxy/utils/Initializable.sol\":7144:7217  if (!_isInitializing()) {... */\n      tag_291\n      jumpi\n        /* \"@openzeppelin/contracts-upgradeable/proxy/utils/Initializable.sol\":7189:7206  NotInitializing() */\n      mload(0x40)\n      0xd7e6bcf800000000000000000000000000000000000000000000000000000000\n      dup2\n      mstore\n      0x04\n      add\n      mload(0x40)\n      dup1\n      swap2\n      sub\n      swap1\n      revert\n        /* \"@openzeppelin/contracts-upgradeable/proxy/utils/Initializable.sol\":7144:7217  if (!_isInitializing()) {... */\n    tag_291:\n        /* \"@openzeppelin/contracts-upgradeable/proxy/utils/Initializable.sol\":7082:7223  function _checkInitializing() internal view virtual {... */\n      jump\t// out\n        /* \"@openzeppelin/contracts-upgradeable/token/ERC20/ERC20Upgradeable.sol\":2416:2632  function __ERC20_init_unchained(string memory name_, string memory symbol_) internal onlyInitializing {... */\n    tag_233:\n        /* \"@openzeppelin/contracts-upgradeable/proxy/utils/Initializable.sol\":6929:6949  _checkInitializing() */\n      tag_293\n        /* \"@openzeppelin/contracts-upgradeable/proxy/utils/Initializable.sol\":6929:6947  _checkInitializing */\n      tag_230\n        /* \"@openzeppelin/contracts-upgradeable/proxy/utils/Initializable.sol\":6929:6949  _checkInitializing() */\n      jump\t// in\n    tag_293:\n        /* \"@openzeppelin/contracts-upgradeable/token/ERC20/ERC20Upgradeable.sol\":2528:2550  ERC20Storage storage $ */\n      0x00\n        /* \"@openzeppelin/contracts-upgradeable/token/ERC20/ERC20Upgradeable.sol\":2553:2571  _getERC20Storage() */\n      tag_295\n        /* \"@openzeppelin/contracts-upgradeable/token/ERC20/ERC20Upgradeable.sol\":2553:2569  _getERC20Storage */\n      tag_102\n        /* \"@openzeppelin/contracts-upgradeable/token/ERC20/ERC20Upgradeable.sol\":2553:2571  _getERC20Storage() */\n      jump\t// in\n    tag_295:\n        /* \"@openzeppelin/contracts-upgradeable/token/ERC20/ERC20Upgradeable.sol\":2528:2571  ERC20Storage storage $ = _getERC20Storage() */\n      swap1\n      pop\n        /* \"@openzeppelin/contracts-upgradeable/token/ERC20/ERC20Upgradeable.sol\":2591:2596  name_ */\n      dup3\n        /* \"@openzeppelin/contracts-upgradeable/token/ERC20/ERC20Upgradeable.sol\":2581:2582  $ */\n      dup2\n        /* \"@openzeppelin/contracts-upgradeable/token/ERC20/ERC20Upgradeable.sol\":2581:2588  $._name */\n      0x03\n      add\n        /* \"@openzeppelin/contracts-upgradeable/token/ERC20/ERC20Upgradeable.sol\":2581:2596  $._name = name_ */\n      swap1\n      dup2\n      tag_296\n      swap2\n      swap1\n      tag_297\n      jump\t// in\n    tag_296:\n      pop\n        /* \"@openzeppelin/contracts-upgradeable/token/ERC20/ERC20Upgradeable.sol\":2618:2625  symbol_ */\n      dup2\n        /* \"@openzeppelin/contracts-upgradeable/token/ERC20/ERC20Upgradeable.sol\":2606:2607  $ */\n      dup2\n        /* \"@openzeppelin/contracts-upgradeable/token/ERC20/ERC20Upgradeable.sol\":2606:2615  $._symbol */\n      0x04\n      add\n        /* \"@openzeppelin/contracts-upgradeable/token/ERC20/ERC20Upgradeable.sol\":2606:2625  $._symbol = symbol_ */\n      swap1\n      dup2\n      tag_298\n      swap2\n      swap1\n      tag_297\n      jump\t// in\n    tag_298:\n      pop\n        /* \"@openzeppelin/contracts-upgradeable/token/ERC20/ERC20Upgradeable.sol\":2518:2632  {... */\n      pop\n        /* \"@openzeppelin/contracts-upgradeable/token/ERC20/ERC20Upgradeable.sol\":2416:2632  function __ERC20_init_unchained(string memory name_, string memory symbol_) internal onlyInitializing {... */\n      pop\n      pop\n      jump\t// out\n        /* \"@openzeppelin/contracts-upgradeable/token/ERC20/extensions/ERC20CappedUpgradeable.sol\":1487:1734  function __ERC20Capped_init_unchained(uint256 cap_) internal onlyInitializing {... */\n    tag_238:\n        /* \"@openzeppelin/contracts-upgradeable/proxy/utils/Initializable.sol\":6929:6949  _checkInitializing() */\n      tag_300\n        /* \"@openzeppelin/contracts-upgradeable/proxy/utils/Initializable.sol\":6929:6947  _checkInitializing */\n      tag_230\n        /* \"@openzeppelin/contracts-upgradeable/proxy/utils/Initializable.sol\":6929:6949  _checkInitializing() */\n      jump\t// in\n    tag_300:\n        /* \"@openzeppelin/contracts-upgradeable/token/ERC20/extensions/ERC20CappedUpgradeable.sol\":1575:1603  ERC20CappedStorage storage $ */\n      0x00\n        /* \"@openzeppelin/contracts-upgradeable/token/ERC20/extensions/ERC20CappedUpgradeable.sol\":1606:1630  _getERC20CappedStorage() */\n      tag_302\n        /* \"@openzeppelin/contracts-upgradeable/token/ERC20/extensions/ERC20CappedUpgradeable.sol\":1606:1628  _getERC20CappedStorage */\n      tag_155\n        /* \"@openzeppelin/contracts-upgradeable/token/ERC20/extensions/ERC20CappedUpgradeable.sol\":1606:1630  _getERC20CappedStorage() */\n      jump\t// in\n    tag_302:\n        /* \"@openzeppelin/contracts-upgradeable/token/ERC20/extensions/ERC20CappedUpgradeable.sol\":1575:1630  ERC20CappedStorage storage $ = _getERC20CappedStorage() */\n      swap1\n      pop\n        /* \"@openzeppelin/contracts-upgradeable/token/ERC20/extensions/ERC20CappedUpgradeable.sol\":1652:1653  0 */\n      0x00\n        /* \"@openzeppelin/contracts-upgradeable/token/ERC20/extensions/ERC20CappedUpgradeable.sol\":1644:1648  cap_ */\n      dup3\n        /* \"@openzeppelin/contracts-upgradeable/token/ERC20/extensions/ERC20CappedUpgradeable.sol\":1644:1653  cap_ == 0 */\n      sub\n        /* \"@openzeppelin/contracts-upgradeable/token/ERC20/extensions/ERC20CappedUpgradeable.sol\":1640:1705  if (cap_ == 0) {... */\n      tag_303\n      jumpi\n        /* \"@openzeppelin/contracts-upgradeable/token/ERC20/extensions/ERC20CappedUpgradeable.sol\":1692:1693  0 */\n      0x00\n        /* \"@openzeppelin/contracts-upgradeable/token/ERC20/extensions/ERC20CappedUpgradeable.sol\":1676:1694  ERC20InvalidCap(0) */\n      mload(0x40)\n      0x392e1e2700000000000000000000000000000000000000000000000000000000\n      dup2\n      mstore\n      0x04\n      add\n      tag_304\n      swap2\n      swap1\n      tag_305\n      jump\t// in\n    tag_304:\n      mload(0x40)\n      dup1\n      swap2\n      sub\n      swap1\n      revert\n        /* \"@openzeppelin/contracts-upgradeable/token/ERC20/extensions/ERC20CappedUpgradeable.sol\":1640:1705  if (cap_ == 0) {... */\n    tag_303:\n        /* \"@openzeppelin/contracts-upgradeable/token/ERC20/extensions/ERC20CappedUpgradeable.sol\":1723:1727  cap_ */\n      dup2\n        /* \"@openzeppelin/contracts-upgradeable/token/ERC20/extensions/ERC20CappedUpgradeable.sol\":1714:1715  $ */\n      dup2\n        /* \"@openzeppelin/contracts-upgradeable/token/ERC20/extensions/ERC20CappedUpgradeable.sol\":1714:1720  $._cap */\n      0x00\n      add\n        /* \"@openzeppelin/contracts-upgradeable/token/ERC20/extensions/ERC20CappedUpgradeable.sol\":1714:1727  $._cap = cap_ */\n      dup2\n      swap1\n      sstore\n      pop\n        /* \"@openzeppelin/contracts-upgradeable/token/ERC20/extensions/ERC20CappedUpgradeable.sol\":1565:1734  {... */\n      pop\n        /* \"@openzeppelin/contracts-upgradeable/token/ERC20/extensions/ERC20CappedUpgradeable.sol\":1487:1734  function __ERC20Capped_init_unchained(uint256 cap_) internal onlyInitializing {... */\n      pop\n      jump\t// out\n        /* \"@openzeppelin/contracts-upgradeable/access/OwnableUpgradeable.sol\":1980:2215  function __Ownable_init_unchained(address initialOwner) internal onlyInitializing {... */\n    tag_243:\n        /* \"@openzeppelin/contracts-upgradeable/proxy/utils/Initializable.sol\":6929:6949  _checkInitializing() */\n      tag_307\n        /* \"@openzeppelin/contracts-upgradeable/proxy/utils/Initializable.sol\":6929:6947  _checkInitializing */\n      tag_230\n        /* \"@openzeppelin/contracts-upgradeable/proxy/utils/Initializable.sol\":6929:6949  _checkInitializing() */\n      jump\t// in\n    tag_307:\n        /* \"@openzeppelin/contracts-upgradeable/access/OwnableUpgradeable.sol\":2100:2101  0 */\n      0x00\n        /* \"@openzeppelin/contracts-upgradeable/access/OwnableUpgradeable.sol\":2076:2102  initialOwner == address(0) */\n      0xffffffffffffffffffffffffffffffffffffffff\n      and\n        /* \"@openzeppelin/contracts-upgradeable/access/OwnableUpgradeable.sol\":2076:2088  initialOwner */\n      dup2\n        /* \"@openzeppelin/contracts-upgradeable/access/OwnableUpgradeable.sol\":2076:2102  initialOwner == address(0) */\n      0xffffffffffffffffffffffffffffffffffffffff\n      and\n      sub\n        /* \"@openzeppelin/contracts-upgradeable/access/OwnableUpgradeable.sol\":2072:2167  if (initialOwner == address(0)) {... */\n      tag_309\n      jumpi\n        /* \"@openzeppelin/contracts-upgradeable/access/OwnableUpgradeable.sol\":2153:2154  0 */\n      0x00\n        /* \"@openzeppelin/contracts-upgradeable/access/OwnableUpgradeable.sol\":2125:2156  OwnableInvalidOwner(address(0)) */\n      mload(0x40)\n      0x1e4fbdf700000000000000000000000000000000000000000000000000000000\n      dup2\n      mstore\n      0x04\n      add\n      tag_310\n      swap2\n      swap1\n      tag_78\n      jump\t// in\n    tag_310:\n      mload(0x40)\n      dup1\n      swap2\n      sub\n      swap1\n      revert\n        /* \"@openzeppelin/contracts-upgradeable/access/OwnableUpgradeable.sol\":2072:2167  if (initialOwner == address(0)) {... */\n    tag_309:\n        /* \"@openzeppelin/contracts-upgradeable/access/OwnableUpgradeable.sol\":2176:2208  _transferOwnership(initialOwner) */\n      tag_311\n        /* \"@openzeppelin/contracts-upgradeable/access/OwnableUpgradeable.sol\":2195:2207  initialOwner */\n      dup2\n        /* \"@openzeppelin/contracts-upgradeable/access/OwnableUpgradeable.sol\":2176:2194  _transferOwnership */\n      tag_176\n        /* \"@openzeppelin/contracts-upgradeable/access/OwnableUpgradeable.sol\":2176:2208  _transferOwnership(initialOwner) */\n      jump\t// in\n    tag_311:\n        /* \"@openzeppelin/contracts-upgradeable/access/OwnableUpgradeable.sol\":1980:2215  function __Ownable_init_unchained(address initialOwner) internal onlyInitializing {... */\n      pop\n      jump\t// out\n        /* \"@openzeppelin/contracts-upgradeable/utils/ReentrancyGuardUpgradeable.sol\":2801:2984  function __ReentrancyGuard_init_unchained() internal onlyInitializing {... */\n    tag_248:\n        /* \"@openzeppelin/contracts-upgradeable/proxy/utils/Initializable.sol\":6929:6949  _checkInitializing() */\n      tag_313\n        /* \"@openzeppelin/contracts-upgradeable/proxy/utils/Initializable.sol\":6929:6947  _checkInitializing */\n      tag_230\n        /* \"@openzeppelin/contracts-upgradeable/proxy/utils/Initializable.sol\":6929:6949  _checkInitializing() */\n      jump\t// in\n    tag_313:\n        /* \"@openzeppelin/contracts-upgradeable/utils/ReentrancyGuardUpgradeable.sol\":2881:2913  ReentrancyGuardStorage storage $ */\n      0x00\n        /* \"@openzeppelin/contracts-upgradeable/utils/ReentrancyGuardUpgradeable.sol\":2916:2944  _getReentrancyGuardStorage() */\n      tag_315\n        /* \"@openzeppelin/contracts-upgradeable/utils/ReentrancyGuardUpgradeable.sol\":2916:2942  _getReentrancyGuardStorage */\n      tag_262\n        /* \"@openzeppelin/contracts-upgradeable/utils/ReentrancyGuardUpgradeable.sol\":2916:2944  _getReentrancyGuardStorage() */\n      jump\t// in\n    tag_315:\n        /* \"@openzeppelin/contracts-upgradeable/utils/ReentrancyGuardUpgradeable.sol\":2881:2944  ReentrancyGuardStorage storage $ = _getReentrancyGuardStorage() */\n      swap1\n      pop\n        /* \"@openzeppelin/contracts-upgradeable/utils/ReentrancyGuardUpgradeable.sol\":1949:1950  1 */\n      0x01\n        /* \"@openzeppelin/contracts-upgradeable/utils/ReentrancyGuardUpgradeable.sol\":2954:2955  $ */\n      dup2\n        /* \"@openzeppelin/contracts-upgradeable/utils/ReentrancyGuardUpgradeable.sol\":2954:2963  $._status */\n      0x00\n      add\n        /* \"@openzeppelin/contracts-upgradeable/utils/ReentrancyGuardUpgradeable.sol\":2954:2977  $._status = NOT_ENTERED */\n      dup2\n      swap1\n      sstore\n      pop\n        /* \"@openzeppelin/contracts-upgradeable/utils/ReentrancyGuardUpgradeable.sol\":2871:2984  {... */\n      pop\n        /* \"@openzeppelin/contracts-upgradeable/utils/ReentrancyGuardUpgradeable.sol\":2801:2984  function __ReentrancyGuard_init_unchained() internal onlyInitializing {... */\n      jump\t// out\n        /* \"@openzeppelin/contracts-upgradeable/utils/ReentrancyGuardUpgradeable.sol\":2395:2578  function _getReentrancyGuardStorage() private pure returns (ReentrancyGuardStorage storage $) {... */\n    tag_262:\n        /* \"@openzeppelin/contracts-upgradeable/utils/ReentrancyGuardUpgradeable.sol\":2455:2487  ReentrancyGuardStorage storage $ */\n      0x00\n        /* \"@openzeppelin/contracts-upgradeable/utils/ReentrancyGuardUpgradeable.sol\":2532:2562  ReentrancyGuardStorageLocation */\n      0x9b779b17422d0df92223018b32b4d1fa46e071723d6817e2486d003becc55f00\n        /* \"@openzeppelin/contracts-upgradeable/utils/ReentrancyGuardUpgradeable.sol\":2522:2562  $.slot := ReentrancyGuardStorageLocation */\n      swap1\n      pop\n        /* \"@openzeppelin/contracts-upgradeable/utils/ReentrancyGuardUpgradeable.sol\":2395:2578  function _getReentrancyGuardStorage() private pure returns (ReentrancyGuardStorage storage $) {... */\n      swap1\n      jump\t// out\n        /* \"@openzeppelin/contracts-upgradeable/access/OwnableUpgradeable.sol\":3774:4022  function _transferOwnership(address newOwner) internal virtual {... */\n    tag_273:\n        /* \"@openzeppelin/contracts-upgradeable/access/OwnableUpgradeable.sol\":3847:3871  OwnableStorage storage $ */\n      0x00\n        /* \"@openzeppelin/contracts-upgradeable/access/OwnableUpgradeable.sol\":3874:3894  _getOwnableStorage() */\n      tag_318\n        /* \"@openzeppelin/contracts-upgradeable/access/OwnableUpgradeable.sol\":3874:3892  _getOwnableStorage */\n      tag_185\n        /* \"@openzeppelin/contracts-upgradeable/access/OwnableUpgradeable.sol\":3874:3894  _getOwnableStorage() */\n      jump\t// in\n    tag_318:\n        /* \"@openzeppelin/contracts-upgradeable/access/OwnableUpgradeable.sol\":3847:3894  OwnableStorage storage $ = _getOwnableStorage() */\n      swap1\n      pop\n        /* \"@openzeppelin/contracts-upgradeable/access/OwnableUpgradeable.sol\":3904:3920  address oldOwner */\n      0x00\n        /* \"@openzeppelin/contracts-upgradeable/access/OwnableUpgradeable.sol\":3923:3924  $ */\n      dup2\n        /* \"@openzeppelin/contracts-upgradeable/access/OwnableUpgradeable.sol\":3923:3931  $._owner */\n      0x00\n      add\n      0x00\n      swap1\n      sload\n      swap1\n      0x0100\n      exp\n      swap1\n      div\n      0xffffffffffffffffffffffffffffffffffffffff\n      and\n        /* \"@openzeppelin/contracts-upgradeable/access/OwnableUpgradeable.sol\":3904:3931  address oldOwner = $._owner */\n      swap1\n      pop\n        /* \"@openzeppelin/contracts-upgradeable/access/OwnableUpgradeable.sol\":3952:3960  newOwner */\n      dup3\n        /* \"@openzeppelin/contracts-upgradeable/access/OwnableUpgradeable.sol\":3941:3942  $ */\n      dup3\n        /* \"@openzeppelin/contracts-upgradeable/access/OwnableUpgradeable.sol\":3941:3949  $._owner */\n      0x00\n      add\n      0x00\n        /* \"@openzeppelin/contracts-upgradeable/access/OwnableUpgradeable.sol\":3941:3960  $._owner = newOwner */\n      0x0100\n      exp\n      dup2\n      sload\n      dup2\n      0xffffffffffffffffffffffffffffffffffffffff\n      mul\n      not\n      and\n      swap1\n      dup4\n      0xffffffffffffffffffffffffffffffffffffffff\n      and\n      mul\n      or\n      swap1\n      sstore\n      pop\n        /* \"@openzeppelin/contracts-upgradeable/access/OwnableUpgradeable.sol\":4006:4014  newOwner */\n      dup3\n        /* \"@openzeppelin/contracts-upgradeable/access/OwnableUpgradeable.sol\":3975:4015  OwnershipTransferred(oldOwner, newOwner) */\n      0xffffffffffffffffffffffffffffffffffffffff\n      and\n        /* \"@openzeppelin/contracts-upgradeable/access/OwnableUpgradeable.sol\":3996:4004  oldOwner */\n      dup2\n        /* \"@openzeppelin/contracts-upgradeable/access/OwnableUpgradeable.sol\":3975:4015  OwnershipTransferred(oldOwner, newOwner) */\n      0xffffffffffffffffffffffffffffffffffffffff\n      and\n      0x8be0079c531659141344cd1fd0a4f28419497f9722a3daafe3b4186f6b6457e0\n      mload(0x40)\n      mload(0x40)\n      dup1\n      swap2\n      sub\n      swap1\n      log3\n        /* \"@openzeppelin/contracts-upgradeable/access/OwnableUpgradeable.sol\":3837:4022  {... */\n      pop\n      pop\n        /* \"@openzeppelin/contracts-upgradeable/access/OwnableUpgradeable.sol\":3774:4022  function _transferOwnership(address newOwner) internal virtual {... */\n      pop\n      jump\t// out\n        /* \"@openzeppelin/contracts-upgradeable/token/ERC20/extensions/ERC20CappedUpgradeable.sol\":2004:2375  function _update(address from, address to, uint256 value) internal virtual override {... */\n    tag_286:\n        /* \"@openzeppelin/contracts-upgradeable/token/ERC20/extensions/ERC20CappedUpgradeable.sol\":2098:2128  super._update(from, to, value) */\n      tag_320\n        /* \"@openzeppelin/contracts-upgradeable/token/ERC20/extensions/ERC20CappedUpgradeable.sol\":2112:2116  from */\n      dup4\n        /* \"@openzeppelin/contracts-upgradeable/token/ERC20/extensions/ERC20CappedUpgradeable.sol\":2118:2120  to */\n      dup4\n        /* \"@openzeppelin/contracts-upgradeable/token/ERC20/extensions/ERC20CappedUpgradeable.sol\":2122:2127  value */\n      dup4\n        /* \"@openzeppelin/contracts-upgradeable/token/ERC20/extensions/ERC20CappedUpgradeable.sol\":2098:2111  super._update */\n      tag_321\n        /* \"@openzeppelin/contracts-upgradeable/token/ERC20/extensions/ERC20CappedUpgradeable.sol\":2098:2128  super._update(from, to, value) */\n      jump\t// in\n    tag_320:\n        /* \"@openzeppelin/contracts-upgradeable/token/ERC20/extensions/ERC20CappedUpgradeable.sol\":2159:2160  0 */\n      0x00\n        /* \"@openzeppelin/contracts-upgradeable/token/ERC20/extensions/ERC20CappedUpgradeable.sol\":2143:2161  from == address(0) */\n      0xffffffffffffffffffffffffffffffffffffffff\n      and\n        /* \"@openzeppelin/contracts-upgradeable/token/ERC20/extensions/ERC20CappedUpgradeable.sol\":2143:2147  from */\n      dup4\n        /* \"@openzeppelin/contracts-upgradeable/token/ERC20/extensions/ERC20CappedUpgradeable.sol\":2143:2161  from == address(0) */\n      0xffffffffffffffffffffffffffffffffffffffff\n      and\n      sub\n        /* \"@openzeppelin/contracts-upgradeable/token/ERC20/extensions/ERC20CappedUpgradeable.sol\":2139:2369  if (from == address(0)) {... */\n      tag_322\n      jumpi\n        /* \"@openzeppelin/contracts-upgradeable/token/ERC20/extensions/ERC20CappedUpgradeable.sol\":2177:2194  uint256 maxSupply */\n      0x00\n        /* \"@openzeppelin/contracts-upgradeable/token/ERC20/extensions/ERC20CappedUpgradeable.sol\":2197:2202  cap() */\n      tag_323\n        /* \"@openzeppelin/contracts-upgradeable/token/ERC20/extensions/ERC20CappedUpgradeable.sol\":2197:2200  cap */\n      tag_54\n        /* \"@openzeppelin/contracts-upgradeable/token/ERC20/extensions/ERC20CappedUpgradeable.sol\":2197:2202  cap() */\n      jump\t// in\n    tag_323:\n        /* \"@openzeppelin/contracts-upgradeable/token/ERC20/extensions/ERC20CappedUpgradeable.sol\":2177:2202  uint256 maxSupply = cap() */\n      swap1\n      pop\n        /* \"@openzeppelin/contracts-upgradeable/token/ERC20/extensions/ERC20CappedUpgradeable.sol\":2216:2230  uint256 supply */\n      0x00\n        /* \"@openzeppelin/contracts-upgradeable/token/ERC20/extensions/ERC20CappedUpgradeable.sol\":2233:2246  totalSupply() */\n      tag_324\n        /* \"@openzeppelin/contracts-upgradeable/token/ERC20/extensions/ERC20CappedUpgradeable.sol\":2233:2244  totalSupply */\n      tag_37\n        /* \"@openzeppelin/contracts-upgradeable/token/ERC20/extensions/ERC20CappedUpgradeable.sol\":2233:2246  totalSupply() */\n      jump\t// in\n    tag_324:\n        /* \"@openzeppelin/contracts-upgradeable/token/ERC20/extensions/ERC20CappedUpgradeable.sol\":2216:2246  uint256 supply = totalSupply() */\n      swap1\n      pop\n        /* \"@openzeppelin/contracts-upgradeable/token/ERC20/extensions/ERC20CappedUpgradeable.sol\":2273:2282  maxSupply */\n      dup2\n        /* \"@openzeppelin/contracts-upgradeable/token/ERC20/extensions/ERC20CappedUpgradeable.sol\":2264:2270  supply */\n      dup2\n        /* \"@openzeppelin/contracts-upgradeable/token/ERC20/extensions/ERC20CappedUpgradeable.sol\":2264:2282  supply > maxSupply */\n      gt\n        /* \"@openzeppelin/contracts-upgradeable/token/ERC20/extensions/ERC20CappedUpgradeable.sol\":2260:2359  if (supply > maxSupply) {... */\n      iszero\n      tag_325\n      jumpi\n        /* \"@openzeppelin/contracts-upgradeable/token/ERC20/extensions/ERC20CappedUpgradeable.sol\":2326:2332  supply */\n      dup1\n        /* \"@openzeppelin/contracts-upgradeable/token/ERC20/extensions/ERC20CappedUpgradeable.sol\":2334:2343  maxSupply */\n      dup3\n        /* \"@openzeppelin/contracts-upgradeable/token/ERC20/extensions/ERC20CappedUpgradeable.sol\":2309:2344  ERC20ExceededCap(supply, maxSupply) */\n      mload(0x40)\n      0x9e79f85400000000000000000000000000000000000000000000000000000000\n      dup2\n      mstore\n      0x04\n      add\n      tag_326\n      swap3\n      swap2\n      swap1\n      tag_327\n      jump\t// in\n    tag_326:\n      mload(0x40)\n      dup1\n      swap2\n      sub\n      swap1\n      revert\n        /* \"@openzeppelin/contracts-upgradeable/token/ERC20/extensions/ERC20CappedUpgradeable.sol\":2260:2359  if (supply > maxSupply) {... */\n    tag_325:\n        /* \"@openzeppelin/contracts-upgradeable/token/ERC20/extensions/ERC20CappedUpgradeable.sol\":2163:2369  {... */\n      pop\n      pop\n        /* \"@openzeppelin/contracts-upgradeable/token/ERC20/extensions/ERC20CappedUpgradeable.sol\":2139:2369  if (from == address(0)) {... */\n    tag_322:\n        /* \"@openzeppelin/contracts-upgradeable/token/ERC20/extensions/ERC20CappedUpgradeable.sol\":2004:2375  function _update(address from, address to, uint256 value) internal virtual override {... */\n      pop\n      pop\n      pop\n      jump\t// out\n        /* \"@openzeppelin/contracts-upgradeable/proxy/utils/Initializable.sol\":8485:8605  function _isInitializing() internal view returns (bool) {... */\n    tag_290:\n        /* \"@openzeppelin/contracts-upgradeable/proxy/utils/Initializable.sol\":8535:8539  bool */\n      0x00\n        /* \"@openzeppelin/contracts-upgradeable/proxy/utils/Initializable.sol\":8558:8584  _getInitializableStorage() */\n      tag_329\n        /* \"@openzeppelin/contracts-upgradeable/proxy/utils/Initializable.sol\":8558:8582  _getInitializableStorage */\n      tag_125\n        /* \"@openzeppelin/contracts-upgradeable/proxy/utils/Initializable.sol\":8558:8584  _getInitializableStorage() */\n      jump\t// in\n    tag_329:\n        /* \"@openzeppelin/contracts-upgradeable/proxy/utils/Initializable.sol\":8558:8598  _getInitializableStorage()._initializing */\n      0x00\n      add\n      0x08\n      swap1\n      sload\n      swap1\n      0x0100\n      exp\n      swap1\n      div\n      0xff\n      and\n        /* \"@openzeppelin/contracts-upgradeable/proxy/utils/Initializable.sol\":8551:8598  return _getInitializableStorage()._initializing */\n      swap1\n      pop\n        /* \"@openzeppelin/contracts-upgradeable/proxy/utils/Initializable.sol\":8485:8605  function _isInitializing() internal view returns (bool) {... */\n      swap1\n      jump\t// out\n        /* \"@openzeppelin/contracts-upgradeable/token/ERC20/ERC20Upgradeable.sol\":7124:8294  function _update(address from, address to, uint256 value) internal virtual {... */\n    tag_321:\n        /* \"@openzeppelin/contracts-upgradeable/token/ERC20/ERC20Upgradeable.sol\":7209:7231  ERC20Storage storage $ */\n      0x00\n        /* \"@openzeppelin/contracts-upgradeable/token/ERC20/ERC20Upgradeable.sol\":7234:7252  _getERC20Storage() */\n      tag_331\n        /* \"@openzeppelin/contracts-upgradeable/token/ERC20/ERC20Upgradeable.sol\":7234:7250  _getERC20Storage */\n      tag_102\n        /* \"@openzeppelin/contracts-upgradeable/token/ERC20/ERC20Upgradeable.sol\":7234:7252  _getERC20Storage() */\n      jump\t// in\n    tag_331:\n        /* \"@openzeppelin/contracts-upgradeable/token/ERC20/ERC20Upgradeable.sol\":7209:7252  ERC20Storage storage $ = _getERC20Storage() */\n      swap1\n      pop\n        /* \"@openzeppelin/contracts-upgradeable/token/ERC20/ERC20Upgradeable.sol\":7282:7283  0 */\n      0x00\n        /* \"@openzeppelin/contracts-upgradeable/token/ERC20/ERC20Upgradeable.sol\":7266:7284  from == address(0) */\n      0xffffffffffffffffffffffffffffffffffffffff\n      and\n        /* \"@openzeppelin/contracts-upgradeable/token/ERC20/ERC20Upgradeable.sol\":7266:7270  from */\n      dup5\n        /* \"@openzeppelin/contracts-upgradeable/token/ERC20/ERC20Upgradeable.sol\":7266:7284  from == address(0) */\n      0xffffffffffffffffffffffffffffffffffffffff\n      and\n      sub\n        /* \"@openzeppelin/contracts-upgradeable/token/ERC20/ERC20Upgradeable.sol\":7262:7808  if (from == address(0)) {... */\n      tag_332\n      jumpi\n        /* \"@openzeppelin/contracts-upgradeable/token/ERC20/ERC20Upgradeable.sol\":7420:7425  value */\n      dup2\n        /* \"@openzeppelin/contracts-upgradeable/token/ERC20/ERC20Upgradeable.sol\":7402:7403  $ */\n      dup2\n        /* \"@openzeppelin/contracts-upgradeable/token/ERC20/ERC20Upgradeable.sol\":7402:7416  $._totalSupply */\n      0x02\n      add\n      0x00\n        /* \"@openzeppelin/contracts-upgradeable/token/ERC20/ERC20Upgradeable.sol\":7402:7425  $._totalSupply += value */\n      dup3\n      dup3\n      sload\n      tag_333\n      swap2\n      swap1\n      tag_334\n      jump\t// in\n    tag_333:\n      swap3\n      pop\n      pop\n      dup2\n      swap1\n      sstore\n      pop\n        /* \"@openzeppelin/contracts-upgradeable/token/ERC20/ERC20Upgradeable.sol\":7262:7808  if (from == address(0)) {... */\n      jump(tag_335)\n    tag_332:\n        /* \"@openzeppelin/contracts-upgradeable/token/ERC20/ERC20Upgradeable.sol\":7456:7475  uint256 fromBalance */\n      0x00\n        /* \"@openzeppelin/contracts-upgradeable/token/ERC20/ERC20Upgradeable.sol\":7478:7479  $ */\n      dup2\n        /* \"@openzeppelin/contracts-upgradeable/token/ERC20/ERC20Upgradeable.sol\":7478:7489  $._balances */\n      0x00\n      add\n        /* \"@openzeppelin/contracts-upgradeable/token/ERC20/ERC20Upgradeable.sol\":7478:7495  $._balances[from] */\n      0x00\n        /* \"@openzeppelin/contracts-upgradeable/token/ERC20/ERC20Upgradeable.sol\":7490:7494  from */\n      dup7\n        /* \"@openzeppelin/contracts-upgradeable/token/ERC20/ERC20Upgradeable.sol\":7478:7495  $._balances[from] */\n      0xffffffffffffffffffffffffffffffffffffffff\n      and\n      0xffffffffffffffffffffffffffffffffffffffff\n      and\n      dup2\n      mstore\n      0x20\n      add\n      swap1\n      dup2\n      mstore\n      0x20\n      add\n      0x00\n      keccak256\n      sload\n        /* \"@openzeppelin/contracts-upgradeable/token/ERC20/ERC20Upgradeable.sol\":7456:7495  uint256 fromBalance = $._balances[from] */\n      swap1\n      pop\n        /* \"@openzeppelin/contracts-upgradeable/token/ERC20/ERC20Upgradeable.sol\":7527:7532  value */\n      dup3\n        /* \"@openzeppelin/contracts-upgradeable/token/ERC20/ERC20Upgradeable.sol\":7513:7524  fromBalance */\n      dup2\n        /* \"@openzeppelin/contracts-upgradeable/token/ERC20/ERC20Upgradeable.sol\":7513:7532  fromBalance < value */\n      lt\n        /* \"@openzeppelin/contracts-upgradeable/token/ERC20/ERC20Upgradeable.sol\":7509:7624  if (fromBalance < value) {... */\n      iszero\n      tag_336\n      jumpi\n        /* \"@openzeppelin/contracts-upgradeable/token/ERC20/ERC20Upgradeable.sol\":7584:7588  from */\n      dup5\n        /* \"@openzeppelin/contracts-upgradeable/token/ERC20/ERC20Upgradeable.sol\":7590:7601  fromBalance */\n      dup2\n        /* \"@openzeppelin/contracts-upgradeable/token/ERC20/ERC20Upgradeable.sol\":7603:7608  value */\n      dup5\n        /* \"@openzeppelin/contracts-upgradeable/token/ERC20/ERC20Upgradeable.sol\":7559:7609  ERC20InsufficientBalance(from, fromBalance, value) */\n      mload(0x40)\n      0xe450d38c00000000000000000000000000000000000000000000000000000000\n      dup2\n      mstore\n      0x04\n      add\n      tag_337\n      swap4\n      swap3\n      swap2\n      swap1\n      tag_216\n      jump\t// in\n    tag_337:\n      mload(0x40)\n      dup1\n      swap2\n      sub\n      swap1\n      revert\n        /* \"@openzeppelin/contracts-upgradeable/token/ERC20/ERC20Upgradeable.sol\":7509:7624  if (fromBalance < value) {... */\n    tag_336:\n        /* \"@openzeppelin/contracts-upgradeable/token/ERC20/ERC20Upgradeable.sol\":7778:7783  value */\n      dup3\n        /* \"@openzeppelin/contracts-upgradeable/token/ERC20/ERC20Upgradeable.sol\":7764:7775  fromBalance */\n      dup2\n        /* \"@openzeppelin/contracts-upgradeable/token/ERC20/ERC20Upgradeable.sol\":7764:7783  fromBalance - value */\n      sub\n        /* \"@openzeppelin/contracts-upgradeable/token/ERC20/ERC20Upgradeable.sol\":7744:7745  $ */\n      dup3\n        /* \"@openzeppelin/contracts-upgradeable/token/ERC20/ERC20Upgradeable.sol\":7744:7755  $._balances */\n      0x00\n      add\n        /* \"@openzeppelin/contracts-upgradeable/token/ERC20/ERC20Upgradeable.sol\":7744:7761  $._balances[from] */\n      0x00\n        /* \"@openzeppelin/contracts-upgradeable/token/ERC20/ERC20Upgradeable.sol\":7756:7760  from */\n      dup8\n        /* \"@openzeppelin/contracts-upgradeable/token/ERC20/ERC20Upgradeable.sol\":7744:7761  $._balances[from] */\n      0xffffffffffffffffffffffffffffffffffffffff\n      and\n      0xffffffffffffffffffffffffffffffffffffffff\n      and\n      dup2\n      mstore\n      0x20\n      add\n      swap1\n      dup2\n      mstore\n      0x20\n      add\n      0x00\n      keccak256\n        /* \"@openzeppelin/contracts-upgradeable/token/ERC20/ERC20Upgradeable.sol\":7744:7783  $._balances[from] = fromBalance - value */\n      dup2\n      swap1\n      sstore\n      pop\n        /* \"@openzeppelin/contracts-upgradeable/token/ERC20/ERC20Upgradeable.sol\":7442:7808  {... */\n      pop\n        /* \"@openzeppelin/contracts-upgradeable/token/ERC20/ERC20Upgradeable.sol\":7262:7808  if (from == address(0)) {... */\n    tag_335:\n        /* \"@openzeppelin/contracts-upgradeable/token/ERC20/ERC20Upgradeable.sol\":7836:7837  0 */\n      0x00\n        /* \"@openzeppelin/contracts-upgradeable/token/ERC20/ERC20Upgradeable.sol\":7822:7838  to == address(0) */\n      0xffffffffffffffffffffffffffffffffffffffff\n      and\n        /* \"@openzeppelin/contracts-upgradeable/token/ERC20/ERC20Upgradeable.sol\":7822:7824  to */\n      dup4\n        /* \"@openzeppelin/contracts-upgradeable/token/ERC20/ERC20Upgradeable.sol\":7822:7838  to == address(0) */\n      0xffffffffffffffffffffffffffffffffffffffff\n      and\n      sub\n        /* \"@openzeppelin/contracts-upgradeable/token/ERC20/ERC20Upgradeable.sol\":7818:8247  if (to == address(0)) {... */\n      tag_338\n      jumpi\n        /* \"@openzeppelin/contracts-upgradeable/token/ERC20/ERC20Upgradeable.sol\":8003:8008  value */\n      dup2\n        /* \"@openzeppelin/contracts-upgradeable/token/ERC20/ERC20Upgradeable.sol\":7985:7986  $ */\n      dup2\n        /* \"@openzeppelin/contracts-upgradeable/token/ERC20/ERC20Upgradeable.sol\":7985:7999  $._totalSupply */\n      0x02\n      add\n      0x00\n        /* \"@openzeppelin/contracts-upgradeable/token/ERC20/ERC20Upgradeable.sol\":7985:8008  $._totalSupply -= value */\n      dup3\n      dup3\n      sload\n      sub\n      swap3\n      pop\n      pop\n      dup2\n      swap1\n      sstore\n      pop\n        /* \"@openzeppelin/contracts-upgradeable/token/ERC20/ERC20Upgradeable.sol\":7818:8247  if (to == address(0)) {... */\n      jump(tag_339)\n    tag_338:\n        /* \"@openzeppelin/contracts-upgradeable/token/ERC20/ERC20Upgradeable.sol\":8217:8222  value */\n      dup2\n        /* \"@openzeppelin/contracts-upgradeable/token/ERC20/ERC20Upgradeable.sol\":8198:8199  $ */\n      dup2\n        /* \"@openzeppelin/contracts-upgradeable/token/ERC20/ERC20Upgradeable.sol\":8198:8209  $._balances */\n      0x00\n      add\n        /* \"@openzeppelin/contracts-upgradeable/token/ERC20/ERC20Upgradeable.sol\":8198:8213  $._balances[to] */\n      0x00\n        /* \"@openzeppelin/contracts-upgradeable/token/ERC20/ERC20Upgradeable.sol\":8210:8212  to */\n      dup6\n        /* \"@openzeppelin/contracts-upgradeable/token/ERC20/ERC20Upgradeable.sol\":8198:8213  $._balances[to] */\n      0xffffffffffffffffffffffffffffffffffffffff\n      and\n      0xffffffffffffffffffffffffffffffffffffffff\n      and\n      dup2\n      mstore\n      0x20\n      add\n      swap1\n      dup2\n      mstore\n      0x20\n      add\n      0x00\n      keccak256\n      0x00\n        /* \"@openzeppelin/contracts-upgradeable/token/ERC20/ERC20Upgradeable.sol\":8198:8222  $._balances[to] += value */\n      dup3\n      dup3\n      sload\n      add\n      swap3\n      pop\n      pop\n      dup2\n      swap1\n      sstore\n      pop\n        /* \"@openzeppelin/contracts-upgradeable/token/ERC20/ERC20Upgradeable.sol\":7818:8247  if (to == address(0)) {... */\n    tag_339:\n        /* \"@openzeppelin/contracts-upgradeable/token/ERC20/ERC20Upgradeable.sol\":8277:8279  to */\n      dup3\n        /* \"@openzeppelin/contracts-upgradeable/token/ERC20/ERC20Upgradeable.sol\":8262:8287  Transfer(from, to, value) */\n      0xffffffffffffffffffffffffffffffffffffffff\n      and\n        /* \"@openzeppelin/contracts-upgradeable/token/ERC20/ERC20Upgradeable.sol\":8271:8275  from */\n      dup5\n        /* \"@openzeppelin/contracts-upgradeable/token/ERC20/ERC20Upgradeable.sol\":8262:8287  Transfer(from, to, value) */\n      0xffffffffffffffffffffffffffffffffffffffff\n      and\n      0xddf252ad1be2c89b69c2b068fc378daa952ba7f163c4a11628f55a4df523b3ef\n        /* \"@openzeppelin/contracts-upgradeable/token/ERC20/ERC20Upgradeable.sol\":8281:8286  value */\n      dup5\n        /* \"@openzeppelin/contracts-upgradeable/token/ERC20/ERC20Upgradeable.sol\":8262:8287  Transfer(from, to, value) */\n      mload(0x40)\n      tag_340\n      swap2\n      swap1\n      tag_39\n      jump\t// in\n    tag_340:\n      mload(0x40)\n      dup1\n      swap2\n      sub\n      swap1\n      log3\n        /* \"@openzeppelin/contracts-upgradeable/token/ERC20/ERC20Upgradeable.sol\":7199:8294  {... */\n      pop\n        /* \"@openzeppelin/contracts-upgradeable/token/ERC20/ERC20Upgradeable.sol\":7124:8294  function _update(address from, address to, uint256 value) internal virtual {... */\n      pop\n      pop\n      pop\n      jump\t// out\n        /* \"#utility.yul\":7:106   */\n    tag_341:\n        /* \"#utility.yul\":59:65   */\n      0x00\n        /* \"#utility.yul\":93:98   */\n      dup2\n        /* \"#utility.yul\":87:99   */\n      mload\n        /* \"#utility.yul\":77:99   */\n      swap1\n      pop\n        /* \"#utility.yul\":7:106   */\n      swap2\n      swap1\n      pop\n      jump\t// out\n        /* \"#utility.yul\":112:281   */\n    tag_342:\n        /* \"#utility.yul\":196:207   */\n      0x00\n        /* \"#utility.yul\":230:236   */\n      dup3\n        /* \"#utility.yul\":225:228   */\n      dup3\n        /* \"#utility.yul\":218:237   */\n      mstore\n        /* \"#utility.yul\":270:274   */\n      0x20\n        /* \"#utility.yul\":265:268   */\n      dup3\n        /* \"#utility.yul\":261:275   */\n      add\n        /* \"#utility.yul\":246:275   */\n      swap1\n      pop\n        /* \"#utility.yul\":112:281   */\n      swap3\n      swap2\n      pop\n      pop\n      jump\t// out\n        /* \"#utility.yul\":287:426   */\n    tag_343:\n        /* \"#utility.yul\":376:382   */\n      dup3\n        /* \"#utility.yul\":371:374   */\n      dup2\n        /* \"#utility.yul\":366:369   */\n      dup4\n        /* \"#utility.yul\":360:383   */\n      mcopy\n        /* \"#utility.yul\":417:418   */\n      0x00\n        /* \"#utility.yul\":408:414   */\n      dup4\n        /* \"#utility.yul\":403:406   */\n      dup4\n        /* \"#utility.yul\":399:415   */\n      add\n        /* \"#utility.yul\":392:419   */\n      mstore\n        /* \"#utility.yul\":287:426   */\n      pop\n      pop\n      pop\n      jump\t// out\n        /* \"#utility.yul\":432:534   */\n    tag_344:\n        /* \"#utility.yul\":473:479   */\n      0x00\n        /* \"#utility.yul\":524:526   */\n      0x1f\n        /* \"#utility.yul\":520:527   */\n      not\n        /* \"#utility.yul\":515:517   */\n      0x1f\n        /* \"#utility.yul\":508:513   */\n      dup4\n        /* \"#utility.yul\":504:518   */\n      add\n        /* \"#utility.yul\":500:528   */\n      and\n        /* \"#utility.yul\":490:528   */\n      swap1\n      pop\n        /* \"#utility.yul\":432:534   */\n      swap2\n      swap1\n      pop\n      jump\t// out\n        /* \"#utility.yul\":540:917   */\n    tag_345:\n        /* \"#utility.yul\":628:631   */\n      0x00\n        /* \"#utility.yul\":656:695   */\n      tag_404\n        /* \"#utility.yul\":689:694   */\n      dup3\n        /* \"#utility.yul\":656:695   */\n      tag_341\n      jump\t// in\n    tag_404:\n        /* \"#utility.yul\":711:782   */\n      tag_405\n        /* \"#utility.yul\":775:781   */\n      dup2\n        /* \"#utility.yul\":770:773   */\n      dup6\n        /* \"#utility.yul\":711:782   */\n      tag_342\n      jump\t// in\n    tag_405:\n        /* \"#utility.yul\":704:782   */\n      swap4\n      pop\n        /* \"#utility.yul\":791:856   */\n      tag_406\n        /* \"#utility.yul\":849:855   */\n      dup2\n        /* \"#utility.yul\":844:847   */\n      dup6\n        /* \"#utility.yul\":837:841   */\n      0x20\n        /* \"#utility.yul\":830:835   */\n      dup7\n        /* \"#utility.yul\":826:842   */\n      add\n        /* \"#utility.yul\":791:856   */\n      tag_343\n      jump\t// in\n    tag_406:\n        /* \"#utility.yul\":881:910   */\n      tag_407\n        /* \"#utility.yul\":903:909   */\n      dup2\n        /* \"#utility.yul\":881:910   */\n      tag_344\n      jump\t// in\n    tag_407:\n        /* \"#utility.yul\":876:879   */\n      dup5\n        /* \"#utility.yul\":872:911   */\n      add\n        /* \"#utility.yul\":865:911   */\n      swap2\n      pop\n        /* \"#utility.yul\":632:917   */\n      pop\n        /* \"#utility.yul\":540:917   */\n      swap3\n      swap2\n      pop\n      pop\n      jump\t// out\n        /* \"#utility.yul\":923:1236   */\n    tag_29:\n        /* \"#utility.yul\":1036:1040   */\n      0x00\n        /* \"#utility.yul\":1074:1076   */\n      0x20\n        /* \"#utility.yul\":1063:1072   */\n      dup3\n        /* \"#utility.yul\":1059:1077   */\n      add\n        /* \"#utility.yul\":1051:1077   */\n      swap1\n      pop\n        /* \"#utility.yul\":1123:1132   */\n      dup2\n        /* \"#utility.yul\":1117:1121   */\n      dup2\n        /* \"#utility.yul\":1113:1133   */\n      sub\n        /* \"#utility.yul\":1109:1110   */\n      0x00\n        /* \"#utility.yul\":1098:1107   */\n      dup4\n        /* \"#utility.yul\":1094:1111   */\n      add\n        /* \"#utility.yul\":1087:1134   */\n      mstore\n        /* \"#utility.yul\":1151:1229   */\n      tag_409\n        /* \"#utility.yul\":1224:1228   */\n      dup2\n        /* \"#utility.yul\":1215:1221   */\n      dup5\n        /* \"#utility.yul\":1151:1229   */\n      tag_345\n      jump\t// in\n    tag_409:\n        /* \"#utility.yul\":1143:1229   */\n      swap1\n      pop\n        /* \"#utility.yul\":923:1236   */\n      swap3\n      swap2\n      pop\n      pop\n      jump\t// out\n        /* \"#utility.yul\":1242:1317   */\n    tag_346:\n        /* \"#utility.yul\":1275:1281   */\n      0x00\n        /* \"#utility.yul\":1308:1310   */\n      0x40\n        /* \"#utility.yul\":1302:1311   */\n      mload\n        /* \"#utility.yul\":1292:1311   */\n      swap1\n      pop\n        /* \"#utility.yul\":1242:1317   */\n      swap1\n      jump\t// out\n        /* \"#utility.yul\":1323:1440   */\n    tag_347:\n        /* \"#utility.yul\":1432:1433   */\n      0x00\n        /* \"#utility.yul\":1429:1430   */\n      0x00\n        /* \"#utility.yul\":1422:1434   */\n      revert\n        /* \"#utility.yul\":1446:1563   */\n    tag_348:\n        /* \"#utility.yul\":1555:1556   */\n      0x00\n        /* \"#utility.yul\":1552:1553   */\n      0x00\n        /* \"#utility.yul\":1545:1557   */\n      revert\n        /* \"#utility.yul\":1569:1695   */\n    tag_349:\n        /* \"#utility.yul\":1606:1613   */\n      0x00\n        /* \"#utility.yul\":1646:1688   */\n      0xffffffffffffffffffffffffffffffffffffffff\n        /* \"#utility.yul\":1639:1644   */\n      dup3\n        /* \"#utility.yul\":1635:1689   */\n      and\n        /* \"#utility.yul\":1624:1689   */\n      swap1\n      pop\n        /* \"#utility.yul\":1569:1695   */\n      swap2\n      swap1\n      pop\n      jump\t// out\n        /* \"#utility.yul\":1701:1797   */\n    tag_350:\n        /* \"#utility.yul\":1738:1745   */\n      0x00\n        /* \"#utility.yul\":1767:1791   */\n      tag_415\n        /* \"#utility.yul\":1785:1790   */\n      dup3\n        /* \"#utility.yul\":1767:1791   */\n      tag_349\n      jump\t// in\n    tag_415:\n        /* \"#utility.yul\":1756:1791   */\n      swap1\n      pop\n        /* \"#utility.yul\":1701:1797   */\n      swap2\n      swap1\n      pop\n      jump\t// out\n        /* \"#utility.yul\":1803:1925   */\n    tag_351:\n        /* \"#utility.yul\":1876:1900   */\n      tag_417\n        /* \"#utility.yul\":1894:1899   */\n      dup2\n        /* \"#utility.yul\":1876:1900   */\n      tag_350\n      jump\t// in\n    tag_417:\n        /* \"#utility.yul\":1869:1874   */\n      dup2\n        /* \"#utility.yul\":1866:1901   */\n      eq\n        /* \"#utility.yul\":1856:1919   */\n      tag_418\n      jumpi\n        /* \"#utility.yul\":1915:1916   */\n      0x00\n        /* \"#utility.yul\":1912:1913   */\n      0x00\n        /* \"#utility.yul\":1905:1917   */\n      revert\n        /* \"#utility.yul\":1856:1919   */\n    tag_418:\n        /* \"#utility.yul\":1803:1925   */\n      pop\n      jump\t// out\n        /* \"#utility.yul\":1931:2070   */\n    tag_352:\n        /* \"#utility.yul\":1977:1982   */\n      0x00\n        /* \"#utility.yul\":2015:2021   */\n      dup2\n        /* \"#utility.yul\":2002:2022   */\n      calldataload\n        /* \"#utility.yul\":1993:2022   */\n      swap1\n      pop\n        /* \"#utility.yul\":2031:2064   */\n      tag_420\n        /* \"#utility.yul\":2058:2063   */\n      dup2\n        /* \"#utility.yul\":2031:2064   */\n      tag_351\n      jump\t// in\n    tag_420:\n        /* \"#utility.yul\":1931:2070   */\n      swap3\n      swap2\n      pop\n      pop\n      jump\t// out\n        /* \"#utility.yul\":2076:2153   */\n    tag_353:\n        /* \"#utility.yul\":2113:2120   */\n      0x00\n        /* \"#utility.yul\":2142:2147   */\n      dup2\n        /* \"#utility.yul\":2131:2147   */\n      swap1\n      pop\n        /* \"#utility.yul\":2076:2153   */\n      swap2\n      swap1\n      pop\n      jump\t// out\n        /* \"#utility.yul\":2159:2281   */\n    tag_354:\n        /* \"#utility.yul\":2232:2256   */\n      tag_423\n        /* \"#utility.yul\":2250:2255   */\n      dup2\n        /* \"#utility.yul\":2232:2256   */\n      tag_353\n      jump\t// in\n    tag_423:\n        /* \"#utility.yul\":2225:2230   */\n      dup2\n        /* \"#utility.yul\":2222:2257   */\n      eq\n        /* \"#utility.yul\":2212:2275   */\n      tag_424\n      jumpi\n        /* \"#utility.yul\":2271:2272   */\n      0x00\n        /* \"#utility.yul\":2268:2269   */\n      0x00\n        /* \"#utility.yul\":2261:2273   */\n      revert\n        /* \"#utility.yul\":2212:2275   */\n    tag_424:\n        /* \"#utility.yul\":2159:2281   */\n      pop\n      jump\t// out\n        /* \"#utility.yul\":2287:2426   */\n    tag_355:\n        /* \"#utility.yul\":2333:2338   */\n      0x00\n        /* \"#utility.yul\":2371:2377   */\n      dup2\n        /* \"#utility.yul\":2358:2378   */\n      calldataload\n        /* \"#utility.yul\":2349:2378   */\n      swap1\n      pop\n        /* \"#utility.yul\":2387:2420   */\n      tag_426\n        /* \"#utility.yul\":2414:2419   */\n      dup2\n        /* \"#utility.yul\":2387:2420   */\n      tag_354\n      jump\t// in\n    tag_426:\n        /* \"#utility.yul\":2287:2426   */\n      swap3\n      swap2\n      pop\n      pop\n      jump\t// out\n        /* \"#utility.yul\":2432:2906   */\n    tag_32:\n        /* \"#utility.yul\":2500:2506   */\n      0x00\n        /* \"#utility.yul\":2508:2514   */\n      0x00\n        /* \"#utility.yul\":2557:2559   */\n      0x40\n        /* \"#utility.yul\":2545:2554   */\n      dup4\n        /* \"#utility.yul\":2536:2543   */\n      dup6\n        /* \"#utility.yul\":2532:2555   */\n      sub\n        /* \"#utility.yul\":2528:2560   */\n      slt\n        /* \"#utility.yul\":2525:2644   */\n      iszero\n      tag_428\n      jumpi\n        /* \"#utility.yul\":2563:2642   */\n      tag_429\n      tag_347\n      jump\t// in\n    tag_429:\n        /* \"#utility.yul\":2525:2644   */\n    tag_428:\n        /* \"#utility.yul\":2683:2684   */\n      0x00\n        /* \"#utility.yul\":2708:2761   */\n      tag_430\n        /* \"#utility.yul\":2753:2760   */\n      dup6\n        /* \"#utility.yul\":2744:2750   */\n      dup3\n        /* \"#utility.yul\":2733:2742   */\n      dup7\n        /* \"#utility.yul\":2729:2751   */\n      add\n        /* \"#utility.yul\":2708:2761   */\n      tag_352\n      jump\t// in\n    tag_430:\n        /* \"#utility.yul\":2698:2761   */\n      swap3\n      pop\n        /* \"#utility.yul\":2654:2771   */\n      pop\n        /* \"#utility.yul\":2810:2812   */\n      0x20\n        /* \"#utility.yul\":2836:2889   */\n      tag_431\n        /* \"#utility.yul\":2881:2888   */\n      dup6\n        /* \"#utility.yul\":2872:2878   */\n      dup3\n        /* \"#utility.yul\":2861:2870   */\n      dup7\n        /* \"#utility.yul\":2857:2879   */\n      add\n        /* \"#utility.yul\":2836:2889   */\n      tag_355\n      jump\t// in\n    tag_431:\n        /* \"#utility.yul\":2826:2889   */\n      swap2\n      pop\n        /* \"#utility.yul\":2781:2899   */\n      pop\n        /* \"#utility.yul\":2432:2906   */\n      swap3\n      pop\n      swap3\n      swap1\n      pop\n      jump\t// out\n        /* \"#utility.yul\":2912:3002   */\n    tag_356:\n        /* \"#utility.yul\":2946:2953   */\n      0x00\n        /* \"#utility.yul\":2989:2994   */\n      dup2\n        /* \"#utility.yul\":2982:2995   */\n      iszero\n        /* \"#utility.yul\":2975:2996   */\n      iszero\n        /* \"#utility.yul\":2964:2996   */\n      swap1\n      pop\n        /* \"#utility.yul\":2912:3002   */\n      swap2\n      swap1\n      pop\n      jump\t// out\n        /* \"#utility.yul\":3008:3117   */\n    tag_357:\n        /* \"#utility.yul\":3089:3110   */\n      tag_434\n        /* \"#utility.yul\":3104:3109   */\n      dup2\n        /* \"#utility.yul\":3089:3110   */\n      tag_356\n      jump\t// in\n    tag_434:\n        /* \"#utility.yul\":3084:3087   */\n      dup3\n        /* \"#utility.yul\":3077:3111   */\n      mstore\n        /* \"#utility.yul\":3008:3117   */\n      pop\n      pop\n      jump\t// out\n        /* \"#utility.yul\":3123:3333   */\n    tag_35:\n        /* \"#utility.yul\":3210:3214   */\n      0x00\n        /* \"#utility.yul\":3248:3250   */\n      0x20\n        /* \"#utility.yul\":3237:3246   */\n      dup3\n        /* \"#utility.yul\":3233:3251   */\n      add\n        /* \"#utility.yul\":3225:3251   */\n      swap1\n      pop\n        /* \"#utility.yul\":3261:3326   */\n      tag_436\n        /* \"#utility.yul\":3323:3324   */\n      0x00\n        /* \"#utility.yul\":3312:3321   */\n      dup4\n        /* \"#utility.yul\":3308:3325   */\n      add\n        /* \"#utility.yul\":3299:3305   */\n      dup5\n        /* \"#utility.yul\":3261:3326   */\n      tag_357\n      jump\t// in\n    tag_436:\n        /* \"#utility.yul\":3123:3333   */\n      swap3\n      swap2\n      pop\n      pop\n      jump\t// out\n        /* \"#utility.yul\":3339:3457   */\n    tag_358:\n        /* \"#utility.yul\":3426:3450   */\n      tag_438\n        /* \"#utility.yul\":3444:3449   */\n      dup2\n        /* \"#utility.yul\":3426:3450   */\n      tag_353\n      jump\t// in\n    tag_438:\n        /* \"#utility.yul\":3421:3424   */\n      dup3\n        /* \"#utility.yul\":3414:3451   */\n      mstore\n        /* \"#utility.yul\":3339:3457   */\n      pop\n      pop\n      jump\t// out\n        /* \"#utility.yul\":3463:3685   */\n    tag_39:\n        /* \"#utility.yul\":3556:3560   */\n      0x00\n        /* \"#utility.yul\":3594:3596   */\n      0x20\n        /* \"#utility.yul\":3583:3592   */\n      dup3\n        /* \"#utility.yul\":3579:3597   */\n      add\n        /* \"#utility.yul\":3571:3597   */\n      swap1\n      pop\n        /* \"#utility.yul\":3607:3678   */\n      tag_440\n        /* \"#utility.yul\":3675:3676   */\n      0x00\n        /* \"#utility.yul\":3664:3673   */\n      dup4\n        /* \"#utility.yul\":3660:3677   */\n      add\n        /* \"#utility.yul\":3651:3657   */\n      dup5\n        /* \"#utility.yul\":3607:3678   */\n      tag_358\n      jump\t// in\n    tag_440:\n        /* \"#utility.yul\":3463:3685   */\n      swap3\n      swap2\n      pop\n      pop\n      jump\t// out\n        /* \"#utility.yul\":3691:4310   */\n    tag_42:\n        /* \"#utility.yul\":3768:3774   */\n      0x00\n        /* \"#utility.yul\":3776:3782   */\n      0x00\n        /* \"#utility.yul\":3784:3790   */\n      0x00\n        /* \"#utility.yul\":3833:3835   */\n      0x60\n        /* \"#utility.yul\":3821:3830   */\n      dup5\n        /* \"#utility.yul\":3812:3819   */\n      dup7\n        /* \"#utility.yul\":3808:3831   */\n      sub\n        /* \"#utility.yul\":3804:3836   */\n      slt\n        /* \"#utility.yul\":3801:3920   */\n      iszero\n      tag_442\n      jumpi\n        /* \"#utility.yul\":3839:3918   */\n      tag_443\n      tag_347\n      jump\t// in\n    tag_443:\n        /* \"#utility.yul\":3801:3920   */\n    tag_442:\n        /* \"#utility.yul\":3959:3960   */\n      0x00\n        /* \"#utility.yul\":3984:4037   */\n      tag_444\n        /* \"#utility.yul\":4029:4036   */\n      dup7\n        /* \"#utility.yul\":4020:4026   */\n      dup3\n        /* \"#utility.yul\":4009:4018   */\n      dup8\n        /* \"#utility.yul\":4005:4027   */\n      add\n        /* \"#utility.yul\":3984:4037   */\n      tag_352\n      jump\t// in\n    tag_444:\n        /* \"#utility.yul\":3974:4037   */\n      swap4\n      pop\n        /* \"#utility.yul\":3930:4047   */\n      pop\n        /* \"#utility.yul\":4086:4088   */\n      0x20\n        /* \"#utility.yul\":4112:4165   */\n      tag_445\n        /* \"#utility.yul\":4157:4164   */\n      dup7\n        /* \"#utility.yul\":4148:4154   */\n      dup3\n        /* \"#utility.yul\":4137:4146   */\n      dup8\n        /* \"#utility.yul\":4133:4155   */\n      add\n        /* \"#utility.yul\":4112:4165   */\n      tag_352\n      jump\t// in\n    tag_445:\n        /* \"#utility.yul\":4102:4165   */\n      swap3\n      pop\n        /* \"#utility.yul\":4057:4175   */\n      pop\n        /* \"#utility.yul\":4214:4216   */\n      0x40\n        /* \"#utility.yul\":4240:4293   */\n      tag_446\n        /* \"#utility.yul\":4285:4292   */\n      dup7\n        /* \"#utility.yul\":4276:4282   */\n      dup3\n        /* \"#utility.yul\":4265:4274   */\n      dup8\n        /* \"#utility.yul\":4261:4283   */\n      add\n        /* \"#utility.yul\":4240:4293   */\n      tag_355\n      jump\t// in\n    tag_446:\n        /* \"#utility.yul\":4230:4293   */\n      swap2\n      pop\n        /* \"#utility.yul\":4185:4303   */\n      pop\n        /* \"#utility.yul\":3691:4310   */\n      swap3\n      pop\n      swap3\n      pop\n      swap3\n      jump\t// out\n        /* \"#utility.yul\":4316:4402   */\n    tag_359:\n        /* \"#utility.yul\":4351:4358   */\n      0x00\n        /* \"#utility.yul\":4391:4395   */\n      0xff\n        /* \"#utility.yul\":4384:4389   */\n      dup3\n        /* \"#utility.yul\":4380:4396   */\n      and\n        /* \"#utility.yul\":4369:4396   */\n      swap1\n      pop\n        /* \"#utility.yul\":4316:4402   */\n      swap2\n      swap1\n      pop\n      jump\t// out\n        /* \"#utility.yul\":4408:4520   */\n    tag_360:\n        /* \"#utility.yul\":4491:4513   */\n      tag_449\n        /* \"#utility.yul\":4507:4512   */\n      dup2\n        /* \"#utility.yul\":4491:4513   */\n      tag_359\n      jump\t// in\n    tag_449:\n        /* \"#utility.yul\":4486:4489   */\n      dup3\n        /* \"#utility.yul\":4479:4514   */\n      mstore\n        /* \"#utility.yul\":4408:4520   */\n      pop\n      pop\n      jump\t// out\n        /* \"#utility.yul\":4526:4740   */\n    tag_48:\n        /* \"#utility.yul\":4615:4619   */\n      0x00\n        /* \"#utility.yul\":4653:4655   */\n      0x20\n        /* \"#utility.yul\":4642:4651   */\n      dup3\n        /* \"#utility.yul\":4638:4656   */\n      add\n        /* \"#utility.yul\":4630:4656   */\n      swap1\n      pop\n        /* \"#utility.yul\":4666:4733   */\n      tag_451\n        /* \"#utility.yul\":4730:4731   */\n      0x00\n        /* \"#utility.yul\":4719:4728   */\n      dup4\n        /* \"#utility.yul\":4715:4732   */\n      add\n        /* \"#utility.yul\":4706:4712   */\n      dup5\n        /* \"#utility.yul\":4666:4733   */\n      tag_360\n      jump\t// in\n    tag_451:\n        /* \"#utility.yul\":4526:4740   */\n      swap3\n      swap2\n      pop\n      pop\n      jump\t// out\n        /* \"#utility.yul\":4746:4863   */\n    tag_361:\n        /* \"#utility.yul\":4855:4856   */\n      0x00\n        /* \"#utility.yul\":4852:4853   */\n      0x00\n        /* \"#utility.yul\":4845:4857   */\n      revert\n        /* \"#utility.yul\":4869:4986   */\n    tag_362:\n        /* \"#utility.yul\":4978:4979   */\n      0x00\n        /* \"#utility.yul\":4975:4976   */\n      0x00\n        /* \"#utility.yul\":4968:4980   */\n      revert\n        /* \"#utility.yul\":4992:5172   */\n    tag_363:\n        /* \"#utility.yul\":5040:5117   */\n      0x4e487b7100000000000000000000000000000000000000000000000000000000\n        /* \"#utility.yul\":5037:5038   */\n      0x00\n        /* \"#utility.yul\":5030:5118   */\n      mstore\n        /* \"#utility.yul\":5137:5141   */\n      0x41\n        /* \"#utility.yul\":5134:5135   */\n      0x04\n        /* \"#utility.yul\":5127:5142   */\n      mstore\n        /* \"#utility.yul\":5161:5165   */\n      0x24\n        /* \"#utility.yul\":5158:5159   */\n      0x00\n        /* \"#utility.yul\":5151:5166   */\n      revert\n        /* \"#utility.yul\":5178:5459   */\n    tag_364:\n        /* \"#utility.yul\":5261:5288   */\n      tag_456\n        /* \"#utility.yul\":5283:5287   */\n      dup3\n        /* \"#utility.yul\":5261:5288   */\n      tag_344\n      jump\t// in\n    tag_456:\n        /* \"#utility.yul\":5253:5259   */\n      dup2\n        /* \"#utility.yul\":5249:5289   */\n      add\n        /* \"#utility.yul\":5391:5397   */\n      dup2\n        /* \"#utility.yul\":5379:5389   */\n      dup2\n        /* \"#utility.yul\":5376:5398   */\n      lt\n        /* \"#utility.yul\":5355:5373   */\n      0xffffffffffffffff\n        /* \"#utility.yul\":5343:5353   */\n      dup3\n        /* \"#utility.yul\":5340:5374   */\n      gt\n        /* \"#utility.yul\":5337:5399   */\n      or\n        /* \"#utility.yul\":5334:5422   */\n      iszero\n      tag_457\n      jumpi\n        /* \"#utility.yul\":5402:5420   */\n      tag_458\n      tag_363\n      jump\t// in\n    tag_458:\n        /* \"#utility.yul\":5334:5422   */\n    tag_457:\n        /* \"#utility.yul\":5442:5452   */\n      dup1\n        /* \"#utility.yul\":5438:5440   */\n      0x40\n        /* \"#utility.yul\":5431:5453   */\n      mstore\n        /* \"#utility.yul\":5221:5459   */\n      pop\n        /* \"#utility.yul\":5178:5459   */\n      pop\n      pop\n      jump\t// out\n        /* \"#utility.yul\":5465:5594   */\n    tag_365:\n        /* \"#utility.yul\":5499:5505   */\n      0x00\n        /* \"#utility.yul\":5526:5546   */\n      tag_460\n      tag_346\n      jump\t// in\n    tag_460:\n        /* \"#utility.yul\":5516:5546   */\n      swap1\n      pop\n        /* \"#utility.yul\":5555:5588   */\n      tag_461\n        /* \"#utility.yul\":5583:5587   */\n      dup3\n        /* \"#utility.yul\":5575:5581   */\n      dup3\n        /* \"#utility.yul\":5555:5588   */\n      tag_364\n      jump\t// in\n    tag_461:\n        /* \"#utility.yul\":5465:5594   */\n      swap2\n      swap1\n      pop\n      jump\t// out\n        /* \"#utility.yul\":5600:5908   */\n    tag_366:\n        /* \"#utility.yul\":5662:5666   */\n      0x00\n        /* \"#utility.yul\":5752:5770   */\n      0xffffffffffffffff\n        /* \"#utility.yul\":5744:5750   */\n      dup3\n        /* \"#utility.yul\":5741:5771   */\n      gt\n        /* \"#utility.yul\":5738:5794   */\n      iszero\n      tag_463\n      jumpi\n        /* \"#utility.yul\":5774:5792   */\n      tag_464\n      tag_363\n      jump\t// in\n    tag_464:\n        /* \"#utility.yul\":5738:5794   */\n    tag_463:\n        /* \"#utility.yul\":5812:5841   */\n      tag_465\n        /* \"#utility.yul\":5834:5840   */\n      dup3\n        /* \"#utility.yul\":5812:5841   */\n      tag_344\n      jump\t// in\n    tag_465:\n        /* \"#utility.yul\":5804:5841   */\n      swap1\n      pop\n        /* \"#utility.yul\":5896:5900   */\n      0x20\n        /* \"#utility.yul\":5890:5894   */\n      dup2\n        /* \"#utility.yul\":5886:5901   */\n      add\n        /* \"#utility.yul\":5878:5901   */\n      swap1\n      pop\n        /* \"#utility.yul\":5600:5908   */\n      swap2\n      swap1\n      pop\n      jump\t// out\n        /* \"#utility.yul\":5914:6062   */\n    tag_367:\n        /* \"#utility.yul\":6012:6018   */\n      dup3\n        /* \"#utility.yul\":6007:6010   */\n      dup2\n        /* \"#utility.yul\":6002:6005   */\n      dup4\n        /* \"#utility.yul\":5989:6019   */\n      calldatacopy\n        /* \"#utility.yul\":6053:6054   */\n      0x00\n        /* \"#utility.yul\":6044:6050   */\n      dup4\n        /* \"#utility.yul\":6039:6042   */\n      dup4\n        /* \"#utility.yul\":6035:6051   */\n      add\n        /* \"#utility.yul\":6028:6055   */\n      mstore\n        /* \"#utility.yul\":5914:6062   */\n      pop\n      pop\n      pop\n      jump\t// out\n        /* \"#utility.yul\":6068:6493   */\n    tag_368:\n        /* \"#utility.yul\":6146:6151   */\n      0x00\n        /* \"#utility.yul\":6171:6237   */\n      tag_468\n        /* \"#utility.yul\":6187:6236   */\n      tag_469\n        /* \"#utility.yul\":6229:6235   */\n      dup5\n        /* \"#utility.yul\":6187:6236   */\n      tag_366\n      jump\t// in\n    tag_469:\n        /* \"#utility.yul\":6171:6237   */\n      tag_365\n      jump\t// in\n    tag_468:\n        /* \"#utility.yul\":6162:6237   */\n      swap1\n      pop\n        /* \"#utility.yul\":6260:6266   */\n      dup3\n        /* \"#utility.yul\":6253:6258   */\n      dup2\n        /* \"#utility.yul\":6246:6267   */\n      mstore\n        /* \"#utility.yul\":6298:6302   */\n      0x20\n        /* \"#utility.yul\":6291:6296   */\n      dup2\n        /* \"#utility.yul\":6287:6303   */\n      add\n        /* \"#utility.yul\":6336:6339   */\n      dup5\n        /* \"#utility.yul\":6327:6333   */\n      dup5\n        /* \"#utility.yul\":6322:6325   */\n      dup5\n        /* \"#utility.yul\":6318:6334   */\n      add\n        /* \"#utility.yul\":6315:6340   */\n      gt\n        /* \"#utility.yul\":6312:6424   */\n      iszero\n      tag_470\n      jumpi\n        /* \"#utility.yul\":6343:6422   */\n      tag_471\n      tag_362\n      jump\t// in\n    tag_471:\n        /* \"#utility.yul\":6312:6424   */\n    tag_470:\n        /* \"#utility.yul\":6433:6487   */\n      tag_472\n        /* \"#utility.yul\":6480:6486   */\n      dup5\n        /* \"#utility.yul\":6475:6478   */\n      dup3\n        /* \"#utility.yul\":6470:6473   */\n      dup6\n        /* \"#utility.yul\":6433:6487   */\n      tag_367\n      jump\t// in\n    tag_472:\n        /* \"#utility.yul\":6152:6493   */\n      pop\n        /* \"#utility.yul\":6068:6493   */\n      swap4\n      swap3\n      pop\n      pop\n      pop\n      jump\t// out\n        /* \"#utility.yul\":6513:6853   */\n    tag_369:\n        /* \"#utility.yul\":6569:6574   */\n      0x00\n        /* \"#utility.yul\":6618:6621   */\n      dup3\n        /* \"#utility.yul\":6611:6615   */\n      0x1f\n        /* \"#utility.yul\":6603:6609   */\n      dup4\n        /* \"#utility.yul\":6599:6616   */\n      add\n        /* \"#utility.yul\":6595:6622   */\n      slt\n        /* \"#utility.yul\":6585:6707   */\n      tag_474\n      jumpi\n        /* \"#utility.yul\":6626:6705   */\n      tag_475\n      tag_361\n      jump\t// in\n    tag_475:\n        /* \"#utility.yul\":6585:6707   */\n    tag_474:\n        /* \"#utility.yul\":6743:6749   */\n      dup2\n        /* \"#utility.yul\":6730:6750   */\n      calldataload\n        /* \"#utility.yul\":6768:6847   */\n      tag_476\n        /* \"#utility.yul\":6843:6846   */\n      dup5\n        /* \"#utility.yul\":6835:6841   */\n      dup3\n        /* \"#utility.yul\":6828:6832   */\n      0x20\n        /* \"#utility.yul\":6820:6826   */\n      dup7\n        /* \"#utility.yul\":6816:6833   */\n      add\n        /* \"#utility.yul\":6768:6847   */\n      tag_368\n      jump\t// in\n    tag_476:\n        /* \"#utility.yul\":6759:6847   */\n      swap2\n      pop\n        /* \"#utility.yul\":6575:6853   */\n      pop\n        /* \"#utility.yul\":6513:6853   */\n      swap3\n      swap2\n      pop\n      pop\n      jump\t// out\n        /* \"#utility.yul\":6859:8130   */\n    tag_51:\n        /* \"#utility.yul\":6974:6980   */\n      0x00\n        /* \"#utility.yul\":6982:6988   */\n      0x00\n        /* \"#utility.yul\":6990:6996   */\n      0x00\n        /* \"#utility.yul\":6998:7004   */\n      0x00\n        /* \"#utility.yul\":7006:7012   */\n      0x00\n        /* \"#utility.yul\":7055:7058   */\n      0xa0\n        /* \"#utility.yul\":7043:7052   */\n      dup7\n        /* \"#utility.yul\":7034:7041   */\n      dup9\n        /* \"#utility.yul\":7030:7053   */\n      sub\n        /* \"#utility.yul\":7026:7059   */\n      slt\n        /* \"#utility.yul\":7023:7143   */\n      iszero\n      tag_478\n      jumpi\n        /* \"#utility.yul\":7062:7141   */\n      tag_479\n      tag_347\n      jump\t// in\n    tag_479:\n        /* \"#utility.yul\":7023:7143   */\n    tag_478:\n        /* \"#utility.yul\":7210:7211   */\n      0x00\n        /* \"#utility.yul\":7199:7208   */\n      dup7\n        /* \"#utility.yul\":7195:7212   */\n      add\n        /* \"#utility.yul\":7182:7213   */\n      calldataload\n        /* \"#utility.yul\":7240:7258   */\n      0xffffffffffffffff\n        /* \"#utility.yul\":7232:7238   */\n      dup2\n        /* \"#utility.yul\":7229:7259   */\n      gt\n        /* \"#utility.yul\":7226:7343   */\n      iszero\n      tag_480\n      jumpi\n        /* \"#utility.yul\":7262:7341   */\n      tag_481\n      tag_348\n      jump\t// in\n    tag_481:\n        /* \"#utility.yul\":7226:7343   */\n    tag_480:\n        /* \"#utility.yul\":7367:7430   */\n      tag_482\n        /* \"#utility.yul\":7422:7429   */\n      dup9\n        /* \"#utility.yul\":7413:7419   */\n      dup3\n        /* \"#utility.yul\":7402:7411   */\n      dup10\n        /* \"#utility.yul\":7398:7420   */\n      add\n        /* \"#utility.yul\":7367:7430   */\n      tag_369\n      jump\t// in\n    tag_482:\n        /* \"#utility.yul\":7357:7430   */\n      swap6\n      pop\n        /* \"#utility.yul\":7153:7440   */\n      pop\n        /* \"#utility.yul\":7507:7509   */\n      0x20\n        /* \"#utility.yul\":7496:7505   */\n      dup7\n        /* \"#utility.yul\":7492:7510   */\n      add\n        /* \"#utility.yul\":7479:7511   */\n      calldataload\n        /* \"#utility.yul\":7538:7556   */\n      0xffffffffffffffff\n        /* \"#utility.yul\":7530:7536   */\n      dup2\n        /* \"#utility.yul\":7527:7557   */\n      gt\n        /* \"#utility.yul\":7524:7641   */\n      iszero\n      tag_483\n      jumpi\n        /* \"#utility.yul\":7560:7639   */\n      tag_484\n      tag_348\n      jump\t// in\n    tag_484:\n        /* \"#utility.yul\":7524:7641   */\n    tag_483:\n        /* \"#utility.yul\":7665:7728   */\n      tag_485\n        /* \"#utility.yul\":7720:7727   */\n      dup9\n        /* \"#utility.yul\":7711:7717   */\n      dup3\n        /* \"#utility.yul\":7700:7709   */\n      dup10\n        /* \"#utility.yul\":7696:7718   */\n      add\n        /* \"#utility.yul\":7665:7728   */\n      tag_369\n      jump\t// in\n    tag_485:\n        /* \"#utility.yul\":7655:7728   */\n      swap5\n      pop\n        /* \"#utility.yul\":7450:7738   */\n      pop\n        /* \"#utility.yul\":7777:7779   */\n      0x40\n        /* \"#utility.yul\":7803:7856   */\n      tag_486\n        /* \"#utility.yul\":7848:7855   */\n      dup9\n        /* \"#utility.yul\":7839:7845   */\n      dup3\n        /* \"#utility.yul\":7828:7837   */\n      dup10\n        /* \"#utility.yul\":7824:7846   */\n      add\n        /* \"#utility.yul\":7803:7856   */\n      tag_355\n      jump\t// in\n    tag_486:\n        /* \"#utility.yul\":7793:7856   */\n      swap4\n      pop\n        /* \"#utility.yul\":7748:7866   */\n      pop\n        /* \"#utility.yul\":7905:7907   */\n      0x60\n        /* \"#utility.yul\":7931:7984   */\n      tag_487\n        /* \"#utility.yul\":7976:7983   */\n      dup9\n        /* \"#utility.yul\":7967:7973   */\n      dup3\n        /* \"#utility.yul\":7956:7965   */\n      dup10\n        /* \"#utility.yul\":7952:7974   */\n      add\n        /* \"#utility.yul\":7931:7984   */\n      tag_355\n      jump\t// in\n    tag_487:\n        /* \"#utility.yul\":7921:7984   */\n      swap3\n      pop\n        /* \"#utility.yul\":7876:7994   */\n      pop\n        /* \"#utility.yul\":8033:8036   */\n      0x80\n        /* \"#utility.yul\":8060:8113   */\n      tag_488\n        /* \"#utility.yul\":8105:8112   */\n      dup9\n        /* \"#utility.yul\":8096:8102   */\n      dup3\n        /* \"#utility.yul\":8085:8094   */\n      dup10\n        /* \"#utility.yul\":8081:8103   */\n      add\n        /* \"#utility.yul\":8060:8113   */\n      tag_352\n      jump\t// in\n    tag_488:\n        /* \"#utility.yul\":8050:8113   */\n      swap2\n      pop\n        /* \"#utility.yul\":8004:8123   */\n      pop\n        /* \"#utility.yul\":6859:8130   */\n      swap3\n      swap6\n      pop\n      swap3\n      swap6\n      swap1\n      swap4\n      pop\n      jump\t// out\n        /* \"#utility.yul\":8136:8465   */\n    tag_61:\n        /* \"#utility.yul\":8195:8201   */\n      0x00\n        /* \"#utility.yul\":8244:8246   */\n      0x20\n        /* \"#utility.yul\":8232:8241   */\n      dup3\n        /* \"#utility.yul\":8223:8230   */\n      dup5\n        /* \"#utility.yul\":8219:8242   */\n      sub\n        /* \"#utility.yul\":8215:8247   */\n      slt\n        /* \"#utility.yul\":8212:8331   */\n      iszero\n      tag_490\n      jumpi\n        /* \"#utility.yul\":8250:8329   */\n      tag_491\n      tag_347\n      jump\t// in\n    tag_491:\n        /* \"#utility.yul\":8212:8331   */\n    tag_490:\n        /* \"#utility.yul\":8370:8371   */\n      0x00\n        /* \"#utility.yul\":8395:8448   */\n      tag_492\n        /* \"#utility.yul\":8440:8447   */\n      dup5\n        /* \"#utility.yul\":8431:8437   */\n      dup3\n        /* \"#utility.yul\":8420:8429   */\n      dup6\n        /* \"#utility.yul\":8416:8438   */\n      add\n        /* \"#utility.yul\":8395:8448   */\n      tag_355\n      jump\t// in\n    tag_492:\n        /* \"#utility.yul\":8385:8448   */\n      swap2\n      pop\n        /* \"#utility.yul\":8341:8458   */\n      pop\n        /* \"#utility.yul\":8136:8465   */\n      swap3\n      swap2\n      pop\n      pop\n      jump\t// out\n        /* \"#utility.yul\":8471:8800   */\n    tag_68:\n        /* \"#utility.yul\":8530:8536   */\n      0x00\n        /* \"#utility.yul\":8579:8581   */\n      0x20\n        /* \"#utility.yul\":8567:8576   */\n      dup3\n        /* \"#utility.yul\":8558:8565   */\n      dup5\n        /* \"#utility.yul\":8554:8577   */\n      sub\n        /* \"#utility.yul\":8550:8582   */\n      slt\n        /* \"#utility.yul\":8547:8666   */\n      iszero\n      tag_494\n      jumpi\n        /* \"#utility.yul\":8585:8664   */\n      tag_495\n      tag_347\n      jump\t// in\n    tag_495:\n        /* \"#utility.yul\":8547:8666   */\n    tag_494:\n        /* \"#utility.yul\":8705:8706   */\n      0x00\n        /* \"#utility.yul\":8730:8783   */\n      tag_496\n        /* \"#utility.yul\":8775:8782   */\n      dup5\n        /* \"#utility.yul\":8766:8772   */\n      dup3\n        /* \"#utility.yul\":8755:8764   */\n      dup6\n        /* \"#utility.yul\":8751:8773   */\n      add\n        /* \"#utility.yul\":8730:8783   */\n      tag_352\n      jump\t// in\n    tag_496:\n        /* \"#utility.yul\":8720:8783   */\n      swap2\n      pop\n        /* \"#utility.yul\":8676:8793   */\n      pop\n        /* \"#utility.yul\":8471:8800   */\n      swap3\n      swap2\n      pop\n      pop\n      jump\t// out\n        /* \"#utility.yul\":8806:8924   */\n    tag_370:\n        /* \"#utility.yul\":8893:8917   */\n      tag_498\n        /* \"#utility.yul\":8911:8916   */\n      dup2\n        /* \"#utility.yul\":8893:8917   */\n      tag_350\n      jump\t// in\n    tag_498:\n        /* \"#utility.yul\":8888:8891   */\n      dup3\n        /* \"#utility.yul\":8881:8918   */\n      mstore\n        /* \"#utility.yul\":8806:8924   */\n      pop\n      pop\n      jump\t// out\n        /* \"#utility.yul\":8930:9152   */\n    tag_78:\n        /* \"#utility.yul\":9023:9027   */\n      0x00\n        /* \"#utility.yul\":9061:9063   */\n      0x20\n        /* \"#utility.yul\":9050:9059   */\n      dup3\n        /* \"#utility.yul\":9046:9064   */\n      add\n        /* \"#utility.yul\":9038:9064   */\n      swap1\n      pop\n        /* \"#utility.yul\":9074:9145   */\n      tag_500\n        /* \"#utility.yul\":9142:9143   */\n      0x00\n        /* \"#utility.yul\":9131:9140   */\n      dup4\n        /* \"#utility.yul\":9127:9144   */\n      add\n        /* \"#utility.yul\":9118:9124   */\n      dup5\n        /* \"#utility.yul\":9074:9145   */\n      tag_370\n      jump\t// in\n    tag_500:\n        /* \"#utility.yul\":8930:9152   */\n      swap3\n      swap2\n      pop\n      pop\n      jump\t// out\n        /* \"#utility.yul\":9158:9632   */\n    tag_88:\n        /* \"#utility.yul\":9226:9232   */\n      0x00\n        /* \"#utility.yul\":9234:9240   */\n      0x00\n        /* \"#utility.yul\":9283:9285   */\n      0x40\n        /* \"#utility.yul\":9271:9280   */\n      dup4\n        /* \"#utility.yul\":9262:9269   */\n      dup6\n        /* \"#utility.yul\":9258:9281   */\n      sub\n        /* \"#utility.yul\":9254:9286   */\n      slt\n        /* \"#utility.yul\":9251:9370   */\n      iszero\n      tag_502\n      jumpi\n        /* \"#utility.yul\":9289:9368   */\n      tag_503\n      tag_347\n      jump\t// in\n    tag_503:\n        /* \"#utility.yul\":9251:9370   */\n    tag_502:\n        /* \"#utility.yul\":9409:9410   */\n      0x00\n        /* \"#utility.yul\":9434:9487   */\n      tag_504\n        /* \"#utility.yul\":9479:9486   */\n      dup6\n        /* \"#utility.yul\":9470:9476   */\n      dup3\n        /* \"#utility.yul\":9459:9468   */\n      dup7\n        /* \"#utility.yul\":9455:9477   */\n      add\n        /* \"#utility.yul\":9434:9487   */\n      tag_352\n      jump\t// in\n    tag_504:\n        /* \"#utility.yul\":9424:9487   */\n      swap3\n      pop\n        /* \"#utility.yul\":9380:9497   */\n      pop\n        /* \"#utility.yul\":9536:9538   */\n      0x20\n        /* \"#utility.yul\":9562:9615   */\n      tag_505\n        /* \"#utility.yul\":9607:9614   */\n      dup6\n        /* \"#utility.yul\":9598:9604   */\n      dup3\n        /* \"#utility.yul\":9587:9596   */\n      dup7\n        /* \"#utility.yul\":9583:9605   */\n      add\n        /* \"#utility.yul\":9562:9615   */\n      tag_352\n      jump\t// in\n    tag_505:\n        /* \"#utility.yul\":9552:9615   */\n      swap2\n      pop\n        /* \"#utility.yul\":9507:9625   */\n      pop\n        /* \"#utility.yul\":9158:9632   */\n      swap3\n      pop\n      swap3\n      swap1\n      pop\n      jump\t// out\n        /* \"#utility.yul\":9638:9818   */\n    tag_371:\n        /* \"#utility.yul\":9686:9763   */\n      0x4e487b7100000000000000000000000000000000000000000000000000000000\n        /* \"#utility.yul\":9683:9684   */\n      0x00\n        /* \"#utility.yul\":9676:9764   */\n      mstore\n        /* \"#utility.yul\":9783:9787   */\n      0x22\n        /* \"#utility.yul\":9780:9781   */\n      0x04\n        /* \"#utility.yul\":9773:9788   */\n      mstore\n        /* \"#utility.yul\":9807:9811   */\n      0x24\n        /* \"#utility.yul\":9804:9805   */\n      0x00\n        /* \"#utility.yul\":9797:9812   */\n      revert\n        /* \"#utility.yul\":9824:10144   */\n    tag_104:\n        /* \"#utility.yul\":9868:9874   */\n      0x00\n        /* \"#utility.yul\":9905:9906   */\n      0x02\n        /* \"#utility.yul\":9899:9903   */\n      dup3\n        /* \"#utility.yul\":9895:9907   */\n      div\n        /* \"#utility.yul\":9885:9907   */\n      swap1\n      pop\n        /* \"#utility.yul\":9952:9953   */\n      0x01\n        /* \"#utility.yul\":9946:9950   */\n      dup3\n        /* \"#utility.yul\":9942:9954   */\n      and\n        /* \"#utility.yul\":9973:9991   */\n      dup1\n        /* \"#utility.yul\":9963:10044   */\n      tag_508\n      jumpi\n        /* \"#utility.yul\":10029:10033   */\n      0x7f\n        /* \"#utility.yul\":10021:10027   */\n      dup3\n        /* \"#utility.yul\":10017:10034   */\n      and\n        /* \"#utility.yul\":10007:10034   */\n      swap2\n      pop\n        /* \"#utility.yul\":9963:10044   */\n    tag_508:\n        /* \"#utility.yul\":10091:10093   */\n      0x20\n        /* \"#utility.yul\":10083:10089   */\n      dup3\n        /* \"#utility.yul\":10080:10094   */\n      lt\n        /* \"#utility.yul\":10060:10078   */\n      dup2\n        /* \"#utility.yul\":10057:10095   */\n      sub\n        /* \"#utility.yul\":10054:10138   */\n      tag_509\n      jumpi\n        /* \"#utility.yul\":10110:10128   */\n      tag_510\n      tag_371\n      jump\t// in\n    tag_510:\n        /* \"#utility.yul\":10054:10138   */\n    tag_509:\n        /* \"#utility.yul\":9875:10144   */\n      pop\n        /* \"#utility.yul\":9824:10144   */\n      swap2\n      swap1\n      pop\n      jump\t// out\n        /* \"#utility.yul\":10150:10330   */\n    tag_372:\n        /* \"#utility.yul\":10198:10275   */\n      0x4e487b7100000000000000000000000000000000000000000000000000000000\n        /* \"#utility.yul\":10195:10196   */\n      0x00\n        /* \"#utility.yul\":10188:10276   */\n      mstore\n        /* \"#utility.yul\":10295:10299   */\n      0x11\n        /* \"#utility.yul\":10292:10293   */\n      0x04\n        /* \"#utility.yul\":10285:10300   */\n      mstore\n        /* \"#utility.yul\":10319:10323   */\n      0x24\n        /* \"#utility.yul\":10316:10317   */\n      0x00\n        /* \"#utility.yul\":10309:10324   */\n      revert\n        /* \"#utility.yul\":10336:10438   */\n    tag_373:\n        /* \"#utility.yul\":10378:10386   */\n      0x00\n        /* \"#utility.yul\":10425:10430   */\n      dup2\n        /* \"#utility.yul\":10422:10423   */\n      0x01\n        /* \"#utility.yul\":10418:10431   */\n      shr\n        /* \"#utility.yul\":10397:10431   */\n      swap1\n      pop\n        /* \"#utility.yul\":10336:10438   */\n      swap2\n      swap1\n      pop\n      jump\t// out\n        /* \"#utility.yul\":10444:11292   */\n    tag_374:\n        /* \"#utility.yul\":10505:10510   */\n      0x00\n        /* \"#utility.yul\":10512:10516   */\n      0x00\n        /* \"#utility.yul\":10536:10542   */\n      dup3\n        /* \"#utility.yul\":10527:10542   */\n      swap2\n      pop\n        /* \"#utility.yul\":10560:10565   */\n      dup4\n        /* \"#utility.yul\":10551:10565   */\n      swap1\n      pop\n        /* \"#utility.yul\":10574:11286   */\n    tag_514:\n        /* \"#utility.yul\":10595:10596   */\n      0x01\n        /* \"#utility.yul\":10585:10593   */\n      dup6\n        /* \"#utility.yul\":10582:10597   */\n      gt\n        /* \"#utility.yul\":10574:11286   */\n      iszero\n      tag_516\n      jumpi\n        /* \"#utility.yul\":10690:10694   */\n      dup1\n        /* \"#utility.yul\":10685:10688   */\n      dup7\n        /* \"#utility.yul\":10681:10695   */\n      div\n        /* \"#utility.yul\":10675:10679   */\n      dup2\n        /* \"#utility.yul\":10672:10696   */\n      gt\n        /* \"#utility.yul\":10669:10719   */\n      iszero\n      tag_517\n      jumpi\n        /* \"#utility.yul\":10699:10717   */\n      tag_518\n      tag_372\n      jump\t// in\n    tag_518:\n        /* \"#utility.yul\":10669:10719   */\n    tag_517:\n        /* \"#utility.yul\":10749:10750   */\n      0x01\n        /* \"#utility.yul\":10739:10747   */\n      dup6\n        /* \"#utility.yul\":10735:10751   */\n      and\n        /* \"#utility.yul\":10732:11183   */\n      iszero\n      tag_519\n      jumpi\n        /* \"#utility.yul\":11164:11168   */\n      dup1\n        /* \"#utility.yul\":11157:11162   */\n      dup3\n        /* \"#utility.yul\":11153:11169   */\n      mul\n        /* \"#utility.yul\":11144:11169   */\n      swap2\n      pop\n        /* \"#utility.yul\":10732:11183   */\n    tag_519:\n        /* \"#utility.yul\":11214:11218   */\n      dup1\n        /* \"#utility.yul\":11208:11212   */\n      dup2\n        /* \"#utility.yul\":11204:11219   */\n      mul\n        /* \"#utility.yul\":11196:11219   */\n      swap1\n      pop\n        /* \"#utility.yul\":11244:11276   */\n      tag_520\n        /* \"#utility.yul\":11267:11275   */\n      dup6\n        /* \"#utility.yul\":11244:11276   */\n      tag_373\n      jump\t// in\n    tag_520:\n        /* \"#utility.yul\":11232:11276   */\n      swap5\n      pop\n        /* \"#utility.yul\":10574:11286   */\n      jump(tag_514)\n    tag_516:\n        /* \"#utility.yul\":10444:11292   */\n      swap5\n      pop\n      swap5\n      swap3\n      pop\n      pop\n      pop\n      jump\t// out\n        /* \"#utility.yul\":11298:12371   */\n    tag_375:\n        /* \"#utility.yul\":11352:11357   */\n      0x00\n        /* \"#utility.yul\":11543:11551   */\n      dup3\n        /* \"#utility.yul\":11533:11573   */\n      tag_522\n      jumpi\n        /* \"#utility.yul\":11564:11565   */\n      0x01\n        /* \"#utility.yul\":11555:11565   */\n      swap1\n      pop\n        /* \"#utility.yul\":11566:11571   */\n      jump(tag_521)\n        /* \"#utility.yul\":11533:11573   */\n    tag_522:\n        /* \"#utility.yul\":11592:11596   */\n      dup2\n        /* \"#utility.yul\":11582:11618   */\n      tag_523\n      jumpi\n        /* \"#utility.yul\":11609:11610   */\n      0x00\n        /* \"#utility.yul\":11600:11610   */\n      swap1\n      pop\n        /* \"#utility.yul\":11611:11616   */\n      jump(tag_521)\n        /* \"#utility.yul\":11582:11618   */\n    tag_523:\n        /* \"#utility.yul\":11678:11682   */\n      dup2\n        /* \"#utility.yul\":11726:11727   */\n      0x01\n        /* \"#utility.yul\":11721:11748   */\n      dup2\n      eq\n      tag_525\n      jumpi\n        /* \"#utility.yul\":11762:11763   */\n      0x02\n        /* \"#utility.yul\":11757:11948   */\n      dup2\n      eq\n      tag_526\n      jumpi\n        /* \"#utility.yul\":11671:11948   */\n      jump(tag_524)\n        /* \"#utility.yul\":11721:11748   */\n    tag_525:\n        /* \"#utility.yul\":11739:11740   */\n      0x01\n        /* \"#utility.yul\":11730:11740   */\n      swap2\n      pop\n        /* \"#utility.yul\":11741:11746   */\n      pop\n      jump(tag_521)\n        /* \"#utility.yul\":11757:11948   */\n    tag_526:\n        /* \"#utility.yul\":11802:11805   */\n      0xff\n        /* \"#utility.yul\":11792:11800   */\n      dup5\n        /* \"#utility.yul\":11789:11806   */\n      gt\n        /* \"#utility.yul\":11786:11829   */\n      iszero\n      tag_527\n      jumpi\n        /* \"#utility.yul\":11809:11827   */\n      tag_528\n      tag_372\n      jump\t// in\n    tag_528:\n        /* \"#utility.yul\":11786:11829   */\n    tag_527:\n        /* \"#utility.yul\":11858:11866   */\n      dup4\n        /* \"#utility.yul\":11855:11856   */\n      0x02\n        /* \"#utility.yul\":11851:11867   */\n      exp\n        /* \"#utility.yul\":11842:11867   */\n      swap2\n      pop\n        /* \"#utility.yul\":11893:11896   */\n      dup5\n        /* \"#utility.yul\":11886:11891   */\n      dup3\n        /* \"#utility.yul\":11883:11897   */\n      gt\n        /* \"#utility.yul\":11880:11920   */\n      iszero\n      tag_529\n      jumpi\n        /* \"#utility.yul\":11900:11918   */\n      tag_530\n      tag_372\n      jump\t// in\n    tag_530:\n        /* \"#utility.yul\":11880:11920   */\n    tag_529:\n        /* \"#utility.yul\":11933:11938   */\n      pop\n      jump(tag_521)\n        /* \"#utility.yul\":11671:11948   */\n    tag_524:\n      pop\n        /* \"#utility.yul\":12057:12059   */\n      0x20\n        /* \"#utility.yul\":12047:12055   */\n      dup4\n        /* \"#utility.yul\":12044:12060   */\n      lt\n        /* \"#utility.yul\":12038:12041   */\n      0x0133\n        /* \"#utility.yul\":12032:12036   */\n      dup4\n        /* \"#utility.yul\":12029:12042   */\n      lt\n        /* \"#utility.yul\":12025:12061   */\n      and\n        /* \"#utility.yul\":12007:12009   */\n      0x4e\n        /* \"#utility.yul\":11997:12005   */\n      dup5\n        /* \"#utility.yul\":11994:12010   */\n      lt\n        /* \"#utility.yul\":11989:11991   */\n      0x0b\n        /* \"#utility.yul\":11983:11987   */\n      dup5\n        /* \"#utility.yul\":11980:11992   */\n      lt\n        /* \"#utility.yul\":11976:12011   */\n      and\n        /* \"#utility.yul\":11960:12071   */\n      or\n        /* \"#utility.yul\":11957:12203   */\n      iszero\n      tag_531\n      jumpi\n        /* \"#utility.yul\":12113:12121   */\n      dup3\n        /* \"#utility.yul\":12107:12111   */\n      dup3\n        /* \"#utility.yul\":12103:12122   */\n      exp\n        /* \"#utility.yul\":12094:12122   */\n      swap1\n      pop\n        /* \"#utility.yul\":12148:12151   */\n      dup4\n        /* \"#utility.yul\":12141:12146   */\n      dup2\n        /* \"#utility.yul\":12138:12152   */\n      gt\n        /* \"#utility.yul\":12135:12175   */\n      iszero\n      tag_532\n      jumpi\n        /* \"#utility.yul\":12155:12173   */\n      tag_533\n      tag_372\n      jump\t// in\n    tag_533:\n        /* \"#utility.yul\":12135:12175   */\n    tag_532:\n        /* \"#utility.yul\":12188:12193   */\n      jump(tag_521)\n        /* \"#utility.yul\":11957:12203   */\n    tag_531:\n        /* \"#utility.yul\":12228:12270   */\n      tag_534\n        /* \"#utility.yul\":12266:12269   */\n      dup5\n        /* \"#utility.yul\":12256:12264   */\n      dup5\n        /* \"#utility.yul\":12250:12254   */\n      dup5\n        /* \"#utility.yul\":12247:12248   */\n      0x01\n        /* \"#utility.yul\":12228:12270   */\n      tag_374\n      jump\t// in\n    tag_534:\n        /* \"#utility.yul\":12213:12270   */\n      swap3\n      pop\n      swap1\n      pop\n        /* \"#utility.yul\":12302:12306   */\n      dup2\n        /* \"#utility.yul\":12297:12300   */\n      dup5\n        /* \"#utility.yul\":12293:12307   */\n      div\n        /* \"#utility.yul\":12286:12291   */\n      dup2\n        /* \"#utility.yul\":12283:12308   */\n      gt\n        /* \"#utility.yul\":12280:12331   */\n      iszero\n      tag_535\n      jumpi\n        /* \"#utility.yul\":12311:12329   */\n      tag_536\n      tag_372\n      jump\t// in\n    tag_536:\n        /* \"#utility.yul\":12280:12331   */\n    tag_535:\n        /* \"#utility.yul\":12360:12364   */\n      dup2\n        /* \"#utility.yul\":12353:12358   */\n      dup2\n        /* \"#utility.yul\":12349:12365   */\n      mul\n        /* \"#utility.yul\":12340:12365   */\n      swap1\n      pop\n        /* \"#utility.yul\":11298:12371   */\n    tag_521:\n      swap4\n      swap3\n      pop\n      pop\n      pop\n      jump\t// out\n        /* \"#utility.yul\":12377:12658   */\n    tag_137:\n        /* \"#utility.yul\":12435:12440   */\n      0x00\n        /* \"#utility.yul\":12459:12482   */\n      tag_538\n        /* \"#utility.yul\":12477:12481   */\n      dup3\n        /* \"#utility.yul\":12459:12482   */\n      tag_353\n      jump\t// in\n    tag_538:\n        /* \"#utility.yul\":12451:12482   */\n      swap2\n      pop\n        /* \"#utility.yul\":12503:12528   */\n      tag_539\n        /* \"#utility.yul\":12519:12527   */\n      dup4\n        /* \"#utility.yul\":12503:12528   */\n      tag_359\n      jump\t// in\n    tag_539:\n        /* \"#utility.yul\":12491:12528   */\n      swap3\n      pop\n        /* \"#utility.yul\":12547:12651   */\n      tag_540\n        /* \"#utility.yul\":12584:12650   */\n      0xffffffffffffffffffffffffffffffffffffffffffffffffffffffffffffffff\n        /* \"#utility.yul\":12574:12582   */\n      dup5\n        /* \"#utility.yul\":12568:12572   */\n      dup5\n        /* \"#utility.yul\":12547:12651   */\n      tag_375\n      jump\t// in\n    tag_540:\n        /* \"#utility.yul\":12538:12651   */\n      swap1\n      pop\n        /* \"#utility.yul\":12377:12658   */\n      swap3\n      swap2\n      pop\n      pop\n      jump\t// out\n        /* \"#utility.yul\":12664:13074   */\n    tag_139:\n        /* \"#utility.yul\":12704:12711   */\n      0x00\n        /* \"#utility.yul\":12727:12747   */\n      tag_542\n        /* \"#utility.yul\":12745:12746   */\n      dup3\n        /* \"#utility.yul\":12727:12747   */\n      tag_353\n      jump\t// in\n    tag_542:\n        /* \"#utility.yul\":12722:12747   */\n      swap2\n      pop\n        /* \"#utility.yul\":12761:12781   */\n      tag_543\n        /* \"#utility.yul\":12779:12780   */\n      dup4\n        /* \"#utility.yul\":12761:12781   */\n      tag_353\n      jump\t// in\n    tag_543:\n        /* \"#utility.yul\":12756:12781   */\n      swap3\n      pop\n        /* \"#utility.yul\":12816:12817   */\n      dup3\n        /* \"#utility.yul\":12813:12814   */\n      dup3\n        /* \"#utility.yul\":12809:12818   */\n      mul\n        /* \"#utility.yul\":12838:12868   */\n      tag_544\n        /* \"#utility.yul\":12856:12867   */\n      dup2\n        /* \"#utility.yul\":12838:12868   */\n      tag_353\n      jump\t// in\n    tag_544:\n        /* \"#utility.yul\":12827:12868   */\n      swap2\n      pop\n        /* \"#utility.yul\":13017:13018   */\n      dup3\n        /* \"#utility.yul\":13008:13015   */\n      dup3\n        /* \"#utility.yul\":13004:13019   */\n      div\n        /* \"#utility.yul\":13001:13002   */\n      dup5\n        /* \"#utility.yul\":12998:13020   */\n      eq\n        /* \"#utility.yul\":12978:12979   */\n      dup4\n        /* \"#utility.yul\":12971:12980   */\n      iszero\n        /* \"#utility.yul\":12951:13034   */\n      or\n        /* \"#utility.yul\":12928:13067   */\n      tag_545\n      jumpi\n        /* \"#utility.yul\":13047:13065   */\n      tag_546\n      tag_372\n      jump\t// in\n    tag_546:\n        /* \"#utility.yul\":12928:13067   */\n    tag_545:\n        /* \"#utility.yul\":12712:13074   */\n      pop\n        /* \"#utility.yul\":12664:13074   */\n      swap3\n      swap2\n      pop\n      pop\n      jump\t// out\n        /* \"#utility.yul\":13080:13165   */\n    tag_376:\n        /* \"#utility.yul\":13125:13132   */\n      0x00\n        /* \"#utility.yul\":13154:13159   */\n      dup2\n        /* \"#utility.yul\":13143:13159   */\n      swap1\n      pop\n        /* \"#utility.yul\":13080:13165   */\n      swap2\n      swap1\n      pop\n      jump\t// out\n        /* \"#utility.yul\":13171:13272   */\n    tag_377:\n        /* \"#utility.yul\":13207:13214   */\n      0x00\n        /* \"#utility.yul\":13247:13265   */\n      0xffffffffffffffff\n        /* \"#utility.yul\":13240:13245   */\n      dup3\n        /* \"#utility.yul\":13236:13266   */\n      and\n        /* \"#utility.yul\":13225:13266   */\n      swap1\n      pop\n        /* \"#utility.yul\":13171:13272   */\n      swap2\n      swap1\n      pop\n      jump\t// out\n        /* \"#utility.yul\":13278:13338   */\n    tag_378:\n        /* \"#utility.yul\":13306:13309   */\n      0x00\n        /* \"#utility.yul\":13327:13332   */\n      dup2\n        /* \"#utility.yul\":13320:13332   */\n      swap1\n      pop\n        /* \"#utility.yul\":13278:13338   */\n      swap2\n      swap1\n      pop\n      jump\t// out\n        /* \"#utility.yul\":13344:13500   */\n    tag_379:\n        /* \"#utility.yul\":13401:13410   */\n      0x00\n        /* \"#utility.yul\":13434:13494   */\n      tag_551\n        /* \"#utility.yul\":13451:13493   */\n      tag_552\n        /* \"#utility.yul\":13460:13492   */\n      tag_553\n        /* \"#utility.yul\":13486:13491   */\n      dup5\n        /* \"#utility.yul\":13460:13492   */\n      tag_376\n      jump\t// in\n    tag_553:\n        /* \"#utility.yul\":13451:13493   */\n      tag_378\n      jump\t// in\n    tag_552:\n        /* \"#utility.yul\":13434:13494   */\n      tag_377\n      jump\t// in\n    tag_551:\n        /* \"#utility.yul\":13421:13494   */\n      swap1\n      pop\n        /* \"#utility.yul\":13344:13500   */\n      swap2\n      swap1\n      pop\n      jump\t// out\n        /* \"#utility.yul\":13506:13651   */\n    tag_380:\n        /* \"#utility.yul\":13600:13644   */\n      tag_555\n        /* \"#utility.yul\":13638:13643   */\n      dup2\n        /* \"#utility.yul\":13600:13644   */\n      tag_379\n      jump\t// in\n    tag_555:\n        /* \"#utility.yul\":13595:13598   */\n      dup3\n        /* \"#utility.yul\":13588:13645   */\n      mstore\n        /* \"#utility.yul\":13506:13651   */\n      pop\n      pop\n      jump\t// out\n        /* \"#utility.yul\":13657:13893   */\n    tag_152:\n        /* \"#utility.yul\":13757:13761   */\n      0x00\n        /* \"#utility.yul\":13795:13797   */\n      0x20\n        /* \"#utility.yul\":13784:13793   */\n      dup3\n        /* \"#utility.yul\":13780:13798   */\n      add\n        /* \"#utility.yul\":13772:13798   */\n      swap1\n      pop\n        /* \"#utility.yul\":13808:13886   */\n      tag_557\n        /* \"#utility.yul\":13883:13884   */\n      0x00\n        /* \"#utility.yul\":13872:13881   */\n      dup4\n        /* \"#utility.yul\":13868:13885   */\n      add\n        /* \"#utility.yul\":13859:13865   */\n      dup5\n        /* \"#utility.yul\":13808:13886   */\n      tag_380\n      jump\t// in\n    tag_557:\n        /* \"#utility.yul\":13657:13893   */\n      swap3\n      swap2\n      pop\n      pop\n      jump\t// out\n        /* \"#utility.yul\":13899:14341   */\n    tag_216:\n        /* \"#utility.yul\":14048:14052   */\n      0x00\n        /* \"#utility.yul\":14086:14088   */\n      0x60\n        /* \"#utility.yul\":14075:14084   */\n      dup3\n        /* \"#utility.yul\":14071:14089   */\n      add\n        /* \"#utility.yul\":14063:14089   */\n      swap1\n      pop\n        /* \"#utility.yul\":14099:14170   */\n      tag_559\n        /* \"#utility.yul\":14167:14168   */\n      0x00\n        /* \"#utility.yul\":14156:14165   */\n      dup4\n        /* \"#utility.yul\":14152:14169   */\n      add\n        /* \"#utility.yul\":14143:14149   */\n      dup7\n        /* \"#utility.yul\":14099:14170   */\n      tag_370\n      jump\t// in\n    tag_559:\n        /* \"#utility.yul\":14180:14252   */\n      tag_560\n        /* \"#utility.yul\":14248:14250   */\n      0x20\n        /* \"#utility.yul\":14237:14246   */\n      dup4\n        /* \"#utility.yul\":14233:14251   */\n      add\n        /* \"#utility.yul\":14224:14230   */\n      dup6\n        /* \"#utility.yul\":14180:14252   */\n      tag_358\n      jump\t// in\n    tag_560:\n        /* \"#utility.yul\":14262:14334   */\n      tag_561\n        /* \"#utility.yul\":14330:14332   */\n      0x40\n        /* \"#utility.yul\":14319:14328   */\n      dup4\n        /* \"#utility.yul\":14315:14333   */\n      add\n        /* \"#utility.yul\":14306:14312   */\n      dup5\n        /* \"#utility.yul\":14262:14334   */\n      tag_358\n      jump\t// in\n    tag_561:\n        /* \"#utility.yul\":13899:14341   */\n      swap5\n      swap4\n      pop\n      pop\n      pop\n      pop\n      jump\t// out\n        /* \"#utility.yul\":14347:14488   */\n    tag_381:\n        /* \"#utility.yul\":14396:14400   */\n      0x00\n        /* \"#utility.yul\":14419:14422   */\n      dup2\n        /* \"#utility.yul\":14411:14422   */\n      swap1\n      pop\n        /* \"#utility.yul\":14442:14445   */\n      dup2\n        /* \"#utility.yul\":14439:14440   */\n      0x00\n        /* \"#utility.yul\":14432:14446   */\n      mstore\n        /* \"#utility.yul\":14476:14480   */\n      0x20\n        /* \"#utility.yul\":14473:14474   */\n      0x00\n        /* \"#utility.yul\":14463:14481   */\n      keccak256\n        /* \"#utility.yul\":14455:14481   */\n      swap1\n      pop\n        /* \"#utility.yul\":14347:14488   */\n      swap2\n      swap1\n      pop\n      jump\t// out\n        /* \"#utility.yul\":14494:14587   */\n    tag_382:\n        /* \"#utility.yul\":14531:14537   */\n      0x00\n        /* \"#utility.yul\":14578:14580   */\n      0x20\n        /* \"#utility.yul\":14573:14575   */\n      0x1f\n        /* \"#utility.yul\":14566:14571   */\n      dup4\n        /* \"#utility.yul\":14562:14576   */\n      add\n        /* \"#utility.yul\":14558:14581   */\n      div\n        /* \"#utility.yul\":14548:14581   */\n      swap1\n      pop\n        /* \"#utility.yul\":14494:14587   */\n      swap2\n      swap1\n      pop\n      jump\t// out\n        /* \"#utility.yul\":14593:14700   */\n    tag_383:\n        /* \"#utility.yul\":14637:14645   */\n      0x00\n        /* \"#utility.yul\":14687:14692   */\n      dup3\n        /* \"#utility.yul\":14681:14685   */\n      dup3\n        /* \"#utility.yul\":14677:14693   */\n      shl\n        /* \"#utility.yul\":14656:14693   */\n      swap1\n      pop\n        /* \"#utility.yul\":14593:14700   */\n      swap3\n      swap2\n      pop\n      pop\n      jump\t// out\n        /* \"#utility.yul\":14706:15099   */\n    tag_384:\n        /* \"#utility.yul\":14775:14781   */\n      0x00\n        /* \"#utility.yul\":14825:14826   */\n      0x08\n        /* \"#utility.yul\":14813:14823   */\n      dup4\n        /* \"#utility.yul\":14809:14827   */\n      mul\n        /* \"#utility.yul\":14848:14945   */\n      tag_566\n        /* \"#utility.yul\":14878:14944   */\n      0xffffffffffffffffffffffffffffffffffffffffffffffffffffffffffffffff\n        /* \"#utility.yul\":14867:14876   */\n      dup3\n        /* \"#utility.yul\":14848:14945   */\n      tag_383\n      jump\t// in\n    tag_566:\n        /* \"#utility.yul\":14966:15005   */\n      tag_567\n        /* \"#utility.yul\":14996:15004   */\n      dup7\n        /* \"#utility.yul\":14985:14994   */\n      dup4\n        /* \"#utility.yul\":14966:15005   */\n      tag_383\n      jump\t// in\n    tag_567:\n        /* \"#utility.yul\":14954:15005   */\n      swap6\n      pop\n        /* \"#utility.yul\":15038:15042   */\n      dup1\n        /* \"#utility.yul\":15034:15043   */\n      not\n        /* \"#utility.yul\":15027:15032   */\n      dup5\n        /* \"#utility.yul\":15023:15044   */\n      and\n        /* \"#utility.yul\":15014:15044   */\n      swap4\n      pop\n        /* \"#utility.yul\":15087:15091   */\n      dup1\n        /* \"#utility.yul\":15077:15085   */\n      dup7\n        /* \"#utility.yul\":15073:15092   */\n      and\n        /* \"#utility.yul\":15066:15071   */\n      dup5\n        /* \"#utility.yul\":15063:15093   */\n      or\n        /* \"#utility.yul\":15053:15093   */\n      swap3\n      pop\n        /* \"#utility.yul\":14782:15099   */\n      pop\n      pop\n        /* \"#utility.yul\":14706:15099   */\n      swap4\n      swap3\n      pop\n      pop\n      pop\n      jump\t// out\n        /* \"#utility.yul\":15105:15247   */\n    tag_385:\n        /* \"#utility.yul\":15155:15164   */\n      0x00\n        /* \"#utility.yul\":15188:15241   */\n      tag_569\n        /* \"#utility.yul\":15206:15240   */\n      tag_570\n        /* \"#utility.yul\":15215:15239   */\n      tag_571\n        /* \"#utility.yul\":15233:15238   */\n      dup5\n        /* \"#utility.yul\":15215:15239   */\n      tag_353\n      jump\t// in\n    tag_571:\n        /* \"#utility.yul\":15206:15240   */\n      tag_378\n      jump\t// in\n    tag_570:\n        /* \"#utility.yul\":15188:15241   */\n      tag_353\n      jump\t// in\n    tag_569:\n        /* \"#utility.yul\":15175:15241   */\n      swap1\n      pop\n        /* \"#utility.yul\":15105:15247   */\n      swap2\n      swap1\n      pop\n      jump\t// out\n        /* \"#utility.yul\":15253:15328   */\n    tag_386:\n        /* \"#utility.yul\":15296:15299   */\n      0x00\n        /* \"#utility.yul\":15317:15322   */\n      dup2\n        /* \"#utility.yul\":15310:15322   */\n      swap1\n      pop\n        /* \"#utility.yul\":15253:15328   */\n      swap2\n      swap1\n      pop\n      jump\t// out\n        /* \"#utility.yul\":15334:15603   */\n    tag_387:\n        /* \"#utility.yul\":15444:15483   */\n      tag_574\n        /* \"#utility.yul\":15475:15482   */\n      dup4\n        /* \"#utility.yul\":15444:15483   */\n      tag_385\n      jump\t// in\n    tag_574:\n        /* \"#utility.yul\":15505:15596   */\n      tag_575\n        /* \"#utility.yul\":15554:15595   */\n      tag_576\n        /* \"#utility.yul\":15578:15594   */\n      dup3\n        /* \"#utility.yul\":15554:15595   */\n      tag_386\n      jump\t// in\n    tag_576:\n        /* \"#utility.yul\":15546:15552   */\n      dup5\n        /* \"#utility.yul\":15539:15543   */\n      dup5\n        /* \"#utility.yul\":15533:15544   */\n      sload\n        /* \"#utility.yul\":15505:15596   */\n      tag_384\n      jump\t// in\n    tag_575:\n        /* \"#utility.yul\":15499:15503   */\n      dup3\n        /* \"#utility.yul\":15492:15597   */\n      sstore\n        /* \"#utility.yul\":15410:15603   */\n      pop\n        /* \"#utility.yul\":15334:15603   */\n      pop\n      pop\n      pop\n      jump\t// out\n        /* \"#utility.yul\":15609:15682   */\n    tag_388:\n        /* \"#utility.yul\":15654:15657   */\n      0x00\n        /* \"#utility.yul\":15675:15676   */\n      0x00\n        /* \"#utility.yul\":15668:15676   */\n      swap1\n      pop\n        /* \"#utility.yul\":15609:15682   */\n      swap1\n      jump\t// out\n        /* \"#utility.yul\":15688:15877   */\n    tag_389:\n        /* \"#utility.yul\":15765:15797   */\n      tag_579\n      tag_388\n      jump\t// in\n    tag_579:\n        /* \"#utility.yul\":15806:15871   */\n      tag_580\n        /* \"#utility.yul\":15864:15870   */\n      dup2\n        /* \"#utility.yul\":15856:15862   */\n      dup5\n        /* \"#utility.yul\":15850:15854   */\n      dup5\n        /* \"#utility.yul\":15806:15871   */\n      tag_387\n      jump\t// in\n    tag_580:\n        /* \"#utility.yul\":15741:15877   */\n      pop\n        /* \"#utility.yul\":15688:15877   */\n      pop\n      pop\n      jump\t// out\n        /* \"#utility.yul\":15883:16069   */\n    tag_390:\n        /* \"#utility.yul\":15943:16063   */\n    tag_582:\n        /* \"#utility.yul\":15960:15963   */\n      dup2\n        /* \"#utility.yul\":15953:15958   */\n      dup2\n        /* \"#utility.yul\":15950:15964   */\n      lt\n        /* \"#utility.yul\":15943:16063   */\n      iszero\n      tag_584\n      jumpi\n        /* \"#utility.yul\":16014:16053   */\n      tag_585\n        /* \"#utility.yul\":16051:16052   */\n      0x00\n        /* \"#utility.yul\":16044:16049   */\n      dup3\n        /* \"#utility.yul\":16014:16053   */\n      tag_389\n      jump\t// in\n    tag_585:\n        /* \"#utility.yul\":15987:15988   */\n      0x01\n        /* \"#utility.yul\":15980:15985   */\n      dup2\n        /* \"#utility.yul\":15976:15989   */\n      add\n        /* \"#utility.yul\":15967:15989   */\n      swap1\n      pop\n        /* \"#utility.yul\":15943:16063   */\n      jump(tag_582)\n    tag_584:\n        /* \"#utility.yul\":15883:16069   */\n      pop\n      pop\n      jump\t// out\n        /* \"#utility.yul\":16075:16618   */\n    tag_391:\n        /* \"#utility.yul\":16176:16178   */\n      0x1f\n        /* \"#utility.yul\":16171:16174   */\n      dup3\n        /* \"#utility.yul\":16168:16179   */\n      gt\n        /* \"#utility.yul\":16165:16611   */\n      iszero\n      tag_587\n      jumpi\n        /* \"#utility.yul\":16210:16248   */\n      tag_588\n        /* \"#utility.yul\":16242:16247   */\n      dup2\n        /* \"#utility.yul\":16210:16248   */\n      tag_381\n      jump\t// in\n    tag_588:\n        /* \"#utility.yul\":16294:16323   */\n      tag_589\n        /* \"#utility.yul\":16312:16322   */\n      dup5\n        /* \"#utility.yul\":16294:16323   */\n      tag_382\n      jump\t// in\n    tag_589:\n        /* \"#utility.yul\":16284:16292   */\n      dup2\n        /* \"#utility.yul\":16280:16324   */\n      add\n        /* \"#utility.yul\":16477:16479   */\n      0x20\n        /* \"#utility.yul\":16465:16475   */\n      dup6\n        /* \"#utility.yul\":16462:16480   */\n      lt\n        /* \"#utility.yul\":16459:16508   */\n      iszero\n      tag_590\n      jumpi\n        /* \"#utility.yul\":16498:16506   */\n      dup2\n        /* \"#utility.yul\":16483:16506   */\n      swap1\n      pop\n        /* \"#utility.yul\":16459:16508   */\n    tag_590:\n        /* \"#utility.yul\":16521:16601   */\n      tag_591\n        /* \"#utility.yul\":16577:16599   */\n      tag_592\n        /* \"#utility.yul\":16595:16598   */\n      dup6\n        /* \"#utility.yul\":16577:16599   */\n      tag_382\n      jump\t// in\n    tag_592:\n        /* \"#utility.yul\":16567:16575   */\n      dup4\n        /* \"#utility.yul\":16563:16600   */\n      add\n        /* \"#utility.yul\":16550:16561   */\n      dup3\n        /* \"#utility.yul\":16521:16601   */\n      tag_390\n      jump\t// in\n    tag_591:\n        /* \"#utility.yul\":16180:16611   */\n      pop\n      pop\n        /* \"#utility.yul\":16165:16611   */\n    tag_587:\n        /* \"#utility.yul\":16075:16618   */\n      pop\n      pop\n      pop\n      jump\t// out\n        /* \"#utility.yul\":16624:16741   */\n    tag_392:\n        /* \"#utility.yul\":16678:16686   */\n      0x00\n        /* \"#utility.yul\":16728:16733   */\n      dup3\n        /* \"#utility.yul\":16722:16726   */\n      dup3\n        /* \"#utility.yul\":16718:16734   */\n      shr\n        /* \"#utility.yul\":16697:16734   */\n      swap1\n      pop\n        /* \"#utility.yul\":16624:16741   */\n      swap3\n      swap2\n      pop\n      pop\n      jump\t// out\n        /* \"#utility.yul\":16747:16916   */\n    tag_393:\n        /* \"#utility.yul\":16791:16797   */\n      0x00\n        /* \"#utility.yul\":16824:16875   */\n      tag_595\n        /* \"#utility.yul\":16872:16873   */\n      0x00\n        /* \"#utility.yul\":16868:16874   */\n      not\n        /* \"#utility.yul\":16860:16865   */\n      dup5\n        /* \"#utility.yul\":16857:16858   */\n      0x08\n        /* \"#utility.yul\":16853:16866   */\n      mul\n        /* \"#utility.yul\":16824:16875   */\n      tag_392\n      jump\t// in\n    tag_595:\n        /* \"#utility.yul\":16820:16876   */\n      not\n        /* \"#utility.yul\":16905:16909   */\n      dup1\n        /* \"#utility.yul\":16899:16903   */\n      dup4\n        /* \"#utility.yul\":16895:16910   */\n      and\n        /* \"#utility.yul\":16885:16910   */\n      swap2\n      pop\n        /* \"#utility.yul\":16798:16916   */\n      pop\n        /* \"#utility.yul\":16747:16916   */\n      swap3\n      swap2\n      pop\n      pop\n      jump\t// out\n        /* \"#utility.yul\":16921:17216   */\n    tag_394:\n        /* \"#utility.yul\":16997:17001   */\n      0x00\n        /* \"#utility.yul\":17143:17172   */\n      tag_597\n        /* \"#utility.yul\":17168:17171   */\n      dup4\n        /* \"#utility.yul\":17162:17166   */\n      dup4\n        /* \"#utility.yul\":17143:17172   */\n      tag_393\n      jump\t// in\n    tag_597:\n        /* \"#utility.yul\":17135:17172   */\n      swap2\n      pop\n        /* \"#utility.yul\":17205:17208   */\n      dup3\n        /* \"#utility.yul\":17202:17203   */\n      0x02\n        /* \"#utility.yul\":17198:17209   */\n      mul\n        /* \"#utility.yul\":17192:17196   */\n      dup3\n        /* \"#utility.yul\":17189:17210   */\n      or\n        /* \"#utility.yul\":17181:17210   */\n      swap1\n      pop\n        /* \"#utility.yul\":16921:17216   */\n      swap3\n      swap2\n      pop\n      pop\n      jump\t// out\n        /* \"#utility.yul\":17221:18616   */\n    tag_297:\n        /* \"#utility.yul\":17338:17375   */\n      tag_599\n        /* \"#utility.yul\":17371:17374   */\n      dup3\n        /* \"#utility.yul\":17338:17375   */\n      tag_341\n      jump\t// in\n    tag_599:\n        /* \"#utility.yul\":17440:17458   */\n      0xffffffffffffffff\n        /* \"#utility.yul\":17432:17438   */\n      dup2\n        /* \"#utility.yul\":17429:17459   */\n      gt\n        /* \"#utility.yul\":17426:17482   */\n      iszero\n      tag_600\n      jumpi\n        /* \"#utility.yul\":17462:17480   */\n      tag_601\n      tag_363\n      jump\t// in\n    tag_601:\n        /* \"#utility.yul\":17426:17482   */\n    tag_600:\n        /* \"#utility.yul\":17506:17544   */\n      tag_602\n        /* \"#utility.yul\":17538:17542   */\n      dup3\n        /* \"#utility.yul\":17532:17543   */\n      sload\n        /* \"#utility.yul\":17506:17544   */\n      tag_104\n      jump\t// in\n    tag_602:\n        /* \"#utility.yul\":17591:17658   */\n      tag_603\n        /* \"#utility.yul\":17651:17657   */\n      dup3\n        /* \"#utility.yul\":17643:17649   */\n      dup3\n        /* \"#utility.yul\":17637:17641   */\n      dup6\n        /* \"#utility.yul\":17591:17658   */\n      tag_391\n      jump\t// in\n    tag_603:\n        /* \"#utility.yul\":17685:17686   */\n      0x00\n        /* \"#utility.yul\":17709:17713   */\n      0x20\n        /* \"#utility.yul\":17696:17713   */\n      swap1\n      pop\n        /* \"#utility.yul\":17741:17743   */\n      0x1f\n        /* \"#utility.yul\":17733:17739   */\n      dup4\n        /* \"#utility.yul\":17730:17744   */\n      gt\n        /* \"#utility.yul\":17758:17759   */\n      0x01\n        /* \"#utility.yul\":17753:18371   */\n      dup2\n      eq\n      tag_605\n      jumpi\n        /* \"#utility.yul\":18415:18416   */\n      0x00\n        /* \"#utility.yul\":18432:18438   */\n      dup5\n        /* \"#utility.yul\":18429:18506   */\n      iszero\n      tag_606\n      jumpi\n        /* \"#utility.yul\":18481:18490   */\n      dup3\n        /* \"#utility.yul\":18476:18479   */\n      dup8\n        /* \"#utility.yul\":18472:18491   */\n      add\n        /* \"#utility.yul\":18466:18492   */\n      mload\n        /* \"#utility.yul\":18457:18492   */\n      swap1\n      pop\n        /* \"#utility.yul\":18429:18506   */\n    tag_606:\n        /* \"#utility.yul\":18532:18599   */\n      tag_607\n        /* \"#utility.yul\":18592:18598   */\n      dup6\n        /* \"#utility.yul\":18585:18590   */\n      dup3\n        /* \"#utility.yul\":18532:18599   */\n      tag_394\n      jump\t// in\n    tag_607:\n        /* \"#utility.yul\":18526:18530   */\n      dup7\n        /* \"#utility.yul\":18519:18600   */\n      sstore\n        /* \"#utility.yul\":18388:18610   */\n      pop\n        /* \"#utility.yul\":17723:18610   */\n      jump(tag_604)\n        /* \"#utility.yul\":17753:18371   */\n    tag_605:\n        /* \"#utility.yul\":17805:17809   */\n      0x1f\n        /* \"#utility.yul\":17801:17810   */\n      not\n        /* \"#utility.yul\":17793:17799   */\n      dup5\n        /* \"#utility.yul\":17789:17811   */\n      and\n        /* \"#utility.yul\":17839:17876   */\n      tag_608\n        /* \"#utility.yul\":17871:17875   */\n      dup7\n        /* \"#utility.yul\":17839:17876   */\n      tag_381\n      jump\t// in\n    tag_608:\n        /* \"#utility.yul\":17898:17899   */\n      0x00\n        /* \"#utility.yul\":17912:18120   */\n    tag_609:\n        /* \"#utility.yul\":17926:17933   */\n      dup3\n        /* \"#utility.yul\":17923:17924   */\n      dup2\n        /* \"#utility.yul\":17920:17934   */\n      lt\n        /* \"#utility.yul\":17912:18120   */\n      iszero\n      tag_611\n      jumpi\n        /* \"#utility.yul\":18005:18014   */\n      dup5\n        /* \"#utility.yul\":18000:18003   */\n      dup10\n        /* \"#utility.yul\":17996:18015   */\n      add\n        /* \"#utility.yul\":17990:18016   */\n      mload\n        /* \"#utility.yul\":17982:17988   */\n      dup3\n        /* \"#utility.yul\":17975:18017   */\n      sstore\n        /* \"#utility.yul\":18056:18057   */\n      0x01\n        /* \"#utility.yul\":18048:18054   */\n      dup3\n        /* \"#utility.yul\":18044:18058   */\n      add\n        /* \"#utility.yul\":18034:18058   */\n      swap2\n      pop\n        /* \"#utility.yul\":18103:18105   */\n      0x20\n        /* \"#utility.yul\":18092:18101   */\n      dup6\n        /* \"#utility.yul\":18088:18106   */\n      add\n        /* \"#utility.yul\":18075:18106   */\n      swap5\n      pop\n        /* \"#utility.yul\":17949:17953   */\n      0x20\n        /* \"#utility.yul\":17946:17947   */\n      dup2\n        /* \"#utility.yul\":17942:17954   */\n      add\n        /* \"#utility.yul\":17937:17954   */\n      swap1\n      pop\n        /* \"#utility.yul\":17912:18120   */\n      jump(tag_609)\n    tag_611:\n        /* \"#utility.yul\":18148:18154   */\n      dup7\n        /* \"#utility.yul\":18139:18146   */\n      dup4\n        /* \"#utility.yul\":18136:18155   */\n      lt\n        /* \"#utility.yul\":18133:18312   */\n      iszero\n      tag_612\n      jumpi\n        /* \"#utility.yul\":18206:18215   */\n      dup5\n        /* \"#utility.yul\":18201:18204   */\n      dup10\n        /* \"#utility.yul\":18197:18216   */\n      add\n        /* \"#utility.yul\":18191:18217   */\n      mload\n        /* \"#utility.yul\":18249:18297   */\n      tag_613\n        /* \"#utility.yul\":18291:18295   */\n      0x1f\n        /* \"#utility.yul\":18283:18289   */\n      dup10\n        /* \"#utility.yul\":18279:18296   */\n      and\n        /* \"#utility.yul\":18268:18277   */\n      dup3\n        /* \"#utility.yul\":18249:18297   */\n      tag_393\n      jump\t// in\n    tag_613:\n        /* \"#utility.yul\":18241:18247   */\n      dup4\n        /* \"#utility.yul\":18234:18298   */\n      sstore\n        /* \"#utility.yul\":18156:18312   */\n      pop\n        /* \"#utility.yul\":18133:18312   */\n    tag_612:\n        /* \"#utility.yul\":18358:18359   */\n      0x01\n        /* \"#utility.yul\":18354:18355   */\n      0x02\n        /* \"#utility.yul\":18346:18352   */\n      dup9\n        /* \"#utility.yul\":18342:18356   */\n      mul\n        /* \"#utility.yul\":18338:18360   */\n      add\n        /* \"#utility.yul\":18332:18336   */\n      dup9\n        /* \"#utility.yul\":18325:18361   */\n      sstore\n        /* \"#utility.yul\":17760:18371   */\n      pop\n      pop\n      pop\n        /* \"#utility.yul\":17723:18610   */\n    tag_604:\n      pop\n        /* \"#utility.yul\":17313:18616   */\n      pop\n      pop\n      pop\n        /* \"#utility.yul\":17221:18616   */\n      pop\n      pop\n      jump\t// out\n        /* \"#utility.yul\":18622:18707   */\n    tag_395:\n        /* \"#utility.yul\":18667:18674   */\n      0x00\n        /* \"#utility.yul\":18696:18701   */\n      dup2\n        /* \"#utility.yul\":18685:18701   */\n      swap1\n      pop\n        /* \"#utility.yul\":18622:18707   */\n      swap2\n      swap1\n      pop\n      jump\t// out\n        /* \"#utility.yul\":18713:18871   */\n    tag_396:\n        /* \"#utility.yul\":18771:18780   */\n      0x00\n        /* \"#utility.yul\":18804:18865   */\n      tag_616\n        /* \"#utility.yul\":18822:18864   */\n      tag_617\n        /* \"#utility.yul\":18831:18863   */\n      tag_618\n        /* \"#utility.yul\":18857:18862   */\n      dup5\n        /* \"#utility.yul\":18831:18863   */\n      tag_395\n      jump\t// in\n    tag_618:\n        /* \"#utility.yul\":18822:18864   */\n      tag_378\n      jump\t// in\n    tag_617:\n        /* \"#utility.yul\":18804:18865   */\n      tag_353\n      jump\t// in\n    tag_616:\n        /* \"#utility.yul\":18791:18865   */\n      swap1\n      pop\n        /* \"#utility.yul\":18713:18871   */\n      swap2\n      swap1\n      pop\n      jump\t// out\n        /* \"#utility.yul\":18877:19024   */\n    tag_397:\n        /* \"#utility.yul\":18972:19017   */\n      tag_620\n        /* \"#utility.yul\":19011:19016   */\n      dup2\n        /* \"#utility.yul\":18972:19017   */\n      tag_396\n      jump\t// in\n    tag_620:\n        /* \"#utility.yul\":18967:18970   */\n      dup3\n        /* \"#utility.yul\":18960:19018   */\n      mstore\n        /* \"#utility.yul\":18877:19024   */\n      pop\n      pop\n      jump\t// out\n        /* \"#utility.yul\":19030:19268   */\n    tag_305:\n        /* \"#utility.yul\":19131:19135   */\n      0x00\n        /* \"#utility.yul\":19169:19171   */\n      0x20\n        /* \"#utility.yul\":19158:19167   */\n      dup3\n        /* \"#utility.yul\":19154:19172   */\n      add\n        /* \"#utility.yul\":19146:19172   */\n      swap1\n      pop\n        /* \"#utility.yul\":19182:19261   */\n      tag_622\n        /* \"#utility.yul\":19258:19259   */\n      0x00\n        /* \"#utility.yul\":19247:19256   */\n      dup4\n        /* \"#utility.yul\":19243:19260   */\n      add\n        /* \"#utility.yul\":19234:19240   */\n      dup5\n        /* \"#utility.yul\":19182:19261   */\n      tag_397\n      jump\t// in\n    tag_622:\n        /* \"#utility.yul\":19030:19268   */\n      swap3\n      swap2\n      pop\n      pop\n      jump\t// out\n        /* \"#utility.yul\":19274:19606   */\n    tag_327:\n        /* \"#utility.yul\":19395:19399   */\n      0x00\n        /* \"#utility.yul\":19433:19435   */\n      0x40\n        /* \"#utility.yul\":19422:19431   */\n      dup3\n        /* \"#utility.yul\":19418:19436   */\n      add\n        /* \"#utility.yul\":19410:19436   */\n      swap1\n      pop\n        /* \"#utility.yul\":19446:19517   */\n      tag_624\n        /* \"#utility.yul\":19514:19515   */\n      0x00\n        /* \"#utility.yul\":19503:19512   */\n      dup4\n        /* \"#utility.yul\":19499:19516   */\n      add\n        /* \"#utility.yul\":19490:19496   */\n      dup6\n        /* \"#utility.yul\":19446:19517   */\n      tag_358\n      jump\t// in\n    tag_624:\n        /* \"#utility.yul\":19527:19599   */\n      tag_625\n        /* \"#utility.yul\":19595:19597   */\n      0x20\n        /* \"#utility.yul\":19584:19593   */\n      dup4\n        /* \"#utility.yul\":19580:19598   */\n      add\n        /* \"#utility.yul\":19571:19577   */\n      dup5\n        /* \"#utility.yul\":19527:19599   */\n      tag_358\n      jump\t// in\n    tag_625:\n        /* \"#utility.yul\":19274:19606   */\n      swap4\n      swap3\n      pop\n      pop\n      pop\n      jump\t// out\n        /* \"#utility.yul\":19612:19803   */\n    tag_334:\n        /* \"#utility.yul\":19652:19655   */\n      0x00\n        /* \"#utility.yul\":19671:19691   */\n      tag_627\n        /* \"#utility.yul\":19689:19690   */\n      dup3\n        /* \"#utility.yul\":19671:19691   */\n      tag_353\n      jump\t// in\n    tag_627:\n        /* \"#utility.yul\":19666:19691   */\n      swap2\n      pop\n        /* \"#utility.yul\":19705:19725   */\n      tag_628\n        /* \"#utility.yul\":19723:19724   */\n      dup4\n        /* \"#utility.yul\":19705:19725   */\n      tag_353\n      jump\t// in\n    tag_628:\n        /* \"#utility.yul\":19700:19725   */\n      swap3\n      pop\n        /* \"#utility.yul\":19748:19749   */\n      dup3\n        /* \"#utility.yul\":19745:19746   */\n      dup3\n        /* \"#utility.yul\":19741:19750   */\n      add\n        /* \"#utility.yul\":19734:19750   */\n      swap1\n      pop\n        /* \"#utility.yul\":19769:19772   */\n      dup1\n        /* \"#utility.yul\":19766:19767   */\n      dup3\n        /* \"#utility.yul\":19763:19773   */\n      gt\n        /* \"#utility.yul\":19760:19796   */\n      iszero\n      tag_629\n      jumpi\n        /* \"#utility.yul\":19776:19794   */\n      tag_630\n      tag_372\n      jump\t// in\n    tag_630:\n        /* \"#utility.yul\":19760:19796   */\n    tag_629:\n        /* \"#utility.yul\":19612:19803   */\n      swap3\n      swap2\n      pop\n      pop\n      jump\t// out\n\n    auxdata: 0xa2646970667358221220a38a592dc21107e49a10d36f198f67ffe5b8413e6432e49d7f895c08356cfaf864736f6c634300081e0033\n}\n",
				"bytecode": {
					"linkReferences": {},
					"object": "6080604052348015600e575f5ffd5b506122228061001c5f395ff3fe608060405234801561000f575f5ffd5b506004361061012a575f3560e01c806370a08231116100ab578063a9059cbb1161006f578063a9059cbb146102f8578063dd62ed3e14610328578063e30c397814610358578063f2fde38b14610376578063ffa1ad74146103925761012a565b806370a0823114610278578063715018a6146102a857806379ba5097146102b25780638da5cb5b146102bc57806395d89b41146102da5761012a565b806333eea181116100f257806333eea181146101e8578063355274ea1461020457806340c10f191461022257806342966c681461023e57806354fd4d501461025a5761012a565b806306fdde031461012e578063095ea7b31461014c57806318160ddd1461017c57806323b872dd1461019a578063313ce567146101ca575b5f5ffd5b6101366103b0565b6040516101439190611781565b60405180910390f35b6101666004803603810190610161919061183f565b61044e565b6040516101739190611897565b60405180910390f35b610184610470565b60405161019191906118bf565b60405180910390f35b6101b460048036038101906101af91906118d8565b610487565b6040516101c19190611897565b60405180910390f35b6101d26104b5565b6040516101df9190611943565b60405180910390f35b61020260048036038101906101fd9190611a88565b6104bd565b005b61020c6106a3565b60405161021991906118bf565b60405180910390f35b61023c6004803603810190610237919061183f565b6106b9565b005b61025860048036038101906102539190611b37565b6106df565b005b6102626106ec565b60405161026f9190611781565b60405180910390f35b610292600480360381019061028d9190611b62565b610729565b60405161029f91906118bf565b60405180910390f35b6102b061077c565b005b6102ba61078f565b005b6102c461081d565b6040516102d19190611b9c565b60405180910390f35b6102e2610852565b6040516102ef9190611781565b60405180910390f35b610312600480360381019061030d919061183f565b6108f0565b60405161031f9190611897565b60405180910390f35b610342600480360381019061033d9190611bb5565b610912565b60405161034f91906118bf565b60405180910390f35b6103606109a2565b60405161036d9190611b9c565b60405180910390f35b610390600480360381019061038b9190611b62565b6109d7565b005b61039a610a90565b6040516103a79190611781565b60405180910390f35b60605f6103bb610ac9565b90508060030180546103cc90611c20565b80601f01602080910402602001604051908101604052809291908181526020018280546103f890611c20565b80156104435780601f1061041a57610100808354040283529160200191610443565b820191905f5260205f20905b81548152906001019060200180831161042657829003601f168201915b505050505091505090565b5f5f610458610af0565b9050610465818585610af7565b600191505092915050565b5f5f61047a610ac9565b9050806002015491505090565b5f5f610491610af0565b905061049e858285610b09565b6104a9858585610b9c565b60019150509392505050565b5f6012905090565b5f6104c6610c8c565b90505f815f0160089054906101000a900460ff161590505f825f015f9054906101000a900467ffffffffffffffff1690505f5f8267ffffffffffffffff1614801561050e5750825b90505f60018367ffffffffffffffff1614801561054157505f3073ffffffffffffffffffffffffffffffffffffffff163b145b90508115801561054f575080155b15610586576040517ff92ee8a900000000000000000000000000000000000000000000000000000000815260040160405180910390fd5b6001855f015f6101000a81548167ffffffffffffffff021916908367ffffffffffffffff16021790555083156105d3576001855f0160086101000a81548160ff0219169083151502179055505b6105dd8a8a610c9f565b6106046105e86104b5565b600a6105f49190611dac565b896105ff9190611df6565b610cb5565b61060d86610cc9565b610615610cdd565b61063d866106216104b5565b600a61062d9190611dac565b896106389190611df6565b610cef565b8315610697575f855f0160086101000a81548160ff0219169083151502179055507fc7f505b2f371ae2175ee4913f4499e1f2633a7b5936321eed1cdaeb6115181d2600160405161068e9190611e8c565b60405180910390a15b50505050505050505050565b5f5f6106ad610d6e565b9050805f015491505090565b6106c1610d95565b6106c9610e1c565b6106d38282610cef565b6106db610e70565b5050565b6106e93382610e87565b50565b60606040518060400160405280600381526020017f322e300000000000000000000000000000000000000000000000000000000000815250905090565b5f5f610733610ac9565b9050805f015f8473ffffffffffffffffffffffffffffffffffffffff1673ffffffffffffffffffffffffffffffffffffffff1681526020019081526020015f2054915050919050565b610784610d95565b61078d5f610f06565b565b5f610798610af0565b90508073ffffffffffffffffffffffffffffffffffffffff166107b96109a2565b73ffffffffffffffffffffffffffffffffffffffff161461081157806040517f118cdaa70000000000000000000000000000000000000000000000000000000081526004016108089190611b9c565b60405180910390fd5b61081a81610f06565b50565b5f5f610827610f43565b9050805f015f9054906101000a900473ffffffffffffffffffffffffffffffffffffffff1691505090565b60605f61085d610ac9565b905080600401805461086e90611c20565b80601f016020809104026020016040519081016040528092919081815260200182805461089a90611c20565b80156108e55780601f106108bc576101008083540402835291602001916108e5565b820191905f5260205f20905b8154815290600101906020018083116108c857829003601f168201915b505050505091505090565b5f5f6108fa610af0565b9050610907818585610b9c565b600191505092915050565b5f5f61091c610ac9565b9050806001015f8573ffffffffffffffffffffffffffffffffffffffff1673ffffffffffffffffffffffffffffffffffffffff1681526020019081526020015f205f8473ffffffffffffffffffffffffffffffffffffffff1673ffffffffffffffffffffffffffffffffffffffff1681526020019081526020015f205491505092915050565b5f5f6109ac610f6a565b9050805f015f9054906101000a900473ffffffffffffffffffffffffffffffffffffffff1691505090565b6109df610d95565b5f6109e8610f6a565b905081815f015f6101000a81548173ffffffffffffffffffffffffffffffffffffffff021916908373ffffffffffffffffffffffffffffffffffffffff1602179055508173ffffffffffffffffffffffffffffffffffffffff16610a4a61081d565b73ffffffffffffffffffffffffffffffffffffffff167f38d16b8cac22d99fc7c124b9cd0de2d3fa1faef420bfe791d8c362d765e2270060405160405180910390a35050565b6040518060400160405280600381526020017f322e30000000000000000000000000000000000000000000000000000000000081525081565b5f7f52c63247e1f47db19d5ce0460030c497f067ca4cebf71ba98eeadabe20bace00905090565b5f33905090565b610b048383836001610f91565b505050565b5f610b148484610912565b90507fffffffffffffffffffffffffffffffffffffffffffffffffffffffffffffffff811015610b965781811015610b87578281836040517ffb8f41b2000000000000000000000000000000000000000000000000000000008152600401610b7e93929190611ea5565b60405180910390fd5b610b9584848484035f610f91565b5b50505050565b5f73ffffffffffffffffffffffffffffffffffffffff168373ffffffffffffffffffffffffffffffffffffffff1603610c0c575f6040517f96c6fd1e000000000000000000000000000000000000000000000000000000008152600401610c039190611b9c565b60405180910390fd5b5f73ffffffffffffffffffffffffffffffffffffffff168273ffffffffffffffffffffffffffffffffffffffff1603610c7c575f6040517fec442f05000000000000000000000000000000000000000000000000000000008152600401610c739190611b9c565b60405180910390fd5b610c8783838361116e565b505050565b5f5f610c9661117e565b90508091505090565b610ca76111a7565b610cb182826111e7565b5050565b610cbd6111a7565b610cc681611223565b50565b610cd16111a7565b610cda81611286565b50565b610ce56111a7565b610ced61130a565b565b5f73ffffffffffffffffffffffffffffffffffffffff168273ffffffffffffffffffffffffffffffffffffffff1603610d5f575f6040517fec442f05000000000000000000000000000000000000000000000000000000008152600401610d569190611b9c565b60405180910390fd5b610d6a5f838361116e565b5050565b5f7f0f070392f17d5f958cc1ac31867dabecfc5c9758b4a419a200803226d7155d00905090565b610d9d610af0565b73ffffffffffffffffffffffffffffffffffffffff16610dbb61081d565b73ffffffffffffffffffffffffffffffffffffffff1614610e1a57610dde610af0565b6040517f118cdaa7000000000000000000000000000000000000000000000000000000008152600401610e119190611b9c565b60405180910390fd5b565b5f610e25611329565b90506002815f015403610e64576040517f3ee5aeb500000000000000000000000000000000000000000000000000000000815260040160405180910390fd5b6002815f018190555050565b5f610e79611329565b90506001815f018190555050565b5f73ffffffffffffffffffffffffffffffffffffffff168273ffffffffffffffffffffffffffffffffffffffff1603610ef7575f6040517f96c6fd1e000000000000000000000000000000000000000000000000000000008152600401610eee9190611b9c565b60405180910390fd5b610f02825f8361116e565b5050565b5f610f0f610f6a565b9050805f015f6101000a81549073ffffffffffffffffffffffffffffffffffffffff0219169055610f3f82611350565b5050565b5f7f9016d09d72d40fdae2fd8ceac6b6234c7706214fd39c1cd1e609a0528c199300905090565b5f7f237e158222e3e6968b72b9db0d8043aacf074ad9f650f0d1606b4d82ee432c00905090565b5f610f9a610ac9565b90505f73ffffffffffffffffffffffffffffffffffffffff168573ffffffffffffffffffffffffffffffffffffffff160361100c575f6040517fe602df050000000000000000000000000000000000000000000000000000000081526004016110039190611b9c565b60405180910390fd5b5f73ffffffffffffffffffffffffffffffffffffffff168473ffffffffffffffffffffffffffffffffffffffff160361107c575f6040517f94280d620000000000000000000000000000000000000000000000000000000081526004016110739190611b9c565b60405180910390fd5b82816001015f8773ffffffffffffffffffffffffffffffffffffffff1673ffffffffffffffffffffffffffffffffffffffff1681526020019081526020015f205f8673ffffffffffffffffffffffffffffffffffffffff1673ffffffffffffffffffffffffffffffffffffffff1681526020019081526020015f20819055508115611167578373ffffffffffffffffffffffffffffffffffffffff168573ffffffffffffffffffffffffffffffffffffffff167f8c5be1e5ebec7d5bd14f71427d1e84f3dd0314c0f7b2291e5b200ac8c7c3b9258560405161115e91906118bf565b60405180910390a35b5050505050565b611179838383611421565b505050565b5f7ff0c57e16840df040f15088dc2f81fe391c3923bec73e23a9662efc9c229c6a005f1b905090565b6111af6114c4565b6111e5576040517fd7e6bcf800000000000000000000000000000000000000000000000000000000815260040160405180910390fd5b565b6111ef6111a7565b5f6111f8610ac9565b90508281600301908161120b9190612071565b508181600401908161121d9190612071565b50505050565b61122b6111a7565b5f611234610d6e565b90505f820361127a575f6040517f392e1e270000000000000000000000000000000000000000000000000000000081526004016112719190612179565b60405180910390fd5b81815f01819055505050565b61128e6111a7565b5f73ffffffffffffffffffffffffffffffffffffffff168173ffffffffffffffffffffffffffffffffffffffff16036112fe575f6040517f1e4fbdf70000000000000000000000000000000000000000000000000000000081526004016112f59190611b9c565b60405180910390fd5b61130781610f06565b50565b6113126111a7565b5f61131b611329565b90506001815f018190555050565b5f7f9b779b17422d0df92223018b32b4d1fa46e071723d6817e2486d003becc55f00905090565b5f611359610f43565b90505f815f015f9054906101000a900473ffffffffffffffffffffffffffffffffffffffff16905082825f015f6101000a81548173ffffffffffffffffffffffffffffffffffffffff021916908373ffffffffffffffffffffffffffffffffffffffff1602179055508273ffffffffffffffffffffffffffffffffffffffff168173ffffffffffffffffffffffffffffffffffffffff167f8be0079c531659141344cd1fd0a4f28419497f9722a3daafe3b4186f6b6457e060405160405180910390a3505050565b61142c8383836114e2565b5f73ffffffffffffffffffffffffffffffffffffffff168373ffffffffffffffffffffffffffffffffffffffff16036114bf575f6114686106a3565b90505f611473610470565b9050818111156114bc5780826040517f9e79f8540000000000000000000000000000000000000000000000000000000081526004016114b3929190612192565b60405180910390fd5b50505b505050565b5f6114cd610c8c565b5f0160089054906101000a900460ff16905090565b5f6114eb610ac9565b90505f73ffffffffffffffffffffffffffffffffffffffff168473ffffffffffffffffffffffffffffffffffffffff160361153f5781816002015f82825461153391906121b9565b92505081905550611611565b5f815f015f8673ffffffffffffffffffffffffffffffffffffffff1673ffffffffffffffffffffffffffffffffffffffff1681526020019081526020015f20549050828110156115ca578481846040517fe450d38c0000000000000000000000000000000000000000000000000000000081526004016115c193929190611ea5565b60405180910390fd5b828103825f015f8773ffffffffffffffffffffffffffffffffffffffff1673ffffffffffffffffffffffffffffffffffffffff1681526020019081526020015f2081905550505b5f73ffffffffffffffffffffffffffffffffffffffff168373ffffffffffffffffffffffffffffffffffffffff160361165a5781816002015f82825403925050819055506116a6565b81815f015f8573ffffffffffffffffffffffffffffffffffffffff1673ffffffffffffffffffffffffffffffffffffffff1681526020019081526020015f205f82825401925050819055505b8273ffffffffffffffffffffffffffffffffffffffff168473ffffffffffffffffffffffffffffffffffffffff167fddf252ad1be2c89b69c2b068fc378daa952ba7f163c4a11628f55a4df523b3ef8460405161170391906118bf565b60405180910390a350505050565b5f81519050919050565b5f82825260208201905092915050565b8281835e5f83830152505050565b5f601f19601f8301169050919050565b5f61175382611711565b61175d818561171b565b935061176d81856020860161172b565b61177681611739565b840191505092915050565b5f6020820190508181035f8301526117998184611749565b905092915050565b5f604051905090565b5f5ffd5b5f5ffd5b5f73ffffffffffffffffffffffffffffffffffffffff82169050919050565b5f6117db826117b2565b9050919050565b6117eb816117d1565b81146117f5575f5ffd5b50565b5f81359050611806816117e2565b92915050565b5f819050919050565b61181e8161180c565b8114611828575f5ffd5b50565b5f8135905061183981611815565b92915050565b5f5f60408385031215611855576118546117aa565b5b5f611862858286016117f8565b92505060206118738582860161182b565b9150509250929050565b5f8115159050919050565b6118918161187d565b82525050565b5f6020820190506118aa5f830184611888565b92915050565b6118b98161180c565b82525050565b5f6020820190506118d25f8301846118b0565b92915050565b5f5f5f606084860312156118ef576118ee6117aa565b5b5f6118fc868287016117f8565b935050602061190d868287016117f8565b925050604061191e8682870161182b565b9150509250925092565b5f60ff82169050919050565b61193d81611928565b82525050565b5f6020820190506119565f830184611934565b92915050565b5f5ffd5b5f5ffd5b7f4e487b71000000000000000000000000000000000000000000000000000000005f52604160045260245ffd5b61199a82611739565b810181811067ffffffffffffffff821117156119b9576119b8611964565b5b80604052505050565b5f6119cb6117a1565b90506119d78282611991565b919050565b5f67ffffffffffffffff8211156119f6576119f5611964565b5b6119ff82611739565b9050602081019050919050565b828183375f83830152505050565b5f611a2c611a27846119dc565b6119c2565b905082815260208101848484011115611a4857611a47611960565b5b611a53848285611a0c565b509392505050565b5f82601f830112611a6f57611a6e61195c565b5b8135611a7f848260208601611a1a565b91505092915050565b5f5f5f5f5f60a08688031215611aa157611aa06117aa565b5b5f86013567ffffffffffffffff811115611abe57611abd6117ae565b5b611aca88828901611a5b565b955050602086013567ffffffffffffffff811115611aeb57611aea6117ae565b5b611af788828901611a5b565b9450506040611b088882890161182b565b9350506060611b198882890161182b565b9250506080611b2a888289016117f8565b9150509295509295909350565b5f60208284031215611b4c57611b4b6117aa565b5b5f611b598482850161182b565b91505092915050565b5f60208284031215611b7757611b766117aa565b5b5f611b84848285016117f8565b91505092915050565b611b96816117d1565b82525050565b5f602082019050611baf5f830184611b8d565b92915050565b5f5f60408385031215611bcb57611bca6117aa565b5b5f611bd8858286016117f8565b9250506020611be9858286016117f8565b9150509250929050565b7f4e487b71000000000000000000000000000000000000000000000000000000005f52602260045260245ffd5b5f6002820490506001821680611c3757607f821691505b602082108103611c4a57611c49611bf3565b5b50919050565b7f4e487b71000000000000000000000000000000000000000000000000000000005f52601160045260245ffd5b5f8160011c9050919050565b5f5f8291508390505b6001851115611cd257808604811115611cae57611cad611c50565b5b6001851615611cbd5780820291505b8081029050611ccb85611c7d565b9450611c92565b94509492505050565b5f82611cea5760019050611da5565b81611cf7575f9050611da5565b8160018114611d0d5760028114611d1757611d46565b6001915050611da5565b60ff841115611d2957611d28611c50565b5b8360020a915084821115611d4057611d3f611c50565b5b50611da5565b5060208310610133831016604e8410600b8410161715611d7b5782820a905083811115611d7657611d75611c50565b5b611da5565b611d888484846001611c89565b92509050818404811115611d9f57611d9e611c50565b5b81810290505b9392505050565b5f611db68261180c565b9150611dc183611928565b9250611dee7fffffffffffffffffffffffffffffffffffffffffffffffffffffffffffffffff8484611cdb565b905092915050565b5f611e008261180c565b9150611e0b8361180c565b9250828202611e198161180c565b91508282048414831517611e3057611e2f611c50565b5b5092915050565b5f819050919050565b5f67ffffffffffffffff82169050919050565b5f819050919050565b5f611e76611e71611e6c84611e37565b611e53565b611e40565b9050919050565b611e8681611e5c565b82525050565b5f602082019050611e9f5f830184611e7d565b92915050565b5f606082019050611eb85f830186611b8d565b611ec560208301856118b0565b611ed260408301846118b0565b949350505050565b5f819050815f5260205f209050919050565b5f6020601f8301049050919050565b5f82821b905092915050565b5f60088302611f367fffffffffffffffffffffffffffffffffffffffffffffffffffffffffffffffff82611efb565b611f408683611efb565b95508019841693508086168417925050509392505050565b5f611f72611f6d611f688461180c565b611e53565b61180c565b9050919050565b5f819050919050565b611f8b83611f58565b611f9f611f9782611f79565b848454611f07565b825550505050565b5f5f905090565b611fb6611fa7565b611fc1818484611f82565b505050565b5b81811015611fe457611fd95f82611fae565b600181019050611fc7565b5050565b601f82111561202957611ffa81611eda565b61200384611eec565b81016020851015612012578190505b61202661201e85611eec565b830182611fc6565b50505b505050565b5f82821c905092915050565b5f6120495f198460080261202e565b1980831691505092915050565b5f612061838361203a565b9150826002028217905092915050565b61207a82611711565b67ffffffffffffffff81111561209357612092611964565b5b61209d8254611c20565b6120a8828285611fe8565b5f60209050601f8311600181146120d9575f84156120c7578287015190505b6120d18582612056565b865550612138565b601f1984166120e786611eda565b5f5b8281101561210e578489015182556001820191506020850194506020810190506120e9565b8683101561212b5784890151612127601f89168261203a565b8355505b6001600288020188555050505b505050505050565b5f819050919050565b5f61216361215e61215984612140565b611e53565b61180c565b9050919050565b61217381612149565b82525050565b5f60208201905061218c5f83018461216a565b92915050565b5f6040820190506121a55f8301856118b0565b6121b260208301846118b0565b9392505050565b5f6121c38261180c565b91506121ce8361180c565b92508282019050808211156121e6576121e5611c50565b5b9291505056fea2646970667358221220a38a592dc21107e49a10d36f198f67ffe5b8413e6432e49d7f895c08356cfaf864736f6c634300081e0033",
					"opcodes": "PUSH1 0x80 PUSH1 0x40 MSTORE CALLVALUE DUP1 ISZERO PUSH1 0xE JUMPI PUSH0 PUSH0 REVERT JUMPDEST POP PUSH2 0x2222 DUP1 PUSH2 0x1C PUSH0 CODECOPY PUSH0 RETURN INVALID PUSH1 0x80 PUSH1 0x40 MSTORE CALLVALUE DUP1 ISZERO PUSH2 0xF JUMPI PUSH0 PUSH0 REVERT JUMPDEST POP PUSH1 0x4 CALLDATASIZE LT PUSH2 0x12A JUMPI PUSH0 CALLDATALOAD PUSH1 0xE0 SHR DUP1 PUSH4 0x70A08231 GT PUSH2 0xAB JUMPI DUP1 PUSH4 0xA9059CBB GT PUSH2 0x6F JUMPI DUP1 PUSH4 0xA9059CBB EQ PUSH2 0x2F8 JUMPI DUP1 PUSH4 0xDD62ED3E EQ PUSH2 0x328 JUMPI DUP1 PUSH4 0xE30C3978 EQ PUSH2 0x358 JUMPI DUP1 PUSH4 0xF2FDE38B EQ PUSH2 0x376 JUMPI DUP1 PUSH4 0xFFA1AD74 EQ PUSH2 0x392 JUMPI PUSH2 0x12A JUMP JUMPDEST DUP1 PUSH4 0x70A08231 EQ PUSH2 0x278 JUMPI DUP1 PUSH4 0x715018A6 EQ PUSH2 0x2A8 JUMPI DUP1 PUSH4 0x79BA5097 EQ PUSH2 0x2B2 JUMPI DUP1 PUSH4 0x8DA5CB5B EQ PUSH2 0x2BC JUMPI DUP1 PUSH4 0x95D89B41 EQ PUSH2 0x2DA JUMPI PUSH2 0x12A JUMP JUMPDEST DUP1 PUSH4 0x33EEA181 GT PUSH2 0xF2 JUMPI DUP1 PUSH4 0x33EEA181 EQ PUSH2 0x1E8 JUMPI DUP1 PUSH4 0x355274EA EQ PUSH2 0x204 JUMPI DUP1 PUSH4 0x40C10F19 EQ PUSH2 0x222 JUMPI DUP1 PUSH4 0x42966C68 EQ PUSH2 0x23E JUMPI DUP1 PUSH4 0x54FD4D50 EQ PUSH2 0x25A JUMPI PUSH2 0x12A JUMP JUMPDEST DUP1 PUSH4 0x6FDDE03 EQ PUSH2 0x12E JUMPI DUP1 PUSH4 0x95EA7B3 EQ PUSH2 0x14C JUMPI DUP1 PUSH4 0x18160DDD EQ PUSH2 0x17C JUMPI DUP1 PUSH4 0x23B872DD EQ PUSH2 0x19A JUMPI DUP1 PUSH4 0x313CE567 EQ PUSH2 0x1CA JUMPI JUMPDEST PUSH0 PUSH0 REVERT JUMPDEST PUSH2 0x136 PUSH2 0x3B0 JUMP JUMPDEST PUSH1 0x40 MLOAD PUSH2 0x143 SWAP2 SWAP1 PUSH2 0x1781 JUMP JUMPDEST PUSH1 0x40 MLOAD DUP1 SWAP2 SUB SWAP1 RETURN JUMPDEST PUSH2 0x166 PUSH1 0x4 DUP1 CALLDATASIZE SUB DUP2 ADD SWAP1 PUSH2 0x161 SWAP2 SWAP1 PUSH2 0x183F JUMP JUMPDEST PUSH2 0x44E JUMP JUMPDEST PUSH1 0x40 MLOAD PUSH2 0x173 SWAP2 SWAP1 PUSH2 0x1897 JUMP JUMPDEST PUSH1 0x40 MLOAD DUP1 SWAP2 SUB SWAP1 RETURN JUMPDEST PUSH2 0x184 PUSH2 0x470 JUMP JUMPDEST PUSH1 0x40 MLOAD PUSH2 0x191 SWAP2 SWAP1 PUSH2 0x18BF JUMP JUMPDEST PUSH1 0x40 MLOAD DUP1 SWAP2 SUB SWAP1 RETURN JUMPDEST PUSH2 0x1B4 PUSH1 0x4 DUP1 CALLDATASIZE SUB DUP2 ADD SWAP1 PUSH2 0x1AF SWAP2 SWAP1 PUSH2 0x18D8 JUMP JUMPDEST PUSH2 0x487 JUMP JUMPDEST PUSH1 0x40 MLOAD PUSH2 0x1C1 SWAP2 SWAP1 PUSH2 0x1897 JUMP JUMPDEST PUSH1 0x40 MLOAD DUP1 SWAP2 SUB SWAP1 RETURN JUMPDEST PUSH2 0x1D2 PUSH2 0x4B5 JUMP JUMPDEST PUSH1 0x40 MLOAD PUSH2 0x1DF SWAP2 SWAP1 PUSH2 0x1943 JUMP JUMPDEST PUSH1 0x40 MLOAD DUP1 SWAP2 SUB SWAP1 RETURN JUMPDEST PUSH2 0x202 PUSH1 0x4 DUP1 CALLDATASIZE SUB DUP2 ADD SWAP1 PUSH2 0x1FD SWAP2 SWAP1 PUSH2 0x1A88 JUMP JUMPDEST PUSH2 0x4BD JUMP JUMPDEST STOP JUMPDEST PUSH2 0x20C PUSH2 0x6A3 JUMP JUMPDEST PUSH1 0x40 MLOAD PUSH2 0x219 SWAP2 SWAP1 PUSH2 0x18BF JUMP JUMPDEST PUSH1 0x40 MLOAD DUP1 SWAP2 SUB SWAP1 RETURN JUMPDEST PUSH2 0x23C PUSH1 0x4 DUP1 CALLDATASIZE SUB DUP2 ADD SWAP1 PUSH2 0x237 SWAP2 SWAP1 PUSH2 0x183F JUMP JUMPDEST PUSH2 0x6B9 JUMP JUMPDEST STOP JUMPDEST PUSH2 0x258 PUSH1 0x4 DUP1 CALLDATASIZE SUB DUP2 ADD SWAP1 PUSH2 0x253 SWAP2 SWAP1 PUSH2 0x1B37 JUMP JUMPDEST PUSH2 0x6DF JUMP JUMPDEST STOP JUMPDEST PUSH2 0x262 PUSH2 0x6EC JUMP JUMPDEST PUSH1 0x40 MLOAD PUSH2 0x26F SWAP2 SWAP1 PUSH2 0x1781 JUMP JUMPDEST PUSH1 0x40 MLOAD DUP1 SWAP2 SUB SWAP1 RETURN JUMPDEST PUSH2 0x292 PUSH1 0x4 DUP1 CALLDATASIZE SUB DUP2 ADD SWAP1 PUSH2 0x28D SWAP2 SWAP1 PUSH2 0x1B62 JUMP JUMPDEST PUSH2 0x729 JUMP JUMPDEST PUSH1 0x40 MLOAD PUSH2 0x29F SWAP2 SWAP1 PUSH2 0x18BF JUMP JUMPDEST PUSH1 0x40 MLOAD DUP1 SWAP2 SUB SWAP1 RETURN JUMPDEST PUSH2 0x2B0 PUSH2 0x77C JUMP JUMPDEST STOP JUMPDEST PUSH2 0x2BA PUSH2 0x78F JUMP JUMPDEST STOP JUMPDEST PUSH2 0x2C4 PUSH2 0x81D JUMP JUMPDEST PUSH1 0x40 MLOAD PUSH2 0x2D1 SWAP2 SWAP1 PUSH2 0x1B9C JUMP JUMPDEST PUSH1 0x40 MLOAD DUP1 SWAP2 SUB SWAP1 RETURN JUMPDEST PUSH2 0x2E2 PUSH2 0x852 JUMP JUMPDEST PUSH1 0x40 MLOAD PUSH2 0x2EF SWAP2 SWAP1 PUSH2 0x1781 JUMP JUMPDEST PUSH1 0x40 MLOAD DUP1 SWAP2 SUB SWAP1 RETURN JUMPDEST PUSH2 0x312 PUSH1 0x4 DUP1 CALLDATASIZE SUB DUP2 ADD SWAP1 PUSH2 0x30D SWAP2 SWAP1 PUSH2 0x183F JUMP JUMPDEST PUSH2 0x8F0 JUMP JUMPDEST PUSH1 0x40 MLOAD PUSH2 0x31F SWAP2 SWAP1 PUSH2 0x1897 JUMP JUMPDEST PUSH1 0x40 MLOAD DUP1 SWAP2 SUB SWAP1 RETURN JUMPDEST PUSH2 0x342 PUSH1 0x4 DUP1 CALLDATASIZE SUB DUP2 ADD SWAP1 PUSH2 0x33D SWAP2 SWAP1 PUSH2 0x1BB5 JUMP JUMPDEST PUSH2 0x912 JUMP JUMPDEST PUSH1 0x40 MLOAD PUSH2 0x34F SWAP2 SWAP1 PUSH2 0x18BF JUMP JUMPDEST PUSH1 0x40 MLOAD DUP1 SWAP2 SUB SWAP1 RETURN JUMPDEST PUSH2 0x360 PUSH2 0x9A2 JUMP JUMPDEST PUSH1 0x40 MLOAD PUSH2 0x36D SWAP2 SWAP1 PUSH2 0x1B9C JUMP JUMPDEST PUSH1 0x40 MLOAD DUP1 SWAP2 SUB SWAP1 RETURN JUMPDEST PUSH2 0x390 PUSH1 0x4 DUP1 CALLDATASIZE SUB DUP2 ADD SWAP1 PUSH2 0x38B SWAP2 SWAP1 PUSH2 0x1B62 JUMP JUMPDEST PUSH2 0x9D7 JUMP JUMPDEST STOP JUMPDEST PUSH2 0x39A PUSH2 0xA90 JUMP JUMPDEST PUSH1 0x40 MLOAD PUSH2 0x3A7 SWAP2 SWAP1 PUSH2 0x1781 JUMP JUMPDEST PUSH1 0x40 MLOAD DUP1 SWAP2 SUB SWAP1 RETURN JUMPDEST PUSH1 0x60 PUSH0 PUSH2 0x3BB PUSH2 0xAC9 JUMP JUMPDEST SWAP1 POP DUP1 PUSH1 0x3 ADD DUP1 SLOAD PUSH2 0x3CC SWAP1 PUSH2 0x1C20 JUMP JUMPDEST DUP1 PUSH1 0x1F ADD PUSH1 0x20 DUP1 SWAP2 DIV MUL PUSH1 0x20 ADD PUSH1 0x40 MLOAD SWAP1 DUP2 ADD PUSH1 0x40 MSTORE DUP1 SWAP3 SWAP2 SWAP1 DUP2 DUP2 MSTORE PUSH1 0x20 ADD DUP3 DUP1 SLOAD PUSH2 0x3F8 SWAP1 PUSH2 0x1C20 JUMP JUMPDEST DUP1 ISZERO PUSH2 0x443 JUMPI DUP1 PUSH1 0x1F LT PUSH2 0x41A JUMPI PUSH2 0x100 DUP1 DUP4 SLOAD DIV MUL DUP4 MSTORE SWAP2 PUSH1 0x20 ADD SWAP2 PUSH2 0x443 JUMP JUMPDEST DUP3 ADD SWAP2 SWAP1 PUSH0 MSTORE PUSH1 0x20 PUSH0 KECCAK256 SWAP1 JUMPDEST DUP2 SLOAD DUP2 MSTORE SWAP1 PUSH1 0x1 ADD SWAP1 PUSH1 0x20 ADD DUP1 DUP4 GT PUSH2 0x426 JUMPI DUP3 SWAP1 SUB PUSH1 0x1F AND DUP3 ADD SWAP2 JUMPDEST POP POP POP POP POP SWAP2 POP POP SWAP1 JUMP JUMPDEST PUSH0 PUSH0 PUSH2 0x458 PUSH2 0xAF0 JUMP JUMPDEST SWAP1 POP PUSH2 0x465 DUP2 DUP6 DUP6 PUSH2 0xAF7 JUMP JUMPDEST PUSH1 0x1 SWAP2 POP POP SWAP3 SWAP2 POP POP JUMP JUMPDEST PUSH0 PUSH0 PUSH2 0x47A PUSH2 0xAC9 JUMP JUMPDEST SWAP1 POP DUP1 PUSH1 0x2 ADD SLOAD SWAP2 POP POP SWAP1 JUMP JUMPDEST PUSH0 PUSH0 PUSH2 0x491 PUSH2 0xAF0 JUMP JUMPDEST SWAP1 POP PUSH2 0x49E DUP6 DUP3 DUP6 PUSH2 0xB09 JUMP JUMPDEST PUSH2 0x4A9 DUP6 DUP6 DUP6 PUSH2 0xB9C JUMP JUMPDEST PUSH1 0x1 SWAP2 POP POP SWAP4 SWAP3 POP POP POP JUMP JUMPDEST PUSH0 PUSH1 0x12 SWAP1 POP SWAP1 JUMP JUMPDEST PUSH0 PUSH2 0x4C6 PUSH2 0xC8C JUMP JUMPDEST SWAP1 POP PUSH0 DUP2 PUSH0 ADD PUSH1 0x8 SWAP1 SLOAD SWAP1 PUSH2 0x100 EXP SWAP1 DIV PUSH1 0xFF AND ISZERO SWAP1 POP PUSH0 DUP3 PUSH0 ADD PUSH0 SWAP1 SLOAD SWAP1 PUSH2 0x100 EXP SWAP1 DIV PUSH8 0xFFFFFFFFFFFFFFFF AND SWAP1 POP PUSH0 PUSH0 DUP3 PUSH8 0xFFFFFFFFFFFFFFFF AND EQ DUP1 ISZERO PUSH2 0x50E JUMPI POP DUP3 JUMPDEST SWAP1 POP PUSH0 PUSH1 0x1 DUP4 PUSH8 0xFFFFFFFFFFFFFFFF AND EQ DUP1 ISZERO PUSH2 0x541 JUMPI POP PUSH0 ADDRESS PUSH20 0xFFFFFFFFFFFFFFFFFFFFFFFFFFFFFFFFFFFFFFFF AND EXTCODESIZE EQ JUMPDEST SWAP1 POP DUP2 ISZERO DUP1 ISZERO PUSH2 0x54F JUMPI POP DUP1 ISZERO JUMPDEST ISZERO PUSH2 0x586 JUMPI PUSH1 0x40 MLOAD PUSH32 0xF92EE8A900000000000000000000000000000000000000000000000000000000 DUP2 MSTORE PUSH1 0x4 ADD PUSH1 0x40 MLOAD DUP1 SWAP2 SUB SWAP1 REVERT JUMPDEST PUSH1 0x1 DUP6 PUSH0 ADD PUSH0 PUSH2 0x100 EXP DUP2 SLOAD DUP2 PUSH8 0xFFFFFFFFFFFFFFFF MUL NOT AND SWAP1 DUP4 PUSH8 0xFFFFFFFFFFFFFFFF AND MUL OR SWAP1 SSTORE POP DUP4 ISZERO PUSH2 0x5D3 JUMPI PUSH1 0x1 DUP6 PUSH0 ADD PUSH1 0x8 PUSH2 0x100 EXP DUP2 SLOAD DUP2 PUSH1 0xFF MUL NOT AND SWAP1 DUP4 ISZERO ISZERO MUL OR SWAP1 SSTORE POP JUMPDEST PUSH2 0x5DD DUP11 DUP11 PUSH2 0xC9F JUMP JUMPDEST PUSH2 0x604 PUSH2 0x5E8 PUSH2 0x4B5 JUMP JUMPDEST PUSH1 0xA PUSH2 0x5F4 SWAP2 SWAP1 PUSH2 0x1DAC JUMP JUMPDEST DUP10 PUSH2 0x5FF SWAP2 SWAP1 PUSH2 0x1DF6 JUMP JUMPDEST PUSH2 0xCB5 JUMP JUMPDEST PUSH2 0x60D DUP7 PUSH2 0xCC9 JUMP JUMPDEST PUSH2 0x615 PUSH2 0xCDD JUMP JUMPDEST PUSH2 0x63D DUP7 PUSH2 0x621 PUSH2 0x4B5 JUMP JUMPDEST PUSH1 0xA PUSH2 0x62D SWAP2 SWAP1 PUSH2 0x1DAC JUMP JUMPDEST DUP10 PUSH2 0x638 SWAP2 SWAP1 PUSH2 0x1DF6 JUMP JUMPDEST PUSH2 0xCEF JUMP JUMPDEST DUP4 ISZERO PUSH2 0x697 JUMPI PUSH0 DUP6 PUSH0 ADD PUSH1 0x8 PUSH2 0x100 EXP DUP2 SLOAD DUP2 PUSH1 0xFF MUL NOT AND SWAP1 DUP4 ISZERO ISZERO MUL OR SWAP1 SSTORE POP PUSH32 0xC7F505B2F371AE2175EE4913F4499E1F2633A7B5936321EED1CDAEB6115181D2 PUSH1 0x1 PUSH1 0x40 MLOAD PUSH2 0x68E SWAP2 SWAP1 PUSH2 0x1E8C JUMP JUMPDEST PUSH1 0x40 MLOAD DUP1 SWAP2 SUB SWAP1 LOG1 JUMPDEST POP POP POP POP POP POP POP POP POP POP JUMP JUMPDEST PUSH0 PUSH0 PUSH2 0x6AD PUSH2 0xD6E JUMP JUMPDEST SWAP1 POP DUP1 PUSH0 ADD SLOAD SWAP2 POP POP SWAP1 JUMP JUMPDEST PUSH2 0x6C1 PUSH2 0xD95 JUMP JUMPDEST PUSH2 0x6C9 PUSH2 0xE1C JUMP JUMPDEST PUSH2 0x6D3 DUP3 DUP3 PUSH2 0xCEF JUMP JUMPDEST PUSH2 0x6DB PUSH2 0xE70 JUMP JUMPDEST POP POP JUMP JUMPDEST PUSH2 0x6E9 CALLER DUP3 PUSH2 0xE87 JUMP JUMPDEST POP JUMP JUMPDEST PUSH1 0x60 PUSH1 0x40 MLOAD DUP1 PUSH1 0x40 ADD PUSH1 0x40 MSTORE DUP1 PUSH1 0x3 DUP2 MSTORE PUSH1 0x20 ADD PUSH32 0x322E300000000000000000000000000000000000000000000000000000000000 DUP2 MSTORE POP SWAP1 POP SWAP1 JUMP JUMPDEST PUSH0 PUSH0 PUSH2 0x733 PUSH2 0xAC9 JUMP JUMPDEST SWAP1 POP DUP1 PUSH0 ADD PUSH0 DUP5 PUSH20 0xFFFFFFFFFFFFFFFFFFFFFFFFFFFFFFFFFFFFFFFF AND PUSH20 0xFFFFFFFFFFFFFFFFFFFFFFFFFFFFFFFFFFFFFFFF AND DUP2 MSTORE PUSH1 0x20 ADD SWAP1 DUP2 MSTORE PUSH1 0x20 ADD PUSH0 KECCAK256 SLOAD SWAP2 POP POP SWAP2 SWAP1 POP JUMP JUMPDEST PUSH2 0x784 PUSH2 0xD95 JUMP JUMPDEST PUSH2 0x78D PUSH0 PUSH2 0xF06 JUMP JUMPDEST JUMP JUMPDEST PUSH0 PUSH2 0x798 PUSH2 0xAF0 JUMP JUMPDEST SWAP1 POP DUP1 PUSH20 0xFFFFFFFFFFFFFFFFFFFFFFFFFFFFFFFFFFFFFFFF AND PUSH2 0x7B9 PUSH2 0x9A2 JUMP JUMPDEST PUSH20 0xFFFFFFFFFFFFFFFFFFFFFFFFFFFFFFFFFFFFFFFF AND EQ PUSH2 0x811 JUMPI DUP1 PUSH1 0x40 MLOAD PUSH32 0x118CDAA700000000000000000000000000000000000000000000000000000000 DUP2 MSTORE PUSH1 0x4 ADD PUSH2 0x808 SWAP2 SWAP1 PUSH2 0x1B9C JUMP JUMPDEST PUSH1 0x40 MLOAD DUP1 SWAP2 SUB SWAP1 REVERT JUMPDEST PUSH2 0x81A DUP2 PUSH2 0xF06 JUMP JUMPDEST POP JUMP JUMPDEST PUSH0 PUSH0 PUSH2 0x827 PUSH2 0xF43 JUMP JUMPDEST SWAP1 POP DUP1 PUSH0 ADD PUSH0 SWAP1 SLOAD SWAP1 PUSH2 0x100 EXP SWAP1 DIV PUSH20 0xFFFFFFFFFFFFFFFFFFFFFFFFFFFFFFFFFFFFFFFF AND SWAP2 POP POP SWAP1 JUMP JUMPDEST PUSH1 0x60 PUSH0 PUSH2 0x85D PUSH2 0xAC9 JUMP JUMPDEST SWAP1 POP DUP1 PUSH1 0x4 ADD DUP1 SLOAD PUSH2 0x86E SWAP1 PUSH2 0x1C20 JUMP JUMPDEST DUP1 PUSH1 0x1F ADD PUSH1 0x20 DUP1 SWAP2 DIV MUL PUSH1 0x20 ADD PUSH1 0x40 MLOAD SWAP1 DUP2 ADD PUSH1 0x40 MSTORE DUP1 SWAP3 SWAP2 SWAP1 DUP2 DUP2 MSTORE PUSH1 0x20 ADD DUP3 DUP1 SLOAD PUSH2 0x89A SWAP1 PUSH2 0x1C20 JUMP JUMPDEST DUP1 ISZERO PUSH2 0x8E5 JUMPI DUP1 PUSH1 0x1F LT PUSH2 0x8BC JUMPI PUSH2 0x100 DUP1 DUP4 SLOAD DIV MUL DUP4 MSTORE SWAP2 PUSH1 0x20 ADD SWAP2 PUSH2 0x8E5 JUMP JUMPDEST DUP3 ADD SWAP2 SWAP1 PUSH0 MSTORE PUSH1 0x20 PUSH0 KECCAK256 SWAP1 JUMPDEST DUP2 SLOAD DUP2 MSTORE SWAP1 PUSH1 0x1 ADD SWAP1 PUSH1 0x20 ADD DUP1 DUP4 GT PUSH2 0x8C8 JUMPI DUP3 SWAP1 SUB PUSH1 0x1F AND DUP3 ADD SWAP2 JUMPDEST POP POP POP POP POP SWAP2 POP POP SWAP1 JUMP JUMPDEST PUSH0 PUSH0 PUSH2 0x8FA PUSH2 0xAF0 JUMP JUMPDEST SWAP1 POP PUSH2 0x907 DUP2 DUP6 DUP6 PUSH2 0xB9C JUMP JUMPDEST PUSH1 0x1 SWAP2 POP POP SWAP3 SWAP2 POP POP JUMP JUMPDEST PUSH0 PUSH0 PUSH2 0x91C PUSH2 0xAC9 JUMP JUMPDEST SWAP1 POP DUP1 PUSH1 0x1 ADD PUSH0 DUP6 PUSH20 0xFFFFFFFFFFFFFFFFFFFFFFFFFFFFFFFFFFFFFFFF AND PUSH20 0xFFFFFFFFFFFFFFFFFFFFFFFFFFFFFFFFFFFFFFFF AND DUP2 MSTORE PUSH1 0x20 ADD SWAP1 DUP2 MSTORE PUSH1 0x20 ADD PUSH0 KECCAK256 PUSH0 DUP5 PUSH20 0xFFFFFFFFFFFFFFFFFFFFFFFFFFFFFFFFFFFFFFFF AND PUSH20 0xFFFFFFFFFFFFFFFFFFFFFFFFFFFFFFFFFFFFFFFF AND DUP2 MSTORE PUSH1 0x20 ADD SWAP1 DUP2 MSTORE PUSH1 0x20 ADD PUSH0 KECCAK256 SLOAD SWAP2 POP POP SWAP3 SWAP2 POP POP JUMP JUMPDEST PUSH0 PUSH0 PUSH2 0x9AC PUSH2 0xF6A JUMP JUMPDEST SWAP1 POP DUP1 PUSH0 ADD PUSH0 SWAP1 SLOAD SWAP1 PUSH2 0x100 EXP SWAP1 DIV PUSH20 0xFFFFFFFFFFFFFFFFFFFFFFFFFFFFFFFFFFFFFFFF AND SWAP2 POP POP SWAP1 JUMP JUMPDEST PUSH2 0x9DF PUSH2 0xD95 JUMP JUMPDEST PUSH0 PUSH2 0x9E8 PUSH2 0xF6A JUMP JUMPDEST SWAP1 POP DUP2 DUP2 PUSH0 ADD PUSH0 PUSH2 0x100 EXP DUP2 SLOAD DUP2 PUSH20 0xFFFFFFFFFFFFFFFFFFFFFFFFFFFFFFFFFFFFFFFF MUL NOT AND SWAP1 DUP4 PUSH20 0xFFFFFFFFFFFFFFFFFFFFFFFFFFFFFFFFFFFFFFFF AND MUL OR SWAP1 SSTORE POP DUP2 PUSH20 0xFFFFFFFFFFFFFFFFFFFFFFFFFFFFFFFFFFFFFFFF AND PUSH2 0xA4A PUSH2 0x81D JUMP JUMPDEST PUSH20 0xFFFFFFFFFFFFFFFFFFFFFFFFFFFFFFFFFFFFFFFF AND PUSH32 0x38D16B8CAC22D99FC7C124B9CD0DE2D3FA1FAEF420BFE791D8C362D765E22700 PUSH1 0x40 MLOAD PUSH1 0x40 MLOAD DUP1 SWAP2 SUB SWAP1 LOG3 POP POP JUMP JUMPDEST PUSH1 0x40 MLOAD DUP1 PUSH1 0x40 ADD PUSH1 0x40 MSTORE DUP1 PUSH1 0x3 DUP2 MSTORE PUSH1 0x20 ADD PUSH32 0x322E300000000000000000000000000000000000000000000000000000000000 DUP2 MSTORE POP DUP2 JUMP JUMPDEST PUSH0 PUSH32 0x52C63247E1F47DB19D5CE0460030C497F067CA4CEBF71BA98EEADABE20BACE00 SWAP1 POP SWAP1 JUMP JUMPDEST PUSH0 CALLER SWAP1 POP SWAP1 JUMP JUMPDEST PUSH2 0xB04 DUP4 DUP4 DUP4 PUSH1 0x1 PUSH2 0xF91 JUMP JUMPDEST POP POP POP JUMP JUMPDEST PUSH0 PUSH2 0xB14 DUP5 DUP5 PUSH2 0x912 JUMP JUMPDEST SWAP1 POP PUSH32 0xFFFFFFFFFFFFFFFFFFFFFFFFFFFFFFFFFFFFFFFFFFFFFFFFFFFFFFFFFFFFFFFF DUP2 LT ISZERO PUSH2 0xB96 JUMPI DUP2 DUP2 LT ISZERO PUSH2 0xB87 JUMPI DUP3 DUP2 DUP4 PUSH1 0x40 MLOAD PUSH32 0xFB8F41B200000000000000000000000000000000000000000000000000000000 DUP2 MSTORE PUSH1 0x4 ADD PUSH2 0xB7E SWAP4 SWAP3 SWAP2 SWAP1 PUSH2 0x1EA5 JUMP JUMPDEST PUSH1 0x40 MLOAD DUP1 SWAP2 SUB SWAP1 REVERT JUMPDEST PUSH2 0xB95 DUP5 DUP5 DUP5 DUP5 SUB PUSH0 PUSH2 0xF91 JUMP JUMPDEST JUMPDEST POP POP POP POP JUMP JUMPDEST PUSH0 PUSH20 0xFFFFFFFFFFFFFFFFFFFFFFFFFFFFFFFFFFFFFFFF AND DUP4 PUSH20 0xFFFFFFFFFFFFFFFFFFFFFFFFFFFFFFFFFFFFFFFF AND SUB PUSH2 0xC0C JUMPI PUSH0 PUSH1 0x40 MLOAD PUSH32 0x96C6FD1E00000000000000000000000000000000000000000000000000000000 DUP2 MSTORE PUSH1 0x4 ADD PUSH2 0xC03 SWAP2 SWAP1 PUSH2 0x1B9C JUMP JUMPDEST PUSH1 0x40 MLOAD DUP1 SWAP2 SUB SWAP1 REVERT JUMPDEST PUSH0 PUSH20 0xFFFFFFFFFFFFFFFFFFFFFFFFFFFFFFFFFFFFFFFF AND DUP3 PUSH20 0xFFFFFFFFFFFFFFFFFFFFFFFFFFFFFFFFFFFFFFFF AND SUB PUSH2 0xC7C JUMPI PUSH0 PUSH1 0x40 MLOAD PUSH32 0xEC442F0500000000000000000000000000000000000000000000000000000000 DUP2 MSTORE PUSH1 0x4 ADD PUSH2 0xC73 SWAP2 SWAP1 PUSH2 0x1B9C JUMP JUMPDEST PUSH1 0x40 MLOAD DUP1 SWAP2 SUB SWAP1 REVERT JUMPDEST PUSH2 0xC87 DUP4 DUP4 DUP4 PUSH2 0x116E JUMP JUMPDEST POP POP POP JUMP JUMPDEST PUSH0 PUSH0 PUSH2 0xC96 PUSH2 0x117E JUMP JUMPDEST SWAP1 POP DUP1 SWAP2 POP POP SWAP1 JUMP JUMPDEST PUSH2 0xCA7 PUSH2 0x11A7 JUMP JUMPDEST PUSH2 0xCB1 DUP3 DUP3 PUSH2 0x11E7 JUMP JUMPDEST POP POP JUMP JUMPDEST PUSH2 0xCBD PUSH2 0x11A7 JUMP JUMPDEST PUSH2 0xCC6 DUP2 PUSH2 0x1223 JUMP JUMPDEST POP JUMP JUMPDEST PUSH2 0xCD1 PUSH2 0x11A7 JUMP JUMPDEST PUSH2 0xCDA DUP2 PUSH2 0x1286 JUMP JUMPDEST POP JUMP JUMPDEST PUSH2 0xCE5 PUSH2 0x11A7 JUMP JUMPDEST PUSH2 0xCED PUSH2 0x130A JUMP JUMPDEST JUMP JUMPDEST PUSH0 PUSH20 0xFFFFFFFFFFFFFFFFFFFFFFFFFFFFFFFFFFFFFFFF AND DUP3 PUSH20 0xFFFFFFFFFFFFFFFFFFFFFFFFFFFFFFFFFFFFFFFF AND SUB PUSH2 0xD5F JUMPI PUSH0 PUSH1 0x40 MLOAD PUSH32 0xEC442F0500000000000000000000000000000000000000000000000000000000 DUP2 MSTORE PUSH1 0x4 ADD PUSH2 0xD56 SWAP2 SWAP1 PUSH2 0x1B9C JUMP JUMPDEST PUSH1 0x40 MLOAD DUP1 SWAP2 SUB SWAP1 REVERT JUMPDEST PUSH2 0xD6A PUSH0 DUP4 DUP4 PUSH2 0x116E JUMP JUMPDEST POP POP JUMP JUMPDEST PUSH0 PUSH32 0xF070392F17D5F958CC1AC31867DABECFC5C9758B4A419A200803226D7155D00 SWAP1 POP SWAP1 JUMP JUMPDEST PUSH2 0xD9D PUSH2 0xAF0 JUMP JUMPDEST PUSH20 0xFFFFFFFFFFFFFFFFFFFFFFFFFFFFFFFFFFFFFFFF AND PUSH2 0xDBB PUSH2 0x81D JUMP JUMPDEST PUSH20 0xFFFFFFFFFFFFFFFFFFFFFFFFFFFFFFFFFFFFFFFF AND EQ PUSH2 0xE1A JUMPI PUSH2 0xDDE PUSH2 0xAF0 JUMP JUMPDEST PUSH1 0x40 MLOAD PUSH32 0x118CDAA700000000000000000000000000000000000000000000000000000000 DUP2 MSTORE PUSH1 0x4 ADD PUSH2 0xE11 SWAP2 SWAP1 PUSH2 0x1B9C JUMP JUMPDEST PUSH1 0x40 MLOAD DUP1 SWAP2 SUB SWAP1 REVERT JUMPDEST JUMP JUMPDEST PUSH0 PUSH2 0xE25 PUSH2 0x1329 JUMP JUMPDEST SWAP1 POP PUSH1 0x2 DUP2 PUSH0 ADD SLOAD SUB PUSH2 0xE64 JUMPI PUSH1 0x40 MLOAD PUSH32 0x3EE5AEB500000000000000000000000000000000000000000000000000000000 DUP2 MSTORE PUSH1 0x4 ADD PUSH1 0x40 MLOAD DUP1 SWAP2 SUB SWAP1 REVERT JUMPDEST PUSH1 0x2 DUP2 PUSH0 ADD DUP2 SWAP1 SSTORE POP POP JUMP JUMPDEST PUSH0 PUSH2 0xE79 PUSH2 0x1329 JUMP JUMPDEST SWAP1 POP PUSH1 0x1 DUP2 PUSH0 ADD DUP2 SWAP1 SSTORE POP POP JUMP JUMPDEST PUSH0 PUSH20 0xFFFFFFFFFFFFFFFFFFFFFFFFFFFFFFFFFFFFFFFF AND DUP3 PUSH20 0xFFFFFFFFFFFFFFFFFFFFFFFFFFFFFFFFFFFFFFFF AND SUB PUSH2 0xEF7 JUMPI PUSH0 PUSH1 0x40 MLOAD PUSH32 0x96C6FD1E00000000000000000000000000000000000000000000000000000000 DUP2 MSTORE PUSH1 0x4 ADD PUSH2 0xEEE SWAP2 SWAP1 PUSH2 0x1B9C JUMP JUMPDEST PUSH1 0x40 MLOAD DUP1 SWAP2 SUB SWAP1 REVERT JUMPDEST PUSH2 0xF02 DUP3 PUSH0 DUP4 PUSH2 0x116E JUMP JUMPDEST POP POP JUMP JUMPDEST PUSH0 PUSH2 0xF0F PUSH2 0xF6A JUMP JUMPDEST SWAP1 POP DUP1 PUSH0 ADD PUSH0 PUSH2 0x100 EXP DUP2 SLOAD SWAP1 PUSH20 0xFFFFFFFFFFFFFFFFFFFFFFFFFFFFFFFFFFFFFFFF MUL NOT AND SWAP1 SSTORE PUSH2 0xF3F DUP3 PUSH2 0x1350 JUMP JUMPDEST POP POP JUMP JUMPDEST PUSH0 PUSH32 0x9016D09D72D40FDAE2FD8CEAC6B6234C7706214FD39C1CD1E609A0528C199300 SWAP1 POP SWAP1 JUMP JUMPDEST PUSH0 PUSH32 0x237E158222E3E6968B72B9DB0D8043AACF074AD9F650F0D1606B4D82EE432C00 SWAP1 POP SWAP1 JUMP JUMPDEST PUSH0 PUSH2 0xF9A PUSH2 0xAC9 JUMP JUMPDEST SWAP1 POP PUSH0 PUSH20 0xFFFFFFFFFFFFFFFFFFFFFFFFFFFFFFFFFFFFFFFF AND DUP6 PUSH20 0xFFFFFFFFFFFFFFFFFFFFFFFFFFFFFFFFFFFFFFFF AND SUB PUSH2 0x100C JUMPI PUSH0 PUSH1 0x40 MLOAD PUSH32 0xE602DF0500000000000000000000000000000000000000000000000000000000 DUP2 MSTORE PUSH1 0x4 ADD PUSH2 0x1003 SWAP2 SWAP1 PUSH2 0x1B9C JUMP JUMPDEST PUSH1 0x40 MLOAD DUP1 SWAP2 SUB SWAP1 REVERT JUMPDEST PUSH0 PUSH20 0xFFFFFFFFFFFFFFFFFFFFFFFFFFFFFFFFFFFFFFFF AND DUP5 PUSH20 0xFFFFFFFFFFFFFFFFFFFFFFFFFFFFFFFFFFFFFFFF AND SUB PUSH2 0x107C JUMPI PUSH0 PUSH1 0x40 MLOAD PUSH32 0x94280D6200000000000000000000000000000000000000000000000000000000 DUP2 MSTORE PUSH1 0x4 ADD PUSH2 0x1073 SWAP2 SWAP1 PUSH2 0x1B9C JUMP JUMPDEST PUSH1 0x40 MLOAD DUP1 SWAP2 SUB SWAP1 REVERT JUMPDEST DUP3 DUP2 PUSH1 0x1 ADD PUSH0 DUP8 PUSH20 0xFFFFFFFFFFFFFFFFFFFFFFFFFFFFFFFFFFFFFFFF AND PUSH20 0xFFFFFFFFFFFFFFFFFFFFFFFFFFFFFFFFFFFFFFFF AND DUP2 MSTORE PUSH1 0x20 ADD SWAP1 DUP2 MSTORE PUSH1 0x20 ADD PUSH0 KECCAK256 PUSH0 DUP7 PUSH20 0xFFFFFFFFFFFFFFFFFFFFFFFFFFFFFFFFFFFFFFFF AND PUSH20 0xFFFFFFFFFFFFFFFFFFFFFFFFFFFFFFFFFFFFFFFF AND DUP2 MSTORE PUSH1 0x20 ADD SWAP1 DUP2 MSTORE PUSH1 0x20 ADD PUSH0 KECCAK256 DUP2 SWAP1 SSTORE POP DUP2 ISZERO PUSH2 0x1167 JUMPI DUP4 PUSH20 0xFFFFFFFFFFFFFFFFFFFFFFFFFFFFFFFFFFFFFFFF AND DUP6 PUSH20 0xFFFFFFFFFFFFFFFFFFFFFFFFFFFFFFFFFFFFFFFF AND PUSH32 0x8C5BE1E5EBEC7D5BD14F71427D1E84F3DD0314C0F7B2291E5B200AC8C7C3B925 DUP6 PUSH1 0x40 MLOAD PUSH2 0x115E SWAP2 SWAP1 PUSH2 0x18BF JUMP JUMPDEST PUSH1 0x40 MLOAD DUP1 SWAP2 SUB SWAP1 LOG3 JUMPDEST POP POP POP POP POP JUMP JUMPDEST PUSH2 0x1179 DUP4 DUP4 DUP4 PUSH2 0x1421 JUMP JUMPDEST POP POP POP JUMP JUMPDEST PUSH0 PUSH32 0xF0C57E16840DF040F15088DC2F81FE391C3923BEC73E23A9662EFC9C229C6A00 PUSH0 SHL SWAP1 POP SWAP1 JUMP JUMPDEST PUSH2 0x11AF PUSH2 0x14C4 JUMP JUMPDEST PUSH2 0x11E5 JUMPI PUSH1 0x40 MLOAD PUSH32 0xD7E6BCF800000000000000000000000000000000000000000000000000000000 DUP2 MSTORE PUSH1 0x4 ADD PUSH1 0x40 MLOAD DUP1 SWAP2 SUB SWAP1 REVERT JUMPDEST JUMP JUMPDEST PUSH2 0x11EF PUSH2 0x11A7 JUMP JUMPDEST PUSH0 PUSH2 0x11F8 PUSH2 0xAC9 JUMP JUMPDEST SWAP1 POP DUP3 DUP2 PUSH1 0x3 ADD SWAP1 DUP2 PUSH2 0x120B SWAP2 SWAP1 PUSH2 0x2071 JUMP JUMPDEST POP DUP2 DUP2 PUSH1 0x4 ADD SWAP1 DUP2 PUSH2 0x121D SWAP2 SWAP1 PUSH2 0x2071 JUMP JUMPDEST POP POP POP POP JUMP JUMPDEST PUSH2 0x122B PUSH2 0x11A7 JUMP JUMPDEST PUSH0 PUSH2 0x1234 PUSH2 0xD6E JUMP JUMPDEST SWAP1 POP PUSH0 DUP3 SUB PUSH2 0x127A JUMPI PUSH0 PUSH1 0x40 MLOAD PUSH32 0x392E1E2700000000000000000000000000000000000000000000000000000000 DUP2 MSTORE PUSH1 0x4 ADD PUSH2 0x1271 SWAP2 SWAP1 PUSH2 0x2179 JUMP JUMPDEST PUSH1 0x40 MLOAD DUP1 SWAP2 SUB SWAP1 REVERT JUMPDEST DUP2 DUP2 PUSH0 ADD DUP2 SWAP1 SSTORE POP POP POP JUMP JUMPDEST PUSH2 0x128E PUSH2 0x11A7 JUMP JUMPDEST PUSH0 PUSH20 0xFFFFFFFFFFFFFFFFFFFFFFFFFFFFFFFFFFFFFFFF AND DUP2 PUSH20 0xFFFFFFFFFFFFFFFFFFFFFFFFFFFFFFFFFFFFFFFF AND SUB PUSH2 0x12FE JUMPI PUSH0 PUSH1 0x40 MLOAD PUSH32 0x1E4FBDF700000000000000000000000000000000000000000000000000000000 DUP2 MSTORE PUSH1 0x4 ADD PUSH2 0x12F5 SWAP2 SWAP1 PUSH2 0x1B9C JUMP JUMPDEST PUSH1 0x40 MLOAD DUP1 SWAP2 SUB SWAP1 REVERT JUMPDEST PUSH2 0x1307 DUP2 PUSH2 0xF06 JUMP JUMPDEST POP JUMP JUMPDEST PUSH2 0x1312 PUSH2 0x11A7 JUMP JUMPDEST PUSH0 PUSH2 0x131B PUSH2 0x1329 JUMP JUMPDEST SWAP1 POP PUSH1 0x1 DUP2 PUSH0 ADD DUP2 SWAP1 SSTORE POP POP JUMP JUMPDEST PUSH0 PUSH32 0x9B779B17422D0DF92223018B32B4D1FA46E071723D6817E2486D003BECC55F00 SWAP1 POP SWAP1 JUMP JUMPDEST PUSH0 PUSH2 0x1359 PUSH2 0xF43 JUMP JUMPDEST SWAP1 POP PUSH0 DUP2 PUSH0 ADD PUSH0 SWAP1 SLOAD SWAP1 PUSH2 0x100 EXP SWAP1 DIV PUSH20 0xFFFFFFFFFFFFFFFFFFFFFFFFFFFFFFFFFFFFFFFF AND SWAP1 POP DUP3 DUP3 PUSH0 ADD PUSH0 PUSH2 0x100 EXP DUP2 SLOAD DUP2 PUSH20 0xFFFFFFFFFFFFFFFFFFFFFFFFFFFFFFFFFFFFFFFF MUL NOT AND SWAP1 DUP4 PUSH20 0xFFFFFFFFFFFFFFFFFFFFFFFFFFFFFFFFFFFFFFFF AND MUL OR SWAP1 SSTORE POP DUP3 PUSH20 0xFFFFFFFFFFFFFFFFFFFFFFFFFFFFFFFFFFFFFFFF AND DUP2 PUSH20 0xFFFFFFFFFFFFFFFFFFFFFFFFFFFFFFFFFFFFFFFF AND PUSH32 0x8BE0079C531659141344CD1FD0A4F28419497F9722A3DAAFE3B4186F6B6457E0 PUSH1 0x40 MLOAD PUSH1 0x40 MLOAD DUP1 SWAP2 SUB SWAP1 LOG3 POP POP POP JUMP JUMPDEST PUSH2 0x142C DUP4 DUP4 DUP4 PUSH2 0x14E2 JUMP JUMPDEST PUSH0 PUSH20 0xFFFFFFFFFFFFFFFFFFFFFFFFFFFFFFFFFFFFFFFF AND DUP4 PUSH20 0xFFFFFFFFFFFFFFFFFFFFFFFFFFFFFFFFFFFFFFFF AND SUB PUSH2 0x14BF JUMPI PUSH0 PUSH2 0x1468 PUSH2 0x6A3 JUMP JUMPDEST SWAP1 POP PUSH0 PUSH2 0x1473 PUSH2 0x470 JUMP JUMPDEST SWAP1 POP DUP2 DUP2 GT ISZERO PUSH2 0x14BC JUMPI DUP1 DUP3 PUSH1 0x40 MLOAD PUSH32 0x9E79F85400000000000000000000000000000000000000000000000000000000 DUP2 MSTORE PUSH1 0x4 ADD PUSH2 0x14B3 SWAP3 SWAP2 SWAP1 PUSH2 0x2192 JUMP JUMPDEST PUSH1 0x40 MLOAD DUP1 SWAP2 SUB SWAP1 REVERT JUMPDEST POP POP JUMPDEST POP POP POP JUMP JUMPDEST PUSH0 PUSH2 0x14CD PUSH2 0xC8C JUMP JUMPDEST PUSH0 ADD PUSH1 0x8 SWAP1 SLOAD SWAP1 PUSH2 0x100 EXP SWAP1 DIV PUSH1 0xFF AND SWAP1 POP SWAP1 JUMP JUMPDEST PUSH0 PUSH2 0x14EB PUSH2 0xAC9 JUMP JUMPDEST SWAP1 POP PUSH0 PUSH20 0xFFFFFFFFFFFFFFFFFFFFFFFFFFFFFFFFFFFFFFFF AND DUP5 PUSH20 0xFFFFFFFFFFFFFFFFFFFFFFFFFFFFFFFFFFFFFFFF AND SUB PUSH2 0x153F JUMPI DUP2 DUP2 PUSH1 0x2 ADD PUSH0 DUP3 DUP3 SLOAD PUSH2 0x1533 SWAP2 SWAP1 PUSH2 0x21B9 JUMP JUMPDEST SWAP3 POP POP DUP2 SWAP1 SSTORE POP PUSH2 0x1611 JUMP JUMPDEST PUSH0 DUP2 PUSH0 ADD PUSH0 DUP7 PUSH20 0xFFFFFFFFFFFFFFFFFFFFFFFFFFFFFFFFFFFFFFFF AND PUSH20 0xFFFFFFFFFFFFFFFFFFFFFFFFFFFFFFFFFFFFFFFF AND DUP2 MSTORE PUSH1 0x20 ADD SWAP1 DUP2 MSTORE PUSH1 0x20 ADD PUSH0 KECCAK256 SLOAD SWAP1 POP DUP3 DUP2 LT ISZERO PUSH2 0x15CA JUMPI DUP5 DUP2 DUP5 PUSH1 0x40 MLOAD PUSH32 0xE450D38C00000000000000000000000000000000000000000000000000000000 DUP2 MSTORE PUSH1 0x4 ADD PUSH2 0x15C1 SWAP4 SWAP3 SWAP2 SWAP1 PUSH2 0x1EA5 JUMP JUMPDEST PUSH1 0x40 MLOAD DUP1 SWAP2 SUB SWAP1 REVERT JUMPDEST DUP3 DUP2 SUB DUP3 PUSH0 ADD PUSH0 DUP8 PUSH20 0xFFFFFFFFFFFFFFFFFFFFFFFFFFFFFFFFFFFFFFFF AND PUSH20 0xFFFFFFFFFFFFFFFFFFFFFFFFFFFFFFFFFFFFFFFF AND DUP2 MSTORE PUSH1 0x20 ADD SWAP1 DUP2 MSTORE PUSH1 0x20 ADD PUSH0 KECCAK256 DUP2 SWAP1 SSTORE POP POP JUMPDEST PUSH0 PUSH20 0xFFFFFFFFFFFFFFFFFFFFFFFFFFFFFFFFFFFFFFFF AND DUP4 PUSH20 0xFFFFFFFFFFFFFFFFFFFFFFFFFFFFFFFFFFFFFFFF AND SUB PUSH2 0x165A JUMPI DUP2 DUP2 PUSH1 0x2 ADD PUSH0 DUP3 DUP3 SLOAD SUB SWAP3 POP POP DUP2 SWAP1 SSTORE POP PUSH2 0x16A6 JUMP JUMPDEST DUP2 DUP2 PUSH0 ADD PUSH0 DUP6 PUSH20 0xFFFFFFFFFFFFFFFFFFFFFFFFFFFFFFFFFFFFFFFF AND PUSH20 0xFFFFFFFFFFFFFFFFFFFFFFFFFFFFFFFFFFFFFFFF AND DUP2 MSTORE PUSH1 0x20 ADD SWAP1 DUP2 MSTORE PUSH1 0x20 ADD PUSH0 KECCAK256 PUSH0 DUP3 DUP3 SLOAD ADD SWAP3 POP POP DUP2 SWAP1 SSTORE POP JUMPDEST DUP3 PUSH20 0xFFFFFFFFFFFFFFFFFFFFFFFFFFFFFFFFFFFFFFFF AND DUP5 PUSH20 0xFFFFFFFFFFFFFFFFFFFFFFFFFFFFFFFFFFFFFFFF AND PUSH32 0xDDF252AD1BE2C89B69C2B068FC378DAA952BA7F163C4A11628F55A4DF523B3EF DUP5 PUSH1 0x40 MLOAD PUSH2 0x1703 SWAP2 SWAP1 PUSH2 0x18BF JUMP JUMPDEST PUSH1 0x40 MLOAD DUP1 SWAP2 SUB SWAP1 LOG3 POP POP POP POP JUMP JUMPDEST PUSH0 DUP2 MLOAD SWAP1 POP SWAP2 SWAP1 POP JUMP JUMPDEST PUSH0 DUP3 DUP3 MSTORE PUSH1 0x20 DUP3 ADD SWAP1 POP SWAP3 SWAP2 POP POP JUMP JUMPDEST DUP3 DUP2 DUP4 MCOPY PUSH0 DUP4 DUP4 ADD MSTORE POP POP POP JUMP JUMPDEST PUSH0 PUSH1 0x1F NOT PUSH1 0x1F DUP4 ADD AND SWAP1 POP SWAP2 SWAP1 POP JUMP JUMPDEST PUSH0 PUSH2 0x1753 DUP3 PUSH2 0x1711 JUMP JUMPDEST PUSH2 0x175D DUP2 DUP6 PUSH2 0x171B JUMP JUMPDEST SWAP4 POP PUSH2 0x176D DUP2 DUP6 PUSH1 0x20 DUP7 ADD PUSH2 0x172B JUMP JUMPDEST PUSH2 0x1776 DUP2 PUSH2 0x1739 JUMP JUMPDEST DUP5 ADD SWAP2 POP POP SWAP3 SWAP2 POP POP JUMP JUMPDEST PUSH0 PUSH1 0x20 DUP3 ADD SWAP1 POP DUP2 DUP2 SUB PUSH0 DUP4 ADD MSTORE PUSH2 0x1799 DUP2 DUP5 PUSH2 0x1749 JUMP JUMPDEST SWAP1 POP SWAP3 SWAP2 POP POP JUMP JUMPDEST PUSH0 PUSH1 0x40 MLOAD SWAP1 POP SWAP1 JUMP JUMPDEST PUSH0 PUSH0 REVERT JUMPDEST PUSH0 PUSH0 REVERT JUMPDEST PUSH0 PUSH20 0xFFFFFFFFFFFFFFFFFFFFFFFFFFFFFFFFFFFFFFFF DUP3 AND SWAP1 POP SWAP2 SWAP1 POP JUMP JUMPDEST PUSH0 PUSH2 0x17DB DUP3 PUSH2 0x17B2 JUMP JUMPDEST SWAP1 POP SWAP2 SWAP1 POP JUMP JUMPDEST PUSH2 0x17EB DUP2 PUSH2 0x17D1 JUMP JUMPDEST DUP2 EQ PUSH2 0x17F5 JUMPI PUSH0 PUSH0 REVERT JUMPDEST POP JUMP JUMPDEST PUSH0 DUP2 CALLDATALOAD SWAP1 POP PUSH2 0x1806 DUP2 PUSH2 0x17E2 JUMP JUMPDEST SWAP3 SWAP2 POP POP JUMP JUMPDEST PUSH0 DUP2 SWAP1 POP SWAP2 SWAP1 POP JUMP JUMPDEST PUSH2 0x181E DUP2 PUSH2 0x180C JUMP JUMPDEST DUP2 EQ PUSH2 0x1828 JUMPI PUSH0 PUSH0 REVERT JUMPDEST POP JUMP JUMPDEST PUSH0 DUP2 CALLDATALOAD SWAP1 POP PUSH2 0x1839 DUP2 PUSH2 0x1815 JUMP JUMPDEST SWAP3 SWAP2 POP POP JUMP JUMPDEST PUSH0 PUSH0 PUSH1 0x40 DUP4 DUP6 SUB SLT ISZERO PUSH2 0x1855 JUMPI PUSH2 0x1854 PUSH2 0x17AA JUMP JUMPDEST JUMPDEST PUSH0 PUSH2 0x1862 DUP6 DUP3 DUP7 ADD PUSH2 0x17F8 JUMP JUMPDEST SWAP3 POP POP PUSH1 0x20 PUSH2 0x1873 DUP6 DUP3 DUP7 ADD PUSH2 0x182B JUMP JUMPDEST SWAP2 POP POP SWAP3 POP SWAP3 SWAP1 POP JUMP JUMPDEST PUSH0 DUP2 ISZERO ISZERO SWAP1 POP SWAP2 SWAP1 POP JUMP JUMPDEST PUSH2 0x1891 DUP2 PUSH2 0x187D JUMP JUMPDEST DUP3 MSTORE POP POP JUMP JUMPDEST PUSH0 PUSH1 0x20 DUP3 ADD SWAP1 POP PUSH2 0x18AA PUSH0 DUP4 ADD DUP5 PUSH2 0x1888 JUMP JUMPDEST SWAP3 SWAP2 POP POP JUMP JUMPDEST PUSH2 0x18B9 DUP2 PUSH2 0x180C JUMP JUMPDEST DUP3 MSTORE POP POP JUMP JUMPDEST PUSH0 PUSH1 0x20 DUP3 ADD SWAP1 POP PUSH2 0x18D2 PUSH0 DUP4 ADD DUP5 PUSH2 0x18B0 JUMP JUMPDEST SWAP3 SWAP2 POP POP JUMP JUMPDEST PUSH0 PUSH0 PUSH0 PUSH1 0x60 DUP5 DUP7 SUB SLT ISZERO PUSH2 0x18EF JUMPI PUSH2 0x18EE PUSH2 0x17AA JUMP JUMPDEST JUMPDEST PUSH0 PUSH2 0x18FC DUP7 DUP3 DUP8 ADD PUSH2 0x17F8 JUMP JUMPDEST SWAP4 POP POP PUSH1 0x20 PUSH2 0x190D DUP7 DUP3 DUP8 ADD PUSH2 0x17F8 JUMP JUMPDEST SWAP3 POP POP PUSH1 0x40 PUSH2 0x191E DUP7 DUP3 DUP8 ADD PUSH2 0x182B JUMP JUMPDEST SWAP2 POP POP SWAP3 POP SWAP3 POP SWAP3 JUMP JUMPDEST PUSH0 PUSH1 0xFF DUP3 AND SWAP1 POP SWAP2 SWAP1 POP JUMP JUMPDEST PUSH2 0x193D DUP2 PUSH2 0x1928 JUMP JUMPDEST DUP3 MSTORE POP POP JUMP JUMPDEST PUSH0 PUSH1 0x20 DUP3 ADD SWAP1 POP PUSH2 0x1956 PUSH0 DUP4 ADD DUP5 PUSH2 0x1934 JUMP JUMPDEST SWAP3 SWAP2 POP POP JUMP JUMPDEST PUSH0 PUSH0 REVERT JUMPDEST PUSH0 PUSH0 REVERT JUMPDEST PUSH32 0x4E487B7100000000000000000000000000000000000000000000000000000000 PUSH0 MSTORE PUSH1 0x41 PUSH1 0x4 MSTORE PUSH1 0x24 PUSH0 REVERT JUMPDEST PUSH2 0x199A DUP3 PUSH2 0x1739 JUMP JUMPDEST DUP2 ADD DUP2 DUP2 LT PUSH8 0xFFFFFFFFFFFFFFFF DUP3 GT OR ISZERO PUSH2 0x19B9 JUMPI PUSH2 0x19B8 PUSH2 0x1964 JUMP JUMPDEST JUMPDEST DUP1 PUSH1 0x40 MSTORE POP POP POP JUMP JUMPDEST PUSH0 PUSH2 0x19CB PUSH2 0x17A1 JUMP JUMPDEST SWAP1 POP PUSH2 0x19D7 DUP3 DUP3 PUSH2 0x1991 JUMP JUMPDEST SWAP2 SWAP1 POP JUMP JUMPDEST PUSH0 PUSH8 0xFFFFFFFFFFFFFFFF DUP3 GT ISZERO PUSH2 0x19F6 JUMPI PUSH2 0x19F5 PUSH2 0x1964 JUMP JUMPDEST JUMPDEST PUSH2 0x19FF DUP3 PUSH2 0x1739 JUMP JUMPDEST SWAP1 POP PUSH1 0x20 DUP2 ADD SWAP1 POP SWAP2 SWAP1 POP JUMP JUMPDEST DUP3 DUP2 DUP4 CALLDATACOPY PUSH0 DUP4 DUP4 ADD MSTORE POP POP POP JUMP JUMPDEST PUSH0 PUSH2 0x1A2C PUSH2 0x1A27 DUP5 PUSH2 0x19DC JUMP JUMPDEST PUSH2 0x19C2 JUMP JUMPDEST SWAP1 POP DUP3 DUP2 MSTORE PUSH1 0x20 DUP2 ADD DUP5 DUP5 DUP5 ADD GT ISZERO PUSH2 0x1A48 JUMPI PUSH2 0x1A47 PUSH2 0x1960 JUMP JUMPDEST JUMPDEST PUSH2 0x1A53 DUP5 DUP3 DUP6 PUSH2 0x1A0C JUMP JUMPDEST POP SWAP4 SWAP3 POP POP POP JUMP JUMPDEST PUSH0 DUP3 PUSH1 0x1F DUP4 ADD SLT PUSH2 0x1A6F JUMPI PUSH2 0x1A6E PUSH2 0x195C JUMP JUMPDEST JUMPDEST DUP2 CALLDATALOAD PUSH2 0x1A7F DUP5 DUP3 PUSH1 0x20 DUP7 ADD PUSH2 0x1A1A JUMP JUMPDEST SWAP2 POP POP SWAP3 SWAP2 POP POP JUMP JUMPDEST PUSH0 PUSH0 PUSH0 PUSH0 PUSH0 PUSH1 0xA0 DUP7 DUP9 SUB SLT ISZERO PUSH2 0x1AA1 JUMPI PUSH2 0x1AA0 PUSH2 0x17AA JUMP JUMPDEST JUMPDEST PUSH0 DUP7 ADD CALLDATALOAD PUSH8 0xFFFFFFFFFFFFFFFF DUP2 GT ISZERO PUSH2 0x1ABE JUMPI PUSH2 0x1ABD PUSH2 0x17AE JUMP JUMPDEST JUMPDEST PUSH2 0x1ACA DUP9 DUP3 DUP10 ADD PUSH2 0x1A5B JUMP JUMPDEST SWAP6 POP POP PUSH1 0x20 DUP7 ADD CALLDATALOAD PUSH8 0xFFFFFFFFFFFFFFFF DUP2 GT ISZERO PUSH2 0x1AEB JUMPI PUSH2 0x1AEA PUSH2 0x17AE JUMP JUMPDEST JUMPDEST PUSH2 0x1AF7 DUP9 DUP3 DUP10 ADD PUSH2 0x1A5B JUMP JUMPDEST SWAP5 POP POP PUSH1 0x40 PUSH2 0x1B08 DUP9 DUP3 DUP10 ADD PUSH2 0x182B JUMP JUMPDEST SWAP4 POP POP PUSH1 0x60 PUSH2 0x1B19 DUP9 DUP3 DUP10 ADD PUSH2 0x182B JUMP JUMPDEST SWAP3 POP POP PUSH1 0x80 PUSH2 0x1B2A DUP9 DUP3 DUP10 ADD PUSH2 0x17F8 JUMP JUMPDEST SWAP2 POP POP SWAP3 SWAP6 POP SWAP3 SWAP6 SWAP1 SWAP4 POP JUMP JUMPDEST PUSH0 PUSH1 0x20 DUP3 DUP5 SUB SLT ISZERO PUSH2 0x1B4C JUMPI PUSH2 0x1B4B PUSH2 0x17AA JUMP JUMPDEST JUMPDEST PUSH0 PUSH2 0x1B59 DUP5 DUP3 DUP6 ADD PUSH2 0x182B JUMP JUMPDEST SWAP2 POP POP SWAP3 SWAP2 POP POP JUMP JUMPDEST PUSH0 PUSH1 0x20 DUP3 DUP5 SUB SLT ISZERO PUSH2 0x1B77 JUMPI PUSH2 0x1B76 PUSH2 0x17AA JUMP JUMPDEST JUMPDEST PUSH0 PUSH2 0x1B84 DUP5 DUP3 DUP6 ADD PUSH2 0x17F8 JUMP JUMPDEST SWAP2 POP POP SWAP3 SWAP2 POP POP JUMP JUMPDEST PUSH2 0x1B96 DUP2 PUSH2 0x17D1 JUMP JUMPDEST DUP3 MSTORE POP POP JUMP JUMPDEST PUSH0 PUSH1 0x20 DUP3 ADD SWAP1 POP PUSH2 0x1BAF PUSH0 DUP4 ADD DUP5 PUSH2 0x1B8D JUMP JUMPDEST SWAP3 SWAP2 POP POP JUMP JUMPDEST PUSH0 PUSH0 PUSH1 0x40 DUP4 DUP6 SUB SLT ISZERO PUSH2 0x1BCB JUMPI PUSH2 0x1BCA PUSH2 0x17AA JUMP JUMPDEST JUMPDEST PUSH0 PUSH2 0x1BD8 DUP6 DUP3 DUP7 ADD PUSH2 0x17F8 JUMP JUMPDEST SWAP3 POP POP PUSH1 0x20 PUSH2 0x1BE9 DUP6 DUP3 DUP7 ADD PUSH2 0x17F8 JUMP JUMPDEST SWAP2 POP POP SWAP3 POP SWAP3 SWAP1 POP JUMP JUMPDEST PUSH32 0x4E487B7100000000000000000000000000000000000000000000000000000000 PUSH0 MSTORE PUSH1 0x22 PUSH1 0x4 MSTORE PUSH1 0x24 PUSH0 REVERT JUMPDEST PUSH0 PUSH1 0x2 DUP3 DIV SWAP1 POP PUSH1 0x1 DUP3 AND DUP1 PUSH2 0x1C37 JUMPI PUSH1 0x7F DUP3 AND SWAP2 POP JUMPDEST PUSH1 0x20 DUP3 LT DUP2 SUB PUSH2 0x1C4A JUMPI PUSH2 0x1C49 PUSH2 0x1BF3 JUMP JUMPDEST JUMPDEST POP SWAP2 SWAP1 POP JUMP JUMPDEST PUSH32 0x4E487B7100000000000000000000000000000000000000000000000000000000 PUSH0 MSTORE PUSH1 0x11 PUSH1 0x4 MSTORE PUSH1 0x24 PUSH0 REVERT JUMPDEST PUSH0 DUP2 PUSH1 0x1 SHR SWAP1 POP SWAP2 SWAP1 POP JUMP JUMPDEST PUSH0 PUSH0 DUP3 SWAP2 POP DUP4 SWAP1 POP JUMPDEST PUSH1 0x1 DUP6 GT ISZERO PUSH2 0x1CD2 JUMPI DUP1 DUP7 DIV DUP2 GT ISZERO PUSH2 0x1CAE JUMPI PUSH2 0x1CAD PUSH2 0x1C50 JUMP JUMPDEST JUMPDEST PUSH1 0x1 DUP6 AND ISZERO PUSH2 0x1CBD JUMPI DUP1 DUP3 MUL SWAP2 POP JUMPDEST DUP1 DUP2 MUL SWAP1 POP PUSH2 0x1CCB DUP6 PUSH2 0x1C7D JUMP JUMPDEST SWAP5 POP PUSH2 0x1C92 JUMP JUMPDEST SWAP5 POP SWAP5 SWAP3 POP POP POP JUMP JUMPDEST PUSH0 DUP3 PUSH2 0x1CEA JUMPI PUSH1 0x1 SWAP1 POP PUSH2 0x1DA5 JUMP JUMPDEST DUP2 PUSH2 0x1CF7 JUMPI PUSH0 SWAP1 POP PUSH2 0x1DA5 JUMP JUMPDEST DUP2 PUSH1 0x1 DUP2 EQ PUSH2 0x1D0D JUMPI PUSH1 0x2 DUP2 EQ PUSH2 0x1D17 JUMPI PUSH2 0x1D46 JUMP JUMPDEST PUSH1 0x1 SWAP2 POP POP PUSH2 0x1DA5 JUMP JUMPDEST PUSH1 0xFF DUP5 GT ISZERO PUSH2 0x1D29 JUMPI PUSH2 0x1D28 PUSH2 0x1C50 JUMP JUMPDEST JUMPDEST DUP4 PUSH1 0x2 EXP SWAP2 POP DUP5 DUP3 GT ISZERO PUSH2 0x1D40 JUMPI PUSH2 0x1D3F PUSH2 0x1C50 JUMP JUMPDEST JUMPDEST POP PUSH2 0x1DA5 JUMP JUMPDEST POP PUSH1 0x20 DUP4 LT PUSH2 0x133 DUP4 LT AND PUSH1 0x4E DUP5 LT PUSH1 0xB DUP5 LT AND OR ISZERO PUSH2 0x1D7B JUMPI DUP3 DUP3 EXP SWAP1 POP DUP4 DUP2 GT ISZERO PUSH2 0x1D76 JUMPI PUSH2 0x1D75 PUSH2 0x1C50 JUMP JUMPDEST JUMPDEST PUSH2 0x1DA5 JUMP JUMPDEST PUSH2 0x1D88 DUP5 DUP5 DUP5 PUSH1 0x1 PUSH2 0x1C89 JUMP JUMPDEST SWAP3 POP SWAP1 POP DUP2 DUP5 DIV DUP2 GT ISZERO PUSH2 0x1D9F JUMPI PUSH2 0x1D9E PUSH2 0x1C50 JUMP JUMPDEST JUMPDEST DUP2 DUP2 MUL SWAP1 POP JUMPDEST SWAP4 SWAP3 POP POP POP JUMP JUMPDEST PUSH0 PUSH2 0x1DB6 DUP3 PUSH2 0x180C JUMP JUMPDEST SWAP2 POP PUSH2 0x1DC1 DUP4 PUSH2 0x1928 JUMP JUMPDEST SWAP3 POP PUSH2 0x1DEE PUSH32 0xFFFFFFFFFFFFFFFFFFFFFFFFFFFFFFFFFFFFFFFFFFFFFFFFFFFFFFFFFFFFFFFF DUP5 DUP5 PUSH2 0x1CDB JUMP JUMPDEST SWAP1 POP SWAP3 SWAP2 POP POP JUMP JUMPDEST PUSH0 PUSH2 0x1E00 DUP3 PUSH2 0x180C JUMP JUMPDEST SWAP2 POP PUSH2 0x1E0B DUP4 PUSH2 0x180C JUMP JUMPDEST SWAP3 POP DUP3 DUP3 MUL PUSH2 0x1E19 DUP2 PUSH2 0x180C JUMP JUMPDEST SWAP2 POP DUP3 DUP3 DIV DUP5 EQ DUP4 ISZERO OR PUSH2 0x1E30 JUMPI PUSH2 0x1E2F PUSH2 0x1C50 JUMP JUMPDEST JUMPDEST POP SWAP3 SWAP2 POP POP JUMP JUMPDEST PUSH0 DUP2 SWAP1 POP SWAP2 SWAP1 POP JUMP JUMPDEST PUSH0 PUSH8 0xFFFFFFFFFFFFFFFF DUP3 AND SWAP1 POP SWAP2 SWAP1 POP JUMP JUMPDEST PUSH0 DUP2 SWAP1 POP SWAP2 SWAP1 POP JUMP JUMPDEST PUSH0 PUSH2 0x1E76 PUSH2 0x1E71 PUSH2 0x1E6C DUP5 PUSH2 0x1E37 JUMP JUMPDEST PUSH2 0x1E53 JUMP JUMPDEST PUSH2 0x1E40 JUMP JUMPDEST SWAP1 POP SWAP2 SWAP1 POP JUMP JUMPDEST PUSH2 0x1E86 DUP2 PUSH2 0x1E5C JUMP JUMPDEST DUP3 MSTORE POP POP JUMP JUMPDEST PUSH0 PUSH1 0x20 DUP3 ADD SWAP1 POP PUSH2 0x1E9F PUSH0 DUP4 ADD DUP5 PUSH2 0x1E7D JUMP JUMPDEST SWAP3 SWAP2 POP POP JUMP JUMPDEST PUSH0 PUSH1 0x60 DUP3 ADD SWAP1 POP PUSH2 0x1EB8 PUSH0 DUP4 ADD DUP7 PUSH2 0x1B8D JUMP JUMPDEST PUSH2 0x1EC5 PUSH1 0x20 DUP4 ADD DUP6 PUSH2 0x18B0 JUMP JUMPDEST PUSH2 0x1ED2 PUSH1 0x40 DUP4 ADD DUP5 PUSH2 0x18B0 JUMP JUMPDEST SWAP5 SWAP4 POP POP POP POP JUMP JUMPDEST PUSH0 DUP2 SWAP1 POP DUP2 PUSH0 MSTORE PUSH1 0x20 PUSH0 KECCAK256 SWAP1 POP SWAP2 SWAP1 POP JUMP JUMPDEST PUSH0 PUSH1 0x20 PUSH1 0x1F DUP4 ADD DIV SWAP1 POP SWAP2 SWAP1 POP JUMP JUMPDEST PUSH0 DUP3 DUP3 SHL SWAP1 POP SWAP3 SWAP2 POP POP JUMP JUMPDEST PUSH0 PUSH1 0x8 DUP4 MUL PUSH2 0x1F36 PUSH32 0xFFFFFFFFFFFFFFFFFFFFFFFFFFFFFFFFFFFFFFFFFFFFFFFFFFFFFFFFFFFFFFFF DUP3 PUSH2 0x1EFB JUMP JUMPDEST PUSH2 0x1F40 DUP7 DUP4 PUSH2 0x1EFB JUMP JUMPDEST SWAP6 POP DUP1 NOT DUP5 AND SWAP4 POP DUP1 DUP7 AND DUP5 OR SWAP3 POP POP POP SWAP4 SWAP3 POP POP POP JUMP JUMPDEST PUSH0 PUSH2 0x1F72 PUSH2 0x1F6D PUSH2 0x1F68 DUP5 PUSH2 0x180C JUMP JUMPDEST PUSH2 0x1E53 JUMP JUMPDEST PUSH2 0x180C JUMP JUMPDEST SWAP1 POP SWAP2 SWAP1 POP JUMP JUMPDEST PUSH0 DUP2 SWAP1 POP SWAP2 SWAP1 POP JUMP JUMPDEST PUSH2 0x1F8B DUP4 PUSH2 0x1F58 JUMP JUMPDEST PUSH2 0x1F9F PUSH2 0x1F97 DUP3 PUSH2 0x1F79 JUMP JUMPDEST DUP5 DUP5 SLOAD PUSH2 0x1F07 JUMP JUMPDEST DUP3 SSTORE POP POP POP POP JUMP JUMPDEST PUSH0 PUSH0 SWAP1 POP SWAP1 JUMP JUMPDEST PUSH2 0x1FB6 PUSH2 0x1FA7 JUMP JUMPDEST PUSH2 0x1FC1 DUP2 DUP5 DUP5 PUSH2 0x1F82 JUMP JUMPDEST POP POP POP JUMP JUMPDEST JUMPDEST DUP2 DUP2 LT ISZERO PUSH2 0x1FE4 JUMPI PUSH2 0x1FD9 PUSH0 DUP3 PUSH2 0x1FAE JUMP JUMPDEST PUSH1 0x1 DUP2 ADD SWAP1 POP PUSH2 0x1FC7 JUMP JUMPDEST POP POP JUMP JUMPDEST PUSH1 0x1F DUP3 GT ISZERO PUSH2 0x2029 JUMPI PUSH2 0x1FFA DUP2 PUSH2 0x1EDA JUMP JUMPDEST PUSH2 0x2003 DUP5 PUSH2 0x1EEC JUMP JUMPDEST DUP2 ADD PUSH1 0x20 DUP6 LT ISZERO PUSH2 0x2012 JUMPI DUP2 SWAP1 POP JUMPDEST PUSH2 0x2026 PUSH2 0x201E DUP6 PUSH2 0x1EEC JUMP JUMPDEST DUP4 ADD DUP3 PUSH2 0x1FC6 JUMP JUMPDEST POP POP JUMPDEST POP POP POP JUMP JUMPDEST PUSH0 DUP3 DUP3 SHR SWAP1 POP SWAP3 SWAP2 POP POP JUMP JUMPDEST PUSH0 PUSH2 0x2049 PUSH0 NOT DUP5 PUSH1 0x8 MUL PUSH2 0x202E JUMP JUMPDEST NOT DUP1 DUP4 AND SWAP2 POP POP SWAP3 SWAP2 POP POP JUMP JUMPDEST PUSH0 PUSH2 0x2061 DUP4 DUP4 PUSH2 0x203A JUMP JUMPDEST SWAP2 POP DUP3 PUSH1 0x2 MUL DUP3 OR SWAP1 POP SWAP3 SWAP2 POP POP JUMP JUMPDEST PUSH2 0x207A DUP3 PUSH2 0x1711 JUMP JUMPDEST PUSH8 0xFFFFFFFFFFFFFFFF DUP2 GT ISZERO PUSH2 0x2093 JUMPI PUSH2 0x2092 PUSH2 0x1964 JUMP JUMPDEST JUMPDEST PUSH2 0x209D DUP3 SLOAD PUSH2 0x1C20 JUMP JUMPDEST PUSH2 0x20A8 DUP3 DUP3 DUP6 PUSH2 0x1FE8 JUMP JUMPDEST PUSH0 PUSH1 0x20 SWAP1 POP PUSH1 0x1F DUP4 GT PUSH1 0x1 DUP2 EQ PUSH2 0x20D9 JUMPI PUSH0 DUP5 ISZERO PUSH2 0x20C7 JUMPI DUP3 DUP8 ADD MLOAD SWAP1 POP JUMPDEST PUSH2 0x20D1 DUP6 DUP3 PUSH2 0x2056 JUMP JUMPDEST DUP7 SSTORE POP PUSH2 0x2138 JUMP JUMPDEST PUSH1 0x1F NOT DUP5 AND PUSH2 0x20E7 DUP7 PUSH2 0x1EDA JUMP JUMPDEST PUSH0 JUMPDEST DUP3 DUP2 LT ISZERO PUSH2 0x210E JUMPI DUP5 DUP10 ADD MLOAD DUP3 SSTORE PUSH1 0x1 DUP3 ADD SWAP2 POP PUSH1 0x20 DUP6 ADD SWAP5 POP PUSH1 0x20 DUP2 ADD SWAP1 POP PUSH2 0x20E9 JUMP JUMPDEST DUP7 DUP4 LT ISZERO PUSH2 0x212B JUMPI DUP5 DUP10 ADD MLOAD PUSH2 0x2127 PUSH1 0x1F DUP10 AND DUP3 PUSH2 0x203A JUMP JUMPDEST DUP4 SSTORE POP JUMPDEST PUSH1 0x1 PUSH1 0x2 DUP9 MUL ADD DUP9 SSTORE POP POP POP JUMPDEST POP POP POP POP POP POP JUMP JUMPDEST PUSH0 DUP2 SWAP1 POP SWAP2 SWAP1 POP JUMP JUMPDEST PUSH0 PUSH2 0x2163 PUSH2 0x215E PUSH2 0x2159 DUP5 PUSH2 0x2140 JUMP JUMPDEST PUSH2 0x1E53 JUMP JUMPDEST PUSH2 0x180C JUMP JUMPDEST SWAP1 POP SWAP2 SWAP1 POP JUMP JUMPDEST PUSH2 0x2173 DUP2 PUSH2 0x2149 JUMP JUMPDEST DUP3 MSTORE POP POP JUMP JUMPDEST PUSH0 PUSH1 0x20 DUP3 ADD SWAP1 POP PUSH2 0x218C PUSH0 DUP4 ADD DUP5 PUSH2 0x216A JUMP JUMPDEST SWAP3 SWAP2 POP POP JUMP JUMPDEST PUSH0 PUSH1 0x40 DUP3 ADD SWAP1 POP PUSH2 0x21A5 PUSH0 DUP4 ADD DUP6 PUSH2 0x18B0 JUMP JUMPDEST PUSH2 0x21B2 PUSH1 0x20 DUP4 ADD DUP5 PUSH2 0x18B0 JUMP JUMPDEST SWAP4 SWAP3 POP POP POP JUMP JUMPDEST PUSH0 PUSH2 0x21C3 DUP3 PUSH2 0x180C JUMP JUMPDEST SWAP2 POP PUSH2 0x21CE DUP4 PUSH2 0x180C JUMP JUMPDEST SWAP3 POP DUP3 DUP3 ADD SWAP1 POP DUP1 DUP3 GT ISZERO PUSH2 0x21E6 JUMPI PUSH2 0x21E5 PUSH2 0x1C50 JUMP JUMPDEST JUMPDEST SWAP3 SWAP2 POP POP JUMP INVALID LOG2 PUSH5 0x6970667358 0x22 SLT KECCAK256 LOG3 DUP11 MSIZE 0x2D 0xC2 GT SMOD RETF SWAP11 LT 0xD3 PUSH16 0x198F67FFE5B8413E6432E49D7F895C08 CALLDATALOAD PUSH13 0xFAF864736F6C634300081E0033 "
				},
				"gasEstimates": {
					"creation": {
						"codeDepositCost": "1747600",
						"executionCost": "1839",
						"totalCost": "1749439"
					},
					"external": {
						"VERSION()": "infinite",
						"acceptOwnership()": "infinite",
						"allowance(address,address)": "infinite",
						"approve(address,uint256)": "infinite",
						"balanceOf(address)": "2903",
						"burn(uint256)": "infinite",
						"cap()": "2528",
						"decimals()": "450",
						"initialize(string,string,uint256,uint256,address)": "infinite",
						"mint(address,uint256)": "infinite",
						"name()": "infinite",
						"owner()": "2655",
						"pendingOwner()": "2632",
						"renounceOwnership()": "infinite",
						"symbol()": "infinite",
						"totalSupply()": "2552",
						"transfer(address,uint256)": "infinite",
						"transferFrom(address,address,uint256)": "infinite",
						"transferOwnership(address)": "infinite",
						"version()": "infinite"
					},
					"internal": {
						"_update(address,address,uint256)": "infinite"
					}
				},
				"methodIdentifiers": {
					"VERSION()": "ffa1ad74",
					"acceptOwnership()": "79ba5097",
					"allowance(address,address)": "dd62ed3e",
					"approve(address,uint256)": "095ea7b3",
					"balanceOf(address)": "70a08231",
					"burn(uint256)": "42966c68",
					"cap()": "355274ea",
					"decimals()": "313ce567",
					"initialize(string,string,uint256,uint256,address)": "33eea181",
					"mint(address,uint256)": "40c10f19",
					"name()": "06fdde03",
					"owner()": "8da5cb5b",
					"pendingOwner()": "e30c3978",
					"renounceOwnership()": "715018a6",
					"symbol()": "95d89b41",
					"totalSupply()": "18160ddd",
					"transfer(address,uint256)": "a9059cbb",
					"transferFrom(address,address,uint256)": "23b872dd",
					"transferOwnership(address)": "f2fde38b",
					"version()": "54fd4d50"
				}
			},
			"storageLayout": {
				"storage": [],
				"types": null
			},
			"userdoc": {
				"kind": "user",
				"methods": {},
				"version": 1
			}
		}
	}
}