{
	"contracts/Proxy deployment contracts/allInOneProxyAdmin.sol": {
		"ProxyAdmin": {
			"abi": [
				{
					"inputs": [],
					"stateMutability": "nonpayable",
					"type": "constructor"
				},
				{
					"anonymous": false,
					"inputs": [
						{
							"indexed": true,
							"internalType": "address",
							"name": "previousOwner",
							"type": "address"
						},
						{
							"indexed": true,
							"internalType": "address",
							"name": "newOwner",
							"type": "address"
						}
					],
					"name": "OwnershipTransferred",
					"type": "event"
				},
				{
					"anonymous": false,
					"inputs": [
						{
							"indexed": true,
							"internalType": "address",
							"name": "proxy",
							"type": "address"
						},
						{
							"indexed": true,
							"internalType": "address",
							"name": "newImplementation",
							"type": "address"
						}
					],
					"name": "ProxyUpgraded",
					"type": "event"
				},
				{
					"inputs": [],
					"name": "owner",
					"outputs": [
						{
							"internalType": "address",
							"name": "",
							"type": "address"
						}
					],
					"stateMutability": "view",
					"type": "function"
				},
				{
					"inputs": [
						{
							"internalType": "address",
							"name": "newOwner",
							"type": "address"
						}
					],
					"name": "transferOwnership",
					"outputs": [],
					"stateMutability": "nonpayable",
					"type": "function"
				},
				{
					"inputs": [
						{
							"internalType": "address",
							"name": "proxy",
							"type": "address"
						},
						{
							"internalType": "address",
							"name": "newImplementation",
							"type": "address"
						}
					],
					"name": "upgrade",
					"outputs": [],
					"stateMutability": "nonpayable",
					"type": "function"
				}
			],
			"devdoc": {
				"kind": "dev",
				"methods": {},
				"version": 1
			},
			"evm": {
				"assembly": "    /* \"contracts/Proxy deployment contracts/allInOneProxyAdmin.sol\":243:1164  contract ProxyAdmin {... */\n  mstore(0x40, 0x80)\n    /* \"contracts/Proxy deployment contracts/allInOneProxyAdmin.sol\":483:534  constructor() {... */\n  callvalue\n  dup1\n  iszero\n  tag_1\n  jumpi\n  revert(0x00, 0x00)\ntag_1:\n  pop\n    /* \"contracts/Proxy deployment contracts/allInOneProxyAdmin.sol\":516:526  msg.sender */\n  caller\n    /* \"contracts/Proxy deployment contracts/allInOneProxyAdmin.sol\":508:513  owner */\n  0x00\n  0x00\n    /* \"contracts/Proxy deployment contracts/allInOneProxyAdmin.sol\":508:526  owner = msg.sender */\n  0x0100\n  exp\n  dup2\n  sload\n  dup2\n  0xffffffffffffffffffffffffffffffffffffffff\n  mul\n  not\n  and\n  swap1\n  dup4\n  0xffffffffffffffffffffffffffffffffffffffff\n  and\n  mul\n  or\n  swap1\n  sstore\n  pop\n    /* \"contracts/Proxy deployment contracts/allInOneProxyAdmin.sol\":243:1164  contract ProxyAdmin {... */\n  dataSize(sub_0)\n  dup1\n  dataOffset(sub_0)\n  0x00\n  codecopy\n  0x00\n  return\nstop\n\nsub_0: assembly {\n        /* \"contracts/Proxy deployment contracts/allInOneProxyAdmin.sol\":243:1164  contract ProxyAdmin {... */\n      mstore(0x40, 0x80)\n      callvalue\n      dup1\n      iszero\n      tag_1\n      jumpi\n      revert(0x00, 0x00)\n    tag_1:\n      pop\n      jumpi(tag_2, lt(calldatasize, 0x04))\n      shr(0xe0, calldataload(0x00))\n      dup1\n      0x8da5cb5b\n      eq\n      tag_3\n      jumpi\n      dup1\n      0x99a88ec4\n      eq\n      tag_4\n      jumpi\n      dup1\n      0xf2fde38b\n      eq\n      tag_5\n      jumpi\n    tag_2:\n      revert(0x00, 0x00)\n        /* \"contracts/Proxy deployment contracts/allInOneProxyAdmin.sol\":270:290  address public owner */\n    tag_3:\n      tag_6\n      tag_7\n      jump\t// in\n    tag_6:\n      mload(0x40)\n      tag_8\n      swap2\n      swap1\n      tag_9\n      jump\t// in\n    tag_8:\n      mload(0x40)\n      dup1\n      swap2\n      sub\n      swap1\n      return\n        /* \"contracts/Proxy deployment contracts/allInOneProxyAdmin.sol\":699:893  function upgrade(address proxy, address newImplementation) external onlyOwner {... */\n    tag_4:\n      tag_10\n      0x04\n      dup1\n      calldatasize\n      sub\n      dup2\n      add\n      swap1\n      tag_11\n      swap2\n      swap1\n      tag_12\n      jump\t// in\n    tag_11:\n      tag_13\n      jump\t// in\n    tag_10:\n      stop\n        /* \"contracts/Proxy deployment contracts/allInOneProxyAdmin.sol\":938:1161  function transferOwnership(address newOwner) external onlyOwner {... */\n    tag_5:\n      tag_14\n      0x04\n      dup1\n      calldatasize\n      sub\n      dup2\n      add\n      swap1\n      tag_15\n      swap2\n      swap1\n      tag_16\n      jump\t// in\n    tag_15:\n      tag_17\n      jump\t// in\n    tag_14:\n      stop\n        /* \"contracts/Proxy deployment contracts/allInOneProxyAdmin.sol\":270:290  address public owner */\n    tag_7:\n      0x00\n      0x00\n      swap1\n      sload\n      swap1\n      0x0100\n      exp\n      swap1\n      div\n      0xffffffffffffffffffffffffffffffffffffffff\n      and\n      dup2\n      jump\t// out\n        /* \"contracts/Proxy deployment contracts/allInOneProxyAdmin.sol\":699:893  function upgrade(address proxy, address newImplementation) external onlyOwner {... */\n    tag_13:\n        /* \"contracts/Proxy deployment contracts/allInOneProxyAdmin.sol\":600:605  owner */\n      0x00\n      0x00\n      swap1\n      sload\n      swap1\n      0x0100\n      exp\n      swap1\n      div\n      0xffffffffffffffffffffffffffffffffffffffff\n      and\n        /* \"contracts/Proxy deployment contracts/allInOneProxyAdmin.sol\":586:605  msg.sender == owner */\n      0xffffffffffffffffffffffffffffffffffffffff\n      and\n        /* \"contracts/Proxy deployment contracts/allInOneProxyAdmin.sol\":586:596  msg.sender */\n      caller\n        /* \"contracts/Proxy deployment contracts/allInOneProxyAdmin.sol\":586:605  msg.sender == owner */\n      0xffffffffffffffffffffffffffffffffffffffff\n      and\n      eq\n        /* \"contracts/Proxy deployment contracts/allInOneProxyAdmin.sol\":578:619  require(msg.sender == owner, \"Not owner\") */\n      tag_19\n      jumpi\n      mload(0x40)\n      0x08c379a000000000000000000000000000000000000000000000000000000000\n      dup2\n      mstore\n      0x04\n      add\n      tag_20\n      swap1\n      tag_21\n      jump\t// in\n    tag_20:\n      mload(0x40)\n      dup1\n      swap2\n      sub\n      swap1\n      revert\n    tag_19:\n        /* \"contracts/Proxy deployment contracts/allInOneProxyAdmin.sol\":795:800  proxy */\n      dup2\n        /* \"contracts/Proxy deployment contracts/allInOneProxyAdmin.sol\":788:811  IProxy(proxy).upgradeTo */\n      0xffffffffffffffffffffffffffffffffffffffff\n      and\n      0x3659cfe6\n        /* \"contracts/Proxy deployment contracts/allInOneProxyAdmin.sol\":812:829  newImplementation */\n      dup3\n        /* \"contracts/Proxy deployment contracts/allInOneProxyAdmin.sol\":788:830  IProxy(proxy).upgradeTo(newImplementation) */\n      mload(0x40)\n      dup3\n      0xffffffff\n      and\n      0xe0\n      shl\n      dup2\n      mstore\n      0x04\n      add\n      tag_23\n      swap2\n      swap1\n      tag_9\n      jump\t// in\n    tag_23:\n      0x00\n      mload(0x40)\n      dup1\n      dup4\n      sub\n      dup2\n      0x00\n      dup8\n      dup1\n      extcodesize\n      iszero\n      dup1\n      iszero\n      tag_24\n      jumpi\n      revert(0x00, 0x00)\n    tag_24:\n      pop\n      gas\n      call\n      iszero\n      dup1\n      iszero\n      tag_26\n      jumpi\n      returndatacopy(0x00, 0x00, returndatasize)\n      revert(0x00, returndatasize)\n    tag_26:\n      pop\n      pop\n      pop\n      pop\n        /* \"contracts/Proxy deployment contracts/allInOneProxyAdmin.sol\":867:884  newImplementation */\n      dup1\n        /* \"contracts/Proxy deployment contracts/allInOneProxyAdmin.sol\":846:885  ProxyUpgraded(proxy, newImplementation) */\n      0xffffffffffffffffffffffffffffffffffffffff\n      and\n        /* \"contracts/Proxy deployment contracts/allInOneProxyAdmin.sol\":860:865  proxy */\n      dup3\n        /* \"contracts/Proxy deployment contracts/allInOneProxyAdmin.sol\":846:885  ProxyUpgraded(proxy, newImplementation) */\n      0xffffffffffffffffffffffffffffffffffffffff\n      and\n      0x3684250ce1e33b790ed973c23080f312db0adb21a6d98c61a5c9ff99e4babc17\n      mload(0x40)\n      mload(0x40)\n      dup1\n      swap2\n      sub\n      swap1\n      log3\n        /* \"contracts/Proxy deployment contracts/allInOneProxyAdmin.sol\":699:893  function upgrade(address proxy, address newImplementation) external onlyOwner {... */\n      pop\n      pop\n      jump\t// out\n        /* \"contracts/Proxy deployment contracts/allInOneProxyAdmin.sol\":938:1161  function transferOwnership(address newOwner) external onlyOwner {... */\n    tag_17:\n        /* \"contracts/Proxy deployment contracts/allInOneProxyAdmin.sol\":600:605  owner */\n      0x00\n      0x00\n      swap1\n      sload\n      swap1\n      0x0100\n      exp\n      swap1\n      div\n      0xffffffffffffffffffffffffffffffffffffffff\n      and\n        /* \"contracts/Proxy deployment contracts/allInOneProxyAdmin.sol\":586:605  msg.sender == owner */\n      0xffffffffffffffffffffffffffffffffffffffff\n      and\n        /* \"contracts/Proxy deployment contracts/allInOneProxyAdmin.sol\":586:596  msg.sender */\n      caller\n        /* \"contracts/Proxy deployment contracts/allInOneProxyAdmin.sol\":586:605  msg.sender == owner */\n      0xffffffffffffffffffffffffffffffffffffffff\n      and\n      eq\n        /* \"contracts/Proxy deployment contracts/allInOneProxyAdmin.sol\":578:619  require(msg.sender == owner, \"Not owner\") */\n      tag_28\n      jumpi\n      mload(0x40)\n      0x08c379a000000000000000000000000000000000000000000000000000000000\n      dup2\n      mstore\n      0x04\n      add\n      tag_29\n      swap1\n      tag_21\n      jump\t// in\n    tag_29:\n      mload(0x40)\n      dup1\n      swap2\n      sub\n      swap1\n      revert\n    tag_28:\n        /* \"contracts/Proxy deployment contracts/allInOneProxyAdmin.sol\":1041:1042  0 */\n      0x00\n        /* \"contracts/Proxy deployment contracts/allInOneProxyAdmin.sol\":1021:1043  newOwner != address(0) */\n      0xffffffffffffffffffffffffffffffffffffffff\n      and\n        /* \"contracts/Proxy deployment contracts/allInOneProxyAdmin.sol\":1021:1029  newOwner */\n      dup2\n        /* \"contracts/Proxy deployment contracts/allInOneProxyAdmin.sol\":1021:1043  newOwner != address(0) */\n      0xffffffffffffffffffffffffffffffffffffffff\n      and\n      sub\n        /* \"contracts/Proxy deployment contracts/allInOneProxyAdmin.sol\":1013:1073  require(newOwner != address(0), \"New owner is zero address\") */\n      tag_31\n      jumpi\n      mload(0x40)\n      0x08c379a000000000000000000000000000000000000000000000000000000000\n      dup2\n      mstore\n      0x04\n      add\n      tag_32\n      swap1\n      tag_33\n      jump\t// in\n    tag_32:\n      mload(0x40)\n      dup1\n      swap2\n      sub\n      swap1\n      revert\n    tag_31:\n        /* \"contracts/Proxy deployment contracts/allInOneProxyAdmin.sol\":1117:1125  newOwner */\n      dup1\n        /* \"contracts/Proxy deployment contracts/allInOneProxyAdmin.sol\":1089:1126  OwnershipTransferred(owner, newOwner) */\n      0xffffffffffffffffffffffffffffffffffffffff\n      and\n        /* \"contracts/Proxy deployment contracts/allInOneProxyAdmin.sol\":1110:1115  owner */\n      0x00\n      0x00\n      swap1\n      sload\n      swap1\n      0x0100\n      exp\n      swap1\n      div\n      0xffffffffffffffffffffffffffffffffffffffff\n      and\n        /* \"contracts/Proxy deployment contracts/allInOneProxyAdmin.sol\":1089:1126  OwnershipTransferred(owner, newOwner) */\n      0xffffffffffffffffffffffffffffffffffffffff\n      and\n      0x8be0079c531659141344cd1fd0a4f28419497f9722a3daafe3b4186f6b6457e0\n      mload(0x40)\n      mload(0x40)\n      dup1\n      swap2\n      sub\n      swap1\n      log3\n        /* \"contracts/Proxy deployment contracts/allInOneProxyAdmin.sol\":1145:1153  newOwner */\n      dup1\n        /* \"contracts/Proxy deployment contracts/allInOneProxyAdmin.sol\":1137:1142  owner */\n      0x00\n      0x00\n        /* \"contracts/Proxy deployment contracts/allInOneProxyAdmin.sol\":1137:1153  owner = newOwner */\n      0x0100\n      exp\n      dup2\n      sload\n      dup2\n      0xffffffffffffffffffffffffffffffffffffffff\n      mul\n      not\n      and\n      swap1\n      dup4\n      0xffffffffffffffffffffffffffffffffffffffff\n      and\n      mul\n      or\n      swap1\n      sstore\n      pop\n        /* \"contracts/Proxy deployment contracts/allInOneProxyAdmin.sol\":938:1161  function transferOwnership(address newOwner) external onlyOwner {... */\n      pop\n      jump\t// out\n        /* \"#utility.yul\":7:133   */\n    tag_34:\n        /* \"#utility.yul\":44:51   */\n      0x00\n        /* \"#utility.yul\":84:126   */\n      0xffffffffffffffffffffffffffffffffffffffff\n        /* \"#utility.yul\":77:82   */\n      dup3\n        /* \"#utility.yul\":73:127   */\n      and\n        /* \"#utility.yul\":62:127   */\n      swap1\n      pop\n        /* \"#utility.yul\":7:133   */\n      swap2\n      swap1\n      pop\n      jump\t// out\n        /* \"#utility.yul\":139:235   */\n    tag_35:\n        /* \"#utility.yul\":176:183   */\n      0x00\n        /* \"#utility.yul\":205:229   */\n      tag_50\n        /* \"#utility.yul\":223:228   */\n      dup3\n        /* \"#utility.yul\":205:229   */\n      tag_34\n      jump\t// in\n    tag_50:\n        /* \"#utility.yul\":194:229   */\n      swap1\n      pop\n        /* \"#utility.yul\":139:235   */\n      swap2\n      swap1\n      pop\n      jump\t// out\n        /* \"#utility.yul\":241:359   */\n    tag_36:\n        /* \"#utility.yul\":328:352   */\n      tag_52\n        /* \"#utility.yul\":346:351   */\n      dup2\n        /* \"#utility.yul\":328:352   */\n      tag_35\n      jump\t// in\n    tag_52:\n        /* \"#utility.yul\":323:326   */\n      dup3\n        /* \"#utility.yul\":316:353   */\n      mstore\n        /* \"#utility.yul\":241:359   */\n      pop\n      pop\n      jump\t// out\n        /* \"#utility.yul\":365:587   */\n    tag_9:\n        /* \"#utility.yul\":458:462   */\n      0x00\n        /* \"#utility.yul\":496:498   */\n      0x20\n        /* \"#utility.yul\":485:494   */\n      dup3\n        /* \"#utility.yul\":481:499   */\n      add\n        /* \"#utility.yul\":473:499   */\n      swap1\n      pop\n        /* \"#utility.yul\":509:580   */\n      tag_54\n        /* \"#utility.yul\":577:578   */\n      0x00\n        /* \"#utility.yul\":566:575   */\n      dup4\n        /* \"#utility.yul\":562:579   */\n      add\n        /* \"#utility.yul\":553:559   */\n      dup5\n        /* \"#utility.yul\":509:580   */\n      tag_36\n      jump\t// in\n    tag_54:\n        /* \"#utility.yul\":365:587   */\n      swap3\n      swap2\n      pop\n      pop\n      jump\t// out\n        /* \"#utility.yul\":674:791   */\n    tag_38:\n        /* \"#utility.yul\":783:784   */\n      0x00\n        /* \"#utility.yul\":780:781   */\n      0x00\n        /* \"#utility.yul\":773:785   */\n      revert\n        /* \"#utility.yul\":920:1042   */\n    tag_40:\n        /* \"#utility.yul\":993:1017   */\n      tag_59\n        /* \"#utility.yul\":1011:1016   */\n      dup2\n        /* \"#utility.yul\":993:1017   */\n      tag_35\n      jump\t// in\n    tag_59:\n        /* \"#utility.yul\":986:991   */\n      dup2\n        /* \"#utility.yul\":983:1018   */\n      eq\n        /* \"#utility.yul\":973:1036   */\n      tag_60\n      jumpi\n        /* \"#utility.yul\":1032:1033   */\n      0x00\n        /* \"#utility.yul\":1029:1030   */\n      0x00\n        /* \"#utility.yul\":1022:1034   */\n      revert\n        /* \"#utility.yul\":973:1036   */\n    tag_60:\n        /* \"#utility.yul\":920:1042   */\n      pop\n      jump\t// out\n        /* \"#utility.yul\":1048:1187   */\n    tag_41:\n        /* \"#utility.yul\":1094:1099   */\n      0x00\n        /* \"#utility.yul\":1132:1138   */\n      dup2\n        /* \"#utility.yul\":1119:1139   */\n      calldataload\n        /* \"#utility.yul\":1110:1139   */\n      swap1\n      pop\n        /* \"#utility.yul\":1148:1181   */\n      tag_62\n        /* \"#utility.yul\":1175:1180   */\n      dup2\n        /* \"#utility.yul\":1148:1181   */\n      tag_40\n      jump\t// in\n    tag_62:\n        /* \"#utility.yul\":1048:1187   */\n      swap3\n      swap2\n      pop\n      pop\n      jump\t// out\n        /* \"#utility.yul\":1193:1667   */\n    tag_12:\n        /* \"#utility.yul\":1261:1267   */\n      0x00\n        /* \"#utility.yul\":1269:1275   */\n      0x00\n        /* \"#utility.yul\":1318:1320   */\n      0x40\n        /* \"#utility.yul\":1306:1315   */\n      dup4\n        /* \"#utility.yul\":1297:1304   */\n      dup6\n        /* \"#utility.yul\":1293:1316   */\n      sub\n        /* \"#utility.yul\":1289:1321   */\n      slt\n        /* \"#utility.yul\":1286:1405   */\n      iszero\n      tag_64\n      jumpi\n        /* \"#utility.yul\":1324:1403   */\n      tag_65\n      tag_38\n      jump\t// in\n    tag_65:\n        /* \"#utility.yul\":1286:1405   */\n    tag_64:\n        /* \"#utility.yul\":1444:1445   */\n      0x00\n        /* \"#utility.yul\":1469:1522   */\n      tag_66\n        /* \"#utility.yul\":1514:1521   */\n      dup6\n        /* \"#utility.yul\":1505:1511   */\n      dup3\n        /* \"#utility.yul\":1494:1503   */\n      dup7\n        /* \"#utility.yul\":1490:1512   */\n      add\n        /* \"#utility.yul\":1469:1522   */\n      tag_41\n      jump\t// in\n    tag_66:\n        /* \"#utility.yul\":1459:1522   */\n      swap3\n      pop\n        /* \"#utility.yul\":1415:1532   */\n      pop\n        /* \"#utility.yul\":1571:1573   */\n      0x20\n        /* \"#utility.yul\":1597:1650   */\n      tag_67\n        /* \"#utility.yul\":1642:1649   */\n      dup6\n        /* \"#utility.yul\":1633:1639   */\n      dup3\n        /* \"#utility.yul\":1622:1631   */\n      dup7\n        /* \"#utility.yul\":1618:1640   */\n      add\n        /* \"#utility.yul\":1597:1650   */\n      tag_41\n      jump\t// in\n    tag_67:\n        /* \"#utility.yul\":1587:1650   */\n      swap2\n      pop\n        /* \"#utility.yul\":1542:1660   */\n      pop\n        /* \"#utility.yul\":1193:1667   */\n      swap3\n      pop\n      swap3\n      swap1\n      pop\n      jump\t// out\n        /* \"#utility.yul\":1673:2002   */\n    tag_16:\n        /* \"#utility.yul\":1732:1738   */\n      0x00\n        /* \"#utility.yul\":1781:1783   */\n      0x20\n        /* \"#utility.yul\":1769:1778   */\n      dup3\n        /* \"#utility.yul\":1760:1767   */\n      dup5\n        /* \"#utility.yul\":1756:1779   */\n      sub\n        /* \"#utility.yul\":1752:1784   */\n      slt\n        /* \"#utility.yul\":1749:1868   */\n      iszero\n      tag_69\n      jumpi\n        /* \"#utility.yul\":1787:1866   */\n      tag_70\n      tag_38\n      jump\t// in\n    tag_70:\n        /* \"#utility.yul\":1749:1868   */\n    tag_69:\n        /* \"#utility.yul\":1907:1908   */\n      0x00\n        /* \"#utility.yul\":1932:1985   */\n      tag_71\n        /* \"#utility.yul\":1977:1984   */\n      dup5\n        /* \"#utility.yul\":1968:1974   */\n      dup3\n        /* \"#utility.yul\":1957:1966   */\n      dup6\n        /* \"#utility.yul\":1953:1975   */\n      add\n        /* \"#utility.yul\":1932:1985   */\n      tag_41\n      jump\t// in\n    tag_71:\n        /* \"#utility.yul\":1922:1985   */\n      swap2\n      pop\n        /* \"#utility.yul\":1878:1995   */\n      pop\n        /* \"#utility.yul\":1673:2002   */\n      swap3\n      swap2\n      pop\n      pop\n      jump\t// out\n        /* \"#utility.yul\":2008:2177   */\n    tag_42:\n        /* \"#utility.yul\":2092:2103   */\n      0x00\n        /* \"#utility.yul\":2126:2132   */\n      dup3\n        /* \"#utility.yul\":2121:2124   */\n      dup3\n        /* \"#utility.yul\":2114:2133   */\n      mstore\n        /* \"#utility.yul\":2166:2170   */\n      0x20\n        /* \"#utility.yul\":2161:2164   */\n      dup3\n        /* \"#utility.yul\":2157:2171   */\n      add\n        /* \"#utility.yul\":2142:2171   */\n      swap1\n      pop\n        /* \"#utility.yul\":2008:2177   */\n      swap3\n      swap2\n      pop\n      pop\n      jump\t// out\n        /* \"#utility.yul\":2183:2342   */\n    tag_43:\n        /* \"#utility.yul\":2323:2334   */\n      0x4e6f74206f776e65720000000000000000000000000000000000000000000000\n        /* \"#utility.yul\":2319:2320   */\n      0x00\n        /* \"#utility.yul\":2311:2317   */\n      dup3\n        /* \"#utility.yul\":2307:2321   */\n      add\n        /* \"#utility.yul\":2300:2335   */\n      mstore\n        /* \"#utility.yul\":2183:2342   */\n      pop\n      jump\t// out\n        /* \"#utility.yul\":2348:2713   */\n    tag_44:\n        /* \"#utility.yul\":2490:2493   */\n      0x00\n        /* \"#utility.yul\":2511:2577   */\n      tag_75\n        /* \"#utility.yul\":2575:2576   */\n      0x09\n        /* \"#utility.yul\":2570:2573   */\n      dup4\n        /* \"#utility.yul\":2511:2577   */\n      tag_42\n      jump\t// in\n    tag_75:\n        /* \"#utility.yul\":2504:2577   */\n      swap2\n      pop\n        /* \"#utility.yul\":2586:2679   */\n      tag_76\n        /* \"#utility.yul\":2675:2678   */\n      dup3\n        /* \"#utility.yul\":2586:2679   */\n      tag_43\n      jump\t// in\n    tag_76:\n        /* \"#utility.yul\":2704:2706   */\n      0x20\n        /* \"#utility.yul\":2699:2702   */\n      dup3\n        /* \"#utility.yul\":2695:2707   */\n      add\n        /* \"#utility.yul\":2688:2707   */\n      swap1\n      pop\n        /* \"#utility.yul\":2348:2713   */\n      swap2\n      swap1\n      pop\n      jump\t// out\n        /* \"#utility.yul\":2719:3138   */\n    tag_21:\n        /* \"#utility.yul\":2885:2889   */\n      0x00\n        /* \"#utility.yul\":2923:2925   */\n      0x20\n        /* \"#utility.yul\":2912:2921   */\n      dup3\n        /* \"#utility.yul\":2908:2926   */\n      add\n        /* \"#utility.yul\":2900:2926   */\n      swap1\n      pop\n        /* \"#utility.yul\":2972:2981   */\n      dup2\n        /* \"#utility.yul\":2966:2970   */\n      dup2\n        /* \"#utility.yul\":2962:2982   */\n      sub\n        /* \"#utility.yul\":2958:2959   */\n      0x00\n        /* \"#utility.yul\":2947:2956   */\n      dup4\n        /* \"#utility.yul\":2943:2960   */\n      add\n        /* \"#utility.yul\":2936:2983   */\n      mstore\n        /* \"#utility.yul\":3000:3131   */\n      tag_78\n        /* \"#utility.yul\":3126:3130   */\n      dup2\n        /* \"#utility.yul\":3000:3131   */\n      tag_44\n      jump\t// in\n    tag_78:\n        /* \"#utility.yul\":2992:3131   */\n      swap1\n      pop\n        /* \"#utility.yul\":2719:3138   */\n      swap2\n      swap1\n      pop\n      jump\t// out\n        /* \"#utility.yul\":3144:3319   */\n    tag_45:\n        /* \"#utility.yul\":3284:3311   */\n      0x4e6577206f776e6572206973207a65726f206164647265737300000000000000\n        /* \"#utility.yul\":3280:3281   */\n      0x00\n        /* \"#utility.yul\":3272:3278   */\n      dup3\n        /* \"#utility.yul\":3268:3282   */\n      add\n        /* \"#utility.yul\":3261:3312   */\n      mstore\n        /* \"#utility.yul\":3144:3319   */\n      pop\n      jump\t// out\n        /* \"#utility.yul\":3325:3691   */\n    tag_46:\n        /* \"#utility.yul\":3467:3470   */\n      0x00\n        /* \"#utility.yul\":3488:3555   */\n      tag_81\n        /* \"#utility.yul\":3552:3554   */\n      0x19\n        /* \"#utility.yul\":3547:3550   */\n      dup4\n        /* \"#utility.yul\":3488:3555   */\n      tag_42\n      jump\t// in\n    tag_81:\n        /* \"#utility.yul\":3481:3555   */\n      swap2\n      pop\n        /* \"#utility.yul\":3564:3657   */\n      tag_82\n        /* \"#utility.yul\":3653:3656   */\n      dup3\n        /* \"#utility.yul\":3564:3657   */\n      tag_45\n      jump\t// in\n    tag_82:\n        /* \"#utility.yul\":3682:3684   */\n      0x20\n        /* \"#utility.yul\":3677:3680   */\n      dup3\n        /* \"#utility.yul\":3673:3685   */\n      add\n        /* \"#utility.yul\":3666:3685   */\n      swap1\n      pop\n        /* \"#utility.yul\":3325:3691   */\n      swap2\n      swap1\n      pop\n      jump\t// out\n        /* \"#utility.yul\":3697:4116   */\n    tag_33:\n        /* \"#utility.yul\":3863:3867   */\n      0x00\n        /* \"#utility.yul\":3901:3903   */\n      0x20\n        /* \"#utility.yul\":3890:3899   */\n      dup3\n        /* \"#utility.yul\":3886:3904   */\n      add\n        /* \"#utility.yul\":3878:3904   */\n      swap1\n      pop\n        /* \"#utility.yul\":3950:3959   */\n      dup2\n        /* \"#utility.yul\":3944:3948   */\n      dup2\n        /* \"#utility.yul\":3940:3960   */\n      sub\n        /* \"#utility.yul\":3936:3937   */\n      0x00\n        /* \"#utility.yul\":3925:3934   */\n      dup4\n        /* \"#utility.yul\":3921:3938   */\n      add\n        /* \"#utility.yul\":3914:3961   */\n      mstore\n        /* \"#utility.yul\":3978:4109   */\n      tag_84\n        /* \"#utility.yul\":4104:4108   */\n      dup2\n        /* \"#utility.yul\":3978:4109   */\n      tag_46\n      jump\t// in\n    tag_84:\n        /* \"#utility.yul\":3970:4109   */\n      swap1\n      pop\n        /* \"#utility.yul\":3697:4116   */\n      swap2\n      swap1\n      pop\n      jump\t// out\n\n    auxdata: 0xa264697066735822122075afc457e933eabd1e3c5b037ff7ea777d0d6ac8afafbd91fa72c9985cdfc4ea64736f6c634300081e0033\n}\n",
				"bytecode": {
					"linkReferences": {},
					"object": "6080604052348015600e575f5ffd5b50335f5f6101000a81548173ffffffffffffffffffffffffffffffffffffffff021916908373ffffffffffffffffffffffffffffffffffffffff1602179055506105cc8061005b5f395ff3fe608060405234801561000f575f5ffd5b506004361061003f575f3560e01c80638da5cb5b1461004357806399a88ec414610061578063f2fde38b1461007d575b5f5ffd5b61004b610099565b6040516100589190610406565b60405180910390f35b61007b6004803603810190610076919061044d565b6100bd565b005b6100976004803603810190610092919061048b565b61020f565b005b5f5f9054906101000a900473ffffffffffffffffffffffffffffffffffffffff1681565b5f5f9054906101000a900473ffffffffffffffffffffffffffffffffffffffff1673ffffffffffffffffffffffffffffffffffffffff163373ffffffffffffffffffffffffffffffffffffffff161461014b576040517f08c379a000000000000000000000000000000000000000000000000000000000815260040161014290610510565b60405180910390fd5b8173ffffffffffffffffffffffffffffffffffffffff16633659cfe6826040518263ffffffff1660e01b81526004016101849190610406565b5f604051808303815f87803b15801561019b575f5ffd5b505af11580156101ad573d5f5f3e3d5ffd5b505050508073ffffffffffffffffffffffffffffffffffffffff168273ffffffffffffffffffffffffffffffffffffffff167f3684250ce1e33b790ed973c23080f312db0adb21a6d98c61a5c9ff99e4babc1760405160405180910390a35050565b5f5f9054906101000a900473ffffffffffffffffffffffffffffffffffffffff1673ffffffffffffffffffffffffffffffffffffffff163373ffffffffffffffffffffffffffffffffffffffff161461029d576040517f08c379a000000000000000000000000000000000000000000000000000000000815260040161029490610510565b60405180910390fd5b5f73ffffffffffffffffffffffffffffffffffffffff168173ffffffffffffffffffffffffffffffffffffffff160361030b576040517f08c379a000000000000000000000000000000000000000000000000000000000815260040161030290610578565b60405180910390fd5b8073ffffffffffffffffffffffffffffffffffffffff165f5f9054906101000a900473ffffffffffffffffffffffffffffffffffffffff1673ffffffffffffffffffffffffffffffffffffffff167f8be0079c531659141344cd1fd0a4f28419497f9722a3daafe3b4186f6b6457e060405160405180910390a3805f5f6101000a81548173ffffffffffffffffffffffffffffffffffffffff021916908373ffffffffffffffffffffffffffffffffffffffff16021790555050565b5f73ffffffffffffffffffffffffffffffffffffffff82169050919050565b5f6103f0826103c7565b9050919050565b610400816103e6565b82525050565b5f6020820190506104195f8301846103f7565b92915050565b5f5ffd5b61042c816103e6565b8114610436575f5ffd5b50565b5f8135905061044781610423565b92915050565b5f5f604083850312156104635761046261041f565b5b5f61047085828601610439565b925050602061048185828601610439565b9150509250929050565b5f602082840312156104a05761049f61041f565b5b5f6104ad84828501610439565b91505092915050565b5f82825260208201905092915050565b7f4e6f74206f776e657200000000000000000000000000000000000000000000005f82015250565b5f6104fa6009836104b6565b9150610505826104c6565b602082019050919050565b5f6020820190508181035f830152610527816104ee565b9050919050565b7f4e6577206f776e6572206973207a65726f2061646472657373000000000000005f82015250565b5f6105626019836104b6565b915061056d8261052e565b602082019050919050565b5f6020820190508181035f83015261058f81610556565b905091905056fea264697066735822122075afc457e933eabd1e3c5b037ff7ea777d0d6ac8afafbd91fa72c9985cdfc4ea64736f6c634300081e0033",
					"opcodes": "PUSH1 0x80 PUSH1 0x40 MSTORE CALLVALUE DUP1 ISZERO PUSH1 0xE JUMPI PUSH0 PUSH0 REVERT JUMPDEST POP CALLER PUSH0 PUSH0 PUSH2 0x100 EXP DUP2 SLOAD DUP2 PUSH20 0xFFFFFFFFFFFFFFFFFFFFFFFFFFFFFFFFFFFFFFFF MUL NOT AND SWAP1 DUP4 PUSH20 0xFFFFFFFFFFFFFFFFFFFFFFFFFFFFFFFFFFFFFFFF AND MUL OR SWAP1 SSTORE POP PUSH2 0x5CC DUP1 PUSH2 0x5B PUSH0 CODECOPY PUSH0 RETURN INVALID PUSH1 0x80 PUSH1 0x40 MSTORE CALLVALUE DUP1 ISZERO PUSH2 0xF JUMPI PUSH0 PUSH0 REVERT JUMPDEST POP PUSH1 0x4 CALLDATASIZE LT PUSH2 0x3F JUMPI PUSH0 CALLDATALOAD PUSH1 0xE0 SHR DUP1 PUSH4 0x8DA5CB5B EQ PUSH2 0x43 JUMPI DUP1 PUSH4 0x99A88EC4 EQ PUSH2 0x61 JUMPI DUP1 PUSH4 0xF2FDE38B EQ PUSH2 0x7D JUMPI JUMPDEST PUSH0 PUSH0 REVERT JUMPDEST PUSH2 0x4B PUSH2 0x99 JUMP JUMPDEST PUSH1 0x40 MLOAD PUSH2 0x58 SWAP2 SWAP1 PUSH2 0x406 JUMP JUMPDEST PUSH1 0x40 MLOAD DUP1 SWAP2 SUB SWAP1 RETURN JUMPDEST PUSH2 0x7B PUSH1 0x4 DUP1 CALLDATASIZE SUB DUP2 ADD SWAP1 PUSH2 0x76 SWAP2 SWAP1 PUSH2 0x44D JUMP JUMPDEST PUSH2 0xBD JUMP JUMPDEST STOP JUMPDEST PUSH2 0x97 PUSH1 0x4 DUP1 CALLDATASIZE SUB DUP2 ADD SWAP1 PUSH2 0x92 SWAP2 SWAP1 PUSH2 0x48B JUMP JUMPDEST PUSH2 0x20F JUMP JUMPDEST STOP JUMPDEST PUSH0 PUSH0 SWAP1 SLOAD SWAP1 PUSH2 0x100 EXP SWAP1 DIV PUSH20 0xFFFFFFFFFFFFFFFFFFFFFFFFFFFFFFFFFFFFFFFF AND DUP2 JUMP JUMPDEST PUSH0 PUSH0 SWAP1 SLOAD SWAP1 PUSH2 0x100 EXP SWAP1 DIV PUSH20 0xFFFFFFFFFFFFFFFFFFFFFFFFFFFFFFFFFFFFFFFF AND PUSH20 0xFFFFFFFFFFFFFFFFFFFFFFFFFFFFFFFFFFFFFFFF AND CALLER PUSH20 0xFFFFFFFFFFFFFFFFFFFFFFFFFFFFFFFFFFFFFFFF AND EQ PUSH2 0x14B JUMPI PUSH1 0x40 MLOAD PUSH32 0x8C379A000000000000000000000000000000000000000000000000000000000 DUP2 MSTORE PUSH1 0x4 ADD PUSH2 0x142 SWAP1 PUSH2 0x510 JUMP JUMPDEST PUSH1 0x40 MLOAD DUP1 SWAP2 SUB SWAP1 REVERT JUMPDEST DUP2 PUSH20 0xFFFFFFFFFFFFFFFFFFFFFFFFFFFFFFFFFFFFFFFF AND PUSH4 0x3659CFE6 DUP3 PUSH1 0x40 MLOAD DUP3 PUSH4 0xFFFFFFFF AND PUSH1 0xE0 SHL DUP2 MSTORE PUSH1 0x4 ADD PUSH2 0x184 SWAP2 SWAP1 PUSH2 0x406 JUMP JUMPDEST PUSH0 PUSH1 0x40 MLOAD DUP1 DUP4 SUB DUP2 PUSH0 DUP8 DUP1 EXTCODESIZE ISZERO DUP1 ISZERO PUSH2 0x19B JUMPI PUSH0 PUSH0 REVERT JUMPDEST POP GAS CALL ISZERO DUP1 ISZERO PUSH2 0x1AD JUMPI RETURNDATASIZE PUSH0 PUSH0 RETURNDATACOPY RETURNDATASIZE PUSH0 REVERT JUMPDEST POP POP POP POP DUP1 PUSH20 0xFFFFFFFFFFFFFFFFFFFFFFFFFFFFFFFFFFFFFFFF AND DUP3 PUSH20 0xFFFFFFFFFFFFFFFFFFFFFFFFFFFFFFFFFFFFFFFF AND PUSH32 0x3684250CE1E33B790ED973C23080F312DB0ADB21A6D98C61A5C9FF99E4BABC17 PUSH1 0x40 MLOAD PUSH1 0x40 MLOAD DUP1 SWAP2 SUB SWAP1 LOG3 POP POP JUMP JUMPDEST PUSH0 PUSH0 SWAP1 SLOAD SWAP1 PUSH2 0x100 EXP SWAP1 DIV PUSH20 0xFFFFFFFFFFFFFFFFFFFFFFFFFFFFFFFFFFFFFFFF AND PUSH20 0xFFFFFFFFFFFFFFFFFFFFFFFFFFFFFFFFFFFFFFFF AND CALLER PUSH20 0xFFFFFFFFFFFFFFFFFFFFFFFFFFFFFFFFFFFFFFFF AND EQ PUSH2 0x29D JUMPI PUSH1 0x40 MLOAD PUSH32 0x8C379A000000000000000000000000000000000000000000000000000000000 DUP2 MSTORE PUSH1 0x4 ADD PUSH2 0x294 SWAP1 PUSH2 0x510 JUMP JUMPDEST PUSH1 0x40 MLOAD DUP1 SWAP2 SUB SWAP1 REVERT JUMPDEST PUSH0 PUSH20 0xFFFFFFFFFFFFFFFFFFFFFFFFFFFFFFFFFFFFFFFF AND DUP2 PUSH20 0xFFFFFFFFFFFFFFFFFFFFFFFFFFFFFFFFFFFFFFFF AND SUB PUSH2 0x30B JUMPI PUSH1 0x40 MLOAD PUSH32 0x8C379A000000000000000000000000000000000000000000000000000000000 DUP2 MSTORE PUSH1 0x4 ADD PUSH2 0x302 SWAP1 PUSH2 0x578 JUMP JUMPDEST PUSH1 0x40 MLOAD DUP1 SWAP2 SUB SWAP1 REVERT JUMPDEST DUP1 PUSH20 0xFFFFFFFFFFFFFFFFFFFFFFFFFFFFFFFFFFFFFFFF AND PUSH0 PUSH0 SWAP1 SLOAD SWAP1 PUSH2 0x100 EXP SWAP1 DIV PUSH20 0xFFFFFFFFFFFFFFFFFFFFFFFFFFFFFFFFFFFFFFFF AND PUSH20 0xFFFFFFFFFFFFFFFFFFFFFFFFFFFFFFFFFFFFFFFF AND PUSH32 0x8BE0079C531659141344CD1FD0A4F28419497F9722A3DAAFE3B4186F6B6457E0 PUSH1 0x40 MLOAD PUSH1 0x40 MLOAD DUP1 SWAP2 SUB SWAP1 LOG3 DUP1 PUSH0 PUSH0 PUSH2 0x100 EXP DUP2 SLOAD DUP2 PUSH20 0xFFFFFFFFFFFFFFFFFFFFFFFFFFFFFFFFFFFFFFFF MUL NOT AND SWAP1 DUP4 PUSH20 0xFFFFFFFFFFFFFFFFFFFFFFFFFFFFFFFFFFFFFFFF AND MUL OR SWAP1 SSTORE POP POP JUMP JUMPDEST PUSH0 PUSH20 0xFFFFFFFFFFFFFFFFFFFFFFFFFFFFFFFFFFFFFFFF DUP3 AND SWAP1 POP SWAP2 SWAP1 POP JUMP JUMPDEST PUSH0 PUSH2 0x3F0 DUP3 PUSH2 0x3C7 JUMP JUMPDEST SWAP1 POP SWAP2 SWAP1 POP JUMP JUMPDEST PUSH2 0x400 DUP2 PUSH2 0x3E6 JUMP JUMPDEST DUP3 MSTORE POP POP JUMP JUMPDEST PUSH0 PUSH1 0x20 DUP3 ADD SWAP1 POP PUSH2 0x419 PUSH0 DUP4 ADD DUP5 PUSH2 0x3F7 JUMP JUMPDEST SWAP3 SWAP2 POP POP JUMP JUMPDEST PUSH0 PUSH0 REVERT JUMPDEST PUSH2 0x42C DUP2 PUSH2 0x3E6 JUMP JUMPDEST DUP2 EQ PUSH2 0x436 JUMPI PUSH0 PUSH0 REVERT JUMPDEST POP JUMP JUMPDEST PUSH0 DUP2 CALLDATALOAD SWAP1 POP PUSH2 0x447 DUP2 PUSH2 0x423 JUMP JUMPDEST SWAP3 SWAP2 POP POP JUMP JUMPDEST PUSH0 PUSH0 PUSH1 0x40 DUP4 DUP6 SUB SLT ISZERO PUSH2 0x463 JUMPI PUSH2 0x462 PUSH2 0x41F JUMP JUMPDEST JUMPDEST PUSH0 PUSH2 0x470 DUP6 DUP3 DUP7 ADD PUSH2 0x439 JUMP JUMPDEST SWAP3 POP POP PUSH1 0x20 PUSH2 0x481 DUP6 DUP3 DUP7 ADD PUSH2 0x439 JUMP JUMPDEST SWAP2 POP POP SWAP3 POP SWAP3 SWAP1 POP JUMP JUMPDEST PUSH0 PUSH1 0x20 DUP3 DUP5 SUB SLT ISZERO PUSH2 0x4A0 JUMPI PUSH2 0x49F PUSH2 0x41F JUMP JUMPDEST JUMPDEST PUSH0 PUSH2 0x4AD DUP5 DUP3 DUP6 ADD PUSH2 0x439 JUMP JUMPDEST SWAP2 POP POP SWAP3 SWAP2 POP POP JUMP JUMPDEST PUSH0 DUP3 DUP3 MSTORE PUSH1 0x20 DUP3 ADD SWAP1 POP SWAP3 SWAP2 POP POP JUMP JUMPDEST PUSH32 0x4E6F74206F776E65720000000000000000000000000000000000000000000000 PUSH0 DUP3 ADD MSTORE POP JUMP JUMPDEST PUSH0 PUSH2 0x4FA PUSH1 0x9 DUP4 PUSH2 0x4B6 JUMP JUMPDEST SWAP2 POP PUSH2 0x505 DUP3 PUSH2 0x4C6 JUMP JUMPDEST PUSH1 0x20 DUP3 ADD SWAP1 POP SWAP2 SWAP1 POP JUMP JUMPDEST PUSH0 PUSH1 0x20 DUP3 ADD SWAP1 POP DUP2 DUP2 SUB PUSH0 DUP4 ADD MSTORE PUSH2 0x527 DUP2 PUSH2 0x4EE JUMP JUMPDEST SWAP1 POP SWAP2 SWAP1 POP JUMP JUMPDEST PUSH32 0x4E6577206F776E6572206973207A65726F206164647265737300000000000000 PUSH0 DUP3 ADD MSTORE POP JUMP JUMPDEST PUSH0 PUSH2 0x562 PUSH1 0x19 DUP4 PUSH2 0x4B6 JUMP JUMPDEST SWAP2 POP PUSH2 0x56D DUP3 PUSH2 0x52E JUMP JUMPDEST PUSH1 0x20 DUP3 ADD SWAP1 POP SWAP2 SWAP1 POP JUMP JUMPDEST PUSH0 PUSH1 0x20 DUP3 ADD SWAP1 POP DUP2 DUP2 SUB PUSH0 DUP4 ADD MSTORE PUSH2 0x58F DUP2 PUSH2 0x556 JUMP JUMPDEST SWAP1 POP SWAP2 SWAP1 POP JUMP INVALID LOG2 PUSH5 0x6970667358 0x22 SLT KECCAK256 PUSH22 0xAFC457E933EABD1E3C5B037FF7EA777D0D6AC8AFAFBD SWAP2 STATICCALL PUSH19 0xC9985CDFC4EA64736F6C634300081E00330000 "
				},
				"gasEstimates": {
					"creation": {
						"codeDepositCost": "296800",
						"executionCost": "24599",
						"totalCost": "321399"
					},
					"external": {
						"owner()": "2485",
						"transferOwnership(address)": "30617",
						"upgrade(address,address)": "infinite"
					}
				},
				"methodIdentifiers": {
					"owner()": "8da5cb5b",
					"transferOwnership(address)": "f2fde38b",
					"upgrade(address,address)": "99a88ec4"
				}
			},
			"storageLayout": {
				"storage": [
					{
						"astId": 9,
						"contract": "contracts/Proxy deployment contracts/allInOneProxyAdmin.sol:ProxyAdmin",
						"label": "owner",
						"offset": 0,
						"slot": "0",
						"type": "t_address"
					}
				],
				"types": {
					"t_address": {
						"encoding": "inplace",
						"label": "address",
						"numberOfBytes": "20"
					}
				}
			},
			"userdoc": {
				"kind": "user",
				"methods": {},
				"version": 1
			}
		}
	}
}