{
	"contracts/Proxy deployment contracts/allInOneProxyAdmin.sol": {
		"SimpleProxy": {
			"abi": [
				{
					"inputs": [
						{
							"internalType": "address",
							"name": "implementation",
							"type": "address"
						},
						{
							"internalType": "address",
							"name": "admin",
							"type": "address"
						},
						{
							"internalType": "bytes",
							"name": "initData",
							"type": "bytes"
						}
					],
					"stateMutability": "nonpayable",
					"type": "constructor"
				},
				{
					"anonymous": false,
					"inputs": [
						{
							"indexed": true,
							"internalType": "address",
							"name": "previousAdmin",
							"type": "address"
						},
						{
							"indexed": true,
							"internalType": "address",
							"name": "newAdmin",
							"type": "address"
						}
					],
					"name": "AdminChanged",
					"type": "event"
				},
				{
					"anonymous": false,
					"inputs": [
						{
							"indexed": true,
							"internalType": "address",
							"name": "implementation",
							"type": "address"
						}
					],
					"name": "Upgraded",
					"type": "event"
				},
				{
					"stateMutability": "payable",
					"type": "fallback"
				},
				{
					"inputs": [
						{
							"internalType": "address",
							"name": "newAdmin",
							"type": "address"
						}
					],
					"name": "changeAdmin",
					"outputs": [],
					"stateMutability": "nonpayable",
					"type": "function"
				},
				{
					"inputs": [],
					"name": "getAdmin",
					"outputs": [
						{
							"internalType": "address",
							"name": "",
							"type": "address"
						}
					],
					"stateMutability": "view",
					"type": "function"
				},
				{
					"inputs": [],
					"name": "getImplementation",
					"outputs": [
						{
							"internalType": "address",
							"name": "",
							"type": "address"
						}
					],
					"stateMutability": "view",
					"type": "function"
				},
				{
					"inputs": [
						{
							"internalType": "address",
							"name": "newImplementation",
							"type": "address"
						}
					],
					"name": "upgradeTo",
					"outputs": [],
					"stateMutability": "nonpayable",
					"type": "function"
				},
				{
					"stateMutability": "payable",
					"type": "receive"
				}
			],
			"devdoc": {
				"kind": "dev",
				"methods": {},
				"version": 1
			},
			"evm": {
				"assembly": "    /* \"contracts/Proxy deployment contracts/allInOneProxyAdmin.sol\":1168:5774  contract SimpleProxy {... */\n  mstore(0x40, 0x80)\n    /* \"contracts/Proxy deployment contracts/allInOneProxyAdmin.sol\":1563:2168  constructor(address implementation, address admin, bytes memory initData) {... */\n  callvalue\n  dup1\n  iszero\n  tag_1\n  jumpi\n  revert(0x00, 0x00)\ntag_1:\n  pop\n  mload(0x40)\n  sub(codesize, bytecodeSize)\n  dup1\n  bytecodeSize\n  dup4\n  codecopy\n  dup2\n  dup2\n  add\n  0x40\n  mstore\n  dup2\n  add\n  swap1\n  tag_2\n  swap2\n  swap1\n  tag_3\n  jump\t// in\ntag_2:\n    /* \"contracts/Proxy deployment contracts/allInOneProxyAdmin.sol\":1682:1683  0 */\n  0x00\n    /* \"contracts/Proxy deployment contracts/allInOneProxyAdmin.sol\":1656:1684  implementation != address(0) */\n  0xffffffffffffffffffffffffffffffffffffffff\n  and\n    /* \"contracts/Proxy deployment contracts/allInOneProxyAdmin.sol\":1656:1670  implementation */\n  dup4\n    /* \"contracts/Proxy deployment contracts/allInOneProxyAdmin.sol\":1656:1684  implementation != address(0) */\n  0xffffffffffffffffffffffffffffffffffffffff\n  and\n  sub\n    /* \"contracts/Proxy deployment contracts/allInOneProxyAdmin.sol\":1648:1719  require(implementation != address(0), \"Implementation is zero address\") */\n  tag_6\n  jumpi\n  mload(0x40)\n  0x08c379a000000000000000000000000000000000000000000000000000000000\n  dup2\n  mstore\n  0x04\n  add\n  tag_7\n  swap1\n  tag_8\n  jump\t// in\ntag_7:\n  mload(0x40)\n  dup1\n  swap2\n  sub\n  swap1\n  revert\ntag_6:\n    /* \"contracts/Proxy deployment contracts/allInOneProxyAdmin.sol\":1755:1756  0 */\n  0x00\n    /* \"contracts/Proxy deployment contracts/allInOneProxyAdmin.sol\":1738:1757  admin != address(0) */\n  0xffffffffffffffffffffffffffffffffffffffff\n  and\n    /* \"contracts/Proxy deployment contracts/allInOneProxyAdmin.sol\":1738:1743  admin */\n  dup3\n    /* \"contracts/Proxy deployment contracts/allInOneProxyAdmin.sol\":1738:1757  admin != address(0) */\n  0xffffffffffffffffffffffffffffffffffffffff\n  and\n  sub\n    /* \"contracts/Proxy deployment contracts/allInOneProxyAdmin.sol\":1730:1783  require(admin != address(0), \"Admin is zero address\") */\n  tag_9\n  jumpi\n  mload(0x40)\n  0x08c379a000000000000000000000000000000000000000000000000000000000\n  dup2\n  mstore\n  0x04\n  add\n  tag_10\n  swap1\n  tag_11\n  jump\t// in\ntag_10:\n  mload(0x40)\n  dup1\n  swap2\n  sub\n  swap1\n  revert\ntag_9:\n    /* \"contracts/Proxy deployment contracts/allInOneProxyAdmin.sol\":1856:1890  _setImplementation(implementation) */\n  tag_12\n    /* \"contracts/Proxy deployment contracts/allInOneProxyAdmin.sol\":1875:1889  implementation */\n  dup4\n    /* \"contracts/Proxy deployment contracts/allInOneProxyAdmin.sol\":1856:1874  _setImplementation */\n  shl(0x20, tag_13)\n    /* \"contracts/Proxy deployment contracts/allInOneProxyAdmin.sol\":1856:1890  _setImplementation(implementation) */\n  0x20\n  shr\n  jump\t// in\ntag_12:\n    /* \"contracts/Proxy deployment contracts/allInOneProxyAdmin.sol\":1901:1917  _setAdmin(admin) */\n  tag_14\n    /* \"contracts/Proxy deployment contracts/allInOneProxyAdmin.sol\":1911:1916  admin */\n  dup3\n    /* \"contracts/Proxy deployment contracts/allInOneProxyAdmin.sol\":1901:1910  _setAdmin */\n  shl(0x20, tag_15)\n    /* \"contracts/Proxy deployment contracts/allInOneProxyAdmin.sol\":1901:1917  _setAdmin(admin) */\n  0x20\n  shr\n  jump\t// in\ntag_14:\n    /* \"contracts/Proxy deployment contracts/allInOneProxyAdmin.sol\":2019:2020  0 */\n  0x00\n    /* \"contracts/Proxy deployment contracts/allInOneProxyAdmin.sol\":2001:2009  initData */\n  dup2\n    /* \"contracts/Proxy deployment contracts/allInOneProxyAdmin.sol\":2001:2016  initData.length */\n  mload\n    /* \"contracts/Proxy deployment contracts/allInOneProxyAdmin.sol\":2001:2020  initData.length > 0 */\n  gt\n    /* \"contracts/Proxy deployment contracts/allInOneProxyAdmin.sol\":1997:2161  if (initData.length > 0) {... */\n  iszero\n  tag_16\n  jumpi\n    /* \"contracts/Proxy deployment contracts/allInOneProxyAdmin.sol\":2038:2050  bool success */\n  0x00\n    /* \"contracts/Proxy deployment contracts/allInOneProxyAdmin.sol\":2056:2070  implementation */\n  dup4\n    /* \"contracts/Proxy deployment contracts/allInOneProxyAdmin.sol\":2056:2083  implementation.delegatecall */\n  0xffffffffffffffffffffffffffffffffffffffff\n  and\n    /* \"contracts/Proxy deployment contracts/allInOneProxyAdmin.sol\":2084:2092  initData */\n  dup3\n    /* \"contracts/Proxy deployment contracts/allInOneProxyAdmin.sol\":2056:2093  implementation.delegatecall(initData) */\n  mload(0x40)\n  tag_17\n  swap2\n  swap1\n  tag_18\n  jump\t// in\ntag_17:\n  0x00\n  mload(0x40)\n  dup1\n  dup4\n  sub\n  dup2\n  dup6\n  gas\n  delegatecall\n  swap2\n  pop\n  pop\n  returndatasize\n  dup1\n  0x00\n  dup2\n  eq\n  tag_21\n  jumpi\n  mload(0x40)\n  swap2\n  pop\n  and(add(returndatasize, 0x3f), not(0x1f))\n  dup3\n  add\n  0x40\n  mstore\n  returndatasize\n  dup3\n  mstore\n  returndatasize\n  0x00\n  0x20\n  dup5\n  add\n  returndatacopy\n  jump(tag_20)\ntag_21:\n  0x60\n  swap2\n  pop\ntag_20:\n  pop\n    /* \"contracts/Proxy deployment contracts/allInOneProxyAdmin.sol\":2037:2093  (bool success, ) = implementation.delegatecall(initData) */\n  pop\n  swap1\n  pop\n    /* \"contracts/Proxy deployment contracts/allInOneProxyAdmin.sol\":2116:2123  success */\n  dup1\n    /* \"contracts/Proxy deployment contracts/allInOneProxyAdmin.sol\":2108:2149  require(success, \"Initialization failed\") */\n  tag_22\n  jumpi\n  mload(0x40)\n  0x08c379a000000000000000000000000000000000000000000000000000000000\n  dup2\n  mstore\n  0x04\n  add\n  tag_23\n  swap1\n  tag_24\n  jump\t// in\ntag_23:\n  mload(0x40)\n  dup1\n  swap2\n  sub\n  swap1\n  revert\ntag_22:\n    /* \"contracts/Proxy deployment contracts/allInOneProxyAdmin.sol\":2022:2161  {... */\n  pop\n    /* \"contracts/Proxy deployment contracts/allInOneProxyAdmin.sol\":1997:2161  if (initData.length > 0) {... */\ntag_16:\n    /* \"contracts/Proxy deployment contracts/allInOneProxyAdmin.sol\":1563:2168  constructor(address implementation, address admin, bytes memory initData) {... */\n  pop\n  pop\n  pop\n    /* \"contracts/Proxy deployment contracts/allInOneProxyAdmin.sol\":1168:5774  contract SimpleProxy {... */\n  jump(tag_25)\n    /* \"contracts/Proxy deployment contracts/allInOneProxyAdmin.sol\":5169:5342  function _setImplementation(address newImpl) internal {... */\ntag_13:\n    /* \"contracts/Proxy deployment contracts/allInOneProxyAdmin.sol\":5234:5246  bytes32 slot */\n  0x00\n    /* \"contracts/Proxy deployment contracts/allInOneProxyAdmin.sol\":1307:1340  keccak256(\"proxy.implementation\") */\n  0x24ed44ee9374370fd3aa7c8b1abf58827504c20f65246b17d2b9e7e1aef77847\n    /* \"contracts/Proxy deployment contracts/allInOneProxyAdmin.sol\":5234:5268  bytes32 slot = IMPLEMENTATION_SLOT */\n  swap1\n  pop\n    /* \"contracts/Proxy deployment contracts/allInOneProxyAdmin.sol\":5316:5323  newImpl */\n  dup2\n    /* \"contracts/Proxy deployment contracts/allInOneProxyAdmin.sol\":5310:5314  slot */\n  dup2\n    /* \"contracts/Proxy deployment contracts/allInOneProxyAdmin.sol\":5303:5324  sstore(slot, newImpl) */\n  sstore\n    /* \"contracts/Proxy deployment contracts/allInOneProxyAdmin.sol\":5288:5335  {... */\n  pop\n    /* \"contracts/Proxy deployment contracts/allInOneProxyAdmin.sol\":5169:5342  function _setImplementation(address newImpl) internal {... */\n  pop\n  jump\t// out\n    /* \"contracts/Proxy deployment contracts/allInOneProxyAdmin.sol\":5614:5771  function _setAdmin(address newAdmin) internal {... */\ntag_15:\n    /* \"contracts/Proxy deployment contracts/allInOneProxyAdmin.sol\":5671:5683  bytes32 slot */\n  0x00\n    /* \"contracts/Proxy deployment contracts/allInOneProxyAdmin.sol\":1385:1409  keccak256(\"proxy.admin\") */\n  0xb361eaf08109ac4e837850c52399e285128fdaa6c1699e4864dd655f97ca6fd8\n    /* \"contracts/Proxy deployment contracts/allInOneProxyAdmin.sol\":5671:5696  bytes32 slot = ADMIN_SLOT */\n  swap1\n  pop\n    /* \"contracts/Proxy deployment contracts/allInOneProxyAdmin.sol\":5744:5752  newAdmin */\n  dup2\n    /* \"contracts/Proxy deployment contracts/allInOneProxyAdmin.sol\":5738:5742  slot */\n  dup2\n    /* \"contracts/Proxy deployment contracts/allInOneProxyAdmin.sol\":5731:5753  sstore(slot, newAdmin) */\n  sstore\n    /* \"contracts/Proxy deployment contracts/allInOneProxyAdmin.sol\":5716:5764  {... */\n  pop\n    /* \"contracts/Proxy deployment contracts/allInOneProxyAdmin.sol\":5614:5771  function _setAdmin(address newAdmin) internal {... */\n  pop\n  jump\t// out\n    /* \"#utility.yul\":7:82   */\ntag_28:\n    /* \"#utility.yul\":40:46   */\n  0x00\n    /* \"#utility.yul\":73:75   */\n  0x40\n    /* \"#utility.yul\":67:76   */\n  mload\n    /* \"#utility.yul\":57:76   */\n  swap1\n  pop\n    /* \"#utility.yul\":7:82   */\n  swap1\n  jump\t// out\n    /* \"#utility.yul\":88:205   */\ntag_29:\n    /* \"#utility.yul\":197:198   */\n  0x00\n    /* \"#utility.yul\":194:195   */\n  0x00\n    /* \"#utility.yul\":187:199   */\n  revert\n    /* \"#utility.yul\":211:328   */\ntag_30:\n    /* \"#utility.yul\":320:321   */\n  0x00\n    /* \"#utility.yul\":317:318   */\n  0x00\n    /* \"#utility.yul\":310:322   */\n  revert\n    /* \"#utility.yul\":334:460   */\ntag_31:\n    /* \"#utility.yul\":371:378   */\n  0x00\n    /* \"#utility.yul\":411:453   */\n  0xffffffffffffffffffffffffffffffffffffffff\n    /* \"#utility.yul\":404:409   */\n  dup3\n    /* \"#utility.yul\":400:454   */\n  and\n    /* \"#utility.yul\":389:454   */\n  swap1\n  pop\n    /* \"#utility.yul\":334:460   */\n  swap2\n  swap1\n  pop\n  jump\t// out\n    /* \"#utility.yul\":466:562   */\ntag_32:\n    /* \"#utility.yul\":503:510   */\n  0x00\n    /* \"#utility.yul\":532:556   */\n  tag_61\n    /* \"#utility.yul\":550:555   */\n  dup3\n    /* \"#utility.yul\":532:556   */\n  tag_31\n  jump\t// in\ntag_61:\n    /* \"#utility.yul\":521:556   */\n  swap1\n  pop\n    /* \"#utility.yul\":466:562   */\n  swap2\n  swap1\n  pop\n  jump\t// out\n    /* \"#utility.yul\":568:690   */\ntag_33:\n    /* \"#utility.yul\":641:665   */\n  tag_63\n    /* \"#utility.yul\":659:664   */\n  dup2\n    /* \"#utility.yul\":641:665   */\n  tag_32\n  jump\t// in\ntag_63:\n    /* \"#utility.yul\":634:639   */\n  dup2\n    /* \"#utility.yul\":631:666   */\n  eq\n    /* \"#utility.yul\":621:684   */\n  tag_64\n  jumpi\n    /* \"#utility.yul\":680:681   */\n  0x00\n    /* \"#utility.yul\":677:678   */\n  0x00\n    /* \"#utility.yul\":670:682   */\n  revert\n    /* \"#utility.yul\":621:684   */\ntag_64:\n    /* \"#utility.yul\":568:690   */\n  pop\n  jump\t// out\n    /* \"#utility.yul\":696:839   */\ntag_34:\n    /* \"#utility.yul\":753:758   */\n  0x00\n    /* \"#utility.yul\":784:790   */\n  dup2\n    /* \"#utility.yul\":778:791   */\n  mload\n    /* \"#utility.yul\":769:791   */\n  swap1\n  pop\n    /* \"#utility.yul\":800:833   */\n  tag_66\n    /* \"#utility.yul\":827:832   */\n  dup2\n    /* \"#utility.yul\":800:833   */\n  tag_33\n  jump\t// in\ntag_66:\n    /* \"#utility.yul\":696:839   */\n  swap3\n  swap2\n  pop\n  pop\n  jump\t// out\n    /* \"#utility.yul\":845:962   */\ntag_35:\n    /* \"#utility.yul\":954:955   */\n  0x00\n    /* \"#utility.yul\":951:952   */\n  0x00\n    /* \"#utility.yul\":944:956   */\n  revert\n    /* \"#utility.yul\":968:1085   */\ntag_36:\n    /* \"#utility.yul\":1077:1078   */\n  0x00\n    /* \"#utility.yul\":1074:1075   */\n  0x00\n    /* \"#utility.yul\":1067:1079   */\n  revert\n    /* \"#utility.yul\":1091:1193   */\ntag_37:\n    /* \"#utility.yul\":1132:1138   */\n  0x00\n    /* \"#utility.yul\":1183:1185   */\n  0x1f\n    /* \"#utility.yul\":1179:1186   */\n  not\n    /* \"#utility.yul\":1174:1176   */\n  0x1f\n    /* \"#utility.yul\":1167:1172   */\n  dup4\n    /* \"#utility.yul\":1163:1177   */\n  add\n    /* \"#utility.yul\":1159:1187   */\n  and\n    /* \"#utility.yul\":1149:1187   */\n  swap1\n  pop\n    /* \"#utility.yul\":1091:1193   */\n  swap2\n  swap1\n  pop\n  jump\t// out\n    /* \"#utility.yul\":1199:1379   */\ntag_38:\n    /* \"#utility.yul\":1247:1324   */\n  0x4e487b7100000000000000000000000000000000000000000000000000000000\n    /* \"#utility.yul\":1244:1245   */\n  0x00\n    /* \"#utility.yul\":1237:1325   */\n  mstore\n    /* \"#utility.yul\":1344:1348   */\n  0x41\n    /* \"#utility.yul\":1341:1342   */\n  0x04\n    /* \"#utility.yul\":1334:1349   */\n  mstore\n    /* \"#utility.yul\":1368:1372   */\n  0x24\n    /* \"#utility.yul\":1365:1366   */\n  0x00\n    /* \"#utility.yul\":1358:1373   */\n  revert\n    /* \"#utility.yul\":1385:1666   */\ntag_39:\n    /* \"#utility.yul\":1468:1495   */\n  tag_72\n    /* \"#utility.yul\":1490:1494   */\n  dup3\n    /* \"#utility.yul\":1468:1495   */\n  tag_37\n  jump\t// in\ntag_72:\n    /* \"#utility.yul\":1460:1466   */\n  dup2\n    /* \"#utility.yul\":1456:1496   */\n  add\n    /* \"#utility.yul\":1598:1604   */\n  dup2\n    /* \"#utility.yul\":1586:1596   */\n  dup2\n    /* \"#utility.yul\":1583:1605   */\n  lt\n    /* \"#utility.yul\":1562:1580   */\n  0xffffffffffffffff\n    /* \"#utility.yul\":1550:1560   */\n  dup3\n    /* \"#utility.yul\":1547:1581   */\n  gt\n    /* \"#utility.yul\":1544:1606   */\n  or\n    /* \"#utility.yul\":1541:1629   */\n  iszero\n  tag_73\n  jumpi\n    /* \"#utility.yul\":1609:1627   */\n  tag_74\n  tag_38\n  jump\t// in\ntag_74:\n    /* \"#utility.yul\":1541:1629   */\ntag_73:\n    /* \"#utility.yul\":1649:1659   */\n  dup1\n    /* \"#utility.yul\":1645:1647   */\n  0x40\n    /* \"#utility.yul\":1638:1660   */\n  mstore\n    /* \"#utility.yul\":1428:1666   */\n  pop\n    /* \"#utility.yul\":1385:1666   */\n  pop\n  pop\n  jump\t// out\n    /* \"#utility.yul\":1672:1801   */\ntag_40:\n    /* \"#utility.yul\":1706:1712   */\n  0x00\n    /* \"#utility.yul\":1733:1753   */\n  tag_76\n  tag_28\n  jump\t// in\ntag_76:\n    /* \"#utility.yul\":1723:1753   */\n  swap1\n  pop\n    /* \"#utility.yul\":1762:1795   */\n  tag_77\n    /* \"#utility.yul\":1790:1794   */\n  dup3\n    /* \"#utility.yul\":1782:1788   */\n  dup3\n    /* \"#utility.yul\":1762:1795   */\n  tag_39\n  jump\t// in\ntag_77:\n    /* \"#utility.yul\":1672:1801   */\n  swap2\n  swap1\n  pop\n  jump\t// out\n    /* \"#utility.yul\":1807:2114   */\ntag_41:\n    /* \"#utility.yul\":1868:1872   */\n  0x00\n    /* \"#utility.yul\":1958:1976   */\n  0xffffffffffffffff\n    /* \"#utility.yul\":1950:1956   */\n  dup3\n    /* \"#utility.yul\":1947:1977   */\n  gt\n    /* \"#utility.yul\":1944:2000   */\n  iszero\n  tag_79\n  jumpi\n    /* \"#utility.yul\":1980:1998   */\n  tag_80\n  tag_38\n  jump\t// in\ntag_80:\n    /* \"#utility.yul\":1944:2000   */\ntag_79:\n    /* \"#utility.yul\":2018:2047   */\n  tag_81\n    /* \"#utility.yul\":2040:2046   */\n  dup3\n    /* \"#utility.yul\":2018:2047   */\n  tag_37\n  jump\t// in\ntag_81:\n    /* \"#utility.yul\":2010:2047   */\n  swap1\n  pop\n    /* \"#utility.yul\":2102:2106   */\n  0x20\n    /* \"#utility.yul\":2096:2100   */\n  dup2\n    /* \"#utility.yul\":2092:2107   */\n  add\n    /* \"#utility.yul\":2084:2107   */\n  swap1\n  pop\n    /* \"#utility.yul\":1807:2114   */\n  swap2\n  swap1\n  pop\n  jump\t// out\n    /* \"#utility.yul\":2120:2259   */\ntag_42:\n    /* \"#utility.yul\":2209:2215   */\n  dup3\n    /* \"#utility.yul\":2204:2207   */\n  dup2\n    /* \"#utility.yul\":2199:2202   */\n  dup4\n    /* \"#utility.yul\":2193:2216   */\n  mcopy\n    /* \"#utility.yul\":2250:2251   */\n  0x00\n    /* \"#utility.yul\":2241:2247   */\n  dup4\n    /* \"#utility.yul\":2236:2239   */\n  dup4\n    /* \"#utility.yul\":2232:2248   */\n  add\n    /* \"#utility.yul\":2225:2252   */\n  mstore\n    /* \"#utility.yul\":2120:2259   */\n  pop\n  pop\n  pop\n  jump\t// out\n    /* \"#utility.yul\":2265:2697   */\ntag_43:\n    /* \"#utility.yul\":2353:2358   */\n  0x00\n    /* \"#utility.yul\":2378:2443   */\n  tag_84\n    /* \"#utility.yul\":2394:2442   */\n  tag_85\n    /* \"#utility.yul\":2435:2441   */\n  dup5\n    /* \"#utility.yul\":2394:2442   */\n  tag_41\n  jump\t// in\ntag_85:\n    /* \"#utility.yul\":2378:2443   */\n  tag_40\n  jump\t// in\ntag_84:\n    /* \"#utility.yul\":2369:2443   */\n  swap1\n  pop\n    /* \"#utility.yul\":2466:2472   */\n  dup3\n    /* \"#utility.yul\":2459:2464   */\n  dup2\n    /* \"#utility.yul\":2452:2473   */\n  mstore\n    /* \"#utility.yul\":2504:2508   */\n  0x20\n    /* \"#utility.yul\":2497:2502   */\n  dup2\n    /* \"#utility.yul\":2493:2509   */\n  add\n    /* \"#utility.yul\":2542:2545   */\n  dup5\n    /* \"#utility.yul\":2533:2539   */\n  dup5\n    /* \"#utility.yul\":2528:2531   */\n  dup5\n    /* \"#utility.yul\":2524:2540   */\n  add\n    /* \"#utility.yul\":2521:2546   */\n  gt\n    /* \"#utility.yul\":2518:2630   */\n  iszero\n  tag_86\n  jumpi\n    /* \"#utility.yul\":2549:2628   */\n  tag_87\n  tag_36\n  jump\t// in\ntag_87:\n    /* \"#utility.yul\":2518:2630   */\ntag_86:\n    /* \"#utility.yul\":2639:2691   */\n  tag_88\n    /* \"#utility.yul\":2684:2690   */\n  dup5\n    /* \"#utility.yul\":2679:2682   */\n  dup3\n    /* \"#utility.yul\":2674:2677   */\n  dup6\n    /* \"#utility.yul\":2639:2691   */\n  tag_42\n  jump\t// in\ntag_88:\n    /* \"#utility.yul\":2359:2697   */\n  pop\n    /* \"#utility.yul\":2265:2697   */\n  swap4\n  swap3\n  pop\n  pop\n  pop\n  jump\t// out\n    /* \"#utility.yul\":2716:3069   */\ntag_44:\n    /* \"#utility.yul\":2782:2787   */\n  0x00\n    /* \"#utility.yul\":2831:2834   */\n  dup3\n    /* \"#utility.yul\":2824:2828   */\n  0x1f\n    /* \"#utility.yul\":2816:2822   */\n  dup4\n    /* \"#utility.yul\":2812:2829   */\n  add\n    /* \"#utility.yul\":2808:2835   */\n  slt\n    /* \"#utility.yul\":2798:2920   */\n  tag_90\n  jumpi\n    /* \"#utility.yul\":2839:2918   */\n  tag_91\n  tag_35\n  jump\t// in\ntag_91:\n    /* \"#utility.yul\":2798:2920   */\ntag_90:\n    /* \"#utility.yul\":2949:2955   */\n  dup2\n    /* \"#utility.yul\":2943:2956   */\n  mload\n    /* \"#utility.yul\":2974:3063   */\n  tag_92\n    /* \"#utility.yul\":3059:3062   */\n  dup5\n    /* \"#utility.yul\":3051:3057   */\n  dup3\n    /* \"#utility.yul\":3044:3048   */\n  0x20\n    /* \"#utility.yul\":3036:3042   */\n  dup7\n    /* \"#utility.yul\":3032:3049   */\n  add\n    /* \"#utility.yul\":2974:3063   */\n  tag_43\n  jump\t// in\ntag_92:\n    /* \"#utility.yul\":2965:3063   */\n  swap2\n  pop\n    /* \"#utility.yul\":2788:3069   */\n  pop\n    /* \"#utility.yul\":2716:3069   */\n  swap3\n  swap2\n  pop\n  pop\n  jump\t// out\n    /* \"#utility.yul\":3075:3909   */\ntag_3:\n    /* \"#utility.yul\":3172:3178   */\n  0x00\n    /* \"#utility.yul\":3180:3186   */\n  0x00\n    /* \"#utility.yul\":3188:3194   */\n  0x00\n    /* \"#utility.yul\":3237:3239   */\n  0x60\n    /* \"#utility.yul\":3225:3234   */\n  dup5\n    /* \"#utility.yul\":3216:3223   */\n  dup7\n    /* \"#utility.yul\":3212:3235   */\n  sub\n    /* \"#utility.yul\":3208:3240   */\n  slt\n    /* \"#utility.yul\":3205:3324   */\n  iszero\n  tag_94\n  jumpi\n    /* \"#utility.yul\":3243:3322   */\n  tag_95\n  tag_29\n  jump\t// in\ntag_95:\n    /* \"#utility.yul\":3205:3324   */\ntag_94:\n    /* \"#utility.yul\":3363:3364   */\n  0x00\n    /* \"#utility.yul\":3388:3452   */\n  tag_96\n    /* \"#utility.yul\":3444:3451   */\n  dup7\n    /* \"#utility.yul\":3435:3441   */\n  dup3\n    /* \"#utility.yul\":3424:3433   */\n  dup8\n    /* \"#utility.yul\":3420:3442   */\n  add\n    /* \"#utility.yul\":3388:3452   */\n  tag_34\n  jump\t// in\ntag_96:\n    /* \"#utility.yul\":3378:3452   */\n  swap4\n  pop\n    /* \"#utility.yul\":3334:3462   */\n  pop\n    /* \"#utility.yul\":3501:3503   */\n  0x20\n    /* \"#utility.yul\":3527:3591   */\n  tag_97\n    /* \"#utility.yul\":3583:3590   */\n  dup7\n    /* \"#utility.yul\":3574:3580   */\n  dup3\n    /* \"#utility.yul\":3563:3572   */\n  dup8\n    /* \"#utility.yul\":3559:3581   */\n  add\n    /* \"#utility.yul\":3527:3591   */\n  tag_34\n  jump\t// in\ntag_97:\n    /* \"#utility.yul\":3517:3591   */\n  swap3\n  pop\n    /* \"#utility.yul\":3472:3601   */\n  pop\n    /* \"#utility.yul\":3661:3663   */\n  0x40\n    /* \"#utility.yul\":3650:3659   */\n  dup5\n    /* \"#utility.yul\":3646:3664   */\n  add\n    /* \"#utility.yul\":3640:3665   */\n  mload\n    /* \"#utility.yul\":3692:3710   */\n  0xffffffffffffffff\n    /* \"#utility.yul\":3684:3690   */\n  dup2\n    /* \"#utility.yul\":3681:3711   */\n  gt\n    /* \"#utility.yul\":3678:3795   */\n  iszero\n  tag_98\n  jumpi\n    /* \"#utility.yul\":3714:3793   */\n  tag_99\n  tag_30\n  jump\t// in\ntag_99:\n    /* \"#utility.yul\":3678:3795   */\ntag_98:\n    /* \"#utility.yul\":3819:3892   */\n  tag_100\n    /* \"#utility.yul\":3884:3891   */\n  dup7\n    /* \"#utility.yul\":3875:3881   */\n  dup3\n    /* \"#utility.yul\":3864:3873   */\n  dup8\n    /* \"#utility.yul\":3860:3882   */\n  add\n    /* \"#utility.yul\":3819:3892   */\n  tag_44\n  jump\t// in\ntag_100:\n    /* \"#utility.yul\":3809:3892   */\n  swap2\n  pop\n    /* \"#utility.yul\":3611:3902   */\n  pop\n    /* \"#utility.yul\":3075:3909   */\n  swap3\n  pop\n  swap3\n  pop\n  swap3\n  jump\t// out\n    /* \"#utility.yul\":3915:4084   */\ntag_45:\n    /* \"#utility.yul\":3999:4010   */\n  0x00\n    /* \"#utility.yul\":4033:4039   */\n  dup3\n    /* \"#utility.yul\":4028:4031   */\n  dup3\n    /* \"#utility.yul\":4021:4040   */\n  mstore\n    /* \"#utility.yul\":4073:4077   */\n  0x20\n    /* \"#utility.yul\":4068:4071   */\n  dup3\n    /* \"#utility.yul\":4064:4078   */\n  add\n    /* \"#utility.yul\":4049:4078   */\n  swap1\n  pop\n    /* \"#utility.yul\":3915:4084   */\n  swap3\n  swap2\n  pop\n  pop\n  jump\t// out\n    /* \"#utility.yul\":4090:4270   */\ntag_46:\n    /* \"#utility.yul\":4230:4262   */\n  0x496d706c656d656e746174696f6e206973207a65726f20616464726573730000\n    /* \"#utility.yul\":4226:4227   */\n  0x00\n    /* \"#utility.yul\":4218:4224   */\n  dup3\n    /* \"#utility.yul\":4214:4228   */\n  add\n    /* \"#utility.yul\":4207:4263   */\n  mstore\n    /* \"#utility.yul\":4090:4270   */\n  pop\n  jump\t// out\n    /* \"#utility.yul\":4276:4642   */\ntag_47:\n    /* \"#utility.yul\":4418:4421   */\n  0x00\n    /* \"#utility.yul\":4439:4506   */\n  tag_104\n    /* \"#utility.yul\":4503:4505   */\n  0x1e\n    /* \"#utility.yul\":4498:4501   */\n  dup4\n    /* \"#utility.yul\":4439:4506   */\n  tag_45\n  jump\t// in\ntag_104:\n    /* \"#utility.yul\":4432:4506   */\n  swap2\n  pop\n    /* \"#utility.yul\":4515:4608   */\n  tag_105\n    /* \"#utility.yul\":4604:4607   */\n  dup3\n    /* \"#utility.yul\":4515:4608   */\n  tag_46\n  jump\t// in\ntag_105:\n    /* \"#utility.yul\":4633:4635   */\n  0x20\n    /* \"#utility.yul\":4628:4631   */\n  dup3\n    /* \"#utility.yul\":4624:4636   */\n  add\n    /* \"#utility.yul\":4617:4636   */\n  swap1\n  pop\n    /* \"#utility.yul\":4276:4642   */\n  swap2\n  swap1\n  pop\n  jump\t// out\n    /* \"#utility.yul\":4648:5067   */\ntag_8:\n    /* \"#utility.yul\":4814:4818   */\n  0x00\n    /* \"#utility.yul\":4852:4854   */\n  0x20\n    /* \"#utility.yul\":4841:4850   */\n  dup3\n    /* \"#utility.yul\":4837:4855   */\n  add\n    /* \"#utility.yul\":4829:4855   */\n  swap1\n  pop\n    /* \"#utility.yul\":4901:4910   */\n  dup2\n    /* \"#utility.yul\":4895:4899   */\n  dup2\n    /* \"#utility.yul\":4891:4911   */\n  sub\n    /* \"#utility.yul\":4887:4888   */\n  0x00\n    /* \"#utility.yul\":4876:4885   */\n  dup4\n    /* \"#utility.yul\":4872:4889   */\n  add\n    /* \"#utility.yul\":4865:4912   */\n  mstore\n    /* \"#utility.yul\":4929:5060   */\n  tag_107\n    /* \"#utility.yul\":5055:5059   */\n  dup2\n    /* \"#utility.yul\":4929:5060   */\n  tag_47\n  jump\t// in\ntag_107:\n    /* \"#utility.yul\":4921:5060   */\n  swap1\n  pop\n    /* \"#utility.yul\":4648:5067   */\n  swap2\n  swap1\n  pop\n  jump\t// out\n    /* \"#utility.yul\":5073:5244   */\ntag_48:\n    /* \"#utility.yul\":5213:5236   */\n  0x41646d696e206973207a65726f20616464726573730000000000000000000000\n    /* \"#utility.yul\":5209:5210   */\n  0x00\n    /* \"#utility.yul\":5201:5207   */\n  dup3\n    /* \"#utility.yul\":5197:5211   */\n  add\n    /* \"#utility.yul\":5190:5237   */\n  mstore\n    /* \"#utility.yul\":5073:5244   */\n  pop\n  jump\t// out\n    /* \"#utility.yul\":5250:5616   */\ntag_49:\n    /* \"#utility.yul\":5392:5395   */\n  0x00\n    /* \"#utility.yul\":5413:5480   */\n  tag_110\n    /* \"#utility.yul\":5477:5479   */\n  0x15\n    /* \"#utility.yul\":5472:5475   */\n  dup4\n    /* \"#utility.yul\":5413:5480   */\n  tag_45\n  jump\t// in\ntag_110:\n    /* \"#utility.yul\":5406:5480   */\n  swap2\n  pop\n    /* \"#utility.yul\":5489:5582   */\n  tag_111\n    /* \"#utility.yul\":5578:5581   */\n  dup3\n    /* \"#utility.yul\":5489:5582   */\n  tag_48\n  jump\t// in\ntag_111:\n    /* \"#utility.yul\":5607:5609   */\n  0x20\n    /* \"#utility.yul\":5602:5605   */\n  dup3\n    /* \"#utility.yul\":5598:5610   */\n  add\n    /* \"#utility.yul\":5591:5610   */\n  swap1\n  pop\n    /* \"#utility.yul\":5250:5616   */\n  swap2\n  swap1\n  pop\n  jump\t// out\n    /* \"#utility.yul\":5622:6041   */\ntag_11:\n    /* \"#utility.yul\":5788:5792   */\n  0x00\n    /* \"#utility.yul\":5826:5828   */\n  0x20\n    /* \"#utility.yul\":5815:5824   */\n  dup3\n    /* \"#utility.yul\":5811:5829   */\n  add\n    /* \"#utility.yul\":5803:5829   */\n  swap1\n  pop\n    /* \"#utility.yul\":5875:5884   */\n  dup2\n    /* \"#utility.yul\":5869:5873   */\n  dup2\n    /* \"#utility.yul\":5865:5885   */\n  sub\n    /* \"#utility.yul\":5861:5862   */\n  0x00\n    /* \"#utility.yul\":5850:5859   */\n  dup4\n    /* \"#utility.yul\":5846:5863   */\n  add\n    /* \"#utility.yul\":5839:5886   */\n  mstore\n    /* \"#utility.yul\":5903:6034   */\n  tag_113\n    /* \"#utility.yul\":6029:6033   */\n  dup2\n    /* \"#utility.yul\":5903:6034   */\n  tag_49\n  jump\t// in\ntag_113:\n    /* \"#utility.yul\":5895:6034   */\n  swap1\n  pop\n    /* \"#utility.yul\":5622:6041   */\n  swap2\n  swap1\n  pop\n  jump\t// out\n    /* \"#utility.yul\":6047:6145   */\ntag_50:\n    /* \"#utility.yul\":6098:6104   */\n  0x00\n    /* \"#utility.yul\":6132:6137   */\n  dup2\n    /* \"#utility.yul\":6126:6138   */\n  mload\n    /* \"#utility.yul\":6116:6138   */\n  swap1\n  pop\n    /* \"#utility.yul\":6047:6145   */\n  swap2\n  swap1\n  pop\n  jump\t// out\n    /* \"#utility.yul\":6151:6298   */\ntag_51:\n    /* \"#utility.yul\":6252:6263   */\n  0x00\n    /* \"#utility.yul\":6289:6292   */\n  dup2\n    /* \"#utility.yul\":6274:6292   */\n  swap1\n  pop\n    /* \"#utility.yul\":6151:6298   */\n  swap3\n  swap2\n  pop\n  pop\n  jump\t// out\n    /* \"#utility.yul\":6304:6690   */\ntag_52:\n    /* \"#utility.yul\":6408:6411   */\n  0x00\n    /* \"#utility.yul\":6436:6474   */\n  tag_117\n    /* \"#utility.yul\":6468:6473   */\n  dup3\n    /* \"#utility.yul\":6436:6474   */\n  tag_50\n  jump\t// in\ntag_117:\n    /* \"#utility.yul\":6490:6578   */\n  tag_118\n    /* \"#utility.yul\":6571:6577   */\n  dup2\n    /* \"#utility.yul\":6566:6569   */\n  dup6\n    /* \"#utility.yul\":6490:6578   */\n  tag_51\n  jump\t// in\ntag_118:\n    /* \"#utility.yul\":6483:6578   */\n  swap4\n  pop\n    /* \"#utility.yul\":6587:6652   */\n  tag_119\n    /* \"#utility.yul\":6645:6651   */\n  dup2\n    /* \"#utility.yul\":6640:6643   */\n  dup6\n    /* \"#utility.yul\":6633:6637   */\n  0x20\n    /* \"#utility.yul\":6626:6631   */\n  dup7\n    /* \"#utility.yul\":6622:6638   */\n  add\n    /* \"#utility.yul\":6587:6652   */\n  tag_42\n  jump\t// in\ntag_119:\n    /* \"#utility.yul\":6677:6683   */\n  dup1\n    /* \"#utility.yul\":6672:6675   */\n  dup5\n    /* \"#utility.yul\":6668:6684   */\n  add\n    /* \"#utility.yul\":6661:6684   */\n  swap2\n  pop\n    /* \"#utility.yul\":6412:6690   */\n  pop\n    /* \"#utility.yul\":6304:6690   */\n  swap3\n  swap2\n  pop\n  pop\n  jump\t// out\n    /* \"#utility.yul\":6696:6967   */\ntag_18:\n    /* \"#utility.yul\":6826:6829   */\n  0x00\n    /* \"#utility.yul\":6848:6941   */\n  tag_121\n    /* \"#utility.yul\":6937:6940   */\n  dup3\n    /* \"#utility.yul\":6928:6934   */\n  dup5\n    /* \"#utility.yul\":6848:6941   */\n  tag_52\n  jump\t// in\ntag_121:\n    /* \"#utility.yul\":6841:6941   */\n  swap2\n  pop\n    /* \"#utility.yul\":6958:6961   */\n  dup2\n    /* \"#utility.yul\":6951:6961   */\n  swap1\n  pop\n    /* \"#utility.yul\":6696:6967   */\n  swap3\n  swap2\n  pop\n  pop\n  jump\t// out\n    /* \"#utility.yul\":6973:7144   */\ntag_53:\n    /* \"#utility.yul\":7113:7136   */\n  0x496e697469616c697a6174696f6e206661696c65640000000000000000000000\n    /* \"#utility.yul\":7109:7110   */\n  0x00\n    /* \"#utility.yul\":7101:7107   */\n  dup3\n    /* \"#utility.yul\":7097:7111   */\n  add\n    /* \"#utility.yul\":7090:7137   */\n  mstore\n    /* \"#utility.yul\":6973:7144   */\n  pop\n  jump\t// out\n    /* \"#utility.yul\":7150:7516   */\ntag_54:\n    /* \"#utility.yul\":7292:7295   */\n  0x00\n    /* \"#utility.yul\":7313:7380   */\n  tag_124\n    /* \"#utility.yul\":7377:7379   */\n  0x15\n    /* \"#utility.yul\":7372:7375   */\n  dup4\n    /* \"#utility.yul\":7313:7380   */\n  tag_45\n  jump\t// in\ntag_124:\n    /* \"#utility.yul\":7306:7380   */\n  swap2\n  pop\n    /* \"#utility.yul\":7389:7482   */\n  tag_125\n    /* \"#utility.yul\":7478:7481   */\n  dup3\n    /* \"#utility.yul\":7389:7482   */\n  tag_53\n  jump\t// in\ntag_125:\n    /* \"#utility.yul\":7507:7509   */\n  0x20\n    /* \"#utility.yul\":7502:7505   */\n  dup3\n    /* \"#utility.yul\":7498:7510   */\n  add\n    /* \"#utility.yul\":7491:7510   */\n  swap1\n  pop\n    /* \"#utility.yul\":7150:7516   */\n  swap2\n  swap1\n  pop\n  jump\t// out\n    /* \"#utility.yul\":7522:7941   */\ntag_24:\n    /* \"#utility.yul\":7688:7692   */\n  0x00\n    /* \"#utility.yul\":7726:7728   */\n  0x20\n    /* \"#utility.yul\":7715:7724   */\n  dup3\n    /* \"#utility.yul\":7711:7729   */\n  add\n    /* \"#utility.yul\":7703:7729   */\n  swap1\n  pop\n    /* \"#utility.yul\":7775:7784   */\n  dup2\n    /* \"#utility.yul\":7769:7773   */\n  dup2\n    /* \"#utility.yul\":7765:7785   */\n  sub\n    /* \"#utility.yul\":7761:7762   */\n  0x00\n    /* \"#utility.yul\":7750:7759   */\n  dup4\n    /* \"#utility.yul\":7746:7763   */\n  add\n    /* \"#utility.yul\":7739:7786   */\n  mstore\n    /* \"#utility.yul\":7803:7934   */\n  tag_127\n    /* \"#utility.yul\":7929:7933   */\n  dup2\n    /* \"#utility.yul\":7803:7934   */\n  tag_54\n  jump\t// in\ntag_127:\n    /* \"#utility.yul\":7795:7934   */\n  swap1\n  pop\n    /* \"#utility.yul\":7522:7941   */\n  swap2\n  swap1\n  pop\n  jump\t// out\n    /* \"contracts/Proxy deployment contracts/allInOneProxyAdmin.sol\":1168:5774  contract SimpleProxy {... */\ntag_25:\n  dataSize(sub_0)\n  dup1\n  dataOffset(sub_0)\n  0x00\n  codecopy\n  0x00\n  return\nstop\n\nsub_0: assembly {\n        /* \"contracts/Proxy deployment contracts/allInOneProxyAdmin.sol\":1168:5774  contract SimpleProxy {... */\n      mstore(0x40, 0x80)\n      jumpi(tag_1, lt(calldatasize, 0x04))\n      shr(0xe0, calldataload(0x00))\n      dup1\n      0x3659cfe6\n      eq\n      tag_3\n      jumpi\n      dup1\n      0x6e9960c3\n      eq\n      tag_4\n      jumpi\n      dup1\n      0x8f283970\n      eq\n      tag_5\n      jumpi\n      dup1\n      0xaaf10f42\n      eq\n      tag_6\n      jumpi\n      jump(tag_2)\n    tag_1:\n      jumpi(tag_2, calldatasize)\n        /* \"contracts/Proxy deployment contracts/allInOneProxyAdmin.sol\":4540:4552  address impl */\n      0x00\n        /* \"contracts/Proxy deployment contracts/allInOneProxyAdmin.sol\":4555:4575  _getImplementation() */\n      tag_9\n        /* \"contracts/Proxy deployment contracts/allInOneProxyAdmin.sol\":4555:4573  _getImplementation */\n      tag_10\n        /* \"contracts/Proxy deployment contracts/allInOneProxyAdmin.sol\":4555:4575  _getImplementation() */\n      jump\t// in\n    tag_9:\n        /* \"contracts/Proxy deployment contracts/allInOneProxyAdmin.sol\":4540:4575  address impl = _getImplementation() */\n      swap1\n      pop\n        /* \"contracts/Proxy deployment contracts/allInOneProxyAdmin.sol\":4659:4660  0 */\n      0x00\n        /* \"contracts/Proxy deployment contracts/allInOneProxyAdmin.sol\":4656:4657  0 */\n      0x00\n        /* \"contracts/Proxy deployment contracts/allInOneProxyAdmin.sol\":4653:4654  0 */\n      0x00\n        /* \"contracts/Proxy deployment contracts/allInOneProxyAdmin.sol\":4650:4651  0 */\n      0x00\n        /* \"contracts/Proxy deployment contracts/allInOneProxyAdmin.sol\":4644:4648  impl */\n      dup5\n        /* \"contracts/Proxy deployment contracts/allInOneProxyAdmin.sol\":4637:4642  gas() */\n      gas\n        /* \"contracts/Proxy deployment contracts/allInOneProxyAdmin.sol\":4624:4661  delegatecall(gas(), impl, 0, 0, 0, 0) */\n      delegatecall\n        /* \"contracts/Proxy deployment contracts/allInOneProxyAdmin.sol\":4696:4712  returndatasize() */\n      returndatasize\n        /* \"contracts/Proxy deployment contracts/allInOneProxyAdmin.sol\":4693:4694  0 */\n      0x00\n        /* \"contracts/Proxy deployment contracts/allInOneProxyAdmin.sol\":4690:4691  0 */\n      0x00\n        /* \"contracts/Proxy deployment contracts/allInOneProxyAdmin.sol\":4675:4713  returndatacopy(0, 0, returndatasize()) */\n      returndatacopy\n        /* \"contracts/Proxy deployment contracts/allInOneProxyAdmin.sol\":4734:4740  result */\n      dup1\n        /* \"contracts/Proxy deployment contracts/allInOneProxyAdmin.sol\":4759:4760  0 */\n      0x00\n        /* \"contracts/Proxy deployment contracts/allInOneProxyAdmin.sol\":4754:4792  case 0 { revert(0, returndatasize()) } */\n      dup2\n      eq\n      tag_12\n      jumpi\n        /* \"contracts/Proxy deployment contracts/allInOneProxyAdmin.sol\":4826:4842  returndatasize() */\n      returndatasize\n        /* \"contracts/Proxy deployment contracts/allInOneProxyAdmin.sol\":4823:4824  0 */\n      0x00\n        /* \"contracts/Proxy deployment contracts/allInOneProxyAdmin.sol\":4816:4843  return(0, returndatasize()) */\n      return\n        /* \"contracts/Proxy deployment contracts/allInOneProxyAdmin.sol\":4754:4792  case 0 { revert(0, returndatasize()) } */\n    tag_12:\n        /* \"contracts/Proxy deployment contracts/allInOneProxyAdmin.sol\":4773:4789  returndatasize() */\n      returndatasize\n        /* \"contracts/Proxy deployment contracts/allInOneProxyAdmin.sol\":4770:4771  0 */\n      0x00\n        /* \"contracts/Proxy deployment contracts/allInOneProxyAdmin.sol\":4763:4790  revert(0, returndatasize()) */\n      revert\n        /* \"contracts/Proxy deployment contracts/allInOneProxyAdmin.sol\":1168:5774  contract SimpleProxy {... */\n    tag_2:\n        /* \"contracts/Proxy deployment contracts/allInOneProxyAdmin.sol\":3492:3504  address impl */\n      0x00\n        /* \"contracts/Proxy deployment contracts/allInOneProxyAdmin.sol\":3507:3527  _getImplementation() */\n      tag_15\n        /* \"contracts/Proxy deployment contracts/allInOneProxyAdmin.sol\":3507:3525  _getImplementation */\n      tag_10\n        /* \"contracts/Proxy deployment contracts/allInOneProxyAdmin.sol\":3507:3527  _getImplementation() */\n      jump\t// in\n    tag_15:\n        /* \"contracts/Proxy deployment contracts/allInOneProxyAdmin.sol\":3492:3527  address impl = _getImplementation() */\n      swap1\n      pop\n        /* \"contracts/Proxy deployment contracts/allInOneProxyAdmin.sol\":3704:3718  calldatasize() */\n      calldatasize\n        /* \"contracts/Proxy deployment contracts/allInOneProxyAdmin.sol\":3701:3702  0 */\n      0x00\n        /* \"contracts/Proxy deployment contracts/allInOneProxyAdmin.sol\":3698:3699  0 */\n      0x00\n        /* \"contracts/Proxy deployment contracts/allInOneProxyAdmin.sol\":3685:3719  calldatacopy(0, 0, calldatasize()) */\n      calldatacopy\n        /* \"contracts/Proxy deployment contracts/allInOneProxyAdmin.sol\":3942:3943  0 */\n      0x00\n        /* \"contracts/Proxy deployment contracts/allInOneProxyAdmin.sol\":3939:3940  0 */\n      0x00\n        /* \"contracts/Proxy deployment contracts/allInOneProxyAdmin.sol\":3923:3937  calldatasize() */\n      calldatasize\n        /* \"contracts/Proxy deployment contracts/allInOneProxyAdmin.sol\":3920:3921  0 */\n      0x00\n        /* \"contracts/Proxy deployment contracts/allInOneProxyAdmin.sol\":3914:3918  impl */\n      dup5\n        /* \"contracts/Proxy deployment contracts/allInOneProxyAdmin.sol\":3907:3912  gas() */\n      gas\n        /* \"contracts/Proxy deployment contracts/allInOneProxyAdmin.sol\":3894:3944  delegatecall(gas(), impl, 0, calldatasize(), 0, 0) */\n      delegatecall\n        /* \"contracts/Proxy deployment contracts/allInOneProxyAdmin.sol\":4028:4044  returndatasize() */\n      returndatasize\n        /* \"contracts/Proxy deployment contracts/allInOneProxyAdmin.sol\":4025:4026  0 */\n      0x00\n        /* \"contracts/Proxy deployment contracts/allInOneProxyAdmin.sol\":4022:4023  0 */\n      0x00\n        /* \"contracts/Proxy deployment contracts/allInOneProxyAdmin.sol\":4007:4045  returndatacopy(0, 0, returndatasize()) */\n      returndatacopy\n        /* \"contracts/Proxy deployment contracts/allInOneProxyAdmin.sol\":4129:4135  result */\n      dup1\n        /* \"contracts/Proxy deployment contracts/allInOneProxyAdmin.sol\":4154:4155  0 */\n      0x00\n        /* \"contracts/Proxy deployment contracts/allInOneProxyAdmin.sol\":4149:4284  case 0 {... */\n      dup2\n      eq\n      tag_17\n      jumpi\n        /* \"contracts/Proxy deployment contracts/allInOneProxyAdmin.sol\":4405:4421  returndatasize() */\n      returndatasize\n        /* \"contracts/Proxy deployment contracts/allInOneProxyAdmin.sol\":4402:4403  0 */\n      0x00\n        /* \"contracts/Proxy deployment contracts/allInOneProxyAdmin.sol\":4395:4422  return(0, returndatasize()) */\n      return\n        /* \"contracts/Proxy deployment contracts/allInOneProxyAdmin.sol\":4149:4284  case 0 {... */\n    tag_17:\n        /* \"contracts/Proxy deployment contracts/allInOneProxyAdmin.sol\":4252:4268  returndatasize() */\n      returndatasize\n        /* \"contracts/Proxy deployment contracts/allInOneProxyAdmin.sol\":4249:4250  0 */\n      0x00\n        /* \"contracts/Proxy deployment contracts/allInOneProxyAdmin.sol\":4242:4269  revert(0, returndatasize()) */\n      revert\n        /* \"contracts/Proxy deployment contracts/allInOneProxyAdmin.sol\":2211:2525  function upgradeTo(address newImplementation) external {... */\n    tag_3:\n      callvalue\n      dup1\n      iszero\n      tag_18\n      jumpi\n      revert(0x00, 0x00)\n    tag_18:\n      pop\n      tag_19\n      0x04\n      dup1\n      calldatasize\n      sub\n      dup2\n      add\n      swap1\n      tag_20\n      swap2\n      swap1\n      tag_21\n      jump\t// in\n    tag_20:\n      tag_22\n      jump\t// in\n    tag_19:\n      stop\n        /* \"contracts/Proxy deployment contracts/allInOneProxyAdmin.sol\":3225:3388  function getAdmin() external view returns (address) {... */\n    tag_4:\n      callvalue\n      dup1\n      iszero\n      tag_23\n      jumpi\n      revert(0x00, 0x00)\n    tag_23:\n      pop\n      tag_24\n      tag_25\n      jump\t// in\n    tag_24:\n      mload(0x40)\n      tag_26\n      swap2\n      swap1\n      tag_27\n      jump\t// in\n    tag_26:\n      mload(0x40)\n      dup1\n      swap2\n      sub\n      swap1\n      return\n        /* \"contracts/Proxy deployment contracts/allInOneProxyAdmin.sol\":2852:3174  function changeAdmin(address newAdmin) external {... */\n    tag_5:\n      callvalue\n      dup1\n      iszero\n      tag_28\n      jumpi\n      revert(0x00, 0x00)\n    tag_28:\n      pop\n      tag_29\n      0x04\n      dup1\n      calldatasize\n      sub\n      dup2\n      add\n      swap1\n      tag_30\n      swap2\n      swap1\n      tag_21\n      jump\t// in\n    tag_30:\n      tag_31\n      jump\t// in\n    tag_29:\n      stop\n        /* \"contracts/Proxy deployment contracts/allInOneProxyAdmin.sol\":2616:2806  function getImplementation() external view returns (address) {... */\n    tag_6:\n      callvalue\n      dup1\n      iszero\n      tag_32\n      jumpi\n      revert(0x00, 0x00)\n    tag_32:\n      pop\n      tag_33\n      tag_34\n      jump\t// in\n    tag_33:\n      mload(0x40)\n      tag_35\n      swap2\n      swap1\n      tag_27\n      jump\t// in\n    tag_35:\n      mload(0x40)\n      dup1\n      swap2\n      sub\n      swap1\n      return\n        /* \"contracts/Proxy deployment contracts/allInOneProxyAdmin.sol\":4925:5109  function _getImplementation() internal view returns (address impl) {... */\n    tag_10:\n        /* \"contracts/Proxy deployment contracts/allInOneProxyAdmin.sol\":4978:4990  address impl */\n      0x00\n        /* \"contracts/Proxy deployment contracts/allInOneProxyAdmin.sol\":5003:5015  bytes32 slot */\n      0x00\n        /* \"contracts/Proxy deployment contracts/allInOneProxyAdmin.sol\":1307:1340  keccak256(\"proxy.implementation\") */\n      0x24ed44ee9374370fd3aa7c8b1abf58827504c20f65246b17d2b9e7e1aef77847\n        /* \"contracts/Proxy deployment contracts/allInOneProxyAdmin.sol\":5003:5037  bytes32 slot = IMPLEMENTATION_SLOT */\n      swap1\n      pop\n        /* \"contracts/Proxy deployment contracts/allInOneProxyAdmin.sol\":5086:5090  slot */\n      dup1\n        /* \"contracts/Proxy deployment contracts/allInOneProxyAdmin.sol\":5080:5091  sload(slot) */\n      sload\n        /* \"contracts/Proxy deployment contracts/allInOneProxyAdmin.sol\":5072:5091  impl := sload(slot) */\n      swap2\n      pop\n        /* \"contracts/Proxy deployment contracts/allInOneProxyAdmin.sol\":5057:5102  {... */\n      pop\n        /* \"contracts/Proxy deployment contracts/allInOneProxyAdmin.sol\":4925:5109  function _getImplementation() internal view returns (address impl) {... */\n      swap1\n      jump\t// out\n        /* \"contracts/Proxy deployment contracts/allInOneProxyAdmin.sol\":2211:2525  function upgradeTo(address newImplementation) external {... */\n    tag_22:\n        /* \"contracts/Proxy deployment contracts/allInOneProxyAdmin.sol\":2299:2310  _getAdmin() */\n      tag_38\n        /* \"contracts/Proxy deployment contracts/allInOneProxyAdmin.sol\":2299:2308  _getAdmin */\n      tag_39\n        /* \"contracts/Proxy deployment contracts/allInOneProxyAdmin.sol\":2299:2310  _getAdmin() */\n      jump\t// in\n    tag_38:\n        /* \"contracts/Proxy deployment contracts/allInOneProxyAdmin.sol\":2285:2310  msg.sender == _getAdmin() */\n      0xffffffffffffffffffffffffffffffffffffffff\n      and\n        /* \"contracts/Proxy deployment contracts/allInOneProxyAdmin.sol\":2285:2295  msg.sender */\n      caller\n        /* \"contracts/Proxy deployment contracts/allInOneProxyAdmin.sol\":2285:2310  msg.sender == _getAdmin() */\n      0xffffffffffffffffffffffffffffffffffffffff\n      and\n      eq\n        /* \"contracts/Proxy deployment contracts/allInOneProxyAdmin.sol\":2277:2337  require(msg.sender == _getAdmin(), \"Only admin can upgrade\") */\n      tag_40\n      jumpi\n      mload(0x40)\n      0x08c379a000000000000000000000000000000000000000000000000000000000\n      dup2\n      mstore\n      0x04\n      add\n      tag_41\n      swap1\n      tag_42\n      jump\t// in\n    tag_41:\n      mload(0x40)\n      dup1\n      swap2\n      sub\n      swap1\n      revert\n    tag_40:\n        /* \"contracts/Proxy deployment contracts/allInOneProxyAdmin.sol\":2385:2386  0 */\n      0x00\n        /* \"contracts/Proxy deployment contracts/allInOneProxyAdmin.sol\":2356:2387  newImplementation != address(0) */\n      0xffffffffffffffffffffffffffffffffffffffff\n      and\n        /* \"contracts/Proxy deployment contracts/allInOneProxyAdmin.sol\":2356:2373  newImplementation */\n      dup2\n        /* \"contracts/Proxy deployment contracts/allInOneProxyAdmin.sol\":2356:2387  newImplementation != address(0) */\n      0xffffffffffffffffffffffffffffffffffffffff\n      and\n      sub\n        /* \"contracts/Proxy deployment contracts/allInOneProxyAdmin.sol\":2348:2426  require(newImplementation != address(0), \"New implementation is zero address\") */\n      tag_43\n      jumpi\n      mload(0x40)\n      0x08c379a000000000000000000000000000000000000000000000000000000000\n      dup2\n      mstore\n      0x04\n      add\n      tag_44\n      swap1\n      tag_45\n      jump\t// in\n    tag_44:\n      mload(0x40)\n      dup1\n      swap2\n      sub\n      swap1\n      revert\n    tag_43:\n        /* \"contracts/Proxy deployment contracts/allInOneProxyAdmin.sol\":2437:2474  _setImplementation(newImplementation) */\n      tag_46\n        /* \"contracts/Proxy deployment contracts/allInOneProxyAdmin.sol\":2456:2473  newImplementation */\n      dup2\n        /* \"contracts/Proxy deployment contracts/allInOneProxyAdmin.sol\":2437:2455  _setImplementation */\n      tag_47\n        /* \"contracts/Proxy deployment contracts/allInOneProxyAdmin.sol\":2437:2474  _setImplementation(newImplementation) */\n      jump\t// in\n    tag_46:\n        /* \"contracts/Proxy deployment contracts/allInOneProxyAdmin.sol\":2499:2516  newImplementation */\n      dup1\n        /* \"contracts/Proxy deployment contracts/allInOneProxyAdmin.sol\":2490:2517  Upgraded(newImplementation) */\n      0xffffffffffffffffffffffffffffffffffffffff\n      and\n      0xbc7cd75a20ee27fd9adebab32041f755214dbc6bffa90cc0225b39da2e5c2d3b\n      mload(0x40)\n      mload(0x40)\n      dup1\n      swap2\n      sub\n      swap1\n      log2\n        /* \"contracts/Proxy deployment contracts/allInOneProxyAdmin.sol\":2211:2525  function upgradeTo(address newImplementation) external {... */\n      pop\n      jump\t// out\n        /* \"contracts/Proxy deployment contracts/allInOneProxyAdmin.sol\":3225:3388  function getAdmin() external view returns (address) {... */\n    tag_25:\n        /* \"contracts/Proxy deployment contracts/allInOneProxyAdmin.sol\":3268:3275  address */\n      0x00\n        /* \"contracts/Proxy deployment contracts/allInOneProxyAdmin.sol\":3310:3321  _getAdmin() */\n      tag_49\n        /* \"contracts/Proxy deployment contracts/allInOneProxyAdmin.sol\":3310:3319  _getAdmin */\n      tag_39\n        /* \"contracts/Proxy deployment contracts/allInOneProxyAdmin.sol\":3310:3321  _getAdmin() */\n      jump\t// in\n    tag_49:\n        /* \"contracts/Proxy deployment contracts/allInOneProxyAdmin.sol\":3296:3321  msg.sender == _getAdmin() */\n      0xffffffffffffffffffffffffffffffffffffffff\n      and\n        /* \"contracts/Proxy deployment contracts/allInOneProxyAdmin.sol\":3296:3306  msg.sender */\n      caller\n        /* \"contracts/Proxy deployment contracts/allInOneProxyAdmin.sol\":3296:3321  msg.sender == _getAdmin() */\n      0xffffffffffffffffffffffffffffffffffffffff\n      and\n      eq\n        /* \"contracts/Proxy deployment contracts/allInOneProxyAdmin.sol\":3288:3351  require(msg.sender == _getAdmin(), \"Only admin can view admin\") */\n      tag_50\n      jumpi\n      mload(0x40)\n      0x08c379a000000000000000000000000000000000000000000000000000000000\n      dup2\n      mstore\n      0x04\n      add\n      tag_51\n      swap1\n      tag_52\n      jump\t// in\n    tag_51:\n      mload(0x40)\n      dup1\n      swap2\n      sub\n      swap1\n      revert\n    tag_50:\n        /* \"contracts/Proxy deployment contracts/allInOneProxyAdmin.sol\":3369:3380  _getAdmin() */\n      tag_53\n        /* \"contracts/Proxy deployment contracts/allInOneProxyAdmin.sol\":3369:3378  _getAdmin */\n      tag_39\n        /* \"contracts/Proxy deployment contracts/allInOneProxyAdmin.sol\":3369:3380  _getAdmin() */\n      jump\t// in\n    tag_53:\n        /* \"contracts/Proxy deployment contracts/allInOneProxyAdmin.sol\":3362:3380  return _getAdmin() */\n      swap1\n      pop\n        /* \"contracts/Proxy deployment contracts/allInOneProxyAdmin.sol\":3225:3388  function getAdmin() external view returns (address) {... */\n      swap1\n      jump\t// out\n        /* \"contracts/Proxy deployment contracts/allInOneProxyAdmin.sol\":2852:3174  function changeAdmin(address newAdmin) external {... */\n    tag_31:\n        /* \"contracts/Proxy deployment contracts/allInOneProxyAdmin.sol\":2933:2944  _getAdmin() */\n      tag_55\n        /* \"contracts/Proxy deployment contracts/allInOneProxyAdmin.sol\":2933:2942  _getAdmin */\n      tag_39\n        /* \"contracts/Proxy deployment contracts/allInOneProxyAdmin.sol\":2933:2944  _getAdmin() */\n      jump\t// in\n    tag_55:\n        /* \"contracts/Proxy deployment contracts/allInOneProxyAdmin.sol\":2919:2944  msg.sender == _getAdmin() */\n      0xffffffffffffffffffffffffffffffffffffffff\n      and\n        /* \"contracts/Proxy deployment contracts/allInOneProxyAdmin.sol\":2919:2929  msg.sender */\n      caller\n        /* \"contracts/Proxy deployment contracts/allInOneProxyAdmin.sol\":2919:2944  msg.sender == _getAdmin() */\n      0xffffffffffffffffffffffffffffffffffffffff\n      and\n      eq\n        /* \"contracts/Proxy deployment contracts/allInOneProxyAdmin.sol\":2911:2976  require(msg.sender == _getAdmin(), \"Only admin can change admin\") */\n      tag_56\n      jumpi\n      mload(0x40)\n      0x08c379a000000000000000000000000000000000000000000000000000000000\n      dup2\n      mstore\n      0x04\n      add\n      tag_57\n      swap1\n      tag_58\n      jump\t// in\n    tag_57:\n      mload(0x40)\n      dup1\n      swap2\n      sub\n      swap1\n      revert\n    tag_56:\n        /* \"contracts/Proxy deployment contracts/allInOneProxyAdmin.sol\":3015:3016  0 */\n      0x00\n        /* \"contracts/Proxy deployment contracts/allInOneProxyAdmin.sol\":2995:3017  newAdmin != address(0) */\n      0xffffffffffffffffffffffffffffffffffffffff\n      and\n        /* \"contracts/Proxy deployment contracts/allInOneProxyAdmin.sol\":2995:3003  newAdmin */\n      dup2\n        /* \"contracts/Proxy deployment contracts/allInOneProxyAdmin.sol\":2995:3017  newAdmin != address(0) */\n      0xffffffffffffffffffffffffffffffffffffffff\n      and\n      sub\n        /* \"contracts/Proxy deployment contracts/allInOneProxyAdmin.sol\":2987:3047  require(newAdmin != address(0), \"New admin is zero address\") */\n      tag_59\n      jumpi\n      mload(0x40)\n      0x08c379a000000000000000000000000000000000000000000000000000000000\n      dup2\n      mstore\n      0x04\n      add\n      tag_60\n      swap1\n      tag_61\n      jump\t// in\n    tag_60:\n      mload(0x40)\n      dup1\n      swap2\n      sub\n      swap1\n      revert\n    tag_59:\n        /* \"contracts/Proxy deployment contracts/allInOneProxyAdmin.sol\":3058:3074  address oldAdmin */\n      0x00\n        /* \"contracts/Proxy deployment contracts/allInOneProxyAdmin.sol\":3077:3088  _getAdmin() */\n      tag_62\n        /* \"contracts/Proxy deployment contracts/allInOneProxyAdmin.sol\":3077:3086  _getAdmin */\n      tag_39\n        /* \"contracts/Proxy deployment contracts/allInOneProxyAdmin.sol\":3077:3088  _getAdmin() */\n      jump\t// in\n    tag_62:\n        /* \"contracts/Proxy deployment contracts/allInOneProxyAdmin.sol\":3058:3088  address oldAdmin = _getAdmin() */\n      swap1\n      pop\n        /* \"contracts/Proxy deployment contracts/allInOneProxyAdmin.sol\":3099:3118  _setAdmin(newAdmin) */\n      tag_63\n        /* \"contracts/Proxy deployment contracts/allInOneProxyAdmin.sol\":3109:3117  newAdmin */\n      dup3\n        /* \"contracts/Proxy deployment contracts/allInOneProxyAdmin.sol\":3099:3108  _setAdmin */\n      tag_64\n        /* \"contracts/Proxy deployment contracts/allInOneProxyAdmin.sol\":3099:3118  _setAdmin(newAdmin) */\n      jump\t// in\n    tag_63:\n        /* \"contracts/Proxy deployment contracts/allInOneProxyAdmin.sol\":3157:3165  newAdmin */\n      dup2\n        /* \"contracts/Proxy deployment contracts/allInOneProxyAdmin.sol\":3134:3166  AdminChanged(oldAdmin, newAdmin) */\n      0xffffffffffffffffffffffffffffffffffffffff\n      and\n        /* \"contracts/Proxy deployment contracts/allInOneProxyAdmin.sol\":3147:3155  oldAdmin */\n      dup2\n        /* \"contracts/Proxy deployment contracts/allInOneProxyAdmin.sol\":3134:3166  AdminChanged(oldAdmin, newAdmin) */\n      0xffffffffffffffffffffffffffffffffffffffff\n      and\n      0x7e644d79422f17c01e4894b5f4f588d331ebfa28653d42ae832dc59e38c9798f\n      mload(0x40)\n      mload(0x40)\n      dup1\n      swap2\n      sub\n      swap1\n      log3\n        /* \"contracts/Proxy deployment contracts/allInOneProxyAdmin.sol\":2900:3174  {... */\n      pop\n        /* \"contracts/Proxy deployment contracts/allInOneProxyAdmin.sol\":2852:3174  function changeAdmin(address newAdmin) external {... */\n      pop\n      jump\t// out\n        /* \"contracts/Proxy deployment contracts/allInOneProxyAdmin.sol\":2616:2806  function getImplementation() external view returns (address) {... */\n    tag_34:\n        /* \"contracts/Proxy deployment contracts/allInOneProxyAdmin.sol\":2668:2675  address */\n      0x00\n        /* \"contracts/Proxy deployment contracts/allInOneProxyAdmin.sol\":2710:2721  _getAdmin() */\n      tag_66\n        /* \"contracts/Proxy deployment contracts/allInOneProxyAdmin.sol\":2710:2719  _getAdmin */\n      tag_39\n        /* \"contracts/Proxy deployment contracts/allInOneProxyAdmin.sol\":2710:2721  _getAdmin() */\n      jump\t// in\n    tag_66:\n        /* \"contracts/Proxy deployment contracts/allInOneProxyAdmin.sol\":2696:2721  msg.sender == _getAdmin() */\n      0xffffffffffffffffffffffffffffffffffffffff\n      and\n        /* \"contracts/Proxy deployment contracts/allInOneProxyAdmin.sol\":2696:2706  msg.sender */\n      caller\n        /* \"contracts/Proxy deployment contracts/allInOneProxyAdmin.sol\":2696:2721  msg.sender == _getAdmin() */\n      0xffffffffffffffffffffffffffffffffffffffff\n      and\n      eq\n        /* \"contracts/Proxy deployment contracts/allInOneProxyAdmin.sol\":2688:2760  require(msg.sender == _getAdmin(), \"Only admin can view implementation\") */\n      tag_67\n      jumpi\n      mload(0x40)\n      0x08c379a000000000000000000000000000000000000000000000000000000000\n      dup2\n      mstore\n      0x04\n      add\n      tag_68\n      swap1\n      tag_69\n      jump\t// in\n    tag_68:\n      mload(0x40)\n      dup1\n      swap2\n      sub\n      swap1\n      revert\n    tag_67:\n        /* \"contracts/Proxy deployment contracts/allInOneProxyAdmin.sol\":2778:2798  _getImplementation() */\n      tag_70\n        /* \"contracts/Proxy deployment contracts/allInOneProxyAdmin.sol\":2778:2796  _getImplementation */\n      tag_10\n        /* \"contracts/Proxy deployment contracts/allInOneProxyAdmin.sol\":2778:2798  _getImplementation() */\n      jump\t// in\n    tag_70:\n        /* \"contracts/Proxy deployment contracts/allInOneProxyAdmin.sol\":2771:2798  return _getImplementation() */\n      swap1\n      pop\n        /* \"contracts/Proxy deployment contracts/allInOneProxyAdmin.sol\":2616:2806  function getImplementation() external view returns (address) {... */\n      swap1\n      jump\t// out\n        /* \"contracts/Proxy deployment contracts/allInOneProxyAdmin.sol\":5395:5563  function _getAdmin() internal view returns (address admin) {... */\n    tag_39:\n        /* \"contracts/Proxy deployment contracts/allInOneProxyAdmin.sol\":5439:5452  address admin */\n      0x00\n        /* \"contracts/Proxy deployment contracts/allInOneProxyAdmin.sol\":5465:5477  bytes32 slot */\n      0x00\n        /* \"contracts/Proxy deployment contracts/allInOneProxyAdmin.sol\":1385:1409  keccak256(\"proxy.admin\") */\n      0xb361eaf08109ac4e837850c52399e285128fdaa6c1699e4864dd655f97ca6fd8\n        /* \"contracts/Proxy deployment contracts/allInOneProxyAdmin.sol\":5465:5490  bytes32 slot = ADMIN_SLOT */\n      swap1\n      pop\n        /* \"contracts/Proxy deployment contracts/allInOneProxyAdmin.sol\":5540:5544  slot */\n      dup1\n        /* \"contracts/Proxy deployment contracts/allInOneProxyAdmin.sol\":5534:5545  sload(slot) */\n      sload\n        /* \"contracts/Proxy deployment contracts/allInOneProxyAdmin.sol\":5525:5545  admin := sload(slot) */\n      swap2\n      pop\n        /* \"contracts/Proxy deployment contracts/allInOneProxyAdmin.sol\":5510:5556  {... */\n      pop\n        /* \"contracts/Proxy deployment contracts/allInOneProxyAdmin.sol\":5395:5563  function _getAdmin() internal view returns (address admin) {... */\n      swap1\n      jump\t// out\n        /* \"contracts/Proxy deployment contracts/allInOneProxyAdmin.sol\":5169:5342  function _setImplementation(address newImpl) internal {... */\n    tag_47:\n        /* \"contracts/Proxy deployment contracts/allInOneProxyAdmin.sol\":5234:5246  bytes32 slot */\n      0x00\n        /* \"contracts/Proxy deployment contracts/allInOneProxyAdmin.sol\":1307:1340  keccak256(\"proxy.implementation\") */\n      0x24ed44ee9374370fd3aa7c8b1abf58827504c20f65246b17d2b9e7e1aef77847\n        /* \"contracts/Proxy deployment contracts/allInOneProxyAdmin.sol\":5234:5268  bytes32 slot = IMPLEMENTATION_SLOT */\n      swap1\n      pop\n        /* \"contracts/Proxy deployment contracts/allInOneProxyAdmin.sol\":5316:5323  newImpl */\n      dup2\n        /* \"contracts/Proxy deployment contracts/allInOneProxyAdmin.sol\":5310:5314  slot */\n      dup2\n        /* \"contracts/Proxy deployment contracts/allInOneProxyAdmin.sol\":5303:5324  sstore(slot, newImpl) */\n      sstore\n        /* \"contracts/Proxy deployment contracts/allInOneProxyAdmin.sol\":5288:5335  {... */\n      pop\n        /* \"contracts/Proxy deployment contracts/allInOneProxyAdmin.sol\":5169:5342  function _setImplementation(address newImpl) internal {... */\n      pop\n      jump\t// out\n        /* \"contracts/Proxy deployment contracts/allInOneProxyAdmin.sol\":5614:5771  function _setAdmin(address newAdmin) internal {... */\n    tag_64:\n        /* \"contracts/Proxy deployment contracts/allInOneProxyAdmin.sol\":5671:5683  bytes32 slot */\n      0x00\n        /* \"contracts/Proxy deployment contracts/allInOneProxyAdmin.sol\":1385:1409  keccak256(\"proxy.admin\") */\n      0xb361eaf08109ac4e837850c52399e285128fdaa6c1699e4864dd655f97ca6fd8\n        /* \"contracts/Proxy deployment contracts/allInOneProxyAdmin.sol\":5671:5696  bytes32 slot = ADMIN_SLOT */\n      swap1\n      pop\n        /* \"contracts/Proxy deployment contracts/allInOneProxyAdmin.sol\":5744:5752  newAdmin */\n      dup2\n        /* \"contracts/Proxy deployment contracts/allInOneProxyAdmin.sol\":5738:5742  slot */\n      dup2\n        /* \"contracts/Proxy deployment contracts/allInOneProxyAdmin.sol\":5731:5753  sstore(slot, newAdmin) */\n      sstore\n        /* \"contracts/Proxy deployment contracts/allInOneProxyAdmin.sol\":5716:5764  {... */\n      pop\n        /* \"contracts/Proxy deployment contracts/allInOneProxyAdmin.sol\":5614:5771  function _setAdmin(address newAdmin) internal {... */\n      pop\n      jump\t// out\n        /* \"#utility.yul\":88:205   */\n    tag_75:\n        /* \"#utility.yul\":197:198   */\n      0x00\n        /* \"#utility.yul\":194:195   */\n      0x00\n        /* \"#utility.yul\":187:199   */\n      revert\n        /* \"#utility.yul\":334:460   */\n    tag_77:\n        /* \"#utility.yul\":371:378   */\n      0x00\n        /* \"#utility.yul\":411:453   */\n      0xffffffffffffffffffffffffffffffffffffffff\n        /* \"#utility.yul\":404:409   */\n      dup3\n        /* \"#utility.yul\":400:454   */\n      and\n        /* \"#utility.yul\":389:454   */\n      swap1\n      pop\n        /* \"#utility.yul\":334:460   */\n      swap2\n      swap1\n      pop\n      jump\t// out\n        /* \"#utility.yul\":466:562   */\n    tag_78:\n        /* \"#utility.yul\":503:510   */\n      0x00\n        /* \"#utility.yul\":532:556   */\n      tag_101\n        /* \"#utility.yul\":550:555   */\n      dup3\n        /* \"#utility.yul\":532:556   */\n      tag_77\n      jump\t// in\n    tag_101:\n        /* \"#utility.yul\":521:556   */\n      swap1\n      pop\n        /* \"#utility.yul\":466:562   */\n      swap2\n      swap1\n      pop\n      jump\t// out\n        /* \"#utility.yul\":568:690   */\n    tag_79:\n        /* \"#utility.yul\":641:665   */\n      tag_103\n        /* \"#utility.yul\":659:664   */\n      dup2\n        /* \"#utility.yul\":641:665   */\n      tag_78\n      jump\t// in\n    tag_103:\n        /* \"#utility.yul\":634:639   */\n      dup2\n        /* \"#utility.yul\":631:666   */\n      eq\n        /* \"#utility.yul\":621:684   */\n      tag_104\n      jumpi\n        /* \"#utility.yul\":680:681   */\n      0x00\n        /* \"#utility.yul\":677:678   */\n      0x00\n        /* \"#utility.yul\":670:682   */\n      revert\n        /* \"#utility.yul\":621:684   */\n    tag_104:\n        /* \"#utility.yul\":568:690   */\n      pop\n      jump\t// out\n        /* \"#utility.yul\":696:835   */\n    tag_80:\n        /* \"#utility.yul\":742:747   */\n      0x00\n        /* \"#utility.yul\":780:786   */\n      dup2\n        /* \"#utility.yul\":767:787   */\n      calldataload\n        /* \"#utility.yul\":758:787   */\n      swap1\n      pop\n        /* \"#utility.yul\":796:829   */\n      tag_106\n        /* \"#utility.yul\":823:828   */\n      dup2\n        /* \"#utility.yul\":796:829   */\n      tag_79\n      jump\t// in\n    tag_106:\n        /* \"#utility.yul\":696:835   */\n      swap3\n      swap2\n      pop\n      pop\n      jump\t// out\n        /* \"#utility.yul\":841:1170   */\n    tag_21:\n        /* \"#utility.yul\":900:906   */\n      0x00\n        /* \"#utility.yul\":949:951   */\n      0x20\n        /* \"#utility.yul\":937:946   */\n      dup3\n        /* \"#utility.yul\":928:935   */\n      dup5\n        /* \"#utility.yul\":924:947   */\n      sub\n        /* \"#utility.yul\":920:952   */\n      slt\n        /* \"#utility.yul\":917:1036   */\n      iszero\n      tag_108\n      jumpi\n        /* \"#utility.yul\":955:1034   */\n      tag_109\n      tag_75\n      jump\t// in\n    tag_109:\n        /* \"#utility.yul\":917:1036   */\n    tag_108:\n        /* \"#utility.yul\":1075:1076   */\n      0x00\n        /* \"#utility.yul\":1100:1153   */\n      tag_110\n        /* \"#utility.yul\":1145:1152   */\n      dup5\n        /* \"#utility.yul\":1136:1142   */\n      dup3\n        /* \"#utility.yul\":1125:1134   */\n      dup6\n        /* \"#utility.yul\":1121:1143   */\n      add\n        /* \"#utility.yul\":1100:1153   */\n      tag_80\n      jump\t// in\n    tag_110:\n        /* \"#utility.yul\":1090:1153   */\n      swap2\n      pop\n        /* \"#utility.yul\":1046:1163   */\n      pop\n        /* \"#utility.yul\":841:1170   */\n      swap3\n      swap2\n      pop\n      pop\n      jump\t// out\n        /* \"#utility.yul\":1176:1294   */\n    tag_81:\n        /* \"#utility.yul\":1263:1287   */\n      tag_112\n        /* \"#utility.yul\":1281:1286   */\n      dup2\n        /* \"#utility.yul\":1263:1287   */\n      tag_78\n      jump\t// in\n    tag_112:\n        /* \"#utility.yul\":1258:1261   */\n      dup3\n        /* \"#utility.yul\":1251:1288   */\n      mstore\n        /* \"#utility.yul\":1176:1294   */\n      pop\n      pop\n      jump\t// out\n        /* \"#utility.yul\":1300:1522   */\n    tag_27:\n        /* \"#utility.yul\":1393:1397   */\n      0x00\n        /* \"#utility.yul\":1431:1433   */\n      0x20\n        /* \"#utility.yul\":1420:1429   */\n      dup3\n        /* \"#utility.yul\":1416:1434   */\n      add\n        /* \"#utility.yul\":1408:1434   */\n      swap1\n      pop\n        /* \"#utility.yul\":1444:1515   */\n      tag_114\n        /* \"#utility.yul\":1512:1513   */\n      0x00\n        /* \"#utility.yul\":1501:1510   */\n      dup4\n        /* \"#utility.yul\":1497:1514   */\n      add\n        /* \"#utility.yul\":1488:1494   */\n      dup5\n        /* \"#utility.yul\":1444:1515   */\n      tag_81\n      jump\t// in\n    tag_114:\n        /* \"#utility.yul\":1300:1522   */\n      swap3\n      swap2\n      pop\n      pop\n      jump\t// out\n        /* \"#utility.yul\":1528:1697   */\n    tag_82:\n        /* \"#utility.yul\":1612:1623   */\n      0x00\n        /* \"#utility.yul\":1646:1652   */\n      dup3\n        /* \"#utility.yul\":1641:1644   */\n      dup3\n        /* \"#utility.yul\":1634:1653   */\n      mstore\n        /* \"#utility.yul\":1686:1690   */\n      0x20\n        /* \"#utility.yul\":1681:1684   */\n      dup3\n        /* \"#utility.yul\":1677:1691   */\n      add\n        /* \"#utility.yul\":1662:1691   */\n      swap1\n      pop\n        /* \"#utility.yul\":1528:1697   */\n      swap3\n      swap2\n      pop\n      pop\n      jump\t// out\n        /* \"#utility.yul\":1703:1875   */\n    tag_83:\n        /* \"#utility.yul\":1843:1867   */\n      0x4f6e6c792061646d696e2063616e207570677261646500000000000000000000\n        /* \"#utility.yul\":1839:1840   */\n      0x00\n        /* \"#utility.yul\":1831:1837   */\n      dup3\n        /* \"#utility.yul\":1827:1841   */\n      add\n        /* \"#utility.yul\":1820:1868   */\n      mstore\n        /* \"#utility.yul\":1703:1875   */\n      pop\n      jump\t// out\n        /* \"#utility.yul\":1881:2247   */\n    tag_84:\n        /* \"#utility.yul\":2023:2026   */\n      0x00\n        /* \"#utility.yul\":2044:2111   */\n      tag_118\n        /* \"#utility.yul\":2108:2110   */\n      0x16\n        /* \"#utility.yul\":2103:2106   */\n      dup4\n        /* \"#utility.yul\":2044:2111   */\n      tag_82\n      jump\t// in\n    tag_118:\n        /* \"#utility.yul\":2037:2111   */\n      swap2\n      pop\n        /* \"#utility.yul\":2120:2213   */\n      tag_119\n        /* \"#utility.yul\":2209:2212   */\n      dup3\n        /* \"#utility.yul\":2120:2213   */\n      tag_83\n      jump\t// in\n    tag_119:\n        /* \"#utility.yul\":2238:2240   */\n      0x20\n        /* \"#utility.yul\":2233:2236   */\n      dup3\n        /* \"#utility.yul\":2229:2241   */\n      add\n        /* \"#utility.yul\":2222:2241   */\n      swap1\n      pop\n        /* \"#utility.yul\":1881:2247   */\n      swap2\n      swap1\n      pop\n      jump\t// out\n        /* \"#utility.yul\":2253:2672   */\n    tag_42:\n        /* \"#utility.yul\":2419:2423   */\n      0x00\n        /* \"#utility.yul\":2457:2459   */\n      0x20\n        /* \"#utility.yul\":2446:2455   */\n      dup3\n        /* \"#utility.yul\":2442:2460   */\n      add\n        /* \"#utility.yul\":2434:2460   */\n      swap1\n      pop\n        /* \"#utility.yul\":2506:2515   */\n      dup2\n        /* \"#utility.yul\":2500:2504   */\n      dup2\n        /* \"#utility.yul\":2496:2516   */\n      sub\n        /* \"#utility.yul\":2492:2493   */\n      0x00\n        /* \"#utility.yul\":2481:2490   */\n      dup4\n        /* \"#utility.yul\":2477:2494   */\n      add\n        /* \"#utility.yul\":2470:2517   */\n      mstore\n        /* \"#utility.yul\":2534:2665   */\n      tag_121\n        /* \"#utility.yul\":2660:2664   */\n      dup2\n        /* \"#utility.yul\":2534:2665   */\n      tag_84\n      jump\t// in\n    tag_121:\n        /* \"#utility.yul\":2526:2665   */\n      swap1\n      pop\n        /* \"#utility.yul\":2253:2672   */\n      swap2\n      swap1\n      pop\n      jump\t// out\n        /* \"#utility.yul\":2678:2899   */\n    tag_85:\n        /* \"#utility.yul\":2818:2852   */\n      0x4e657720696d706c656d656e746174696f6e206973207a65726f206164647265\n        /* \"#utility.yul\":2814:2815   */\n      0x00\n        /* \"#utility.yul\":2806:2812   */\n      dup3\n        /* \"#utility.yul\":2802:2816   */\n      add\n        /* \"#utility.yul\":2795:2853   */\n      mstore\n        /* \"#utility.yul\":2887:2891   */\n      0x7373000000000000000000000000000000000000000000000000000000000000\n        /* \"#utility.yul\":2882:2884   */\n      0x20\n        /* \"#utility.yul\":2874:2880   */\n      dup3\n        /* \"#utility.yul\":2870:2885   */\n      add\n        /* \"#utility.yul\":2863:2892   */\n      mstore\n        /* \"#utility.yul\":2678:2899   */\n      pop\n      jump\t// out\n        /* \"#utility.yul\":2905:3271   */\n    tag_86:\n        /* \"#utility.yul\":3047:3050   */\n      0x00\n        /* \"#utility.yul\":3068:3135   */\n      tag_124\n        /* \"#utility.yul\":3132:3134   */\n      0x22\n        /* \"#utility.yul\":3127:3130   */\n      dup4\n        /* \"#utility.yul\":3068:3135   */\n      tag_82\n      jump\t// in\n    tag_124:\n        /* \"#utility.yul\":3061:3135   */\n      swap2\n      pop\n        /* \"#utility.yul\":3144:3237   */\n      tag_125\n        /* \"#utility.yul\":3233:3236   */\n      dup3\n        /* \"#utility.yul\":3144:3237   */\n      tag_85\n      jump\t// in\n    tag_125:\n        /* \"#utility.yul\":3262:3264   */\n      0x40\n        /* \"#utility.yul\":3257:3260   */\n      dup3\n        /* \"#utility.yul\":3253:3265   */\n      add\n        /* \"#utility.yul\":3246:3265   */\n      swap1\n      pop\n        /* \"#utility.yul\":2905:3271   */\n      swap2\n      swap1\n      pop\n      jump\t// out\n        /* \"#utility.yul\":3277:3696   */\n    tag_45:\n        /* \"#utility.yul\":3443:3447   */\n      0x00\n        /* \"#utility.yul\":3481:3483   */\n      0x20\n        /* \"#utility.yul\":3470:3479   */\n      dup3\n        /* \"#utility.yul\":3466:3484   */\n      add\n        /* \"#utility.yul\":3458:3484   */\n      swap1\n      pop\n        /* \"#utility.yul\":3530:3539   */\n      dup2\n        /* \"#utility.yul\":3524:3528   */\n      dup2\n        /* \"#utility.yul\":3520:3540   */\n      sub\n        /* \"#utility.yul\":3516:3517   */\n      0x00\n        /* \"#utility.yul\":3505:3514   */\n      dup4\n        /* \"#utility.yul\":3501:3518   */\n      add\n        /* \"#utility.yul\":3494:3541   */\n      mstore\n        /* \"#utility.yul\":3558:3689   */\n      tag_127\n        /* \"#utility.yul\":3684:3688   */\n      dup2\n        /* \"#utility.yul\":3558:3689   */\n      tag_86\n      jump\t// in\n    tag_127:\n        /* \"#utility.yul\":3550:3689   */\n      swap1\n      pop\n        /* \"#utility.yul\":3277:3696   */\n      swap2\n      swap1\n      pop\n      jump\t// out\n        /* \"#utility.yul\":3702:3877   */\n    tag_87:\n        /* \"#utility.yul\":3842:3869   */\n      0x4f6e6c792061646d696e2063616e20766965772061646d696e00000000000000\n        /* \"#utility.yul\":3838:3839   */\n      0x00\n        /* \"#utility.yul\":3830:3836   */\n      dup3\n        /* \"#utility.yul\":3826:3840   */\n      add\n        /* \"#utility.yul\":3819:3870   */\n      mstore\n        /* \"#utility.yul\":3702:3877   */\n      pop\n      jump\t// out\n        /* \"#utility.yul\":3883:4249   */\n    tag_88:\n        /* \"#utility.yul\":4025:4028   */\n      0x00\n        /* \"#utility.yul\":4046:4113   */\n      tag_130\n        /* \"#utility.yul\":4110:4112   */\n      0x19\n        /* \"#utility.yul\":4105:4108   */\n      dup4\n        /* \"#utility.yul\":4046:4113   */\n      tag_82\n      jump\t// in\n    tag_130:\n        /* \"#utility.yul\":4039:4113   */\n      swap2\n      pop\n        /* \"#utility.yul\":4122:4215   */\n      tag_131\n        /* \"#utility.yul\":4211:4214   */\n      dup3\n        /* \"#utility.yul\":4122:4215   */\n      tag_87\n      jump\t// in\n    tag_131:\n        /* \"#utility.yul\":4240:4242   */\n      0x20\n        /* \"#utility.yul\":4235:4238   */\n      dup3\n        /* \"#utility.yul\":4231:4243   */\n      add\n        /* \"#utility.yul\":4224:4243   */\n      swap1\n      pop\n        /* \"#utility.yul\":3883:4249   */\n      swap2\n      swap1\n      pop\n      jump\t// out\n        /* \"#utility.yul\":4255:4674   */\n    tag_52:\n        /* \"#utility.yul\":4421:4425   */\n      0x00\n        /* \"#utility.yul\":4459:4461   */\n      0x20\n        /* \"#utility.yul\":4448:4457   */\n      dup3\n        /* \"#utility.yul\":4444:4462   */\n      add\n        /* \"#utility.yul\":4436:4462   */\n      swap1\n      pop\n        /* \"#utility.yul\":4508:4517   */\n      dup2\n        /* \"#utility.yul\":4502:4506   */\n      dup2\n        /* \"#utility.yul\":4498:4518   */\n      sub\n        /* \"#utility.yul\":4494:4495   */\n      0x00\n        /* \"#utility.yul\":4483:4492   */\n      dup4\n        /* \"#utility.yul\":4479:4496   */\n      add\n        /* \"#utility.yul\":4472:4519   */\n      mstore\n        /* \"#utility.yul\":4536:4667   */\n      tag_133\n        /* \"#utility.yul\":4662:4666   */\n      dup2\n        /* \"#utility.yul\":4536:4667   */\n      tag_88\n      jump\t// in\n    tag_133:\n        /* \"#utility.yul\":4528:4667   */\n      swap1\n      pop\n        /* \"#utility.yul\":4255:4674   */\n      swap2\n      swap1\n      pop\n      jump\t// out\n        /* \"#utility.yul\":4680:4857   */\n    tag_89:\n        /* \"#utility.yul\":4820:4849   */\n      0x4f6e6c792061646d696e2063616e206368616e67652061646d696e0000000000\n        /* \"#utility.yul\":4816:4817   */\n      0x00\n        /* \"#utility.yul\":4808:4814   */\n      dup3\n        /* \"#utility.yul\":4804:4818   */\n      add\n        /* \"#utility.yul\":4797:4850   */\n      mstore\n        /* \"#utility.yul\":4680:4857   */\n      pop\n      jump\t// out\n        /* \"#utility.yul\":4863:5229   */\n    tag_90:\n        /* \"#utility.yul\":5005:5008   */\n      0x00\n        /* \"#utility.yul\":5026:5093   */\n      tag_136\n        /* \"#utility.yul\":5090:5092   */\n      0x1b\n        /* \"#utility.yul\":5085:5088   */\n      dup4\n        /* \"#utility.yul\":5026:5093   */\n      tag_82\n      jump\t// in\n    tag_136:\n        /* \"#utility.yul\":5019:5093   */\n      swap2\n      pop\n        /* \"#utility.yul\":5102:5195   */\n      tag_137\n        /* \"#utility.yul\":5191:5194   */\n      dup3\n        /* \"#utility.yul\":5102:5195   */\n      tag_89\n      jump\t// in\n    tag_137:\n        /* \"#utility.yul\":5220:5222   */\n      0x20\n        /* \"#utility.yul\":5215:5218   */\n      dup3\n        /* \"#utility.yul\":5211:5223   */\n      add\n        /* \"#utility.yul\":5204:5223   */\n      swap1\n      pop\n        /* \"#utility.yul\":4863:5229   */\n      swap2\n      swap1\n      pop\n      jump\t// out\n        /* \"#utility.yul\":5235:5654   */\n    tag_58:\n        /* \"#utility.yul\":5401:5405   */\n      0x00\n        /* \"#utility.yul\":5439:5441   */\n      0x20\n        /* \"#utility.yul\":5428:5437   */\n      dup3\n        /* \"#utility.yul\":5424:5442   */\n      add\n        /* \"#utility.yul\":5416:5442   */\n      swap1\n      pop\n        /* \"#utility.yul\":5488:5497   */\n      dup2\n        /* \"#utility.yul\":5482:5486   */\n      dup2\n        /* \"#utility.yul\":5478:5498   */\n      sub\n        /* \"#utility.yul\":5474:5475   */\n      0x00\n        /* \"#utility.yul\":5463:5472   */\n      dup4\n        /* \"#utility.yul\":5459:5476   */\n      add\n        /* \"#utility.yul\":5452:5499   */\n      mstore\n        /* \"#utility.yul\":5516:5647   */\n      tag_139\n        /* \"#utility.yul\":5642:5646   */\n      dup2\n        /* \"#utility.yul\":5516:5647   */\n      tag_90\n      jump\t// in\n    tag_139:\n        /* \"#utility.yul\":5508:5647   */\n      swap1\n      pop\n        /* \"#utility.yul\":5235:5654   */\n      swap2\n      swap1\n      pop\n      jump\t// out\n        /* \"#utility.yul\":5660:5835   */\n    tag_91:\n        /* \"#utility.yul\":5800:5827   */\n      0x4e65772061646d696e206973207a65726f206164647265737300000000000000\n        /* \"#utility.yul\":5796:5797   */\n      0x00\n        /* \"#utility.yul\":5788:5794   */\n      dup3\n        /* \"#utility.yul\":5784:5798   */\n      add\n        /* \"#utility.yul\":5777:5828   */\n      mstore\n        /* \"#utility.yul\":5660:5835   */\n      pop\n      jump\t// out\n        /* \"#utility.yul\":5841:6207   */\n    tag_92:\n        /* \"#utility.yul\":5983:5986   */\n      0x00\n        /* \"#utility.yul\":6004:6071   */\n      tag_142\n        /* \"#utility.yul\":6068:6070   */\n      0x19\n        /* \"#utility.yul\":6063:6066   */\n      dup4\n        /* \"#utility.yul\":6004:6071   */\n      tag_82\n      jump\t// in\n    tag_142:\n        /* \"#utility.yul\":5997:6071   */\n      swap2\n      pop\n        /* \"#utility.yul\":6080:6173   */\n      tag_143\n        /* \"#utility.yul\":6169:6172   */\n      dup3\n        /* \"#utility.yul\":6080:6173   */\n      tag_91\n      jump\t// in\n    tag_143:\n        /* \"#utility.yul\":6198:6200   */\n      0x20\n        /* \"#utility.yul\":6193:6196   */\n      dup3\n        /* \"#utility.yul\":6189:6201   */\n      add\n        /* \"#utility.yul\":6182:6201   */\n      swap1\n      pop\n        /* \"#utility.yul\":5841:6207   */\n      swap2\n      swap1\n      pop\n      jump\t// out\n        /* \"#utility.yul\":6213:6632   */\n    tag_61:\n        /* \"#utility.yul\":6379:6383   */\n      0x00\n        /* \"#utility.yul\":6417:6419   */\n      0x20\n        /* \"#utility.yul\":6406:6415   */\n      dup3\n        /* \"#utility.yul\":6402:6420   */\n      add\n        /* \"#utility.yul\":6394:6420   */\n      swap1\n      pop\n        /* \"#utility.yul\":6466:6475   */\n      dup2\n        /* \"#utility.yul\":6460:6464   */\n      dup2\n        /* \"#utility.yul\":6456:6476   */\n      sub\n        /* \"#utility.yul\":6452:6453   */\n      0x00\n        /* \"#utility.yul\":6441:6450   */\n      dup4\n        /* \"#utility.yul\":6437:6454   */\n      add\n        /* \"#utility.yul\":6430:6477   */\n      mstore\n        /* \"#utility.yul\":6494:6625   */\n      tag_145\n        /* \"#utility.yul\":6620:6624   */\n      dup2\n        /* \"#utility.yul\":6494:6625   */\n      tag_92\n      jump\t// in\n    tag_145:\n        /* \"#utility.yul\":6486:6625   */\n      swap1\n      pop\n        /* \"#utility.yul\":6213:6632   */\n      swap2\n      swap1\n      pop\n      jump\t// out\n        /* \"#utility.yul\":6638:6859   */\n    tag_93:\n        /* \"#utility.yul\":6778:6812   */\n      0x4f6e6c792061646d696e2063616e207669657720696d706c656d656e74617469\n        /* \"#utility.yul\":6774:6775   */\n      0x00\n        /* \"#utility.yul\":6766:6772   */\n      dup3\n        /* \"#utility.yul\":6762:6776   */\n      add\n        /* \"#utility.yul\":6755:6813   */\n      mstore\n        /* \"#utility.yul\":6847:6851   */\n      0x6f6e000000000000000000000000000000000000000000000000000000000000\n        /* \"#utility.yul\":6842:6844   */\n      0x20\n        /* \"#utility.yul\":6834:6840   */\n      dup3\n        /* \"#utility.yul\":6830:6845   */\n      add\n        /* \"#utility.yul\":6823:6852   */\n      mstore\n        /* \"#utility.yul\":6638:6859   */\n      pop\n      jump\t// out\n        /* \"#utility.yul\":6865:7231   */\n    tag_94:\n        /* \"#utility.yul\":7007:7010   */\n      0x00\n        /* \"#utility.yul\":7028:7095   */\n      tag_148\n        /* \"#utility.yul\":7092:7094   */\n      0x22\n        /* \"#utility.yul\":7087:7090   */\n      dup4\n        /* \"#utility.yul\":7028:7095   */\n      tag_82\n      jump\t// in\n    tag_148:\n        /* \"#utility.yul\":7021:7095   */\n      swap2\n      pop\n        /* \"#utility.yul\":7104:7197   */\n      tag_149\n        /* \"#utility.yul\":7193:7196   */\n      dup3\n        /* \"#utility.yul\":7104:7197   */\n      tag_93\n      jump\t// in\n    tag_149:\n        /* \"#utility.yul\":7222:7224   */\n      0x40\n        /* \"#utility.yul\":7217:7220   */\n      dup3\n        /* \"#utility.yul\":7213:7225   */\n      add\n        /* \"#utility.yul\":7206:7225   */\n      swap1\n      pop\n        /* \"#utility.yul\":6865:7231   */\n      swap2\n      swap1\n      pop\n      jump\t// out\n        /* \"#utility.yul\":7237:7656   */\n    tag_69:\n        /* \"#utility.yul\":7403:7407   */\n      0x00\n        /* \"#utility.yul\":7441:7443   */\n      0x20\n        /* \"#utility.yul\":7430:7439   */\n      dup3\n        /* \"#utility.yul\":7426:7444   */\n      add\n        /* \"#utility.yul\":7418:7444   */\n      swap1\n      pop\n        /* \"#utility.yul\":7490:7499   */\n      dup2\n        /* \"#utility.yul\":7484:7488   */\n      dup2\n        /* \"#utility.yul\":7480:7500   */\n      sub\n        /* \"#utility.yul\":7476:7477   */\n      0x00\n        /* \"#utility.yul\":7465:7474   */\n      dup4\n        /* \"#utility.yul\":7461:7478   */\n      add\n        /* \"#utility.yul\":7454:7501   */\n      mstore\n        /* \"#utility.yul\":7518:7649   */\n      tag_151\n        /* \"#utility.yul\":7644:7648   */\n      dup2\n        /* \"#utility.yul\":7518:7649   */\n      tag_94\n      jump\t// in\n    tag_151:\n        /* \"#utility.yul\":7510:7649   */\n      swap1\n      pop\n        /* \"#utility.yul\":7237:7656   */\n      swap2\n      swap1\n      pop\n      jump\t// out\n\n    auxdata: 0xa26469706673582212209eb10356df872c793492ec0ff0724381190276696dff3e2252adab0dafd7037f64736f6c634300081e0033\n}\n",
				"bytecode": {
					"linkReferences": {},
					"object": "608060405234801561000f575f5ffd5b50604051610f28380380610f28833981810160405281019061003191906103e2565b5f73ffffffffffffffffffffffffffffffffffffffff168373ffffffffffffffffffffffffffffffffffffffff160361009f576040517f08c379a0000000000000000000000000000000000000000000000000000000008152600401610096906104a8565b60405180910390fd5b5f73ffffffffffffffffffffffffffffffffffffffff168273ffffffffffffffffffffffffffffffffffffffff160361010d576040517f08c379a000000000000000000000000000000000000000000000000000000000815260040161010490610510565b60405180910390fd5b61011c836101e560201b60201c565b61012b8261021060201b60201c565b5f815111156101dd575f8373ffffffffffffffffffffffffffffffffffffffff168260405161015a9190610572565b5f60405180830381855af49150503d805f8114610192576040519150601f19603f3d011682016040523d82523d5f602084013e610197565b606091505b50509050806101db576040517f08c379a00000000000000000000000000000000000000000000000000000000081526004016101d2906105d2565b60405180910390fd5b505b5050506105f0565b5f7f24ed44ee9374370fd3aa7c8b1abf58827504c20f65246b17d2b9e7e1aef7784790508181555050565b5f7fb361eaf08109ac4e837850c52399e285128fdaa6c1699e4864dd655f97ca6fd890508181555050565b5f604051905090565b5f5ffd5b5f5ffd5b5f73ffffffffffffffffffffffffffffffffffffffff82169050919050565b5f6102758261024c565b9050919050565b6102858161026b565b811461028f575f5ffd5b50565b5f815190506102a08161027c565b92915050565b5f5ffd5b5f5ffd5b5f601f19601f8301169050919050565b7f4e487b71000000000000000000000000000000000000000000000000000000005f52604160045260245ffd5b6102f4826102ae565b810181811067ffffffffffffffff82111715610313576103126102be565b5b80604052505050565b5f61032561023b565b905061033182826102eb565b919050565b5f67ffffffffffffffff8211156103505761034f6102be565b5b610359826102ae565b9050602081019050919050565b8281835e5f83830152505050565b5f61038661038184610336565b61031c565b9050828152602081018484840111156103a2576103a16102aa565b5b6103ad848285610366565b509392505050565b5f82601f8301126103c9576103c86102a6565b5b81516103d9848260208601610374565b91505092915050565b5f5f5f606084860312156103f9576103f8610244565b5b5f61040686828701610292565b935050602061041786828701610292565b925050604084015167ffffffffffffffff81111561043857610437610248565b5b610444868287016103b5565b9150509250925092565b5f82825260208201905092915050565b7f496d706c656d656e746174696f6e206973207a65726f206164647265737300005f82015250565b5f610492601e8361044e565b915061049d8261045e565b602082019050919050565b5f6020820190508181035f8301526104bf81610486565b9050919050565b7f41646d696e206973207a65726f206164647265737300000000000000000000005f82015250565b5f6104fa60158361044e565b9150610505826104c6565b602082019050919050565b5f6020820190508181035f830152610527816104ee565b9050919050565b5f81519050919050565b5f81905092915050565b5f61054c8261052e565b6105568185610538565b9350610566818560208601610366565b80840191505092915050565b5f61057d8284610542565b915081905092915050565b7f496e697469616c697a6174696f6e206661696c656400000000000000000000005f82015250565b5f6105bc60158361044e565b91506105c782610588565b602082019050919050565b5f6020820190508181035f8301526105e9816105b0565b9050919050565b61092b806105fd5f395ff3fe608060405260043610610042575f3560e01c80633659cfe6146100975780636e9960c3146100bf5780638f283970146100e9578063aaf10f42146101115761006d565b3661006d575f61005061013b565b90505f5f5f5f845af43d5f5f3e805f8114610069573d5ff35b3d5ffd5b5f61007661013b565b9050365f5f375f5f365f845af43d5f5f3e805f8114610093573d5ff35b3d5ffd5b3480156100a2575f5ffd5b506100bd60048036038101906100b891906105d6565b610168565b005b3480156100ca575f5ffd5b506100d361029a565b6040516100e09190610610565b60405180910390f35b3480156100f4575f5ffd5b5061010f600480360381019061010a91906105d6565b61031d565b005b34801561011c575f5ffd5b50610125610472565b6040516101329190610610565b60405180910390f35b5f5f7f24ed44ee9374370fd3aa7c8b1abf58827504c20f65246b17d2b9e7e1aef778479050805491505090565b6101706104f5565b73ffffffffffffffffffffffffffffffffffffffff163373ffffffffffffffffffffffffffffffffffffffff16146101dd576040517f08c379a00000000000000000000000000000000000000000000000000000000081526004016101d490610683565b60405180910390fd5b5f73ffffffffffffffffffffffffffffffffffffffff168173ffffffffffffffffffffffffffffffffffffffff160361024b576040517f08c379a000000000000000000000000000000000000000000000000000000000815260040161024290610711565b60405180910390fd5b61025481610522565b8073ffffffffffffffffffffffffffffffffffffffff167fbc7cd75a20ee27fd9adebab32041f755214dbc6bffa90cc0225b39da2e5c2d3b60405160405180910390a250565b5f6102a36104f5565b73ffffffffffffffffffffffffffffffffffffffff163373ffffffffffffffffffffffffffffffffffffffff1614610310576040517f08c379a000000000000000000000000000000000000000000000000000000000815260040161030790610779565b60405180910390fd5b6103186104f5565b905090565b6103256104f5565b73ffffffffffffffffffffffffffffffffffffffff163373ffffffffffffffffffffffffffffffffffffffff1614610392576040517f08c379a0000000000000000000000000000000000000000000000000000000008152600401610389906107e1565b60405180910390fd5b5f73ffffffffffffffffffffffffffffffffffffffff168173ffffffffffffffffffffffffffffffffffffffff1603610400576040517f08c379a00000000000000000000000000000000000000000000000000000000081526004016103f790610849565b60405180910390fd5b5f6104096104f5565b90506104148261054d565b8173ffffffffffffffffffffffffffffffffffffffff168173ffffffffffffffffffffffffffffffffffffffff167f7e644d79422f17c01e4894b5f4f588d331ebfa28653d42ae832dc59e38c9798f60405160405180910390a35050565b5f61047b6104f5565b73ffffffffffffffffffffffffffffffffffffffff163373ffffffffffffffffffffffffffffffffffffffff16146104e8576040517f08c379a00000000000000000000000000000000000000000000000000000000081526004016104df906108d7565b60405180910390fd5b6104f061013b565b905090565b5f5f7fb361eaf08109ac4e837850c52399e285128fdaa6c1699e4864dd655f97ca6fd89050805491505090565b5f7f24ed44ee9374370fd3aa7c8b1abf58827504c20f65246b17d2b9e7e1aef7784790508181555050565b5f7fb361eaf08109ac4e837850c52399e285128fdaa6c1699e4864dd655f97ca6fd890508181555050565b5f5ffd5b5f73ffffffffffffffffffffffffffffffffffffffff82169050919050565b5f6105a58261057c565b9050919050565b6105b58161059b565b81146105bf575f5ffd5b50565b5f813590506105d0816105ac565b92915050565b5f602082840312156105eb576105ea610578565b5b5f6105f8848285016105c2565b91505092915050565b61060a8161059b565b82525050565b5f6020820190506106235f830184610601565b92915050565b5f82825260208201905092915050565b7f4f6e6c792061646d696e2063616e2075706772616465000000000000000000005f82015250565b5f61066d601683610629565b915061067882610639565b602082019050919050565b5f6020820190508181035f83015261069a81610661565b9050919050565b7f4e657720696d706c656d656e746174696f6e206973207a65726f2061646472655f8201527f7373000000000000000000000000000000000000000000000000000000000000602082015250565b5f6106fb602283610629565b9150610706826106a1565b604082019050919050565b5f6020820190508181035f830152610728816106ef565b9050919050565b7f4f6e6c792061646d696e2063616e20766965772061646d696e000000000000005f82015250565b5f610763601983610629565b915061076e8261072f565b602082019050919050565b5f6020820190508181035f83015261079081610757565b9050919050565b7f4f6e6c792061646d696e2063616e206368616e67652061646d696e00000000005f82015250565b5f6107cb601b83610629565b91506107d682610797565b602082019050919050565b5f6020820190508181035f8301526107f8816107bf565b9050919050565b7f4e65772061646d696e206973207a65726f2061646472657373000000000000005f82015250565b5f610833601983610629565b915061083e826107ff565b602082019050919050565b5f6020820190508181035f83015261086081610827565b9050919050565b7f4f6e6c792061646d696e2063616e207669657720696d706c656d656e746174695f8201527f6f6e000000000000000000000000000000000000000000000000000000000000602082015250565b5f6108c1602283610629565b91506108cc82610867565b604082019050919050565b5f6020820190508181035f8301526108ee816108b5565b905091905056fea26469706673582212209eb10356df872c793492ec0ff0724381190276696dff3e2252adab0dafd7037f64736f6c634300081e0033",
					"opcodes": "PUSH1 0x80 PUSH1 0x40 MSTORE CALLVALUE DUP1 ISZERO PUSH2 0xF JUMPI PUSH0 PUSH0 REVERT JUMPDEST POP PUSH1 0x40 MLOAD PUSH2 0xF28 CODESIZE SUB DUP1 PUSH2 0xF28 DUP4 CODECOPY DUP2 DUP2 ADD PUSH1 0x40 MSTORE DUP2 ADD SWAP1 PUSH2 0x31 SWAP2 SWAP1 PUSH2 0x3E2 JUMP JUMPDEST PUSH0 PUSH20 0xFFFFFFFFFFFFFFFFFFFFFFFFFFFFFFFFFFFFFFFF AND DUP4 PUSH20 0xFFFFFFFFFFFFFFFFFFFFFFFFFFFFFFFFFFFFFFFF AND SUB PUSH2 0x9F JUMPI PUSH1 0x40 MLOAD PUSH32 0x8C379A000000000000000000000000000000000000000000000000000000000 DUP2 MSTORE PUSH1 0x4 ADD PUSH2 0x96 SWAP1 PUSH2 0x4A8 JUMP JUMPDEST PUSH1 0x40 MLOAD DUP1 SWAP2 SUB SWAP1 REVERT JUMPDEST PUSH0 PUSH20 0xFFFFFFFFFFFFFFFFFFFFFFFFFFFFFFFFFFFFFFFF AND DUP3 PUSH20 0xFFFFFFFFFFFFFFFFFFFFFFFFFFFFFFFFFFFFFFFF AND SUB PUSH2 0x10D JUMPI PUSH1 0x40 MLOAD PUSH32 0x8C379A000000000000000000000000000000000000000000000000000000000 DUP2 MSTORE PUSH1 0x4 ADD PUSH2 0x104 SWAP1 PUSH2 0x510 JUMP JUMPDEST PUSH1 0x40 MLOAD DUP1 SWAP2 SUB SWAP1 REVERT JUMPDEST PUSH2 0x11C DUP4 PUSH2 0x1E5 PUSH1 0x20 SHL PUSH1 0x20 SHR JUMP JUMPDEST PUSH2 0x12B DUP3 PUSH2 0x210 PUSH1 0x20 SHL PUSH1 0x20 SHR JUMP JUMPDEST PUSH0 DUP2 MLOAD GT ISZERO PUSH2 0x1DD JUMPI PUSH0 DUP4 PUSH20 0xFFFFFFFFFFFFFFFFFFFFFFFFFFFFFFFFFFFFFFFF AND DUP3 PUSH1 0x40 MLOAD PUSH2 0x15A SWAP2 SWAP1 PUSH2 0x572 JUMP JUMPDEST PUSH0 PUSH1 0x40 MLOAD DUP1 DUP4 SUB DUP2 DUP6 GAS DELEGATECALL SWAP2 POP POP RETURNDATASIZE DUP1 PUSH0 DUP2 EQ PUSH2 0x192 JUMPI PUSH1 0x40 MLOAD SWAP2 POP PUSH1 0x1F NOT PUSH1 0x3F RETURNDATASIZE ADD AND DUP3 ADD PUSH1 0x40 MSTORE RETURNDATASIZE DUP3 MSTORE RETURNDATASIZE PUSH0 PUSH1 0x20 DUP5 ADD RETURNDATACOPY PUSH2 0x197 JUMP JUMPDEST PUSH1 0x60 SWAP2 POP JUMPDEST POP POP SWAP1 POP DUP1 PUSH2 0x1DB JUMPI PUSH1 0x40 MLOAD PUSH32 0x8C379A000000000000000000000000000000000000000000000000000000000 DUP2 MSTORE PUSH1 0x4 ADD PUSH2 0x1D2 SWAP1 PUSH2 0x5D2 JUMP JUMPDEST PUSH1 0x40 MLOAD DUP1 SWAP2 SUB SWAP1 REVERT JUMPDEST POP JUMPDEST POP POP POP PUSH2 0x5F0 JUMP JUMPDEST PUSH0 PUSH32 0x24ED44EE9374370FD3AA7C8B1ABF58827504C20F65246B17D2B9E7E1AEF77847 SWAP1 POP DUP2 DUP2 SSTORE POP POP JUMP JUMPDEST PUSH0 PUSH32 0xB361EAF08109AC4E837850C52399E285128FDAA6C1699E4864DD655F97CA6FD8 SWAP1 POP DUP2 DUP2 SSTORE POP POP JUMP JUMPDEST PUSH0 PUSH1 0x40 MLOAD SWAP1 POP SWAP1 JUMP JUMPDEST PUSH0 PUSH0 REVERT JUMPDEST PUSH0 PUSH0 REVERT JUMPDEST PUSH0 PUSH20 0xFFFFFFFFFFFFFFFFFFFFFFFFFFFFFFFFFFFFFFFF DUP3 AND SWAP1 POP SWAP2 SWAP1 POP JUMP JUMPDEST PUSH0 PUSH2 0x275 DUP3 PUSH2 0x24C JUMP JUMPDEST SWAP1 POP SWAP2 SWAP1 POP JUMP JUMPDEST PUSH2 0x285 DUP2 PUSH2 0x26B JUMP JUMPDEST DUP2 EQ PUSH2 0x28F JUMPI PUSH0 PUSH0 REVERT JUMPDEST POP JUMP JUMPDEST PUSH0 DUP2 MLOAD SWAP1 POP PUSH2 0x2A0 DUP2 PUSH2 0x27C JUMP JUMPDEST SWAP3 SWAP2 POP POP JUMP JUMPDEST PUSH0 PUSH0 REVERT JUMPDEST PUSH0 PUSH0 REVERT JUMPDEST PUSH0 PUSH1 0x1F NOT PUSH1 0x1F DUP4 ADD AND SWAP1 POP SWAP2 SWAP1 POP JUMP JUMPDEST PUSH32 0x4E487B7100000000000000000000000000000000000000000000000000000000 PUSH0 MSTORE PUSH1 0x41 PUSH1 0x4 MSTORE PUSH1 0x24 PUSH0 REVERT JUMPDEST PUSH2 0x2F4 DUP3 PUSH2 0x2AE JUMP JUMPDEST DUP2 ADD DUP2 DUP2 LT PUSH8 0xFFFFFFFFFFFFFFFF DUP3 GT OR ISZERO PUSH2 0x313 JUMPI PUSH2 0x312 PUSH2 0x2BE JUMP JUMPDEST JUMPDEST DUP1 PUSH1 0x40 MSTORE POP POP POP JUMP JUMPDEST PUSH0 PUSH2 0x325 PUSH2 0x23B JUMP JUMPDEST SWAP1 POP PUSH2 0x331 DUP3 DUP3 PUSH2 0x2EB JUMP JUMPDEST SWAP2 SWAP1 POP JUMP JUMPDEST PUSH0 PUSH8 0xFFFFFFFFFFFFFFFF DUP3 GT ISZERO PUSH2 0x350 JUMPI PUSH2 0x34F PUSH2 0x2BE JUMP JUMPDEST JUMPDEST PUSH2 0x359 DUP3 PUSH2 0x2AE JUMP JUMPDEST SWAP1 POP PUSH1 0x20 DUP2 ADD SWAP1 POP SWAP2 SWAP1 POP JUMP JUMPDEST DUP3 DUP2 DUP4 MCOPY PUSH0 DUP4 DUP4 ADD MSTORE POP POP POP JUMP JUMPDEST PUSH0 PUSH2 0x386 PUSH2 0x381 DUP5 PUSH2 0x336 JUMP JUMPDEST PUSH2 0x31C JUMP JUMPDEST SWAP1 POP DUP3 DUP2 MSTORE PUSH1 0x20 DUP2 ADD DUP5 DUP5 DUP5 ADD GT ISZERO PUSH2 0x3A2 JUMPI PUSH2 0x3A1 PUSH2 0x2AA JUMP JUMPDEST JUMPDEST PUSH2 0x3AD DUP5 DUP3 DUP6 PUSH2 0x366 JUMP JUMPDEST POP SWAP4 SWAP3 POP POP POP JUMP JUMPDEST PUSH0 DUP3 PUSH1 0x1F DUP4 ADD SLT PUSH2 0x3C9 JUMPI PUSH2 0x3C8 PUSH2 0x2A6 JUMP JUMPDEST JUMPDEST DUP2 MLOAD PUSH2 0x3D9 DUP5 DUP3 PUSH1 0x20 DUP7 ADD PUSH2 0x374 JUMP JUMPDEST SWAP2 POP POP SWAP3 SWAP2 POP POP JUMP JUMPDEST PUSH0 PUSH0 PUSH0 PUSH1 0x60 DUP5 DUP7 SUB SLT ISZERO PUSH2 0x3F9 JUMPI PUSH2 0x3F8 PUSH2 0x244 JUMP JUMPDEST JUMPDEST PUSH0 PUSH2 0x406 DUP7 DUP3 DUP8 ADD PUSH2 0x292 JUMP JUMPDEST SWAP4 POP POP PUSH1 0x20 PUSH2 0x417 DUP7 DUP3 DUP8 ADD PUSH2 0x292 JUMP JUMPDEST SWAP3 POP POP PUSH1 0x40 DUP5 ADD MLOAD PUSH8 0xFFFFFFFFFFFFFFFF DUP2 GT ISZERO PUSH2 0x438 JUMPI PUSH2 0x437 PUSH2 0x248 JUMP JUMPDEST JUMPDEST PUSH2 0x444 DUP7 DUP3 DUP8 ADD PUSH2 0x3B5 JUMP JUMPDEST SWAP2 POP POP SWAP3 POP SWAP3 POP SWAP3 JUMP JUMPDEST PUSH0 DUP3 DUP3 MSTORE PUSH1 0x20 DUP3 ADD SWAP1 POP SWAP3 SWAP2 POP POP JUMP JUMPDEST PUSH32 0x496D706C656D656E746174696F6E206973207A65726F20616464726573730000 PUSH0 DUP3 ADD MSTORE POP JUMP JUMPDEST PUSH0 PUSH2 0x492 PUSH1 0x1E DUP4 PUSH2 0x44E JUMP JUMPDEST SWAP2 POP PUSH2 0x49D DUP3 PUSH2 0x45E JUMP JUMPDEST PUSH1 0x20 DUP3 ADD SWAP1 POP SWAP2 SWAP1 POP JUMP JUMPDEST PUSH0 PUSH1 0x20 DUP3 ADD SWAP1 POP DUP2 DUP2 SUB PUSH0 DUP4 ADD MSTORE PUSH2 0x4BF DUP2 PUSH2 0x486 JUMP JUMPDEST SWAP1 POP SWAP2 SWAP1 POP JUMP JUMPDEST PUSH32 0x41646D696E206973207A65726F20616464726573730000000000000000000000 PUSH0 DUP3 ADD MSTORE POP JUMP JUMPDEST PUSH0 PUSH2 0x4FA PUSH1 0x15 DUP4 PUSH2 0x44E JUMP JUMPDEST SWAP2 POP PUSH2 0x505 DUP3 PUSH2 0x4C6 JUMP JUMPDEST PUSH1 0x20 DUP3 ADD SWAP1 POP SWAP2 SWAP1 POP JUMP JUMPDEST PUSH0 PUSH1 0x20 DUP3 ADD SWAP1 POP DUP2 DUP2 SUB PUSH0 DUP4 ADD MSTORE PUSH2 0x527 DUP2 PUSH2 0x4EE JUMP JUMPDEST SWAP1 POP SWAP2 SWAP1 POP JUMP JUMPDEST PUSH0 DUP2 MLOAD SWAP1 POP SWAP2 SWAP1 POP JUMP JUMPDEST PUSH0 DUP2 SWAP1 POP SWAP3 SWAP2 POP POP JUMP JUMPDEST PUSH0 PUSH2 0x54C DUP3 PUSH2 0x52E JUMP JUMPDEST PUSH2 0x556 DUP2 DUP6 PUSH2 0x538 JUMP JUMPDEST SWAP4 POP PUSH2 0x566 DUP2 DUP6 PUSH1 0x20 DUP7 ADD PUSH2 0x366 JUMP JUMPDEST DUP1 DUP5 ADD SWAP2 POP POP SWAP3 SWAP2 POP POP JUMP JUMPDEST PUSH0 PUSH2 0x57D DUP3 DUP5 PUSH2 0x542 JUMP JUMPDEST SWAP2 POP DUP2 SWAP1 POP SWAP3 SWAP2 POP POP JUMP JUMPDEST PUSH32 0x496E697469616C697A6174696F6E206661696C65640000000000000000000000 PUSH0 DUP3 ADD MSTORE POP JUMP JUMPDEST PUSH0 PUSH2 0x5BC PUSH1 0x15 DUP4 PUSH2 0x44E JUMP JUMPDEST SWAP2 POP PUSH2 0x5C7 DUP3 PUSH2 0x588 JUMP JUMPDEST PUSH1 0x20 DUP3 ADD SWAP1 POP SWAP2 SWAP1 POP JUMP JUMPDEST PUSH0 PUSH1 0x20 DUP3 ADD SWAP1 POP DUP2 DUP2 SUB PUSH0 DUP4 ADD MSTORE PUSH2 0x5E9 DUP2 PUSH2 0x5B0 JUMP JUMPDEST SWAP1 POP SWAP2 SWAP1 POP JUMP JUMPDEST PUSH2 0x92B DUP1 PUSH2 0x5FD PUSH0 CODECOPY PUSH0 RETURN INVALID PUSH1 0x80 PUSH1 0x40 MSTORE PUSH1 0x4 CALLDATASIZE LT PUSH2 0x42 JUMPI PUSH0 CALLDATALOAD PUSH1 0xE0 SHR DUP1 PUSH4 0x3659CFE6 EQ PUSH2 0x97 JUMPI DUP1 PUSH4 0x6E9960C3 EQ PUSH2 0xBF JUMPI DUP1 PUSH4 0x8F283970 EQ PUSH2 0xE9 JUMPI DUP1 PUSH4 0xAAF10F42 EQ PUSH2 0x111 JUMPI PUSH2 0x6D JUMP JUMPDEST CALLDATASIZE PUSH2 0x6D JUMPI PUSH0 PUSH2 0x50 PUSH2 0x13B JUMP JUMPDEST SWAP1 POP PUSH0 PUSH0 PUSH0 PUSH0 DUP5 GAS DELEGATECALL RETURNDATASIZE PUSH0 PUSH0 RETURNDATACOPY DUP1 PUSH0 DUP2 EQ PUSH2 0x69 JUMPI RETURNDATASIZE PUSH0 RETURN JUMPDEST RETURNDATASIZE PUSH0 REVERT JUMPDEST PUSH0 PUSH2 0x76 PUSH2 0x13B JUMP JUMPDEST SWAP1 POP CALLDATASIZE PUSH0 PUSH0 CALLDATACOPY PUSH0 PUSH0 CALLDATASIZE PUSH0 DUP5 GAS DELEGATECALL RETURNDATASIZE PUSH0 PUSH0 RETURNDATACOPY DUP1 PUSH0 DUP2 EQ PUSH2 0x93 JUMPI RETURNDATASIZE PUSH0 RETURN JUMPDEST RETURNDATASIZE PUSH0 REVERT JUMPDEST CALLVALUE DUP1 ISZERO PUSH2 0xA2 JUMPI PUSH0 PUSH0 REVERT JUMPDEST POP PUSH2 0xBD PUSH1 0x4 DUP1 CALLDATASIZE SUB DUP2 ADD SWAP1 PUSH2 0xB8 SWAP2 SWAP1 PUSH2 0x5D6 JUMP JUMPDEST PUSH2 0x168 JUMP JUMPDEST STOP JUMPDEST CALLVALUE DUP1 ISZERO PUSH2 0xCA JUMPI PUSH0 PUSH0 REVERT JUMPDEST POP PUSH2 0xD3 PUSH2 0x29A JUMP JUMPDEST PUSH1 0x40 MLOAD PUSH2 0xE0 SWAP2 SWAP1 PUSH2 0x610 JUMP JUMPDEST PUSH1 0x40 MLOAD DUP1 SWAP2 SUB SWAP1 RETURN JUMPDEST CALLVALUE DUP1 ISZERO PUSH2 0xF4 JUMPI PUSH0 PUSH0 REVERT JUMPDEST POP PUSH2 0x10F PUSH1 0x4 DUP1 CALLDATASIZE SUB DUP2 ADD SWAP1 PUSH2 0x10A SWAP2 SWAP1 PUSH2 0x5D6 JUMP JUMPDEST PUSH2 0x31D JUMP JUMPDEST STOP JUMPDEST CALLVALUE DUP1 ISZERO PUSH2 0x11C JUMPI PUSH0 PUSH0 REVERT JUMPDEST POP PUSH2 0x125 PUSH2 0x472 JUMP JUMPDEST PUSH1 0x40 MLOAD PUSH2 0x132 SWAP2 SWAP1 PUSH2 0x610 JUMP JUMPDEST PUSH1 0x40 MLOAD DUP1 SWAP2 SUB SWAP1 RETURN JUMPDEST PUSH0 PUSH0 PUSH32 0x24ED44EE9374370FD3AA7C8B1ABF58827504C20F65246B17D2B9E7E1AEF77847 SWAP1 POP DUP1 SLOAD SWAP2 POP POP SWAP1 JUMP JUMPDEST PUSH2 0x170 PUSH2 0x4F5 JUMP JUMPDEST PUSH20 0xFFFFFFFFFFFFFFFFFFFFFFFFFFFFFFFFFFFFFFFF AND CALLER PUSH20 0xFFFFFFFFFFFFFFFFFFFFFFFFFFFFFFFFFFFFFFFF AND EQ PUSH2 0x1DD JUMPI PUSH1 0x40 MLOAD PUSH32 0x8C379A000000000000000000000000000000000000000000000000000000000 DUP2 MSTORE PUSH1 0x4 ADD PUSH2 0x1D4 SWAP1 PUSH2 0x683 JUMP JUMPDEST PUSH1 0x40 MLOAD DUP1 SWAP2 SUB SWAP1 REVERT JUMPDEST PUSH0 PUSH20 0xFFFFFFFFFFFFFFFFFFFFFFFFFFFFFFFFFFFFFFFF AND DUP2 PUSH20 0xFFFFFFFFFFFFFFFFFFFFFFFFFFFFFFFFFFFFFFFF AND SUB PUSH2 0x24B JUMPI PUSH1 0x40 MLOAD PUSH32 0x8C379A000000000000000000000000000000000000000000000000000000000 DUP2 MSTORE PUSH1 0x4 ADD PUSH2 0x242 SWAP1 PUSH2 0x711 JUMP JUMPDEST PUSH1 0x40 MLOAD DUP1 SWAP2 SUB SWAP1 REVERT JUMPDEST PUSH2 0x254 DUP2 PUSH2 0x522 JUMP JUMPDEST DUP1 PUSH20 0xFFFFFFFFFFFFFFFFFFFFFFFFFFFFFFFFFFFFFFFF AND PUSH32 0xBC7CD75A20EE27FD9ADEBAB32041F755214DBC6BFFA90CC0225B39DA2E5C2D3B PUSH1 0x40 MLOAD PUSH1 0x40 MLOAD DUP1 SWAP2 SUB SWAP1 LOG2 POP JUMP JUMPDEST PUSH0 PUSH2 0x2A3 PUSH2 0x4F5 JUMP JUMPDEST PUSH20 0xFFFFFFFFFFFFFFFFFFFFFFFFFFFFFFFFFFFFFFFF AND CALLER PUSH20 0xFFFFFFFFFFFFFFFFFFFFFFFFFFFFFFFFFFFFFFFF AND EQ PUSH2 0x310 JUMPI PUSH1 0x40 MLOAD PUSH32 0x8C379A000000000000000000000000000000000000000000000000000000000 DUP2 MSTORE PUSH1 0x4 ADD PUSH2 0x307 SWAP1 PUSH2 0x779 JUMP JUMPDEST PUSH1 0x40 MLOAD DUP1 SWAP2 SUB SWAP1 REVERT JUMPDEST PUSH2 0x318 PUSH2 0x4F5 JUMP JUMPDEST SWAP1 POP SWAP1 JUMP JUMPDEST PUSH2 0x325 PUSH2 0x4F5 JUMP JUMPDEST PUSH20 0xFFFFFFFFFFFFFFFFFFFFFFFFFFFFFFFFFFFFFFFF AND CALLER PUSH20 0xFFFFFFFFFFFFFFFFFFFFFFFFFFFFFFFFFFFFFFFF AND EQ PUSH2 0x392 JUMPI PUSH1 0x40 MLOAD PUSH32 0x8C379A000000000000000000000000000000000000000000000000000000000 DUP2 MSTORE PUSH1 0x4 ADD PUSH2 0x389 SWAP1 PUSH2 0x7E1 JUMP JUMPDEST PUSH1 0x40 MLOAD DUP1 SWAP2 SUB SWAP1 REVERT JUMPDEST PUSH0 PUSH20 0xFFFFFFFFFFFFFFFFFFFFFFFFFFFFFFFFFFFFFFFF AND DUP2 PUSH20 0xFFFFFFFFFFFFFFFFFFFFFFFFFFFFFFFFFFFFFFFF AND SUB PUSH2 0x400 JUMPI PUSH1 0x40 MLOAD PUSH32 0x8C379A000000000000000000000000000000000000000000000000000000000 DUP2 MSTORE PUSH1 0x4 ADD PUSH2 0x3F7 SWAP1 PUSH2 0x849 JUMP JUMPDEST PUSH1 0x40 MLOAD DUP1 SWAP2 SUB SWAP1 REVERT JUMPDEST PUSH0 PUSH2 0x409 PUSH2 0x4F5 JUMP JUMPDEST SWAP1 POP PUSH2 0x414 DUP3 PUSH2 0x54D JUMP JUMPDEST DUP2 PUSH20 0xFFFFFFFFFFFFFFFFFFFFFFFFFFFFFFFFFFFFFFFF AND DUP2 PUSH20 0xFFFFFFFFFFFFFFFFFFFFFFFFFFFFFFFFFFFFFFFF AND PUSH32 0x7E644D79422F17C01E4894B5F4F588D331EBFA28653D42AE832DC59E38C9798F PUSH1 0x40 MLOAD PUSH1 0x40 MLOAD DUP1 SWAP2 SUB SWAP1 LOG3 POP POP JUMP JUMPDEST PUSH0 PUSH2 0x47B PUSH2 0x4F5 JUMP JUMPDEST PUSH20 0xFFFFFFFFFFFFFFFFFFFFFFFFFFFFFFFFFFFFFFFF AND CALLER PUSH20 0xFFFFFFFFFFFFFFFFFFFFFFFFFFFFFFFFFFFFFFFF AND EQ PUSH2 0x4E8 JUMPI PUSH1 0x40 MLOAD PUSH32 0x8C379A000000000000000000000000000000000000000000000000000000000 DUP2 MSTORE PUSH1 0x4 ADD PUSH2 0x4DF SWAP1 PUSH2 0x8D7 JUMP JUMPDEST PUSH1 0x40 MLOAD DUP1 SWAP2 SUB SWAP1 REVERT JUMPDEST PUSH2 0x4F0 PUSH2 0x13B JUMP JUMPDEST SWAP1 POP SWAP1 JUMP JUMPDEST PUSH0 PUSH0 PUSH32 0xB361EAF08109AC4E837850C52399E285128FDAA6C1699E4864DD655F97CA6FD8 SWAP1 POP DUP1 SLOAD SWAP2 POP POP SWAP1 JUMP JUMPDEST PUSH0 PUSH32 0x24ED44EE9374370FD3AA7C8B1ABF58827504C20F65246B17D2B9E7E1AEF77847 SWAP1 POP DUP2 DUP2 SSTORE POP POP JUMP JUMPDEST PUSH0 PUSH32 0xB361EAF08109AC4E837850C52399E285128FDAA6C1699E4864DD655F97CA6FD8 SWAP1 POP DUP2 DUP2 SSTORE POP POP JUMP JUMPDEST PUSH0 PUSH0 REVERT JUMPDEST PUSH0 PUSH20 0xFFFFFFFFFFFFFFFFFFFFFFFFFFFFFFFFFFFFFFFF DUP3 AND SWAP1 POP SWAP2 SWAP1 POP JUMP JUMPDEST PUSH0 PUSH2 0x5A5 DUP3 PUSH2 0x57C JUMP JUMPDEST SWAP1 POP SWAP2 SWAP1 POP JUMP JUMPDEST PUSH2 0x5B5 DUP2 PUSH2 0x59B JUMP JUMPDEST DUP2 EQ PUSH2 0x5BF JUMPI PUSH0 PUSH0 REVERT JUMPDEST POP JUMP JUMPDEST PUSH0 DUP2 CALLDATALOAD SWAP1 POP PUSH2 0x5D0 DUP2 PUSH2 0x5AC JUMP JUMPDEST SWAP3 SWAP2 POP POP JUMP JUMPDEST PUSH0 PUSH1 0x20 DUP3 DUP5 SUB SLT ISZERO PUSH2 0x5EB JUMPI PUSH2 0x5EA PUSH2 0x578 JUMP JUMPDEST JUMPDEST PUSH0 PUSH2 0x5F8 DUP5 DUP3 DUP6 ADD PUSH2 0x5C2 JUMP JUMPDEST SWAP2 POP POP SWAP3 SWAP2 POP POP JUMP JUMPDEST PUSH2 0x60A DUP2 PUSH2 0x59B JUMP JUMPDEST DUP3 MSTORE POP POP JUMP JUMPDEST PUSH0 PUSH1 0x20 DUP3 ADD SWAP1 POP PUSH2 0x623 PUSH0 DUP4 ADD DUP5 PUSH2 0x601 JUMP JUMPDEST SWAP3 SWAP2 POP POP JUMP JUMPDEST PUSH0 DUP3 DUP3 MSTORE PUSH1 0x20 DUP3 ADD SWAP1 POP SWAP3 SWAP2 POP POP JUMP JUMPDEST PUSH32 0x4F6E6C792061646D696E2063616E207570677261646500000000000000000000 PUSH0 DUP3 ADD MSTORE POP JUMP JUMPDEST PUSH0 PUSH2 0x66D PUSH1 0x16 DUP4 PUSH2 0x629 JUMP JUMPDEST SWAP2 POP PUSH2 0x678 DUP3 PUSH2 0x639 JUMP JUMPDEST PUSH1 0x20 DUP3 ADD SWAP1 POP SWAP2 SWAP1 POP JUMP JUMPDEST PUSH0 PUSH1 0x20 DUP3 ADD SWAP1 POP DUP2 DUP2 SUB PUSH0 DUP4 ADD MSTORE PUSH2 0x69A DUP2 PUSH2 0x661 JUMP JUMPDEST SWAP1 POP SWAP2 SWAP1 POP JUMP JUMPDEST PUSH32 0x4E657720696D706C656D656E746174696F6E206973207A65726F206164647265 PUSH0 DUP3 ADD MSTORE PUSH32 0x7373000000000000000000000000000000000000000000000000000000000000 PUSH1 0x20 DUP3 ADD MSTORE POP JUMP JUMPDEST PUSH0 PUSH2 0x6FB PUSH1 0x22 DUP4 PUSH2 0x629 JUMP JUMPDEST SWAP2 POP PUSH2 0x706 DUP3 PUSH2 0x6A1 JUMP JUMPDEST PUSH1 0x40 DUP3 ADD SWAP1 POP SWAP2 SWAP1 POP JUMP JUMPDEST PUSH0 PUSH1 0x20 DUP3 ADD SWAP1 POP DUP2 DUP2 SUB PUSH0 DUP4 ADD MSTORE PUSH2 0x728 DUP2 PUSH2 0x6EF JUMP JUMPDEST SWAP1 POP SWAP2 SWAP1 POP JUMP JUMPDEST PUSH32 0x4F6E6C792061646D696E2063616E20766965772061646D696E00000000000000 PUSH0 DUP3 ADD MSTORE POP JUMP JUMPDEST PUSH0 PUSH2 0x763 PUSH1 0x19 DUP4 PUSH2 0x629 JUMP JUMPDEST SWAP2 POP PUSH2 0x76E DUP3 PUSH2 0x72F JUMP JUMPDEST PUSH1 0x20 DUP3 ADD SWAP1 POP SWAP2 SWAP1 POP JUMP JUMPDEST PUSH0 PUSH1 0x20 DUP3 ADD SWAP1 POP DUP2 DUP2 SUB PUSH0 DUP4 ADD MSTORE PUSH2 0x790 DUP2 PUSH2 0x757 JUMP JUMPDEST SWAP1 POP SWAP2 SWAP1 POP JUMP JUMPDEST PUSH32 0x4F6E6C792061646D696E2063616E206368616E67652061646D696E0000000000 PUSH0 DUP3 ADD MSTORE POP JUMP JUMPDEST PUSH0 PUSH2 0x7CB PUSH1 0x1B DUP4 PUSH2 0x629 JUMP JUMPDEST SWAP2 POP PUSH2 0x7D6 DUP3 PUSH2 0x797 JUMP JUMPDEST PUSH1 0x20 DUP3 ADD SWAP1 POP SWAP2 SWAP1 POP JUMP JUMPDEST PUSH0 PUSH1 0x20 DUP3 ADD SWAP1 POP DUP2 DUP2 SUB PUSH0 DUP4 ADD MSTORE PUSH2 0x7F8 DUP2 PUSH2 0x7BF JUMP JUMPDEST SWAP1 POP SWAP2 SWAP1 POP JUMP JUMPDEST PUSH32 0x4E65772061646D696E206973207A65726F206164647265737300000000000000 PUSH0 DUP3 ADD MSTORE POP JUMP JUMPDEST PUSH0 PUSH2 0x833 PUSH1 0x19 DUP4 PUSH2 0x629 JUMP JUMPDEST SWAP2 POP PUSH2 0x83E DUP3 PUSH2 0x7FF JUMP JUMPDEST PUSH1 0x20 DUP3 ADD SWAP1 POP SWAP2 SWAP1 POP JUMP JUMPDEST PUSH0 PUSH1 0x20 DUP3 ADD SWAP1 POP DUP2 DUP2 SUB PUSH0 DUP4 ADD MSTORE PUSH2 0x860 DUP2 PUSH2 0x827 JUMP JUMPDEST SWAP1 POP SWAP2 SWAP1 POP JUMP JUMPDEST PUSH32 0x4F6E6C792061646D696E2063616E207669657720696D706C656D656E74617469 PUSH0 DUP3 ADD MSTORE PUSH32 0x6F6E000000000000000000000000000000000000000000000000000000000000 PUSH1 0x20 DUP3 ADD MSTORE POP JUMP JUMPDEST PUSH0 PUSH2 0x8C1 PUSH1 0x22 DUP4 PUSH2 0x629 JUMP JUMPDEST SWAP2 POP PUSH2 0x8CC DUP3 PUSH2 0x867 JUMP JUMPDEST PUSH1 0x40 DUP3 ADD SWAP1 POP SWAP2 SWAP1 POP JUMP JUMPDEST PUSH0 PUSH1 0x20 DUP3 ADD SWAP1 POP DUP2 DUP2 SUB PUSH0 DUP4 ADD MSTORE PUSH2 0x8EE DUP2 PUSH2 0x8B5 JUMP JUMPDEST SWAP1 POP SWAP2 SWAP1 POP JUMP INVALID LOG2 PUSH5 0x6970667358 0x22 SLT KECCAK256 SWAP15 0xB1 SUB JUMP 0xDF DUP8 0x2C PUSH26 0x3492EC0FF0724381190276696DFF3E2252ADAB0DAFD7037F6473 PUSH16 0x6C634300081E00330000000000000000 "
				},
				"gasEstimates": {
					"creation": {
						"codeDepositCost": "469400",
						"executionCost": "infinite",
						"totalCost": "infinite"
					},
					"external": {
						"": "infinite",
						"changeAdmin(address)": "infinite",
						"getAdmin()": "infinite",
						"getImplementation()": "4750",
						"upgradeTo(address)": "25949"
					},
					"internal": {
						"_getAdmin()": "2134",
						"_getImplementation()": "2134",
						"_setAdmin(address)": "22129",
						"_setImplementation(address)": "22129"
					}
				},
				"methodIdentifiers": {
					"changeAdmin(address)": "8f283970",
					"getAdmin()": "6e9960c3",
					"getImplementation()": "aaf10f42",
					"upgradeTo(address)": "3659cfe6"
				}
			},
			"storageLayout": {
				"storage": [],
				"types": null
			},
			"userdoc": {
				"kind": "user",
				"methods": {},
				"version": 1
			}
		}
	}
}