{
	"contracts/Proxy deployment contracts/ProxyAdmin.sol": {
		"ProxyAdmin": {
			"abi": [
				{
					"inputs": [],
					"stateMutability": "nonpayable",
					"type": "constructor"
				},
				{
					"anonymous": false,
					"inputs": [
						{
							"indexed": true,
							"internalType": "address",
							"name": "proxy",
							"type": "address"
						},
						{
							"indexed": false,
							"internalType": "address",
							"name": "newImplementation",
							"type": "address"
						}
					],
					"name": "Upgraded",
					"type": "event"
				},
				{
					"inputs": [],
					"name": "owner",
					"outputs": [
						{
							"internalType": "address",
							"name": "",
							"type": "address"
						}
					],
					"stateMutability": "view",
					"type": "function"
				},
				{
					"inputs": [
						{
							"internalType": "address",
							"name": "newOwner",
							"type": "address"
						}
					],
					"name": "transferOwnership",
					"outputs": [],
					"stateMutability": "nonpayable",
					"type": "function"
				},
				{
					"inputs": [
						{
							"internalType": "address payable",
							"name": "proxy",
							"type": "address"
						},
						{
							"internalType": "address",
							"name": "newImplementation",
							"type": "address"
						}
					],
					"name": "upgrade",
					"outputs": [],
					"stateMutability": "nonpayable",
					"type": "function"
				}
			],
			"devdoc": {
				"kind": "dev",
				"methods": {},
				"version": 1
			},
			"evm": {
				"assembly": "    /* \"contracts/Proxy deployment contracts/ProxyAdmin.sol\":138:895  contract ProxyAdmin {... */\n  mstore(0x40, 0x80)\n    /* \"contracts/Proxy deployment contracts/ProxyAdmin.sol\":269:320  constructor() {... */\n  callvalue\n  dup1\n  iszero\n  tag_1\n  jumpi\n  revert(0x00, 0x00)\ntag_1:\n  pop\n    /* \"contracts/Proxy deployment contracts/ProxyAdmin.sol\":302:312  msg.sender */\n  caller\n    /* \"contracts/Proxy deployment contracts/ProxyAdmin.sol\":294:299  owner */\n  0x00\n  0x00\n    /* \"contracts/Proxy deployment contracts/ProxyAdmin.sol\":294:312  owner = msg.sender */\n  0x0100\n  exp\n  dup2\n  sload\n  dup2\n  0xffffffffffffffffffffffffffffffffffffffff\n  mul\n  not\n  and\n  swap1\n  dup4\n  0xffffffffffffffffffffffffffffffffffffffff\n  and\n  mul\n  or\n  swap1\n  sstore\n  pop\n    /* \"contracts/Proxy deployment contracts/ProxyAdmin.sol\":138:895  contract ProxyAdmin {... */\n  dataSize(sub_0)\n  dup1\n  dataOffset(sub_0)\n  0x00\n  codecopy\n  0x00\n  return\nstop\n\nsub_0: assembly {\n        /* \"contracts/Proxy deployment contracts/ProxyAdmin.sol\":138:895  contract ProxyAdmin {... */\n      mstore(0x40, 0x80)\n      callvalue\n      dup1\n      iszero\n      tag_1\n      jumpi\n      revert(0x00, 0x00)\n    tag_1:\n      pop\n      jumpi(tag_2, lt(calldatasize, 0x04))\n      shr(0xe0, calldataload(0x00))\n      dup1\n      0x8da5cb5b\n      eq\n      tag_3\n      jumpi\n      dup1\n      0x99a88ec4\n      eq\n      tag_4\n      jumpi\n      dup1\n      0xf2fde38b\n      eq\n      tag_5\n      jumpi\n    tag_2:\n      revert(0x00, 0x00)\n        /* \"contracts/Proxy deployment contracts/ProxyAdmin.sol\":236:256  address public owner */\n    tag_3:\n      tag_6\n      tag_7\n      jump\t// in\n    tag_6:\n      mload(0x40)\n      tag_8\n      swap2\n      swap1\n      tag_9\n      jump\t// in\n    tag_8:\n      mload(0x40)\n      dup1\n      swap2\n      sub\n      swap1\n      return\n        /* \"contracts/Proxy deployment contracts/ProxyAdmin.sol\":494:750  function upgrade(address payable  proxy, address newImplementation) external onlyOwner {... */\n    tag_4:\n      tag_10\n      0x04\n      dup1\n      calldatasize\n      sub\n      dup2\n      add\n      swap1\n      tag_11\n      swap2\n      swap1\n      tag_12\n      jump\t// in\n    tag_11:\n      tag_13\n      jump\t// in\n    tag_10:\n      stop\n        /* \"contracts/Proxy deployment contracts/ProxyAdmin.sol\":793:892  function transferOwnership(address newOwner) external onlyOwner {... */\n    tag_5:\n      tag_14\n      0x04\n      dup1\n      calldatasize\n      sub\n      dup2\n      add\n      swap1\n      tag_15\n      swap2\n      swap1\n      tag_16\n      jump\t// in\n    tag_15:\n      tag_17\n      jump\t// in\n    tag_14:\n      stop\n        /* \"contracts/Proxy deployment contracts/ProxyAdmin.sol\":236:256  address public owner */\n    tag_7:\n      0x00\n      0x00\n      swap1\n      sload\n      swap1\n      0x0100\n      exp\n      swap1\n      div\n      0xffffffffffffffffffffffffffffffffffffffff\n      and\n      dup2\n      jump\t// out\n        /* \"contracts/Proxy deployment contracts/ProxyAdmin.sol\":494:750  function upgrade(address payable  proxy, address newImplementation) external onlyOwner {... */\n    tag_13:\n        /* \"contracts/Proxy deployment contracts/ProxyAdmin.sol\":386:391  owner */\n      0x00\n      0x00\n      swap1\n      sload\n      swap1\n      0x0100\n      exp\n      swap1\n      div\n      0xffffffffffffffffffffffffffffffffffffffff\n      and\n        /* \"contracts/Proxy deployment contracts/ProxyAdmin.sol\":372:391  msg.sender == owner */\n      0xffffffffffffffffffffffffffffffffffffffff\n      and\n        /* \"contracts/Proxy deployment contracts/ProxyAdmin.sol\":372:382  msg.sender */\n      caller\n        /* \"contracts/Proxy deployment contracts/ProxyAdmin.sol\":372:391  msg.sender == owner */\n      0xffffffffffffffffffffffffffffffffffffffff\n      and\n      eq\n        /* \"contracts/Proxy deployment contracts/ProxyAdmin.sol\":364:405  require(msg.sender == owner, \"Not owner\") */\n      tag_19\n      jumpi\n      mload(0x40)\n      0x08c379a000000000000000000000000000000000000000000000000000000000\n      dup2\n      mstore\n      0x04\n      add\n      tag_20\n      swap1\n      tag_21\n      jump\t// in\n    tag_20:\n      mload(0x40)\n      dup1\n      swap2\n      sub\n      swap1\n      revert\n    tag_19:\n        /* \"contracts/Proxy deployment contracts/ProxyAdmin.sol\":632:633  0 */\n      0x00\n        /* \"contracts/Proxy deployment contracts/ProxyAdmin.sol\":600:617  newImplementation */\n      dup2\n        /* \"contracts/Proxy deployment contracts/ProxyAdmin.sol\":600:629  newImplementation.code.length */\n      0xffffffffffffffffffffffffffffffffffffffff\n      and\n      extcodesize\n        /* \"contracts/Proxy deployment contracts/ProxyAdmin.sol\":600:633  newImplementation.code.length > 0 */\n      gt\n        /* \"contracts/Proxy deployment contracts/ProxyAdmin.sol\":592:634  require(newImplementation.code.length > 0) */\n      tag_23\n      jumpi\n      revert(0x00, 0x00)\n    tag_23:\n        /* \"contracts/Proxy deployment contracts/ProxyAdmin.sol\":657:662  proxy */\n      dup2\n        /* \"contracts/Proxy deployment contracts/ProxyAdmin.sol\":645:673  SimpleProxy(proxy).upgradeTo */\n      0xffffffffffffffffffffffffffffffffffffffff\n      and\n      0x3659cfe6\n        /* \"contracts/Proxy deployment contracts/ProxyAdmin.sol\":674:691  newImplementation */\n      dup3\n        /* \"contracts/Proxy deployment contracts/ProxyAdmin.sol\":645:692  SimpleProxy(proxy).upgradeTo(newImplementation) */\n      mload(0x40)\n      dup3\n      0xffffffff\n      and\n      0xe0\n      shl\n      dup2\n      mstore\n      0x04\n      add\n      tag_24\n      swap2\n      swap1\n      tag_9\n      jump\t// in\n    tag_24:\n      0x00\n      mload(0x40)\n      dup1\n      dup4\n      sub\n      dup2\n      0x00\n      dup8\n      dup1\n      extcodesize\n      iszero\n      dup1\n      iszero\n      tag_25\n      jumpi\n      revert(0x00, 0x00)\n    tag_25:\n      pop\n      gas\n      call\n      iszero\n      dup1\n      iszero\n      tag_27\n      jumpi\n      returndatacopy(0x00, 0x00, returndatasize)\n      revert(0x00, returndatasize)\n    tag_27:\n      pop\n      pop\n      pop\n      pop\n        /* \"contracts/Proxy deployment contracts/ProxyAdmin.sol\":717:722  proxy */\n      dup2\n        /* \"contracts/Proxy deployment contracts/ProxyAdmin.sol\":708:742  Upgraded(proxy, newImplementation) */\n      0xffffffffffffffffffffffffffffffffffffffff\n      and\n      0x5d611f318680d00598bb735d61bacf0c514c6b50e1e5ad30040a4df2b12791c7\n        /* \"contracts/Proxy deployment contracts/ProxyAdmin.sol\":724:741  newImplementation */\n      dup3\n        /* \"contracts/Proxy deployment contracts/ProxyAdmin.sol\":708:742  Upgraded(proxy, newImplementation) */\n      mload(0x40)\n      tag_28\n      swap2\n      swap1\n      tag_9\n      jump\t// in\n    tag_28:\n      mload(0x40)\n      dup1\n      swap2\n      sub\n      swap1\n      log2\n        /* \"contracts/Proxy deployment contracts/ProxyAdmin.sol\":494:750  function upgrade(address payable  proxy, address newImplementation) external onlyOwner {... */\n      pop\n      pop\n      jump\t// out\n        /* \"contracts/Proxy deployment contracts/ProxyAdmin.sol\":793:892  function transferOwnership(address newOwner) external onlyOwner {... */\n    tag_17:\n        /* \"contracts/Proxy deployment contracts/ProxyAdmin.sol\":386:391  owner */\n      0x00\n      0x00\n      swap1\n      sload\n      swap1\n      0x0100\n      exp\n      swap1\n      div\n      0xffffffffffffffffffffffffffffffffffffffff\n      and\n        /* \"contracts/Proxy deployment contracts/ProxyAdmin.sol\":372:391  msg.sender == owner */\n      0xffffffffffffffffffffffffffffffffffffffff\n      and\n        /* \"contracts/Proxy deployment contracts/ProxyAdmin.sol\":372:382  msg.sender */\n      caller\n        /* \"contracts/Proxy deployment contracts/ProxyAdmin.sol\":372:391  msg.sender == owner */\n      0xffffffffffffffffffffffffffffffffffffffff\n      and\n      eq\n        /* \"contracts/Proxy deployment contracts/ProxyAdmin.sol\":364:405  require(msg.sender == owner, \"Not owner\") */\n      tag_30\n      jumpi\n      mload(0x40)\n      0x08c379a000000000000000000000000000000000000000000000000000000000\n      dup2\n      mstore\n      0x04\n      add\n      tag_31\n      swap1\n      tag_21\n      jump\t// in\n    tag_31:\n      mload(0x40)\n      dup1\n      swap2\n      sub\n      swap1\n      revert\n    tag_30:\n        /* \"contracts/Proxy deployment contracts/ProxyAdmin.sol\":876:884  newOwner */\n      dup1\n        /* \"contracts/Proxy deployment contracts/ProxyAdmin.sol\":868:873  owner */\n      0x00\n      0x00\n        /* \"contracts/Proxy deployment contracts/ProxyAdmin.sol\":868:884  owner = newOwner */\n      0x0100\n      exp\n      dup2\n      sload\n      dup2\n      0xffffffffffffffffffffffffffffffffffffffff\n      mul\n      not\n      and\n      swap1\n      dup4\n      0xffffffffffffffffffffffffffffffffffffffff\n      and\n      mul\n      or\n      swap1\n      sstore\n      pop\n        /* \"contracts/Proxy deployment contracts/ProxyAdmin.sol\":793:892  function transferOwnership(address newOwner) external onlyOwner {... */\n      pop\n      jump\t// out\n        /* \"#utility.yul\":7:133   */\n    tag_33:\n        /* \"#utility.yul\":44:51   */\n      0x00\n        /* \"#utility.yul\":84:126   */\n      0xffffffffffffffffffffffffffffffffffffffff\n        /* \"#utility.yul\":77:82   */\n      dup3\n        /* \"#utility.yul\":73:127   */\n      and\n        /* \"#utility.yul\":62:127   */\n      swap1\n      pop\n        /* \"#utility.yul\":7:133   */\n      swap2\n      swap1\n      pop\n      jump\t// out\n        /* \"#utility.yul\":139:235   */\n    tag_34:\n        /* \"#utility.yul\":176:183   */\n      0x00\n        /* \"#utility.yul\":205:229   */\n      tag_50\n        /* \"#utility.yul\":223:228   */\n      dup3\n        /* \"#utility.yul\":205:229   */\n      tag_33\n      jump\t// in\n    tag_50:\n        /* \"#utility.yul\":194:229   */\n      swap1\n      pop\n        /* \"#utility.yul\":139:235   */\n      swap2\n      swap1\n      pop\n      jump\t// out\n        /* \"#utility.yul\":241:359   */\n    tag_35:\n        /* \"#utility.yul\":328:352   */\n      tag_52\n        /* \"#utility.yul\":346:351   */\n      dup2\n        /* \"#utility.yul\":328:352   */\n      tag_34\n      jump\t// in\n    tag_52:\n        /* \"#utility.yul\":323:326   */\n      dup3\n        /* \"#utility.yul\":316:353   */\n      mstore\n        /* \"#utility.yul\":241:359   */\n      pop\n      pop\n      jump\t// out\n        /* \"#utility.yul\":365:587   */\n    tag_9:\n        /* \"#utility.yul\":458:462   */\n      0x00\n        /* \"#utility.yul\":496:498   */\n      0x20\n        /* \"#utility.yul\":485:494   */\n      dup3\n        /* \"#utility.yul\":481:499   */\n      add\n        /* \"#utility.yul\":473:499   */\n      swap1\n      pop\n        /* \"#utility.yul\":509:580   */\n      tag_54\n        /* \"#utility.yul\":577:578   */\n      0x00\n        /* \"#utility.yul\":566:575   */\n      dup4\n        /* \"#utility.yul\":562:579   */\n      add\n        /* \"#utility.yul\":553:559   */\n      dup5\n        /* \"#utility.yul\":509:580   */\n      tag_35\n      jump\t// in\n    tag_54:\n        /* \"#utility.yul\":365:587   */\n      swap3\n      swap2\n      pop\n      pop\n      jump\t// out\n        /* \"#utility.yul\":674:791   */\n    tag_37:\n        /* \"#utility.yul\":783:784   */\n      0x00\n        /* \"#utility.yul\":780:781   */\n      0x00\n        /* \"#utility.yul\":773:785   */\n      revert\n        /* \"#utility.yul\":920:1024   */\n    tag_39:\n        /* \"#utility.yul\":965:972   */\n      0x00\n        /* \"#utility.yul\":994:1018   */\n      tag_59\n        /* \"#utility.yul\":1012:1017   */\n      dup3\n        /* \"#utility.yul\":994:1018   */\n      tag_33\n      jump\t// in\n    tag_59:\n        /* \"#utility.yul\":983:1018   */\n      swap1\n      pop\n        /* \"#utility.yul\":920:1024   */\n      swap2\n      swap1\n      pop\n      jump\t// out\n        /* \"#utility.yul\":1030:1168   */\n    tag_40:\n        /* \"#utility.yul\":1111:1143   */\n      tag_61\n        /* \"#utility.yul\":1137:1142   */\n      dup2\n        /* \"#utility.yul\":1111:1143   */\n      tag_39\n      jump\t// in\n    tag_61:\n        /* \"#utility.yul\":1104:1109   */\n      dup2\n        /* \"#utility.yul\":1101:1144   */\n      eq\n        /* \"#utility.yul\":1091:1162   */\n      tag_62\n      jumpi\n        /* \"#utility.yul\":1158:1159   */\n      0x00\n        /* \"#utility.yul\":1155:1156   */\n      0x00\n        /* \"#utility.yul\":1148:1160   */\n      revert\n        /* \"#utility.yul\":1091:1162   */\n    tag_62:\n        /* \"#utility.yul\":1030:1168   */\n      pop\n      jump\t// out\n        /* \"#utility.yul\":1174:1329   */\n    tag_41:\n        /* \"#utility.yul\":1228:1233   */\n      0x00\n        /* \"#utility.yul\":1266:1272   */\n      dup2\n        /* \"#utility.yul\":1253:1273   */\n      calldataload\n        /* \"#utility.yul\":1244:1273   */\n      swap1\n      pop\n        /* \"#utility.yul\":1282:1323   */\n      tag_64\n        /* \"#utility.yul\":1317:1322   */\n      dup2\n        /* \"#utility.yul\":1282:1323   */\n      tag_40\n      jump\t// in\n    tag_64:\n        /* \"#utility.yul\":1174:1329   */\n      swap3\n      swap2\n      pop\n      pop\n      jump\t// out\n        /* \"#utility.yul\":1335:1457   */\n    tag_42:\n        /* \"#utility.yul\":1408:1432   */\n      tag_66\n        /* \"#utility.yul\":1426:1431   */\n      dup2\n        /* \"#utility.yul\":1408:1432   */\n      tag_34\n      jump\t// in\n    tag_66:\n        /* \"#utility.yul\":1401:1406   */\n      dup2\n        /* \"#utility.yul\":1398:1433   */\n      eq\n        /* \"#utility.yul\":1388:1451   */\n      tag_67\n      jumpi\n        /* \"#utility.yul\":1447:1448   */\n      0x00\n        /* \"#utility.yul\":1444:1445   */\n      0x00\n        /* \"#utility.yul\":1437:1449   */\n      revert\n        /* \"#utility.yul\":1388:1451   */\n    tag_67:\n        /* \"#utility.yul\":1335:1457   */\n      pop\n      jump\t// out\n        /* \"#utility.yul\":1463:1602   */\n    tag_43:\n        /* \"#utility.yul\":1509:1514   */\n      0x00\n        /* \"#utility.yul\":1547:1553   */\n      dup2\n        /* \"#utility.yul\":1534:1554   */\n      calldataload\n        /* \"#utility.yul\":1525:1554   */\n      swap1\n      pop\n        /* \"#utility.yul\":1563:1596   */\n      tag_69\n        /* \"#utility.yul\":1590:1595   */\n      dup2\n        /* \"#utility.yul\":1563:1596   */\n      tag_42\n      jump\t// in\n    tag_69:\n        /* \"#utility.yul\":1463:1602   */\n      swap3\n      swap2\n      pop\n      pop\n      jump\t// out\n        /* \"#utility.yul\":1608:2098   */\n    tag_12:\n        /* \"#utility.yul\":1684:1690   */\n      0x00\n        /* \"#utility.yul\":1692:1698   */\n      0x00\n        /* \"#utility.yul\":1741:1743   */\n      0x40\n        /* \"#utility.yul\":1729:1738   */\n      dup4\n        /* \"#utility.yul\":1720:1727   */\n      dup6\n        /* \"#utility.yul\":1716:1739   */\n      sub\n        /* \"#utility.yul\":1712:1744   */\n      slt\n        /* \"#utility.yul\":1709:1828   */\n      iszero\n      tag_71\n      jumpi\n        /* \"#utility.yul\":1747:1826   */\n      tag_72\n      tag_37\n      jump\t// in\n    tag_72:\n        /* \"#utility.yul\":1709:1828   */\n    tag_71:\n        /* \"#utility.yul\":1867:1868   */\n      0x00\n        /* \"#utility.yul\":1892:1953   */\n      tag_73\n        /* \"#utility.yul\":1945:1952   */\n      dup6\n        /* \"#utility.yul\":1936:1942   */\n      dup3\n        /* \"#utility.yul\":1925:1934   */\n      dup7\n        /* \"#utility.yul\":1921:1943   */\n      add\n        /* \"#utility.yul\":1892:1953   */\n      tag_41\n      jump\t// in\n    tag_73:\n        /* \"#utility.yul\":1882:1953   */\n      swap3\n      pop\n        /* \"#utility.yul\":1838:1963   */\n      pop\n        /* \"#utility.yul\":2002:2004   */\n      0x20\n        /* \"#utility.yul\":2028:2081   */\n      tag_74\n        /* \"#utility.yul\":2073:2080   */\n      dup6\n        /* \"#utility.yul\":2064:2070   */\n      dup3\n        /* \"#utility.yul\":2053:2062   */\n      dup7\n        /* \"#utility.yul\":2049:2071   */\n      add\n        /* \"#utility.yul\":2028:2081   */\n      tag_43\n      jump\t// in\n    tag_74:\n        /* \"#utility.yul\":2018:2081   */\n      swap2\n      pop\n        /* \"#utility.yul\":1973:2091   */\n      pop\n        /* \"#utility.yul\":1608:2098   */\n      swap3\n      pop\n      swap3\n      swap1\n      pop\n      jump\t// out\n        /* \"#utility.yul\":2104:2433   */\n    tag_16:\n        /* \"#utility.yul\":2163:2169   */\n      0x00\n        /* \"#utility.yul\":2212:2214   */\n      0x20\n        /* \"#utility.yul\":2200:2209   */\n      dup3\n        /* \"#utility.yul\":2191:2198   */\n      dup5\n        /* \"#utility.yul\":2187:2210   */\n      sub\n        /* \"#utility.yul\":2183:2215   */\n      slt\n        /* \"#utility.yul\":2180:2299   */\n      iszero\n      tag_76\n      jumpi\n        /* \"#utility.yul\":2218:2297   */\n      tag_77\n      tag_37\n      jump\t// in\n    tag_77:\n        /* \"#utility.yul\":2180:2299   */\n    tag_76:\n        /* \"#utility.yul\":2338:2339   */\n      0x00\n        /* \"#utility.yul\":2363:2416   */\n      tag_78\n        /* \"#utility.yul\":2408:2415   */\n      dup5\n        /* \"#utility.yul\":2399:2405   */\n      dup3\n        /* \"#utility.yul\":2388:2397   */\n      dup6\n        /* \"#utility.yul\":2384:2406   */\n      add\n        /* \"#utility.yul\":2363:2416   */\n      tag_43\n      jump\t// in\n    tag_78:\n        /* \"#utility.yul\":2353:2416   */\n      swap2\n      pop\n        /* \"#utility.yul\":2309:2426   */\n      pop\n        /* \"#utility.yul\":2104:2433   */\n      swap3\n      swap2\n      pop\n      pop\n      jump\t// out\n        /* \"#utility.yul\":2439:2608   */\n    tag_44:\n        /* \"#utility.yul\":2523:2534   */\n      0x00\n        /* \"#utility.yul\":2557:2563   */\n      dup3\n        /* \"#utility.yul\":2552:2555   */\n      dup3\n        /* \"#utility.yul\":2545:2564   */\n      mstore\n        /* \"#utility.yul\":2597:2601   */\n      0x20\n        /* \"#utility.yul\":2592:2595   */\n      dup3\n        /* \"#utility.yul\":2588:2602   */\n      add\n        /* \"#utility.yul\":2573:2602   */\n      swap1\n      pop\n        /* \"#utility.yul\":2439:2608   */\n      swap3\n      swap2\n      pop\n      pop\n      jump\t// out\n        /* \"#utility.yul\":2614:2773   */\n    tag_45:\n        /* \"#utility.yul\":2754:2765   */\n      0x4e6f74206f776e65720000000000000000000000000000000000000000000000\n        /* \"#utility.yul\":2750:2751   */\n      0x00\n        /* \"#utility.yul\":2742:2748   */\n      dup3\n        /* \"#utility.yul\":2738:2752   */\n      add\n        /* \"#utility.yul\":2731:2766   */\n      mstore\n        /* \"#utility.yul\":2614:2773   */\n      pop\n      jump\t// out\n        /* \"#utility.yul\":2779:3144   */\n    tag_46:\n        /* \"#utility.yul\":2921:2924   */\n      0x00\n        /* \"#utility.yul\":2942:3008   */\n      tag_82\n        /* \"#utility.yul\":3006:3007   */\n      0x09\n        /* \"#utility.yul\":3001:3004   */\n      dup4\n        /* \"#utility.yul\":2942:3008   */\n      tag_44\n      jump\t// in\n    tag_82:\n        /* \"#utility.yul\":2935:3008   */\n      swap2\n      pop\n        /* \"#utility.yul\":3017:3110   */\n      tag_83\n        /* \"#utility.yul\":3106:3109   */\n      dup3\n        /* \"#utility.yul\":3017:3110   */\n      tag_45\n      jump\t// in\n    tag_83:\n        /* \"#utility.yul\":3135:3137   */\n      0x20\n        /* \"#utility.yul\":3130:3133   */\n      dup3\n        /* \"#utility.yul\":3126:3138   */\n      add\n        /* \"#utility.yul\":3119:3138   */\n      swap1\n      pop\n        /* \"#utility.yul\":2779:3144   */\n      swap2\n      swap1\n      pop\n      jump\t// out\n        /* \"#utility.yul\":3150:3569   */\n    tag_21:\n        /* \"#utility.yul\":3316:3320   */\n      0x00\n        /* \"#utility.yul\":3354:3356   */\n      0x20\n        /* \"#utility.yul\":3343:3352   */\n      dup3\n        /* \"#utility.yul\":3339:3357   */\n      add\n        /* \"#utility.yul\":3331:3357   */\n      swap1\n      pop\n        /* \"#utility.yul\":3403:3412   */\n      dup2\n        /* \"#utility.yul\":3397:3401   */\n      dup2\n        /* \"#utility.yul\":3393:3413   */\n      sub\n        /* \"#utility.yul\":3389:3390   */\n      0x00\n        /* \"#utility.yul\":3378:3387   */\n      dup4\n        /* \"#utility.yul\":3374:3391   */\n      add\n        /* \"#utility.yul\":3367:3414   */\n      mstore\n        /* \"#utility.yul\":3431:3562   */\n      tag_85\n        /* \"#utility.yul\":3557:3561   */\n      dup2\n        /* \"#utility.yul\":3431:3562   */\n      tag_46\n      jump\t// in\n    tag_85:\n        /* \"#utility.yul\":3423:3562   */\n      swap1\n      pop\n        /* \"#utility.yul\":3150:3569   */\n      swap2\n      swap1\n      pop\n      jump\t// out\n\n    auxdata: 0xa264697066735822122078ae7e5f82fbe3c54558ba0092d0209d004fd14748245005e8b14d87b016a12064736f6c634300081e0033\n}\n",
				"bytecode": {
					"linkReferences": {},
					"object": "6080604052348015600e575f5ffd5b50335f5f6101000a81548173ffffffffffffffffffffffffffffffffffffffff021916908373ffffffffffffffffffffffffffffffffffffffff1602179055506104cd8061005b5f395ff3fe608060405234801561000f575f5ffd5b506004361061003f575f3560e01c80638da5cb5b1461004357806399a88ec414610061578063f2fde38b1461007d575b5f5ffd5b61004b610099565b6040516100589190610334565b60405180910390f35b61007b600480360381019061007691906103b6565b6100bd565b005b610097600480360381019061009291906103f4565b610225565b005b5f5f9054906101000a900473ffffffffffffffffffffffffffffffffffffffff1681565b5f5f9054906101000a900473ffffffffffffffffffffffffffffffffffffffff1673ffffffffffffffffffffffffffffffffffffffff163373ffffffffffffffffffffffffffffffffffffffff161461014b576040517f08c379a000000000000000000000000000000000000000000000000000000000815260040161014290610479565b60405180910390fd5b5f8173ffffffffffffffffffffffffffffffffffffffff163b1161016d575f5ffd5b8173ffffffffffffffffffffffffffffffffffffffff16633659cfe6826040518263ffffffff1660e01b81526004016101a69190610334565b5f604051808303815f87803b1580156101bd575f5ffd5b505af11580156101cf573d5f5f3e3d5ffd5b505050508173ffffffffffffffffffffffffffffffffffffffff167f5d611f318680d00598bb735d61bacf0c514c6b50e1e5ad30040a4df2b12791c7826040516102199190610334565b60405180910390a25050565b5f5f9054906101000a900473ffffffffffffffffffffffffffffffffffffffff1673ffffffffffffffffffffffffffffffffffffffff163373ffffffffffffffffffffffffffffffffffffffff16146102b3576040517f08c379a00000000000000000000000000000000000000000000000000000000081526004016102aa90610479565b60405180910390fd5b805f5f6101000a81548173ffffffffffffffffffffffffffffffffffffffff021916908373ffffffffffffffffffffffffffffffffffffffff16021790555050565b5f73ffffffffffffffffffffffffffffffffffffffff82169050919050565b5f61031e826102f5565b9050919050565b61032e81610314565b82525050565b5f6020820190506103475f830184610325565b92915050565b5f5ffd5b5f61035b826102f5565b9050919050565b61036b81610351565b8114610375575f5ffd5b50565b5f8135905061038681610362565b92915050565b61039581610314565b811461039f575f5ffd5b50565b5f813590506103b08161038c565b92915050565b5f5f604083850312156103cc576103cb61034d565b5b5f6103d985828601610378565b92505060206103ea858286016103a2565b9150509250929050565b5f602082840312156104095761040861034d565b5b5f610416848285016103a2565b91505092915050565b5f82825260208201905092915050565b7f4e6f74206f776e657200000000000000000000000000000000000000000000005f82015250565b5f61046360098361041f565b915061046e8261042f565b602082019050919050565b5f6020820190508181035f83015261049081610457565b905091905056fea264697066735822122078ae7e5f82fbe3c54558ba0092d0209d004fd14748245005e8b14d87b016a12064736f6c634300081e0033",
					"opcodes": "PUSH1 0x80 PUSH1 0x40 MSTORE CALLVALUE DUP1 ISZERO PUSH1 0xE JUMPI PUSH0 PUSH0 REVERT JUMPDEST POP CALLER PUSH0 PUSH0 PUSH2 0x100 EXP DUP2 SLOAD DUP2 PUSH20 0xFFFFFFFFFFFFFFFFFFFFFFFFFFFFFFFFFFFFFFFF MUL NOT AND SWAP1 DUP4 PUSH20 0xFFFFFFFFFFFFFFFFFFFFFFFFFFFFFFFFFFFFFFFF AND MUL OR SWAP1 SSTORE POP PUSH2 0x4CD DUP1 PUSH2 0x5B PUSH0 CODECOPY PUSH0 RETURN INVALID PUSH1 0x80 PUSH1 0x40 MSTORE CALLVALUE DUP1 ISZERO PUSH2 0xF JUMPI PUSH0 PUSH0 REVERT JUMPDEST POP PUSH1 0x4 CALLDATASIZE LT PUSH2 0x3F JUMPI PUSH0 CALLDATALOAD PUSH1 0xE0 SHR DUP1 PUSH4 0x8DA5CB5B EQ PUSH2 0x43 JUMPI DUP1 PUSH4 0x99A88EC4 EQ PUSH2 0x61 JUMPI DUP1 PUSH4 0xF2FDE38B EQ PUSH2 0x7D JUMPI JUMPDEST PUSH0 PUSH0 REVERT JUMPDEST PUSH2 0x4B PUSH2 0x99 JUMP JUMPDEST PUSH1 0x40 MLOAD PUSH2 0x58 SWAP2 SWAP1 PUSH2 0x334 JUMP JUMPDEST PUSH1 0x40 MLOAD DUP1 SWAP2 SUB SWAP1 RETURN JUMPDEST PUSH2 0x7B PUSH1 0x4 DUP1 CALLDATASIZE SUB DUP2 ADD SWAP1 PUSH2 0x76 SWAP2 SWAP1 PUSH2 0x3B6 JUMP JUMPDEST PUSH2 0xBD JUMP JUMPDEST STOP JUMPDEST PUSH2 0x97 PUSH1 0x4 DUP1 CALLDATASIZE SUB DUP2 ADD SWAP1 PUSH2 0x92 SWAP2 SWAP1 PUSH2 0x3F4 JUMP JUMPDEST PUSH2 0x225 JUMP JUMPDEST STOP JUMPDEST PUSH0 PUSH0 SWAP1 SLOAD SWAP1 PUSH2 0x100 EXP SWAP1 DIV PUSH20 0xFFFFFFFFFFFFFFFFFFFFFFFFFFFFFFFFFFFFFFFF AND DUP2 JUMP JUMPDEST PUSH0 PUSH0 SWAP1 SLOAD SWAP1 PUSH2 0x100 EXP SWAP1 DIV PUSH20 0xFFFFFFFFFFFFFFFFFFFFFFFFFFFFFFFFFFFFFFFF AND PUSH20 0xFFFFFFFFFFFFFFFFFFFFFFFFFFFFFFFFFFFFFFFF AND CALLER PUSH20 0xFFFFFFFFFFFFFFFFFFFFFFFFFFFFFFFFFFFFFFFF AND EQ PUSH2 0x14B JUMPI PUSH1 0x40 MLOAD PUSH32 0x8C379A000000000000000000000000000000000000000000000000000000000 DUP2 MSTORE PUSH1 0x4 ADD PUSH2 0x142 SWAP1 PUSH2 0x479 JUMP JUMPDEST PUSH1 0x40 MLOAD DUP1 SWAP2 SUB SWAP1 REVERT JUMPDEST PUSH0 DUP2 PUSH20 0xFFFFFFFFFFFFFFFFFFFFFFFFFFFFFFFFFFFFFFFF AND EXTCODESIZE GT PUSH2 0x16D JUMPI PUSH0 PUSH0 REVERT JUMPDEST DUP2 PUSH20 0xFFFFFFFFFFFFFFFFFFFFFFFFFFFFFFFFFFFFFFFF AND PUSH4 0x3659CFE6 DUP3 PUSH1 0x40 MLOAD DUP3 PUSH4 0xFFFFFFFF AND PUSH1 0xE0 SHL DUP2 MSTORE PUSH1 0x4 ADD PUSH2 0x1A6 SWAP2 SWAP1 PUSH2 0x334 JUMP JUMPDEST PUSH0 PUSH1 0x40 MLOAD DUP1 DUP4 SUB DUP2 PUSH0 DUP8 DUP1 EXTCODESIZE ISZERO DUP1 ISZERO PUSH2 0x1BD JUMPI PUSH0 PUSH0 REVERT JUMPDEST POP GAS CALL ISZERO DUP1 ISZERO PUSH2 0x1CF JUMPI RETURNDATASIZE PUSH0 PUSH0 RETURNDATACOPY RETURNDATASIZE PUSH0 REVERT JUMPDEST POP POP POP POP DUP2 PUSH20 0xFFFFFFFFFFFFFFFFFFFFFFFFFFFFFFFFFFFFFFFF AND PUSH32 0x5D611F318680D00598BB735D61BACF0C514C6B50E1E5AD30040A4DF2B12791C7 DUP3 PUSH1 0x40 MLOAD PUSH2 0x219 SWAP2 SWAP1 PUSH2 0x334 JUMP JUMPDEST PUSH1 0x40 MLOAD DUP1 SWAP2 SUB SWAP1 LOG2 POP POP JUMP JUMPDEST PUSH0 PUSH0 SWAP1 SLOAD SWAP1 PUSH2 0x100 EXP SWAP1 DIV PUSH20 0xFFFFFFFFFFFFFFFFFFFFFFFFFFFFFFFFFFFFFFFF AND PUSH20 0xFFFFFFFFFFFFFFFFFFFFFFFFFFFFFFFFFFFFFFFF AND CALLER PUSH20 0xFFFFFFFFFFFFFFFFFFFFFFFFFFFFFFFFFFFFFFFF AND EQ PUSH2 0x2B3 JUMPI PUSH1 0x40 MLOAD PUSH32 0x8C379A000000000000000000000000000000000000000000000000000000000 DUP2 MSTORE PUSH1 0x4 ADD PUSH2 0x2AA SWAP1 PUSH2 0x479 JUMP JUMPDEST PUSH1 0x40 MLOAD DUP1 SWAP2 SUB SWAP1 REVERT JUMPDEST DUP1 PUSH0 PUSH0 PUSH2 0x100 EXP DUP2 SLOAD DUP2 PUSH20 0xFFFFFFFFFFFFFFFFFFFFFFFFFFFFFFFFFFFFFFFF MUL NOT AND SWAP1 DUP4 PUSH20 0xFFFFFFFFFFFFFFFFFFFFFFFFFFFFFFFFFFFFFFFF AND MUL OR SWAP1 SSTORE POP POP JUMP JUMPDEST PUSH0 PUSH20 0xFFFFFFFFFFFFFFFFFFFFFFFFFFFFFFFFFFFFFFFF DUP3 AND SWAP1 POP SWAP2 SWAP1 POP JUMP JUMPDEST PUSH0 PUSH2 0x31E DUP3 PUSH2 0x2F5 JUMP JUMPDEST SWAP1 POP SWAP2 SWAP1 POP JUMP JUMPDEST PUSH2 0x32E DUP2 PUSH2 0x314 JUMP JUMPDEST DUP3 MSTORE POP POP JUMP JUMPDEST PUSH0 PUSH1 0x20 DUP3 ADD SWAP1 POP PUSH2 0x347 PUSH0 DUP4 ADD DUP5 PUSH2 0x325 JUMP JUMPDEST SWAP3 SWAP2 POP POP JUMP JUMPDEST PUSH0 PUSH0 REVERT JUMPDEST PUSH0 PUSH2 0x35B DUP3 PUSH2 0x2F5 JUMP JUMPDEST SWAP1 POP SWAP2 SWAP1 POP JUMP JUMPDEST PUSH2 0x36B DUP2 PUSH2 0x351 JUMP JUMPDEST DUP2 EQ PUSH2 0x375 JUMPI PUSH0 PUSH0 REVERT JUMPDEST POP JUMP JUMPDEST PUSH0 DUP2 CALLDATALOAD SWAP1 POP PUSH2 0x386 DUP2 PUSH2 0x362 JUMP JUMPDEST SWAP3 SWAP2 POP POP JUMP JUMPDEST PUSH2 0x395 DUP2 PUSH2 0x314 JUMP JUMPDEST DUP2 EQ PUSH2 0x39F JUMPI PUSH0 PUSH0 REVERT JUMPDEST POP JUMP JUMPDEST PUSH0 DUP2 CALLDATALOAD SWAP1 POP PUSH2 0x3B0 DUP2 PUSH2 0x38C JUMP JUMPDEST SWAP3 SWAP2 POP POP JUMP JUMPDEST PUSH0 PUSH0 PUSH1 0x40 DUP4 DUP6 SUB SLT ISZERO PUSH2 0x3CC JUMPI PUSH2 0x3CB PUSH2 0x34D JUMP JUMPDEST JUMPDEST PUSH0 PUSH2 0x3D9 DUP6 DUP3 DUP7 ADD PUSH2 0x378 JUMP JUMPDEST SWAP3 POP POP PUSH1 0x20 PUSH2 0x3EA DUP6 DUP3 DUP7 ADD PUSH2 0x3A2 JUMP JUMPDEST SWAP2 POP POP SWAP3 POP SWAP3 SWAP1 POP JUMP JUMPDEST PUSH0 PUSH1 0x20 DUP3 DUP5 SUB SLT ISZERO PUSH2 0x409 JUMPI PUSH2 0x408 PUSH2 0x34D JUMP JUMPDEST JUMPDEST PUSH0 PUSH2 0x416 DUP5 DUP3 DUP6 ADD PUSH2 0x3A2 JUMP JUMPDEST SWAP2 POP POP SWAP3 SWAP2 POP POP JUMP JUMPDEST PUSH0 DUP3 DUP3 MSTORE PUSH1 0x20 DUP3 ADD SWAP1 POP SWAP3 SWAP2 POP POP JUMP JUMPDEST PUSH32 0x4E6F74206F776E65720000000000000000000000000000000000000000000000 PUSH0 DUP3 ADD MSTORE POP JUMP JUMPDEST PUSH0 PUSH2 0x463 PUSH1 0x9 DUP4 PUSH2 0x41F JUMP JUMPDEST SWAP2 POP PUSH2 0x46E DUP3 PUSH2 0x42F JUMP JUMPDEST PUSH1 0x20 DUP3 ADD SWAP1 POP SWAP2 SWAP1 POP JUMP JUMPDEST PUSH0 PUSH1 0x20 DUP3 ADD SWAP1 POP DUP2 DUP2 SUB PUSH0 DUP4 ADD MSTORE PUSH2 0x490 DUP2 PUSH2 0x457 JUMP JUMPDEST SWAP1 POP SWAP2 SWAP1 POP JUMP INVALID LOG2 PUSH5 0x6970667358 0x22 SLT KECCAK256 PUSH25 0xAE7E5F82FBE3C54558BA0092D0209D004FD14748245005E8B1 0x4D DUP8 0xB0 AND LOG1 KECCAK256 PUSH5 0x736F6C6343 STOP ADDMOD 0x1E STOP CALLER "
				},
				"gasEstimates": {
					"creation": {
						"codeDepositCost": "245800",
						"executionCost": "24549",
						"totalCost": "270349"
					},
					"external": {
						"owner()": "2485",
						"transferOwnership(address)": "26904",
						"upgrade(address,address)": "infinite"
					}
				},
				"methodIdentifiers": {
					"owner()": "8da5cb5b",
					"transferOwnership(address)": "f2fde38b",
					"upgrade(address,address)": "99a88ec4"
				}
			},
			"storageLayout": {
				"storage": [
					{
						"astId": 10,
						"contract": "contracts/Proxy deployment contracts/ProxyAdmin.sol:ProxyAdmin",
						"label": "owner",
						"offset": 0,
						"slot": "0",
						"type": "t_address"
					}
				],
				"types": {
					"t_address": {
						"encoding": "inplace",
						"label": "address",
						"numberOfBytes": "20"
					}
				}
			},
			"userdoc": {
				"kind": "user",
				"methods": {},
				"version": 1
			}
		}
	}
}