{
	"contracts/Proxy deployment contracts/SimpleProxy.sol": {
		"SimpleProxy": {
			"abi": [
				{
					"inputs": [
						{
							"internalType": "address",
							"name": "implementation",
							"type": "address"
						},
						{
							"internalType": "address",
							"name": "adminContract",
							"type": "address"
						},
						{
							"internalType": "bytes",
							"name": "initData",
							"type": "bytes"
						}
					],
					"stateMutability": "nonpayable",
					"type": "constructor"
				},
				{
					"stateMutability": "payable",
					"type": "fallback"
				},
				{
					"inputs": [],
					"name": "getImplementation",
					"outputs": [
						{
							"internalType": "address",
							"name": "",
							"type": "address"
						}
					],
					"stateMutability": "view",
					"type": "function"
				},
				{
					"inputs": [
						{
							"internalType": "address",
							"name": "newImplementation",
							"type": "address"
						}
					],
					"name": "upgradeTo",
					"outputs": [],
					"stateMutability": "nonpayable",
					"type": "function"
				},
				{
					"stateMutability": "payable",
					"type": "receive"
				}
			],
			"devdoc": {
				"kind": "dev",
				"methods": {},
				"version": 1
			},
			"evm": {
				"assembly": "    /* \"contracts/Proxy deployment contracts/SimpleProxy.sol\":111:3310  contract SimpleProxy {... */\n  mstore(0x40, 0x80)\n    /* \"contracts/Proxy deployment contracts/SimpleProxy.sol\":349:803  constructor(address implementation, address adminContract, bytes memory initData) {... */\n  callvalue\n  dup1\n  iszero\n  tag_1\n  jumpi\n  revert(0x00, 0x00)\ntag_1:\n  pop\n  mload(0x40)\n  sub(codesize, bytecodeSize)\n  dup1\n  bytecodeSize\n  dup4\n  codecopy\n  dup2\n  dup2\n  add\n  0x40\n  mstore\n  dup2\n  add\n  swap1\n  tag_2\n  swap2\n  swap1\n  tag_3\n  jump\t// in\ntag_2:\n    /* \"contracts/Proxy deployment contracts/SimpleProxy.sol\":483:517  _setImplementation(implementation) */\n  tag_6\n    /* \"contracts/Proxy deployment contracts/SimpleProxy.sol\":502:516  implementation */\n  dup4\n    /* \"contracts/Proxy deployment contracts/SimpleProxy.sol\":483:501  _setImplementation */\n  shl(0x20, tag_7)\n    /* \"contracts/Proxy deployment contracts/SimpleProxy.sol\":483:517  _setImplementation(implementation) */\n  0x20\n  shr\n  jump\t// in\ntag_6:\n    /* \"contracts/Proxy deployment contracts/SimpleProxy.sol\":528:552  _setAdmin(adminContract) */\n  tag_8\n    /* \"contracts/Proxy deployment contracts/SimpleProxy.sol\":538:551  adminContract */\n  dup3\n    /* \"contracts/Proxy deployment contracts/SimpleProxy.sol\":528:537  _setAdmin */\n  shl(0x20, tag_9)\n    /* \"contracts/Proxy deployment contracts/SimpleProxy.sol\":528:552  _setAdmin(adminContract) */\n  0x20\n  shr\n  jump\t// in\ntag_8:\n    /* \"contracts/Proxy deployment contracts/SimpleProxy.sol\":654:655  0 */\n  0x00\n    /* \"contracts/Proxy deployment contracts/SimpleProxy.sol\":636:644  initData */\n  dup2\n    /* \"contracts/Proxy deployment contracts/SimpleProxy.sol\":636:651  initData.length */\n  mload\n    /* \"contracts/Proxy deployment contracts/SimpleProxy.sol\":636:655  initData.length > 0 */\n  gt\n    /* \"contracts/Proxy deployment contracts/SimpleProxy.sol\":632:796  if (initData.length > 0) {... */\n  iszero\n  tag_10\n  jumpi\n    /* \"contracts/Proxy deployment contracts/SimpleProxy.sol\":673:685  bool success */\n  0x00\n    /* \"contracts/Proxy deployment contracts/SimpleProxy.sol\":691:705  implementation */\n  dup4\n    /* \"contracts/Proxy deployment contracts/SimpleProxy.sol\":691:718  implementation.delegatecall */\n  0xffffffffffffffffffffffffffffffffffffffff\n  and\n    /* \"contracts/Proxy deployment contracts/SimpleProxy.sol\":719:727  initData */\n  dup3\n    /* \"contracts/Proxy deployment contracts/SimpleProxy.sol\":691:728  implementation.delegatecall(initData) */\n  mload(0x40)\n  tag_11\n  swap2\n  swap1\n  tag_12\n  jump\t// in\ntag_11:\n  0x00\n  mload(0x40)\n  dup1\n  dup4\n  sub\n  dup2\n  dup6\n  gas\n  delegatecall\n  swap2\n  pop\n  pop\n  returndatasize\n  dup1\n  0x00\n  dup2\n  eq\n  tag_15\n  jumpi\n  mload(0x40)\n  swap2\n  pop\n  and(add(returndatasize, 0x3f), not(0x1f))\n  dup3\n  add\n  0x40\n  mstore\n  returndatasize\n  dup3\n  mstore\n  returndatasize\n  0x00\n  0x20\n  dup5\n  add\n  returndatacopy\n  jump(tag_14)\ntag_15:\n  0x60\n  swap2\n  pop\ntag_14:\n  pop\n    /* \"contracts/Proxy deployment contracts/SimpleProxy.sol\":672:728  (bool success, ) = implementation.delegatecall(initData) */\n  pop\n  swap1\n  pop\n    /* \"contracts/Proxy deployment contracts/SimpleProxy.sol\":751:758  success */\n  dup1\n    /* \"contracts/Proxy deployment contracts/SimpleProxy.sol\":743:784  require(success, \"Initialization failed\") */\n  tag_16\n  jumpi\n  mload(0x40)\n  0x08c379a000000000000000000000000000000000000000000000000000000000\n  dup2\n  mstore\n  0x04\n  add\n  tag_17\n  swap1\n  tag_18\n  jump\t// in\ntag_17:\n  mload(0x40)\n  dup1\n  swap2\n  sub\n  swap1\n  revert\ntag_16:\n    /* \"contracts/Proxy deployment contracts/SimpleProxy.sol\":657:796  {... */\n  pop\n    /* \"contracts/Proxy deployment contracts/SimpleProxy.sol\":632:796  if (initData.length > 0) {... */\ntag_10:\n    /* \"contracts/Proxy deployment contracts/SimpleProxy.sol\":349:803  constructor(address implementation, address adminContract, bytes memory initData) {... */\n  pop\n  pop\n  pop\n    /* \"contracts/Proxy deployment contracts/SimpleProxy.sol\":111:3310  contract SimpleProxy {... */\n  jump(tag_19)\n    /* \"contracts/Proxy deployment contracts/SimpleProxy.sol\":2785:2958  function _setImplementation(address newImpl) internal {... */\ntag_7:\n    /* \"contracts/Proxy deployment contracts/SimpleProxy.sol\":2850:2862  bytes32 slot */\n  0x00\n    /* \"contracts/Proxy deployment contracts/SimpleProxy.sol\":234:267  keccak256(\"proxy.implementation\") */\n  0x24ed44ee9374370fd3aa7c8b1abf58827504c20f65246b17d2b9e7e1aef77847\n    /* \"contracts/Proxy deployment contracts/SimpleProxy.sol\":2850:2884  bytes32 slot = IMPLEMENTATION_SLOT */\n  swap1\n  pop\n    /* \"contracts/Proxy deployment contracts/SimpleProxy.sol\":2932:2939  newImpl */\n  dup2\n    /* \"contracts/Proxy deployment contracts/SimpleProxy.sol\":2926:2930  slot */\n  dup2\n    /* \"contracts/Proxy deployment contracts/SimpleProxy.sol\":2919:2940  sstore(slot, newImpl) */\n  sstore\n    /* \"contracts/Proxy deployment contracts/SimpleProxy.sol\":2904:2951  {... */\n  pop\n    /* \"contracts/Proxy deployment contracts/SimpleProxy.sol\":2785:2958  function _setImplementation(address newImpl) internal {... */\n  pop\n  jump\t// out\n    /* \"contracts/Proxy deployment contracts/SimpleProxy.sol\":3150:3307  function _setAdmin(address newAdmin) internal {... */\ntag_9:\n    /* \"contracts/Proxy deployment contracts/SimpleProxy.sol\":3207:3219  bytes32 slot */\n  0x00\n    /* \"contracts/Proxy deployment contracts/SimpleProxy.sol\":312:336  keccak256(\"proxy.admin\") */\n  0xb361eaf08109ac4e837850c52399e285128fdaa6c1699e4864dd655f97ca6fd8\n    /* \"contracts/Proxy deployment contracts/SimpleProxy.sol\":3207:3232  bytes32 slot = ADMIN_SLOT */\n  swap1\n  pop\n    /* \"contracts/Proxy deployment contracts/SimpleProxy.sol\":3280:3288  newAdmin */\n  dup2\n    /* \"contracts/Proxy deployment contracts/SimpleProxy.sol\":3274:3278  slot */\n  dup2\n    /* \"contracts/Proxy deployment contracts/SimpleProxy.sol\":3267:3289  sstore(slot, newAdmin) */\n  sstore\n    /* \"contracts/Proxy deployment contracts/SimpleProxy.sol\":3252:3300  {... */\n  pop\n    /* \"contracts/Proxy deployment contracts/SimpleProxy.sol\":3150:3307  function _setAdmin(address newAdmin) internal {... */\n  pop\n  jump\t// out\n    /* \"#utility.yul\":7:82   */\ntag_22:\n    /* \"#utility.yul\":40:46   */\n  0x00\n    /* \"#utility.yul\":73:75   */\n  0x40\n    /* \"#utility.yul\":67:76   */\n  mload\n    /* \"#utility.yul\":57:76   */\n  swap1\n  pop\n    /* \"#utility.yul\":7:82   */\n  swap1\n  jump\t// out\n    /* \"#utility.yul\":88:205   */\ntag_23:\n    /* \"#utility.yul\":197:198   */\n  0x00\n    /* \"#utility.yul\":194:195   */\n  0x00\n    /* \"#utility.yul\":187:199   */\n  revert\n    /* \"#utility.yul\":211:328   */\ntag_24:\n    /* \"#utility.yul\":320:321   */\n  0x00\n    /* \"#utility.yul\":317:318   */\n  0x00\n    /* \"#utility.yul\":310:322   */\n  revert\n    /* \"#utility.yul\":334:460   */\ntag_25:\n    /* \"#utility.yul\":371:378   */\n  0x00\n    /* \"#utility.yul\":411:453   */\n  0xffffffffffffffffffffffffffffffffffffffff\n    /* \"#utility.yul\":404:409   */\n  dup3\n    /* \"#utility.yul\":400:454   */\n  and\n    /* \"#utility.yul\":389:454   */\n  swap1\n  pop\n    /* \"#utility.yul\":334:460   */\n  swap2\n  swap1\n  pop\n  jump\t// out\n    /* \"#utility.yul\":466:562   */\ntag_26:\n    /* \"#utility.yul\":503:510   */\n  0x00\n    /* \"#utility.yul\":532:556   */\n  tag_51\n    /* \"#utility.yul\":550:555   */\n  dup3\n    /* \"#utility.yul\":532:556   */\n  tag_25\n  jump\t// in\ntag_51:\n    /* \"#utility.yul\":521:556   */\n  swap1\n  pop\n    /* \"#utility.yul\":466:562   */\n  swap2\n  swap1\n  pop\n  jump\t// out\n    /* \"#utility.yul\":568:690   */\ntag_27:\n    /* \"#utility.yul\":641:665   */\n  tag_53\n    /* \"#utility.yul\":659:664   */\n  dup2\n    /* \"#utility.yul\":641:665   */\n  tag_26\n  jump\t// in\ntag_53:\n    /* \"#utility.yul\":634:639   */\n  dup2\n    /* \"#utility.yul\":631:666   */\n  eq\n    /* \"#utility.yul\":621:684   */\n  tag_54\n  jumpi\n    /* \"#utility.yul\":680:681   */\n  0x00\n    /* \"#utility.yul\":677:678   */\n  0x00\n    /* \"#utility.yul\":670:682   */\n  revert\n    /* \"#utility.yul\":621:684   */\ntag_54:\n    /* \"#utility.yul\":568:690   */\n  pop\n  jump\t// out\n    /* \"#utility.yul\":696:839   */\ntag_28:\n    /* \"#utility.yul\":753:758   */\n  0x00\n    /* \"#utility.yul\":784:790   */\n  dup2\n    /* \"#utility.yul\":778:791   */\n  mload\n    /* \"#utility.yul\":769:791   */\n  swap1\n  pop\n    /* \"#utility.yul\":800:833   */\n  tag_56\n    /* \"#utility.yul\":827:832   */\n  dup2\n    /* \"#utility.yul\":800:833   */\n  tag_27\n  jump\t// in\ntag_56:\n    /* \"#utility.yul\":696:839   */\n  swap3\n  swap2\n  pop\n  pop\n  jump\t// out\n    /* \"#utility.yul\":845:962   */\ntag_29:\n    /* \"#utility.yul\":954:955   */\n  0x00\n    /* \"#utility.yul\":951:952   */\n  0x00\n    /* \"#utility.yul\":944:956   */\n  revert\n    /* \"#utility.yul\":968:1085   */\ntag_30:\n    /* \"#utility.yul\":1077:1078   */\n  0x00\n    /* \"#utility.yul\":1074:1075   */\n  0x00\n    /* \"#utility.yul\":1067:1079   */\n  revert\n    /* \"#utility.yul\":1091:1193   */\ntag_31:\n    /* \"#utility.yul\":1132:1138   */\n  0x00\n    /* \"#utility.yul\":1183:1185   */\n  0x1f\n    /* \"#utility.yul\":1179:1186   */\n  not\n    /* \"#utility.yul\":1174:1176   */\n  0x1f\n    /* \"#utility.yul\":1167:1172   */\n  dup4\n    /* \"#utility.yul\":1163:1177   */\n  add\n    /* \"#utility.yul\":1159:1187   */\n  and\n    /* \"#utility.yul\":1149:1187   */\n  swap1\n  pop\n    /* \"#utility.yul\":1091:1193   */\n  swap2\n  swap1\n  pop\n  jump\t// out\n    /* \"#utility.yul\":1199:1379   */\ntag_32:\n    /* \"#utility.yul\":1247:1324   */\n  0x4e487b7100000000000000000000000000000000000000000000000000000000\n    /* \"#utility.yul\":1244:1245   */\n  0x00\n    /* \"#utility.yul\":1237:1325   */\n  mstore\n    /* \"#utility.yul\":1344:1348   */\n  0x41\n    /* \"#utility.yul\":1341:1342   */\n  0x04\n    /* \"#utility.yul\":1334:1349   */\n  mstore\n    /* \"#utility.yul\":1368:1372   */\n  0x24\n    /* \"#utility.yul\":1365:1366   */\n  0x00\n    /* \"#utility.yul\":1358:1373   */\n  revert\n    /* \"#utility.yul\":1385:1666   */\ntag_33:\n    /* \"#utility.yul\":1468:1495   */\n  tag_62\n    /* \"#utility.yul\":1490:1494   */\n  dup3\n    /* \"#utility.yul\":1468:1495   */\n  tag_31\n  jump\t// in\ntag_62:\n    /* \"#utility.yul\":1460:1466   */\n  dup2\n    /* \"#utility.yul\":1456:1496   */\n  add\n    /* \"#utility.yul\":1598:1604   */\n  dup2\n    /* \"#utility.yul\":1586:1596   */\n  dup2\n    /* \"#utility.yul\":1583:1605   */\n  lt\n    /* \"#utility.yul\":1562:1580   */\n  0xffffffffffffffff\n    /* \"#utility.yul\":1550:1560   */\n  dup3\n    /* \"#utility.yul\":1547:1581   */\n  gt\n    /* \"#utility.yul\":1544:1606   */\n  or\n    /* \"#utility.yul\":1541:1629   */\n  iszero\n  tag_63\n  jumpi\n    /* \"#utility.yul\":1609:1627   */\n  tag_64\n  tag_32\n  jump\t// in\ntag_64:\n    /* \"#utility.yul\":1541:1629   */\ntag_63:\n    /* \"#utility.yul\":1649:1659   */\n  dup1\n    /* \"#utility.yul\":1645:1647   */\n  0x40\n    /* \"#utility.yul\":1638:1660   */\n  mstore\n    /* \"#utility.yul\":1428:1666   */\n  pop\n    /* \"#utility.yul\":1385:1666   */\n  pop\n  pop\n  jump\t// out\n    /* \"#utility.yul\":1672:1801   */\ntag_34:\n    /* \"#utility.yul\":1706:1712   */\n  0x00\n    /* \"#utility.yul\":1733:1753   */\n  tag_66\n  tag_22\n  jump\t// in\ntag_66:\n    /* \"#utility.yul\":1723:1753   */\n  swap1\n  pop\n    /* \"#utility.yul\":1762:1795   */\n  tag_67\n    /* \"#utility.yul\":1790:1794   */\n  dup3\n    /* \"#utility.yul\":1782:1788   */\n  dup3\n    /* \"#utility.yul\":1762:1795   */\n  tag_33\n  jump\t// in\ntag_67:\n    /* \"#utility.yul\":1672:1801   */\n  swap2\n  swap1\n  pop\n  jump\t// out\n    /* \"#utility.yul\":1807:2114   */\ntag_35:\n    /* \"#utility.yul\":1868:1872   */\n  0x00\n    /* \"#utility.yul\":1958:1976   */\n  0xffffffffffffffff\n    /* \"#utility.yul\":1950:1956   */\n  dup3\n    /* \"#utility.yul\":1947:1977   */\n  gt\n    /* \"#utility.yul\":1944:2000   */\n  iszero\n  tag_69\n  jumpi\n    /* \"#utility.yul\":1980:1998   */\n  tag_70\n  tag_32\n  jump\t// in\ntag_70:\n    /* \"#utility.yul\":1944:2000   */\ntag_69:\n    /* \"#utility.yul\":2018:2047   */\n  tag_71\n    /* \"#utility.yul\":2040:2046   */\n  dup3\n    /* \"#utility.yul\":2018:2047   */\n  tag_31\n  jump\t// in\ntag_71:\n    /* \"#utility.yul\":2010:2047   */\n  swap1\n  pop\n    /* \"#utility.yul\":2102:2106   */\n  0x20\n    /* \"#utility.yul\":2096:2100   */\n  dup2\n    /* \"#utility.yul\":2092:2107   */\n  add\n    /* \"#utility.yul\":2084:2107   */\n  swap1\n  pop\n    /* \"#utility.yul\":1807:2114   */\n  swap2\n  swap1\n  pop\n  jump\t// out\n    /* \"#utility.yul\":2120:2259   */\ntag_36:\n    /* \"#utility.yul\":2209:2215   */\n  dup3\n    /* \"#utility.yul\":2204:2207   */\n  dup2\n    /* \"#utility.yul\":2199:2202   */\n  dup4\n    /* \"#utility.yul\":2193:2216   */\n  mcopy\n    /* \"#utility.yul\":2250:2251   */\n  0x00\n    /* \"#utility.yul\":2241:2247   */\n  dup4\n    /* \"#utility.yul\":2236:2239   */\n  dup4\n    /* \"#utility.yul\":2232:2248   */\n  add\n    /* \"#utility.yul\":2225:2252   */\n  mstore\n    /* \"#utility.yul\":2120:2259   */\n  pop\n  pop\n  pop\n  jump\t// out\n    /* \"#utility.yul\":2265:2697   */\ntag_37:\n    /* \"#utility.yul\":2353:2358   */\n  0x00\n    /* \"#utility.yul\":2378:2443   */\n  tag_74\n    /* \"#utility.yul\":2394:2442   */\n  tag_75\n    /* \"#utility.yul\":2435:2441   */\n  dup5\n    /* \"#utility.yul\":2394:2442   */\n  tag_35\n  jump\t// in\ntag_75:\n    /* \"#utility.yul\":2378:2443   */\n  tag_34\n  jump\t// in\ntag_74:\n    /* \"#utility.yul\":2369:2443   */\n  swap1\n  pop\n    /* \"#utility.yul\":2466:2472   */\n  dup3\n    /* \"#utility.yul\":2459:2464   */\n  dup2\n    /* \"#utility.yul\":2452:2473   */\n  mstore\n    /* \"#utility.yul\":2504:2508   */\n  0x20\n    /* \"#utility.yul\":2497:2502   */\n  dup2\n    /* \"#utility.yul\":2493:2509   */\n  add\n    /* \"#utility.yul\":2542:2545   */\n  dup5\n    /* \"#utility.yul\":2533:2539   */\n  dup5\n    /* \"#utility.yul\":2528:2531   */\n  dup5\n    /* \"#utility.yul\":2524:2540   */\n  add\n    /* \"#utility.yul\":2521:2546   */\n  gt\n    /* \"#utility.yul\":2518:2630   */\n  iszero\n  tag_76\n  jumpi\n    /* \"#utility.yul\":2549:2628   */\n  tag_77\n  tag_30\n  jump\t// in\ntag_77:\n    /* \"#utility.yul\":2518:2630   */\ntag_76:\n    /* \"#utility.yul\":2639:2691   */\n  tag_78\n    /* \"#utility.yul\":2684:2690   */\n  dup5\n    /* \"#utility.yul\":2679:2682   */\n  dup3\n    /* \"#utility.yul\":2674:2677   */\n  dup6\n    /* \"#utility.yul\":2639:2691   */\n  tag_36\n  jump\t// in\ntag_78:\n    /* \"#utility.yul\":2359:2697   */\n  pop\n    /* \"#utility.yul\":2265:2697   */\n  swap4\n  swap3\n  pop\n  pop\n  pop\n  jump\t// out\n    /* \"#utility.yul\":2716:3069   */\ntag_38:\n    /* \"#utility.yul\":2782:2787   */\n  0x00\n    /* \"#utility.yul\":2831:2834   */\n  dup3\n    /* \"#utility.yul\":2824:2828   */\n  0x1f\n    /* \"#utility.yul\":2816:2822   */\n  dup4\n    /* \"#utility.yul\":2812:2829   */\n  add\n    /* \"#utility.yul\":2808:2835   */\n  slt\n    /* \"#utility.yul\":2798:2920   */\n  tag_80\n  jumpi\n    /* \"#utility.yul\":2839:2918   */\n  tag_81\n  tag_29\n  jump\t// in\ntag_81:\n    /* \"#utility.yul\":2798:2920   */\ntag_80:\n    /* \"#utility.yul\":2949:2955   */\n  dup2\n    /* \"#utility.yul\":2943:2956   */\n  mload\n    /* \"#utility.yul\":2974:3063   */\n  tag_82\n    /* \"#utility.yul\":3059:3062   */\n  dup5\n    /* \"#utility.yul\":3051:3057   */\n  dup3\n    /* \"#utility.yul\":3044:3048   */\n  0x20\n    /* \"#utility.yul\":3036:3042   */\n  dup7\n    /* \"#utility.yul\":3032:3049   */\n  add\n    /* \"#utility.yul\":2974:3063   */\n  tag_37\n  jump\t// in\ntag_82:\n    /* \"#utility.yul\":2965:3063   */\n  swap2\n  pop\n    /* \"#utility.yul\":2788:3069   */\n  pop\n    /* \"#utility.yul\":2716:3069   */\n  swap3\n  swap2\n  pop\n  pop\n  jump\t// out\n    /* \"#utility.yul\":3075:3909   */\ntag_3:\n    /* \"#utility.yul\":3172:3178   */\n  0x00\n    /* \"#utility.yul\":3180:3186   */\n  0x00\n    /* \"#utility.yul\":3188:3194   */\n  0x00\n    /* \"#utility.yul\":3237:3239   */\n  0x60\n    /* \"#utility.yul\":3225:3234   */\n  dup5\n    /* \"#utility.yul\":3216:3223   */\n  dup7\n    /* \"#utility.yul\":3212:3235   */\n  sub\n    /* \"#utility.yul\":3208:3240   */\n  slt\n    /* \"#utility.yul\":3205:3324   */\n  iszero\n  tag_84\n  jumpi\n    /* \"#utility.yul\":3243:3322   */\n  tag_85\n  tag_23\n  jump\t// in\ntag_85:\n    /* \"#utility.yul\":3205:3324   */\ntag_84:\n    /* \"#utility.yul\":3363:3364   */\n  0x00\n    /* \"#utility.yul\":3388:3452   */\n  tag_86\n    /* \"#utility.yul\":3444:3451   */\n  dup7\n    /* \"#utility.yul\":3435:3441   */\n  dup3\n    /* \"#utility.yul\":3424:3433   */\n  dup8\n    /* \"#utility.yul\":3420:3442   */\n  add\n    /* \"#utility.yul\":3388:3452   */\n  tag_28\n  jump\t// in\ntag_86:\n    /* \"#utility.yul\":3378:3452   */\n  swap4\n  pop\n    /* \"#utility.yul\":3334:3462   */\n  pop\n    /* \"#utility.yul\":3501:3503   */\n  0x20\n    /* \"#utility.yul\":3527:3591   */\n  tag_87\n    /* \"#utility.yul\":3583:3590   */\n  dup7\n    /* \"#utility.yul\":3574:3580   */\n  dup3\n    /* \"#utility.yul\":3563:3572   */\n  dup8\n    /* \"#utility.yul\":3559:3581   */\n  add\n    /* \"#utility.yul\":3527:3591   */\n  tag_28\n  jump\t// in\ntag_87:\n    /* \"#utility.yul\":3517:3591   */\n  swap3\n  pop\n    /* \"#utility.yul\":3472:3601   */\n  pop\n    /* \"#utility.yul\":3661:3663   */\n  0x40\n    /* \"#utility.yul\":3650:3659   */\n  dup5\n    /* \"#utility.yul\":3646:3664   */\n  add\n    /* \"#utility.yul\":3640:3665   */\n  mload\n    /* \"#utility.yul\":3692:3710   */\n  0xffffffffffffffff\n    /* \"#utility.yul\":3684:3690   */\n  dup2\n    /* \"#utility.yul\":3681:3711   */\n  gt\n    /* \"#utility.yul\":3678:3795   */\n  iszero\n  tag_88\n  jumpi\n    /* \"#utility.yul\":3714:3793   */\n  tag_89\n  tag_24\n  jump\t// in\ntag_89:\n    /* \"#utility.yul\":3678:3795   */\ntag_88:\n    /* \"#utility.yul\":3819:3892   */\n  tag_90\n    /* \"#utility.yul\":3884:3891   */\n  dup7\n    /* \"#utility.yul\":3875:3881   */\n  dup3\n    /* \"#utility.yul\":3864:3873   */\n  dup8\n    /* \"#utility.yul\":3860:3882   */\n  add\n    /* \"#utility.yul\":3819:3892   */\n  tag_38\n  jump\t// in\ntag_90:\n    /* \"#utility.yul\":3809:3892   */\n  swap2\n  pop\n    /* \"#utility.yul\":3611:3902   */\n  pop\n    /* \"#utility.yul\":3075:3909   */\n  swap3\n  pop\n  swap3\n  pop\n  swap3\n  jump\t// out\n    /* \"#utility.yul\":3915:4013   */\ntag_39:\n    /* \"#utility.yul\":3966:3972   */\n  0x00\n    /* \"#utility.yul\":4000:4005   */\n  dup2\n    /* \"#utility.yul\":3994:4006   */\n  mload\n    /* \"#utility.yul\":3984:4006   */\n  swap1\n  pop\n    /* \"#utility.yul\":3915:4013   */\n  swap2\n  swap1\n  pop\n  jump\t// out\n    /* \"#utility.yul\":4019:4166   */\ntag_40:\n    /* \"#utility.yul\":4120:4131   */\n  0x00\n    /* \"#utility.yul\":4157:4160   */\n  dup2\n    /* \"#utility.yul\":4142:4160   */\n  swap1\n  pop\n    /* \"#utility.yul\":4019:4166   */\n  swap3\n  swap2\n  pop\n  pop\n  jump\t// out\n    /* \"#utility.yul\":4172:4558   */\ntag_41:\n    /* \"#utility.yul\":4276:4279   */\n  0x00\n    /* \"#utility.yul\":4304:4342   */\n  tag_94\n    /* \"#utility.yul\":4336:4341   */\n  dup3\n    /* \"#utility.yul\":4304:4342   */\n  tag_39\n  jump\t// in\ntag_94:\n    /* \"#utility.yul\":4358:4446   */\n  tag_95\n    /* \"#utility.yul\":4439:4445   */\n  dup2\n    /* \"#utility.yul\":4434:4437   */\n  dup6\n    /* \"#utility.yul\":4358:4446   */\n  tag_40\n  jump\t// in\ntag_95:\n    /* \"#utility.yul\":4351:4446   */\n  swap4\n  pop\n    /* \"#utility.yul\":4455:4520   */\n  tag_96\n    /* \"#utility.yul\":4513:4519   */\n  dup2\n    /* \"#utility.yul\":4508:4511   */\n  dup6\n    /* \"#utility.yul\":4501:4505   */\n  0x20\n    /* \"#utility.yul\":4494:4499   */\n  dup7\n    /* \"#utility.yul\":4490:4506   */\n  add\n    /* \"#utility.yul\":4455:4520   */\n  tag_36\n  jump\t// in\ntag_96:\n    /* \"#utility.yul\":4545:4551   */\n  dup1\n    /* \"#utility.yul\":4540:4543   */\n  dup5\n    /* \"#utility.yul\":4536:4552   */\n  add\n    /* \"#utility.yul\":4529:4552   */\n  swap2\n  pop\n    /* \"#utility.yul\":4280:4558   */\n  pop\n    /* \"#utility.yul\":4172:4558   */\n  swap3\n  swap2\n  pop\n  pop\n  jump\t// out\n    /* \"#utility.yul\":4564:4835   */\ntag_12:\n    /* \"#utility.yul\":4694:4697   */\n  0x00\n    /* \"#utility.yul\":4716:4809   */\n  tag_98\n    /* \"#utility.yul\":4805:4808   */\n  dup3\n    /* \"#utility.yul\":4796:4802   */\n  dup5\n    /* \"#utility.yul\":4716:4809   */\n  tag_41\n  jump\t// in\ntag_98:\n    /* \"#utility.yul\":4709:4809   */\n  swap2\n  pop\n    /* \"#utility.yul\":4826:4829   */\n  dup2\n    /* \"#utility.yul\":4819:4829   */\n  swap1\n  pop\n    /* \"#utility.yul\":4564:4835   */\n  swap3\n  swap2\n  pop\n  pop\n  jump\t// out\n    /* \"#utility.yul\":4841:5010   */\ntag_42:\n    /* \"#utility.yul\":4925:4936   */\n  0x00\n    /* \"#utility.yul\":4959:4965   */\n  dup3\n    /* \"#utility.yul\":4954:4957   */\n  dup3\n    /* \"#utility.yul\":4947:4966   */\n  mstore\n    /* \"#utility.yul\":4999:5003   */\n  0x20\n    /* \"#utility.yul\":4994:4997   */\n  dup3\n    /* \"#utility.yul\":4990:5004   */\n  add\n    /* \"#utility.yul\":4975:5004   */\n  swap1\n  pop\n    /* \"#utility.yul\":4841:5010   */\n  swap3\n  swap2\n  pop\n  pop\n  jump\t// out\n    /* \"#utility.yul\":5016:5187   */\ntag_43:\n    /* \"#utility.yul\":5156:5179   */\n  0x496e697469616c697a6174696f6e206661696c65640000000000000000000000\n    /* \"#utility.yul\":5152:5153   */\n  0x00\n    /* \"#utility.yul\":5144:5150   */\n  dup3\n    /* \"#utility.yul\":5140:5154   */\n  add\n    /* \"#utility.yul\":5133:5180   */\n  mstore\n    /* \"#utility.yul\":5016:5187   */\n  pop\n  jump\t// out\n    /* \"#utility.yul\":5193:5559   */\ntag_44:\n    /* \"#utility.yul\":5335:5338   */\n  0x00\n    /* \"#utility.yul\":5356:5423   */\n  tag_102\n    /* \"#utility.yul\":5420:5422   */\n  0x15\n    /* \"#utility.yul\":5415:5418   */\n  dup4\n    /* \"#utility.yul\":5356:5423   */\n  tag_42\n  jump\t// in\ntag_102:\n    /* \"#utility.yul\":5349:5423   */\n  swap2\n  pop\n    /* \"#utility.yul\":5432:5525   */\n  tag_103\n    /* \"#utility.yul\":5521:5524   */\n  dup3\n    /* \"#utility.yul\":5432:5525   */\n  tag_43\n  jump\t// in\ntag_103:\n    /* \"#utility.yul\":5550:5552   */\n  0x20\n    /* \"#utility.yul\":5545:5548   */\n  dup3\n    /* \"#utility.yul\":5541:5553   */\n  add\n    /* \"#utility.yul\":5534:5553   */\n  swap1\n  pop\n    /* \"#utility.yul\":5193:5559   */\n  swap2\n  swap1\n  pop\n  jump\t// out\n    /* \"#utility.yul\":5565:5984   */\ntag_18:\n    /* \"#utility.yul\":5731:5735   */\n  0x00\n    /* \"#utility.yul\":5769:5771   */\n  0x20\n    /* \"#utility.yul\":5758:5767   */\n  dup3\n    /* \"#utility.yul\":5754:5772   */\n  add\n    /* \"#utility.yul\":5746:5772   */\n  swap1\n  pop\n    /* \"#utility.yul\":5818:5827   */\n  dup2\n    /* \"#utility.yul\":5812:5816   */\n  dup2\n    /* \"#utility.yul\":5808:5828   */\n  sub\n    /* \"#utility.yul\":5804:5805   */\n  0x00\n    /* \"#utility.yul\":5793:5802   */\n  dup4\n    /* \"#utility.yul\":5789:5806   */\n  add\n    /* \"#utility.yul\":5782:5829   */\n  mstore\n    /* \"#utility.yul\":5846:5977   */\n  tag_105\n    /* \"#utility.yul\":5972:5976   */\n  dup2\n    /* \"#utility.yul\":5846:5977   */\n  tag_44\n  jump\t// in\ntag_105:\n    /* \"#utility.yul\":5838:5977   */\n  swap1\n  pop\n    /* \"#utility.yul\":5565:5984   */\n  swap2\n  swap1\n  pop\n  jump\t// out\n    /* \"contracts/Proxy deployment contracts/SimpleProxy.sol\":111:3310  contract SimpleProxy {... */\ntag_19:\n  dataSize(sub_0)\n  dup1\n  dataOffset(sub_0)\n  0x00\n  codecopy\n  0x00\n  return\nstop\n\nsub_0: assembly {\n        /* \"contracts/Proxy deployment contracts/SimpleProxy.sol\":111:3310  contract SimpleProxy {... */\n      mstore(0x40, 0x80)\n      jumpi(tag_1, lt(calldatasize, 0x04))\n      shr(0xe0, calldataload(0x00))\n      dup1\n      0x3659cfe6\n      eq\n      tag_3\n      jumpi\n      dup1\n      0xaaf10f42\n      eq\n      tag_4\n      jumpi\n      jump(tag_2)\n    tag_1:\n      jumpi(tag_2, calldatasize)\n        /* \"contracts/Proxy deployment contracts/SimpleProxy.sol\":2209:2221  address impl */\n      0x00\n        /* \"contracts/Proxy deployment contracts/SimpleProxy.sol\":2224:2244  _getImplementation() */\n      tag_7\n        /* \"contracts/Proxy deployment contracts/SimpleProxy.sol\":2224:2242  _getImplementation */\n      tag_8\n        /* \"contracts/Proxy deployment contracts/SimpleProxy.sol\":2224:2244  _getImplementation() */\n      jump\t// in\n    tag_7:\n        /* \"contracts/Proxy deployment contracts/SimpleProxy.sol\":2209:2244  address impl = _getImplementation() */\n      swap1\n      pop\n        /* \"contracts/Proxy deployment contracts/SimpleProxy.sol\":2328:2329  0 */\n      0x00\n        /* \"contracts/Proxy deployment contracts/SimpleProxy.sol\":2325:2326  0 */\n      0x00\n        /* \"contracts/Proxy deployment contracts/SimpleProxy.sol\":2322:2323  0 */\n      0x00\n        /* \"contracts/Proxy deployment contracts/SimpleProxy.sol\":2319:2320  0 */\n      0x00\n        /* \"contracts/Proxy deployment contracts/SimpleProxy.sol\":2313:2317  impl */\n      dup5\n        /* \"contracts/Proxy deployment contracts/SimpleProxy.sol\":2306:2311  gas() */\n      gas\n        /* \"contracts/Proxy deployment contracts/SimpleProxy.sol\":2293:2330  delegatecall(gas(), impl, 0, 0, 0, 0) */\n      delegatecall\n        /* \"contracts/Proxy deployment contracts/SimpleProxy.sol\":2365:2381  returndatasize() */\n      returndatasize\n        /* \"contracts/Proxy deployment contracts/SimpleProxy.sol\":2362:2363  0 */\n      0x00\n        /* \"contracts/Proxy deployment contracts/SimpleProxy.sol\":2359:2360  0 */\n      0x00\n        /* \"contracts/Proxy deployment contracts/SimpleProxy.sol\":2344:2382  returndatacopy(0, 0, returndatasize()) */\n      returndatacopy\n        /* \"contracts/Proxy deployment contracts/SimpleProxy.sol\":2403:2409  result */\n      dup1\n        /* \"contracts/Proxy deployment contracts/SimpleProxy.sol\":2428:2429  0 */\n      0x00\n        /* \"contracts/Proxy deployment contracts/SimpleProxy.sol\":2423:2461  case 0 { revert(0, returndatasize()) } */\n      dup2\n      eq\n      tag_10\n      jumpi\n        /* \"contracts/Proxy deployment contracts/SimpleProxy.sol\":2495:2511  returndatasize() */\n      returndatasize\n        /* \"contracts/Proxy deployment contracts/SimpleProxy.sol\":2492:2493  0 */\n      0x00\n        /* \"contracts/Proxy deployment contracts/SimpleProxy.sol\":2485:2512  return(0, returndatasize()) */\n      return\n        /* \"contracts/Proxy deployment contracts/SimpleProxy.sol\":2423:2461  case 0 { revert(0, returndatasize()) } */\n    tag_10:\n        /* \"contracts/Proxy deployment contracts/SimpleProxy.sol\":2442:2458  returndatasize() */\n      returndatasize\n        /* \"contracts/Proxy deployment contracts/SimpleProxy.sol\":2439:2440  0 */\n      0x00\n        /* \"contracts/Proxy deployment contracts/SimpleProxy.sol\":2432:2459  revert(0, returndatasize()) */\n      revert\n        /* \"contracts/Proxy deployment contracts/SimpleProxy.sol\":111:3310  contract SimpleProxy {... */\n    tag_2:\n        /* \"contracts/Proxy deployment contracts/SimpleProxy.sol\":1367:1379  address impl */\n      0x00\n        /* \"contracts/Proxy deployment contracts/SimpleProxy.sol\":1382:1402  _getImplementation() */\n      tag_13\n        /* \"contracts/Proxy deployment contracts/SimpleProxy.sol\":1382:1400  _getImplementation */\n      tag_8\n        /* \"contracts/Proxy deployment contracts/SimpleProxy.sol\":1382:1402  _getImplementation() */\n      jump\t// in\n    tag_13:\n        /* \"contracts/Proxy deployment contracts/SimpleProxy.sol\":1367:1402  address impl = _getImplementation() */\n      swap1\n      pop\n        /* \"contracts/Proxy deployment contracts/SimpleProxy.sol\":1556:1570  calldatasize() */\n      calldatasize\n        /* \"contracts/Proxy deployment contracts/SimpleProxy.sol\":1553:1554  0 */\n      0x00\n        /* \"contracts/Proxy deployment contracts/SimpleProxy.sol\":1550:1551  0 */\n      0x00\n        /* \"contracts/Proxy deployment contracts/SimpleProxy.sol\":1537:1571  calldatacopy(0, 0, calldatasize()) */\n      calldatacopy\n        /* \"contracts/Proxy deployment contracts/SimpleProxy.sol\":1709:1710  0 */\n      0x00\n        /* \"contracts/Proxy deployment contracts/SimpleProxy.sol\":1706:1707  0 */\n      0x00\n        /* \"contracts/Proxy deployment contracts/SimpleProxy.sol\":1690:1704  calldatasize() */\n      calldatasize\n        /* \"contracts/Proxy deployment contracts/SimpleProxy.sol\":1687:1688  0 */\n      0x00\n        /* \"contracts/Proxy deployment contracts/SimpleProxy.sol\":1681:1685  impl */\n      dup5\n        /* \"contracts/Proxy deployment contracts/SimpleProxy.sol\":1674:1679  gas() */\n      gas\n        /* \"contracts/Proxy deployment contracts/SimpleProxy.sol\":1661:1711  delegatecall(gas(), impl, 0, calldatasize(), 0, 0) */\n      delegatecall\n        /* \"contracts/Proxy deployment contracts/SimpleProxy.sol\":1795:1811  returndatasize() */\n      returndatasize\n        /* \"contracts/Proxy deployment contracts/SimpleProxy.sol\":1792:1793  0 */\n      0x00\n        /* \"contracts/Proxy deployment contracts/SimpleProxy.sol\":1789:1790  0 */\n      0x00\n        /* \"contracts/Proxy deployment contracts/SimpleProxy.sol\":1774:1812  returndatacopy(0, 0, returndatasize()) */\n      returndatacopy\n        /* \"contracts/Proxy deployment contracts/SimpleProxy.sol\":1896:1902  result */\n      dup1\n        /* \"contracts/Proxy deployment contracts/SimpleProxy.sol\":1921:1922  0 */\n      0x00\n        /* \"contracts/Proxy deployment contracts/SimpleProxy.sol\":1916:1984  case 0 {... */\n      dup2\n      eq\n      tag_15\n      jumpi\n        /* \"contracts/Proxy deployment contracts/SimpleProxy.sol\":2035:2051  returndatasize() */\n      returndatasize\n        /* \"contracts/Proxy deployment contracts/SimpleProxy.sol\":2032:2033  0 */\n      0x00\n        /* \"contracts/Proxy deployment contracts/SimpleProxy.sol\":2025:2052  return(0, returndatasize()) */\n      return\n        /* \"contracts/Proxy deployment contracts/SimpleProxy.sol\":1916:1984  case 0 {... */\n    tag_15:\n        /* \"contracts/Proxy deployment contracts/SimpleProxy.sol\":1952:1968  returndatasize() */\n      returndatasize\n        /* \"contracts/Proxy deployment contracts/SimpleProxy.sol\":1949:1950  0 */\n      0x00\n        /* \"contracts/Proxy deployment contracts/SimpleProxy.sol\":1942:1969  revert(0, returndatasize()) */\n      revert\n        /* \"contracts/Proxy deployment contracts/SimpleProxy.sol\":846:1028  function upgradeTo(address newImplementation) external {... */\n    tag_3:\n      callvalue\n      dup1\n      iszero\n      tag_16\n      jumpi\n      revert(0x00, 0x00)\n    tag_16:\n      pop\n      tag_17\n      0x04\n      dup1\n      calldatasize\n      sub\n      dup2\n      add\n      swap1\n      tag_18\n      swap2\n      swap1\n      tag_19\n      jump\t// in\n    tag_18:\n      tag_20\n      jump\t// in\n    tag_17:\n      stop\n        /* \"contracts/Proxy deployment contracts/SimpleProxy.sol\":1088:1263  function getImplementation() external view returns (address) {... */\n    tag_4:\n      callvalue\n      dup1\n      iszero\n      tag_21\n      jumpi\n      revert(0x00, 0x00)\n    tag_21:\n      pop\n      tag_22\n      tag_23\n      jump\t// in\n    tag_22:\n      mload(0x40)\n      tag_24\n      swap2\n      swap1\n      tag_25\n      jump\t// in\n    tag_24:\n      mload(0x40)\n      dup1\n      swap2\n      sub\n      swap1\n      return\n        /* \"contracts/Proxy deployment contracts/SimpleProxy.sol\":2589:2773  function _getImplementation() internal view returns (address impl) {... */\n    tag_8:\n        /* \"contracts/Proxy deployment contracts/SimpleProxy.sol\":2642:2654  address impl */\n      0x00\n        /* \"contracts/Proxy deployment contracts/SimpleProxy.sol\":2667:2679  bytes32 slot */\n      0x00\n        /* \"contracts/Proxy deployment contracts/SimpleProxy.sol\":234:267  keccak256(\"proxy.implementation\") */\n      0x24ed44ee9374370fd3aa7c8b1abf58827504c20f65246b17d2b9e7e1aef77847\n        /* \"contracts/Proxy deployment contracts/SimpleProxy.sol\":2667:2701  bytes32 slot = IMPLEMENTATION_SLOT */\n      swap1\n      pop\n        /* \"contracts/Proxy deployment contracts/SimpleProxy.sol\":2750:2754  slot */\n      dup1\n        /* \"contracts/Proxy deployment contracts/SimpleProxy.sol\":2744:2755  sload(slot) */\n      sload\n        /* \"contracts/Proxy deployment contracts/SimpleProxy.sol\":2736:2755  impl := sload(slot) */\n      swap2\n      pop\n        /* \"contracts/Proxy deployment contracts/SimpleProxy.sol\":2721:2766  {... */\n      pop\n        /* \"contracts/Proxy deployment contracts/SimpleProxy.sol\":2589:2773  function _getImplementation() internal view returns (address impl) {... */\n      swap1\n      jump\t// out\n        /* \"contracts/Proxy deployment contracts/SimpleProxy.sol\":846:1028  function upgradeTo(address newImplementation) external {... */\n    tag_20:\n        /* \"contracts/Proxy deployment contracts/SimpleProxy.sol\":934:945  _getAdmin() */\n      tag_28\n        /* \"contracts/Proxy deployment contracts/SimpleProxy.sol\":934:943  _getAdmin */\n      tag_29\n        /* \"contracts/Proxy deployment contracts/SimpleProxy.sol\":934:945  _getAdmin() */\n      jump\t// in\n    tag_28:\n        /* \"contracts/Proxy deployment contracts/SimpleProxy.sol\":920:945  msg.sender == _getAdmin() */\n      0xffffffffffffffffffffffffffffffffffffffff\n      and\n        /* \"contracts/Proxy deployment contracts/SimpleProxy.sol\":920:930  msg.sender */\n      caller\n        /* \"contracts/Proxy deployment contracts/SimpleProxy.sol\":920:945  msg.sender == _getAdmin() */\n      0xffffffffffffffffffffffffffffffffffffffff\n      and\n      eq\n        /* \"contracts/Proxy deployment contracts/SimpleProxy.sol\":912:972  require(msg.sender == _getAdmin(), \"Only admin can upgrade\") */\n      tag_30\n      jumpi\n      mload(0x40)\n      0x08c379a000000000000000000000000000000000000000000000000000000000\n      dup2\n      mstore\n      0x04\n      add\n      tag_31\n      swap1\n      tag_32\n      jump\t// in\n    tag_31:\n      mload(0x40)\n      dup1\n      swap2\n      sub\n      swap1\n      revert\n    tag_30:\n        /* \"contracts/Proxy deployment contracts/SimpleProxy.sol\":983:1020  _setImplementation(newImplementation) */\n      tag_33\n        /* \"contracts/Proxy deployment contracts/SimpleProxy.sol\":1002:1019  newImplementation */\n      dup2\n        /* \"contracts/Proxy deployment contracts/SimpleProxy.sol\":983:1001  _setImplementation */\n      tag_34\n        /* \"contracts/Proxy deployment contracts/SimpleProxy.sol\":983:1020  _setImplementation(newImplementation) */\n      jump\t// in\n    tag_33:\n        /* \"contracts/Proxy deployment contracts/SimpleProxy.sol\":846:1028  function upgradeTo(address newImplementation) external {... */\n      pop\n      jump\t// out\n        /* \"contracts/Proxy deployment contracts/SimpleProxy.sol\":1088:1263  function getImplementation() external view returns (address) {... */\n    tag_23:\n        /* \"contracts/Proxy deployment contracts/SimpleProxy.sol\":1140:1147  address */\n      0x00\n        /* \"contracts/Proxy deployment contracts/SimpleProxy.sol\":1182:1193  _getAdmin() */\n      tag_36\n        /* \"contracts/Proxy deployment contracts/SimpleProxy.sol\":1182:1191  _getAdmin */\n      tag_29\n        /* \"contracts/Proxy deployment contracts/SimpleProxy.sol\":1182:1193  _getAdmin() */\n      jump\t// in\n    tag_36:\n        /* \"contracts/Proxy deployment contracts/SimpleProxy.sol\":1168:1193  msg.sender == _getAdmin() */\n      0xffffffffffffffffffffffffffffffffffffffff\n      and\n        /* \"contracts/Proxy deployment contracts/SimpleProxy.sol\":1168:1178  msg.sender */\n      caller\n        /* \"contracts/Proxy deployment contracts/SimpleProxy.sol\":1168:1193  msg.sender == _getAdmin() */\n      0xffffffffffffffffffffffffffffffffffffffff\n      and\n      eq\n        /* \"contracts/Proxy deployment contracts/SimpleProxy.sol\":1160:1217  require(msg.sender == _getAdmin(), \"Only admin can view\") */\n      tag_37\n      jumpi\n      mload(0x40)\n      0x08c379a000000000000000000000000000000000000000000000000000000000\n      dup2\n      mstore\n      0x04\n      add\n      tag_38\n      swap1\n      tag_39\n      jump\t// in\n    tag_38:\n      mload(0x40)\n      dup1\n      swap2\n      sub\n      swap1\n      revert\n    tag_37:\n        /* \"contracts/Proxy deployment contracts/SimpleProxy.sol\":1235:1255  _getImplementation() */\n      tag_40\n        /* \"contracts/Proxy deployment contracts/SimpleProxy.sol\":1235:1253  _getImplementation */\n      tag_8\n        /* \"contracts/Proxy deployment contracts/SimpleProxy.sol\":1235:1255  _getImplementation() */\n      jump\t// in\n    tag_40:\n        /* \"contracts/Proxy deployment contracts/SimpleProxy.sol\":1228:1255  return _getImplementation() */\n      swap1\n      pop\n        /* \"contracts/Proxy deployment contracts/SimpleProxy.sol\":1088:1263  function getImplementation() external view returns (address) {... */\n      swap1\n      jump\t// out\n        /* \"contracts/Proxy deployment contracts/SimpleProxy.sol\":2970:3138  function _getAdmin() internal view returns (address admin) {... */\n    tag_29:\n        /* \"contracts/Proxy deployment contracts/SimpleProxy.sol\":3014:3027  address admin */\n      0x00\n        /* \"contracts/Proxy deployment contracts/SimpleProxy.sol\":3040:3052  bytes32 slot */\n      0x00\n        /* \"contracts/Proxy deployment contracts/SimpleProxy.sol\":312:336  keccak256(\"proxy.admin\") */\n      0xb361eaf08109ac4e837850c52399e285128fdaa6c1699e4864dd655f97ca6fd8\n        /* \"contracts/Proxy deployment contracts/SimpleProxy.sol\":3040:3065  bytes32 slot = ADMIN_SLOT */\n      swap1\n      pop\n        /* \"contracts/Proxy deployment contracts/SimpleProxy.sol\":3115:3119  slot */\n      dup1\n        /* \"contracts/Proxy deployment contracts/SimpleProxy.sol\":3109:3120  sload(slot) */\n      sload\n        /* \"contracts/Proxy deployment contracts/SimpleProxy.sol\":3100:3120  admin := sload(slot) */\n      swap2\n      pop\n        /* \"contracts/Proxy deployment contracts/SimpleProxy.sol\":3085:3131  {... */\n      pop\n        /* \"contracts/Proxy deployment contracts/SimpleProxy.sol\":2970:3138  function _getAdmin() internal view returns (address admin) {... */\n      swap1\n      jump\t// out\n        /* \"contracts/Proxy deployment contracts/SimpleProxy.sol\":2785:2958  function _setImplementation(address newImpl) internal {... */\n    tag_34:\n        /* \"contracts/Proxy deployment contracts/SimpleProxy.sol\":2850:2862  bytes32 slot */\n      0x00\n        /* \"contracts/Proxy deployment contracts/SimpleProxy.sol\":234:267  keccak256(\"proxy.implementation\") */\n      0x24ed44ee9374370fd3aa7c8b1abf58827504c20f65246b17d2b9e7e1aef77847\n        /* \"contracts/Proxy deployment contracts/SimpleProxy.sol\":2850:2884  bytes32 slot = IMPLEMENTATION_SLOT */\n      swap1\n      pop\n        /* \"contracts/Proxy deployment contracts/SimpleProxy.sol\":2932:2939  newImpl */\n      dup2\n        /* \"contracts/Proxy deployment contracts/SimpleProxy.sol\":2926:2930  slot */\n      dup2\n        /* \"contracts/Proxy deployment contracts/SimpleProxy.sol\":2919:2940  sstore(slot, newImpl) */\n      sstore\n        /* \"contracts/Proxy deployment contracts/SimpleProxy.sol\":2904:2951  {... */\n      pop\n        /* \"contracts/Proxy deployment contracts/SimpleProxy.sol\":2785:2958  function _setImplementation(address newImpl) internal {... */\n      pop\n      jump\t// out\n        /* \"#utility.yul\":88:205   */\n    tag_44:\n        /* \"#utility.yul\":197:198   */\n      0x00\n        /* \"#utility.yul\":194:195   */\n      0x00\n        /* \"#utility.yul\":187:199   */\n      revert\n        /* \"#utility.yul\":334:460   */\n    tag_46:\n        /* \"#utility.yul\":371:378   */\n      0x00\n        /* \"#utility.yul\":411:453   */\n      0xffffffffffffffffffffffffffffffffffffffff\n        /* \"#utility.yul\":404:409   */\n      dup3\n        /* \"#utility.yul\":400:454   */\n      and\n        /* \"#utility.yul\":389:454   */\n      swap1\n      pop\n        /* \"#utility.yul\":334:460   */\n      swap2\n      swap1\n      pop\n      jump\t// out\n        /* \"#utility.yul\":466:562   */\n    tag_47:\n        /* \"#utility.yul\":503:510   */\n      0x00\n        /* \"#utility.yul\":532:556   */\n      tag_62\n        /* \"#utility.yul\":550:555   */\n      dup3\n        /* \"#utility.yul\":532:556   */\n      tag_46\n      jump\t// in\n    tag_62:\n        /* \"#utility.yul\":521:556   */\n      swap1\n      pop\n        /* \"#utility.yul\":466:562   */\n      swap2\n      swap1\n      pop\n      jump\t// out\n        /* \"#utility.yul\":568:690   */\n    tag_48:\n        /* \"#utility.yul\":641:665   */\n      tag_64\n        /* \"#utility.yul\":659:664   */\n      dup2\n        /* \"#utility.yul\":641:665   */\n      tag_47\n      jump\t// in\n    tag_64:\n        /* \"#utility.yul\":634:639   */\n      dup2\n        /* \"#utility.yul\":631:666   */\n      eq\n        /* \"#utility.yul\":621:684   */\n      tag_65\n      jumpi\n        /* \"#utility.yul\":680:681   */\n      0x00\n        /* \"#utility.yul\":677:678   */\n      0x00\n        /* \"#utility.yul\":670:682   */\n      revert\n        /* \"#utility.yul\":621:684   */\n    tag_65:\n        /* \"#utility.yul\":568:690   */\n      pop\n      jump\t// out\n        /* \"#utility.yul\":696:835   */\n    tag_49:\n        /* \"#utility.yul\":742:747   */\n      0x00\n        /* \"#utility.yul\":780:786   */\n      dup2\n        /* \"#utility.yul\":767:787   */\n      calldataload\n        /* \"#utility.yul\":758:787   */\n      swap1\n      pop\n        /* \"#utility.yul\":796:829   */\n      tag_67\n        /* \"#utility.yul\":823:828   */\n      dup2\n        /* \"#utility.yul\":796:829   */\n      tag_48\n      jump\t// in\n    tag_67:\n        /* \"#utility.yul\":696:835   */\n      swap3\n      swap2\n      pop\n      pop\n      jump\t// out\n        /* \"#utility.yul\":841:1170   */\n    tag_19:\n        /* \"#utility.yul\":900:906   */\n      0x00\n        /* \"#utility.yul\":949:951   */\n      0x20\n        /* \"#utility.yul\":937:946   */\n      dup3\n        /* \"#utility.yul\":928:935   */\n      dup5\n        /* \"#utility.yul\":924:947   */\n      sub\n        /* \"#utility.yul\":920:952   */\n      slt\n        /* \"#utility.yul\":917:1036   */\n      iszero\n      tag_69\n      jumpi\n        /* \"#utility.yul\":955:1034   */\n      tag_70\n      tag_44\n      jump\t// in\n    tag_70:\n        /* \"#utility.yul\":917:1036   */\n    tag_69:\n        /* \"#utility.yul\":1075:1076   */\n      0x00\n        /* \"#utility.yul\":1100:1153   */\n      tag_71\n        /* \"#utility.yul\":1145:1152   */\n      dup5\n        /* \"#utility.yul\":1136:1142   */\n      dup3\n        /* \"#utility.yul\":1125:1134   */\n      dup6\n        /* \"#utility.yul\":1121:1143   */\n      add\n        /* \"#utility.yul\":1100:1153   */\n      tag_49\n      jump\t// in\n    tag_71:\n        /* \"#utility.yul\":1090:1153   */\n      swap2\n      pop\n        /* \"#utility.yul\":1046:1163   */\n      pop\n        /* \"#utility.yul\":841:1170   */\n      swap3\n      swap2\n      pop\n      pop\n      jump\t// out\n        /* \"#utility.yul\":1176:1294   */\n    tag_50:\n        /* \"#utility.yul\":1263:1287   */\n      tag_73\n        /* \"#utility.yul\":1281:1286   */\n      dup2\n        /* \"#utility.yul\":1263:1287   */\n      tag_47\n      jump\t// in\n    tag_73:\n        /* \"#utility.yul\":1258:1261   */\n      dup3\n        /* \"#utility.yul\":1251:1288   */\n      mstore\n        /* \"#utility.yul\":1176:1294   */\n      pop\n      pop\n      jump\t// out\n        /* \"#utility.yul\":1300:1522   */\n    tag_25:\n        /* \"#utility.yul\":1393:1397   */\n      0x00\n        /* \"#utility.yul\":1431:1433   */\n      0x20\n        /* \"#utility.yul\":1420:1429   */\n      dup3\n        /* \"#utility.yul\":1416:1434   */\n      add\n        /* \"#utility.yul\":1408:1434   */\n      swap1\n      pop\n        /* \"#utility.yul\":1444:1515   */\n      tag_75\n        /* \"#utility.yul\":1512:1513   */\n      0x00\n        /* \"#utility.yul\":1501:1510   */\n      dup4\n        /* \"#utility.yul\":1497:1514   */\n      add\n        /* \"#utility.yul\":1488:1494   */\n      dup5\n        /* \"#utility.yul\":1444:1515   */\n      tag_50\n      jump\t// in\n    tag_75:\n        /* \"#utility.yul\":1300:1522   */\n      swap3\n      swap2\n      pop\n      pop\n      jump\t// out\n        /* \"#utility.yul\":1528:1697   */\n    tag_51:\n        /* \"#utility.yul\":1612:1623   */\n      0x00\n        /* \"#utility.yul\":1646:1652   */\n      dup3\n        /* \"#utility.yul\":1641:1644   */\n      dup3\n        /* \"#utility.yul\":1634:1653   */\n      mstore\n        /* \"#utility.yul\":1686:1690   */\n      0x20\n        /* \"#utility.yul\":1681:1684   */\n      dup3\n        /* \"#utility.yul\":1677:1691   */\n      add\n        /* \"#utility.yul\":1662:1691   */\n      swap1\n      pop\n        /* \"#utility.yul\":1528:1697   */\n      swap3\n      swap2\n      pop\n      pop\n      jump\t// out\n        /* \"#utility.yul\":1703:1875   */\n    tag_52:\n        /* \"#utility.yul\":1843:1867   */\n      0x4f6e6c792061646d696e2063616e207570677261646500000000000000000000\n        /* \"#utility.yul\":1839:1840   */\n      0x00\n        /* \"#utility.yul\":1831:1837   */\n      dup3\n        /* \"#utility.yul\":1827:1841   */\n      add\n        /* \"#utility.yul\":1820:1868   */\n      mstore\n        /* \"#utility.yul\":1703:1875   */\n      pop\n      jump\t// out\n        /* \"#utility.yul\":1881:2247   */\n    tag_53:\n        /* \"#utility.yul\":2023:2026   */\n      0x00\n        /* \"#utility.yul\":2044:2111   */\n      tag_79\n        /* \"#utility.yul\":2108:2110   */\n      0x16\n        /* \"#utility.yul\":2103:2106   */\n      dup4\n        /* \"#utility.yul\":2044:2111   */\n      tag_51\n      jump\t// in\n    tag_79:\n        /* \"#utility.yul\":2037:2111   */\n      swap2\n      pop\n        /* \"#utility.yul\":2120:2213   */\n      tag_80\n        /* \"#utility.yul\":2209:2212   */\n      dup3\n        /* \"#utility.yul\":2120:2213   */\n      tag_52\n      jump\t// in\n    tag_80:\n        /* \"#utility.yul\":2238:2240   */\n      0x20\n        /* \"#utility.yul\":2233:2236   */\n      dup3\n        /* \"#utility.yul\":2229:2241   */\n      add\n        /* \"#utility.yul\":2222:2241   */\n      swap1\n      pop\n        /* \"#utility.yul\":1881:2247   */\n      swap2\n      swap1\n      pop\n      jump\t// out\n        /* \"#utility.yul\":2253:2672   */\n    tag_32:\n        /* \"#utility.yul\":2419:2423   */\n      0x00\n        /* \"#utility.yul\":2457:2459   */\n      0x20\n        /* \"#utility.yul\":2446:2455   */\n      dup3\n        /* \"#utility.yul\":2442:2460   */\n      add\n        /* \"#utility.yul\":2434:2460   */\n      swap1\n      pop\n        /* \"#utility.yul\":2506:2515   */\n      dup2\n        /* \"#utility.yul\":2500:2504   */\n      dup2\n        /* \"#utility.yul\":2496:2516   */\n      sub\n        /* \"#utility.yul\":2492:2493   */\n      0x00\n        /* \"#utility.yul\":2481:2490   */\n      dup4\n        /* \"#utility.yul\":2477:2494   */\n      add\n        /* \"#utility.yul\":2470:2517   */\n      mstore\n        /* \"#utility.yul\":2534:2665   */\n      tag_82\n        /* \"#utility.yul\":2660:2664   */\n      dup2\n        /* \"#utility.yul\":2534:2665   */\n      tag_53\n      jump\t// in\n    tag_82:\n        /* \"#utility.yul\":2526:2665   */\n      swap1\n      pop\n        /* \"#utility.yul\":2253:2672   */\n      swap2\n      swap1\n      pop\n      jump\t// out\n        /* \"#utility.yul\":2678:2847   */\n    tag_54:\n        /* \"#utility.yul\":2818:2839   */\n      0x4f6e6c792061646d696e2063616e207669657700000000000000000000000000\n        /* \"#utility.yul\":2814:2815   */\n      0x00\n        /* \"#utility.yul\":2806:2812   */\n      dup3\n        /* \"#utility.yul\":2802:2816   */\n      add\n        /* \"#utility.yul\":2795:2840   */\n      mstore\n        /* \"#utility.yul\":2678:2847   */\n      pop\n      jump\t// out\n        /* \"#utility.yul\":2853:3219   */\n    tag_55:\n        /* \"#utility.yul\":2995:2998   */\n      0x00\n        /* \"#utility.yul\":3016:3083   */\n      tag_85\n        /* \"#utility.yul\":3080:3082   */\n      0x13\n        /* \"#utility.yul\":3075:3078   */\n      dup4\n        /* \"#utility.yul\":3016:3083   */\n      tag_51\n      jump\t// in\n    tag_85:\n        /* \"#utility.yul\":3009:3083   */\n      swap2\n      pop\n        /* \"#utility.yul\":3092:3185   */\n      tag_86\n        /* \"#utility.yul\":3181:3184   */\n      dup3\n        /* \"#utility.yul\":3092:3185   */\n      tag_54\n      jump\t// in\n    tag_86:\n        /* \"#utility.yul\":3210:3212   */\n      0x20\n        /* \"#utility.yul\":3205:3208   */\n      dup3\n        /* \"#utility.yul\":3201:3213   */\n      add\n        /* \"#utility.yul\":3194:3213   */\n      swap1\n      pop\n        /* \"#utility.yul\":2853:3219   */\n      swap2\n      swap1\n      pop\n      jump\t// out\n        /* \"#utility.yul\":3225:3644   */\n    tag_39:\n        /* \"#utility.yul\":3391:3395   */\n      0x00\n        /* \"#utility.yul\":3429:3431   */\n      0x20\n        /* \"#utility.yul\":3418:3427   */\n      dup3\n        /* \"#utility.yul\":3414:3432   */\n      add\n        /* \"#utility.yul\":3406:3432   */\n      swap1\n      pop\n        /* \"#utility.yul\":3478:3487   */\n      dup2\n        /* \"#utility.yul\":3472:3476   */\n      dup2\n        /* \"#utility.yul\":3468:3488   */\n      sub\n        /* \"#utility.yul\":3464:3465   */\n      0x00\n        /* \"#utility.yul\":3453:3462   */\n      dup4\n        /* \"#utility.yul\":3449:3466   */\n      add\n        /* \"#utility.yul\":3442:3489   */\n      mstore\n        /* \"#utility.yul\":3506:3637   */\n      tag_88\n        /* \"#utility.yul\":3632:3636   */\n      dup2\n        /* \"#utility.yul\":3506:3637   */\n      tag_55\n      jump\t// in\n    tag_88:\n        /* \"#utility.yul\":3498:3637   */\n      swap1\n      pop\n        /* \"#utility.yul\":3225:3644   */\n      swap2\n      swap1\n      pop\n      jump\t// out\n\n    auxdata: 0xa2646970667358221220c5a707da378cd0cb90b7c5afc837462d0d1c00312e01e3746873261fd388196f64736f6c634300081e0033\n}\n",
				"bytecode": {
					"linkReferences": {},
					"object": "608060405234801561000f575f5ffd5b5060405161087438038061087483398181016040528101906100319190610306565b6100408361010960201b60201c565b61004f8261013460201b60201c565b5f81511115610101575f8373ffffffffffffffffffffffffffffffffffffffff168260405161007e91906103b6565b5f60405180830381855af49150503d805f81146100b6576040519150601f19603f3d011682016040523d82523d5f602084013e6100bb565b606091505b50509050806100ff576040517f08c379a00000000000000000000000000000000000000000000000000000000081526004016100f690610426565b60405180910390fd5b505b505050610444565b5f7f24ed44ee9374370fd3aa7c8b1abf58827504c20f65246b17d2b9e7e1aef7784790508181555050565b5f7fb361eaf08109ac4e837850c52399e285128fdaa6c1699e4864dd655f97ca6fd890508181555050565b5f604051905090565b5f5ffd5b5f5ffd5b5f73ffffffffffffffffffffffffffffffffffffffff82169050919050565b5f61019982610170565b9050919050565b6101a98161018f565b81146101b3575f5ffd5b50565b5f815190506101c4816101a0565b92915050565b5f5ffd5b5f5ffd5b5f601f19601f8301169050919050565b7f4e487b71000000000000000000000000000000000000000000000000000000005f52604160045260245ffd5b610218826101d2565b810181811067ffffffffffffffff82111715610237576102366101e2565b5b80604052505050565b5f61024961015f565b9050610255828261020f565b919050565b5f67ffffffffffffffff821115610274576102736101e2565b5b61027d826101d2565b9050602081019050919050565b8281835e5f83830152505050565b5f6102aa6102a58461025a565b610240565b9050828152602081018484840111156102c6576102c56101ce565b5b6102d184828561028a565b509392505050565b5f82601f8301126102ed576102ec6101ca565b5b81516102fd848260208601610298565b91505092915050565b5f5f5f6060848603121561031d5761031c610168565b5b5f61032a868287016101b6565b935050602061033b868287016101b6565b925050604084015167ffffffffffffffff81111561035c5761035b61016c565b5b610368868287016102d9565b9150509250925092565b5f81519050919050565b5f81905092915050565b5f61039082610372565b61039a818561037c565b93506103aa81856020860161028a565b80840191505092915050565b5f6103c18284610386565b915081905092915050565b5f82825260208201905092915050565b7f496e697469616c697a6174696f6e206661696c656400000000000000000000005f82015250565b5f6104106015836103cc565b915061041b826103dc565b602082019050919050565b5f6020820190508181035f83015261043d81610404565b9050919050565b610423806104515f395ff3fe60806040526004361061002c575f3560e01c80633659cfe614610081578063aaf10f42146100a957610057565b36610057575f61003a6100d3565b90505f5f5f5f845af43d5f5f3e805f8114610053573d5ff35b3d5ffd5b5f6100606100d3565b9050365f5f375f5f365f845af43d5f5f3e805f811461007d573d5ff35b3d5ffd5b34801561008c575f5ffd5b506100a760048036038101906100a291906102ba565b610100565b005b3480156100b4575f5ffd5b506100bd610181565b6040516100ca91906102f4565b60405180910390f35b5f5f7f24ed44ee9374370fd3aa7c8b1abf58827504c20f65246b17d2b9e7e1aef778479050805491505090565b610108610204565b73ffffffffffffffffffffffffffffffffffffffff163373ffffffffffffffffffffffffffffffffffffffff1614610175576040517f08c379a000000000000000000000000000000000000000000000000000000000815260040161016c90610367565b60405180910390fd5b61017e81610231565b50565b5f61018a610204565b73ffffffffffffffffffffffffffffffffffffffff163373ffffffffffffffffffffffffffffffffffffffff16146101f7576040517f08c379a00000000000000000000000000000000000000000000000000000000081526004016101ee906103cf565b60405180910390fd5b6101ff6100d3565b905090565b5f5f7fb361eaf08109ac4e837850c52399e285128fdaa6c1699e4864dd655f97ca6fd89050805491505090565b5f7f24ed44ee9374370fd3aa7c8b1abf58827504c20f65246b17d2b9e7e1aef7784790508181555050565b5f5ffd5b5f73ffffffffffffffffffffffffffffffffffffffff82169050919050565b5f61028982610260565b9050919050565b6102998161027f565b81146102a3575f5ffd5b50565b5f813590506102b481610290565b92915050565b5f602082840312156102cf576102ce61025c565b5b5f6102dc848285016102a6565b91505092915050565b6102ee8161027f565b82525050565b5f6020820190506103075f8301846102e5565b92915050565b5f82825260208201905092915050565b7f4f6e6c792061646d696e2063616e2075706772616465000000000000000000005f82015250565b5f61035160168361030d565b915061035c8261031d565b602082019050919050565b5f6020820190508181035f83015261037e81610345565b9050919050565b7f4f6e6c792061646d696e2063616e2076696577000000000000000000000000005f82015250565b5f6103b960138361030d565b91506103c482610385565b602082019050919050565b5f6020820190508181035f8301526103e6816103ad565b905091905056fea2646970667358221220c5a707da378cd0cb90b7c5afc837462d0d1c00312e01e3746873261fd388196f64736f6c634300081e0033",
					"opcodes": "PUSH1 0x80 PUSH1 0x40 MSTORE CALLVALUE DUP1 ISZERO PUSH2 0xF JUMPI PUSH0 PUSH0 REVERT JUMPDEST POP PUSH1 0x40 MLOAD PUSH2 0x874 CODESIZE SUB DUP1 PUSH2 0x874 DUP4 CODECOPY DUP2 DUP2 ADD PUSH1 0x40 MSTORE DUP2 ADD SWAP1 PUSH2 0x31 SWAP2 SWAP1 PUSH2 0x306 JUMP JUMPDEST PUSH2 0x40 DUP4 PUSH2 0x109 PUSH1 0x20 SHL PUSH1 0x20 SHR JUMP JUMPDEST PUSH2 0x4F DUP3 PUSH2 0x134 PUSH1 0x20 SHL PUSH1 0x20 SHR JUMP JUMPDEST PUSH0 DUP2 MLOAD GT ISZERO PUSH2 0x101 JUMPI PUSH0 DUP4 PUSH20 0xFFFFFFFFFFFFFFFFFFFFFFFFFFFFFFFFFFFFFFFF AND DUP3 PUSH1 0x40 MLOAD PUSH2 0x7E SWAP2 SWAP1 PUSH2 0x3B6 JUMP JUMPDEST PUSH0 PUSH1 0x40 MLOAD DUP1 DUP4 SUB DUP2 DUP6 GAS DELEGATECALL SWAP2 POP POP RETURNDATASIZE DUP1 PUSH0 DUP2 EQ PUSH2 0xB6 JUMPI PUSH1 0x40 MLOAD SWAP2 POP PUSH1 0x1F NOT PUSH1 0x3F RETURNDATASIZE ADD AND DUP3 ADD PUSH1 0x40 MSTORE RETURNDATASIZE DUP3 MSTORE RETURNDATASIZE PUSH0 PUSH1 0x20 DUP5 ADD RETURNDATACOPY PUSH2 0xBB JUMP JUMPDEST PUSH1 0x60 SWAP2 POP JUMPDEST POP POP SWAP1 POP DUP1 PUSH2 0xFF JUMPI PUSH1 0x40 MLOAD PUSH32 0x8C379A000000000000000000000000000000000000000000000000000000000 DUP2 MSTORE PUSH1 0x4 ADD PUSH2 0xF6 SWAP1 PUSH2 0x426 JUMP JUMPDEST PUSH1 0x40 MLOAD DUP1 SWAP2 SUB SWAP1 REVERT JUMPDEST POP JUMPDEST POP POP POP PUSH2 0x444 JUMP JUMPDEST PUSH0 PUSH32 0x24ED44EE9374370FD3AA7C8B1ABF58827504C20F65246B17D2B9E7E1AEF77847 SWAP1 POP DUP2 DUP2 SSTORE POP POP JUMP JUMPDEST PUSH0 PUSH32 0xB361EAF08109AC4E837850C52399E285128FDAA6C1699E4864DD655F97CA6FD8 SWAP1 POP DUP2 DUP2 SSTORE POP POP JUMP JUMPDEST PUSH0 PUSH1 0x40 MLOAD SWAP1 POP SWAP1 JUMP JUMPDEST PUSH0 PUSH0 REVERT JUMPDEST PUSH0 PUSH0 REVERT JUMPDEST PUSH0 PUSH20 0xFFFFFFFFFFFFFFFFFFFFFFFFFFFFFFFFFFFFFFFF DUP3 AND SWAP1 POP SWAP2 SWAP1 POP JUMP JUMPDEST PUSH0 PUSH2 0x199 DUP3 PUSH2 0x170 JUMP JUMPDEST SWAP1 POP SWAP2 SWAP1 POP JUMP JUMPDEST PUSH2 0x1A9 DUP2 PUSH2 0x18F JUMP JUMPDEST DUP2 EQ PUSH2 0x1B3 JUMPI PUSH0 PUSH0 REVERT JUMPDEST POP JUMP JUMPDEST PUSH0 DUP2 MLOAD SWAP1 POP PUSH2 0x1C4 DUP2 PUSH2 0x1A0 JUMP JUMPDEST SWAP3 SWAP2 POP POP JUMP JUMPDEST PUSH0 PUSH0 REVERT JUMPDEST PUSH0 PUSH0 REVERT JUMPDEST PUSH0 PUSH1 0x1F NOT PUSH1 0x1F DUP4 ADD AND SWAP1 POP SWAP2 SWAP1 POP JUMP JUMPDEST PUSH32 0x4E487B7100000000000000000000000000000000000000000000000000000000 PUSH0 MSTORE PUSH1 0x41 PUSH1 0x4 MSTORE PUSH1 0x24 PUSH0 REVERT JUMPDEST PUSH2 0x218 DUP3 PUSH2 0x1D2 JUMP JUMPDEST DUP2 ADD DUP2 DUP2 LT PUSH8 0xFFFFFFFFFFFFFFFF DUP3 GT OR ISZERO PUSH2 0x237 JUMPI PUSH2 0x236 PUSH2 0x1E2 JUMP JUMPDEST JUMPDEST DUP1 PUSH1 0x40 MSTORE POP POP POP JUMP JUMPDEST PUSH0 PUSH2 0x249 PUSH2 0x15F JUMP JUMPDEST SWAP1 POP PUSH2 0x255 DUP3 DUP3 PUSH2 0x20F JUMP JUMPDEST SWAP2 SWAP1 POP JUMP JUMPDEST PUSH0 PUSH8 0xFFFFFFFFFFFFFFFF DUP3 GT ISZERO PUSH2 0x274 JUMPI PUSH2 0x273 PUSH2 0x1E2 JUMP JUMPDEST JUMPDEST PUSH2 0x27D DUP3 PUSH2 0x1D2 JUMP JUMPDEST SWAP1 POP PUSH1 0x20 DUP2 ADD SWAP1 POP SWAP2 SWAP1 POP JUMP JUMPDEST DUP3 DUP2 DUP4 MCOPY PUSH0 DUP4 DUP4 ADD MSTORE POP POP POP JUMP JUMPDEST PUSH0 PUSH2 0x2AA PUSH2 0x2A5 DUP5 PUSH2 0x25A JUMP JUMPDEST PUSH2 0x240 JUMP JUMPDEST SWAP1 POP DUP3 DUP2 MSTORE PUSH1 0x20 DUP2 ADD DUP5 DUP5 DUP5 ADD GT ISZERO PUSH2 0x2C6 JUMPI PUSH2 0x2C5 PUSH2 0x1CE JUMP JUMPDEST JUMPDEST PUSH2 0x2D1 DUP5 DUP3 DUP6 PUSH2 0x28A JUMP JUMPDEST POP SWAP4 SWAP3 POP POP POP JUMP JUMPDEST PUSH0 DUP3 PUSH1 0x1F DUP4 ADD SLT PUSH2 0x2ED JUMPI PUSH2 0x2EC PUSH2 0x1CA JUMP JUMPDEST JUMPDEST DUP2 MLOAD PUSH2 0x2FD DUP5 DUP3 PUSH1 0x20 DUP7 ADD PUSH2 0x298 JUMP JUMPDEST SWAP2 POP POP SWAP3 SWAP2 POP POP JUMP JUMPDEST PUSH0 PUSH0 PUSH0 PUSH1 0x60 DUP5 DUP7 SUB SLT ISZERO PUSH2 0x31D JUMPI PUSH2 0x31C PUSH2 0x168 JUMP JUMPDEST JUMPDEST PUSH0 PUSH2 0x32A DUP7 DUP3 DUP8 ADD PUSH2 0x1B6 JUMP JUMPDEST SWAP4 POP POP PUSH1 0x20 PUSH2 0x33B DUP7 DUP3 DUP8 ADD PUSH2 0x1B6 JUMP JUMPDEST SWAP3 POP POP PUSH1 0x40 DUP5 ADD MLOAD PUSH8 0xFFFFFFFFFFFFFFFF DUP2 GT ISZERO PUSH2 0x35C JUMPI PUSH2 0x35B PUSH2 0x16C JUMP JUMPDEST JUMPDEST PUSH2 0x368 DUP7 DUP3 DUP8 ADD PUSH2 0x2D9 JUMP JUMPDEST SWAP2 POP POP SWAP3 POP SWAP3 POP SWAP3 JUMP JUMPDEST PUSH0 DUP2 MLOAD SWAP1 POP SWAP2 SWAP1 POP JUMP JUMPDEST PUSH0 DUP2 SWAP1 POP SWAP3 SWAP2 POP POP JUMP JUMPDEST PUSH0 PUSH2 0x390 DUP3 PUSH2 0x372 JUMP JUMPDEST PUSH2 0x39A DUP2 DUP6 PUSH2 0x37C JUMP JUMPDEST SWAP4 POP PUSH2 0x3AA DUP2 DUP6 PUSH1 0x20 DUP7 ADD PUSH2 0x28A JUMP JUMPDEST DUP1 DUP5 ADD SWAP2 POP POP SWAP3 SWAP2 POP POP JUMP JUMPDEST PUSH0 PUSH2 0x3C1 DUP3 DUP5 PUSH2 0x386 JUMP JUMPDEST SWAP2 POP DUP2 SWAP1 POP SWAP3 SWAP2 POP POP JUMP JUMPDEST PUSH0 DUP3 DUP3 MSTORE PUSH1 0x20 DUP3 ADD SWAP1 POP SWAP3 SWAP2 POP POP JUMP JUMPDEST PUSH32 0x496E697469616C697A6174696F6E206661696C65640000000000000000000000 PUSH0 DUP3 ADD MSTORE POP JUMP JUMPDEST PUSH0 PUSH2 0x410 PUSH1 0x15 DUP4 PUSH2 0x3CC JUMP JUMPDEST SWAP2 POP PUSH2 0x41B DUP3 PUSH2 0x3DC JUMP JUMPDEST PUSH1 0x20 DUP3 ADD SWAP1 POP SWAP2 SWAP1 POP JUMP JUMPDEST PUSH0 PUSH1 0x20 DUP3 ADD SWAP1 POP DUP2 DUP2 SUB PUSH0 DUP4 ADD MSTORE PUSH2 0x43D DUP2 PUSH2 0x404 JUMP JUMPDEST SWAP1 POP SWAP2 SWAP1 POP JUMP JUMPDEST PUSH2 0x423 DUP1 PUSH2 0x451 PUSH0 CODECOPY PUSH0 RETURN INVALID PUSH1 0x80 PUSH1 0x40 MSTORE PUSH1 0x4 CALLDATASIZE LT PUSH2 0x2C JUMPI PUSH0 CALLDATALOAD PUSH1 0xE0 SHR DUP1 PUSH4 0x3659CFE6 EQ PUSH2 0x81 JUMPI DUP1 PUSH4 0xAAF10F42 EQ PUSH2 0xA9 JUMPI PUSH2 0x57 JUMP JUMPDEST CALLDATASIZE PUSH2 0x57 JUMPI PUSH0 PUSH2 0x3A PUSH2 0xD3 JUMP JUMPDEST SWAP1 POP PUSH0 PUSH0 PUSH0 PUSH0 DUP5 GAS DELEGATECALL RETURNDATASIZE PUSH0 PUSH0 RETURNDATACOPY DUP1 PUSH0 DUP2 EQ PUSH2 0x53 JUMPI RETURNDATASIZE PUSH0 RETURN JUMPDEST RETURNDATASIZE PUSH0 REVERT JUMPDEST PUSH0 PUSH2 0x60 PUSH2 0xD3 JUMP JUMPDEST SWAP1 POP CALLDATASIZE PUSH0 PUSH0 CALLDATACOPY PUSH0 PUSH0 CALLDATASIZE PUSH0 DUP5 GAS DELEGATECALL RETURNDATASIZE PUSH0 PUSH0 RETURNDATACOPY DUP1 PUSH0 DUP2 EQ PUSH2 0x7D JUMPI RETURNDATASIZE PUSH0 RETURN JUMPDEST RETURNDATASIZE PUSH0 REVERT JUMPDEST CALLVALUE DUP1 ISZERO PUSH2 0x8C JUMPI PUSH0 PUSH0 REVERT JUMPDEST POP PUSH2 0xA7 PUSH1 0x4 DUP1 CALLDATASIZE SUB DUP2 ADD SWAP1 PUSH2 0xA2 SWAP2 SWAP1 PUSH2 0x2BA JUMP JUMPDEST PUSH2 0x100 JUMP JUMPDEST STOP JUMPDEST CALLVALUE DUP1 ISZERO PUSH2 0xB4 JUMPI PUSH0 PUSH0 REVERT JUMPDEST POP PUSH2 0xBD PUSH2 0x181 JUMP JUMPDEST PUSH1 0x40 MLOAD PUSH2 0xCA SWAP2 SWAP1 PUSH2 0x2F4 JUMP JUMPDEST PUSH1 0x40 MLOAD DUP1 SWAP2 SUB SWAP1 RETURN JUMPDEST PUSH0 PUSH0 PUSH32 0x24ED44EE9374370FD3AA7C8B1ABF58827504C20F65246B17D2B9E7E1AEF77847 SWAP1 POP DUP1 SLOAD SWAP2 POP POP SWAP1 JUMP JUMPDEST PUSH2 0x108 PUSH2 0x204 JUMP JUMPDEST PUSH20 0xFFFFFFFFFFFFFFFFFFFFFFFFFFFFFFFFFFFFFFFF AND CALLER PUSH20 0xFFFFFFFFFFFFFFFFFFFFFFFFFFFFFFFFFFFFFFFF AND EQ PUSH2 0x175 JUMPI PUSH1 0x40 MLOAD PUSH32 0x8C379A000000000000000000000000000000000000000000000000000000000 DUP2 MSTORE PUSH1 0x4 ADD PUSH2 0x16C SWAP1 PUSH2 0x367 JUMP JUMPDEST PUSH1 0x40 MLOAD DUP1 SWAP2 SUB SWAP1 REVERT JUMPDEST PUSH2 0x17E DUP2 PUSH2 0x231 JUMP JUMPDEST POP JUMP JUMPDEST PUSH0 PUSH2 0x18A PUSH2 0x204 JUMP JUMPDEST PUSH20 0xFFFFFFFFFFFFFFFFFFFFFFFFFFFFFFFFFFFFFFFF AND CALLER PUSH20 0xFFFFFFFFFFFFFFFFFFFFFFFFFFFFFFFFFFFFFFFF AND EQ PUSH2 0x1F7 JUMPI PUSH1 0x40 MLOAD PUSH32 0x8C379A000000000000000000000000000000000000000000000000000000000 DUP2 MSTORE PUSH1 0x4 ADD PUSH2 0x1EE SWAP1 PUSH2 0x3CF JUMP JUMPDEST PUSH1 0x40 MLOAD DUP1 SWAP2 SUB SWAP1 REVERT JUMPDEST PUSH2 0x1FF PUSH2 0xD3 JUMP JUMPDEST SWAP1 POP SWAP1 JUMP JUMPDEST PUSH0 PUSH0 PUSH32 0xB361EAF08109AC4E837850C52399E285128FDAA6C1699E4864DD655F97CA6FD8 SWAP1 POP DUP1 SLOAD SWAP2 POP POP SWAP1 JUMP JUMPDEST PUSH0 PUSH32 0x24ED44EE9374370FD3AA7C8B1ABF58827504C20F65246B17D2B9E7E1AEF77847 SWAP1 POP DUP2 DUP2 SSTORE POP POP JUMP JUMPDEST PUSH0 PUSH0 REVERT JUMPDEST PUSH0 PUSH20 0xFFFFFFFFFFFFFFFFFFFFFFFFFFFFFFFFFFFFFFFF DUP3 AND SWAP1 POP SWAP2 SWAP1 POP JUMP JUMPDEST PUSH0 PUSH2 0x289 DUP3 PUSH2 0x260 JUMP JUMPDEST SWAP1 POP SWAP2 SWAP1 POP JUMP JUMPDEST PUSH2 0x299 DUP2 PUSH2 0x27F JUMP JUMPDEST DUP2 EQ PUSH2 0x2A3 JUMPI PUSH0 PUSH0 REVERT JUMPDEST POP JUMP JUMPDEST PUSH0 DUP2 CALLDATALOAD SWAP1 POP PUSH2 0x2B4 DUP2 PUSH2 0x290 JUMP JUMPDEST SWAP3 SWAP2 POP POP JUMP JUMPDEST PUSH0 PUSH1 0x20 DUP3 DUP5 SUB SLT ISZERO PUSH2 0x2CF JUMPI PUSH2 0x2CE PUSH2 0x25C JUMP JUMPDEST JUMPDEST PUSH0 PUSH2 0x2DC DUP5 DUP3 DUP6 ADD PUSH2 0x2A6 JUMP JUMPDEST SWAP2 POP POP SWAP3 SWAP2 POP POP JUMP JUMPDEST PUSH2 0x2EE DUP2 PUSH2 0x27F JUMP JUMPDEST DUP3 MSTORE POP POP JUMP JUMPDEST PUSH0 PUSH1 0x20 DUP3 ADD SWAP1 POP PUSH2 0x307 PUSH0 DUP4 ADD DUP5 PUSH2 0x2E5 JUMP JUMPDEST SWAP3 SWAP2 POP POP JUMP JUMPDEST PUSH0 DUP3 DUP3 MSTORE PUSH1 0x20 DUP3 ADD SWAP1 POP SWAP3 SWAP2 POP POP JUMP JUMPDEST PUSH32 0x4F6E6C792061646D696E2063616E207570677261646500000000000000000000 PUSH0 DUP3 ADD MSTORE POP JUMP JUMPDEST PUSH0 PUSH2 0x351 PUSH1 0x16 DUP4 PUSH2 0x30D JUMP JUMPDEST SWAP2 POP PUSH2 0x35C DUP3 PUSH2 0x31D JUMP JUMPDEST PUSH1 0x20 DUP3 ADD SWAP1 POP SWAP2 SWAP1 POP JUMP JUMPDEST PUSH0 PUSH1 0x20 DUP3 ADD SWAP1 POP DUP2 DUP2 SUB PUSH0 DUP4 ADD MSTORE PUSH2 0x37E DUP2 PUSH2 0x345 JUMP JUMPDEST SWAP1 POP SWAP2 SWAP1 POP JUMP JUMPDEST PUSH32 0x4F6E6C792061646D696E2063616E207669657700000000000000000000000000 PUSH0 DUP3 ADD MSTORE POP JUMP JUMPDEST PUSH0 PUSH2 0x3B9 PUSH1 0x13 DUP4 PUSH2 0x30D JUMP JUMPDEST SWAP2 POP PUSH2 0x3C4 DUP3 PUSH2 0x385 JUMP JUMPDEST PUSH1 0x20 DUP3 ADD SWAP1 POP SWAP2 SWAP1 POP JUMP JUMPDEST PUSH0 PUSH1 0x20 DUP3 ADD SWAP1 POP DUP2 DUP2 SUB PUSH0 DUP4 ADD MSTORE PUSH2 0x3E6 DUP2 PUSH2 0x3AD JUMP JUMPDEST SWAP1 POP SWAP2 SWAP1 POP JUMP INVALID LOG2 PUSH5 0x6970667358 0x22 SLT KECCAK256 0xC5 0xA7 SMOD 0xDA CALLDATACOPY DUP13 0xD0 0xCB SWAP1 0xB7 0xC5 0xAF 0xC8 CALLDATACOPY CHAINID 0x2D 0xD SHR STOP BALANCE 0x2E ADD CALLF 0x7468 PUSH20 0x261FD388196F64736F6C634300081E0033000000 "
				},
				"gasEstimates": {
					"creation": {
						"codeDepositCost": "211800",
						"executionCost": "infinite",
						"totalCost": "infinite"
					},
					"external": {
						"": "infinite",
						"getImplementation()": "4706",
						"upgradeTo(address)": "24754"
					},
					"internal": {
						"_getAdmin()": "2134",
						"_getImplementation()": "2134",
						"_setAdmin(address)": "infinite",
						"_setImplementation(address)": "22129"
					}
				},
				"methodIdentifiers": {
					"getImplementation()": "aaf10f42",
					"upgradeTo(address)": "3659cfe6"
				}
			},
			"storageLayout": {
				"storage": [],
				"types": null
			},
			"userdoc": {
				"kind": "user",
				"methods": {},
				"version": 1
			}
		}
	}
}