{
	"data": {
		"bytecode": {
			"linkReferences": {},
			"object": "60a060405260016080908152503480156016575f5ffd5b506080516121aa61002f5f395f6106c601526121aa5ff3fe608060405234801561000f575f5ffd5b506004361061011f575f3560e01c806354fd4d50116100ab57806395d89b411161006f57806395d89b41146102cf578063a9059cbb146102ed578063dd62ed3e1461031d578063e30c39781461034d578063f2fde38b1461036b5761011f565b806354fd4d501461024f57806370a082311461026d578063715018a61461029d57806379ba5097146102a75780638da5cb5b146102b15761011f565b8063313ce567116100f2578063313ce567146101bf57806333eea181146101dd578063355274ea146101f957806340c10f191461021757806342966c68146102335761011f565b806306fdde0314610123578063095ea7b31461014157806318160ddd1461017157806323b872dd1461018f575b5f5ffd5b61012b610387565b6040516101389190611709565b60405180910390f35b61015b600480360381019061015691906117c7565b610425565b604051610168919061181f565b60405180910390f35b610179610447565b6040516101869190611847565b60405180910390f35b6101a960048036038101906101a49190611860565b61045e565b6040516101b6919061181f565b60405180910390f35b6101c761048c565b6040516101d491906118cb565b60405180910390f35b6101f760048036038101906101f29190611a10565b610494565b005b61020161067a565b60405161020e9190611847565b60405180910390f35b610231600480360381019061022c91906117c7565b610690565b005b61024d60048036038101906102489190611abf565b6106b6565b005b6102576106c3565b6040516102649190611847565b60405180910390f35b61028760048036038101906102829190611aea565b6106ea565b6040516102949190611847565b60405180910390f35b6102a561073d565b005b6102af610750565b005b6102b96107de565b6040516102c69190611b24565b60405180910390f35b6102d7610813565b6040516102e49190611709565b60405180910390f35b610307600480360381019061030291906117c7565b6108b1565b604051610314919061181f565b60405180910390f35b61033760048036038101906103329190611b3d565b6108d3565b6040516103449190611847565b60405180910390f35b610355610963565b6040516103629190611b24565b60405180910390f35b61038560048036038101906103809190611aea565b610998565b005b60605f610392610a51565b90508060030180546103a390611ba8565b80601f01602080910402602001604051908101604052809291908181526020018280546103cf90611ba8565b801561041a5780601f106103f15761010080835404028352916020019161041a565b820191905f5260205f20905b8154815290600101906020018083116103fd57829003601f168201915b505050505091505090565b5f5f61042f610a78565b905061043c818585610a7f565b600191505092915050565b5f5f610451610a51565b9050806002015491505090565b5f5f610468610a78565b9050610475858285610a91565b610480858585610b24565b60019150509392505050565b5f6012905090565b5f61049d610c14565b90505f815f0160089054906101000a900460ff161590505f825f015f9054906101000a900467ffffffffffffffff1690505f5f8267ffffffffffffffff161480156104e55750825b90505f60018367ffffffffffffffff1614801561051857505f3073ffffffffffffffffffffffffffffffffffffffff163b145b905081158015610526575080155b1561055d576040517ff92ee8a900000000000000000000000000000000000000000000000000000000815260040160405180910390fd5b6001855f015f6101000a81548167ffffffffffffffff021916908367ffffffffffffffff16021790555083156105aa576001855f0160086101000a81548160ff0219169083151502179055505b6105b48a8a610c27565b6105db6105bf61048c565b600a6105cb9190611d34565b896105d69190611d7e565b610c3d565b6105e486610c51565b6105ec610c65565b610614866105f861048c565b600a6106049190611d34565b8961060f9190611d7e565b610c77565b831561066e575f855f0160086101000a81548160ff0219169083151502179055507fc7f505b2f371ae2175ee4913f4499e1f2633a7b5936321eed1cdaeb6115181d260016040516106659190611e14565b60405180910390a15b50505050505050505050565b5f5f610684610cf6565b9050805f015491505090565b610698610d1d565b6106a0610da4565b6106aa8282610c77565b6106b2610df8565b5050565b6106c03382610e0f565b50565b5f7f0000000000000000000000000000000000000000000000000000000000000000905090565b5f5f6106f4610a51565b9050805f015f8473ffffffffffffffffffffffffffffffffffffffff1673ffffffffffffffffffffffffffffffffffffffff1681526020019081526020015f2054915050919050565b610745610d1d565b61074e5f610e8e565b565b5f610759610a78565b90508073ffffffffffffffffffffffffffffffffffffffff1661077a610963565b73ffffffffffffffffffffffffffffffffffffffff16146107d257806040517f118cdaa70000000000000000000000000000000000000000000000000000000081526004016107c99190611b24565b60405180910390fd5b6107db81610e8e565b50565b5f5f6107e8610ecb565b9050805f015f9054906101000a900473ffffffffffffffffffffffffffffffffffffffff1691505090565b60605f61081e610a51565b905080600401805461082f90611ba8565b80601f016020809104026020016040519081016040528092919081815260200182805461085b90611ba8565b80156108a65780601f1061087d576101008083540402835291602001916108a6565b820191905f5260205f20905b81548152906001019060200180831161088957829003601f168201915b505050505091505090565b5f5f6108bb610a78565b90506108c8818585610b24565b600191505092915050565b5f5f6108dd610a51565b9050806001015f8573ffffffffffffffffffffffffffffffffffffffff1673ffffffffffffffffffffffffffffffffffffffff1681526020019081526020015f205f8473ffffffffffffffffffffffffffffffffffffffff1673ffffffffffffffffffffffffffffffffffffffff1681526020019081526020015f205491505092915050565b5f5f61096d610ef2565b9050805f015f9054906101000a900473ffffffffffffffffffffffffffffffffffffffff1691505090565b6109a0610d1d565b5f6109a9610ef2565b905081815f015f6101000a81548173ffffffffffffffffffffffffffffffffffffffff021916908373ffffffffffffffffffffffffffffffffffffffff1602179055508173ffffffffffffffffffffffffffffffffffffffff16610a0b6107de565b73ffffffffffffffffffffffffffffffffffffffff167f38d16b8cac22d99fc7c124b9cd0de2d3fa1faef420bfe791d8c362d765e2270060405160405180910390a35050565b5f7f52c63247e1f47db19d5ce0460030c497f067ca4cebf71ba98eeadabe20bace00905090565b5f33905090565b610a8c8383836001610f19565b505050565b5f610a9c84846108d3565b90507fffffffffffffffffffffffffffffffffffffffffffffffffffffffffffffffff811015610b1e5781811015610b0f578281836040517ffb8f41b2000000000000000000000000000000000000000000000000000000008152600401610b0693929190611e2d565b60405180910390fd5b610b1d84848484035f610f19565b5b50505050565b5f73ffffffffffffffffffffffffffffffffffffffff168373ffffffffffffffffffffffffffffffffffffffff1603610b94575f6040517f96c6fd1e000000000000000000000000000000000000000000000000000000008152600401610b8b9190611b24565b60405180910390fd5b5f73ffffffffffffffffffffffffffffffffffffffff168273ffffffffffffffffffffffffffffffffffffffff1603610c04575f6040517fec442f05000000000000000000000000000000000000000000000000000000008152600401610bfb9190611b24565b60405180910390fd5b610c0f8383836110f6565b505050565b5f5f610c1e611106565b90508091505090565b610c2f61112f565b610c39828261116f565b5050565b610c4561112f565b610c4e816111ab565b50565b610c5961112f565b610c628161120e565b50565b610c6d61112f565b610c75611292565b565b5f73ffffffffffffffffffffffffffffffffffffffff168273ffffffffffffffffffffffffffffffffffffffff1603610ce7575f6040517fec442f05000000000000000000000000000000000000000000000000000000008152600401610cde9190611b24565b60405180910390fd5b610cf25f83836110f6565b5050565b5f7f0f070392f17d5f958cc1ac31867dabecfc5c9758b4a419a200803226d7155d00905090565b610d25610a78565b73ffffffffffffffffffffffffffffffffffffffff16610d436107de565b73ffffffffffffffffffffffffffffffffffffffff1614610da257610d66610a78565b6040517f118cdaa7000000000000000000000000000000000000000000000000000000008152600401610d999190611b24565b60405180910390fd5b565b5f610dad6112b1565b90506002815f015403610dec576040517f3ee5aeb500000000000000000000000000000000000000000000000000000000815260040160405180910390fd5b6002815f018190555050565b5f610e016112b1565b90506001815f018190555050565b5f73ffffffffffffffffffffffffffffffffffffffff168273ffffffffffffffffffffffffffffffffffffffff1603610e7f575f6040517f96c6fd1e000000000000000000000000000000000000000000000000000000008152600401610e769190611b24565b60405180910390fd5b610e8a825f836110f6565b5050565b5f610e97610ef2565b9050805f015f6101000a81549073ffffffffffffffffffffffffffffffffffffffff0219169055610ec7826112d8565b5050565b5f7f9016d09d72d40fdae2fd8ceac6b6234c7706214fd39c1cd1e609a0528c199300905090565b5f7f237e158222e3e6968b72b9db0d8043aacf074ad9f650f0d1606b4d82ee432c00905090565b5f610f22610a51565b90505f73ffffffffffffffffffffffffffffffffffffffff168573ffffffffffffffffffffffffffffffffffffffff1603610f94575f6040517fe602df05000000000000000000000000000000000000000000000000000000008152600401610f8b9190611b24565b60405180910390fd5b5f73ffffffffffffffffffffffffffffffffffffffff168473ffffffffffffffffffffffffffffffffffffffff1603611004575f6040517f94280d62000000000000000000000000000000000000000000000000000000008152600401610ffb9190611b24565b60405180910390fd5b82816001015f8773ffffffffffffffffffffffffffffffffffffffff1673ffffffffffffffffffffffffffffffffffffffff1681526020019081526020015f205f8673ffffffffffffffffffffffffffffffffffffffff1673ffffffffffffffffffffffffffffffffffffffff1681526020019081526020015f208190555081156110ef578373ffffffffffffffffffffffffffffffffffffffff168573ffffffffffffffffffffffffffffffffffffffff167f8c5be1e5ebec7d5bd14f71427d1e84f3dd0314c0f7b2291e5b200ac8c7c3b925856040516110e69190611847565b60405180910390a35b5050505050565b6111018383836113a9565b505050565b5f7ff0c57e16840df040f15088dc2f81fe391c3923bec73e23a9662efc9c229c6a005f1b905090565b61113761144c565b61116d576040517fd7e6bcf800000000000000000000000000000000000000000000000000000000815260040160405180910390fd5b565b61117761112f565b5f611180610a51565b9050828160030190816111939190611ff9565b50818160040190816111a59190611ff9565b50505050565b6111b361112f565b5f6111bc610cf6565b90505f8203611202575f6040517f392e1e270000000000000000000000000000000000000000000000000000000081526004016111f99190612101565b60405180910390fd5b81815f01819055505050565b61121661112f565b5f73ffffffffffffffffffffffffffffffffffffffff168173ffffffffffffffffffffffffffffffffffffffff1603611286575f6040517f1e4fbdf700000000000000000000000000000000000000000000000000000000815260040161127d9190611b24565b60405180910390fd5b61128f81610e8e565b50565b61129a61112f565b5f6112a36112b1565b90506001815f018190555050565b5f7f9b779b17422d0df92223018b32b4d1fa46e071723d6817e2486d003becc55f00905090565b5f6112e1610ecb565b90505f815f015f9054906101000a900473ffffffffffffffffffffffffffffffffffffffff16905082825f015f6101000a81548173ffffffffffffffffffffffffffffffffffffffff021916908373ffffffffffffffffffffffffffffffffffffffff1602179055508273ffffffffffffffffffffffffffffffffffffffff168173ffffffffffffffffffffffffffffffffffffffff167f8be0079c531659141344cd1fd0a4f28419497f9722a3daafe3b4186f6b6457e060405160405180910390a3505050565b6113b483838361146a565b5f73ffffffffffffffffffffffffffffffffffffffff168373ffffffffffffffffffffffffffffffffffffffff1603611447575f6113f061067a565b90505f6113fb610447565b9050818111156114445780826040517f9e79f85400000000000000000000000000000000000000000000000000000000815260040161143b92919061211a565b60405180910390fd5b50505b505050565b5f611455610c14565b5f0160089054906101000a900460ff16905090565b5f611473610a51565b90505f73ffffffffffffffffffffffffffffffffffffffff168473ffffffffffffffffffffffffffffffffffffffff16036114c75781816002015f8282546114bb9190612141565b92505081905550611599565b5f815f015f8673ffffffffffffffffffffffffffffffffffffffff1673ffffffffffffffffffffffffffffffffffffffff1681526020019081526020015f2054905082811015611552578481846040517fe450d38c00000000000000000000000000000000000000000000000000000000815260040161154993929190611e2d565b60405180910390fd5b828103825f015f8773ffffffffffffffffffffffffffffffffffffffff1673ffffffffffffffffffffffffffffffffffffffff1681526020019081526020015f2081905550505b5f73ffffffffffffffffffffffffffffffffffffffff168373ffffffffffffffffffffffffffffffffffffffff16036115e25781816002015f828254039250508190555061162e565b81815f015f8573ffffffffffffffffffffffffffffffffffffffff1673ffffffffffffffffffffffffffffffffffffffff1681526020019081526020015f205f82825401925050819055505b8273ffffffffffffffffffffffffffffffffffffffff168473ffffffffffffffffffffffffffffffffffffffff167fddf252ad1be2c89b69c2b068fc378daa952ba7f163c4a11628f55a4df523b3ef8460405161168b9190611847565b60405180910390a350505050565b5f81519050919050565b5f82825260208201905092915050565b8281835e5f83830152505050565b5f601f19601f8301169050919050565b5f6116db82611699565b6116e581856116a3565b93506116f58185602086016116b3565b6116fe816116c1565b840191505092915050565b5f6020820190508181035f83015261172181846116d1565b905092915050565b5f604051905090565b5f5ffd5b5f5ffd5b5f73ffffffffffffffffffffffffffffffffffffffff82169050919050565b5f6117638261173a565b9050919050565b61177381611759565b811461177d575f5ffd5b50565b5f8135905061178e8161176a565b92915050565b5f819050919050565b6117a681611794565b81146117b0575f5ffd5b50565b5f813590506117c18161179d565b92915050565b5f5f604083850312156117dd576117dc611732565b5b5f6117ea85828601611780565b92505060206117fb858286016117b3565b9150509250929050565b5f8115159050919050565b61181981611805565b82525050565b5f6020820190506118325f830184611810565b92915050565b61184181611794565b82525050565b5f60208201905061185a5f830184611838565b92915050565b5f5f5f6060848603121561187757611876611732565b5b5f61188486828701611780565b935050602061189586828701611780565b92505060406118a6868287016117b3565b9150509250925092565b5f60ff82169050919050565b6118c5816118b0565b82525050565b5f6020820190506118de5f8301846118bc565b92915050565b5f5ffd5b5f5ffd5b7f4e487b71000000000000000000000000000000000000000000000000000000005f52604160045260245ffd5b611922826116c1565b810181811067ffffffffffffffff82111715611941576119406118ec565b5b80604052505050565b5f611953611729565b905061195f8282611919565b919050565b5f67ffffffffffffffff82111561197e5761197d6118ec565b5b611987826116c1565b9050602081019050919050565b828183375f83830152505050565b5f6119b46119af84611964565b61194a565b9050828152602081018484840111156119d0576119cf6118e8565b5b6119db848285611994565b509392505050565b5f82601f8301126119f7576119f66118e4565b5b8135611a078482602086016119a2565b91505092915050565b5f5f5f5f5f60a08688031215611a2957611a28611732565b5b5f86013567ffffffffffffffff811115611a4657611a45611736565b5b611a52888289016119e3565b955050602086013567ffffffffffffffff811115611a7357611a72611736565b5b611a7f888289016119e3565b9450506040611a90888289016117b3565b9350506060611aa1888289016117b3565b9250506080611ab288828901611780565b9150509295509295909350565b5f60208284031215611ad457611ad3611732565b5b5f611ae1848285016117b3565b91505092915050565b5f60208284031215611aff57611afe611732565b5b5f611b0c84828501611780565b91505092915050565b611b1e81611759565b82525050565b5f602082019050611b375f830184611b15565b92915050565b5f5f60408385031215611b5357611b52611732565b5b5f611b6085828601611780565b9250506020611b7185828601611780565b9150509250929050565b7f4e487b71000000000000000000000000000000000000000000000000000000005f52602260045260245ffd5b5f6002820490506001821680611bbf57607f821691505b602082108103611bd257611bd1611b7b565b5b50919050565b7f4e487b71000000000000000000000000000000000000000000000000000000005f52601160045260245ffd5b5f8160011c9050919050565b5f5f8291508390505b6001851115611c5a57808604811115611c3657611c35611bd8565b5b6001851615611c455780820291505b8081029050611c5385611c05565b9450611c1a565b94509492505050565b5f82611c725760019050611d2d565b81611c7f575f9050611d2d565b8160018114611c955760028114611c9f57611cce565b6001915050611d2d565b60ff841115611cb157611cb0611bd8565b5b8360020a915084821115611cc857611cc7611bd8565b5b50611d2d565b5060208310610133831016604e8410600b8410161715611d035782820a905083811115611cfe57611cfd611bd8565b5b611d2d565b611d108484846001611c11565b92509050818404811115611d2757611d26611bd8565b5b81810290505b9392505050565b5f611d3e82611794565b9150611d49836118b0565b9250611d767fffffffffffffffffffffffffffffffffffffffffffffffffffffffffffffffff8484611c63565b905092915050565b5f611d8882611794565b9150611d9383611794565b9250828202611da181611794565b91508282048414831517611db857611db7611bd8565b5b5092915050565b5f819050919050565b5f67ffffffffffffffff82169050919050565b5f819050919050565b5f611dfe611df9611df484611dbf565b611ddb565b611dc8565b9050919050565b611e0e81611de4565b82525050565b5f602082019050611e275f830184611e05565b92915050565b5f606082019050611e405f830186611b15565b611e4d6020830185611838565b611e5a6040830184611838565b949350505050565b5f819050815f5260205f209050919050565b5f6020601f8301049050919050565b5f82821b905092915050565b5f60088302611ebe7fffffffffffffffffffffffffffffffffffffffffffffffffffffffffffffffff82611e83565b611ec88683611e83565b95508019841693508086168417925050509392505050565b5f611efa611ef5611ef084611794565b611ddb565b611794565b9050919050565b5f819050919050565b611f1383611ee0565b611f27611f1f82611f01565b848454611e8f565b825550505050565b5f5f905090565b611f3e611f2f565b611f49818484611f0a565b505050565b5b81811015611f6c57611f615f82611f36565b600181019050611f4f565b5050565b601f821115611fb157611f8281611e62565b611f8b84611e74565b81016020851015611f9a578190505b611fae611fa685611e74565b830182611f4e565b50505b505050565b5f82821c905092915050565b5f611fd15f1984600802611fb6565b1980831691505092915050565b5f611fe98383611fc2565b9150826002028217905092915050565b61200282611699565b67ffffffffffffffff81111561201b5761201a6118ec565b5b6120258254611ba8565b612030828285611f70565b5f60209050601f831160018114612061575f841561204f578287015190505b6120598582611fde565b8655506120c0565b601f19841661206f86611e62565b5f5b8281101561209657848901518255600182019150602085019450602081019050612071565b868310156120b357848901516120af601f891682611fc2565b8355505b6001600288020188555050505b505050505050565b5f819050919050565b5f6120eb6120e66120e1846120c8565b611ddb565b611794565b9050919050565b6120fb816120d1565b82525050565b5f6020820190506121145f8301846120f2565b92915050565b5f60408201905061212d5f830185611838565b61213a6020830184611838565b9392505050565b5f61214b82611794565b915061215683611794565b925082820190508082111561216e5761216d611bd8565b5b9291505056fea26469706673582212205107e523fceb90bf1c8f7bdee35e348135dd16bf5044ab6ae34f5b2320faf78664736f6c634300081e0033",
			"opcodes": "PUSH1 0xA0 PUSH1 0x40 MSTORE PUSH1 0x1 PUSH1 0x80 SWAP1 DUP2 MSTORE POP CALLVALUE DUP1 ISZERO PUSH1 0x16 JUMPI PUSH0 PUSH0 REVERT JUMPDEST POP PUSH1 0x80 MLOAD PUSH2 0x21AA PUSH2 0x2F PUSH0 CODECOPY PUSH0 PUSH2 0x6C6 ADD MSTORE PUSH2 0x21AA PUSH0 RETURN INVALID PUSH1 0x80 PUSH1 0x40 MSTORE CALLVALUE DUP1 ISZERO PUSH2 0xF JUMPI PUSH0 PUSH0 REVERT JUMPDEST POP PUSH1 0x4 CALLDATASIZE LT PUSH2 0x11F JUMPI PUSH0 CALLDATALOAD PUSH1 0xE0 SHR DUP1 PUSH4 0x54FD4D50 GT PUSH2 0xAB JUMPI DUP1 PUSH4 0x95D89B41 GT PUSH2 0x6F JUMPI DUP1 PUSH4 0x95D89B41 EQ PUSH2 0x2CF JUMPI DUP1 PUSH4 0xA9059CBB EQ PUSH2 0x2ED JUMPI DUP1 PUSH4 0xDD62ED3E EQ PUSH2 0x31D JUMPI DUP1 PUSH4 0xE30C3978 EQ PUSH2 0x34D JUMPI DUP1 PUSH4 0xF2FDE38B EQ PUSH2 0x36B JUMPI PUSH2 0x11F JUMP JUMPDEST DUP1 PUSH4 0x54FD4D50 EQ PUSH2 0x24F JUMPI DUP1 PUSH4 0x70A08231 EQ PUSH2 0x26D JUMPI DUP1 PUSH4 0x715018A6 EQ PUSH2 0x29D JUMPI DUP1 PUSH4 0x79BA5097 EQ PUSH2 0x2A7 JUMPI DUP1 PUSH4 0x8DA5CB5B EQ PUSH2 0x2B1 JUMPI PUSH2 0x11F JUMP JUMPDEST DUP1 PUSH4 0x313CE567 GT PUSH2 0xF2 JUMPI DUP1 PUSH4 0x313CE567 EQ PUSH2 0x1BF JUMPI DUP1 PUSH4 0x33EEA181 EQ PUSH2 0x1DD JUMPI DUP1 PUSH4 0x355274EA EQ PUSH2 0x1F9 JUMPI DUP1 PUSH4 0x40C10F19 EQ PUSH2 0x217 JUMPI DUP1 PUSH4 0x42966C68 EQ PUSH2 0x233 JUMPI PUSH2 0x11F JUMP JUMPDEST DUP1 PUSH4 0x6FDDE03 EQ PUSH2 0x123 JUMPI DUP1 PUSH4 0x95EA7B3 EQ PUSH2 0x141 JUMPI DUP1 PUSH4 0x18160DDD EQ PUSH2 0x171 JUMPI DUP1 PUSH4 0x23B872DD EQ PUSH2 0x18F JUMPI JUMPDEST PUSH0 PUSH0 REVERT JUMPDEST PUSH2 0x12B PUSH2 0x387 JUMP JUMPDEST PUSH1 0x40 MLOAD PUSH2 0x138 SWAP2 SWAP1 PUSH2 0x1709 JUMP JUMPDEST PUSH1 0x40 MLOAD DUP1 SWAP2 SUB SWAP1 RETURN JUMPDEST PUSH2 0x15B PUSH1 0x4 DUP1 CALLDATASIZE SUB DUP2 ADD SWAP1 PUSH2 0x156 SWAP2 SWAP1 PUSH2 0x17C7 JUMP JUMPDEST PUSH2 0x425 JUMP JUMPDEST PUSH1 0x40 MLOAD PUSH2 0x168 SWAP2 SWAP1 PUSH2 0x181F JUMP JUMPDEST PUSH1 0x40 MLOAD DUP1 SWAP2 SUB SWAP1 RETURN JUMPDEST PUSH2 0x179 PUSH2 0x447 JUMP JUMPDEST PUSH1 0x40 MLOAD PUSH2 0x186 SWAP2 SWAP1 PUSH2 0x1847 JUMP JUMPDEST PUSH1 0x40 MLOAD DUP1 SWAP2 SUB SWAP1 RETURN JUMPDEST PUSH2 0x1A9 PUSH1 0x4 DUP1 CALLDATASIZE SUB DUP2 ADD SWAP1 PUSH2 0x1A4 SWAP2 SWAP1 PUSH2 0x1860 JUMP JUMPDEST PUSH2 0x45E JUMP JUMPDEST PUSH1 0x40 MLOAD PUSH2 0x1B6 SWAP2 SWAP1 PUSH2 0x181F JUMP JUMPDEST PUSH1 0x40 MLOAD DUP1 SWAP2 SUB SWAP1 RETURN JUMPDEST PUSH2 0x1C7 PUSH2 0x48C JUMP JUMPDEST PUSH1 0x40 MLOAD PUSH2 0x1D4 SWAP2 SWAP1 PUSH2 0x18CB JUMP JUMPDEST PUSH1 0x40 MLOAD DUP1 SWAP2 SUB SWAP1 RETURN JUMPDEST PUSH2 0x1F7 PUSH1 0x4 DUP1 CALLDATASIZE SUB DUP2 ADD SWAP1 PUSH2 0x1F2 SWAP2 SWAP1 PUSH2 0x1A10 JUMP JUMPDEST PUSH2 0x494 JUMP JUMPDEST STOP JUMPDEST PUSH2 0x201 PUSH2 0x67A JUMP JUMPDEST PUSH1 0x40 MLOAD PUSH2 0x20E SWAP2 SWAP1 PUSH2 0x1847 JUMP JUMPDEST PUSH1 0x40 MLOAD DUP1 SWAP2 SUB SWAP1 RETURN JUMPDEST PUSH2 0x231 PUSH1 0x4 DUP1 CALLDATASIZE SUB DUP2 ADD SWAP1 PUSH2 0x22C SWAP2 SWAP1 PUSH2 0x17C7 JUMP JUMPDEST PUSH2 0x690 JUMP JUMPDEST STOP JUMPDEST PUSH2 0x24D PUSH1 0x4 DUP1 CALLDATASIZE SUB DUP2 ADD SWAP1 PUSH2 0x248 SWAP2 SWAP1 PUSH2 0x1ABF JUMP JUMPDEST PUSH2 0x6B6 JUMP JUMPDEST STOP JUMPDEST PUSH2 0x257 PUSH2 0x6C3 JUMP JUMPDEST PUSH1 0x40 MLOAD PUSH2 0x264 SWAP2 SWAP1 PUSH2 0x1847 JUMP JUMPDEST PUSH1 0x40 MLOAD DUP1 SWAP2 SUB SWAP1 RETURN JUMPDEST PUSH2 0x287 PUSH1 0x4 DUP1 CALLDATASIZE SUB DUP2 ADD SWAP1 PUSH2 0x282 SWAP2 SWAP1 PUSH2 0x1AEA JUMP JUMPDEST PUSH2 0x6EA JUMP JUMPDEST PUSH1 0x40 MLOAD PUSH2 0x294 SWAP2 SWAP1 PUSH2 0x1847 JUMP JUMPDEST PUSH1 0x40 MLOAD DUP1 SWAP2 SUB SWAP1 RETURN JUMPDEST PUSH2 0x2A5 PUSH2 0x73D JUMP JUMPDEST STOP JUMPDEST PUSH2 0x2AF PUSH2 0x750 JUMP JUMPDEST STOP JUMPDEST PUSH2 0x2B9 PUSH2 0x7DE JUMP JUMPDEST PUSH1 0x40 MLOAD PUSH2 0x2C6 SWAP2 SWAP1 PUSH2 0x1B24 JUMP JUMPDEST PUSH1 0x40 MLOAD DUP1 SWAP2 SUB SWAP1 RETURN JUMPDEST PUSH2 0x2D7 PUSH2 0x813 JUMP JUMPDEST PUSH1 0x40 MLOAD PUSH2 0x2E4 SWAP2 SWAP1 PUSH2 0x1709 JUMP JUMPDEST PUSH1 0x40 MLOAD DUP1 SWAP2 SUB SWAP1 RETURN JUMPDEST PUSH2 0x307 PUSH1 0x4 DUP1 CALLDATASIZE SUB DUP2 ADD SWAP1 PUSH2 0x302 SWAP2 SWAP1 PUSH2 0x17C7 JUMP JUMPDEST PUSH2 0x8B1 JUMP JUMPDEST PUSH1 0x40 MLOAD PUSH2 0x314 SWAP2 SWAP1 PUSH2 0x181F JUMP JUMPDEST PUSH1 0x40 MLOAD DUP1 SWAP2 SUB SWAP1 RETURN JUMPDEST PUSH2 0x337 PUSH1 0x4 DUP1 CALLDATASIZE SUB DUP2 ADD SWAP1 PUSH2 0x332 SWAP2 SWAP1 PUSH2 0x1B3D JUMP JUMPDEST PUSH2 0x8D3 JUMP JUMPDEST PUSH1 0x40 MLOAD PUSH2 0x344 SWAP2 SWAP1 PUSH2 0x1847 JUMP JUMPDEST PUSH1 0x40 MLOAD DUP1 SWAP2 SUB SWAP1 RETURN JUMPDEST PUSH2 0x355 PUSH2 0x963 JUMP JUMPDEST PUSH1 0x40 MLOAD PUSH2 0x362 SWAP2 SWAP1 PUSH2 0x1B24 JUMP JUMPDEST PUSH1 0x40 MLOAD DUP1 SWAP2 SUB SWAP1 RETURN JUMPDEST PUSH2 0x385 PUSH1 0x4 DUP1 CALLDATASIZE SUB DUP2 ADD SWAP1 PUSH2 0x380 SWAP2 SWAP1 PUSH2 0x1AEA JUMP JUMPDEST PUSH2 0x998 JUMP JUMPDEST STOP JUMPDEST PUSH1 0x60 PUSH0 PUSH2 0x392 PUSH2 0xA51 JUMP JUMPDEST SWAP1 POP DUP1 PUSH1 0x3 ADD DUP1 SLOAD PUSH2 0x3A3 SWAP1 PUSH2 0x1BA8 JUMP JUMPDEST DUP1 PUSH1 0x1F ADD PUSH1 0x20 DUP1 SWAP2 DIV MUL PUSH1 0x20 ADD PUSH1 0x40 MLOAD SWAP1 DUP2 ADD PUSH1 0x40 MSTORE DUP1 SWAP3 SWAP2 SWAP1 DUP2 DUP2 MSTORE PUSH1 0x20 ADD DUP3 DUP1 SLOAD PUSH2 0x3CF SWAP1 PUSH2 0x1BA8 JUMP JUMPDEST DUP1 ISZERO PUSH2 0x41A JUMPI DUP1 PUSH1 0x1F LT PUSH2 0x3F1 JUMPI PUSH2 0x100 DUP1 DUP4 SLOAD DIV MUL DUP4 MSTORE SWAP2 PUSH1 0x20 ADD SWAP2 PUSH2 0x41A JUMP JUMPDEST DUP3 ADD SWAP2 SWAP1 PUSH0 MSTORE PUSH1 0x20 PUSH0 KECCAK256 SWAP1 JUMPDEST DUP2 SLOAD DUP2 MSTORE SWAP1 PUSH1 0x1 ADD SWAP1 PUSH1 0x20 ADD DUP1 DUP4 GT PUSH2 0x3FD JUMPI DUP3 SWAP1 SUB PUSH1 0x1F AND DUP3 ADD SWAP2 JUMPDEST POP POP POP POP POP SWAP2 POP POP SWAP1 JUMP JUMPDEST PUSH0 PUSH0 PUSH2 0x42F PUSH2 0xA78 JUMP JUMPDEST SWAP1 POP PUSH2 0x43C DUP2 DUP6 DUP6 PUSH2 0xA7F JUMP JUMPDEST PUSH1 0x1 SWAP2 POP POP SWAP3 SWAP2 POP POP JUMP JUMPDEST PUSH0 PUSH0 PUSH2 0x451 PUSH2 0xA51 JUMP JUMPDEST SWAP1 POP DUP1 PUSH1 0x2 ADD SLOAD SWAP2 POP POP SWAP1 JUMP JUMPDEST PUSH0 PUSH0 PUSH2 0x468 PUSH2 0xA78 JUMP JUMPDEST SWAP1 POP PUSH2 0x475 DUP6 DUP3 DUP6 PUSH2 0xA91 JUMP JUMPDEST PUSH2 0x480 DUP6 DUP6 DUP6 PUSH2 0xB24 JUMP JUMPDEST PUSH1 0x1 SWAP2 POP POP SWAP4 SWAP3 POP POP POP JUMP JUMPDEST PUSH0 PUSH1 0x12 SWAP1 POP SWAP1 JUMP JUMPDEST PUSH0 PUSH2 0x49D PUSH2 0xC14 JUMP JUMPDEST SWAP1 POP PUSH0 DUP2 PUSH0 ADD PUSH1 0x8 SWAP1 SLOAD SWAP1 PUSH2 0x100 EXP SWAP1 DIV PUSH1 0xFF AND ISZERO SWAP1 POP PUSH0 DUP3 PUSH0 ADD PUSH0 SWAP1 SLOAD SWAP1 PUSH2 0x100 EXP SWAP1 DIV PUSH8 0xFFFFFFFFFFFFFFFF AND SWAP1 POP PUSH0 PUSH0 DUP3 PUSH8 0xFFFFFFFFFFFFFFFF AND EQ DUP1 ISZERO PUSH2 0x4E5 JUMPI POP DUP3 JUMPDEST SWAP1 POP PUSH0 PUSH1 0x1 DUP4 PUSH8 0xFFFFFFFFFFFFFFFF AND EQ DUP1 ISZERO PUSH2 0x518 JUMPI POP PUSH0 ADDRESS PUSH20 0xFFFFFFFFFFFFFFFFFFFFFFFFFFFFFFFFFFFFFFFF AND EXTCODESIZE EQ JUMPDEST SWAP1 POP DUP2 ISZERO DUP1 ISZERO PUSH2 0x526 JUMPI POP DUP1 ISZERO JUMPDEST ISZERO PUSH2 0x55D JUMPI PUSH1 0x40 MLOAD PUSH32 0xF92EE8A900000000000000000000000000000000000000000000000000000000 DUP2 MSTORE PUSH1 0x4 ADD PUSH1 0x40 MLOAD DUP1 SWAP2 SUB SWAP1 REVERT JUMPDEST PUSH1 0x1 DUP6 PUSH0 ADD PUSH0 PUSH2 0x100 EXP DUP2 SLOAD DUP2 PUSH8 0xFFFFFFFFFFFFFFFF MUL NOT AND SWAP1 DUP4 PUSH8 0xFFFFFFFFFFFFFFFF AND MUL OR SWAP1 SSTORE POP DUP4 ISZERO PUSH2 0x5AA JUMPI PUSH1 0x1 DUP6 PUSH0 ADD PUSH1 0x8 PUSH2 0x100 EXP DUP2 SLOAD DUP2 PUSH1 0xFF MUL NOT AND SWAP1 DUP4 ISZERO ISZERO MUL OR SWAP1 SSTORE POP JUMPDEST PUSH2 0x5B4 DUP11 DUP11 PUSH2 0xC27 JUMP JUMPDEST PUSH2 0x5DB PUSH2 0x5BF PUSH2 0x48C JUMP JUMPDEST PUSH1 0xA PUSH2 0x5CB SWAP2 SWAP1 PUSH2 0x1D34 JUMP JUMPDEST DUP10 PUSH2 0x5D6 SWAP2 SWAP1 PUSH2 0x1D7E JUMP JUMPDEST PUSH2 0xC3D JUMP JUMPDEST PUSH2 0x5E4 DUP7 PUSH2 0xC51 JUMP JUMPDEST PUSH2 0x5EC PUSH2 0xC65 JUMP JUMPDEST PUSH2 0x614 DUP7 PUSH2 0x5F8 PUSH2 0x48C JUMP JUMPDEST PUSH1 0xA PUSH2 0x604 SWAP2 SWAP1 PUSH2 0x1D34 JUMP JUMPDEST DUP10 PUSH2 0x60F SWAP2 SWAP1 PUSH2 0x1D7E JUMP JUMPDEST PUSH2 0xC77 JUMP JUMPDEST DUP4 ISZERO PUSH2 0x66E JUMPI PUSH0 DUP6 PUSH0 ADD PUSH1 0x8 PUSH2 0x100 EXP DUP2 SLOAD DUP2 PUSH1 0xFF MUL NOT AND SWAP1 DUP4 ISZERO ISZERO MUL OR SWAP1 SSTORE POP PUSH32 0xC7F505B2F371AE2175EE4913F4499E1F2633A7B5936321EED1CDAEB6115181D2 PUSH1 0x1 PUSH1 0x40 MLOAD PUSH2 0x665 SWAP2 SWAP1 PUSH2 0x1E14 JUMP JUMPDEST PUSH1 0x40 MLOAD DUP1 SWAP2 SUB SWAP1 LOG1 JUMPDEST POP POP POP POP POP POP POP POP POP POP JUMP JUMPDEST PUSH0 PUSH0 PUSH2 0x684 PUSH2 0xCF6 JUMP JUMPDEST SWAP1 POP DUP1 PUSH0 ADD SLOAD SWAP2 POP POP SWAP1 JUMP JUMPDEST PUSH2 0x698 PUSH2 0xD1D JUMP JUMPDEST PUSH2 0x6A0 PUSH2 0xDA4 JUMP JUMPDEST PUSH2 0x6AA DUP3 DUP3 PUSH2 0xC77 JUMP JUMPDEST PUSH2 0x6B2 PUSH2 0xDF8 JUMP JUMPDEST POP POP JUMP JUMPDEST PUSH2 0x6C0 CALLER DUP3 PUSH2 0xE0F JUMP JUMPDEST POP JUMP JUMPDEST PUSH0 PUSH32 0x0 SWAP1 POP SWAP1 JUMP JUMPDEST PUSH0 PUSH0 PUSH2 0x6F4 PUSH2 0xA51 JUMP JUMPDEST SWAP1 POP DUP1 PUSH0 ADD PUSH0 DUP5 PUSH20 0xFFFFFFFFFFFFFFFFFFFFFFFFFFFFFFFFFFFFFFFF AND PUSH20 0xFFFFFFFFFFFFFFFFFFFFFFFFFFFFFFFFFFFFFFFF AND DUP2 MSTORE PUSH1 0x20 ADD SWAP1 DUP2 MSTORE PUSH1 0x20 ADD PUSH0 KECCAK256 SLOAD SWAP2 POP POP SWAP2 SWAP1 POP JUMP JUMPDEST PUSH2 0x745 PUSH2 0xD1D JUMP JUMPDEST PUSH2 0x74E PUSH0 PUSH2 0xE8E JUMP JUMPDEST JUMP JUMPDEST PUSH0 PUSH2 0x759 PUSH2 0xA78 JUMP JUMPDEST SWAP1 POP DUP1 PUSH20 0xFFFFFFFFFFFFFFFFFFFFFFFFFFFFFFFFFFFFFFFF AND PUSH2 0x77A PUSH2 0x963 JUMP JUMPDEST PUSH20 0xFFFFFFFFFFFFFFFFFFFFFFFFFFFFFFFFFFFFFFFF AND EQ PUSH2 0x7D2 JUMPI DUP1 PUSH1 0x40 MLOAD PUSH32 0x118CDAA700000000000000000000000000000000000000000000000000000000 DUP2 MSTORE PUSH1 0x4 ADD PUSH2 0x7C9 SWAP2 SWAP1 PUSH2 0x1B24 JUMP JUMPDEST PUSH1 0x40 MLOAD DUP1 SWAP2 SUB SWAP1 REVERT JUMPDEST PUSH2 0x7DB DUP2 PUSH2 0xE8E JUMP JUMPDEST POP JUMP JUMPDEST PUSH0 PUSH0 PUSH2 0x7E8 PUSH2 0xECB JUMP JUMPDEST SWAP1 POP DUP1 PUSH0 ADD PUSH0 SWAP1 SLOAD SWAP1 PUSH2 0x100 EXP SWAP1 DIV PUSH20 0xFFFFFFFFFFFFFFFFFFFFFFFFFFFFFFFFFFFFFFFF AND SWAP2 POP POP SWAP1 JUMP JUMPDEST PUSH1 0x60 PUSH0 PUSH2 0x81E PUSH2 0xA51 JUMP JUMPDEST SWAP1 POP DUP1 PUSH1 0x4 ADD DUP1 SLOAD PUSH2 0x82F SWAP1 PUSH2 0x1BA8 JUMP JUMPDEST DUP1 PUSH1 0x1F ADD PUSH1 0x20 DUP1 SWAP2 DIV MUL PUSH1 0x20 ADD PUSH1 0x40 MLOAD SWAP1 DUP2 ADD PUSH1 0x40 MSTORE DUP1 SWAP3 SWAP2 SWAP1 DUP2 DUP2 MSTORE PUSH1 0x20 ADD DUP3 DUP1 SLOAD PUSH2 0x85B SWAP1 PUSH2 0x1BA8 JUMP JUMPDEST DUP1 ISZERO PUSH2 0x8A6 JUMPI DUP1 PUSH1 0x1F LT PUSH2 0x87D JUMPI PUSH2 0x100 DUP1 DUP4 SLOAD DIV MUL DUP4 MSTORE SWAP2 PUSH1 0x20 ADD SWAP2 PUSH2 0x8A6 JUMP JUMPDEST DUP3 ADD SWAP2 SWAP1 PUSH0 MSTORE PUSH1 0x20 PUSH0 KECCAK256 SWAP1 JUMPDEST DUP2 SLOAD DUP2 MSTORE SWAP1 PUSH1 0x1 ADD SWAP1 PUSH1 0x20 ADD DUP1 DUP4 GT PUSH2 0x889 JUMPI DUP3 SWAP1 SUB PUSH1 0x1F AND DUP3 ADD SWAP2 JUMPDEST POP POP POP POP POP SWAP2 POP POP SWAP1 JUMP JUMPDEST PUSH0 PUSH0 PUSH2 0x8BB PUSH2 0xA78 JUMP JUMPDEST SWAP1 POP PUSH2 0x8C8 DUP2 DUP6 DUP6 PUSH2 0xB24 JUMP JUMPDEST PUSH1 0x1 SWAP2 POP POP SWAP3 SWAP2 POP POP JUMP JUMPDEST PUSH0 PUSH0 PUSH2 0x8DD PUSH2 0xA51 JUMP JUMPDEST SWAP1 POP DUP1 PUSH1 0x1 ADD PUSH0 DUP6 PUSH20 0xFFFFFFFFFFFFFFFFFFFFFFFFFFFFFFFFFFFFFFFF AND PUSH20 0xFFFFFFFFFFFFFFFFFFFFFFFFFFFFFFFFFFFFFFFF AND DUP2 MSTORE PUSH1 0x20 ADD SWAP1 DUP2 MSTORE PUSH1 0x20 ADD PUSH0 KECCAK256 PUSH0 DUP5 PUSH20 0xFFFFFFFFFFFFFFFFFFFFFFFFFFFFFFFFFFFFFFFF AND PUSH20 0xFFFFFFFFFFFFFFFFFFFFFFFFFFFFFFFFFFFFFFFF AND DUP2 MSTORE PUSH1 0x20 ADD SWAP1 DUP2 MSTORE PUSH1 0x20 ADD PUSH0 KECCAK256 SLOAD SWAP2 POP POP SWAP3 SWAP2 POP POP JUMP JUMPDEST PUSH0 PUSH0 PUSH2 0x96D PUSH2 0xEF2 JUMP JUMPDEST SWAP1 POP DUP1 PUSH0 ADD PUSH0 SWAP1 SLOAD SWAP1 PUSH2 0x100 EXP SWAP1 DIV PUSH20 0xFFFFFFFFFFFFFFFFFFFFFFFFFFFFFFFFFFFFFFFF AND SWAP2 POP POP SWAP1 JUMP JUMPDEST PUSH2 0x9A0 PUSH2 0xD1D JUMP JUMPDEST PUSH0 PUSH2 0x9A9 PUSH2 0xEF2 JUMP JUMPDEST SWAP1 POP DUP2 DUP2 PUSH0 ADD PUSH0 PUSH2 0x100 EXP DUP2 SLOAD DUP2 PUSH20 0xFFFFFFFFFFFFFFFFFFFFFFFFFFFFFFFFFFFFFFFF MUL NOT AND SWAP1 DUP4 PUSH20 0xFFFFFFFFFFFFFFFFFFFFFFFFFFFFFFFFFFFFFFFF AND MUL OR SWAP1 SSTORE POP DUP2 PUSH20 0xFFFFFFFFFFFFFFFFFFFFFFFFFFFFFFFFFFFFFFFF AND PUSH2 0xA0B PUSH2 0x7DE JUMP JUMPDEST PUSH20 0xFFFFFFFFFFFFFFFFFFFFFFFFFFFFFFFFFFFFFFFF AND PUSH32 0x38D16B8CAC22D99FC7C124B9CD0DE2D3FA1FAEF420BFE791D8C362D765E22700 PUSH1 0x40 MLOAD PUSH1 0x40 MLOAD DUP1 SWAP2 SUB SWAP1 LOG3 POP POP JUMP JUMPDEST PUSH0 PUSH32 0x52C63247E1F47DB19D5CE0460030C497F067CA4CEBF71BA98EEADABE20BACE00 SWAP1 POP SWAP1 JUMP JUMPDEST PUSH0 CALLER SWAP1 POP SWAP1 JUMP JUMPDEST PUSH2 0xA8C DUP4 DUP4 DUP4 PUSH1 0x1 PUSH2 0xF19 JUMP JUMPDEST POP POP POP JUMP JUMPDEST PUSH0 PUSH2 0xA9C DUP5 DUP5 PUSH2 0x8D3 JUMP JUMPDEST SWAP1 POP PUSH32 0xFFFFFFFFFFFFFFFFFFFFFFFFFFFFFFFFFFFFFFFFFFFFFFFFFFFFFFFFFFFFFFFF DUP2 LT ISZERO PUSH2 0xB1E JUMPI DUP2 DUP2 LT ISZERO PUSH2 0xB0F JUMPI DUP3 DUP2 DUP4 PUSH1 0x40 MLOAD PUSH32 0xFB8F41B200000000000000000000000000000000000000000000000000000000 DUP2 MSTORE PUSH1 0x4 ADD PUSH2 0xB06 SWAP4 SWAP3 SWAP2 SWAP1 PUSH2 0x1E2D JUMP JUMPDEST PUSH1 0x40 MLOAD DUP1 SWAP2 SUB SWAP1 REVERT JUMPDEST PUSH2 0xB1D DUP5 DUP5 DUP5 DUP5 SUB PUSH0 PUSH2 0xF19 JUMP JUMPDEST JUMPDEST POP POP POP POP JUMP JUMPDEST PUSH0 PUSH20 0xFFFFFFFFFFFFFFFFFFFFFFFFFFFFFFFFFFFFFFFF AND DUP4 PUSH20 0xFFFFFFFFFFFFFFFFFFFFFFFFFFFFFFFFFFFFFFFF AND SUB PUSH2 0xB94 JUMPI PUSH0 PUSH1 0x40 MLOAD PUSH32 0x96C6FD1E00000000000000000000000000000000000000000000000000000000 DUP2 MSTORE PUSH1 0x4 ADD PUSH2 0xB8B SWAP2 SWAP1 PUSH2 0x1B24 JUMP JUMPDEST PUSH1 0x40 MLOAD DUP1 SWAP2 SUB SWAP1 REVERT JUMPDEST PUSH0 PUSH20 0xFFFFFFFFFFFFFFFFFFFFFFFFFFFFFFFFFFFFFFFF AND DUP3 PUSH20 0xFFFFFFFFFFFFFFFFFFFFFFFFFFFFFFFFFFFFFFFF AND SUB PUSH2 0xC04 JUMPI PUSH0 PUSH1 0x40 MLOAD PUSH32 0xEC442F0500000000000000000000000000000000000000000000000000000000 DUP2 MSTORE PUSH1 0x4 ADD PUSH2 0xBFB SWAP2 SWAP1 PUSH2 0x1B24 JUMP JUMPDEST PUSH1 0x40 MLOAD DUP1 SWAP2 SUB SWAP1 REVERT JUMPDEST PUSH2 0xC0F DUP4 DUP4 DUP4 PUSH2 0x10F6 JUMP JUMPDEST POP POP POP JUMP JUMPDEST PUSH0 PUSH0 PUSH2 0xC1E PUSH2 0x1106 JUMP JUMPDEST SWAP1 POP DUP1 SWAP2 POP POP SWAP1 JUMP JUMPDEST PUSH2 0xC2F PUSH2 0x112F JUMP JUMPDEST PUSH2 0xC39 DUP3 DUP3 PUSH2 0x116F JUMP JUMPDEST POP POP JUMP JUMPDEST PUSH2 0xC45 PUSH2 0x112F JUMP JUMPDEST PUSH2 0xC4E DUP2 PUSH2 0x11AB JUMP JUMPDEST POP JUMP JUMPDEST PUSH2 0xC59 PUSH2 0x112F JUMP JUMPDEST PUSH2 0xC62 DUP2 PUSH2 0x120E JUMP JUMPDEST POP JUMP JUMPDEST PUSH2 0xC6D PUSH2 0x112F JUMP JUMPDEST PUSH2 0xC75 PUSH2 0x1292 JUMP JUMPDEST JUMP JUMPDEST PUSH0 PUSH20 0xFFFFFFFFFFFFFFFFFFFFFFFFFFFFFFFFFFFFFFFF AND DUP3 PUSH20 0xFFFFFFFFFFFFFFFFFFFFFFFFFFFFFFFFFFFFFFFF AND SUB PUSH2 0xCE7 JUMPI PUSH0 PUSH1 0x40 MLOAD PUSH32 0xEC442F0500000000000000000000000000000000000000000000000000000000 DUP2 MSTORE PUSH1 0x4 ADD PUSH2 0xCDE SWAP2 SWAP1 PUSH2 0x1B24 JUMP JUMPDEST PUSH1 0x40 MLOAD DUP1 SWAP2 SUB SWAP1 REVERT JUMPDEST PUSH2 0xCF2 PUSH0 DUP4 DUP4 PUSH2 0x10F6 JUMP JUMPDEST POP POP JUMP JUMPDEST PUSH0 PUSH32 0xF070392F17D5F958CC1AC31867DABECFC5C9758B4A419A200803226D7155D00 SWAP1 POP SWAP1 JUMP JUMPDEST PUSH2 0xD25 PUSH2 0xA78 JUMP JUMPDEST PUSH20 0xFFFFFFFFFFFFFFFFFFFFFFFFFFFFFFFFFFFFFFFF AND PUSH2 0xD43 PUSH2 0x7DE JUMP JUMPDEST PUSH20 0xFFFFFFFFFFFFFFFFFFFFFFFFFFFFFFFFFFFFFFFF AND EQ PUSH2 0xDA2 JUMPI PUSH2 0xD66 PUSH2 0xA78 JUMP JUMPDEST PUSH1 0x40 MLOAD PUSH32 0x118CDAA700000000000000000000000000000000000000000000000000000000 DUP2 MSTORE PUSH1 0x4 ADD PUSH2 0xD99 SWAP2 SWAP1 PUSH2 0x1B24 JUMP JUMPDEST PUSH1 0x40 MLOAD DUP1 SWAP2 SUB SWAP1 REVERT JUMPDEST JUMP JUMPDEST PUSH0 PUSH2 0xDAD PUSH2 0x12B1 JUMP JUMPDEST SWAP1 POP PUSH1 0x2 DUP2 PUSH0 ADD SLOAD SUB PUSH2 0xDEC JUMPI PUSH1 0x40 MLOAD PUSH32 0x3EE5AEB500000000000000000000000000000000000000000000000000000000 DUP2 MSTORE PUSH1 0x4 ADD PUSH1 0x40 MLOAD DUP1 SWAP2 SUB SWAP1 REVERT JUMPDEST PUSH1 0x2 DUP2 PUSH0 ADD DUP2 SWAP1 SSTORE POP POP JUMP JUMPDEST PUSH0 PUSH2 0xE01 PUSH2 0x12B1 JUMP JUMPDEST SWAP1 POP PUSH1 0x1 DUP2 PUSH0 ADD DUP2 SWAP1 SSTORE POP POP JUMP JUMPDEST PUSH0 PUSH20 0xFFFFFFFFFFFFFFFFFFFFFFFFFFFFFFFFFFFFFFFF AND DUP3 PUSH20 0xFFFFFFFFFFFFFFFFFFFFFFFFFFFFFFFFFFFFFFFF AND SUB PUSH2 0xE7F JUMPI PUSH0 PUSH1 0x40 MLOAD PUSH32 0x96C6FD1E00000000000000000000000000000000000000000000000000000000 DUP2 MSTORE PUSH1 0x4 ADD PUSH2 0xE76 SWAP2 SWAP1 PUSH2 0x1B24 JUMP JUMPDEST PUSH1 0x40 MLOAD DUP1 SWAP2 SUB SWAP1 REVERT JUMPDEST PUSH2 0xE8A DUP3 PUSH0 DUP4 PUSH2 0x10F6 JUMP JUMPDEST POP POP JUMP JUMPDEST PUSH0 PUSH2 0xE97 PUSH2 0xEF2 JUMP JUMPDEST SWAP1 POP DUP1 PUSH0 ADD PUSH0 PUSH2 0x100 EXP DUP2 SLOAD SWAP1 PUSH20 0xFFFFFFFFFFFFFFFFFFFFFFFFFFFFFFFFFFFFFFFF MUL NOT AND SWAP1 SSTORE PUSH2 0xEC7 DUP3 PUSH2 0x12D8 JUMP JUMPDEST POP POP JUMP JUMPDEST PUSH0 PUSH32 0x9016D09D72D40FDAE2FD8CEAC6B6234C7706214FD39C1CD1E609A0528C199300 SWAP1 POP SWAP1 JUMP JUMPDEST PUSH0 PUSH32 0x237E158222E3E6968B72B9DB0D8043AACF074AD9F650F0D1606B4D82EE432C00 SWAP1 POP SWAP1 JUMP JUMPDEST PUSH0 PUSH2 0xF22 PUSH2 0xA51 JUMP JUMPDEST SWAP1 POP PUSH0 PUSH20 0xFFFFFFFFFFFFFFFFFFFFFFFFFFFFFFFFFFFFFFFF AND DUP6 PUSH20 0xFFFFFFFFFFFFFFFFFFFFFFFFFFFFFFFFFFFFFFFF AND SUB PUSH2 0xF94 JUMPI PUSH0 PUSH1 0x40 MLOAD PUSH32 0xE602DF0500000000000000000000000000000000000000000000000000000000 DUP2 MSTORE PUSH1 0x4 ADD PUSH2 0xF8B SWAP2 SWAP1 PUSH2 0x1B24 JUMP JUMPDEST PUSH1 0x40 MLOAD DUP1 SWAP2 SUB SWAP1 REVERT JUMPDEST PUSH0 PUSH20 0xFFFFFFFFFFFFFFFFFFFFFFFFFFFFFFFFFFFFFFFF AND DUP5 PUSH20 0xFFFFFFFFFFFFFFFFFFFFFFFFFFFFFFFFFFFFFFFF AND SUB PUSH2 0x1004 JUMPI PUSH0 PUSH1 0x40 MLOAD PUSH32 0x94280D6200000000000000000000000000000000000000000000000000000000 DUP2 MSTORE PUSH1 0x4 ADD PUSH2 0xFFB SWAP2 SWAP1 PUSH2 0x1B24 JUMP JUMPDEST PUSH1 0x40 MLOAD DUP1 SWAP2 SUB SWAP1 REVERT JUMPDEST DUP3 DUP2 PUSH1 0x1 ADD PUSH0 DUP8 PUSH20 0xFFFFFFFFFFFFFFFFFFFFFFFFFFFFFFFFFFFFFFFF AND PUSH20 0xFFFFFFFFFFFFFFFFFFFFFFFFFFFFFFFFFFFFFFFF AND DUP2 MSTORE PUSH1 0x20 ADD SWAP1 DUP2 MSTORE PUSH1 0x20 ADD PUSH0 KECCAK256 PUSH0 DUP7 PUSH20 0xFFFFFFFFFFFFFFFFFFFFFFFFFFFFFFFFFFFFFFFF AND PUSH20 0xFFFFFFFFFFFFFFFFFFFFFFFFFFFFFFFFFFFFFFFF AND DUP2 MSTORE PUSH1 0x20 ADD SWAP1 DUP2 MSTORE PUSH1 0x20 ADD PUSH0 KECCAK256 DUP2 SWAP1 SSTORE POP DUP2 ISZERO PUSH2 0x10EF JUMPI DUP4 PUSH20 0xFFFFFFFFFFFFFFFFFFFFFFFFFFFFFFFFFFFFFFFF AND DUP6 PUSH20 0xFFFFFFFFFFFFFFFFFFFFFFFFFFFFFFFFFFFFFFFF AND PUSH32 0x8C5BE1E5EBEC7D5BD14F71427D1E84F3DD0314C0F7B2291E5B200AC8C7C3B925 DUP6 PUSH1 0x40 MLOAD PUSH2 0x10E6 SWAP2 SWAP1 PUSH2 0x1847 JUMP JUMPDEST PUSH1 0x40 MLOAD DUP1 SWAP2 SUB SWAP1 LOG3 JUMPDEST POP POP POP POP POP JUMP JUMPDEST PUSH2 0x1101 DUP4 DUP4 DUP4 PUSH2 0x13A9 JUMP JUMPDEST POP POP POP JUMP JUMPDEST PUSH0 PUSH32 0xF0C57E16840DF040F15088DC2F81FE391C3923BEC73E23A9662EFC9C229C6A00 PUSH0 SHL SWAP1 POP SWAP1 JUMP JUMPDEST PUSH2 0x1137 PUSH2 0x144C JUMP JUMPDEST PUSH2 0x116D JUMPI PUSH1 0x40 MLOAD PUSH32 0xD7E6BCF800000000000000000000000000000000000000000000000000000000 DUP2 MSTORE PUSH1 0x4 ADD PUSH1 0x40 MLOAD DUP1 SWAP2 SUB SWAP1 REVERT JUMPDEST JUMP JUMPDEST PUSH2 0x1177 PUSH2 0x112F JUMP JUMPDEST PUSH0 PUSH2 0x1180 PUSH2 0xA51 JUMP JUMPDEST SWAP1 POP DUP3 DUP2 PUSH1 0x3 ADD SWAP1 DUP2 PUSH2 0x1193 SWAP2 SWAP1 PUSH2 0x1FF9 JUMP JUMPDEST POP DUP2 DUP2 PUSH1 0x4 ADD SWAP1 DUP2 PUSH2 0x11A5 SWAP2 SWAP1 PUSH2 0x1FF9 JUMP JUMPDEST POP POP POP POP JUMP JUMPDEST PUSH2 0x11B3 PUSH2 0x112F JUMP JUMPDEST PUSH0 PUSH2 0x11BC PUSH2 0xCF6 JUMP JUMPDEST SWAP1 POP PUSH0 DUP3 SUB PUSH2 0x1202 JUMPI PUSH0 PUSH1 0x40 MLOAD PUSH32 0x392E1E2700000000000000000000000000000000000000000000000000000000 DUP2 MSTORE PUSH1 0x4 ADD PUSH2 0x11F9 SWAP2 SWAP1 PUSH2 0x2101 JUMP JUMPDEST PUSH1 0x40 MLOAD DUP1 SWAP2 SUB SWAP1 REVERT JUMPDEST DUP2 DUP2 PUSH0 ADD DUP2 SWAP1 SSTORE POP POP POP JUMP JUMPDEST PUSH2 0x1216 PUSH2 0x112F JUMP JUMPDEST PUSH0 PUSH20 0xFFFFFFFFFFFFFFFFFFFFFFFFFFFFFFFFFFFFFFFF AND DUP2 PUSH20 0xFFFFFFFFFFFFFFFFFFFFFFFFFFFFFFFFFFFFFFFF AND SUB PUSH2 0x1286 JUMPI PUSH0 PUSH1 0x40 MLOAD PUSH32 0x1E4FBDF700000000000000000000000000000000000000000000000000000000 DUP2 MSTORE PUSH1 0x4 ADD PUSH2 0x127D SWAP2 SWAP1 PUSH2 0x1B24 JUMP JUMPDEST PUSH1 0x40 MLOAD DUP1 SWAP2 SUB SWAP1 REVERT JUMPDEST PUSH2 0x128F DUP2 PUSH2 0xE8E JUMP JUMPDEST POP JUMP JUMPDEST PUSH2 0x129A PUSH2 0x112F JUMP JUMPDEST PUSH0 PUSH2 0x12A3 PUSH2 0x12B1 JUMP JUMPDEST SWAP1 POP PUSH1 0x1 DUP2 PUSH0 ADD DUP2 SWAP1 SSTORE POP POP JUMP JUMPDEST PUSH0 PUSH32 0x9B779B17422D0DF92223018B32B4D1FA46E071723D6817E2486D003BECC55F00 SWAP1 POP SWAP1 JUMP JUMPDEST PUSH0 PUSH2 0x12E1 PUSH2 0xECB JUMP JUMPDEST SWAP1 POP PUSH0 DUP2 PUSH0 ADD PUSH0 SWAP1 SLOAD SWAP1 PUSH2 0x100 EXP SWAP1 DIV PUSH20 0xFFFFFFFFFFFFFFFFFFFFFFFFFFFFFFFFFFFFFFFF AND SWAP1 POP DUP3 DUP3 PUSH0 ADD PUSH0 PUSH2 0x100 EXP DUP2 SLOAD DUP2 PUSH20 0xFFFFFFFFFFFFFFFFFFFFFFFFFFFFFFFFFFFFFFFF MUL NOT AND SWAP1 DUP4 PUSH20 0xFFFFFFFFFFFFFFFFFFFFFFFFFFFFFFFFFFFFFFFF AND MUL OR SWAP1 SSTORE POP DUP3 PUSH20 0xFFFFFFFFFFFFFFFFFFFFFFFFFFFFFFFFFFFFFFFF AND DUP2 PUSH20 0xFFFFFFFFFFFFFFFFFFFFFFFFFFFFFFFFFFFFFFFF AND PUSH32 0x8BE0079C531659141344CD1FD0A4F28419497F9722A3DAAFE3B4186F6B6457E0 PUSH1 0x40 MLOAD PUSH1 0x40 MLOAD DUP1 SWAP2 SUB SWAP1 LOG3 POP POP POP JUMP JUMPDEST PUSH2 0x13B4 DUP4 DUP4 DUP4 PUSH2 0x146A JUMP JUMPDEST PUSH0 PUSH20 0xFFFFFFFFFFFFFFFFFFFFFFFFFFFFFFFFFFFFFFFF AND DUP4 PUSH20 0xFFFFFFFFFFFFFFFFFFFFFFFFFFFFFFFFFFFFFFFF AND SUB PUSH2 0x1447 JUMPI PUSH0 PUSH2 0x13F0 PUSH2 0x67A JUMP JUMPDEST SWAP1 POP PUSH0 PUSH2 0x13FB PUSH2 0x447 JUMP JUMPDEST SWAP1 POP DUP2 DUP2 GT ISZERO PUSH2 0x1444 JUMPI DUP1 DUP3 PUSH1 0x40 MLOAD PUSH32 0x9E79F85400000000000000000000000000000000000000000000000000000000 DUP2 MSTORE PUSH1 0x4 ADD PUSH2 0x143B SWAP3 SWAP2 SWAP1 PUSH2 0x211A JUMP JUMPDEST PUSH1 0x40 MLOAD DUP1 SWAP2 SUB SWAP1 REVERT JUMPDEST POP POP JUMPDEST POP POP POP JUMP JUMPDEST PUSH0 PUSH2 0x1455 PUSH2 0xC14 JUMP JUMPDEST PUSH0 ADD PUSH1 0x8 SWAP1 SLOAD SWAP1 PUSH2 0x100 EXP SWAP1 DIV PUSH1 0xFF AND SWAP1 POP SWAP1 JUMP JUMPDEST PUSH0 PUSH2 0x1473 PUSH2 0xA51 JUMP JUMPDEST SWAP1 POP PUSH0 PUSH20 0xFFFFFFFFFFFFFFFFFFFFFFFFFFFFFFFFFFFFFFFF AND DUP5 PUSH20 0xFFFFFFFFFFFFFFFFFFFFFFFFFFFFFFFFFFFFFFFF AND SUB PUSH2 0x14C7 JUMPI DUP2 DUP2 PUSH1 0x2 ADD PUSH0 DUP3 DUP3 SLOAD PUSH2 0x14BB SWAP2 SWAP1 PUSH2 0x2141 JUMP JUMPDEST SWAP3 POP POP DUP2 SWAP1 SSTORE POP PUSH2 0x1599 JUMP JUMPDEST PUSH0 DUP2 PUSH0 ADD PUSH0 DUP7 PUSH20 0xFFFFFFFFFFFFFFFFFFFFFFFFFFFFFFFFFFFFFFFF AND PUSH20 0xFFFFFFFFFFFFFFFFFFFFFFFFFFFFFFFFFFFFFFFF AND DUP2 MSTORE PUSH1 0x20 ADD SWAP1 DUP2 MSTORE PUSH1 0x20 ADD PUSH0 KECCAK256 SLOAD SWAP1 POP DUP3 DUP2 LT ISZERO PUSH2 0x1552 JUMPI DUP5 DUP2 DUP5 PUSH1 0x40 MLOAD PUSH32 0xE450D38C00000000000000000000000000000000000000000000000000000000 DUP2 MSTORE PUSH1 0x4 ADD PUSH2 0x1549 SWAP4 SWAP3 SWAP2 SWAP1 PUSH2 0x1E2D JUMP JUMPDEST PUSH1 0x40 MLOAD DUP1 SWAP2 SUB SWAP1 REVERT JUMPDEST DUP3 DUP2 SUB DUP3 PUSH0 ADD PUSH0 DUP8 PUSH20 0xFFFFFFFFFFFFFFFFFFFFFFFFFFFFFFFFFFFFFFFF AND PUSH20 0xFFFFFFFFFFFFFFFFFFFFFFFFFFFFFFFFFFFFFFFF AND DUP2 MSTORE PUSH1 0x20 ADD SWAP1 DUP2 MSTORE PUSH1 0x20 ADD PUSH0 KECCAK256 DUP2 SWAP1 SSTORE POP POP JUMPDEST PUSH0 PUSH20 0xFFFFFFFFFFFFFFFFFFFFFFFFFFFFFFFFFFFFFFFF AND DUP4 PUSH20 0xFFFFFFFFFFFFFFFFFFFFFFFFFFFFFFFFFFFFFFFF AND SUB PUSH2 0x15E2 JUMPI DUP2 DUP2 PUSH1 0x2 ADD PUSH0 DUP3 DUP3 SLOAD SUB SWAP3 POP POP DUP2 SWAP1 SSTORE POP PUSH2 0x162E JUMP JUMPDEST DUP2 DUP2 PUSH0 ADD PUSH0 DUP6 PUSH20 0xFFFFFFFFFFFFFFFFFFFFFFFFFFFFFFFFFFFFFFFF AND PUSH20 0xFFFFFFFFFFFFFFFFFFFFFFFFFFFFFFFFFFFFFFFF AND DUP2 MSTORE PUSH1 0x20 ADD SWAP1 DUP2 MSTORE PUSH1 0x20 ADD PUSH0 KECCAK256 PUSH0 DUP3 DUP3 SLOAD ADD SWAP3 POP POP DUP2 SWAP1 SSTORE POP JUMPDEST DUP3 PUSH20 0xFFFFFFFFFFFFFFFFFFFFFFFFFFFFFFFFFFFFFFFF AND DUP5 PUSH20 0xFFFFFFFFFFFFFFFFFFFFFFFFFFFFFFFFFFFFFFFF AND PUSH32 0xDDF252AD1BE2C89B69C2B068FC378DAA952BA7F163C4A11628F55A4DF523B3EF DUP5 PUSH1 0x40 MLOAD PUSH2 0x168B SWAP2 SWAP1 PUSH2 0x1847 JUMP JUMPDEST PUSH1 0x40 MLOAD DUP1 SWAP2 SUB SWAP1 LOG3 POP POP POP POP JUMP JUMPDEST PUSH0 DUP2 MLOAD SWAP1 POP SWAP2 SWAP1 POP JUMP JUMPDEST PUSH0 DUP3 DUP3 MSTORE PUSH1 0x20 DUP3 ADD SWAP1 POP SWAP3 SWAP2 POP POP JUMP JUMPDEST DUP3 DUP2 DUP4 MCOPY PUSH0 DUP4 DUP4 ADD MSTORE POP POP POP JUMP JUMPDEST PUSH0 PUSH1 0x1F NOT PUSH1 0x1F DUP4 ADD AND SWAP1 POP SWAP2 SWAP1 POP JUMP JUMPDEST PUSH0 PUSH2 0x16DB DUP3 PUSH2 0x1699 JUMP JUMPDEST PUSH2 0x16E5 DUP2 DUP6 PUSH2 0x16A3 JUMP JUMPDEST SWAP4 POP PUSH2 0x16F5 DUP2 DUP6 PUSH1 0x20 DUP7 ADD PUSH2 0x16B3 JUMP JUMPDEST PUSH2 0x16FE DUP2 PUSH2 0x16C1 JUMP JUMPDEST DUP5 ADD SWAP2 POP POP SWAP3 SWAP2 POP POP JUMP JUMPDEST PUSH0 PUSH1 0x20 DUP3 ADD SWAP1 POP DUP2 DUP2 SUB PUSH0 DUP4 ADD MSTORE PUSH2 0x1721 DUP2 DUP5 PUSH2 0x16D1 JUMP JUMPDEST SWAP1 POP SWAP3 SWAP2 POP POP JUMP JUMPDEST PUSH0 PUSH1 0x40 MLOAD SWAP1 POP SWAP1 JUMP JUMPDEST PUSH0 PUSH0 REVERT JUMPDEST PUSH0 PUSH0 REVERT JUMPDEST PUSH0 PUSH20 0xFFFFFFFFFFFFFFFFFFFFFFFFFFFFFFFFFFFFFFFF DUP3 AND SWAP1 POP SWAP2 SWAP1 POP JUMP JUMPDEST PUSH0 PUSH2 0x1763 DUP3 PUSH2 0x173A JUMP JUMPDEST SWAP1 POP SWAP2 SWAP1 POP JUMP JUMPDEST PUSH2 0x1773 DUP2 PUSH2 0x1759 JUMP JUMPDEST DUP2 EQ PUSH2 0x177D JUMPI PUSH0 PUSH0 REVERT JUMPDEST POP JUMP JUMPDEST PUSH0 DUP2 CALLDATALOAD SWAP1 POP PUSH2 0x178E DUP2 PUSH2 0x176A JUMP JUMPDEST SWAP3 SWAP2 POP POP JUMP JUMPDEST PUSH0 DUP2 SWAP1 POP SWAP2 SWAP1 POP JUMP JUMPDEST PUSH2 0x17A6 DUP2 PUSH2 0x1794 JUMP JUMPDEST DUP2 EQ PUSH2 0x17B0 JUMPI PUSH0 PUSH0 REVERT JUMPDEST POP JUMP JUMPDEST PUSH0 DUP2 CALLDATALOAD SWAP1 POP PUSH2 0x17C1 DUP2 PUSH2 0x179D JUMP JUMPDEST SWAP3 SWAP2 POP POP JUMP JUMPDEST PUSH0 PUSH0 PUSH1 0x40 DUP4 DUP6 SUB SLT ISZERO PUSH2 0x17DD JUMPI PUSH2 0x17DC PUSH2 0x1732 JUMP JUMPDEST JUMPDEST PUSH0 PUSH2 0x17EA DUP6 DUP3 DUP7 ADD PUSH2 0x1780 JUMP JUMPDEST SWAP3 POP POP PUSH1 0x20 PUSH2 0x17FB DUP6 DUP3 DUP7 ADD PUSH2 0x17B3 JUMP JUMPDEST SWAP2 POP POP SWAP3 POP SWAP3 SWAP1 POP JUMP JUMPDEST PUSH0 DUP2 ISZERO ISZERO SWAP1 POP SWAP2 SWAP1 POP JUMP JUMPDEST PUSH2 0x1819 DUP2 PUSH2 0x1805 JUMP JUMPDEST DUP3 MSTORE POP POP JUMP JUMPDEST PUSH0 PUSH1 0x20 DUP3 ADD SWAP1 POP PUSH2 0x1832 PUSH0 DUP4 ADD DUP5 PUSH2 0x1810 JUMP JUMPDEST SWAP3 SWAP2 POP POP JUMP JUMPDEST PUSH2 0x1841 DUP2 PUSH2 0x1794 JUMP JUMPDEST DUP3 MSTORE POP POP JUMP JUMPDEST PUSH0 PUSH1 0x20 DUP3 ADD SWAP1 POP PUSH2 0x185A PUSH0 DUP4 ADD DUP5 PUSH2 0x1838 JUMP JUMPDEST SWAP3 SWAP2 POP POP JUMP JUMPDEST PUSH0 PUSH0 PUSH0 PUSH1 0x60 DUP5 DUP7 SUB SLT ISZERO PUSH2 0x1877 JUMPI PUSH2 0x1876 PUSH2 0x1732 JUMP JUMPDEST JUMPDEST PUSH0 PUSH2 0x1884 DUP7 DUP3 DUP8 ADD PUSH2 0x1780 JUMP JUMPDEST SWAP4 POP POP PUSH1 0x20 PUSH2 0x1895 DUP7 DUP3 DUP8 ADD PUSH2 0x1780 JUMP JUMPDEST SWAP3 POP POP PUSH1 0x40 PUSH2 0x18A6 DUP7 DUP3 DUP8 ADD PUSH2 0x17B3 JUMP JUMPDEST SWAP2 POP POP SWAP3 POP SWAP3 POP SWAP3 JUMP JUMPDEST PUSH0 PUSH1 0xFF DUP3 AND SWAP1 POP SWAP2 SWAP1 POP JUMP JUMPDEST PUSH2 0x18C5 DUP2 PUSH2 0x18B0 JUMP JUMPDEST DUP3 MSTORE POP POP JUMP JUMPDEST PUSH0 PUSH1 0x20 DUP3 ADD SWAP1 POP PUSH2 0x18DE PUSH0 DUP4 ADD DUP5 PUSH2 0x18BC JUMP JUMPDEST SWAP3 SWAP2 POP POP JUMP JUMPDEST PUSH0 PUSH0 REVERT JUMPDEST PUSH0 PUSH0 REVERT JUMPDEST PUSH32 0x4E487B7100000000000000000000000000000000000000000000000000000000 PUSH0 MSTORE PUSH1 0x41 PUSH1 0x4 MSTORE PUSH1 0x24 PUSH0 REVERT JUMPDEST PUSH2 0x1922 DUP3 PUSH2 0x16C1 JUMP JUMPDEST DUP2 ADD DUP2 DUP2 LT PUSH8 0xFFFFFFFFFFFFFFFF DUP3 GT OR ISZERO PUSH2 0x1941 JUMPI PUSH2 0x1940 PUSH2 0x18EC JUMP JUMPDEST JUMPDEST DUP1 PUSH1 0x40 MSTORE POP POP POP JUMP JUMPDEST PUSH0 PUSH2 0x1953 PUSH2 0x1729 JUMP JUMPDEST SWAP1 POP PUSH2 0x195F DUP3 DUP3 PUSH2 0x1919 JUMP JUMPDEST SWAP2 SWAP1 POP JUMP JUMPDEST PUSH0 PUSH8 0xFFFFFFFFFFFFFFFF DUP3 GT ISZERO PUSH2 0x197E JUMPI PUSH2 0x197D PUSH2 0x18EC JUMP JUMPDEST JUMPDEST PUSH2 0x1987 DUP3 PUSH2 0x16C1 JUMP JUMPDEST SWAP1 POP PUSH1 0x20 DUP2 ADD SWAP1 POP SWAP2 SWAP1 POP JUMP JUMPDEST DUP3 DUP2 DUP4 CALLDATACOPY PUSH0 DUP4 DUP4 ADD MSTORE POP POP POP JUMP JUMPDEST PUSH0 PUSH2 0x19B4 PUSH2 0x19AF DUP5 PUSH2 0x1964 JUMP JUMPDEST PUSH2 0x194A JUMP JUMPDEST SWAP1 POP DUP3 DUP2 MSTORE PUSH1 0x20 DUP2 ADD DUP5 DUP5 DUP5 ADD GT ISZERO PUSH2 0x19D0 JUMPI PUSH2 0x19CF PUSH2 0x18E8 JUMP JUMPDEST JUMPDEST PUSH2 0x19DB DUP5 DUP3 DUP6 PUSH2 0x1994 JUMP JUMPDEST POP SWAP4 SWAP3 POP POP POP JUMP JUMPDEST PUSH0 DUP3 PUSH1 0x1F DUP4 ADD SLT PUSH2 0x19F7 JUMPI PUSH2 0x19F6 PUSH2 0x18E4 JUMP JUMPDEST JUMPDEST DUP2 CALLDATALOAD PUSH2 0x1A07 DUP5 DUP3 PUSH1 0x20 DUP7 ADD PUSH2 0x19A2 JUMP JUMPDEST SWAP2 POP POP SWAP3 SWAP2 POP POP JUMP JUMPDEST PUSH0 PUSH0 PUSH0 PUSH0 PUSH0 PUSH1 0xA0 DUP7 DUP9 SUB SLT ISZERO PUSH2 0x1A29 JUMPI PUSH2 0x1A28 PUSH2 0x1732 JUMP JUMPDEST JUMPDEST PUSH0 DUP7 ADD CALLDATALOAD PUSH8 0xFFFFFFFFFFFFFFFF DUP2 GT ISZERO PUSH2 0x1A46 JUMPI PUSH2 0x1A45 PUSH2 0x1736 JUMP JUMPDEST JUMPDEST PUSH2 0x1A52 DUP9 DUP3 DUP10 ADD PUSH2 0x19E3 JUMP JUMPDEST SWAP6 POP POP PUSH1 0x20 DUP7 ADD CALLDATALOAD PUSH8 0xFFFFFFFFFFFFFFFF DUP2 GT ISZERO PUSH2 0x1A73 JUMPI PUSH2 0x1A72 PUSH2 0x1736 JUMP JUMPDEST JUMPDEST PUSH2 0x1A7F DUP9 DUP3 DUP10 ADD PUSH2 0x19E3 JUMP JUMPDEST SWAP5 POP POP PUSH1 0x40 PUSH2 0x1A90 DUP9 DUP3 DUP10 ADD PUSH2 0x17B3 JUMP JUMPDEST SWAP4 POP POP PUSH1 0x60 PUSH2 0x1AA1 DUP9 DUP3 DUP10 ADD PUSH2 0x17B3 JUMP JUMPDEST SWAP3 POP POP PUSH1 0x80 PUSH2 0x1AB2 DUP9 DUP3 DUP10 ADD PUSH2 0x1780 JUMP JUMPDEST SWAP2 POP POP SWAP3 SWAP6 POP SWAP3 SWAP6 SWAP1 SWAP4 POP JUMP JUMPDEST PUSH0 PUSH1 0x20 DUP3 DUP5 SUB SLT ISZERO PUSH2 0x1AD4 JUMPI PUSH2 0x1AD3 PUSH2 0x1732 JUMP JUMPDEST JUMPDEST PUSH0 PUSH2 0x1AE1 DUP5 DUP3 DUP6 ADD PUSH2 0x17B3 JUMP JUMPDEST SWAP2 POP POP SWAP3 SWAP2 POP POP JUMP JUMPDEST PUSH0 PUSH1 0x20 DUP3 DUP5 SUB SLT ISZERO PUSH2 0x1AFF JUMPI PUSH2 0x1AFE PUSH2 0x1732 JUMP JUMPDEST JUMPDEST PUSH0 PUSH2 0x1B0C DUP5 DUP3 DUP6 ADD PUSH2 0x1780 JUMP JUMPDEST SWAP2 POP POP SWAP3 SWAP2 POP POP JUMP JUMPDEST PUSH2 0x1B1E DUP2 PUSH2 0x1759 JUMP JUMPDEST DUP3 MSTORE POP POP JUMP JUMPDEST PUSH0 PUSH1 0x20 DUP3 ADD SWAP1 POP PUSH2 0x1B37 PUSH0 DUP4 ADD DUP5 PUSH2 0x1B15 JUMP JUMPDEST SWAP3 SWAP2 POP POP JUMP JUMPDEST PUSH0 PUSH0 PUSH1 0x40 DUP4 DUP6 SUB SLT ISZERO PUSH2 0x1B53 JUMPI PUSH2 0x1B52 PUSH2 0x1732 JUMP JUMPDEST JUMPDEST PUSH0 PUSH2 0x1B60 DUP6 DUP3 DUP7 ADD PUSH2 0x1780 JUMP JUMPDEST SWAP3 POP POP PUSH1 0x20 PUSH2 0x1B71 DUP6 DUP3 DUP7 ADD PUSH2 0x1780 JUMP JUMPDEST SWAP2 POP POP SWAP3 POP SWAP3 SWAP1 POP JUMP JUMPDEST PUSH32 0x4E487B7100000000000000000000000000000000000000000000000000000000 PUSH0 MSTORE PUSH1 0x22 PUSH1 0x4 MSTORE PUSH1 0x24 PUSH0 REVERT JUMPDEST PUSH0 PUSH1 0x2 DUP3 DIV SWAP1 POP PUSH1 0x1 DUP3 AND DUP1 PUSH2 0x1BBF JUMPI PUSH1 0x7F DUP3 AND SWAP2 POP JUMPDEST PUSH1 0x20 DUP3 LT DUP2 SUB PUSH2 0x1BD2 JUMPI PUSH2 0x1BD1 PUSH2 0x1B7B JUMP JUMPDEST JUMPDEST POP SWAP2 SWAP1 POP JUMP JUMPDEST PUSH32 0x4E487B7100000000000000000000000000000000000000000000000000000000 PUSH0 MSTORE PUSH1 0x11 PUSH1 0x4 MSTORE PUSH1 0x24 PUSH0 REVERT JUMPDEST PUSH0 DUP2 PUSH1 0x1 SHR SWAP1 POP SWAP2 SWAP1 POP JUMP JUMPDEST PUSH0 PUSH0 DUP3 SWAP2 POP DUP4 SWAP1 POP JUMPDEST PUSH1 0x1 DUP6 GT ISZERO PUSH2 0x1C5A JUMPI DUP1 DUP7 DIV DUP2 GT ISZERO PUSH2 0x1C36 JUMPI PUSH2 0x1C35 PUSH2 0x1BD8 JUMP JUMPDEST JUMPDEST PUSH1 0x1 DUP6 AND ISZERO PUSH2 0x1C45 JUMPI DUP1 DUP3 MUL SWAP2 POP JUMPDEST DUP1 DUP2 MUL SWAP1 POP PUSH2 0x1C53 DUP6 PUSH2 0x1C05 JUMP JUMPDEST SWAP5 POP PUSH2 0x1C1A JUMP JUMPDEST SWAP5 POP SWAP5 SWAP3 POP POP POP JUMP JUMPDEST PUSH0 DUP3 PUSH2 0x1C72 JUMPI PUSH1 0x1 SWAP1 POP PUSH2 0x1D2D JUMP JUMPDEST DUP2 PUSH2 0x1C7F JUMPI PUSH0 SWAP1 POP PUSH2 0x1D2D JUMP JUMPDEST DUP2 PUSH1 0x1 DUP2 EQ PUSH2 0x1C95 JUMPI PUSH1 0x2 DUP2 EQ PUSH2 0x1C9F JUMPI PUSH2 0x1CCE JUMP JUMPDEST PUSH1 0x1 SWAP2 POP POP PUSH2 0x1D2D JUMP JUMPDEST PUSH1 0xFF DUP5 GT ISZERO PUSH2 0x1CB1 JUMPI PUSH2 0x1CB0 PUSH2 0x1BD8 JUMP JUMPDEST JUMPDEST DUP4 PUSH1 0x2 EXP SWAP2 POP DUP5 DUP3 GT ISZERO PUSH2 0x1CC8 JUMPI PUSH2 0x1CC7 PUSH2 0x1BD8 JUMP JUMPDEST JUMPDEST POP PUSH2 0x1D2D JUMP JUMPDEST POP PUSH1 0x20 DUP4 LT PUSH2 0x133 DUP4 LT AND PUSH1 0x4E DUP5 LT PUSH1 0xB DUP5 LT AND OR ISZERO PUSH2 0x1D03 JUMPI DUP3 DUP3 EXP SWAP1 POP DUP4 DUP2 GT ISZERO PUSH2 0x1CFE JUMPI PUSH2 0x1CFD PUSH2 0x1BD8 JUMP JUMPDEST JUMPDEST PUSH2 0x1D2D JUMP JUMPDEST PUSH2 0x1D10 DUP5 DUP5 DUP5 PUSH1 0x1 PUSH2 0x1C11 JUMP JUMPDEST SWAP3 POP SWAP1 POP DUP2 DUP5 DIV DUP2 GT ISZERO PUSH2 0x1D27 JUMPI PUSH2 0x1D26 PUSH2 0x1BD8 JUMP JUMPDEST JUMPDEST DUP2 DUP2 MUL SWAP1 POP JUMPDEST SWAP4 SWAP3 POP POP POP JUMP JUMPDEST PUSH0 PUSH2 0x1D3E DUP3 PUSH2 0x1794 JUMP JUMPDEST SWAP2 POP PUSH2 0x1D49 DUP4 PUSH2 0x18B0 JUMP JUMPDEST SWAP3 POP PUSH2 0x1D76 PUSH32 0xFFFFFFFFFFFFFFFFFFFFFFFFFFFFFFFFFFFFFFFFFFFFFFFFFFFFFFFFFFFFFFFF DUP5 DUP5 PUSH2 0x1C63 JUMP JUMPDEST SWAP1 POP SWAP3 SWAP2 POP POP JUMP JUMPDEST PUSH0 PUSH2 0x1D88 DUP3 PUSH2 0x1794 JUMP JUMPDEST SWAP2 POP PUSH2 0x1D93 DUP4 PUSH2 0x1794 JUMP JUMPDEST SWAP3 POP DUP3 DUP3 MUL PUSH2 0x1DA1 DUP2 PUSH2 0x1794 JUMP JUMPDEST SWAP2 POP DUP3 DUP3 DIV DUP5 EQ DUP4 ISZERO OR PUSH2 0x1DB8 JUMPI PUSH2 0x1DB7 PUSH2 0x1BD8 JUMP JUMPDEST JUMPDEST POP SWAP3 SWAP2 POP POP JUMP JUMPDEST PUSH0 DUP2 SWAP1 POP SWAP2 SWAP1 POP JUMP JUMPDEST PUSH0 PUSH8 0xFFFFFFFFFFFFFFFF DUP3 AND SWAP1 POP SWAP2 SWAP1 POP JUMP JUMPDEST PUSH0 DUP2 SWAP1 POP SWAP2 SWAP1 POP JUMP JUMPDEST PUSH0 PUSH2 0x1DFE PUSH2 0x1DF9 PUSH2 0x1DF4 DUP5 PUSH2 0x1DBF JUMP JUMPDEST PUSH2 0x1DDB JUMP JUMPDEST PUSH2 0x1DC8 JUMP JUMPDEST SWAP1 POP SWAP2 SWAP1 POP JUMP JUMPDEST PUSH2 0x1E0E DUP2 PUSH2 0x1DE4 JUMP JUMPDEST DUP3 MSTORE POP POP JUMP JUMPDEST PUSH0 PUSH1 0x20 DUP3 ADD SWAP1 POP PUSH2 0x1E27 PUSH0 DUP4 ADD DUP5 PUSH2 0x1E05 JUMP JUMPDEST SWAP3 SWAP2 POP POP JUMP JUMPDEST PUSH0 PUSH1 0x60 DUP3 ADD SWAP1 POP PUSH2 0x1E40 PUSH0 DUP4 ADD DUP7 PUSH2 0x1B15 JUMP JUMPDEST PUSH2 0x1E4D PUSH1 0x20 DUP4 ADD DUP6 PUSH2 0x1838 JUMP JUMPDEST PUSH2 0x1E5A PUSH1 0x40 DUP4 ADD DUP5 PUSH2 0x1838 JUMP JUMPDEST SWAP5 SWAP4 POP POP POP POP JUMP JUMPDEST PUSH0 DUP2 SWAP1 POP DUP2 PUSH0 MSTORE PUSH1 0x20 PUSH0 KECCAK256 SWAP1 POP SWAP2 SWAP1 POP JUMP JUMPDEST PUSH0 PUSH1 0x20 PUSH1 0x1F DUP4 ADD DIV SWAP1 POP SWAP2 SWAP1 POP JUMP JUMPDEST PUSH0 DUP3 DUP3 SHL SWAP1 POP SWAP3 SWAP2 POP POP JUMP JUMPDEST PUSH0 PUSH1 0x8 DUP4 MUL PUSH2 0x1EBE PUSH32 0xFFFFFFFFFFFFFFFFFFFFFFFFFFFFFFFFFFFFFFFFFFFFFFFFFFFFFFFFFFFFFFFF DUP3 PUSH2 0x1E83 JUMP JUMPDEST PUSH2 0x1EC8 DUP7 DUP4 PUSH2 0x1E83 JUMP JUMPDEST SWAP6 POP DUP1 NOT DUP5 AND SWAP4 POP DUP1 DUP7 AND DUP5 OR SWAP3 POP POP POP SWAP4 SWAP3 POP POP POP JUMP JUMPDEST PUSH0 PUSH2 0x1EFA PUSH2 0x1EF5 PUSH2 0x1EF0 DUP5 PUSH2 0x1794 JUMP JUMPDEST PUSH2 0x1DDB JUMP JUMPDEST PUSH2 0x1794 JUMP JUMPDEST SWAP1 POP SWAP2 SWAP1 POP JUMP JUMPDEST PUSH0 DUP2 SWAP1 POP SWAP2 SWAP1 POP JUMP JUMPDEST PUSH2 0x1F13 DUP4 PUSH2 0x1EE0 JUMP JUMPDEST PUSH2 0x1F27 PUSH2 0x1F1F DUP3 PUSH2 0x1F01 JUMP JUMPDEST DUP5 DUP5 SLOAD PUSH2 0x1E8F JUMP JUMPDEST DUP3 SSTORE POP POP POP POP JUMP JUMPDEST PUSH0 PUSH0 SWAP1 POP SWAP1 JUMP JUMPDEST PUSH2 0x1F3E PUSH2 0x1F2F JUMP JUMPDEST PUSH2 0x1F49 DUP2 DUP5 DUP5 PUSH2 0x1F0A JUMP JUMPDEST POP POP POP JUMP JUMPDEST JUMPDEST DUP2 DUP2 LT ISZERO PUSH2 0x1F6C JUMPI PUSH2 0x1F61 PUSH0 DUP3 PUSH2 0x1F36 JUMP JUMPDEST PUSH1 0x1 DUP2 ADD SWAP1 POP PUSH2 0x1F4F JUMP JUMPDEST POP POP JUMP JUMPDEST PUSH1 0x1F DUP3 GT ISZERO PUSH2 0x1FB1 JUMPI PUSH2 0x1F82 DUP2 PUSH2 0x1E62 JUMP JUMPDEST PUSH2 0x1F8B DUP5 PUSH2 0x1E74 JUMP JUMPDEST DUP2 ADD PUSH1 0x20 DUP6 LT ISZERO PUSH2 0x1F9A JUMPI DUP2 SWAP1 POP JUMPDEST PUSH2 0x1FAE PUSH2 0x1FA6 DUP6 PUSH2 0x1E74 JUMP JUMPDEST DUP4 ADD DUP3 PUSH2 0x1F4E JUMP JUMPDEST POP POP JUMPDEST POP POP POP JUMP JUMPDEST PUSH0 DUP3 DUP3 SHR SWAP1 POP SWAP3 SWAP2 POP POP JUMP JUMPDEST PUSH0 PUSH2 0x1FD1 PUSH0 NOT DUP5 PUSH1 0x8 MUL PUSH2 0x1FB6 JUMP JUMPDEST NOT DUP1 DUP4 AND SWAP2 POP POP SWAP3 SWAP2 POP POP JUMP JUMPDEST PUSH0 PUSH2 0x1FE9 DUP4 DUP4 PUSH2 0x1FC2 JUMP JUMPDEST SWAP2 POP DUP3 PUSH1 0x2 MUL DUP3 OR SWAP1 POP SWAP3 SWAP2 POP POP JUMP JUMPDEST PUSH2 0x2002 DUP3 PUSH2 0x1699 JUMP JUMPDEST PUSH8 0xFFFFFFFFFFFFFFFF DUP2 GT ISZERO PUSH2 0x201B JUMPI PUSH2 0x201A PUSH2 0x18EC JUMP JUMPDEST JUMPDEST PUSH2 0x2025 DUP3 SLOAD PUSH2 0x1BA8 JUMP JUMPDEST PUSH2 0x2030 DUP3 DUP3 DUP6 PUSH2 0x1F70 JUMP JUMPDEST PUSH0 PUSH1 0x20 SWAP1 POP PUSH1 0x1F DUP4 GT PUSH1 0x1 DUP2 EQ PUSH2 0x2061 JUMPI PUSH0 DUP5 ISZERO PUSH2 0x204F JUMPI DUP3 DUP8 ADD MLOAD SWAP1 POP JUMPDEST PUSH2 0x2059 DUP6 DUP3 PUSH2 0x1FDE JUMP JUMPDEST DUP7 SSTORE POP PUSH2 0x20C0 JUMP JUMPDEST PUSH1 0x1F NOT DUP5 AND PUSH2 0x206F DUP7 PUSH2 0x1E62 JUMP JUMPDEST PUSH0 JUMPDEST DUP3 DUP2 LT ISZERO PUSH2 0x2096 JUMPI DUP5 DUP10 ADD MLOAD DUP3 SSTORE PUSH1 0x1 DUP3 ADD SWAP2 POP PUSH1 0x20 DUP6 ADD SWAP5 POP PUSH1 0x20 DUP2 ADD SWAP1 POP PUSH2 0x2071 JUMP JUMPDEST DUP7 DUP4 LT ISZERO PUSH2 0x20B3 JUMPI DUP5 DUP10 ADD MLOAD PUSH2 0x20AF PUSH1 0x1F DUP10 AND DUP3 PUSH2 0x1FC2 JUMP JUMPDEST DUP4 SSTORE POP JUMPDEST PUSH1 0x1 PUSH1 0x2 DUP9 MUL ADD DUP9 SSTORE POP POP POP JUMPDEST POP POP POP POP POP POP JUMP JUMPDEST PUSH0 DUP2 SWAP1 POP SWAP2 SWAP1 POP JUMP JUMPDEST PUSH0 PUSH2 0x20EB PUSH2 0x20E6 PUSH2 0x20E1 DUP5 PUSH2 0x20C8 JUMP JUMPDEST PUSH2 0x1DDB JUMP JUMPDEST PUSH2 0x1794 JUMP JUMPDEST SWAP1 POP SWAP2 SWAP1 POP JUMP JUMPDEST PUSH2 0x20FB DUP2 PUSH2 0x20D1 JUMP JUMPDEST DUP3 MSTORE POP POP JUMP JUMPDEST PUSH0 PUSH1 0x20 DUP3 ADD SWAP1 POP PUSH2 0x2114 PUSH0 DUP4 ADD DUP5 PUSH2 0x20F2 JUMP JUMPDEST SWAP3 SWAP2 POP POP JUMP JUMPDEST PUSH0 PUSH1 0x40 DUP3 ADD SWAP1 POP PUSH2 0x212D PUSH0 DUP4 ADD DUP6 PUSH2 0x1838 JUMP JUMPDEST PUSH2 0x213A PUSH1 0x20 DUP4 ADD DUP5 PUSH2 0x1838 JUMP JUMPDEST SWAP4 SWAP3 POP POP POP JUMP JUMPDEST PUSH0 PUSH2 0x214B DUP3 PUSH2 0x1794 JUMP JUMPDEST SWAP2 POP PUSH2 0x2156 DUP4 PUSH2 0x1794 JUMP JUMPDEST SWAP3 POP DUP3 DUP3 ADD SWAP1 POP DUP1 DUP3 GT ISZERO PUSH2 0x216E JUMPI PUSH2 0x216D PUSH2 0x1BD8 JUMP JUMPDEST JUMPDEST SWAP3 SWAP2 POP POP JUMP INVALID LOG2 PUSH5 0x6970667358 0x22 SLT KECCAK256 MLOAD SMOD JUMPF 0x23FC 0xEB SWAP1 0xBF SHR DUP16 PUSH28 0xDEE35E348135DD16BF5044AB6AE34F5B2320FAF78664736F6C634300 ADDMOD 0x1E STOP CALLER "
		},
		"gasEstimates": {
			"creation": {
				"codeDepositCost": "1723600",
				"executionCost": "infinite",
				"totalCost": "infinite"
			},
			"external": {
				"acceptOwnership()": "infinite",
				"allowance(address,address)": "infinite",
				"approve(address,uint256)": "infinite",
				"balanceOf(address)": "2925",
				"burn(uint256)": "infinite",
				"cap()": "2550",
				"decimals()": "361",
				"initialize(string,string,uint256,uint256,address)": "infinite",
				"mint(address,uint256)": "infinite",
				"name()": "infinite",
				"owner()": "2677",
				"pendingOwner()": "2654",
				"renounceOwnership()": "infinite",
				"symbol()": "infinite",
				"totalSupply()": "2552",
				"transfer(address,uint256)": "infinite",
				"transferFrom(address,address,uint256)": "infinite",
				"transferOwnership(address)": "infinite",
				"version()": "infinite"
			},
			"internal": {
				"_update(address,address,uint256)": "infinite"
			}
		},
		"methodIdentifiers": {
			"acceptOwnership()": "79ba5097",
			"allowance(address,address)": "dd62ed3e",
			"approve(address,uint256)": "095ea7b3",
			"balanceOf(address)": "70a08231",
			"burn(uint256)": "42966c68",
			"cap()": "355274ea",
			"decimals()": "313ce567",
			"initialize(string,string,uint256,uint256,address)": "33eea181",
			"mint(address,uint256)": "40c10f19",
			"name()": "06fdde03",
			"owner()": "8da5cb5b",
			"pendingOwner()": "e30c3978",
			"renounceOwnership()": "715018a6",
			"symbol()": "95d89b41",
			"totalSupply()": "18160ddd",
			"transfer(address,uint256)": "a9059cbb",
			"transferFrom(address,address,uint256)": "23b872dd",
			"transferOwnership(address)": "f2fde38b",
			"version()": "54fd4d50"
		}
	},
	"abi": [
		{
			"inputs": [
				{
					"internalType": "uint256",
					"name": "increasedSupply",
					"type": "uint256"
				},
				{
					"internalType": "uint256",
					"name": "cap",
					"type": "uint256"
				}
			],
			"name": "ERC20ExceededCap",
			"type": "error"
		},
		{
			"inputs": [
				{
					"internalType": "address",
					"name": "spender",
					"type": "address"
				},
				{
					"internalType": "uint256",
					"name": "allowance",
					"type": "uint256"
				},
				{
					"internalType": "uint256",
					"name": "needed",
					"type": "uint256"
				}
			],
			"name": "ERC20InsufficientAllowance",
			"type": "error"
		},
		{
			"inputs": [
				{
					"internalType": "address",
					"name": "sender",
					"type": "address"
				},
				{
					"internalType": "uint256",
					"name": "balance",
					"type": "uint256"
				},
				{
					"internalType": "uint256",
					"name": "needed",
					"type": "uint256"
				}
			],
			"name": "ERC20InsufficientBalance",
			"type": "error"
		},
		{
			"inputs": [
				{
					"internalType": "address",
					"name": "approver",
					"type": "address"
				}
			],
			"name": "ERC20InvalidApprover",
			"type": "error"
		},
		{
			"inputs": [
				{
					"internalType": "uint256",
					"name": "cap",
					"type": "uint256"
				}
			],
			"name": "ERC20InvalidCap",
			"type": "error"
		},
		{
			"inputs": [
				{
					"internalType": "address",
					"name": "receiver",
					"type": "address"
				}
			],
			"name": "ERC20InvalidReceiver",
			"type": "error"
		},
		{
			"inputs": [
				{
					"internalType": "address",
					"name": "sender",
					"type": "address"
				}
			],
			"name": "ERC20InvalidSender",
			"type": "error"
		},
		{
			"inputs": [
				{
					"internalType": "address",
					"name": "spender",
					"type": "address"
				}
			],
			"name": "ERC20InvalidSpender",
			"type": "error"
		},
		{
			"inputs": [],
			"name": "InvalidInitialization",
			"type": "error"
		},
		{
			"inputs": [],
			"name": "NotInitializing",
			"type": "error"
		},
		{
			"inputs": [
				{
					"internalType": "address",
					"name": "owner",
					"type": "address"
				}
			],
			"name": "OwnableInvalidOwner",
			"type": "error"
		},
		{
			"inputs": [
				{
					"internalType": "address",
					"name": "account",
					"type": "address"
				}
			],
			"name": "OwnableUnauthorizedAccount",
			"type": "error"
		},
		{
			"inputs": [],
			"name": "ReentrancyGuardReentrantCall",
			"type": "error"
		},
		{
			"anonymous": false,
			"inputs": [
				{
					"indexed": true,
					"internalType": "address",
					"name": "owner",
					"type": "address"
				},
				{
					"indexed": true,
					"internalType": "address",
					"name": "spender",
					"type": "address"
				},
				{
					"indexed": false,
					"internalType": "uint256",
					"name": "value",
					"type": "uint256"
				}
			],
			"name": "Approval",
			"type": "event"
		},
		{
			"anonymous": false,
			"inputs": [
				{
					"indexed": false,
					"internalType": "uint64",
					"name": "version",
					"type": "uint64"
				}
			],
			"name": "Initialized",
			"type": "event"
		},
		{
			"anonymous": false,
			"inputs": [
				{
					"indexed": true,
					"internalType": "address",
					"name": "previousOwner",
					"type": "address"
				},
				{
					"indexed": true,
					"internalType": "address",
					"name": "newOwner",
					"type": "address"
				}
			],
			"name": "OwnershipTransferStarted",
			"type": "event"
		},
		{
			"anonymous": false,
			"inputs": [
				{
					"indexed": true,
					"internalType": "address",
					"name": "previousOwner",
					"type": "address"
				},
				{
					"indexed": true,
					"internalType": "address",
					"name": "newOwner",
					"type": "address"
				}
			],
			"name": "OwnershipTransferred",
			"type": "event"
		},
		{
			"anonymous": false,
			"inputs": [
				{
					"indexed": true,
					"internalType": "address",
					"name": "from",
					"type": "address"
				},
				{
					"indexed": true,
					"internalType": "address",
					"name": "to",
					"type": "address"
				},
				{
					"indexed": false,
					"internalType": "uint256",
					"name": "value",
					"type": "uint256"
				}
			],
			"name": "Transfer",
			"type": "event"
		},
		{
			"inputs": [],
			"name": "acceptOwnership",
			"outputs": [],
			"stateMutability": "nonpayable",
			"type": "function"
		},
		{
			"inputs": [
				{
					"internalType": "address",
					"name": "owner",
					"type": "address"
				},
				{
					"internalType": "address",
					"name": "spender",
					"type": "address"
				}
			],
			"name": "allowance",
			"outputs": [
				{
					"internalType": "uint256",
					"name": "",
					"type": "uint256"
				}
			],
			"stateMutability": "view",
			"type": "function"
		},
		{
			"inputs": [
				{
					"internalType": "address",
					"name": "spender",
					"type": "address"
				},
				{
					"internalType": "uint256",
					"name": "value",
					"type": "uint256"
				}
			],
			"name": "approve",
			"outputs": [
				{
					"internalType": "bool",
					"name": "",
					"type": "bool"
				}
			],
			"stateMutability": "nonpayable",
			"type": "function"
		},
		{
			"inputs": [
				{
					"internalType": "address",
					"name": "account",
					"type": "address"
				}
			],
			"name": "balanceOf",
			"outputs": [
				{
					"internalType": "uint256",
					"name": "",
					"type": "uint256"
				}
			],
			"stateMutability": "view",
			"type": "function"
		},
		{
			"inputs": [
				{
					"internalType": "uint256",
					"name": "amount",
					"type": "uint256"
				}
			],
			"name": "burn",
			"outputs": [],
			"stateMutability": "nonpayable",
			"type": "function"
		},
		{
			"inputs": [],
			"name": "cap",
			"outputs": [
				{
					"internalType": "uint256",
					"name": "",
					"type": "uint256"
				}
			],
			"stateMutability": "view",
			"type": "function"
		},
		{
			"inputs": [],
			"name": "decimals",
			"outputs": [
				{
					"internalType": "uint8",
					"name": "",
					"type": "uint8"
				}
			],
			"stateMutability": "view",
			"type": "function"
		},
		{
			"inputs": [
				{
					"internalType": "string",
					"name": "tokenName",
					"type": "string"
				},
				{
					"internalType": "string",
					"name": "tokenSymbol",
					"type": "string"
				},
				{
					"internalType": "uint256",
					"name": "capp",
					"type": "uint256"
				},
				{
					"internalType": "uint256",
					"name": "initialAmount",
					"type": "uint256"
				},
				{
					"internalType": "address",
					"name": "owner",
					"type": "address"
				}
			],
			"name": "initialize",
			"outputs": [],
			"stateMutability": "nonpayable",
			"type": "function"
		},
		{
			"inputs": [
				{
					"internalType": "address",
					"name": "to",
					"type": "address"
				},
				{
					"internalType": "uint256",
					"name": "amount",
					"type": "uint256"
				}
			],
			"name": "mint",
			"outputs": [],
			"stateMutability": "nonpayable",
			"type": "function"
		},
		{
			"inputs": [],
			"name": "name",
			"outputs": [
				{
					"internalType": "string",
					"name": "",
					"type": "string"
				}
			],
			"stateMutability": "view",
			"type": "function"
		},
		{
			"inputs": [],
			"name": "owner",
			"outputs": [
				{
					"internalType": "address",
					"name": "",
					"type": "address"
				}
			],
			"stateMutability": "view",
			"type": "function"
		},
		{
			"inputs": [],
			"name": "pendingOwner",
			"outputs": [
				{
					"internalType": "address",
					"name": "",
					"type": "address"
				}
			],
			"stateMutability": "view",
			"type": "function"
		},
		{
			"inputs": [],
			"name": "renounceOwnership",
			"outputs": [],
			"stateMutability": "nonpayable",
			"type": "function"
		},
		{
			"inputs": [],
			"name": "symbol",
			"outputs": [
				{
					"internalType": "string",
					"name": "",
					"type": "string"
				}
			],
			"stateMutability": "view",
			"type": "function"
		},
		{
			"inputs": [],
			"name": "totalSupply",
			"outputs": [
				{
					"internalType": "uint256",
					"name": "",
					"type": "uint256"
				}
			],
			"stateMutability": "view",
			"type": "function"
		},
		{
			"inputs": [
				{
					"internalType": "address",
					"name": "to",
					"type": "address"
				},
				{
					"internalType": "uint256",
					"name": "value",
					"type": "uint256"
				}
			],
			"name": "transfer",
			"outputs": [
				{
					"internalType": "bool",
					"name": "",
					"type": "bool"
				}
			],
			"stateMutability": "nonpayable",
			"type": "function"
		},
		{
			"inputs": [
				{
					"internalType": "address",
					"name": "from",
					"type": "address"
				},
				{
					"internalType": "address",
					"name": "to",
					"type": "address"
				},
				{
					"internalType": "uint256",
					"name": "value",
					"type": "uint256"
				}
			],
			"name": "transferFrom",
			"outputs": [
				{
					"internalType": "bool",
					"name": "",
					"type": "bool"
				}
			],
			"stateMutability": "nonpayable",
			"type": "function"
		},
		{
			"inputs": [
				{
					"internalType": "address",
					"name": "newOwner",
					"type": "address"
				}
			],
			"name": "transferOwnership",
			"outputs": [],
			"stateMutability": "nonpayable",
			"type": "function"
		},
		{
			"inputs": [],
			"name": "version",
			"outputs": [
				{
					"internalType": "uint256",
					"name": "",
					"type": "uint256"
				}
			],
			"stateMutability": "pure",
			"type": "function"
		}
	]
}