{
	"data": {
		"bytecode": {
			"linkReferences": {},
			"object": "6080604052348015600e575f5ffd5b506122228061001c5f395ff3fe608060405234801561000f575f5ffd5b506004361061012a575f3560e01c806370a08231116100ab578063a9059cbb1161006f578063a9059cbb146102f8578063dd62ed3e14610328578063e30c397814610358578063f2fde38b14610376578063ffa1ad74146103925761012a565b806370a0823114610278578063715018a6146102a857806379ba5097146102b25780638da5cb5b146102bc57806395d89b41146102da5761012a565b806333eea181116100f257806333eea181146101e8578063355274ea1461020457806340c10f191461022257806342966c681461023e57806354fd4d501461025a5761012a565b806306fdde031461012e578063095ea7b31461014c57806318160ddd1461017c57806323b872dd1461019a578063313ce567146101ca575b5f5ffd5b6101366103b0565b6040516101439190611781565b60405180910390f35b6101666004803603810190610161919061183f565b61044e565b6040516101739190611897565b60405180910390f35b610184610470565b60405161019191906118bf565b60405180910390f35b6101b460048036038101906101af91906118d8565b610487565b6040516101c19190611897565b60405180910390f35b6101d26104b5565b6040516101df9190611943565b60405180910390f35b61020260048036038101906101fd9190611a88565b6104bd565b005b61020c6106a3565b60405161021991906118bf565b60405180910390f35b61023c6004803603810190610237919061183f565b6106b9565b005b61025860048036038101906102539190611b37565b6106df565b005b6102626106ec565b60405161026f9190611781565b60405180910390f35b610292600480360381019061028d9190611b62565b610729565b60405161029f91906118bf565b60405180910390f35b6102b061077c565b005b6102ba61078f565b005b6102c461081d565b6040516102d19190611b9c565b60405180910390f35b6102e2610852565b6040516102ef9190611781565b60405180910390f35b610312600480360381019061030d919061183f565b6108f0565b60405161031f9190611897565b60405180910390f35b610342600480360381019061033d9190611bb5565b610912565b60405161034f91906118bf565b60405180910390f35b6103606109a2565b60405161036d9190611b9c565b60405180910390f35b610390600480360381019061038b9190611b62565b6109d7565b005b61039a610a90565b6040516103a79190611781565b60405180910390f35b60605f6103bb610ac9565b90508060030180546103cc90611c20565b80601f01602080910402602001604051908101604052809291908181526020018280546103f890611c20565b80156104435780601f1061041a57610100808354040283529160200191610443565b820191905f5260205f20905b81548152906001019060200180831161042657829003601f168201915b505050505091505090565b5f5f610458610af0565b9050610465818585610af7565b600191505092915050565b5f5f61047a610ac9565b9050806002015491505090565b5f5f610491610af0565b905061049e858285610b09565b6104a9858585610b9c565b60019150509392505050565b5f6012905090565b5f6104c6610c8c565b90505f815f0160089054906101000a900460ff161590505f825f015f9054906101000a900467ffffffffffffffff1690505f5f8267ffffffffffffffff1614801561050e5750825b90505f60018367ffffffffffffffff1614801561054157505f3073ffffffffffffffffffffffffffffffffffffffff163b145b90508115801561054f575080155b15610586576040517ff92ee8a900000000000000000000000000000000000000000000000000000000815260040160405180910390fd5b6001855f015f6101000a81548167ffffffffffffffff021916908367ffffffffffffffff16021790555083156105d3576001855f0160086101000a81548160ff0219169083151502179055505b6105dd8a8a610c9f565b6106046105e86104b5565b600a6105f49190611dac565b896105ff9190611df6565b610cb5565b61060d86610cc9565b610615610cdd565b61063d866106216104b5565b600a61062d9190611dac565b896106389190611df6565b610cef565b8315610697575f855f0160086101000a81548160ff0219169083151502179055507fc7f505b2f371ae2175ee4913f4499e1f2633a7b5936321eed1cdaeb6115181d2600160405161068e9190611e8c565b60405180910390a15b50505050505050505050565b5f5f6106ad610d6e565b9050805f015491505090565b6106c1610d95565b6106c9610e1c565b6106d38282610cef565b6106db610e70565b5050565b6106e93382610e87565b50565b60606040518060400160405280600381526020017f322e300000000000000000000000000000000000000000000000000000000000815250905090565b5f5f610733610ac9565b9050805f015f8473ffffffffffffffffffffffffffffffffffffffff1673ffffffffffffffffffffffffffffffffffffffff1681526020019081526020015f2054915050919050565b610784610d95565b61078d5f610f06565b565b5f610798610af0565b90508073ffffffffffffffffffffffffffffffffffffffff166107b96109a2565b73ffffffffffffffffffffffffffffffffffffffff161461081157806040517f118cdaa70000000000000000000000000000000000000000000000000000000081526004016108089190611b9c565b60405180910390fd5b61081a81610f06565b50565b5f5f610827610f43565b9050805f015f9054906101000a900473ffffffffffffffffffffffffffffffffffffffff1691505090565b60605f61085d610ac9565b905080600401805461086e90611c20565b80601f016020809104026020016040519081016040528092919081815260200182805461089a90611c20565b80156108e55780601f106108bc576101008083540402835291602001916108e5565b820191905f5260205f20905b8154815290600101906020018083116108c857829003601f168201915b505050505091505090565b5f5f6108fa610af0565b9050610907818585610b9c565b600191505092915050565b5f5f61091c610ac9565b9050806001015f8573ffffffffffffffffffffffffffffffffffffffff1673ffffffffffffffffffffffffffffffffffffffff1681526020019081526020015f205f8473ffffffffffffffffffffffffffffffffffffffff1673ffffffffffffffffffffffffffffffffffffffff1681526020019081526020015f205491505092915050565b5f5f6109ac610f6a565b9050805f015f9054906101000a900473ffffffffffffffffffffffffffffffffffffffff1691505090565b6109df610d95565b5f6109e8610f6a565b905081815f015f6101000a81548173ffffffffffffffffffffffffffffffffffffffff021916908373ffffffffffffffffffffffffffffffffffffffff1602179055508173ffffffffffffffffffffffffffffffffffffffff16610a4a61081d565b73ffffffffffffffffffffffffffffffffffffffff167f38d16b8cac22d99fc7c124b9cd0de2d3fa1faef420bfe791d8c362d765e2270060405160405180910390a35050565b6040518060400160405280600381526020017f322e30000000000000000000000000000000000000000000000000000000000081525081565b5f7f52c63247e1f47db19d5ce0460030c497f067ca4cebf71ba98eeadabe20bace00905090565b5f33905090565b610b048383836001610f91565b505050565b5f610b148484610912565b90507fffffffffffffffffffffffffffffffffffffffffffffffffffffffffffffffff811015610b965781811015610b87578281836040517ffb8f41b2000000000000000000000000000000000000000000000000000000008152600401610b7e93929190611ea5565b60405180910390fd5b610b9584848484035f610f91565b5b50505050565b5f73ffffffffffffffffffffffffffffffffffffffff168373ffffffffffffffffffffffffffffffffffffffff1603610c0c575f6040517f96c6fd1e000000000000000000000000000000000000000000000000000000008152600401610c039190611b9c565b60405180910390fd5b5f73ffffffffffffffffffffffffffffffffffffffff168273ffffffffffffffffffffffffffffffffffffffff1603610c7c575f6040517fec442f05000000000000000000000000000000000000000000000000000000008152600401610c739190611b9c565b60405180910390fd5b610c8783838361116e565b505050565b5f5f610c9661117e565b90508091505090565b610ca76111a7565b610cb182826111e7565b5050565b610cbd6111a7565b610cc681611223565b50565b610cd16111a7565b610cda81611286565b50565b610ce56111a7565b610ced61130a565b565b5f73ffffffffffffffffffffffffffffffffffffffff168273ffffffffffffffffffffffffffffffffffffffff1603610d5f575f6040517fec442f05000000000000000000000000000000000000000000000000000000008152600401610d569190611b9c565b60405180910390fd5b610d6a5f838361116e565b5050565b5f7f0f070392f17d5f958cc1ac31867dabecfc5c9758b4a419a200803226d7155d00905090565b610d9d610af0565b73ffffffffffffffffffffffffffffffffffffffff16610dbb61081d565b73ffffffffffffffffffffffffffffffffffffffff1614610e1a57610dde610af0565b6040517f118cdaa7000000000000000000000000000000000000000000000000000000008152600401610e119190611b9c565b60405180910390fd5b565b5f610e25611329565b90506002815f015403610e64576040517f3ee5aeb500000000000000000000000000000000000000000000000000000000815260040160405180910390fd5b6002815f018190555050565b5f610e79611329565b90506001815f018190555050565b5f73ffffffffffffffffffffffffffffffffffffffff168273ffffffffffffffffffffffffffffffffffffffff1603610ef7575f6040517f96c6fd1e000000000000000000000000000000000000000000000000000000008152600401610eee9190611b9c565b60405180910390fd5b610f02825f8361116e565b5050565b5f610f0f610f6a565b9050805f015f6101000a81549073ffffffffffffffffffffffffffffffffffffffff0219169055610f3f82611350565b5050565b5f7f9016d09d72d40fdae2fd8ceac6b6234c7706214fd39c1cd1e609a0528c199300905090565b5f7f237e158222e3e6968b72b9db0d8043aacf074ad9f650f0d1606b4d82ee432c00905090565b5f610f9a610ac9565b90505f73ffffffffffffffffffffffffffffffffffffffff168573ffffffffffffffffffffffffffffffffffffffff160361100c575f6040517fe602df050000000000000000000000000000000000000000000000000000000081526004016110039190611b9c565b60405180910390fd5b5f73ffffffffffffffffffffffffffffffffffffffff168473ffffffffffffffffffffffffffffffffffffffff160361107c575f6040517f94280d620000000000000000000000000000000000000000000000000000000081526004016110739190611b9c565b60405180910390fd5b82816001015f8773ffffffffffffffffffffffffffffffffffffffff1673ffffffffffffffffffffffffffffffffffffffff1681526020019081526020015f205f8673ffffffffffffffffffffffffffffffffffffffff1673ffffffffffffffffffffffffffffffffffffffff1681526020019081526020015f20819055508115611167578373ffffffffffffffffffffffffffffffffffffffff168573ffffffffffffffffffffffffffffffffffffffff167f8c5be1e5ebec7d5bd14f71427d1e84f3dd0314c0f7b2291e5b200ac8c7c3b9258560405161115e91906118bf565b60405180910390a35b5050505050565b611179838383611421565b505050565b5f7ff0c57e16840df040f15088dc2f81fe391c3923bec73e23a9662efc9c229c6a005f1b905090565b6111af6114c4565b6111e5576040517fd7e6bcf800000000000000000000000000000000000000000000000000000000815260040160405180910390fd5b565b6111ef6111a7565b5f6111f8610ac9565b90508281600301908161120b9190612071565b508181600401908161121d9190612071565b50505050565b61122b6111a7565b5f611234610d6e565b90505f820361127a575f6040517f392e1e270000000000000000000000000000000000000000000000000000000081526004016112719190612179565b60405180910390fd5b81815f01819055505050565b61128e6111a7565b5f73ffffffffffffffffffffffffffffffffffffffff168173ffffffffffffffffffffffffffffffffffffffff16036112fe575f6040517f1e4fbdf70000000000000000000000000000000000000000000000000000000081526004016112f59190611b9c565b60405180910390fd5b61130781610f06565b50565b6113126111a7565b5f61131b611329565b90506001815f018190555050565b5f7f9b779b17422d0df92223018b32b4d1fa46e071723d6817e2486d003becc55f00905090565b5f611359610f43565b90505f815f015f9054906101000a900473ffffffffffffffffffffffffffffffffffffffff16905082825f015f6101000a81548173ffffffffffffffffffffffffffffffffffffffff021916908373ffffffffffffffffffffffffffffffffffffffff1602179055508273ffffffffffffffffffffffffffffffffffffffff168173ffffffffffffffffffffffffffffffffffffffff167f8be0079c531659141344cd1fd0a4f28419497f9722a3daafe3b4186f6b6457e060405160405180910390a3505050565b61142c8383836114e2565b5f73ffffffffffffffffffffffffffffffffffffffff168373ffffffffffffffffffffffffffffffffffffffff16036114bf575f6114686106a3565b90505f611473610470565b9050818111156114bc5780826040517f9e79f8540000000000000000000000000000000000000000000000000000000081526004016114b3929190612192565b60405180910390fd5b50505b505050565b5f6114cd610c8c565b5f0160089054906101000a900460ff16905090565b5f6114eb610ac9565b90505f73ffffffffffffffffffffffffffffffffffffffff168473ffffffffffffffffffffffffffffffffffffffff160361153f5781816002015f82825461153391906121b9565b92505081905550611611565b5f815f015f8673ffffffffffffffffffffffffffffffffffffffff1673ffffffffffffffffffffffffffffffffffffffff1681526020019081526020015f20549050828110156115ca578481846040517fe450d38c0000000000000000000000000000000000000000000000000000000081526004016115c193929190611ea5565b60405180910390fd5b828103825f015f8773ffffffffffffffffffffffffffffffffffffffff1673ffffffffffffffffffffffffffffffffffffffff1681526020019081526020015f2081905550505b5f73ffffffffffffffffffffffffffffffffffffffff168373ffffffffffffffffffffffffffffffffffffffff160361165a5781816002015f82825403925050819055506116a6565b81815f015f8573ffffffffffffffffffffffffffffffffffffffff1673ffffffffffffffffffffffffffffffffffffffff1681526020019081526020015f205f82825401925050819055505b8273ffffffffffffffffffffffffffffffffffffffff168473ffffffffffffffffffffffffffffffffffffffff167fddf252ad1be2c89b69c2b068fc378daa952ba7f163c4a11628f55a4df523b3ef8460405161170391906118bf565b60405180910390a350505050565b5f81519050919050565b5f82825260208201905092915050565b8281835e5f83830152505050565b5f601f19601f8301169050919050565b5f61175382611711565b61175d818561171b565b935061176d81856020860161172b565b61177681611739565b840191505092915050565b5f6020820190508181035f8301526117998184611749565b905092915050565b5f604051905090565b5f5ffd5b5f5ffd5b5f73ffffffffffffffffffffffffffffffffffffffff82169050919050565b5f6117db826117b2565b9050919050565b6117eb816117d1565b81146117f5575f5ffd5b50565b5f81359050611806816117e2565b92915050565b5f819050919050565b61181e8161180c565b8114611828575f5ffd5b50565b5f8135905061183981611815565b92915050565b5f5f60408385031215611855576118546117aa565b5b5f611862858286016117f8565b92505060206118738582860161182b565b9150509250929050565b5f8115159050919050565b6118918161187d565b82525050565b5f6020820190506118aa5f830184611888565b92915050565b6118b98161180c565b82525050565b5f6020820190506118d25f8301846118b0565b92915050565b5f5f5f606084860312156118ef576118ee6117aa565b5b5f6118fc868287016117f8565b935050602061190d868287016117f8565b925050604061191e8682870161182b565b9150509250925092565b5f60ff82169050919050565b61193d81611928565b82525050565b5f6020820190506119565f830184611934565b92915050565b5f5ffd5b5f5ffd5b7f4e487b71000000000000000000000000000000000000000000000000000000005f52604160045260245ffd5b61199a82611739565b810181811067ffffffffffffffff821117156119b9576119b8611964565b5b80604052505050565b5f6119cb6117a1565b90506119d78282611991565b919050565b5f67ffffffffffffffff8211156119f6576119f5611964565b5b6119ff82611739565b9050602081019050919050565b828183375f83830152505050565b5f611a2c611a27846119dc565b6119c2565b905082815260208101848484011115611a4857611a47611960565b5b611a53848285611a0c565b509392505050565b5f82601f830112611a6f57611a6e61195c565b5b8135611a7f848260208601611a1a565b91505092915050565b5f5f5f5f5f60a08688031215611aa157611aa06117aa565b5b5f86013567ffffffffffffffff811115611abe57611abd6117ae565b5b611aca88828901611a5b565b955050602086013567ffffffffffffffff811115611aeb57611aea6117ae565b5b611af788828901611a5b565b9450506040611b088882890161182b565b9350506060611b198882890161182b565b9250506080611b2a888289016117f8565b9150509295509295909350565b5f60208284031215611b4c57611b4b6117aa565b5b5f611b598482850161182b565b91505092915050565b5f60208284031215611b7757611b766117aa565b5b5f611b84848285016117f8565b91505092915050565b611b96816117d1565b82525050565b5f602082019050611baf5f830184611b8d565b92915050565b5f5f60408385031215611bcb57611bca6117aa565b5b5f611bd8858286016117f8565b9250506020611be9858286016117f8565b9150509250929050565b7f4e487b71000000000000000000000000000000000000000000000000000000005f52602260045260245ffd5b5f6002820490506001821680611c3757607f821691505b602082108103611c4a57611c49611bf3565b5b50919050565b7f4e487b71000000000000000000000000000000000000000000000000000000005f52601160045260245ffd5b5f8160011c9050919050565b5f5f8291508390505b6001851115611cd257808604811115611cae57611cad611c50565b5b6001851615611cbd5780820291505b8081029050611ccb85611c7d565b9450611c92565b94509492505050565b5f82611cea5760019050611da5565b81611cf7575f9050611da5565b8160018114611d0d5760028114611d1757611d46565b6001915050611da5565b60ff841115611d2957611d28611c50565b5b8360020a915084821115611d4057611d3f611c50565b5b50611da5565b5060208310610133831016604e8410600b8410161715611d7b5782820a905083811115611d7657611d75611c50565b5b611da5565b611d888484846001611c89565b92509050818404811115611d9f57611d9e611c50565b5b81810290505b9392505050565b5f611db68261180c565b9150611dc183611928565b9250611dee7fffffffffffffffffffffffffffffffffffffffffffffffffffffffffffffffff8484611cdb565b905092915050565b5f611e008261180c565b9150611e0b8361180c565b9250828202611e198161180c565b91508282048414831517611e3057611e2f611c50565b5b5092915050565b5f819050919050565b5f67ffffffffffffffff82169050919050565b5f819050919050565b5f611e76611e71611e6c84611e37565b611e53565b611e40565b9050919050565b611e8681611e5c565b82525050565b5f602082019050611e9f5f830184611e7d565b92915050565b5f606082019050611eb85f830186611b8d565b611ec560208301856118b0565b611ed260408301846118b0565b949350505050565b5f819050815f5260205f209050919050565b5f6020601f8301049050919050565b5f82821b905092915050565b5f60088302611f367fffffffffffffffffffffffffffffffffffffffffffffffffffffffffffffffff82611efb565b611f408683611efb565b95508019841693508086168417925050509392505050565b5f611f72611f6d611f688461180c565b611e53565b61180c565b9050919050565b5f819050919050565b611f8b83611f58565b611f9f611f9782611f79565b848454611f07565b825550505050565b5f5f905090565b611fb6611fa7565b611fc1818484611f82565b505050565b5b81811015611fe457611fd95f82611fae565b600181019050611fc7565b5050565b601f82111561202957611ffa81611eda565b61200384611eec565b81016020851015612012578190505b61202661201e85611eec565b830182611fc6565b50505b505050565b5f82821c905092915050565b5f6120495f198460080261202e565b1980831691505092915050565b5f612061838361203a565b9150826002028217905092915050565b61207a82611711565b67ffffffffffffffff81111561209357612092611964565b5b61209d8254611c20565b6120a8828285611fe8565b5f60209050601f8311600181146120d9575f84156120c7578287015190505b6120d18582612056565b865550612138565b601f1984166120e786611eda565b5f5b8281101561210e578489015182556001820191506020850194506020810190506120e9565b8683101561212b5784890151612127601f89168261203a565b8355505b6001600288020188555050505b505050505050565b5f819050919050565b5f61216361215e61215984612140565b611e53565b61180c565b9050919050565b61217381612149565b82525050565b5f60208201905061218c5f83018461216a565b92915050565b5f6040820190506121a55f8301856118b0565b6121b260208301846118b0565b9392505050565b5f6121c38261180c565b91506121ce8361180c565b92508282019050808211156121e6576121e5611c50565b5b9291505056fea2646970667358221220a38a592dc21107e49a10d36f198f67ffe5b8413e6432e49d7f895c08356cfaf864736f6c634300081e0033",
			"opcodes": "PUSH1 0x80 PUSH1 0x40 MSTORE CALLVALUE DUP1 ISZERO PUSH1 0xE JUMPI PUSH0 PUSH0 REVERT JUMPDEST POP PUSH2 0x2222 DUP1 PUSH2 0x1C PUSH0 CODECOPY PUSH0 RETURN INVALID PUSH1 0x80 PUSH1 0x40 MSTORE CALLVALUE DUP1 ISZERO PUSH2 0xF JUMPI PUSH0 PUSH0 REVERT JUMPDEST POP PUSH1 0x4 CALLDATASIZE LT PUSH2 0x12A JUMPI PUSH0 CALLDATALOAD PUSH1 0xE0 SHR DUP1 PUSH4 0x70A08231 GT PUSH2 0xAB JUMPI DUP1 PUSH4 0xA9059CBB GT PUSH2 0x6F JUMPI DUP1 PUSH4 0xA9059CBB EQ PUSH2 0x2F8 JUMPI DUP1 PUSH4 0xDD62ED3E EQ PUSH2 0x328 JUMPI DUP1 PUSH4 0xE30C3978 EQ PUSH2 0x358 JUMPI DUP1 PUSH4 0xF2FDE38B EQ PUSH2 0x376 JUMPI DUP1 PUSH4 0xFFA1AD74 EQ PUSH2 0x392 JUMPI PUSH2 0x12A JUMP JUMPDEST DUP1 PUSH4 0x70A08231 EQ PUSH2 0x278 JUMPI DUP1 PUSH4 0x715018A6 EQ PUSH2 0x2A8 JUMPI DUP1 PUSH4 0x79BA5097 EQ PUSH2 0x2B2 JUMPI DUP1 PUSH4 0x8DA5CB5B EQ PUSH2 0x2BC JUMPI DUP1 PUSH4 0x95D89B41 EQ PUSH2 0x2DA JUMPI PUSH2 0x12A JUMP JUMPDEST DUP1 PUSH4 0x33EEA181 GT PUSH2 0xF2 JUMPI DUP1 PUSH4 0x33EEA181 EQ PUSH2 0x1E8 JUMPI DUP1 PUSH4 0x355274EA EQ PUSH2 0x204 JUMPI DUP1 PUSH4 0x40C10F19 EQ PUSH2 0x222 JUMPI DUP1 PUSH4 0x42966C68 EQ PUSH2 0x23E JUMPI DUP1 PUSH4 0x54FD4D50 EQ PUSH2 0x25A JUMPI PUSH2 0x12A JUMP JUMPDEST DUP1 PUSH4 0x6FDDE03 EQ PUSH2 0x12E JUMPI DUP1 PUSH4 0x95EA7B3 EQ PUSH2 0x14C JUMPI DUP1 PUSH4 0x18160DDD EQ PUSH2 0x17C JUMPI DUP1 PUSH4 0x23B872DD EQ PUSH2 0x19A JUMPI DUP1 PUSH4 0x313CE567 EQ PUSH2 0x1CA JUMPI JUMPDEST PUSH0 PUSH0 REVERT JUMPDEST PUSH2 0x136 PUSH2 0x3B0 JUMP JUMPDEST PUSH1 0x40 MLOAD PUSH2 0x143 SWAP2 SWAP1 PUSH2 0x1781 JUMP JUMPDEST PUSH1 0x40 MLOAD DUP1 SWAP2 SUB SWAP1 RETURN JUMPDEST PUSH2 0x166 PUSH1 0x4 DUP1 CALLDATASIZE SUB DUP2 ADD SWAP1 PUSH2 0x161 SWAP2 SWAP1 PUSH2 0x183F JUMP JUMPDEST PUSH2 0x44E JUMP JUMPDEST PUSH1 0x40 MLOAD PUSH2 0x173 SWAP2 SWAP1 PUSH2 0x1897 JUMP JUMPDEST PUSH1 0x40 MLOAD DUP1 SWAP2 SUB SWAP1 RETURN JUMPDEST PUSH2 0x184 PUSH2 0x470 JUMP JUMPDEST PUSH1 0x40 MLOAD PUSH2 0x191 SWAP2 SWAP1 PUSH2 0x18BF JUMP JUMPDEST PUSH1 0x40 MLOAD DUP1 SWAP2 SUB SWAP1 RETURN JUMPDEST PUSH2 0x1B4 PUSH1 0x4 DUP1 CALLDATASIZE SUB DUP2 ADD SWAP1 PUSH2 0x1AF SWAP2 SWAP1 PUSH2 0x18D8 JUMP JUMPDEST PUSH2 0x487 JUMP JUMPDEST PUSH1 0x40 MLOAD PUSH2 0x1C1 SWAP2 SWAP1 PUSH2 0x1897 JUMP JUMPDEST PUSH1 0x40 MLOAD DUP1 SWAP2 SUB SWAP1 RETURN JUMPDEST PUSH2 0x1D2 PUSH2 0x4B5 JUMP JUMPDEST PUSH1 0x40 MLOAD PUSH2 0x1DF SWAP2 SWAP1 PUSH2 0x1943 JUMP JUMPDEST PUSH1 0x40 MLOAD DUP1 SWAP2 SUB SWAP1 RETURN JUMPDEST PUSH2 0x202 PUSH1 0x4 DUP1 CALLDATASIZE SUB DUP2 ADD SWAP1 PUSH2 0x1FD SWAP2 SWAP1 PUSH2 0x1A88 JUMP JUMPDEST PUSH2 0x4BD JUMP JUMPDEST STOP JUMPDEST PUSH2 0x20C PUSH2 0x6A3 JUMP JUMPDEST PUSH1 0x40 MLOAD PUSH2 0x219 SWAP2 SWAP1 PUSH2 0x18BF JUMP JUMPDEST PUSH1 0x40 MLOAD DUP1 SWAP2 SUB SWAP1 RETURN JUMPDEST PUSH2 0x23C PUSH1 0x4 DUP1 CALLDATASIZE SUB DUP2 ADD SWAP1 PUSH2 0x237 SWAP2 SWAP1 PUSH2 0x183F JUMP JUMPDEST PUSH2 0x6B9 JUMP JUMPDEST STOP JUMPDEST PUSH2 0x258 PUSH1 0x4 DUP1 CALLDATASIZE SUB DUP2 ADD SWAP1 PUSH2 0x253 SWAP2 SWAP1 PUSH2 0x1B37 JUMP JUMPDEST PUSH2 0x6DF JUMP JUMPDEST STOP JUMPDEST PUSH2 0x262 PUSH2 0x6EC JUMP JUMPDEST PUSH1 0x40 MLOAD PUSH2 0x26F SWAP2 SWAP1 PUSH2 0x1781 JUMP JUMPDEST PUSH1 0x40 MLOAD DUP1 SWAP2 SUB SWAP1 RETURN JUMPDEST PUSH2 0x292 PUSH1 0x4 DUP1 CALLDATASIZE SUB DUP2 ADD SWAP1 PUSH2 0x28D SWAP2 SWAP1 PUSH2 0x1B62 JUMP JUMPDEST PUSH2 0x729 JUMP JUMPDEST PUSH1 0x40 MLOAD PUSH2 0x29F SWAP2 SWAP1 PUSH2 0x18BF JUMP JUMPDEST PUSH1 0x40 MLOAD DUP1 SWAP2 SUB SWAP1 RETURN JUMPDEST PUSH2 0x2B0 PUSH2 0x77C JUMP JUMPDEST STOP JUMPDEST PUSH2 0x2BA PUSH2 0x78F JUMP JUMPDEST STOP JUMPDEST PUSH2 0x2C4 PUSH2 0x81D JUMP JUMPDEST PUSH1 0x40 MLOAD PUSH2 0x2D1 SWAP2 SWAP1 PUSH2 0x1B9C JUMP JUMPDEST PUSH1 0x40 MLOAD DUP1 SWAP2 SUB SWAP1 RETURN JUMPDEST PUSH2 0x2E2 PUSH2 0x852 JUMP JUMPDEST PUSH1 0x40 MLOAD PUSH2 0x2EF SWAP2 SWAP1 PUSH2 0x1781 JUMP JUMPDEST PUSH1 0x40 MLOAD DUP1 SWAP2 SUB SWAP1 RETURN JUMPDEST PUSH2 0x312 PUSH1 0x4 DUP1 CALLDATASIZE SUB DUP2 ADD SWAP1 PUSH2 0x30D SWAP2 SWAP1 PUSH2 0x183F JUMP JUMPDEST PUSH2 0x8F0 JUMP JUMPDEST PUSH1 0x40 MLOAD PUSH2 0x31F SWAP2 SWAP1 PUSH2 0x1897 JUMP JUMPDEST PUSH1 0x40 MLOAD DUP1 SWAP2 SUB SWAP1 RETURN JUMPDEST PUSH2 0x342 PUSH1 0x4 DUP1 CALLDATASIZE SUB DUP2 ADD SWAP1 PUSH2 0x33D SWAP2 SWAP1 PUSH2 0x1BB5 JUMP JUMPDEST PUSH2 0x912 JUMP JUMPDEST PUSH1 0x40 MLOAD PUSH2 0x34F SWAP2 SWAP1 PUSH2 0x18BF JUMP JUMPDEST PUSH1 0x40 MLOAD DUP1 SWAP2 SUB SWAP1 RETURN JUMPDEST PUSH2 0x360 PUSH2 0x9A2 JUMP JUMPDEST PUSH1 0x40 MLOAD PUSH2 0x36D SWAP2 SWAP1 PUSH2 0x1B9C JUMP JUMPDEST PUSH1 0x40 MLOAD DUP1 SWAP2 SUB SWAP1 RETURN JUMPDEST PUSH2 0x390 PUSH1 0x4 DUP1 CALLDATASIZE SUB DUP2 ADD SWAP1 PUSH2 0x38B SWAP2 SWAP1 PUSH2 0x1B62 JUMP JUMPDEST PUSH2 0x9D7 JUMP JUMPDEST STOP JUMPDEST PUSH2 0x39A PUSH2 0xA90 JUMP JUMPDEST PUSH1 0x40 MLOAD PUSH2 0x3A7 SWAP2 SWAP1 PUSH2 0x1781 JUMP JUMPDEST PUSH1 0x40 MLOAD DUP1 SWAP2 SUB SWAP1 RETURN JUMPDEST PUSH1 0x60 PUSH0 PUSH2 0x3BB PUSH2 0xAC9 JUMP JUMPDEST SWAP1 POP DUP1 PUSH1 0x3 ADD DUP1 SLOAD PUSH2 0x3CC SWAP1 PUSH2 0x1C20 JUMP JUMPDEST DUP1 PUSH1 0x1F ADD PUSH1 0x20 DUP1 SWAP2 DIV MUL PUSH1 0x20 ADD PUSH1 0x40 MLOAD SWAP1 DUP2 ADD PUSH1 0x40 MSTORE DUP1 SWAP3 SWAP2 SWAP1 DUP2 DUP2 MSTORE PUSH1 0x20 ADD DUP3 DUP1 SLOAD PUSH2 0x3F8 SWAP1 PUSH2 0x1C20 JUMP JUMPDEST DUP1 ISZERO PUSH2 0x443 JUMPI DUP1 PUSH1 0x1F LT PUSH2 0x41A JUMPI PUSH2 0x100 DUP1 DUP4 SLOAD DIV MUL DUP4 MSTORE SWAP2 PUSH1 0x20 ADD SWAP2 PUSH2 0x443 JUMP JUMPDEST DUP3 ADD SWAP2 SWAP1 PUSH0 MSTORE PUSH1 0x20 PUSH0 KECCAK256 SWAP1 JUMPDEST DUP2 SLOAD DUP2 MSTORE SWAP1 PUSH1 0x1 ADD SWAP1 PUSH1 0x20 ADD DUP1 DUP4 GT PUSH2 0x426 JUMPI DUP3 SWAP1 SUB PUSH1 0x1F AND DUP3 ADD SWAP2 JUMPDEST POP POP POP POP POP SWAP2 POP POP SWAP1 JUMP JUMPDEST PUSH0 PUSH0 PUSH2 0x458 PUSH2 0xAF0 JUMP JUMPDEST SWAP1 POP PUSH2 0x465 DUP2 DUP6 DUP6 PUSH2 0xAF7 JUMP JUMPDEST PUSH1 0x1 SWAP2 POP POP SWAP3 SWAP2 POP POP JUMP JUMPDEST PUSH0 PUSH0 PUSH2 0x47A PUSH2 0xAC9 JUMP JUMPDEST SWAP1 POP DUP1 PUSH1 0x2 ADD SLOAD SWAP2 POP POP SWAP1 JUMP JUMPDEST PUSH0 PUSH0 PUSH2 0x491 PUSH2 0xAF0 JUMP JUMPDEST SWAP1 POP PUSH2 0x49E DUP6 DUP3 DUP6 PUSH2 0xB09 JUMP JUMPDEST PUSH2 0x4A9 DUP6 DUP6 DUP6 PUSH2 0xB9C JUMP JUMPDEST PUSH1 0x1 SWAP2 POP POP SWAP4 SWAP3 POP POP POP JUMP JUMPDEST PUSH0 PUSH1 0x12 SWAP1 POP SWAP1 JUMP JUMPDEST PUSH0 PUSH2 0x4C6 PUSH2 0xC8C JUMP JUMPDEST SWAP1 POP PUSH0 DUP2 PUSH0 ADD PUSH1 0x8 SWAP1 SLOAD SWAP1 PUSH2 0x100 EXP SWAP1 DIV PUSH1 0xFF AND ISZERO SWAP1 POP PUSH0 DUP3 PUSH0 ADD PUSH0 SWAP1 SLOAD SWAP1 PUSH2 0x100 EXP SWAP1 DIV PUSH8 0xFFFFFFFFFFFFFFFF AND SWAP1 POP PUSH0 PUSH0 DUP3 PUSH8 0xFFFFFFFFFFFFFFFF AND EQ DUP1 ISZERO PUSH2 0x50E JUMPI POP DUP3 JUMPDEST SWAP1 POP PUSH0 PUSH1 0x1 DUP4 PUSH8 0xFFFFFFFFFFFFFFFF AND EQ DUP1 ISZERO PUSH2 0x541 JUMPI POP PUSH0 ADDRESS PUSH20 0xFFFFFFFFFFFFFFFFFFFFFFFFFFFFFFFFFFFFFFFF AND EXTCODESIZE EQ JUMPDEST SWAP1 POP DUP2 ISZERO DUP1 ISZERO PUSH2 0x54F JUMPI POP DUP1 ISZERO JUMPDEST ISZERO PUSH2 0x586 JUMPI PUSH1 0x40 MLOAD PUSH32 0xF92EE8A900000000000000000000000000000000000000000000000000000000 DUP2 MSTORE PUSH1 0x4 ADD PUSH1 0x40 MLOAD DUP1 SWAP2 SUB SWAP1 REVERT JUMPDEST PUSH1 0x1 DUP6 PUSH0 ADD PUSH0 PUSH2 0x100 EXP DUP2 SLOAD DUP2 PUSH8 0xFFFFFFFFFFFFFFFF MUL NOT AND SWAP1 DUP4 PUSH8 0xFFFFFFFFFFFFFFFF AND MUL OR SWAP1 SSTORE POP DUP4 ISZERO PUSH2 0x5D3 JUMPI PUSH1 0x1 DUP6 PUSH0 ADD PUSH1 0x8 PUSH2 0x100 EXP DUP2 SLOAD DUP2 PUSH1 0xFF MUL NOT AND SWAP1 DUP4 ISZERO ISZERO MUL OR SWAP1 SSTORE POP JUMPDEST PUSH2 0x5DD DUP11 DUP11 PUSH2 0xC9F JUMP JUMPDEST PUSH2 0x604 PUSH2 0x5E8 PUSH2 0x4B5 JUMP JUMPDEST PUSH1 0xA PUSH2 0x5F4 SWAP2 SWAP1 PUSH2 0x1DAC JUMP JUMPDEST DUP10 PUSH2 0x5FF SWAP2 SWAP1 PUSH2 0x1DF6 JUMP JUMPDEST PUSH2 0xCB5 JUMP JUMPDEST PUSH2 0x60D DUP7 PUSH2 0xCC9 JUMP JUMPDEST PUSH2 0x615 PUSH2 0xCDD JUMP JUMPDEST PUSH2 0x63D DUP7 PUSH2 0x621 PUSH2 0x4B5 JUMP JUMPDEST PUSH1 0xA PUSH2 0x62D SWAP2 SWAP1 PUSH2 0x1DAC JUMP JUMPDEST DUP10 PUSH2 0x638 SWAP2 SWAP1 PUSH2 0x1DF6 JUMP JUMPDEST PUSH2 0xCEF JUMP JUMPDEST DUP4 ISZERO PUSH2 0x697 JUMPI PUSH0 DUP6 PUSH0 ADD PUSH1 0x8 PUSH2 0x100 EXP DUP2 SLOAD DUP2 PUSH1 0xFF MUL NOT AND SWAP1 DUP4 ISZERO ISZERO MUL OR SWAP1 SSTORE POP PUSH32 0xC7F505B2F371AE2175EE4913F4499E1F2633A7B5936321EED1CDAEB6115181D2 PUSH1 0x1 PUSH1 0x40 MLOAD PUSH2 0x68E SWAP2 SWAP1 PUSH2 0x1E8C JUMP JUMPDEST PUSH1 0x40 MLOAD DUP1 SWAP2 SUB SWAP1 LOG1 JUMPDEST POP POP POP POP POP POP POP POP POP POP JUMP JUMPDEST PUSH0 PUSH0 PUSH2 0x6AD PUSH2 0xD6E JUMP JUMPDEST SWAP1 POP DUP1 PUSH0 ADD SLOAD SWAP2 POP POP SWAP1 JUMP JUMPDEST PUSH2 0x6C1 PUSH2 0xD95 JUMP JUMPDEST PUSH2 0x6C9 PUSH2 0xE1C JUMP JUMPDEST PUSH2 0x6D3 DUP3 DUP3 PUSH2 0xCEF JUMP JUMPDEST PUSH2 0x6DB PUSH2 0xE70 JUMP JUMPDEST POP POP JUMP JUMPDEST PUSH2 0x6E9 CALLER DUP3 PUSH2 0xE87 JUMP JUMPDEST POP JUMP JUMPDEST PUSH1 0x60 PUSH1 0x40 MLOAD DUP1 PUSH1 0x40 ADD PUSH1 0x40 MSTORE DUP1 PUSH1 0x3 DUP2 MSTORE PUSH1 0x20 ADD PUSH32 0x322E300000000000000000000000000000000000000000000000000000000000 DUP2 MSTORE POP SWAP1 POP SWAP1 JUMP JUMPDEST PUSH0 PUSH0 PUSH2 0x733 PUSH2 0xAC9 JUMP JUMPDEST SWAP1 POP DUP1 PUSH0 ADD PUSH0 DUP5 PUSH20 0xFFFFFFFFFFFFFFFFFFFFFFFFFFFFFFFFFFFFFFFF AND PUSH20 0xFFFFFFFFFFFFFFFFFFFFFFFFFFFFFFFFFFFFFFFF AND DUP2 MSTORE PUSH1 0x20 ADD SWAP1 DUP2 MSTORE PUSH1 0x20 ADD PUSH0 KECCAK256 SLOAD SWAP2 POP POP SWAP2 SWAP1 POP JUMP JUMPDEST PUSH2 0x784 PUSH2 0xD95 JUMP JUMPDEST PUSH2 0x78D PUSH0 PUSH2 0xF06 JUMP JUMPDEST JUMP JUMPDEST PUSH0 PUSH2 0x798 PUSH2 0xAF0 JUMP JUMPDEST SWAP1 POP DUP1 PUSH20 0xFFFFFFFFFFFFFFFFFFFFFFFFFFFFFFFFFFFFFFFF AND PUSH2 0x7B9 PUSH2 0x9A2 JUMP JUMPDEST PUSH20 0xFFFFFFFFFFFFFFFFFFFFFFFFFFFFFFFFFFFFFFFF AND EQ PUSH2 0x811 JUMPI DUP1 PUSH1 0x40 MLOAD PUSH32 0x118CDAA700000000000000000000000000000000000000000000000000000000 DUP2 MSTORE PUSH1 0x4 ADD PUSH2 0x808 SWAP2 SWAP1 PUSH2 0x1B9C JUMP JUMPDEST PUSH1 0x40 MLOAD DUP1 SWAP2 SUB SWAP1 REVERT JUMPDEST PUSH2 0x81A DUP2 PUSH2 0xF06 JUMP JUMPDEST POP JUMP JUMPDEST PUSH0 PUSH0 PUSH2 0x827 PUSH2 0xF43 JUMP JUMPDEST SWAP1 POP DUP1 PUSH0 ADD PUSH0 SWAP1 SLOAD SWAP1 PUSH2 0x100 EXP SWAP1 DIV PUSH20 0xFFFFFFFFFFFFFFFFFFFFFFFFFFFFFFFFFFFFFFFF AND SWAP2 POP POP SWAP1 JUMP JUMPDEST PUSH1 0x60 PUSH0 PUSH2 0x85D PUSH2 0xAC9 JUMP JUMPDEST SWAP1 POP DUP1 PUSH1 0x4 ADD DUP1 SLOAD PUSH2 0x86E SWAP1 PUSH2 0x1C20 JUMP JUMPDEST DUP1 PUSH1 0x1F ADD PUSH1 0x20 DUP1 SWAP2 DIV MUL PUSH1 0x20 ADD PUSH1 0x40 MLOAD SWAP1 DUP2 ADD PUSH1 0x40 MSTORE DUP1 SWAP3 SWAP2 SWAP1 DUP2 DUP2 MSTORE PUSH1 0x20 ADD DUP3 DUP1 SLOAD PUSH2 0x89A SWAP1 PUSH2 0x1C20 JUMP JUMPDEST DUP1 ISZERO PUSH2 0x8E5 JUMPI DUP1 PUSH1 0x1F LT PUSH2 0x8BC JUMPI PUSH2 0x100 DUP1 DUP4 SLOAD DIV MUL DUP4 MSTORE SWAP2 PUSH1 0x20 ADD SWAP2 PUSH2 0x8E5 JUMP JUMPDEST DUP3 ADD SWAP2 SWAP1 PUSH0 MSTORE PUSH1 0x20 PUSH0 KECCAK256 SWAP1 JUMPDEST DUP2 SLOAD DUP2 MSTORE SWAP1 PUSH1 0x1 ADD SWAP1 PUSH1 0x20 ADD DUP1 DUP4 GT PUSH2 0x8C8 JUMPI DUP3 SWAP1 SUB PUSH1 0x1F AND DUP3 ADD SWAP2 JUMPDEST POP POP POP POP POP SWAP2 POP POP SWAP1 JUMP JUMPDEST PUSH0 PUSH0 PUSH2 0x8FA PUSH2 0xAF0 JUMP JUMPDEST SWAP1 POP PUSH2 0x907 DUP2 DUP6 DUP6 PUSH2 0xB9C JUMP JUMPDEST PUSH1 0x1 SWAP2 POP POP SWAP3 SWAP2 POP POP JUMP JUMPDEST PUSH0 PUSH0 PUSH2 0x91C PUSH2 0xAC9 JUMP JUMPDEST SWAP1 POP DUP1 PUSH1 0x1 ADD PUSH0 DUP6 PUSH20 0xFFFFFFFFFFFFFFFFFFFFFFFFFFFFFFFFFFFFFFFF AND PUSH20 0xFFFFFFFFFFFFFFFFFFFFFFFFFFFFFFFFFFFFFFFF AND DUP2 MSTORE PUSH1 0x20 ADD SWAP1 DUP2 MSTORE PUSH1 0x20 ADD PUSH0 KECCAK256 PUSH0 DUP5 PUSH20 0xFFFFFFFFFFFFFFFFFFFFFFFFFFFFFFFFFFFFFFFF AND PUSH20 0xFFFFFFFFFFFFFFFFFFFFFFFFFFFFFFFFFFFFFFFF AND DUP2 MSTORE PUSH1 0x20 ADD SWAP1 DUP2 MSTORE PUSH1 0x20 ADD PUSH0 KECCAK256 SLOAD SWAP2 POP POP SWAP3 SWAP2 POP POP JUMP JUMPDEST PUSH0 PUSH0 PUSH2 0x9AC PUSH2 0xF6A JUMP JUMPDEST SWAP1 POP DUP1 PUSH0 ADD PUSH0 SWAP1 SLOAD SWAP1 PUSH2 0x100 EXP SWAP1 DIV PUSH20 0xFFFFFFFFFFFFFFFFFFFFFFFFFFFFFFFFFFFFFFFF AND SWAP2 POP POP SWAP1 JUMP JUMPDEST PUSH2 0x9DF PUSH2 0xD95 JUMP JUMPDEST PUSH0 PUSH2 0x9E8 PUSH2 0xF6A JUMP JUMPDEST SWAP1 POP DUP2 DUP2 PUSH0 ADD PUSH0 PUSH2 0x100 EXP DUP2 SLOAD DUP2 PUSH20 0xFFFFFFFFFFFFFFFFFFFFFFFFFFFFFFFFFFFFFFFF MUL NOT AND SWAP1 DUP4 PUSH20 0xFFFFFFFFFFFFFFFFFFFFFFFFFFFFFFFFFFFFFFFF AND MUL OR SWAP1 SSTORE POP DUP2 PUSH20 0xFFFFFFFFFFFFFFFFFFFFFFFFFFFFFFFFFFFFFFFF AND PUSH2 0xA4A PUSH2 0x81D JUMP JUMPDEST PUSH20 0xFFFFFFFFFFFFFFFFFFFFFFFFFFFFFFFFFFFFFFFF AND PUSH32 0x38D16B8CAC22D99FC7C124B9CD0DE2D3FA1FAEF420BFE791D8C362D765E22700 PUSH1 0x40 MLOAD PUSH1 0x40 MLOAD DUP1 SWAP2 SUB SWAP1 LOG3 POP POP JUMP JUMPDEST PUSH1 0x40 MLOAD DUP1 PUSH1 0x40 ADD PUSH1 0x40 MSTORE DUP1 PUSH1 0x3 DUP2 MSTORE PUSH1 0x20 ADD PUSH32 0x322E300000000000000000000000000000000000000000000000000000000000 DUP2 MSTORE POP DUP2 JUMP JUMPDEST PUSH0 PUSH32 0x52C63247E1F47DB19D5CE0460030C497F067CA4CEBF71BA98EEADABE20BACE00 SWAP1 POP SWAP1 JUMP JUMPDEST PUSH0 CALLER SWAP1 POP SWAP1 JUMP JUMPDEST PUSH2 0xB04 DUP4 DUP4 DUP4 PUSH1 0x1 PUSH2 0xF91 JUMP JUMPDEST POP POP POP JUMP JUMPDEST PUSH0 PUSH2 0xB14 DUP5 DUP5 PUSH2 0x912 JUMP JUMPDEST SWAP1 POP PUSH32 0xFFFFFFFFFFFFFFFFFFFFFFFFFFFFFFFFFFFFFFFFFFFFFFFFFFFFFFFFFFFFFFFF DUP2 LT ISZERO PUSH2 0xB96 JUMPI DUP2 DUP2 LT ISZERO PUSH2 0xB87 JUMPI DUP3 DUP2 DUP4 PUSH1 0x40 MLOAD PUSH32 0xFB8F41B200000000000000000000000000000000000000000000000000000000 DUP2 MSTORE PUSH1 0x4 ADD PUSH2 0xB7E SWAP4 SWAP3 SWAP2 SWAP1 PUSH2 0x1EA5 JUMP JUMPDEST PUSH1 0x40 MLOAD DUP1 SWAP2 SUB SWAP1 REVERT JUMPDEST PUSH2 0xB95 DUP5 DUP5 DUP5 DUP5 SUB PUSH0 PUSH2 0xF91 JUMP JUMPDEST JUMPDEST POP POP POP POP JUMP JUMPDEST PUSH0 PUSH20 0xFFFFFFFFFFFFFFFFFFFFFFFFFFFFFFFFFFFFFFFF AND DUP4 PUSH20 0xFFFFFFFFFFFFFFFFFFFFFFFFFFFFFFFFFFFFFFFF AND SUB PUSH2 0xC0C JUMPI PUSH0 PUSH1 0x40 MLOAD PUSH32 0x96C6FD1E00000000000000000000000000000000000000000000000000000000 DUP2 MSTORE PUSH1 0x4 ADD PUSH2 0xC03 SWAP2 SWAP1 PUSH2 0x1B9C JUMP JUMPDEST PUSH1 0x40 MLOAD DUP1 SWAP2 SUB SWAP1 REVERT JUMPDEST PUSH0 PUSH20 0xFFFFFFFFFFFFFFFFFFFFFFFFFFFFFFFFFFFFFFFF AND DUP3 PUSH20 0xFFFFFFFFFFFFFFFFFFFFFFFFFFFFFFFFFFFFFFFF AND SUB PUSH2 0xC7C JUMPI PUSH0 PUSH1 0x40 MLOAD PUSH32 0xEC442F0500000000000000000000000000000000000000000000000000000000 DUP2 MSTORE PUSH1 0x4 ADD PUSH2 0xC73 SWAP2 SWAP1 PUSH2 0x1B9C JUMP JUMPDEST PUSH1 0x40 MLOAD DUP1 SWAP2 SUB SWAP1 REVERT JUMPDEST PUSH2 0xC87 DUP4 DUP4 DUP4 PUSH2 0x116E JUMP JUMPDEST POP POP POP JUMP JUMPDEST PUSH0 PUSH0 PUSH2 0xC96 PUSH2 0x117E JUMP JUMPDEST SWAP1 POP DUP1 SWAP2 POP POP SWAP1 JUMP JUMPDEST PUSH2 0xCA7 PUSH2 0x11A7 JUMP JUMPDEST PUSH2 0xCB1 DUP3 DUP3 PUSH2 0x11E7 JUMP JUMPDEST POP POP JUMP JUMPDEST PUSH2 0xCBD PUSH2 0x11A7 JUMP JUMPDEST PUSH2 0xCC6 DUP2 PUSH2 0x1223 JUMP JUMPDEST POP JUMP JUMPDEST PUSH2 0xCD1 PUSH2 0x11A7 JUMP JUMPDEST PUSH2 0xCDA DUP2 PUSH2 0x1286 JUMP JUMPDEST POP JUMP JUMPDEST PUSH2 0xCE5 PUSH2 0x11A7 JUMP JUMPDEST PUSH2 0xCED PUSH2 0x130A JUMP JUMPDEST JUMP JUMPDEST PUSH0 PUSH20 0xFFFFFFFFFFFFFFFFFFFFFFFFFFFFFFFFFFFFFFFF AND DUP3 PUSH20 0xFFFFFFFFFFFFFFFFFFFFFFFFFFFFFFFFFFFFFFFF AND SUB PUSH2 0xD5F JUMPI PUSH0 PUSH1 0x40 MLOAD PUSH32 0xEC442F0500000000000000000000000000000000000000000000000000000000 DUP2 MSTORE PUSH1 0x4 ADD PUSH2 0xD56 SWAP2 SWAP1 PUSH2 0x1B9C JUMP JUMPDEST PUSH1 0x40 MLOAD DUP1 SWAP2 SUB SWAP1 REVERT JUMPDEST PUSH2 0xD6A PUSH0 DUP4 DUP4 PUSH2 0x116E JUMP JUMPDEST POP POP JUMP JUMPDEST PUSH0 PUSH32 0xF070392F17D5F958CC1AC31867DABECFC5C9758B4A419A200803226D7155D00 SWAP1 POP SWAP1 JUMP JUMPDEST PUSH2 0xD9D PUSH2 0xAF0 JUMP JUMPDEST PUSH20 0xFFFFFFFFFFFFFFFFFFFFFFFFFFFFFFFFFFFFFFFF AND PUSH2 0xDBB PUSH2 0x81D JUMP JUMPDEST PUSH20 0xFFFFFFFFFFFFFFFFFFFFFFFFFFFFFFFFFFFFFFFF AND EQ PUSH2 0xE1A JUMPI PUSH2 0xDDE PUSH2 0xAF0 JUMP JUMPDEST PUSH1 0x40 MLOAD PUSH32 0x118CDAA700000000000000000000000000000000000000000000000000000000 DUP2 MSTORE PUSH1 0x4 ADD PUSH2 0xE11 SWAP2 SWAP1 PUSH2 0x1B9C JUMP JUMPDEST PUSH1 0x40 MLOAD DUP1 SWAP2 SUB SWAP1 REVERT JUMPDEST JUMP JUMPDEST PUSH0 PUSH2 0xE25 PUSH2 0x1329 JUMP JUMPDEST SWAP1 POP PUSH1 0x2 DUP2 PUSH0 ADD SLOAD SUB PUSH2 0xE64 JUMPI PUSH1 0x40 MLOAD PUSH32 0x3EE5AEB500000000000000000000000000000000000000000000000000000000 DUP2 MSTORE PUSH1 0x4 ADD PUSH1 0x40 MLOAD DUP1 SWAP2 SUB SWAP1 REVERT JUMPDEST PUSH1 0x2 DUP2 PUSH0 ADD DUP2 SWAP1 SSTORE POP POP JUMP JUMPDEST PUSH0 PUSH2 0xE79 PUSH2 0x1329 JUMP JUMPDEST SWAP1 POP PUSH1 0x1 DUP2 PUSH0 ADD DUP2 SWAP1 SSTORE POP POP JUMP JUMPDEST PUSH0 PUSH20 0xFFFFFFFFFFFFFFFFFFFFFFFFFFFFFFFFFFFFFFFF AND DUP3 PUSH20 0xFFFFFFFFFFFFFFFFFFFFFFFFFFFFFFFFFFFFFFFF AND SUB PUSH2 0xEF7 JUMPI PUSH0 PUSH1 0x40 MLOAD PUSH32 0x96C6FD1E00000000000000000000000000000000000000000000000000000000 DUP2 MSTORE PUSH1 0x4 ADD PUSH2 0xEEE SWAP2 SWAP1 PUSH2 0x1B9C JUMP JUMPDEST PUSH1 0x40 MLOAD DUP1 SWAP2 SUB SWAP1 REVERT JUMPDEST PUSH2 0xF02 DUP3 PUSH0 DUP4 PUSH2 0x116E JUMP JUMPDEST POP POP JUMP JUMPDEST PUSH0 PUSH2 0xF0F PUSH2 0xF6A JUMP JUMPDEST SWAP1 POP DUP1 PUSH0 ADD PUSH0 PUSH2 0x100 EXP DUP2 SLOAD SWAP1 PUSH20 0xFFFFFFFFFFFFFFFFFFFFFFFFFFFFFFFFFFFFFFFF MUL NOT AND SWAP1 SSTORE PUSH2 0xF3F DUP3 PUSH2 0x1350 JUMP JUMPDEST POP POP JUMP JUMPDEST PUSH0 PUSH32 0x9016D09D72D40FDAE2FD8CEAC6B6234C7706214FD39C1CD1E609A0528C199300 SWAP1 POP SWAP1 JUMP JUMPDEST PUSH0 PUSH32 0x237E158222E3E6968B72B9DB0D8043AACF074AD9F650F0D1606B4D82EE432C00 SWAP1 POP SWAP1 JUMP JUMPDEST PUSH0 PUSH2 0xF9A PUSH2 0xAC9 JUMP JUMPDEST SWAP1 POP PUSH0 PUSH20 0xFFFFFFFFFFFFFFFFFFFFFFFFFFFFFFFFFFFFFFFF AND DUP6 PUSH20 0xFFFFFFFFFFFFFFFFFFFFFFFFFFFFFFFFFFFFFFFF AND SUB PUSH2 0x100C JUMPI PUSH0 PUSH1 0x40 MLOAD PUSH32 0xE602DF0500000000000000000000000000000000000000000000000000000000 DUP2 MSTORE PUSH1 0x4 ADD PUSH2 0x1003 SWAP2 SWAP1 PUSH2 0x1B9C JUMP JUMPDEST PUSH1 0x40 MLOAD DUP1 SWAP2 SUB SWAP1 REVERT JUMPDEST PUSH0 PUSH20 0xFFFFFFFFFFFFFFFFFFFFFFFFFFFFFFFFFFFFFFFF AND DUP5 PUSH20 0xFFFFFFFFFFFFFFFFFFFFFFFFFFFFFFFFFFFFFFFF AND SUB PUSH2 0x107C JUMPI PUSH0 PUSH1 0x40 MLOAD PUSH32 0x94280D6200000000000000000000000000000000000000000000000000000000 DUP2 MSTORE PUSH1 0x4 ADD PUSH2 0x1073 SWAP2 SWAP1 PUSH2 0x1B9C JUMP JUMPDEST PUSH1 0x40 MLOAD DUP1 SWAP2 SUB SWAP1 REVERT JUMPDEST DUP3 DUP2 PUSH1 0x1 ADD PUSH0 DUP8 PUSH20 0xFFFFFFFFFFFFFFFFFFFFFFFFFFFFFFFFFFFFFFFF AND PUSH20 0xFFFFFFFFFFFFFFFFFFFFFFFFFFFFFFFFFFFFFFFF AND DUP2 MSTORE PUSH1 0x20 ADD SWAP1 DUP2 MSTORE PUSH1 0x20 ADD PUSH0 KECCAK256 PUSH0 DUP7 PUSH20 0xFFFFFFFFFFFFFFFFFFFFFFFFFFFFFFFFFFFFFFFF AND PUSH20 0xFFFFFFFFFFFFFFFFFFFFFFFFFFFFFFFFFFFFFFFF AND DUP2 MSTORE PUSH1 0x20 ADD SWAP1 DUP2 MSTORE PUSH1 0x20 ADD PUSH0 KECCAK256 DUP2 SWAP1 SSTORE POP DUP2 ISZERO PUSH2 0x1167 JUMPI DUP4 PUSH20 0xFFFFFFFFFFFFFFFFFFFFFFFFFFFFFFFFFFFFFFFF AND DUP6 PUSH20 0xFFFFFFFFFFFFFFFFFFFFFFFFFFFFFFFFFFFFFFFF AND PUSH32 0x8C5BE1E5EBEC7D5BD14F71427D1E84F3DD0314C0F7B2291E5B200AC8C7C3B925 DUP6 PUSH1 0x40 MLOAD PUSH2 0x115E SWAP2 SWAP1 PUSH2 0x18BF JUMP JUMPDEST PUSH1 0x40 MLOAD DUP1 SWAP2 SUB SWAP1 LOG3 JUMPDEST POP POP POP POP POP JUMP JUMPDEST PUSH2 0x1179 DUP4 DUP4 DUP4 PUSH2 0x1421 JUMP JUMPDEST POP POP POP JUMP JUMPDEST PUSH0 PUSH32 0xF0C57E16840DF040F15088DC2F81FE391C3923BEC73E23A9662EFC9C229C6A00 PUSH0 SHL SWAP1 POP SWAP1 JUMP JUMPDEST PUSH2 0x11AF PUSH2 0x14C4 JUMP JUMPDEST PUSH2 0x11E5 JUMPI PUSH1 0x40 MLOAD PUSH32 0xD7E6BCF800000000000000000000000000000000000000000000000000000000 DUP2 MSTORE PUSH1 0x4 ADD PUSH1 0x40 MLOAD DUP1 SWAP2 SUB SWAP1 REVERT JUMPDEST JUMP JUMPDEST PUSH2 0x11EF PUSH2 0x11A7 JUMP JUMPDEST PUSH0 PUSH2 0x11F8 PUSH2 0xAC9 JUMP JUMPDEST SWAP1 POP DUP3 DUP2 PUSH1 0x3 ADD SWAP1 DUP2 PUSH2 0x120B SWAP2 SWAP1 PUSH2 0x2071 JUMP JUMPDEST POP DUP2 DUP2 PUSH1 0x4 ADD SWAP1 DUP2 PUSH2 0x121D SWAP2 SWAP1 PUSH2 0x2071 JUMP JUMPDEST POP POP POP POP JUMP JUMPDEST PUSH2 0x122B PUSH2 0x11A7 JUMP JUMPDEST PUSH0 PUSH2 0x1234 PUSH2 0xD6E JUMP JUMPDEST SWAP1 POP PUSH0 DUP3 SUB PUSH2 0x127A JUMPI PUSH0 PUSH1 0x40 MLOAD PUSH32 0x392E1E2700000000000000000000000000000000000000000000000000000000 DUP2 MSTORE PUSH1 0x4 ADD PUSH2 0x1271 SWAP2 SWAP1 PUSH2 0x2179 JUMP JUMPDEST PUSH1 0x40 MLOAD DUP1 SWAP2 SUB SWAP1 REVERT JUMPDEST DUP2 DUP2 PUSH0 ADD DUP2 SWAP1 SSTORE POP POP POP JUMP JUMPDEST PUSH2 0x128E PUSH2 0x11A7 JUMP JUMPDEST PUSH0 PUSH20 0xFFFFFFFFFFFFFFFFFFFFFFFFFFFFFFFFFFFFFFFF AND DUP2 PUSH20 0xFFFFFFFFFFFFFFFFFFFFFFFFFFFFFFFFFFFFFFFF AND SUB PUSH2 0x12FE JUMPI PUSH0 PUSH1 0x40 MLOAD PUSH32 0x1E4FBDF700000000000000000000000000000000000000000000000000000000 DUP2 MSTORE PUSH1 0x4 ADD PUSH2 0x12F5 SWAP2 SWAP1 PUSH2 0x1B9C JUMP JUMPDEST PUSH1 0x40 MLOAD DUP1 SWAP2 SUB SWAP1 REVERT JUMPDEST PUSH2 0x1307 DUP2 PUSH2 0xF06 JUMP JUMPDEST POP JUMP JUMPDEST PUSH2 0x1312 PUSH2 0x11A7 JUMP JUMPDEST PUSH0 PUSH2 0x131B PUSH2 0x1329 JUMP JUMPDEST SWAP1 POP PUSH1 0x1 DUP2 PUSH0 ADD DUP2 SWAP1 SSTORE POP POP JUMP JUMPDEST PUSH0 PUSH32 0x9B779B17422D0DF92223018B32B4D1FA46E071723D6817E2486D003BECC55F00 SWAP1 POP SWAP1 JUMP JUMPDEST PUSH0 PUSH2 0x1359 PUSH2 0xF43 JUMP JUMPDEST SWAP1 POP PUSH0 DUP2 PUSH0 ADD PUSH0 SWAP1 SLOAD SWAP1 PUSH2 0x100 EXP SWAP1 DIV PUSH20 0xFFFFFFFFFFFFFFFFFFFFFFFFFFFFFFFFFFFFFFFF AND SWAP1 POP DUP3 DUP3 PUSH0 ADD PUSH0 PUSH2 0x100 EXP DUP2 SLOAD DUP2 PUSH20 0xFFFFFFFFFFFFFFFFFFFFFFFFFFFFFFFFFFFFFFFF MUL NOT AND SWAP1 DUP4 PUSH20 0xFFFFFFFFFFFFFFFFFFFFFFFFFFFFFFFFFFFFFFFF AND MUL OR SWAP1 SSTORE POP DUP3 PUSH20 0xFFFFFFFFFFFFFFFFFFFFFFFFFFFFFFFFFFFFFFFF AND DUP2 PUSH20 0xFFFFFFFFFFFFFFFFFFFFFFFFFFFFFFFFFFFFFFFF AND PUSH32 0x8BE0079C531659141344CD1FD0A4F28419497F9722A3DAAFE3B4186F6B6457E0 PUSH1 0x40 MLOAD PUSH1 0x40 MLOAD DUP1 SWAP2 SUB SWAP1 LOG3 POP POP POP JUMP JUMPDEST PUSH2 0x142C DUP4 DUP4 DUP4 PUSH2 0x14E2 JUMP JUMPDEST PUSH0 PUSH20 0xFFFFFFFFFFFFFFFFFFFFFFFFFFFFFFFFFFFFFFFF AND DUP4 PUSH20 0xFFFFFFFFFFFFFFFFFFFFFFFFFFFFFFFFFFFFFFFF AND SUB PUSH2 0x14BF JUMPI PUSH0 PUSH2 0x1468 PUSH2 0x6A3 JUMP JUMPDEST SWAP1 POP PUSH0 PUSH2 0x1473 PUSH2 0x470 JUMP JUMPDEST SWAP1 POP DUP2 DUP2 GT ISZERO PUSH2 0x14BC JUMPI DUP1 DUP3 PUSH1 0x40 MLOAD PUSH32 0x9E79F85400000000000000000000000000000000000000000000000000000000 DUP2 MSTORE PUSH1 0x4 ADD PUSH2 0x14B3 SWAP3 SWAP2 SWAP1 PUSH2 0x2192 JUMP JUMPDEST PUSH1 0x40 MLOAD DUP1 SWAP2 SUB SWAP1 REVERT JUMPDEST POP POP JUMPDEST POP POP POP JUMP JUMPDEST PUSH0 PUSH2 0x14CD PUSH2 0xC8C JUMP JUMPDEST PUSH0 ADD PUSH1 0x8 SWAP1 SLOAD SWAP1 PUSH2 0x100 EXP SWAP1 DIV PUSH1 0xFF AND SWAP1 POP SWAP1 JUMP JUMPDEST PUSH0 PUSH2 0x14EB PUSH2 0xAC9 JUMP JUMPDEST SWAP1 POP PUSH0 PUSH20 0xFFFFFFFFFFFFFFFFFFFFFFFFFFFFFFFFFFFFFFFF AND DUP5 PUSH20 0xFFFFFFFFFFFFFFFFFFFFFFFFFFFFFFFFFFFFFFFF AND SUB PUSH2 0x153F JUMPI DUP2 DUP2 PUSH1 0x2 ADD PUSH0 DUP3 DUP3 SLOAD PUSH2 0x1533 SWAP2 SWAP1 PUSH2 0x21B9 JUMP JUMPDEST SWAP3 POP POP DUP2 SWAP1 SSTORE POP PUSH2 0x1611 JUMP JUMPDEST PUSH0 DUP2 PUSH0 ADD PUSH0 DUP7 PUSH20 0xFFFFFFFFFFFFFFFFFFFFFFFFFFFFFFFFFFFFFFFF AND PUSH20 0xFFFFFFFFFFFFFFFFFFFFFFFFFFFFFFFFFFFFFFFF AND DUP2 MSTORE PUSH1 0x20 ADD SWAP1 DUP2 MSTORE PUSH1 0x20 ADD PUSH0 KECCAK256 SLOAD SWAP1 POP DUP3 DUP2 LT ISZERO PUSH2 0x15CA JUMPI DUP5 DUP2 DUP5 PUSH1 0x40 MLOAD PUSH32 0xE450D38C00000000000000000000000000000000000000000000000000000000 DUP2 MSTORE PUSH1 0x4 ADD PUSH2 0x15C1 SWAP4 SWAP3 SWAP2 SWAP1 PUSH2 0x1EA5 JUMP JUMPDEST PUSH1 0x40 MLOAD DUP1 SWAP2 SUB SWAP1 REVERT JUMPDEST DUP3 DUP2 SUB DUP3 PUSH0 ADD PUSH0 DUP8 PUSH20 0xFFFFFFFFFFFFFFFFFFFFFFFFFFFFFFFFFFFFFFFF AND PUSH20 0xFFFFFFFFFFFFFFFFFFFFFFFFFFFFFFFFFFFFFFFF AND DUP2 MSTORE PUSH1 0x20 ADD SWAP1 DUP2 MSTORE PUSH1 0x20 ADD PUSH0 KECCAK256 DUP2 SWAP1 SSTORE POP POP JUMPDEST PUSH0 PUSH20 0xFFFFFFFFFFFFFFFFFFFFFFFFFFFFFFFFFFFFFFFF AND DUP4 PUSH20 0xFFFFFFFFFFFFFFFFFFFFFFFFFFFFFFFFFFFFFFFF AND SUB PUSH2 0x165A JUMPI DUP2 DUP2 PUSH1 0x2 ADD PUSH0 DUP3 DUP3 SLOAD SUB SWAP3 POP POP DUP2 SWAP1 SSTORE POP PUSH2 0x16A6 JUMP JUMPDEST DUP2 DUP2 PUSH0 ADD PUSH0 DUP6 PUSH20 0xFFFFFFFFFFFFFFFFFFFFFFFFFFFFFFFFFFFFFFFF AND PUSH20 0xFFFFFFFFFFFFFFFFFFFFFFFFFFFFFFFFFFFFFFFF AND DUP2 MSTORE PUSH1 0x20 ADD SWAP1 DUP2 MSTORE PUSH1 0x20 ADD PUSH0 KECCAK256 PUSH0 DUP3 DUP3 SLOAD ADD SWAP3 POP POP DUP2 SWAP1 SSTORE POP JUMPDEST DUP3 PUSH20 0xFFFFFFFFFFFFFFFFFFFFFFFFFFFFFFFFFFFFFFFF AND DUP5 PUSH20 0xFFFFFFFFFFFFFFFFFFFFFFFFFFFFFFFFFFFFFFFF AND PUSH32 0xDDF252AD1BE2C89B69C2B068FC378DAA952BA7F163C4A11628F55A4DF523B3EF DUP5 PUSH1 0x40 MLOAD PUSH2 0x1703 SWAP2 SWAP1 PUSH2 0x18BF JUMP JUMPDEST PUSH1 0x40 MLOAD DUP1 SWAP2 SUB SWAP1 LOG3 POP POP POP POP JUMP JUMPDEST PUSH0 DUP2 MLOAD SWAP1 POP SWAP2 SWAP1 POP JUMP JUMPDEST PUSH0 DUP3 DUP3 MSTORE PUSH1 0x20 DUP3 ADD SWAP1 POP SWAP3 SWAP2 POP POP JUMP JUMPDEST DUP3 DUP2 DUP4 MCOPY PUSH0 DUP4 DUP4 ADD MSTORE POP POP POP JUMP JUMPDEST PUSH0 PUSH1 0x1F NOT PUSH1 0x1F DUP4 ADD AND SWAP1 POP SWAP2 SWAP1 POP JUMP JUMPDEST PUSH0 PUSH2 0x1753 DUP3 PUSH2 0x1711 JUMP JUMPDEST PUSH2 0x175D DUP2 DUP6 PUSH2 0x171B JUMP JUMPDEST SWAP4 POP PUSH2 0x176D DUP2 DUP6 PUSH1 0x20 DUP7 ADD PUSH2 0x172B JUMP JUMPDEST PUSH2 0x1776 DUP2 PUSH2 0x1739 JUMP JUMPDEST DUP5 ADD SWAP2 POP POP SWAP3 SWAP2 POP POP JUMP JUMPDEST PUSH0 PUSH1 0x20 DUP3 ADD SWAP1 POP DUP2 DUP2 SUB PUSH0 DUP4 ADD MSTORE PUSH2 0x1799 DUP2 DUP5 PUSH2 0x1749 JUMP JUMPDEST SWAP1 POP SWAP3 SWAP2 POP POP JUMP JUMPDEST PUSH0 PUSH1 0x40 MLOAD SWAP1 POP SWAP1 JUMP JUMPDEST PUSH0 PUSH0 REVERT JUMPDEST PUSH0 PUSH0 REVERT JUMPDEST PUSH0 PUSH20 0xFFFFFFFFFFFFFFFFFFFFFFFFFFFFFFFFFFFFFFFF DUP3 AND SWAP1 POP SWAP2 SWAP1 POP JUMP JUMPDEST PUSH0 PUSH2 0x17DB DUP3 PUSH2 0x17B2 JUMP JUMPDEST SWAP1 POP SWAP2 SWAP1 POP JUMP JUMPDEST PUSH2 0x17EB DUP2 PUSH2 0x17D1 JUMP JUMPDEST DUP2 EQ PUSH2 0x17F5 JUMPI PUSH0 PUSH0 REVERT JUMPDEST POP JUMP JUMPDEST PUSH0 DUP2 CALLDATALOAD SWAP1 POP PUSH2 0x1806 DUP2 PUSH2 0x17E2 JUMP JUMPDEST SWAP3 SWAP2 POP POP JUMP JUMPDEST PUSH0 DUP2 SWAP1 POP SWAP2 SWAP1 POP JUMP JUMPDEST PUSH2 0x181E DUP2 PUSH2 0x180C JUMP JUMPDEST DUP2 EQ PUSH2 0x1828 JUMPI PUSH0 PUSH0 REVERT JUMPDEST POP JUMP JUMPDEST PUSH0 DUP2 CALLDATALOAD SWAP1 POP PUSH2 0x1839 DUP2 PUSH2 0x1815 JUMP JUMPDEST SWAP3 SWAP2 POP POP JUMP JUMPDEST PUSH0 PUSH0 PUSH1 0x40 DUP4 DUP6 SUB SLT ISZERO PUSH2 0x1855 JUMPI PUSH2 0x1854 PUSH2 0x17AA JUMP JUMPDEST JUMPDEST PUSH0 PUSH2 0x1862 DUP6 DUP3 DUP7 ADD PUSH2 0x17F8 JUMP JUMPDEST SWAP3 POP POP PUSH1 0x20 PUSH2 0x1873 DUP6 DUP3 DUP7 ADD PUSH2 0x182B JUMP JUMPDEST SWAP2 POP POP SWAP3 POP SWAP3 SWAP1 POP JUMP JUMPDEST PUSH0 DUP2 ISZERO ISZERO SWAP1 POP SWAP2 SWAP1 POP JUMP JUMPDEST PUSH2 0x1891 DUP2 PUSH2 0x187D JUMP JUMPDEST DUP3 MSTORE POP POP JUMP JUMPDEST PUSH0 PUSH1 0x20 DUP3 ADD SWAP1 POP PUSH2 0x18AA PUSH0 DUP4 ADD DUP5 PUSH2 0x1888 JUMP JUMPDEST SWAP3 SWAP2 POP POP JUMP JUMPDEST PUSH2 0x18B9 DUP2 PUSH2 0x180C JUMP JUMPDEST DUP3 MSTORE POP POP JUMP JUMPDEST PUSH0 PUSH1 0x20 DUP3 ADD SWAP1 POP PUSH2 0x18D2 PUSH0 DUP4 ADD DUP5 PUSH2 0x18B0 JUMP JUMPDEST SWAP3 SWAP2 POP POP JUMP JUMPDEST PUSH0 PUSH0 PUSH0 PUSH1 0x60 DUP5 DUP7 SUB SLT ISZERO PUSH2 0x18EF JUMPI PUSH2 0x18EE PUSH2 0x17AA JUMP JUMPDEST JUMPDEST PUSH0 PUSH2 0x18FC DUP7 DUP3 DUP8 ADD PUSH2 0x17F8 JUMP JUMPDEST SWAP4 POP POP PUSH1 0x20 PUSH2 0x190D DUP7 DUP3 DUP8 ADD PUSH2 0x17F8 JUMP JUMPDEST SWAP3 POP POP PUSH1 0x40 PUSH2 0x191E DUP7 DUP3 DUP8 ADD PUSH2 0x182B JUMP JUMPDEST SWAP2 POP POP SWAP3 POP SWAP3 POP SWAP3 JUMP JUMPDEST PUSH0 PUSH1 0xFF DUP3 AND SWAP1 POP SWAP2 SWAP1 POP JUMP JUMPDEST PUSH2 0x193D DUP2 PUSH2 0x1928 JUMP JUMPDEST DUP3 MSTORE POP POP JUMP JUMPDEST PUSH0 PUSH1 0x20 DUP3 ADD SWAP1 POP PUSH2 0x1956 PUSH0 DUP4 ADD DUP5 PUSH2 0x1934 JUMP JUMPDEST SWAP3 SWAP2 POP POP JUMP JUMPDEST PUSH0 PUSH0 REVERT JUMPDEST PUSH0 PUSH0 REVERT JUMPDEST PUSH32 0x4E487B7100000000000000000000000000000000000000000000000000000000 PUSH0 MSTORE PUSH1 0x41 PUSH1 0x4 MSTORE PUSH1 0x24 PUSH0 REVERT JUMPDEST PUSH2 0x199A DUP3 PUSH2 0x1739 JUMP JUMPDEST DUP2 ADD DUP2 DUP2 LT PUSH8 0xFFFFFFFFFFFFFFFF DUP3 GT OR ISZERO PUSH2 0x19B9 JUMPI PUSH2 0x19B8 PUSH2 0x1964 JUMP JUMPDEST JUMPDEST DUP1 PUSH1 0x40 MSTORE POP POP POP JUMP JUMPDEST PUSH0 PUSH2 0x19CB PUSH2 0x17A1 JUMP JUMPDEST SWAP1 POP PUSH2 0x19D7 DUP3 DUP3 PUSH2 0x1991 JUMP JUMPDEST SWAP2 SWAP1 POP JUMP JUMPDEST PUSH0 PUSH8 0xFFFFFFFFFFFFFFFF DUP3 GT ISZERO PUSH2 0x19F6 JUMPI PUSH2 0x19F5 PUSH2 0x1964 JUMP JUMPDEST JUMPDEST PUSH2 0x19FF DUP3 PUSH2 0x1739 JUMP JUMPDEST SWAP1 POP PUSH1 0x20 DUP2 ADD SWAP1 POP SWAP2 SWAP1 POP JUMP JUMPDEST DUP3 DUP2 DUP4 CALLDATACOPY PUSH0 DUP4 DUP4 ADD MSTORE POP POP POP JUMP JUMPDEST PUSH0 PUSH2 0x1A2C PUSH2 0x1A27 DUP5 PUSH2 0x19DC JUMP JUMPDEST PUSH2 0x19C2 JUMP JUMPDEST SWAP1 POP DUP3 DUP2 MSTORE PUSH1 0x20 DUP2 ADD DUP5 DUP5 DUP5 ADD GT ISZERO PUSH2 0x1A48 JUMPI PUSH2 0x1A47 PUSH2 0x1960 JUMP JUMPDEST JUMPDEST PUSH2 0x1A53 DUP5 DUP3 DUP6 PUSH2 0x1A0C JUMP JUMPDEST POP SWAP4 SWAP3 POP POP POP JUMP JUMPDEST PUSH0 DUP3 PUSH1 0x1F DUP4 ADD SLT PUSH2 0x1A6F JUMPI PUSH2 0x1A6E PUSH2 0x195C JUMP JUMPDEST JUMPDEST DUP2 CALLDATALOAD PUSH2 0x1A7F DUP5 DUP3 PUSH1 0x20 DUP7 ADD PUSH2 0x1A1A JUMP JUMPDEST SWAP2 POP POP SWAP3 SWAP2 POP POP JUMP JUMPDEST PUSH0 PUSH0 PUSH0 PUSH0 PUSH0 PUSH1 0xA0 DUP7 DUP9 SUB SLT ISZERO PUSH2 0x1AA1 JUMPI PUSH2 0x1AA0 PUSH2 0x17AA JUMP JUMPDEST JUMPDEST PUSH0 DUP7 ADD CALLDATALOAD PUSH8 0xFFFFFFFFFFFFFFFF DUP2 GT ISZERO PUSH2 0x1ABE JUMPI PUSH2 0x1ABD PUSH2 0x17AE JUMP JUMPDEST JUMPDEST PUSH2 0x1ACA DUP9 DUP3 DUP10 ADD PUSH2 0x1A5B JUMP JUMPDEST SWAP6 POP POP PUSH1 0x20 DUP7 ADD CALLDATALOAD PUSH8 0xFFFFFFFFFFFFFFFF DUP2 GT ISZERO PUSH2 0x1AEB JUMPI PUSH2 0x1AEA PUSH2 0x17AE JUMP JUMPDEST JUMPDEST PUSH2 0x1AF7 DUP9 DUP3 DUP10 ADD PUSH2 0x1A5B JUMP JUMPDEST SWAP5 POP POP PUSH1 0x40 PUSH2 0x1B08 DUP9 DUP3 DUP10 ADD PUSH2 0x182B JUMP JUMPDEST SWAP4 POP POP PUSH1 0x60 PUSH2 0x1B19 DUP9 DUP3 DUP10 ADD PUSH2 0x182B JUMP JUMPDEST SWAP3 POP POP PUSH1 0x80 PUSH2 0x1B2A DUP9 DUP3 DUP10 ADD PUSH2 0x17F8 JUMP JUMPDEST SWAP2 POP POP SWAP3 SWAP6 POP SWAP3 SWAP6 SWAP1 SWAP4 POP JUMP JUMPDEST PUSH0 PUSH1 0x20 DUP3 DUP5 SUB SLT ISZERO PUSH2 0x1B4C JUMPI PUSH2 0x1B4B PUSH2 0x17AA JUMP JUMPDEST JUMPDEST PUSH0 PUSH2 0x1B59 DUP5 DUP3 DUP6 ADD PUSH2 0x182B JUMP JUMPDEST SWAP2 POP POP SWAP3 SWAP2 POP POP JUMP JUMPDEST PUSH0 PUSH1 0x20 DUP3 DUP5 SUB SLT ISZERO PUSH2 0x1B77 JUMPI PUSH2 0x1B76 PUSH2 0x17AA JUMP JUMPDEST JUMPDEST PUSH0 PUSH2 0x1B84 DUP5 DUP3 DUP6 ADD PUSH2 0x17F8 JUMP JUMPDEST SWAP2 POP POP SWAP3 SWAP2 POP POP JUMP JUMPDEST PUSH2 0x1B96 DUP2 PUSH2 0x17D1 JUMP JUMPDEST DUP3 MSTORE POP POP JUMP JUMPDEST PUSH0 PUSH1 0x20 DUP3 ADD SWAP1 POP PUSH2 0x1BAF PUSH0 DUP4 ADD DUP5 PUSH2 0x1B8D JUMP JUMPDEST SWAP3 SWAP2 POP POP JUMP JUMPDEST PUSH0 PUSH0 PUSH1 0x40 DUP4 DUP6 SUB SLT ISZERO PUSH2 0x1BCB JUMPI PUSH2 0x1BCA PUSH2 0x17AA JUMP JUMPDEST JUMPDEST PUSH0 PUSH2 0x1BD8 DUP6 DUP3 DUP7 ADD PUSH2 0x17F8 JUMP JUMPDEST SWAP3 POP POP PUSH1 0x20 PUSH2 0x1BE9 DUP6 DUP3 DUP7 ADD PUSH2 0x17F8 JUMP JUMPDEST SWAP2 POP POP SWAP3 POP SWAP3 SWAP1 POP JUMP JUMPDEST PUSH32 0x4E487B7100000000000000000000000000000000000000000000000000000000 PUSH0 MSTORE PUSH1 0x22 PUSH1 0x4 MSTORE PUSH1 0x24 PUSH0 REVERT JUMPDEST PUSH0 PUSH1 0x2 DUP3 DIV SWAP1 POP PUSH1 0x1 DUP3 AND DUP1 PUSH2 0x1C37 JUMPI PUSH1 0x7F DUP3 AND SWAP2 POP JUMPDEST PUSH1 0x20 DUP3 LT DUP2 SUB PUSH2 0x1C4A JUMPI PUSH2 0x1C49 PUSH2 0x1BF3 JUMP JUMPDEST JUMPDEST POP SWAP2 SWAP1 POP JUMP JUMPDEST PUSH32 0x4E487B7100000000000000000000000000000000000000000000000000000000 PUSH0 MSTORE PUSH1 0x11 PUSH1 0x4 MSTORE PUSH1 0x24 PUSH0 REVERT JUMPDEST PUSH0 DUP2 PUSH1 0x1 SHR SWAP1 POP SWAP2 SWAP1 POP JUMP JUMPDEST PUSH0 PUSH0 DUP3 SWAP2 POP DUP4 SWAP1 POP JUMPDEST PUSH1 0x1 DUP6 GT ISZERO PUSH2 0x1CD2 JUMPI DUP1 DUP7 DIV DUP2 GT ISZERO PUSH2 0x1CAE JUMPI PUSH2 0x1CAD PUSH2 0x1C50 JUMP JUMPDEST JUMPDEST PUSH1 0x1 DUP6 AND ISZERO PUSH2 0x1CBD JUMPI DUP1 DUP3 MUL SWAP2 POP JUMPDEST DUP1 DUP2 MUL SWAP1 POP PUSH2 0x1CCB DUP6 PUSH2 0x1C7D JUMP JUMPDEST SWAP5 POP PUSH2 0x1C92 JUMP JUMPDEST SWAP5 POP SWAP5 SWAP3 POP POP POP JUMP JUMPDEST PUSH0 DUP3 PUSH2 0x1CEA JUMPI PUSH1 0x1 SWAP1 POP PUSH2 0x1DA5 JUMP JUMPDEST DUP2 PUSH2 0x1CF7 JUMPI PUSH0 SWAP1 POP PUSH2 0x1DA5 JUMP JUMPDEST DUP2 PUSH1 0x1 DUP2 EQ PUSH2 0x1D0D JUMPI PUSH1 0x2 DUP2 EQ PUSH2 0x1D17 JUMPI PUSH2 0x1D46 JUMP JUMPDEST PUSH1 0x1 SWAP2 POP POP PUSH2 0x1DA5 JUMP JUMPDEST PUSH1 0xFF DUP5 GT ISZERO PUSH2 0x1D29 JUMPI PUSH2 0x1D28 PUSH2 0x1C50 JUMP JUMPDEST JUMPDEST DUP4 PUSH1 0x2 EXP SWAP2 POP DUP5 DUP3 GT ISZERO PUSH2 0x1D40 JUMPI PUSH2 0x1D3F PUSH2 0x1C50 JUMP JUMPDEST JUMPDEST POP PUSH2 0x1DA5 JUMP JUMPDEST POP PUSH1 0x20 DUP4 LT PUSH2 0x133 DUP4 LT AND PUSH1 0x4E DUP5 LT PUSH1 0xB DUP5 LT AND OR ISZERO PUSH2 0x1D7B JUMPI DUP3 DUP3 EXP SWAP1 POP DUP4 DUP2 GT ISZERO PUSH2 0x1D76 JUMPI PUSH2 0x1D75 PUSH2 0x1C50 JUMP JUMPDEST JUMPDEST PUSH2 0x1DA5 JUMP JUMPDEST PUSH2 0x1D88 DUP5 DUP5 DUP5 PUSH1 0x1 PUSH2 0x1C89 JUMP JUMPDEST SWAP3 POP SWAP1 POP DUP2 DUP5 DIV DUP2 GT ISZERO PUSH2 0x1D9F JUMPI PUSH2 0x1D9E PUSH2 0x1C50 JUMP JUMPDEST JUMPDEST DUP2 DUP2 MUL SWAP1 POP JUMPDEST SWAP4 SWAP3 POP POP POP JUMP JUMPDEST PUSH0 PUSH2 0x1DB6 DUP3 PUSH2 0x180C JUMP JUMPDEST SWAP2 POP PUSH2 0x1DC1 DUP4 PUSH2 0x1928 JUMP JUMPDEST SWAP3 POP PUSH2 0x1DEE PUSH32 0xFFFFFFFFFFFFFFFFFFFFFFFFFFFFFFFFFFFFFFFFFFFFFFFFFFFFFFFFFFFFFFFF DUP5 DUP5 PUSH2 0x1CDB JUMP JUMPDEST SWAP1 POP SWAP3 SWAP2 POP POP JUMP JUMPDEST PUSH0 PUSH2 0x1E00 DUP3 PUSH2 0x180C JUMP JUMPDEST SWAP2 POP PUSH2 0x1E0B DUP4 PUSH2 0x180C JUMP JUMPDEST SWAP3 POP DUP3 DUP3 MUL PUSH2 0x1E19 DUP2 PUSH2 0x180C JUMP JUMPDEST SWAP2 POP DUP3 DUP3 DIV DUP5 EQ DUP4 ISZERO OR PUSH2 0x1E30 JUMPI PUSH2 0x1E2F PUSH2 0x1C50 JUMP JUMPDEST JUMPDEST POP SWAP3 SWAP2 POP POP JUMP JUMPDEST PUSH0 DUP2 SWAP1 POP SWAP2 SWAP1 POP JUMP JUMPDEST PUSH0 PUSH8 0xFFFFFFFFFFFFFFFF DUP3 AND SWAP1 POP SWAP2 SWAP1 POP JUMP JUMPDEST PUSH0 DUP2 SWAP1 POP SWAP2 SWAP1 POP JUMP JUMPDEST PUSH0 PUSH2 0x1E76 PUSH2 0x1E71 PUSH2 0x1E6C DUP5 PUSH2 0x1E37 JUMP JUMPDEST PUSH2 0x1E53 JUMP JUMPDEST PUSH2 0x1E40 JUMP JUMPDEST SWAP1 POP SWAP2 SWAP1 POP JUMP JUMPDEST PUSH2 0x1E86 DUP2 PUSH2 0x1E5C JUMP JUMPDEST DUP3 MSTORE POP POP JUMP JUMPDEST PUSH0 PUSH1 0x20 DUP3 ADD SWAP1 POP PUSH2 0x1E9F PUSH0 DUP4 ADD DUP5 PUSH2 0x1E7D JUMP JUMPDEST SWAP3 SWAP2 POP POP JUMP JUMPDEST PUSH0 PUSH1 0x60 DUP3 ADD SWAP1 POP PUSH2 0x1EB8 PUSH0 DUP4 ADD DUP7 PUSH2 0x1B8D JUMP JUMPDEST PUSH2 0x1EC5 PUSH1 0x20 DUP4 ADD DUP6 PUSH2 0x18B0 JUMP JUMPDEST PUSH2 0x1ED2 PUSH1 0x40 DUP4 ADD DUP5 PUSH2 0x18B0 JUMP JUMPDEST SWAP5 SWAP4 POP POP POP POP JUMP JUMPDEST PUSH0 DUP2 SWAP1 POP DUP2 PUSH0 MSTORE PUSH1 0x20 PUSH0 KECCAK256 SWAP1 POP SWAP2 SWAP1 POP JUMP JUMPDEST PUSH0 PUSH1 0x20 PUSH1 0x1F DUP4 ADD DIV SWAP1 POP SWAP2 SWAP1 POP JUMP JUMPDEST PUSH0 DUP3 DUP3 SHL SWAP1 POP SWAP3 SWAP2 POP POP JUMP JUMPDEST PUSH0 PUSH1 0x8 DUP4 MUL PUSH2 0x1F36 PUSH32 0xFFFFFFFFFFFFFFFFFFFFFFFFFFFFFFFFFFFFFFFFFFFFFFFFFFFFFFFFFFFFFFFF DUP3 PUSH2 0x1EFB JUMP JUMPDEST PUSH2 0x1F40 DUP7 DUP4 PUSH2 0x1EFB JUMP JUMPDEST SWAP6 POP DUP1 NOT DUP5 AND SWAP4 POP DUP1 DUP7 AND DUP5 OR SWAP3 POP POP POP SWAP4 SWAP3 POP POP POP JUMP JUMPDEST PUSH0 PUSH2 0x1F72 PUSH2 0x1F6D PUSH2 0x1F68 DUP5 PUSH2 0x180C JUMP JUMPDEST PUSH2 0x1E53 JUMP JUMPDEST PUSH2 0x180C JUMP JUMPDEST SWAP1 POP SWAP2 SWAP1 POP JUMP JUMPDEST PUSH0 DUP2 SWAP1 POP SWAP2 SWAP1 POP JUMP JUMPDEST PUSH2 0x1F8B DUP4 PUSH2 0x1F58 JUMP JUMPDEST PUSH2 0x1F9F PUSH2 0x1F97 DUP3 PUSH2 0x1F79 JUMP JUMPDEST DUP5 DUP5 SLOAD PUSH2 0x1F07 JUMP JUMPDEST DUP3 SSTORE POP POP POP POP JUMP JUMPDEST PUSH0 PUSH0 SWAP1 POP SWAP1 JUMP JUMPDEST PUSH2 0x1FB6 PUSH2 0x1FA7 JUMP JUMPDEST PUSH2 0x1FC1 DUP2 DUP5 DUP5 PUSH2 0x1F82 JUMP JUMPDEST POP POP POP JUMP JUMPDEST JUMPDEST DUP2 DUP2 LT ISZERO PUSH2 0x1FE4 JUMPI PUSH2 0x1FD9 PUSH0 DUP3 PUSH2 0x1FAE JUMP JUMPDEST PUSH1 0x1 DUP2 ADD SWAP1 POP PUSH2 0x1FC7 JUMP JUMPDEST POP POP JUMP JUMPDEST PUSH1 0x1F DUP3 GT ISZERO PUSH2 0x2029 JUMPI PUSH2 0x1FFA DUP2 PUSH2 0x1EDA JUMP JUMPDEST PUSH2 0x2003 DUP5 PUSH2 0x1EEC JUMP JUMPDEST DUP2 ADD PUSH1 0x20 DUP6 LT ISZERO PUSH2 0x2012 JUMPI DUP2 SWAP1 POP JUMPDEST PUSH2 0x2026 PUSH2 0x201E DUP6 PUSH2 0x1EEC JUMP JUMPDEST DUP4 ADD DUP3 PUSH2 0x1FC6 JUMP JUMPDEST POP POP JUMPDEST POP POP POP JUMP JUMPDEST PUSH0 DUP3 DUP3 SHR SWAP1 POP SWAP3 SWAP2 POP POP JUMP JUMPDEST PUSH0 PUSH2 0x2049 PUSH0 NOT DUP5 PUSH1 0x8 MUL PUSH2 0x202E JUMP JUMPDEST NOT DUP1 DUP4 AND SWAP2 POP POP SWAP3 SWAP2 POP POP JUMP JUMPDEST PUSH0 PUSH2 0x2061 DUP4 DUP4 PUSH2 0x203A JUMP JUMPDEST SWAP2 POP DUP3 PUSH1 0x2 MUL DUP3 OR SWAP1 POP SWAP3 SWAP2 POP POP JUMP JUMPDEST PUSH2 0x207A DUP3 PUSH2 0x1711 JUMP JUMPDEST PUSH8 0xFFFFFFFFFFFFFFFF DUP2 GT ISZERO PUSH2 0x2093 JUMPI PUSH2 0x2092 PUSH2 0x1964 JUMP JUMPDEST JUMPDEST PUSH2 0x209D DUP3 SLOAD PUSH2 0x1C20 JUMP JUMPDEST PUSH2 0x20A8 DUP3 DUP3 DUP6 PUSH2 0x1FE8 JUMP JUMPDEST PUSH0 PUSH1 0x20 SWAP1 POP PUSH1 0x1F DUP4 GT PUSH1 0x1 DUP2 EQ PUSH2 0x20D9 JUMPI PUSH0 DUP5 ISZERO PUSH2 0x20C7 JUMPI DUP3 DUP8 ADD MLOAD SWAP1 POP JUMPDEST PUSH2 0x20D1 DUP6 DUP3 PUSH2 0x2056 JUMP JUMPDEST DUP7 SSTORE POP PUSH2 0x2138 JUMP JUMPDEST PUSH1 0x1F NOT DUP5 AND PUSH2 0x20E7 DUP7 PUSH2 0x1EDA JUMP JUMPDEST PUSH0 JUMPDEST DUP3 DUP2 LT ISZERO PUSH2 0x210E JUMPI DUP5 DUP10 ADD MLOAD DUP3 SSTORE PUSH1 0x1 DUP3 ADD SWAP2 POP PUSH1 0x20 DUP6 ADD SWAP5 POP PUSH1 0x20 DUP2 ADD SWAP1 POP PUSH2 0x20E9 JUMP JUMPDEST DUP7 DUP4 LT ISZERO PUSH2 0x212B JUMPI DUP5 DUP10 ADD MLOAD PUSH2 0x2127 PUSH1 0x1F DUP10 AND DUP3 PUSH2 0x203A JUMP JUMPDEST DUP4 SSTORE POP JUMPDEST PUSH1 0x1 PUSH1 0x2 DUP9 MUL ADD DUP9 SSTORE POP POP POP JUMPDEST POP POP POP POP POP POP JUMP JUMPDEST PUSH0 DUP2 SWAP1 POP SWAP2 SWAP1 POP JUMP JUMPDEST PUSH0 PUSH2 0x2163 PUSH2 0x215E PUSH2 0x2159 DUP5 PUSH2 0x2140 JUMP JUMPDEST PUSH2 0x1E53 JUMP JUMPDEST PUSH2 0x180C JUMP JUMPDEST SWAP1 POP SWAP2 SWAP1 POP JUMP JUMPDEST PUSH2 0x2173 DUP2 PUSH2 0x2149 JUMP JUMPDEST DUP3 MSTORE POP POP JUMP JUMPDEST PUSH0 PUSH1 0x20 DUP3 ADD SWAP1 POP PUSH2 0x218C PUSH0 DUP4 ADD DUP5 PUSH2 0x216A JUMP JUMPDEST SWAP3 SWAP2 POP POP JUMP JUMPDEST PUSH0 PUSH1 0x40 DUP3 ADD SWAP1 POP PUSH2 0x21A5 PUSH0 DUP4 ADD DUP6 PUSH2 0x18B0 JUMP JUMPDEST PUSH2 0x21B2 PUSH1 0x20 DUP4 ADD DUP5 PUSH2 0x18B0 JUMP JUMPDEST SWAP4 SWAP3 POP POP POP JUMP JUMPDEST PUSH0 PUSH2 0x21C3 DUP3 PUSH2 0x180C JUMP JUMPDEST SWAP2 POP PUSH2 0x21CE DUP4 PUSH2 0x180C JUMP JUMPDEST SWAP3 POP DUP3 DUP3 ADD SWAP1 POP DUP1 DUP3 GT ISZERO PUSH2 0x21E6 JUMPI PUSH2 0x21E5 PUSH2 0x1C50 JUMP JUMPDEST JUMPDEST SWAP3 SWAP2 POP POP JUMP INVALID LOG2 PUSH5 0x6970667358 0x22 SLT KECCAK256 LOG3 DUP11 MSIZE 0x2D 0xC2 GT SMOD RETF SWAP11 LT 0xD3 PUSH16 0x198F67FFE5B8413E6432E49D7F895C08 CALLDATALOAD PUSH13 0xFAF864736F6C634300081E0033 "
		},
		"gasEstimates": {
			"creation": {
				"codeDepositCost": "1747600",
				"executionCost": "1839",
				"totalCost": "1749439"
			},
			"external": {
				"VERSION()": "infinite",
				"acceptOwnership()": "infinite",
				"allowance(address,address)": "infinite",
				"approve(address,uint256)": "infinite",
				"balanceOf(address)": "2903",
				"burn(uint256)": "infinite",
				"cap()": "2528",
				"decimals()": "450",
				"initialize(string,string,uint256,uint256,address)": "infinite",
				"mint(address,uint256)": "infinite",
				"name()": "infinite",
				"owner()": "2655",
				"pendingOwner()": "2632",
				"renounceOwnership()": "infinite",
				"symbol()": "infinite",
				"totalSupply()": "2552",
				"transfer(address,uint256)": "infinite",
				"transferFrom(address,address,uint256)": "infinite",
				"transferOwnership(address)": "infinite",
				"version()": "infinite"
			},
			"internal": {
				"_update(address,address,uint256)": "infinite"
			}
		},
		"methodIdentifiers": {
			"VERSION()": "ffa1ad74",
			"acceptOwnership()": "79ba5097",
			"allowance(address,address)": "dd62ed3e",
			"approve(address,uint256)": "095ea7b3",
			"balanceOf(address)": "70a08231",
			"burn(uint256)": "42966c68",
			"cap()": "355274ea",
			"decimals()": "313ce567",
			"initialize(string,string,uint256,uint256,address)": "33eea181",
			"mint(address,uint256)": "40c10f19",
			"name()": "06fdde03",
			"owner()": "8da5cb5b",
			"pendingOwner()": "e30c3978",
			"renounceOwnership()": "715018a6",
			"symbol()": "95d89b41",
			"totalSupply()": "18160ddd",
			"transfer(address,uint256)": "a9059cbb",
			"transferFrom(address,address,uint256)": "23b872dd",
			"transferOwnership(address)": "f2fde38b",
			"version()": "54fd4d50"
		}
	},
	"abi": [
		{
			"inputs": [
				{
					"internalType": "uint256",
					"name": "increasedSupply",
					"type": "uint256"
				},
				{
					"internalType": "uint256",
					"name": "cap",
					"type": "uint256"
				}
			],
			"name": "ERC20ExceededCap",
			"type": "error"
		},
		{
			"inputs": [
				{
					"internalType": "address",
					"name": "spender",
					"type": "address"
				},
				{
					"internalType": "uint256",
					"name": "allowance",
					"type": "uint256"
				},
				{
					"internalType": "uint256",
					"name": "needed",
					"type": "uint256"
				}
			],
			"name": "ERC20InsufficientAllowance",
			"type": "error"
		},
		{
			"inputs": [
				{
					"internalType": "address",
					"name": "sender",
					"type": "address"
				},
				{
					"internalType": "uint256",
					"name": "balance",
					"type": "uint256"
				},
				{
					"internalType": "uint256",
					"name": "needed",
					"type": "uint256"
				}
			],
			"name": "ERC20InsufficientBalance",
			"type": "error"
		},
		{
			"inputs": [
				{
					"internalType": "address",
					"name": "approver",
					"type": "address"
				}
			],
			"name": "ERC20InvalidApprover",
			"type": "error"
		},
		{
			"inputs": [
				{
					"internalType": "uint256",
					"name": "cap",
					"type": "uint256"
				}
			],
			"name": "ERC20InvalidCap",
			"type": "error"
		},
		{
			"inputs": [
				{
					"internalType": "address",
					"name": "receiver",
					"type": "address"
				}
			],
			"name": "ERC20InvalidReceiver",
			"type": "error"
		},
		{
			"inputs": [
				{
					"internalType": "address",
					"name": "sender",
					"type": "address"
				}
			],
			"name": "ERC20InvalidSender",
			"type": "error"
		},
		{
			"inputs": [
				{
					"internalType": "address",
					"name": "spender",
					"type": "address"
				}
			],
			"name": "ERC20InvalidSpender",
			"type": "error"
		},
		{
			"inputs": [],
			"name": "InvalidInitialization",
			"type": "error"
		},
		{
			"inputs": [],
			"name": "NotInitializing",
			"type": "error"
		},
		{
			"inputs": [
				{
					"internalType": "address",
					"name": "owner",
					"type": "address"
				}
			],
			"name": "OwnableInvalidOwner",
			"type": "error"
		},
		{
			"inputs": [
				{
					"internalType": "address",
					"name": "account",
					"type": "address"
				}
			],
			"name": "OwnableUnauthorizedAccount",
			"type": "error"
		},
		{
			"inputs": [],
			"name": "ReentrancyGuardReentrantCall",
			"type": "error"
		},
		{
			"anonymous": false,
			"inputs": [
				{
					"indexed": true,
					"internalType": "address",
					"name": "owner",
					"type": "address"
				},
				{
					"indexed": true,
					"internalType": "address",
					"name": "spender",
					"type": "address"
				},
				{
					"indexed": false,
					"internalType": "uint256",
					"name": "value",
					"type": "uint256"
				}
			],
			"name": "Approval",
			"type": "event"
		},
		{
			"anonymous": false,
			"inputs": [
				{
					"indexed": false,
					"internalType": "uint64",
					"name": "version",
					"type": "uint64"
				}
			],
			"name": "Initialized",
			"type": "event"
		},
		{
			"anonymous": false,
			"inputs": [
				{
					"indexed": true,
					"internalType": "address",
					"name": "previousOwner",
					"type": "address"
				},
				{
					"indexed": true,
					"internalType": "address",
					"name": "newOwner",
					"type": "address"
				}
			],
			"name": "OwnershipTransferStarted",
			"type": "event"
		},
		{
			"anonymous": false,
			"inputs": [
				{
					"indexed": true,
					"internalType": "address",
					"name": "previousOwner",
					"type": "address"
				},
				{
					"indexed": true,
					"internalType": "address",
					"name": "newOwner",
					"type": "address"
				}
			],
			"name": "OwnershipTransferred",
			"type": "event"
		},
		{
			"anonymous": false,
			"inputs": [
				{
					"indexed": true,
					"internalType": "address",
					"name": "from",
					"type": "address"
				},
				{
					"indexed": true,
					"internalType": "address",
					"name": "to",
					"type": "address"
				},
				{
					"indexed": false,
					"internalType": "uint256",
					"name": "value",
					"type": "uint256"
				}
			],
			"name": "Transfer",
			"type": "event"
		},
		{
			"inputs": [],
			"name": "VERSION",
			"outputs": [
				{
					"internalType": "string",
					"name": "",
					"type": "string"
				}
			],
			"stateMutability": "view",
			"type": "function"
		},
		{
			"inputs": [],
			"name": "acceptOwnership",
			"outputs": [],
			"stateMutability": "nonpayable",
			"type": "function"
		},
		{
			"inputs": [
				{
					"internalType": "address",
					"name": "owner",
					"type": "address"
				},
				{
					"internalType": "address",
					"name": "spender",
					"type": "address"
				}
			],
			"name": "allowance",
			"outputs": [
				{
					"internalType": "uint256",
					"name": "",
					"type": "uint256"
				}
			],
			"stateMutability": "view",
			"type": "function"
		},
		{
			"inputs": [
				{
					"internalType": "address",
					"name": "spender",
					"type": "address"
				},
				{
					"internalType": "uint256",
					"name": "value",
					"type": "uint256"
				}
			],
			"name": "approve",
			"outputs": [
				{
					"internalType": "bool",
					"name": "",
					"type": "bool"
				}
			],
			"stateMutability": "nonpayable",
			"type": "function"
		},
		{
			"inputs": [
				{
					"internalType": "address",
					"name": "account",
					"type": "address"
				}
			],
			"name": "balanceOf",
			"outputs": [
				{
					"internalType": "uint256",
					"name": "",
					"type": "uint256"
				}
			],
			"stateMutability": "view",
			"type": "function"
		},
		{
			"inputs": [
				{
					"internalType": "uint256",
					"name": "amount",
					"type": "uint256"
				}
			],
			"name": "burn",
			"outputs": [],
			"stateMutability": "nonpayable",
			"type": "function"
		},
		{
			"inputs": [],
			"name": "cap",
			"outputs": [
				{
					"internalType": "uint256",
					"name": "",
					"type": "uint256"
				}
			],
			"stateMutability": "view",
			"type": "function"
		},
		{
			"inputs": [],
			"name": "decimals",
			"outputs": [
				{
					"internalType": "uint8",
					"name": "",
					"type": "uint8"
				}
			],
			"stateMutability": "view",
			"type": "function"
		},
		{
			"inputs": [
				{
					"internalType": "string",
					"name": "tokenName",
					"type": "string"
				},
				{
					"internalType": "string",
					"name": "tokenSymbol",
					"type": "string"
				},
				{
					"internalType": "uint256",
					"name": "capp",
					"type": "uint256"
				},
				{
					"internalType": "uint256",
					"name": "initialAmount",
					"type": "uint256"
				},
				{
					"internalType": "address",
					"name": "owner",
					"type": "address"
				}
			],
			"name": "initialize",
			"outputs": [],
			"stateMutability": "nonpayable",
			"type": "function"
		},
		{
			"inputs": [
				{
					"internalType": "address",
					"name": "to",
					"type": "address"
				},
				{
					"internalType": "uint256",
					"name": "amount",
					"type": "uint256"
				}
			],
			"name": "mint",
			"outputs": [],
			"stateMutability": "nonpayable",
			"type": "function"
		},
		{
			"inputs": [],
			"name": "name",
			"outputs": [
				{
					"internalType": "string",
					"name": "",
					"type": "string"
				}
			],
			"stateMutability": "view",
			"type": "function"
		},
		{
			"inputs": [],
			"name": "owner",
			"outputs": [
				{
					"internalType": "address",
					"name": "",
					"type": "address"
				}
			],
			"stateMutability": "view",
			"type": "function"
		},
		{
			"inputs": [],
			"name": "pendingOwner",
			"outputs": [
				{
					"internalType": "address",
					"name": "",
					"type": "address"
				}
			],
			"stateMutability": "view",
			"type": "function"
		},
		{
			"inputs": [],
			"name": "renounceOwnership",
			"outputs": [],
			"stateMutability": "nonpayable",
			"type": "function"
		},
		{
			"inputs": [],
			"name": "symbol",
			"outputs": [
				{
					"internalType": "string",
					"name": "",
					"type": "string"
				}
			],
			"stateMutability": "view",
			"type": "function"
		},
		{
			"inputs": [],
			"name": "totalSupply",
			"outputs": [
				{
					"internalType": "uint256",
					"name": "",
					"type": "uint256"
				}
			],
			"stateMutability": "view",
			"type": "function"
		},
		{
			"inputs": [
				{
					"internalType": "address",
					"name": "to",
					"type": "address"
				},
				{
					"internalType": "uint256",
					"name": "value",
					"type": "uint256"
				}
			],
			"name": "transfer",
			"outputs": [
				{
					"internalType": "bool",
					"name": "",
					"type": "bool"
				}
			],
			"stateMutability": "nonpayable",
			"type": "function"
		},
		{
			"inputs": [
				{
					"internalType": "address",
					"name": "from",
					"type": "address"
				},
				{
					"internalType": "address",
					"name": "to",
					"type": "address"
				},
				{
					"internalType": "uint256",
					"name": "value",
					"type": "uint256"
				}
			],
			"name": "transferFrom",
			"outputs": [
				{
					"internalType": "bool",
					"name": "",
					"type": "bool"
				}
			],
			"stateMutability": "nonpayable",
			"type": "function"
		},
		{
			"inputs": [
				{
					"internalType": "address",
					"name": "newOwner",
					"type": "address"
				}
			],
			"name": "transferOwnership",
			"outputs": [],
			"stateMutability": "nonpayable",
			"type": "function"
		},
		{
			"inputs": [],
			"name": "version",
			"outputs": [
				{
					"internalType": "string",
					"name": "",
					"type": "string"
				}
			],
			"stateMutability": "pure",
			"type": "function"
		}
	]
}